{"contracts/NftMarketplace.sol":{"NFTMarketplace":{"abi":[{"inputs":[],"stateMutability":"nonpayable","type":"constructor"},{"inputs":[{"internalType":"address","name":"sender","type":"address"},{"internalType":"uint256","name":"tokenId","type":"uint256"},{"internalType":"address","name":"owner","type":"address"}],"name":"ERC721IncorrectOwner","type":"error"},{"inputs":[{"internalType":"address","name":"operator","type":"address"},{"internalType":"uint256","name":"tokenId","type":"uint256"}],"name":"ERC721InsufficientApproval","type":"error"},{"inputs":[{"internalType":"address","name":"approver","type":"address"}],"name":"ERC721InvalidApprover","type":"error"},{"inputs":[{"internalType":"address","name":"operator","type":"address"}],"name":"ERC721InvalidOperator","type":"error"},{"inputs":[{"internalType":"address","name":"owner","type":"address"}],"name":"ERC721InvalidOwner","type":"error"},{"inputs":[{"internalType":"address","name":"receiver","type":"address"}],"name":"ERC721InvalidReceiver","type":"error"},{"inputs":[{"internalType":"address","name":"sender","type":"address"}],"name":"ERC721InvalidSender","type":"error"},{"inputs":[{"internalType":"uint256","name":"tokenId","type":"uint256"}],"name":"ERC721NonexistentToken","type":"error"},{"anonymous":false,"inputs":[{"indexed":true,"internalType":"address","name":"owner","type":"address"},{"indexed":true,"internalType":"address","name":"approved","type":"address"},{"indexed":true,"internalType":"uint256","name":"tokenId","type":"uint256"}],"name":"Approval","type":"event"},{"anonymous":false,"inputs":[{"indexed":true,"internalType":"address","name":"owner","type":"address"},{"indexed":true,"internalType":"address","name":"operator","type":"address"},{"indexed":false,"internalType":"bool","name":"approved","type":"bool"}],"name":"ApprovalForAll","type":"event"},{"anonymous":false,"inputs":[{"indexed":false,"internalType":"uint256","name":"_fromTokenId","type":"uint256"},{"indexed":false,"internalType":"uint256","name":"_toTokenId","type":"uint256"}],"name":"BatchMetadataUpdate","type":"event"},{"anonymous":false,"inputs":[{"indexed":true,"internalType":"uint256","name":"tokenId","type":"uint256"},{"indexed":false,"internalType":"address","name":"seller","type":"address"},{"indexed":false,"internalType":"address","name":"owner","type":"address"},{"indexed":false,"internalType":"uint256","name":"price","type":"uint256"},{"indexed":false,"internalType":"bool","name":"sold","type":"bool"}],"name":"MarketItemCreated","type":"event"},{"anonymous":false,"inputs":[{"indexed":false,"internalType":"uint256","name":"_tokenId","type":"uint256"}],"name":"MetadataUpdate","type":"event"},{"anonymous":false,"inputs":[{"indexed":true,"internalType":"uint256","name":"tokenId","type":"uint256"},{"indexed":true,"internalType":"address","name":"buyer","type":"address"},{"indexed":true,"internalType":"address","name":"seller","type":"address"},{"indexed":false,"internalType":"uint256","name":"price","type":"uint256"}],"name":"NFTPurchased","type":"event"},{"anonymous":false,"inputs":[{"indexed":true,"internalType":"address","name":"from","type":"address"},{"indexed":true,"internalType":"address","name":"to","type":"address"},{"indexed":true,"internalType":"uint256","name":"tokenId","type":"uint256"}],"name":"Transfer","type":"event"},{"inputs":[{"internalType":"address","name":"to","type":"address"},{"internalType":"uint256","name":"tokenId","type":"uint256"}],"name":"approve","outputs":[],"stateMutability":"nonpayable","type":"function"},{"inputs":[{"internalType":"address","name":"owner","type":"address"}],"name":"balanceOf","outputs":[{"internalType":"uint256","name":"","type":"uint256"}],"stateMutability":"view","type":"function"},{"inputs":[{"internalType":"uint256","name":"tokenId","type":"uint256"}],"name":"buy","outputs":[],"stateMutability":"payable","type":"function"},{"inputs":[{"internalType":"string","name":"tokenURI","type":"string"},{"internalType":"uint256","name":"price","type":"uint256"}],"name":"createToken","outputs":[{"internalType":"uint256","name":"","type":"uint256"}],"stateMutability":"payable","type":"function"},{"inputs":[],"name":"fetchItemsListed","outputs":[{"components":[{"internalType":"uint256","name":"tokenId","type":"uint256"},{"internalType":"address payable","name":"seller","type":"address"},{"internalType":"address payable","name":"owner","type":"address"},{"internalType":"uint256","name":"price","type":"uint256"},{"internalType":"bool","name":"sold","type":"bool"}],"internalType":"struct NFTMarketplace.MarketItem[]","name":"","type":"tuple[]"}],"stateMutability":"view","type":"function"},{"inputs":[],"name":"fetchMarketItems","outputs":[{"components":[{"internalType":"uint256","name":"tokenId","type":"uint256"},{"internalType":"address payable","name":"seller","type":"address"},{"internalType":"address payable","name":"owner","type":"address"},{"internalType":"uint256","name":"price","type":"uint256"},{"internalType":"bool","name":"sold","type":"bool"}],"internalType":"struct NFTMarketplace.MarketItem[]","name":"","type":"tuple[]"}],"stateMutability":"view","type":"function"},{"inputs":[],"name":"fetchMyNFTs","outputs":[{"components":[{"internalType":"uint256","name":"tokenId","type":"uint256"},{"internalType":"address payable","name":"seller","type":"address"},{"internalType":"address payable","name":"owner","type":"address"},{"internalType":"uint256","name":"price","type":"uint256"},{"internalType":"bool","name":"sold","type":"bool"}],"internalType":"struct NFTMarketplace.MarketItem[]","name":"","type":"tuple[]"}],"stateMutability":"view","type":"function"},{"inputs":[{"internalType":"uint256","name":"tokenId","type":"uint256"}],"name":"getApproved","outputs":[{"internalType":"address","name":"","type":"address"}],"stateMutability":"view","type":"function"},{"inputs":[],"name":"getListingPrice","outputs":[{"internalType":"uint256","name":"","type":"uint256"}],"stateMutability":"view","type":"function"},{"inputs":[{"internalType":"address","name":"owner","type":"address"},{"internalType":"address","name":"operator","type":"address"}],"name":"isApprovedForAll","outputs":[{"internalType":"bool","name":"","type":"bool"}],"stateMutability":"view","type":"function"},{"inputs":[],"name":"name","outputs":[{"internalType":"string","name":"","type":"string"}],"stateMutability":"view","type":"function"},{"inputs":[{"internalType":"uint256","name":"tokenId","type":"uint256"}],"name":"ownerOf","outputs":[{"internalType":"address","name":"","type":"address"}],"stateMutability":"view","type":"function"},{"inputs":[{"internalType":"uint256","name":"tokenId","type":"uint256"},{"internalType":"uint256","name":"price","type":"uint256"}],"name":"resellToken","outputs":[],"stateMutability":"payable","type":"function"},{"inputs":[{"internalType":"address","name":"from","type":"address"},{"internalType":"address","name":"to","type":"address"},{"internalType":"uint256","name":"tokenId","type":"uint256"}],"name":"safeTransferFrom","outputs":[],"stateMutability":"nonpayable","type":"function"},{"inputs":[{"internalType":"address","name":"from","type":"address"},{"internalType":"address","name":"to","type":"address"},{"internalType":"uint256","name":"tokenId","type":"uint256"},{"internalType":"bytes","name":"data","type":"bytes"}],"name":"safeTransferFrom","outputs":[],"stateMutability":"nonpayable","type":"function"},{"inputs":[{"internalType":"address","name":"operator","type":"address"},{"internalType":"bool","name":"approved","type":"bool"}],"name":"setApprovalForAll","outputs":[],"stateMutability":"nonpayable","type":"function"},{"inputs":[{"internalType":"bytes4","name":"interfaceId","type":"bytes4"}],"name":"supportsInterface","outputs":[{"internalType":"bool","name":"","type":"bool"}],"stateMutability":"view","type":"function"},{"inputs":[],"name":"symbol","outputs":[{"internalType":"string","name":"","type":"string"}],"stateMutability":"view","type":"function"},{"inputs":[{"internalType":"uint256","name":"tokenId","type":"uint256"}],"name":"tokenURI","outputs":[{"internalType":"string","name":"","type":"string"}],"stateMutability":"view","type":"function"},{"inputs":[{"internalType":"address","name":"from","type":"address"},{"internalType":"address","name":"to","type":"address"},{"internalType":"uint256","name":"tokenId","type":"uint256"}],"name":"transferFrom","outputs":[],"stateMutability":"nonpayable","type":"function"},{"inputs":[{"internalType":"uint256","name":"_listingPrice","type":"uint256"}],"name":"updateListingPrice","outputs":[],"stateMutability":"payable","type":"function"}],"evm":{"assembly":"// RO data = 0/0 bytes\n// RW data = 520/66112 bytes\n// Stack size = 32768 bytes\n\n// Instructions = 15824\n// Code size = 56493 bytes\n\n      : @0 (gas: 1)\n     0: jump @14 if a0 == a1\n      : @1 (gas: 9)\n     3: a3 = a1 << 0x20\n     6: a3 = a3 >> 0x20\n     9: a4 = a0 << 0x20\n    12: a4 = a4 >> 0x20\n    15: a4 = a4 + a2\n    18: a3 = a3 - a4\n    21: a4 = a2 << 0x1\n    24: a4 = -a4\n    26: jump @7 if a4 >=u a3\n      : @2 (gas: 1)\n    29: jump @11 if a0 >=u a1\n      : @3 (gas: 1)\n    32: jump @14 if a2 == 0\n      : @4 (gas: 3)\n    35: a2 = a2 + a0\n    38: a3 = a0\n    40: fallthrough\n      : @5 (gas: 6)\n    41: a4 = u8 [a1]\n    43: a1 = a1 + 0x1\n    46: a5 = a3 + 0x1\n    49: u8 [a3] = a4\n    51: a3 = a5\n    53: jump @5 if a5 != a2\n      : @6 (gas: 1)\n    56: jump @14\n      : @7 (gas: 1)\n    58: jump @14 if a2 == 0\n      : @8 (gas: 3)\n    61: a2 = a2 + a0\n    64: a3 = a0\n    66: fallthrough\n      : @9 (gas: 6)\n    67: a4 = u8 [a1]\n    69: a1 = a1 + 0x1\n    72: a5 = a3 + 0x1\n    75: u8 [a3] = a4\n    77: a3 = a5\n    79: jump @9 if a5 != a2\n      : @10 (gas: 1)\n    82: jump @14\n      : @11 (gas: 1)\n    84: jump @14 if a2 == 0\n      : @12 (gas: 2)\n    87: i32 a3 = a2 + 0xffffffffffffffff\n    90: fallthrough\n      : @13 (gas: 7)\n    91: a4 = a1 + a3\n    94: a4 = u8 [a4]\n    96: a2 = a2 + 0xffffffffffffffff\n    99: a5 = a0 + a3\n   102: u8 [a5] = a4\n   104: i32 a3 = a3 + 0xffffffffffffffff\n   107: jump @13 if a2 != 0\n      : @14 (gas: 1)\n   110: ret\n      : @15 (gas: 2)\n   112: a1 = i32 [0x20210]\n   117: jump @226 if a1 == 0\n      : @16 (gas: 4)\n   121: a0 = 0x30240\n   126: i32 a0 = a0 + 0\n   128: ecalli 14 // 'set_immutable_data'\n   130: jump @226\n      : @17 (gas: 8)\n   133: sp = sp + 0xfffffffffffffff0\n   136: u64 [sp + 0x8] = ra\n   139: u64 [sp] = s0\n   141: a2 = a1\n   143: s0 = a0\n   145: a1 = 0x20\n   148: a0 = a2\n   150: ra = 2, jump @34\n      : @18 [@dyn 1] (gas: 100)\n   155: a1 = u8 [a0 + 0x1]\n   158: a2 = u8 [a0]\n   160: a3 = u8 [a0 + 0x2]\n   163: a4 = u8 [a0 + 0x3]\n   166: a1 = a1 << 0x8\n   169: a1 = a1 | a2\n   172: a3 = a3 << 0x10\n   175: a4 = a4 << 0x18\n   178: a3 = a3 | a4\n   181: a1 = a1 | a3\n   184: a2 = u8 [a0 + 0x5]\n   187: a3 = u8 [a0 + 0x4]\n   190: a4 = u8 [a0 + 0x6]\n   193: a5 = u8 [a0 + 0x7]\n   196: a2 = a2 << 0x8\n   199: a2 = a2 | a3\n   202: a4 = a4 << 0x10\n   205: a5 = a5 << 0x18\n   208: a4 = a4 | a5\n   211: a2 = a2 | a4\n   214: a2 = a2 << 0x20\n   217: t0 = a2 | a1\n   220: a2 = u8 [a0 + 0x9]\n   223: a3 = u8 [a0 + 0x8]\n   226: a4 = u8 [a0 + 0xa]\n   229: a5 = u8 [a0 + 0xb]\n   232: a2 = a2 << 0x8\n   235: a2 = a2 | a3\n   238: a4 = a4 << 0x10\n   241: a5 = a5 << 0x18\n   244: a4 = a4 | a5\n   247: a2 = a2 | a4\n   250: a3 = u8 [a0 + 0xd]\n   253: a4 = u8 [a0 + 0xc]\n   256: a5 = u8 [a0 + 0xe]\n   259: a1 = u8 [a0 + 0xf]\n   262: a3 = a3 << 0x8\n   265: a3 = a3 | a4\n   268: a5 = a5 << 0x10\n   271: a1 = a1 << 0x18\n   274: a1 = a1 | a5\n   277: a1 = a1 | a3\n   280: a1 = a1 << 0x20\n   283: t1 = a1 | a2\n   286: a1 = u8 [a0 + 0x11]\n   289: a3 = u8 [a0 + 0x10]\n   292: a4 = u8 [a0 + 0x12]\n   295: a5 = u8 [a0 + 0x13]\n   298: a1 = a1 << 0x8\n   301: a1 = a1 | a3\n   304: a4 = a4 << 0x10\n   307: a5 = a5 << 0x18\n   310: a4 = a4 | a5\n   313: a1 = a1 | a4\n   316: a3 = u8 [a0 + 0x15]\n   319: a4 = u8 [a0 + 0x14]\n   322: a5 = u8 [a0 + 0x16]\n   325: a2 = u8 [a0 + 0x17]\n   328: a3 = a3 << 0x8\n   331: a3 = a3 | a4\n   334: a5 = a5 << 0x10\n   337: a2 = a2 << 0x18\n   340: a2 = a2 | a5\n   343: a2 = a2 | a3\n   346: a2 = a2 << 0x20\n   349: a3 = a2 | a1\n   352: a1 = u8 [a0 + 0x19]\n   355: a2 = u8 [a0 + 0x18]\n   358: a4 = u8 [a0 + 0x1a]\n   361: a5 = u8 [a0 + 0x1b]\n   364: a1 = a1 << 0x8\n   367: a1 = a1 | a2\n   370: a4 = a4 << 0x10\n   373: a5 = a5 << 0x18\n   376: a4 = a4 | a5\n   379: a1 = a1 | a4\n   382: a2 = u8 [a0 + 0x1d]\n   385: a4 = u8 [a0 + 0x1c]\n   388: a5 = u8 [a0 + 0x1e]\n   391: a0 = u8 [a0 + 0x1f]\n   394: a2 = a2 << 0x8\n   397: a2 = a2 | a4\n   400: a5 = a5 << 0x10\n   403: a0 = a0 << 0x18\n   406: a0 = a0 | a5\n   409: a0 = a0 | a2\n   412: a0 = a0 << 0x20\n   415: a0 = a0 | a1\n   418: a0 = reverse a0\n   420: a1 = reverse a3\n   422: a2 = reverse t1\n   424: a3 = reverse t0\n   426: u64 [s0 + 0x18] = a3\n   429: u64 [s0 + 0x10] = a2\n   432: u64 [s0 + 0x8] = a1\n   435: u64 [s0] = a0\n   437: ra = u64 [sp + 0x8]\n   440: s0 = u64 [sp]\n   442: sp = sp + 0x10\n   445: ret\n      : @19 (gas: 12)\n   447: sp = sp + 0xffffffffffffffd8\n   450: u64 [sp + 0x20] = ra\n   453: u64 [sp + 0x18] = s0\n   456: u64 [sp + 0x10] = s1\n   459: a2 = u64 [a1]\n   461: u64 [sp + 0x8] = a2\n   464: a2 = u64 [a1 + 0x8]\n   467: u64 [sp] = a2\n   469: s0 = u64 [a1 + 0x10]\n   472: s1 = u64 [a1 + 0x18]\n   475: a1 = 0x20\n   478: ra = 4, jump @34\n      : @20 [@dyn 2] (gas: 71)\n   483: a1 = reverse s1\n   485: a2 = reverse s0\n   487: a3 = u64 [sp]\n   489: a3 = reverse a3\n   491: a4 = u64 [sp + 0x8]\n   494: a4 = reverse a4\n   496: u8 [a0 + 0x18] = a4\n   499: u8 [a0 + 0x10] = a3\n   502: u8 [a0 + 0x8] = a2\n   505: u8 [a0] = a1\n   507: a5 = a4 >> 0x38\n   510: u8 [a0 + 0x1f] = a5\n   513: a5 = a4 >> 0x30\n   516: u8 [a0 + 0x1e] = a5\n   519: a5 = a4 >> 0x28\n   522: u8 [a0 + 0x1d] = a5\n   525: a5 = a4 >> 0x20\n   528: u8 [a0 + 0x1c] = a5\n   531: a5 = a4 >> 0x18\n   534: u8 [a0 + 0x1b] = a5\n   537: a5 = a4 >> 0x10\n   540: u8 [a0 + 0x1a] = a5\n   543: a4 = a4 >> 0x8\n   546: u8 [a0 + 0x19] = a4\n   549: a4 = a3 >> 0x38\n   552: u8 [a0 + 0x17] = a4\n   555: a4 = a3 >> 0x30\n   558: u8 [a0 + 0x16] = a4\n   561: a4 = a3 >> 0x28\n   564: u8 [a0 + 0x15] = a4\n   567: a4 = a3 >> 0x20\n   570: u8 [a0 + 0x14] = a4\n   573: a4 = a3 >> 0x18\n   576: u8 [a0 + 0x13] = a4\n   579: a4 = a3 >> 0x10\n   582: u8 [a0 + 0x12] = a4\n   585: a3 = a3 >> 0x8\n   588: u8 [a0 + 0x11] = a3\n   591: a3 = a2 >> 0x38\n   594: u8 [a0 + 0xf] = a3\n   597: a3 = a2 >> 0x30\n   600: u8 [a0 + 0xe] = a3\n   603: a3 = a2 >> 0x28\n   606: u8 [a0 + 0xd] = a3\n   609: a3 = a2 >> 0x20\n   612: u8 [a0 + 0xc] = a3\n   615: a3 = a2 >> 0x18\n   618: u8 [a0 + 0xb] = a3\n   621: a3 = a2 >> 0x10\n   624: u8 [a0 + 0xa] = a3\n   627: a2 = a2 >> 0x8\n   630: u8 [a0 + 0x9] = a2\n   633: a2 = a1 >> 0x38\n   636: u8 [a0 + 0x7] = a2\n   639: a2 = a1 >> 0x30\n   642: u8 [a0 + 0x6] = a2\n   645: a2 = a1 >> 0x28\n   648: u8 [a0 + 0x5] = a2\n   651: a2 = a1 >> 0x20\n   654: u8 [a0 + 0x4] = a2\n   657: a2 = a1 >> 0x18\n   660: u8 [a0 + 0x3] = a2\n   663: a2 = a1 >> 0x10\n   666: u8 [a0 + 0x2] = a2\n   669: a1 = a1 >> 0x8\n   672: u8 [a0 + 0x1] = a1\n   675: ra = u64 [sp + 0x20]\n   678: s0 = u64 [sp + 0x18]\n   681: s1 = u64 [sp + 0x10]\n   684: sp = sp + 0x28\n   687: ret\n      : @21 (gas: 43)\n   689: sp = sp + 0xffffffffffffffa0\n   692: u64 [sp + 0x58] = ra\n   695: u64 [sp + 0x50] = s0\n   698: u64 [sp + 0x48] = s1\n   701: s0 = sp + 0x60\n   704: sp = sp & 0xffffffffffffffe0\n   707: s1 = a0\n   709: a0 = u64 [a1 + 0x18]\n   712: a2 = u64 [a1 + 0x10]\n   715: a3 = u64 [a1 + 0x8]\n   718: a1 = u64 [a1]\n   720: a0 = reverse a0\n   722: a2 = reverse a2\n   724: a3 = reverse a3\n   726: a1 = reverse a1\n   728: u64 [sp + 0x18] = a1\n   731: u64 [sp + 0x10] = a3\n   734: u64 [sp + 0x8] = a2\n   737: u64 [sp] = a0\n   739: u64 [sp + 56] = 0\n   742: u64 [sp + 48] = 0\n   745: u64 [sp + 40] = 0\n   748: u64 [sp + 32] = 0\n   751: u32 [sp + 64] = 0x20\n   755: i32 a1 = sp + 0\n   757: i32 a3 = sp + 0x20\n   760: i32 a4 = sp + 0x40\n   763: a2 = 0xffffffffffffffff\n   766: a0 = 0\n   768: ecalli 8 // 'get_storage'\n   770: a0 = u64 [sp + 0x38]\n   773: a1 = u64 [sp + 0x30]\n   776: a2 = u64 [sp + 0x28]\n   779: a3 = u64 [sp + 0x20]\n   782: a0 = reverse a0\n   784: a1 = reverse a1\n   786: a2 = reverse a2\n   788: a3 = reverse a3\n   790: u64 [s1 + 0x18] = a3\n   793: u64 [s1 + 0x10] = a2\n   796: u64 [s1 + 0x8] = a1\n   799: u64 [s1] = a0\n   801: t0 = 6, jump @2004\n      : @22 [@dyn 3] (gas: 1)\n   807: ret\n      : @23 (gas: 40)\n   809: sp = sp + 0xffffffffffffffa0\n   812: u64 [sp + 0x58] = ra\n   815: u64 [sp + 0x50] = s0\n   818: s0 = sp + 0x60\n   821: sp = sp & 0xffffffffffffffe0\n   824: t0 = u64 [a0]\n   826: a3 = u64 [a0 + 0x8]\n   829: a4 = u64 [a0 + 0x10]\n   832: a0 = u64 [a0 + 0x18]\n   835: t1 = u64 [a1]\n   837: a2 = u64 [a1 + 0x8]\n   840: a5 = u64 [a1 + 0x10]\n   843: a1 = u64 [a1 + 0x18]\n   846: t2 = reverse a0\n   848: a4 = reverse a4\n   850: a3 = reverse a3\n   852: a0 = reverse t0\n   854: t0 = reverse a1\n   856: a5 = reverse a5\n   858: a2 = reverse a2\n   860: a1 = reverse t1\n   862: u64 [sp + 0x18] = a0\n   865: u64 [sp + 0x10] = a3\n   868: u64 [sp + 0x8] = a4\n   871: u64 [sp] = t2\n   873: u64 [sp + 0x38] = a1\n   876: u64 [sp + 0x30] = a2\n   879: u64 [sp + 0x28] = a5\n   882: u64 [sp + 0x20] = t0\n   885: i32 a1 = sp + 0\n   887: i32 a3 = sp + 0x20\n   890: a2 = 0xffffffffffffffff\n   893: a4 = 0x20\n   896: a0 = 0\n   898: ecalli 15 // 'set_storage'\n   900: sp = s0 + 0xffffffffffffffa0\n   903: ra = u64 [sp + 0x58]\n   906: s0 = u64 [sp + 0x50]\n   909: sp = sp + 0x60\n   912: ret\n      : @24 [@dyn 4] (gas: 1)\n   914: t0 = 10, jump @1992\n      : @25 [@dyn 5] (gas: 10)\n   920: u64 [sp + 0x38] = a4\n   923: u64 [sp + 0x30] = a3\n   926: u64 [sp + 0x28] = a2\n   929: u64 [sp + 0x20] = a1\n   932: i32 a2 = a0 + 0\n   934: i32 a3 = s1 + 0\n   936: i32 a0 = sp + 0x20\n   939: a1 = 0x1\n   942: ecalli 7 // 'deposit_event'\n   944: t0 = 12, jump @2004\n      : @26 [@dyn 6] (gas: 1)\n   950: ret\n      : @27 [@dyn 7] (gas: 1)\n   952: t0 = 16, jump @1992\n      : @28 [@dyn 8] (gas: 27)\n   958: u64 [sp + 0x58] = a4\n   961: u64 [sp + 0x50] = a3\n   964: u64 [sp + 0x48] = a2\n   967: u64 [sp + 0x40] = a1\n   970: a1 = u64 [sp + 0x20]\n   973: a1 = reverse a1\n   975: a2 = u64 [sp + 0x28]\n   978: a2 = reverse a2\n   980: a3 = u64 [sp + 0x30]\n   983: a3 = reverse a3\n   985: a4 = u64 [sp + 0x38]\n   988: a4 = reverse a4\n   990: u64 [sp + 0x78] = a4\n   993: u64 [sp + 0x70] = a3\n   996: u64 [sp + 0x68] = a2\n   999: u64 [sp + 0x60] = a1\n  1002: i32 a2 = a0 + 0\n  1004: i32 a3 = s1 + 0\n  1006: i32 a0 = sp + 0x40\n  1009: a1 = 0x2\n  1012: ecalli 7 // 'deposit_event'\n  1014: sp = s0 + 0xffffffffffffff60\n  1018: ra = u64 [sp + 0x98]\n  1022: s0 = u64 [sp + 0x90]\n  1026: s1 = u64 [sp + 0x88]\n  1030: sp = sp + 0xa0\n  1034: ret\n      : @29 [@dyn 9] (gas: 2)\n  1036: u64 [sp + 0x38] = a1\n  1039: ra = 20, jump @34\n      : @30 [@dyn 10] (gas: 46)\n  1044: a1 = reverse s1\n  1046: u64 [sp + 0x78] = a1\n  1049: a1 = u64 [sp]\n  1051: a1 = reverse a1\n  1053: u64 [sp + 0x70] = a1\n  1056: a1 = u64 [sp + 0x8]\n  1059: a1 = reverse a1\n  1061: u64 [sp + 0x68] = a1\n  1064: a1 = u64 [sp + 0x10]\n  1067: a1 = reverse a1\n  1069: u64 [sp + 0x60] = a1\n  1072: a1 = u64 [sp + 0x18]\n  1075: a1 = reverse a1\n  1077: u64 [sp + 0x98] = a1\n  1081: a1 = u64 [sp + 0x20]\n  1084: a1 = reverse a1\n  1086: u64 [sp + 0x90] = a1\n  1090: a1 = u64 [sp + 0x28]\n  1093: a1 = reverse a1\n  1095: u64 [sp + 0x88] = a1\n  1099: a1 = u64 [sp + 0x30]\n  1102: a1 = reverse a1\n  1104: u64 [sp + 0x80] = a1\n  1108: a1 = u64 [sp + 0x40]\n  1111: a1 = reverse a1\n  1113: u64 [sp + 0xb8] = a1\n  1117: a1 = u64 [sp + 0x48]\n  1120: a1 = reverse a1\n  1122: u64 [sp + 0xb0] = a1\n  1126: a1 = u64 [sp + 0x50]\n  1129: a1 = reverse a1\n  1131: u64 [sp + 0xa8] = a1\n  1135: a1 = u64 [sp + 0x58]\n  1138: a1 = reverse a1\n  1140: u64 [sp + 0xa0] = a1\n  1144: i32 a2 = a0 + 0\n  1146: a3 = i32 [sp + 0x38]\n  1149: i32 a0 = sp + 0x60\n  1152: a1 = 0x3\n  1155: ecalli 7 // 'deposit_event'\n  1157: sp = s0 + 0xffffffffffffff20\n  1161: ra = u64 [sp + 0xd8]\n  1165: s0 = u64 [sp + 0xd0]\n  1169: s1 = u64 [sp + 0xc8]\n  1173: sp = sp + 0xe0\n  1177: ret\n      : @31 (gas: 23)\n  1179: sp = sp + 0xfffffffffffffee0\n  1183: u64 [sp + 0x118] = ra\n  1187: u64 [sp + 0x110] = s0\n  1191: u64 [sp + 0x108] = s1\n  1195: s0 = sp + 0x120\n  1199: sp = sp & 0xffffffffffffffe0\n  1202: s1 = u64 [a5]\n  1204: u64 [sp + 0x60] = s1\n  1207: s1 = u64 [a5 + 0x8]\n  1210: u64 [sp + 0x68] = s1\n  1213: s1 = u64 [a5 + 0x10]\n  1216: u64 [sp + 0x70] = s1\n  1219: a5 = u64 [a5 + 0x18]\n  1222: u64 [sp + 0x78] = a5\n  1225: a5 = u64 [a4]\n  1227: u64 [sp + 0x38] = a5\n  1230: a5 = u64 [a4 + 0x8]\n  1233: u64 [sp + 0x40] = a5\n  1236: a5 = u64 [a4 + 0x10]\n  1239: u64 [sp + 0x48] = a5\n  1242: a4 = u64 [a4 + 0x18]\n  1245: u64 [sp + 0x50] = a4\n  1248: t0 = 22, jump @1970\n      : @32 [@dyn 11] (gas: 2)\n  1254: u64 [sp + 0x58] = a1\n  1257: ra = 24, jump @34\n      : @33 [@dyn 12] (gas: 58)\n  1262: a1 = reverse s1\n  1264: u64 [sp + 0x98] = a1\n  1268: a1 = u64 [sp]\n  1270: a1 = reverse a1\n  1272: u64 [sp + 0x90] = a1\n  1276: a1 = u64 [sp + 0x8]\n  1279: a1 = reverse a1\n  1281: u64 [sp + 0x88] = a1\n  1285: a1 = u64 [sp + 0x10]\n  1288: a1 = reverse a1\n  1290: u64 [sp + 0x80] = a1\n  1294: a1 = u64 [sp + 0x18]\n  1297: a1 = reverse a1\n  1299: u64 [sp + 0xb8] = a1\n  1303: a1 = u64 [sp + 0x20]\n  1306: a1 = reverse a1\n  1308: u64 [sp + 0xb0] = a1\n  1312: a1 = u64 [sp + 0x28]\n  1315: a1 = reverse a1\n  1317: u64 [sp + 0xa8] = a1\n  1321: a1 = u64 [sp + 0x30]\n  1324: a1 = reverse a1\n  1326: u64 [sp + 0xa0] = a1\n  1330: a1 = u64 [sp + 0x38]\n  1333: a1 = reverse a1\n  1335: u64 [sp + 0xd8] = a1\n  1339: a1 = u64 [sp + 0x40]\n  1342: a1 = reverse a1\n  1344: u64 [sp + 0xd0] = a1\n  1348: a1 = u64 [sp + 0x48]\n  1351: a1 = reverse a1\n  1353: u64 [sp + 0xc8] = a1\n  1357: a1 = u64 [sp + 0x50]\n  1360: a1 = reverse a1\n  1362: u64 [sp + 0xc0] = a1\n  1366: a1 = u64 [sp + 0x60]\n  1369: a1 = reverse a1\n  1371: u64 [sp + 0xf8] = a1\n  1375: a1 = u64 [sp + 0x68]\n  1378: a1 = reverse a1\n  1380: u64 [sp + 0xf0] = a1\n  1384: a1 = u64 [sp + 0x70]\n  1387: a1 = reverse a1\n  1389: u64 [sp + 0xe8] = a1\n  1393: a1 = u64 [sp + 0x78]\n  1396: a1 = reverse a1\n  1398: u64 [sp + 0xe0] = a1\n  1402: i32 a2 = a0 + 0\n  1404: a3 = i32 [sp + 0x58]\n  1407: i32 a0 = sp + 0x80\n  1411: a1 = 0x4\n  1414: ecalli 7 // 'deposit_event'\n  1416: sp = s0 + 0xfffffffffffffee0\n  1420: ra = u64 [sp + 0x118]\n  1424: s0 = u64 [sp + 0x110]\n  1428: s1 = u64 [sp + 0x108]\n  1432: sp = sp + 0x120\n  1436: ret\n      : @34 (gas: 2)\n  1438: i32 a2 = a0 >> 0x10\n  1441: jump @39 if a2 != 0\n      : @35 (gas: 4)\n  1444: a1 = a1 + a0\n  1447: i32 a1 = a1 + 0x1f\n  1450: a1 = a1 & 0xffffffffffffffe0\n  1453: jump @39 if a1 >u 65536\n      : @36 (gas: 3)\n  1459: a2 = 0x2020c\n  1464: a3 = i32 [0x2020c]\n  1469: jump @38 if a3 >=u a1\n      : @37 (gas: 2)\n  1472: u32 [0x2020c] = a1\n  1477: fallthrough\n      : @38 (gas: 4)\n  1478: a1 = 0x20220\n  1483: i32 a0 = a0 + 0\n  1485: a0 = a0 + a1\n  1488: ret\n      : @39 (gas: 1)\n  1490: trap\n      : @40 (gas: 6)\n  1491: sp = sp + 0xfffffffffffffff0\n  1494: u64 [sp + 0x8] = ra\n  1497: u64 [sp] = s0\n  1499: s0 = a0 & 0x1\n  1502: ecalli 4 // 'call_data_size'\n  1504: fallthrough\n      : @41 (gas: 2)\n  1505: u32 [0x20208] = a0\n  1510: jump @43 if s0 == 0\n      : @42 (gas: 1)\n  1513: ra = 26, jump @44\n      : @43 [@dyn 13] (gas: 18)\n  1517: ra = 0x1c\n  1520: sp = sp + 0xfffffffffffffe10\n  1524: u64 [sp + 0x1e8] = ra\n  1528: u64 [sp + 0x1e0] = s0\n  1532: u64 [sp + 0x1d8] = s1\n  1536: s0 = sp + 0x1f0\n  1540: sp = sp + 0xffffffffffffc230\n  1544: sp = sp & 0xffffffffffffffe0\n  1547: s1 = sp\n  1549: a2 = s1 + 0x30d8\n  1553: u64 [a2 + 320] = 0\n  1557: u64 [a2 + 312] = 0\n  1561: u64 [a2 + 296] = 0x80\n  1567: a0 = 0x40\n  1570: a1 = s1 + 0x3200\n  1574: u64 [a2 + 304] = 0\n  1578: ra = 0xec\n  1582: jump @19\n      : @44 [@dyn 14] (gas: 15)\n  1585: sp = sp + 0xfffffffffffffe10\n  1589: u64 [sp + 0x1e8] = ra\n  1593: u64 [sp + 0x1e0] = s0\n  1597: u64 [sp + 0x1d8] = s1\n  1601: s0 = sp + 0x1f0\n  1605: sp = sp + 0xfffffffffffff950\n  1609: sp = sp & 0xffffffffffffffe0\n  1612: s1 = sp\n  1614: u64 [s1 + 1464] = 0\n  1618: u64 [s1 + 1456] = 0\n  1622: u64 [s1 + 1440] = 0x80\n  1628: a0 = 0x40\n  1631: a1 = s1 + 0x5a0\n  1635: u64 [s1 + 1448] = 0\n  1639: ra = 30, jump @19\n      : @45 [@dyn 15] (gas: 7)\n  1644: u64 [s1 + 1496] = 0\n  1648: u64 [s1 + 1488] = 0\n  1652: u64 [s1 + 1480] = 0\n  1656: u64 [s1 + 1472] = 0\n  1660: i32 a0 = s1 + 0x5c0\n  1664: ecalli 16 // 'value_transferred'\n  1666: fallthrough\n      : @46 (gas: 9)\n  1667: a4 = s1 + 0x500\n  1671: a0 = u64 [a4 + 0xd0]\n  1675: a1 = u64 [a4 + 0xd8]\n  1679: a2 = u64 [a4 + 0xc8]\n  1683: a3 = u64 [a4 + 0xc0]\n  1687: a1 = a1 | a2\n  1690: a0 = a0 | a3\n  1693: a0 = a0 | a1\n  1696: jump @48 if a0 == 0\n      : @47 (gas: 1)\n  1699: jump @186\n      : @48 (gas: 3)\n  1702: a0 = s1 + 0x580\n  1706: a1 = 0x40\n  1709: ra = 32, jump @17\n      : @49 [@dyn 16] (gas: 15)\n  1714: t1 = u64 [s1 + 0x598]\n  1718: a4 = u64 [s1 + 0x590]\n  1722: a5 = u64 [s1 + 0x588]\n  1726: t2 = u64 [s1 + 0x580]\n  1730: a0 = t1 >u 0\n  1732: a1 = a4 >u 0\n  1734: a1 = a0 if t1 != 0\n  1737: a0 = a5 >u 0\n  1739: a2 = t2 <u 0xffffffffffffffc0\n  1742: a2 = a2 ^ 0x1\n  1745: a2 = a0 if a5 != 0\n  1748: a0 = a4 | t1\n  1751: u64 [s1 + 0x118] = a0\n  1755: a2 = a1 if a0 != 0\n  1758: jump @51 if a2 == 0\n      : @50 (gas: 1)\n  1761: jump @187\n      : @51 (gas: 20)\n  1764: a0 = t2 + 0x40\n  1767: a1 = a0 <u t2\n  1770: a2 = a5 + a1\n  1773: a3 = a2 <u a5\n  1776: a3 = a1 if a1 == 0\n  1779: a3 = a3 + a4\n  1782: a1 = a3 <u a4\n  1785: t0 = t1 + a1\n  1788: a1 = s1 + 0x500\n  1792: u64 [a1 + 0x60] = a0\n  1795: u64 [a1 + 0x68] = a2\n  1798: u64 [a1 + 0x70] = a3\n  1801: a0 = 0x40\n  1804: a1 = s1 + 0x560\n  1808: u64 [s1 + 0x578] = t0\n  1812: u64 [s1 + 0xa0] = t1\n  1816: u64 [s1 + 0x98] = a4\n  1820: u64 [s1 + 0xa8] = a5\n  1824: u64 [s1 + 0xb0] = t2\n  1828: ra = 34, jump @19\n      : @52 [@dyn 17] (gas: 12)\n  1833: a0 = u64 [s1 + 0xb0]\n  1837: a2 = u64 [s1 + 0x98]\n  1841: a4 = a0 | a2\n  1844: a1 = u64 [s1 + 0xa0]\n  1848: a3 = u64 [s1 + 0xa8]\n  1852: a1 = a1 | a3\n  1855: a4 = a4 | a1\n  1858: a4 = a4 >> 0x20\n  1861: a1 = a1 | a2\n  1864: a1 = a1 << 0x20\n  1867: a1 = a1 | a4\n  1870: jump @54 if a1 == 0\n      : @53 (gas: 1)\n  1873: jump @185\n      : @54 (gas: 6)\n  1876: u64 [s1 + 1368] = 0\n  1880: u64 [s1 + 1360] = 0\n  1884: u64 [s1 + 1352] = 0\n  1888: a1 = s1 + 0x540\n  1892: u64 [s1 + 1344] = 0x9\n  1897: ra = 36, jump @19\n      : @55 [@dyn 18] (gas: 8)\n  1902: a2 = u64 [s1 + 0xb0]\n  1906: a0 = 0xffffffe0\n  1916: a0 = a2 <u a0\n  1919: a1 = u64 [s1 + 0xa8]\n  1923: a0 = 0 if a1 != 0\n  1925: a1 = u64 [s1 + 0x118]\n  1929: a0 = 0 if a1 != 0\n  1931: jump @57 if a0 != 0\n      : @56 (gas: 1)\n  1934: jump @185\n      : @57 (gas: 10)\n  1937: i32 a0 = a2 + 0x20\n  1940: a1 = u64 [0x20000]\n  1945: u64 [s1 + 1320] = 0\n  1949: u64 [s1 + 1312] = 0\n  1953: u64 [s1 + 0x538] = a1\n  1957: a2 = 0x5400000000000000\n  1967: a1 = s1 + 0x520\n  1971: u64 [s1 + 0x530] = a2\n  1975: u64 [s1 + 0xd0] = a0\n  1979: ra = 38, jump @19\n      : @58 [@dyn 19] (gas: 3)\n  1984: a0 = s1 + 0x500\n  1988: a1 = 0x40\n  1991: ra = 40, jump @17\n      : @59 [@dyn 20] (gas: 16)\n  1996: t2 = u64 [s1 + 0x518]\n  2000: a1 = s1 + 0x500\n  2004: a5 = u64 [a1 + 0x10]\n  2007: a4 = u64 [a1 + 0x8]\n  2010: a0 = u64 [a1]\n  2012: a2 = t2 >u 0\n  2014: a1 = a5 >u 0\n  2016: a1 = a2 if t2 != 0\n  2019: a3 = a4 >u 0\n  2021: a2 = a0 <u 0xffffffffffffffc0\n  2024: a2 = a2 ^ 0x1\n  2027: a2 = a3 if a4 != 0\n  2030: a3 = a5 | t2\n  2033: u64 [s1 + 0x118] = a3\n  2037: a2 = a1 if a3 != 0\n  2040: jump @61 if a2 == 0\n      : @60 (gas: 1)\n  2043: jump @193\n      : @61 (gas: 19)\n  2046: t1 = a0 + 0x40\n  2049: a1 = t1 <u a0\n  2052: a2 = a4 + a1\n  2055: a3 = a2 <u a4\n  2058: a3 = a1 if a1 == 0\n  2061: a3 = a3 + a5\n  2064: a1 = a3 <u a5\n  2067: u64 [s1 + 0x80] = a0\n  2071: t0 = t2 + a1\n  2074: u64 [s1 + 0x4e0] = t1\n  2078: u64 [s1 + 0x4e8] = a2\n  2082: u64 [s1 + 0x4f0] = a3\n  2086: a0 = 0x40\n  2089: a1 = s1 + 0x4e0\n  2093: u64 [s1 + 0x4f8] = t0\n  2097: u64 [s1 + 0x70] = a5\n  2100: u64 [s1 + 0x78] = a4\n  2103: u64 [s1 + 0x68] = t2\n  2106: ra = 42, jump @19\n      : @62 [@dyn 21] (gas: 12)\n  2111: a0 = u64 [s1 + 0x80]\n  2115: a2 = u64 [s1 + 0x70]\n  2118: a3 = a0 | a2\n  2121: a1 = u64 [s1 + 0x78]\n  2124: a4 = u64 [s1 + 0x68]\n  2127: a1 = a1 | a4\n  2130: a3 = a3 | a1\n  2133: a3 = a3 >> 0x20\n  2136: a1 = a1 | a2\n  2139: a1 = a1 << 0x20\n  2142: a1 = a1 | a3\n  2145: jump @64 if a1 == 0\n      : @63 (gas: 1)\n  2148: jump @185\n      : @64 (gas: 6)\n  2151: u64 [s1 + 1240] = 0\n  2155: u64 [s1 + 1232] = 0\n  2159: u64 [s1 + 1224] = 0\n  2163: a1 = s1 + 0x4c0\n  2167: u64 [s1 + 1216] = 0x6\n  2172: ra = 44, jump @19\n      : @65 [@dyn 22] (gas: 8)\n  2177: a2 = u64 [s1 + 0x80]\n  2181: a0 = 0xffffffe0\n  2191: a0 = a2 <u a0\n  2194: a1 = u64 [s1 + 0x78]\n  2197: a0 = 0 if a1 != 0\n  2199: a1 = u64 [s1 + 0x118]\n  2203: a0 = 0 if a1 != 0\n  2205: jump @67 if a0 != 0\n      : @66 (gas: 1)\n  2208: jump @185\n      : @67 (gas: 9)\n  2211: i32 a0 = a2 + 0x20\n  2214: u64 [s1 + 1200] = 0\n  2218: a2 = u64 [0x20008]\n  2223: u64 [s1 + 1192] = 0\n  2227: u64 [s1 + 1184] = 0\n  2231: a1 = s1 + 0x4a0\n  2235: u64 [s1 + 0x4b8] = a2\n  2239: u64 [s1 + 0x18] = a0\n  2242: ra = 46, jump @19\n      : @68 [@dyn 23] (gas: 3)\n  2247: a0 = s1 + 0x480\n  2251: a1 = u64 [s1 + 0xb0]\n  2255: ra = 48, jump @17\n      : @69 [@dyn 24] (gas: 17)\n  2260: a0 = s1 + 0x400\n  2264: a3 = u64 [a0 + 0x98]\n  2268: a1 = u64 [a0 + 0x90]\n  2272: a2 = u64 [a0 + 0x88]\n  2276: a0 = a3 >u 0\n  2278: a4 = a1 >u 0\n  2280: a4 = a0 if a3 != 0\n  2283: u64 [s1 + 0xc8] = a2\n  2287: a0 = a2 >u 0\n  2289: u64 [s1 + 0x58] = a1\n  2292: u64 [s1 + 0xc0] = a3\n  2296: a1 = a1 | a3\n  2299: u64 [s1 + 0x50] = a0\n  2302: u64 [s1 + 0x88] = a4\n  2306: u64 [s1 + 0xb8] = a1\n  2310: a0 = a4 if a1 != 0\n  2313: jump @71 if a0 == 0\n      : @70 (gas: 1)\n  2316: jump @199\n      : @71 (gas: 9)\n  2319: a0 = u64 [s1 + 0x480]\n  2323: u64 [s1 + 0x60] = a0\n  2326: u64 [s1 + 1528] = 0\n  2330: u64 [s1 + 1520] = 0\n  2334: u64 [s1 + 1512] = 0\n  2338: u64 [s1 + 1504] = 0\n  2342: a0 = s1 + 0x460\n  2346: a1 = s1 + 0x5e0\n  2350: ra = 50, jump @21\n      : @72 [@dyn 25] (gas: 6)\n  2355: a4 = s1 + 0x400\n  2359: a0 = u64 [a4 + 0x70]\n  2362: a1 = u64 [a4 + 0x68]\n  2365: a2 = u64 [a4 + 0x60]\n  2368: a3 = u64 [a4 + 0x78]\n  2371: t0 = 52, jump @1957\n      : @73 [@dyn 26] (gas: 12)\n  2377: t0 = a2 <u 0x1\n  2380: ra = a1 & 0x7f\n  2383: t2 = a5 & a0\n  2386: a4 = a5 & t1\n  2389: ra = a1 if a2 != 0\n  2392: a1 = ra <u 0x20\n  2395: a5 = a5 & a3\n  2398: a2 = a1\n  2400: a2 = 0 if a4 != 0\n  2402: a0 = t2 | a5\n  2405: a2 = 0 if a0 != 0\n  2407: jump @75 if t0 == a2\n      : @74 (gas: 1)\n  2410: jump @205\n      : @75 (gas: 1)\n  2413: t0 = 54, jump @1971\n      : @76 [@dyn 27] (gas: 4)\n  2419: a0 = u64 [s1 + 0x60]\n  2422: a0 = a0 <u 0x20\n  2425: u64 [s1 + 0x90] = a0\n  2429: jump @89 if a3 == 0\n      : @77 (gas: 11)\n  2433: u64 [s1 + 0xf0] = a4\n  2437: u64 [s1 + 0xf8] = ra\n  2441: u64 [s1 + 0x100] = a5\n  2445: u64 [s1 + 0x110] = t2\n  2449: u64 [s1 + 1112] = 0\n  2453: u64 [s1 + 1104] = 0\n  2457: u64 [s1 + 1096] = 0\n  2461: a1 = s1 + 0x440\n  2465: u64 [s1 + 1088] = 0\n  2469: a0 = 0\n  2471: ra = 56, jump @19\n      : @78 [@dyn 28] (gas: 2)\n  2476: a1 = i32 [0x2020c]\n  2481: jump @80 if a1 >u 31\n      : @79 (gas: 4)\n  2485: a1 = 0x20\n  2488: u32 [0x2020c] = a1\n  2493: t0 = 0x3a\n  2496: jump @1945\n      : @80 (gas: 1)\n  2500: t0 = 58, jump @1945\n      : @81 [@dyn 29] (gas: 7)\n  2506: a0 = 0x20220\n  2511: i32 a0 = a0 + 0\n  2513: i32 a2 = a2 + 0\n  2515: a1 = 0x20\n  2518: ra = 0x3c\n  2521: ecalli 9 // 'hash_keccak_256'\n  2523: fallthrough\n      : @82 [@dyn 30] (gas: 9)\n  2524: a0 = u64 [s1 + 0x60]\n  2527: a1 = a0 + 0x1f\n  2530: a0 = a1 <u a0\n  2533: a5 = u64 [s1 + 0xc8]\n  2537: a2 = a5 + a0\n  2540: a3 = a2 <u a5\n  2543: a3 = a0 if a0 == 0\n  2546: a4 = u64 [s1 + 0x58]\n  2549: t0 = 62, jump @1946\n      : @83 [@dyn 31] (gas: 35)\n  2555: a1 = u64 [s1 + 0x90]\n  2559: a1 = 0 if a5 != 0\n  2561: a3 = u64 [s1 + 0xb8]\n  2565: a1 = 0 if a3 != 0\n  2567: a4 = 0 if a1 != 0\n  2569: a0 = 0 if a1 != 0\n  2571: t0 = t2 + a0\n  2574: a0 = t0 <u t2\n  2577: a5 = a2 + a0\n  2580: a4 = a4 + a5\n  2583: u64 [s1 + 0x118] = a4\n  2587: a5 = a4 ^ a2\n  2590: a3 = a4 <u a2\n  2593: a3 = a0 if a5 == 0\n  2596: u64 [s1 + 0xe0] = a3\n  2600: a0 = u64 [s1 + 0xf8]\n  2604: ra = a0 + 0x1f\n  2607: a4 = ra <u a0\n  2610: a3 = u64 [s1 + 0xf0]\n  2614: a0 = a3 + a4\n  2617: a5 = a0 <u a3\n  2620: a5 = a4 if a4 == 0\n  2623: t1 = u64 [s1 + 0x110]\n  2627: t1 = t1 + a5\n  2630: a4 = t1 << 0x3b\n  2633: a3 = a0 >> 0x5\n  2636: a3 = a3 | a4\n  2639: a0 = a0 << 0x3b\n  2642: a4 = ra >> 0x5\n  2645: a0 = a0 | a4\n  2648: a0 = a0 + t2\n  2651: u64 [s1 + 0xf8] = a0\n  2655: a0 = a0 <u t2\n  2658: t2 = t0\n  2660: t0 = 64, jump @1995\n      : @84 [@dyn 32] (gas: 16)\n  2666: a0 = u64 [s1 + 0x58]\n  2669: a0 = a4 <u a0\n  2672: a3 = u64 [s1 + 0xc0]\n  2676: a0 = a0 + a3\n  2679: a3 = a4 >> 0x5\n  2682: a4 = a0 << 0x3b\n  2685: a3 = a3 | a4\n  2688: a4 = u64 [s1 + 0x108]\n  2692: t0 = u64 [a4]\n  2694: a4 = u64 [a4 + 0x8]\n  2697: a0 = a0 >> 0x5\n  2700: a3 = 0 if a1 != 0\n  2702: a0 = 0 if a1 != 0\n  2704: a1 = reverse a4\n  2706: a4 = reverse t0\n  2708: t0 = 66, jump @2008\n      : @85 [@dyn 33] (gas: 24)\n  2714: t0 = a0 + a3\n  2717: a0 = u64 [s1 + 0x110]\n  2721: a0 = t1 <u a0\n  2724: a3 = u64 [s1 + 0x100]\n  2728: a0 = a0 + a3\n  2731: a3 = t1 >> 0x5\n  2734: a5 = a0 << 0x3b\n  2737: a3 = a3 | a5\n  2740: a0 = a0 >> 0x5\n  2743: a0 = a0 + a4\n  2746: a4 = u64 [s1 + 0x118]\n  2750: a3 = a3 + a1\n  2753: a1 = a3 <u a1\n  2756: a0 = a0 + a1\n  2759: a2 = a2 + a3\n  2762: u64 [s1 + 0xe8] = a2\n  2766: a1 = a2 <u a3\n  2769: a0 = a0 + a1\n  2772: u64 [s1 + 0xe0] = a0\n  2776: a0 = sp + 0xffffffffffffffe0\n  2779: t1 = a0 & 0xffffffffffffffe0\n  2782: sp = t1\n  2784: u64 [s1 + 0xd8] = t1\n  2788: fallthrough\n      : @86 (gas: 20)\n  2789: a0 = u64 [s1 + 0xf8]\n  2793: a0 = t2 <u a0\n  2796: a2 = u64 [s1 + 0xf0]\n  2800: a1 = a4 ^ a2\n  2803: a2 = a4 <u a2\n  2806: a2 = a0 if a1 == 0\n  2809: a5 = u64 [s1 + 0xe8]\n  2813: a0 = ra <u a5\n  2816: a3 = u64 [s1 + 0xe0]\n  2820: a1 = t0 ^ a3\n  2823: a3 = t0 <u a3\n  2826: a3 = a0 if a1 == 0\n  2829: a0 = ra ^ a5\n  2832: a0 = a0 | a1\n  2835: a3 = a2 if a0 == 0\n  2838: u64 [t1] = t2\n  2840: u64 [t1 + 0x8] = a4\n  2843: u64 [t1 + 0x10] = ra\n  2846: u64 [t1 + 0x18] = t0\n  2849: jump @89 if a3 == 0\n      : @87 (gas: 11)\n  2852: u64 [s1 + 1560] = 0\n  2856: u64 [s1 + 1552] = 0\n  2860: u64 [s1 + 1544] = 0\n  2864: u64 [s1 + 1536] = 0\n  2868: a1 = s1 + 0x600\n  2872: a0 = t1\n  2874: u64 [s1 + 0x110] = t2\n  2878: u64 [s1 + 0x118] = a4\n  2882: u64 [s1 + 0x108] = t0\n  2886: u64 [s1 + 0x100] = ra\n  2890: ra = 68, jump @23\n      : @88 [@dyn 34] (gas: 15)\n  2895: t1 = u64 [s1 + 0xd8]\n  2899: t0 = u64 [s1 + 0x108]\n  2903: a4 = u64 [s1 + 0x118]\n  2907: t2 = u64 [s1 + 0x110]\n  2911: t2 = t2 + 0x1\n  2914: a0 = t2 <u 0x1\n  2917: a4 = a4 + a0\n  2920: a0 = t2 | a4\n  2923: a0 = a0 <u 0x1\n  2926: a1 = u64 [s1 + 0x100]\n  2930: a0 = a0 + a1\n  2933: a1 = a0 <u a1\n  2936: t0 = t0 + a1\n  2939: ra = a0\n  2941: jump @86\n      : @89 (gas: 26)\n  2944: a0 = u64 [s1 + 0x90]\n  2948: a0 = a0 ^ 0x1\n  2951: a4 = u64 [s1 + 0xc8]\n  2955: a1 = u64 [s1 + 0x50]\n  2958: a0 = a1 if a4 != 0\n  2961: a1 = u64 [s1 + 0x88]\n  2965: a2 = u64 [s1 + 0xb8]\n  2969: a0 = a1 if a2 != 0\n  2972: t1 = u64 [s1 + 0xc0]\n  2976: t0 = a4 | t1\n  2979: a1 = u64 [s1 + 0x58]\n  2982: a2 = a1 >> 0x3f\n  2985: u64 [s1 + 0x50] = a2\n  2988: t1 = t1 << 0x1\n  2991: a5 = a4 >> 0x3f\n  2994: t2 = a1 << 0x1\n  2997: a3 = u64 [s1 + 0x60]\n  3000: ra = a3 >> 0x3f\n  3003: a4 = a4 << 0x1\n  3006: a2 = a3 << 0x1\n  3009: u64 [s1 + 0x40] = a2\n  3012: u64 [s1 + 0x38] = t1\n  3015: u64 [s1 + 0x30] = ra\n  3018: u64 [s1 + 0x28] = a5\n  3021: u64 [s1 + 0x48] = t2\n  3024: jump @99 if a0 == 0\n      : @90 (gas: 11)\n  3028: u64 [s1 + 0x88] = t0\n  3032: u64 [s1 + 0x20] = a4\n  3035: a3 = a3 & 0xffffffffffffffe0\n  3038: u64 [s1 + 0x90] = a3\n  3042: u64 [s1 + 1048] = 0\n  3046: u64 [s1 + 1040] = 0\n  3050: u64 [s1 + 1032] = 0\n  3054: a1 = s1 + 0x400\n  3058: u64 [s1 + 1024] = 0\n  3062: a0 = 0\n  3064: ra = 70, jump @19\n      : @91 [@dyn 35] (gas: 7)\n  3069: a0 = sp + 0xffffffffffffffe0\n  3072: a0 = a0 & 0xffffffffffffffe0\n  3075: u64 [s1 + 0xf8] = a0\n  3079: sp = a0\n  3081: a1 = 0x20\n  3084: a0 = 0\n  3086: ra = 72, jump @34\n      : @92 [@dyn 36] (gas: 35)\n  3091: a1 = sp + 0xffffffffffffffe0\n  3094: a1 = a1 & 0xffffffffffffffe0\n  3097: u64 [s1 + 0xf0] = a1\n  3101: sp = a1\n  3103: i32 a0 = a0 + 0\n  3105: i32 a2 = a1 + 0\n  3107: a1 = 0x20\n  3110: ecalli 9 // 'hash_keccak_256'\n  3112: u64 [s1 + 280] = 0x20\n  3117: t0 = 0\n  3119: u64 [s1 + 272] = 0\n  3123: u64 [s1 + 264] = 0\n  3127: a4 = 0\n  3129: a5 = 0\n  3131: ra = 0\n  3133: u64 [s1 + 256] = 0\n  3137: a3 = u64 [s1 + 0xf0]\n  3141: a0 = u64 [a3 + 0x18]\n  3144: a1 = u64 [a3 + 0x10]\n  3147: a2 = u64 [a3 + 0x8]\n  3150: t1 = u64 [a3]\n  3152: a0 = reverse a0\n  3154: a1 = reverse a1\n  3156: a3 = reverse a2\n  3158: t1 = reverse t1\n  3160: t2 = t1\n  3162: a2 = u64 [s1 + 0xf8]\n  3166: u64 [a2 + 0x18] = t1\n  3169: u64 [s1 + 0xd0] = a3\n  3173: u64 [a2 + 0x10] = a3\n  3176: u64 [s1 + 0xf0] = a1\n  3180: u64 [a2 + 0x8] = a1\n  3183: a3 = a0\n  3185: u64 [a2] = a0\n  3187: fallthrough\n      : @93 (gas: 25)\n  3188: u64 [s1 + 0xe8] = t2\n  3192: t1 = a3\n  3194: a0 = u64 [s1 + 0x90]\n  3198: u64 [s1 + 0xe0] = a4\n  3202: a0 = a4 <u a0\n  3205: a4 = a0 ^ 0x1\n  3208: u64 [s1 + 0xd8] = a5\n  3212: a4 = 0x1 if a5 != 0\n  3215: a5 = s1 + 0x100\n  3219: a0 = u64 [a5]\n  3221: a0 = ra | a0\n  3224: a4 = 0x1 if a0 != 0\n  3227: a1 = u64 [s1 + 0xb0]\n  3231: a0 = u64 [a5 + 0x18]\n  3234: a1 = a1 + a0\n  3237: a3 = u64 [s1 + 0xa8]\n  3241: a3 = a3 + t0\n  3244: a2 = u64 [s1 + 0x98]\n  3248: a0 = u64 [a5 + 0x10]\n  3251: a2 = a2 + a0\n  3254: a0 = u64 [s1 + 0xa0]\n  3258: t2 = u64 [s1 + 0x108]\n  3262: t2 = t2 + a0\n  3265: a0 = u64 [s1 + 0x88]\n  3269: jump @101 if a4 != 0\n      : @94 (gas: 9)\n  3273: a0 = u64 [s1 + 0x118]\n  3277: a4 = a1 <u a0\n  3280: a3 = a3 + a4\n  3283: a0 = t0\n  3285: t0 = a3 ^ t0\n  3288: u64 [s1 + 0xc0] = a0\n  3292: a5 = a3 <u a0\n  3295: a5 = a4 if t0 == 0\n  3298: t0 = 74, jump @1954\n      : @95 [@dyn 37] (gas: 2)\n  3304: u64 [s1 + 0xc8] = t1\n  3308: jump @185 if a0 != 0\n      : @96 (gas: 3)\n  3312: a0 = s1 + 0x220\n  3316: u64 [s1 + 0xb8] = ra\n  3320: ra = 76, jump @17\n      : @97 [@dyn 38] (gas: 13)\n  3325: a4 = s1 + 0x200\n  3329: a0 = u64 [a4 + 0x38]\n  3332: a1 = u64 [a4 + 0x30]\n  3335: a2 = u64 [a4 + 0x28]\n  3338: a3 = u64 [a4 + 0x20]\n  3341: a4 = s1 + 0x600\n  3345: u64 [a4 + 0x38] = a0\n  3348: u64 [a4 + 0x30] = a1\n  3351: u64 [a4 + 0x28] = a2\n  3354: u64 [a4 + 0x20] = a3\n  3357: a1 = s1 + 0x620\n  3361: a0 = u64 [s1 + 0xf8]\n  3365: ra = 78, jump @23\n      : @98 [@dyn 39] (gas: 57)\n  3370: t2 = u64 [s1 + 0xc8]\n  3374: t2 = t2 + 0x1\n  3377: a0 = t2 <u 0x1\n  3380: t0 = u64 [s1 + 0xf0]\n  3384: t0 = t0 + a0\n  3387: a0 = t2 | t0\n  3390: a0 = a0 <u 0x1\n  3393: a1 = u64 [s1 + 0xd0]\n  3397: t1 = a1 + a0\n  3400: a1 = t1 <u a1\n  3403: a0 = u64 [s1 + 0xe8]\n  3407: a0 = a0 + a1\n  3410: a1 = u64 [s1 + 0x118]\n  3414: a2 = a1 + 0x20\n  3417: u64 [s1 + 0xe8] = a2\n  3421: a3 = a2 <u a1\n  3424: a1 = u64 [s1 + 0xc0]\n  3428: a2 = a1 + a3\n  3431: u64 [s1 + 0xc8] = a2\n  3435: a4 = a2 <u a1\n  3438: a4 = a3 if a3 == 0\n  3441: a1 = u64 [s1 + 0x110]\n  3445: ra = a1 + a4\n  3448: a4 = ra <u a1\n  3451: a1 = u64 [s1 + 0x108]\n  3455: a1 = a1 + a4\n  3458: u64 [s1 + 0x108] = a1\n  3462: a1 = u64 [s1 + 0xe0]\n  3466: a4 = a1 + 0x20\n  3469: a5 = a4 <u a1\n  3472: a2 = u64 [s1 + 0xd8]\n  3476: a1 = a2 + a5\n  3479: a2 = a1 <u a2\n  3482: a2 = a5 if a5 == 0\n  3485: a3 = u64 [s1 + 0xb8]\n  3489: a2 = a2 + a3\n  3492: a5 = a2 <u a3\n  3495: a3 = u64 [s1 + 0x100]\n  3499: a3 = a3 + a5\n  3502: u64 [s1 + 0x100] = a3\n  3506: a3 = t0\n  3508: u64 [s1 + 0xf0] = a3\n  3512: a5 = u64 [s1 + 0xf8]\n  3516: u64 [a5 + 0x8] = a3\n  3519: a3 = t2\n  3521: u64 [a5] = t2\n  3523: u64 [a5 + 0x10] = t1\n  3526: t2 = a0\n  3528: u64 [a5 + 0x18] = a0\n  3531: u64 [s1 + 0xd0] = t1\n  3535: a0 = u64 [s1 + 0xe8]\n  3539: u64 [s1 + 0x118] = a0\n  3543: t0 = u64 [s1 + 0xc8]\n  3547: u64 [s1 + 0x110] = ra\n  3551: a5 = a1\n  3553: ra = a2\n  3555: jump @93\n      : @99 (gas: 4)\n  3558: a2 = u64 [s1 + 0x50]\n  3561: a0 = a3 | a1\n  3564: a0 = a0 | t0\n  3567: jump @115 if a0 != 0\n      : @100 (gas: 9)\n  3571: u64 [s1 + 256] = 0\n  3575: u64 [s1 + 248] = 0\n  3579: u64 [s1 + 264] = 0\n  3583: u64 [s1 + 272] = 0\n  3587: t1 = u64 [s1 + 0x38]\n  3590: t0 = u64 [s1 + 0x30]\n  3593: a1 = u64 [s1 + 0x28]\n  3596: a5 = u64 [s1 + 0x48]\n  3599: jump @117\n      : @101 (gas: 10)\n  3602: ra = t0\n  3604: t1 = u64 [s1 + 0x60]\n  3607: a4 = u64 [s1 + 0x90]\n  3611: a4 = a4 ^ t1\n  3614: a5 = u64 [s1 + 0x58]\n  3617: a4 = a4 | a5\n  3620: a4 = a4 | a0\n  3623: t0 = u64 [s1 + 0x20]\n  3626: a5 = u64 [s1 + 0x48]\n  3629: jump @114 if a4 == 0\n      : @102 (gas: 7)\n  3633: a0 = u64 [s1 + 0x118]\n  3637: a4 = a1 <u a0\n  3640: a3 = a3 + a4\n  3643: t0 = a3 ^ ra\n  3646: a5 = a3 <u ra\n  3649: a5 = a4 if t0 == 0\n  3652: t0 = 80, jump @1954\n      : @103 [@dyn 40] (gas: 1)\n  3658: jump @185 if a0 != 0\n      : @104 (gas: 2)\n  3662: a0 = s1 + 0x3e0\n  3666: ra = 82, jump @17\n      : @105 [@dyn 41] (gas: 11)\n  3671: a1 = s1 + 0x300\n  3675: a0 = u64 [a1 + 0xf8]\n  3679: u64 [s1 + 0x110] = a0\n  3683: a0 = u64 [a1 + 0xf0]\n  3687: u64 [s1 + 0x108] = a0\n  3691: a0 = u64 [a1 + 0xe8]\n  3695: u64 [s1 + 0x100] = a0\n  3699: a0 = u64 [a1 + 0xe0]\n  3703: u64 [s1 + 0xf0] = a0\n  3707: a0 = u64 [s1 + 0x60]\n  3710: t0 = 84, jump @1996\n      : @106 [@dyn 42] (gas: 1)\n  3716: ra = 86, jump @2025\n      : @107 [@dyn 43] (gas: 6)\n  3722: u64 [s1 + 0xe8] = a0\n  3726: u64 [s1 + 0xd0] = a1\n  3730: a0 = 0xffffffffffffffff\n  3733: a1 = 0xffffffffffffffff\n  3736: a2 = u64 [s1 + 0x118]\n  3740: ra = 88, jump @2020\n      : @108 [@dyn 44] (gas: 1)\n  3746: t0 = 90, jump @2000\n      : @109 [@dyn 45] (gas: 1)\n  3752: ra = 92, jump @2020\n      : @110 [@dyn 46] (gas: 1)\n  3758: t0 = 94, jump @1933\n      : @111 [@dyn 47] (gas: 2)\n  3764: a2 = u64 [s1 + 0x100]\n  3768: t0 = 96, jump @2012\n      : @112 [@dyn 48] (gas: 8)\n  3774: a4 = s1 + 0x600\n  3778: u64 [a4 + 0x58] = a3\n  3781: u64 [a4 + 0x50] = a2\n  3784: u64 [a4 + 0x48] = a1\n  3787: u64 [a4 + 0x40] = a0\n  3790: a1 = s1 + 0x640\n  3794: a0 = u64 [s1 + 0xf8]\n  3798: ra = 98, jump @23\n      : @113 [@dyn 49] (gas: 3)\n  3803: a5 = u64 [s1 + 0x48]\n  3806: t0 = u64 [s1 + 0x20]\n  3809: fallthrough\n      : @114 (gas: 22)\n  3810: a0 = u64 [s1 + 0x50]\n  3813: a1 = u64 [s1 + 0x38]\n  3816: a0 = a0 | a1\n  3819: a1 = u64 [s1 + 0x28]\n  3822: a1 = a1 | a5\n  3825: a2 = u64 [s1 + 0x30]\n  3828: a2 = t0 | a2\n  3831: a3 = u64 [s1 + 0x40]\n  3834: a3 = a3 + 0x1\n  3837: u64 [s1 + 1656] = 0\n  3841: u64 [s1 + 1648] = 0\n  3845: u64 [s1 + 1640] = 0\n  3849: u64 [s1 + 1632] = 0\n  3853: a4 = s1 + 0x600\n  3857: u64 [a4 + 0x80] = a3\n  3861: u64 [a4 + 0x88] = a2\n  3865: u64 [a4 + 0x90] = a1\n  3869: u64 [a4 + 0x98] = a0\n  3873: a0 = s1 + 0x660\n  3877: a1 = s1 + 0x680\n  3881: ra = 0x72\n  3884: jump @23\n      : @115 (gas: 4)\n  3887: a0 = s1 + 0x420\n  3891: a1 = u64 [s1 + 0xd0]\n  3895: u64 [s1 + 0x20] = a4\n  3898: ra = 100, jump @17\n      : @116 [@dyn 50] (gas: 16)\n  3903: a5 = u64 [s1 + 0x48]\n  3906: a4 = u64 [s1 + 0x20]\n  3909: a1 = u64 [s1 + 0x28]\n  3912: t0 = u64 [s1 + 0x30]\n  3915: t1 = u64 [s1 + 0x38]\n  3918: a2 = u64 [s1 + 0x50]\n  3921: a3 = u64 [s1 + 0x60]\n  3924: a0 = u64 [s1 + 0x438]\n  3928: u64 [s1 + 0x110] = a0\n  3932: a0 = u64 [s1 + 0x430]\n  3936: u64 [s1 + 0x108] = a0\n  3940: a0 = u64 [s1 + 0x428]\n  3944: u64 [s1 + 0xf8] = a0\n  3948: a0 = u64 [s1 + 0x420]\n  3952: u64 [s1 + 0x100] = a0\n  3956: fallthrough\n      : @117 (gas: 7)\n  3957: a0 = a5 | a1\n  3960: u64 [s1 + 0xf0] = a0\n  3964: a0 = t1 | a2\n  3967: u64 [s1 + 0xe8] = a0\n  3971: a0 = a4 | t0\n  3974: u64 [s1 + 0xe0] = a0\n  3978: t0 = 102, jump @2010\n      : @118 [@dyn 51] (gas: 1)\n  3984: ra = 104, jump @2025\n      : @119 [@dyn 52] (gas: 7)\n  3990: u64 [s1 + 0xc0] = a0\n  3994: u64 [s1 + 0xd8] = a1\n  3998: a0 = u64 [s1 + 0x60]\n  4001: i32 a2 = a0 << 0x3\n  4004: a0 = 0xffffffffffffffff\n  4007: a1 = 0xffffffffffffffff\n  4010: ra = 106, jump @2020\n      : @120 [@dyn 53] (gas: 10)\n  4016: u64 [s1 + 0xd0] = a0\n  4020: u64 [s1 + 0xc8] = a1\n  4024: a1 = u64 [s1 + 0xc0]\n  4028: a0 = a0 | a1\n  4031: u64 [s1 + 0xc0] = a0\n  4035: a0 = u64 [s1 + 0x118]\n  4039: i32 a2 = a0 + 0xffffffffffffff80\n  4042: a0 = 0xffffffffffffffff\n  4045: a1 = 0xffffffffffffffff\n  4048: ra = 108, jump @2020\n      : @121 [@dyn 54] (gas: 7)\n  4054: a4 = u64 [s1 + 0x118]\n  4058: a2 = a4 <u 0x80\n  4062: a3 = u64 [s1 + 0xc0]\n  4066: a0 = a3 if a2 != 0\n  4069: a5 = u64 [s1 + 0xc8]\n  4073: a3 = u64 [s1 + 0xd8]\n  4077: t0 = 110, jump @1964\n      : @122 [@dyn 55] (gas: 2)\n  4083: a4 = u64 [s1 + 0xd0]\n  4087: t0 = 112, jump @1960\n      : @123 [@dyn 56] (gas: 20)\n  4093: a4 = u64 [s1 + 0x40]\n  4096: a0 = a0 | a4\n  4099: a4 = u64 [s1 + 0xe0]\n  4103: a1 = a1 | a4\n  4106: a4 = u64 [s1 + 0xe8]\n  4110: a3 = a3 | a4\n  4113: a4 = u64 [s1 + 0xf0]\n  4117: a2 = a2 | a4\n  4120: a4 = s1 + 0x600\n  4124: u64 [a4 + 0xd0] = a2\n  4128: u64 [a4 + 0xd8] = a3\n  4132: u64 [a4 + 0xc8] = a1\n  4136: u64 [a4 + 0xc0] = a0\n  4140: u64 [s1 + 1720] = 0\n  4144: u64 [s1 + 1712] = 0\n  4148: u64 [s1 + 1704] = 0\n  4152: u64 [s1 + 1696] = 0\n  4156: a0 = s1 + 0x6a0\n  4160: a1 = s1 + 0x6c0\n  4164: ra = 114, jump @23\n      : @124 [@dyn 57] (gas: 3)\n  4169: a0 = s1 + 0x3c0\n  4173: a1 = u64 [s1 + 0x80]\n  4177: ra = 116, jump @17\n      : @125 [@dyn 58] (gas: 17)\n  4182: a0 = s1 + 0x300\n  4186: a3 = u64 [a0 + 0xd8]\n  4190: a2 = u64 [a0 + 0xd0]\n  4194: a1 = u64 [a0 + 0xc8]\n  4198: a0 = a3 >u 0\n  4200: a4 = a2 >u 0\n  4202: a4 = a0 if a3 != 0\n  4205: u64 [s1 + 0x98] = a1\n  4209: a0 = a1 >u 0\n  4211: u64 [s1 + 0x90] = a2\n  4215: u64 [s1 + 0x88] = a3\n  4219: a2 = a2 | a3\n  4222: u64 [s1 + 0xb8] = a0\n  4226: u64 [s1 + 0xc0] = a4\n  4230: u64 [s1 + 0xd0] = a2\n  4234: a0 = a4 if a2 != 0\n  4237: jump @211 if a0 != 0\n      : @126 (gas: 9)\n  4241: a0 = u64 [s1 + 0x3c0]\n  4245: u64 [s1 + 0xa0] = a0\n  4249: u64 [s1 + 1784] = 0\n  4253: u64 [s1 + 1776] = 0\n  4257: u64 [s1 + 1768] = 0\n  4261: u64 [s1 + 1760] = 0x1\n  4266: a0 = s1 + 0x3a0\n  4270: a1 = s1 + 0x6e0\n  4274: ra = 118, jump @21\n      : @127 [@dyn 59] (gas: 6)\n  4279: a4 = s1 + 0x300\n  4283: a0 = u64 [a4 + 0xb0]\n  4287: a1 = u64 [a4 + 0xa8]\n  4291: a2 = u64 [a4 + 0xa0]\n  4295: a3 = u64 [a4 + 0xb8]\n  4299: t0 = 120, jump @1957\n      : @128 [@dyn 60] (gas: 12)\n  4305: t0 = a2 <u 0x1\n  4308: ra = a1 & 0x7f\n  4311: t2 = a5 & a0\n  4314: a4 = a5 & t1\n  4317: ra = a1 if a2 != 0\n  4320: a1 = ra <u 0x20\n  4323: a5 = a5 & a3\n  4326: a2 = a1\n  4328: a2 = 0 if a4 != 0\n  4330: a0 = t2 | a5\n  4333: a2 = 0 if a0 != 0\n  4335: jump @217 if t0 != a2\n      : @129 (gas: 1)\n  4339: t0 = 122, jump @1971\n      : @130 [@dyn 61] (gas: 4)\n  4345: a0 = u64 [s1 + 0xa0]\n  4349: a0 = a0 <u 0x20\n  4352: u64 [s1 + 0xc8] = a0\n  4356: jump @143 if a3 == 0\n      : @131 (gas: 11)\n  4360: u64 [s1 + 0xf0] = a4\n  4364: u64 [s1 + 0xf8] = ra\n  4368: u64 [s1 + 0x100] = a5\n  4372: u64 [s1 + 0x110] = t2\n  4376: u64 [s1 + 920] = 0\n  4380: u64 [s1 + 912] = 0\n  4384: u64 [s1 + 904] = 0\n  4388: a1 = s1 + 0x380\n  4392: u64 [s1 + 896] = 0x1\n  4397: a0 = 0\n  4399: ra = 124, jump @19\n      : @132 [@dyn 62] (gas: 2)\n  4404: a1 = i32 [0x2020c]\n  4409: jump @134 if a1 >u 31\n      : @133 (gas: 4)\n  4413: a1 = 0x20\n  4416: u32 [0x2020c] = a1\n  4421: t0 = 0x7e\n  4424: jump @1945\n      : @134 (gas: 1)\n  4428: t0 = 126, jump @1945\n      : @135 [@dyn 63] (gas: 7)\n  4434: a0 = 0x20220\n  4439: i32 a0 = a0 + 0\n  4441: i32 a2 = a2 + 0\n  4443: a1 = 0x20\n  4446: ra = 0x80\n  4450: ecalli 9 // 'hash_keccak_256'\n  4452: fallthrough\n      : @136 [@dyn 64] (gas: 9)\n  4453: a0 = u64 [s1 + 0xa0]\n  4457: a1 = a0 + 0x1f\n  4460: a0 = a1 <u a0\n  4463: a5 = u64 [s1 + 0x98]\n  4467: a2 = a5 + a0\n  4470: a3 = a2 <u a5\n  4473: a3 = a0 if a0 == 0\n  4476: a4 = u64 [s1 + 0x90]\n  4480: t0 = 130, jump @1946\n      : @137 [@dyn 65] (gas: 35)\n  4487: a1 = u64 [s1 + 0xc8]\n  4491: a1 = 0 if a5 != 0\n  4493: a3 = u64 [s1 + 0xd0]\n  4497: a1 = 0 if a3 != 0\n  4499: a4 = 0 if a1 != 0\n  4501: a0 = 0 if a1 != 0\n  4503: t0 = t2 + a0\n  4506: a0 = t0 <u t2\n  4509: a5 = a2 + a0\n  4512: a4 = a4 + a5\n  4515: u64 [s1 + 0x118] = a4\n  4519: a5 = a4 ^ a2\n  4522: a3 = a4 <u a2\n  4525: a3 = a0 if a5 == 0\n  4528: u64 [s1 + 0xe0] = a3\n  4532: a0 = u64 [s1 + 0xf8]\n  4536: ra = a0 + 0x1f\n  4539: a4 = ra <u a0\n  4542: a3 = u64 [s1 + 0xf0]\n  4546: a0 = a3 + a4\n  4549: a5 = a0 <u a3\n  4552: a5 = a4 if a4 == 0\n  4555: t1 = u64 [s1 + 0x110]\n  4559: t1 = t1 + a5\n  4562: a4 = t1 << 0x3b\n  4565: a3 = a0 >> 0x5\n  4568: a3 = a3 | a4\n  4571: a0 = a0 << 0x3b\n  4574: a4 = ra >> 0x5\n  4577: a0 = a0 | a4\n  4580: a0 = a0 + t2\n  4583: u64 [s1 + 0xf8] = a0\n  4587: a0 = a0 <u t2\n  4590: t2 = t0\n  4592: t0 = 132, jump @1995\n      : @138 [@dyn 66] (gas: 16)\n  4599: a0 = u64 [s1 + 0x90]\n  4603: a0 = a4 <u a0\n  4606: a3 = u64 [s1 + 0x88]\n  4610: a0 = a0 + a3\n  4613: a3 = a4 >> 0x5\n  4616: a4 = a0 << 0x3b\n  4619: a3 = a3 | a4\n  4622: a4 = u64 [s1 + 0x108]\n  4626: t0 = u64 [a4]\n  4628: a4 = u64 [a4 + 0x8]\n  4631: a0 = a0 >> 0x5\n  4634: a3 = 0 if a1 != 0\n  4636: a0 = 0 if a1 != 0\n  4638: a1 = reverse a4\n  4640: a4 = reverse t0\n  4642: t0 = 134, jump @2008\n      : @139 [@dyn 67] (gas: 24)\n  4649: t0 = a0 + a3\n  4652: a0 = u64 [s1 + 0x110]\n  4656: a0 = t1 <u a0\n  4659: a3 = u64 [s1 + 0x100]\n  4663: a0 = a0 + a3\n  4666: a3 = t1 >> 0x5\n  4669: a5 = a0 << 0x3b\n  4672: a3 = a3 | a5\n  4675: a0 = a0 >> 0x5\n  4678: a0 = a0 + a4\n  4681: a4 = u64 [s1 + 0x118]\n  4685: a3 = a3 + a1\n  4688: a1 = a3 <u a1\n  4691: a0 = a0 + a1\n  4694: a2 = a2 + a3\n  4697: u64 [s1 + 0xe8] = a2\n  4701: a1 = a2 <u a3\n  4704: a0 = a0 + a1\n  4707: u64 [s1 + 0xe0] = a0\n  4711: a0 = sp + 0xffffffffffffffe0\n  4714: t1 = a0 & 0xffffffffffffffe0\n  4717: sp = t1\n  4719: u64 [s1 + 0xd8] = t1\n  4723: fallthrough\n      : @140 (gas: 20)\n  4724: a0 = u64 [s1 + 0xf8]\n  4728: a0 = t2 <u a0\n  4731: a2 = u64 [s1 + 0xf0]\n  4735: a1 = a4 ^ a2\n  4738: a2 = a4 <u a2\n  4741: a2 = a0 if a1 == 0\n  4744: a5 = u64 [s1 + 0xe8]\n  4748: a0 = ra <u a5\n  4751: a3 = u64 [s1 + 0xe0]\n  4755: a1 = t0 ^ a3\n  4758: a3 = t0 <u a3\n  4761: a3 = a0 if a1 == 0\n  4764: a0 = ra ^ a5\n  4767: a0 = a0 | a1\n  4770: a3 = a2 if a0 == 0\n  4773: u64 [t1] = t2\n  4775: u64 [t1 + 0x8] = a4\n  4778: u64 [t1 + 0x10] = ra\n  4781: u64 [t1 + 0x18] = t0\n  4784: jump @143 if a3 == 0\n      : @141 (gas: 11)\n  4787: u64 [s1 + 1816] = 0\n  4791: u64 [s1 + 1808] = 0\n  4795: u64 [s1 + 1800] = 0\n  4799: u64 [s1 + 1792] = 0\n  4803: a1 = s1 + 0x700\n  4807: a0 = t1\n  4809: u64 [s1 + 0x110] = t2\n  4813: u64 [s1 + 0x118] = a4\n  4817: u64 [s1 + 0x108] = t0\n  4821: u64 [s1 + 0x100] = ra\n  4825: ra = 136, jump @23\n      : @142 [@dyn 68] (gas: 15)\n  4831: t1 = u64 [s1 + 0xd8]\n  4835: t0 = u64 [s1 + 0x108]\n  4839: a4 = u64 [s1 + 0x118]\n  4843: t2 = u64 [s1 + 0x110]\n  4847: t2 = t2 + 0x1\n  4850: a0 = t2 <u 0x1\n  4853: a4 = a4 + a0\n  4856: a0 = t2 | a4\n  4859: a0 = a0 <u 0x1\n  4862: a1 = u64 [s1 + 0x100]\n  4866: a0 = a0 + a1\n  4869: a1 = a0 <u a1\n  4872: t0 = t0 + a1\n  4875: ra = a0\n  4877: jump @140\n      : @143 (gas: 9)\n  4880: a0 = u64 [s1 + 0xc8]\n  4884: a0 = a0 ^ 0x1\n  4887: a2 = u64 [s1 + 0x98]\n  4891: a1 = u64 [s1 + 0xb8]\n  4895: a0 = a1 if a2 != 0\n  4898: a1 = u64 [s1 + 0xc0]\n  4902: a3 = u64 [s1 + 0xd0]\n  4906: a0 = a1 if a3 != 0\n  4909: jump @153 if a0 == 0\n      : @144 (gas: 10)\n  4913: a0 = u64 [s1 + 0xa0]\n  4917: a0 = a0 & 0xffffffffffffffe0\n  4920: u64 [s1 + 0xa8] = a0\n  4924: u64 [s1 + 856] = 0\n  4928: u64 [s1 + 848] = 0\n  4932: u64 [s1 + 840] = 0\n  4936: a1 = s1 + 0x340\n  4940: u64 [s1 + 832] = 0x1\n  4945: a0 = 0\n  4947: ra = 138, jump @19\n      : @145 [@dyn 69] (gas: 7)\n  4953: a0 = sp + 0xffffffffffffffe0\n  4956: a0 = a0 & 0xffffffffffffffe0\n  4959: u64 [s1 + 0x100] = a0\n  4963: sp = a0\n  4965: a1 = 0x20\n  4968: a0 = 0\n  4970: ra = 140, jump @34\n      : @146 [@dyn 70] (gas: 40)\n  4976: a1 = sp + 0xffffffffffffffe0\n  4979: a1 = a1 & 0xffffffffffffffe0\n  4982: u64 [s1 + 0xf8] = a1\n  4986: sp = a1\n  4988: i32 a0 = a0 + 0\n  4990: i32 a2 = a1 + 0\n  4992: a1 = 0x20\n  4995: ecalli 9 // 'hash_keccak_256'\n  4997: u64 [s1 + 280] = 0x20\n  5002: a5 = 0\n  5004: u64 [s1 + 264] = 0\n  5008: u64 [s1 + 272] = 0\n  5012: a4 = 0\n  5014: a3 = 0\n  5016: a2 = 0\n  5018: t1 = 0\n  5020: a0 = u64 [s1 + 0xf8]\n  5024: t0 = u64 [a0 + 0x18]\n  5027: a1 = u64 [a0 + 0x10]\n  5030: ra = u64 [a0 + 0x8]\n  5033: a0 = u64 [a0]\n  5035: u64 [s1 + 0xf0] = a0\n  5039: a0 = reverse t0\n  5041: u64 [s1 + 0xf8] = a0\n  5045: t2 = reverse a1\n  5047: t0 = reverse ra\n  5049: a0 = u64 [s1 + 0xf0]\n  5053: a1 = reverse a0\n  5055: ra = a1\n  5057: a0 = u64 [s1 + 0x100]\n  5061: u64 [a0 + 0x18] = a1\n  5064: a1 = t0\n  5066: u64 [s1 + 0xb8] = a1\n  5070: u64 [a0 + 0x10] = a1\n  5073: a1 = t2\n  5075: u64 [s1 + 0xe8] = a1\n  5079: u64 [a0 + 0x8] = a1\n  5082: a1 = u64 [s1 + 0xf8]\n  5086: u64 [a0] = a1\n  5088: fallthrough\n      : @147 (gas: 24)\n  5089: u64 [s1 + 0xe0] = ra\n  5093: a0 = u64 [s1 + 0xa8]\n  5097: u64 [s1 + 0xd0] = a4\n  5101: a0 = a4 <u a0\n  5104: a4 = a0 ^ 0x1\n  5107: u64 [s1 + 0xc8] = a3\n  5111: a4 = 0x1 if a3 != 0\n  5114: u64 [s1 + 0xf0] = t1\n  5118: u64 [s1 + 0xd8] = a2\n  5122: a0 = a2 | t1\n  5125: a4 = 0x1 if a0 != 0\n  5128: a0 = u64 [s1 + 0x80]\n  5132: a1 = u64 [s1 + 0x118]\n  5136: a1 = a1 + a0\n  5139: a3 = u64 [s1 + 0x78]\n  5142: u64 [s1 + 0xc0] = a5\n  5146: t0 = a3 + a5\n  5149: t2 = u64 [s1 + 0x70]\n  5152: a2 = u64 [s1 + 0x108]\n  5156: a2 = a2 + t2\n  5159: t1 = u64 [s1 + 0x68]\n  5162: a5 = u64 [s1 + 0x110]\n  5166: t1 = t1 + a5\n  5169: jump @155 if a4 != 0\n      : @148 (gas: 6)\n  5173: ra = a1 <u a0\n  5176: a4 = t0 + ra\n  5179: t0 = a4 ^ a3\n  5182: a5 = a4 <u a3\n  5185: a5 = ra if t0 == 0\n  5188: t0 = 142, jump @1963\n      : @149 [@dyn 71] (gas: 1)\n  5195: jump @185 if a0 != 0\n      : @150 (gas: 2)\n  5199: a0 = s1 + 0x2c0\n  5203: ra = 144, jump @17\n      : @151 [@dyn 72] (gas: 13)\n  5209: a4 = s1 + 0x200\n  5213: a0 = u64 [a4 + 0xd8]\n  5217: a1 = u64 [a4 + 0xd0]\n  5221: a2 = u64 [a4 + 0xc8]\n  5225: a3 = u64 [a4 + 0xc0]\n  5229: a4 = s1 + 0x700\n  5233: u64 [a4 + 0x38] = a0\n  5236: u64 [a4 + 0x30] = a1\n  5239: u64 [a4 + 0x28] = a2\n  5242: u64 [a4 + 0x20] = a3\n  5245: a1 = s1 + 0x720\n  5249: a0 = u64 [s1 + 0x100]\n  5253: ra = 146, jump @23\n      : @152 [@dyn 73] (gas: 55)\n  5259: ra = u64 [s1 + 0xf8]\n  5263: ra = ra + 0x1\n  5266: a0 = ra <u 0x1\n  5269: a3 = u64 [s1 + 0xe8]\n  5273: a3 = a3 + a0\n  5276: a0 = ra | a3\n  5279: a0 = a0 <u 0x1\n  5282: a1 = u64 [s1 + 0xb8]\n  5286: a0 = a0 + a1\n  5289: a1 = a0 <u a1\n  5292: t0 = u64 [s1 + 0xe0]\n  5296: t0 = t0 + a1\n  5299: a1 = u64 [s1 + 0x118]\n  5303: a2 = a1 + 0x20\n  5306: u64 [s1 + 0xe0] = a2\n  5310: a1 = a2 <u a1\n  5313: a2 = u64 [s1 + 0xc0]\n  5317: a4 = a2 + a1\n  5320: u64 [s1 + 0xb0] = a4\n  5324: a4 = a4 <u a2\n  5327: a4 = a1 if a1 == 0\n  5330: a1 = u64 [s1 + 0x108]\n  5334: t2 = a1 + a4\n  5337: a4 = t2 <u a1\n  5340: a1 = u64 [s1 + 0x110]\n  5344: a1 = a1 + a4\n  5347: u64 [s1 + 0x110] = a1\n  5351: a1 = u64 [s1 + 0xd0]\n  5355: a4 = a1 + 0x20\n  5358: a5 = a4 <u a1\n  5361: a2 = u64 [s1 + 0xc8]\n  5365: a1 = a2 + a5\n  5368: a2 = a1 <u a2\n  5371: a2 = a5 if a5 == 0\n  5374: a5 = u64 [s1 + 0xd8]\n  5378: a2 = a2 + a5\n  5381: a5 = a2 <u a5\n  5384: t1 = u64 [s1 + 0xf0]\n  5388: t1 = t1 + a5\n  5391: u64 [s1 + 0xe8] = a3\n  5395: a5 = u64 [s1 + 0x100]\n  5399: u64 [a5 + 0x8] = a3\n  5402: a3 = ra\n  5404: u64 [s1 + 0xf8] = a3\n  5408: u64 [a5] = a3\n  5410: u64 [a5 + 0x10] = a0\n  5413: ra = t0\n  5415: u64 [a5 + 0x18] = t0\n  5418: u64 [s1 + 0xb8] = a0\n  5422: a0 = u64 [s1 + 0xe0]\n  5426: u64 [s1 + 0x118] = a0\n  5430: a5 = u64 [s1 + 0xb0]\n  5434: u64 [s1 + 0x108] = t2\n  5438: a3 = a1\n  5440: jump @147\n      : @153 (gas: 7)\n  5443: a3 = u64 [s1 + 0xa0]\n  5447: a4 = u64 [s1 + 0x90]\n  5451: a0 = a3 | a4\n  5454: a5 = u64 [s1 + 0x88]\n  5458: a1 = a2 | a5\n  5461: a0 = a0 | a1\n  5464: jump @169 if a0 != 0\n      : @154 (gas: 5)\n  5468: u64 [s1 + 256] = 0\n  5472: u64 [s1 + 248] = 0\n  5476: u64 [s1 + 264] = 0\n  5480: u64 [s1 + 272] = 0\n  5484: jump @171\n      : @155 (gas: 12)\n  5487: a4 = u64 [s1 + 0xa8]\n  5491: a5 = u64 [s1 + 0xa0]\n  5495: a4 = a4 ^ a5\n  5498: ra = u64 [s1 + 0x90]\n  5502: a4 = a4 | ra\n  5505: u64 [s1 + 0x118] = a4\n  5509: a5 = u64 [s1 + 0x98]\n  5513: a4 = u64 [s1 + 0x88]\n  5517: a5 = a5 | a4\n  5520: a4 = u64 [s1 + 0x118]\n  5524: a4 = a4 | a5\n  5527: jump @168 if a4 == 0\n      : @156 (gas: 6)\n  5531: ra = a1 <u a0\n  5534: a4 = t0 + ra\n  5537: t0 = a4 ^ a3\n  5540: a5 = a4 <u a3\n  5543: a5 = ra if t0 == 0\n  5546: t0 = 148, jump @1963\n      : @157 [@dyn 74] (gas: 1)\n  5553: jump @185 if a0 != 0\n      : @158 (gas: 2)\n  5557: a0 = s1 + 0x320\n  5561: ra = 150, jump @17\n      : @159 [@dyn 75] (gas: 11)\n  5567: a1 = s1 + 0x300\n  5571: a0 = u64 [a1 + 0x38]\n  5574: u64 [s1 + 0x110] = a0\n  5578: a0 = u64 [a1 + 0x30]\n  5581: u64 [s1 + 0x108] = a0\n  5585: a0 = u64 [a1 + 0x28]\n  5588: u64 [s1 + 0xf8] = a0\n  5592: a0 = u64 [a1 + 0x20]\n  5595: u64 [s1 + 0xf0] = a0\n  5599: a0 = u64 [s1 + 0xa0]\n  5603: t0 = 152, jump @1996\n      : @160 [@dyn 76] (gas: 1)\n  5610: ra = 154, jump @2025\n      : @161 [@dyn 77] (gas: 6)\n  5617: u64 [s1 + 0xe8] = a0\n  5621: u64 [s1 + 0xd0] = a1\n  5625: a0 = 0xffffffffffffffff\n  5628: a1 = 0xffffffffffffffff\n  5631: a2 = u64 [s1 + 0x118]\n  5635: ra = 156, jump @2020\n      : @162 [@dyn 78] (gas: 1)\n  5642: t0 = 158, jump @2000\n      : @163 [@dyn 79] (gas: 1)\n  5649: ra = 160, jump @2020\n      : @164 [@dyn 80] (gas: 1)\n  5656: t0 = 162, jump @1933\n      : @165 [@dyn 81] (gas: 2)\n  5663: a2 = u64 [s1 + 0xf8]\n  5667: t0 = 164, jump @2012\n      : @166 [@dyn 82] (gas: 8)\n  5674: a4 = s1 + 0x700\n  5678: u64 [a4 + 0x58] = a3\n  5681: u64 [a4 + 0x50] = a2\n  5684: u64 [a4 + 0x48] = a1\n  5687: u64 [a4 + 0x40] = a0\n  5690: a1 = s1 + 0x740\n  5694: a0 = u64 [s1 + 0x100]\n  5698: ra = 166, jump @23\n      : @167 [@dyn 83] (gas: 2)\n  5704: ra = u64 [s1 + 0x90]\n  5708: fallthrough\n      : @168 (gas: 27)\n  5709: a0 = ra >> 0x3f\n  5712: a1 = u64 [s1 + 0x88]\n  5716: a1 = a1 << 0x1\n  5719: a0 = a0 | a1\n  5722: a3 = u64 [s1 + 0x98]\n  5726: a1 = a3 >> 0x3f\n  5729: a2 = ra << 0x1\n  5732: a1 = a1 | a2\n  5735: a4 = u64 [s1 + 0xa0]\n  5739: a2 = a4 >> 0x3f\n  5742: a3 = a3 << 0x1\n  5745: a2 = a2 | a3\n  5748: a3 = a4 << 0x1\n  5751: a3 = a3 + 0x1\n  5754: u64 [s1 + 1912] = 0\n  5758: u64 [s1 + 1904] = 0\n  5762: u64 [s1 + 1896] = 0\n  5766: a5 = s1 + 0x700\n  5770: u64 [a5 + 96] = 0x1\n  5774: u64 [a5 + 0x80] = a3\n  5778: u64 [a5 + 0x88] = a2\n  5782: u64 [a5 + 0x90] = a1\n  5786: u64 [a5 + 0x98] = a0\n  5790: a0 = s1 + 0x760\n  5794: a1 = s1 + 0x780\n  5798: ra = 0xb6\n  5802: jump @23\n      : @169 (gas: 3)\n  5805: a0 = s1 + 0x360\n  5809: a1 = u64 [s1 + 0x18]\n  5812: ra = 168, jump @17\n      : @170 [@dyn 84] (gas: 14)\n  5818: a5 = u64 [s1 + 0x88]\n  5822: a4 = u64 [s1 + 0x90]\n  5826: a2 = u64 [s1 + 0x98]\n  5830: a3 = u64 [s1 + 0xa0]\n  5834: a1 = s1 + 0x300\n  5838: a0 = u64 [a1 + 0x78]\n  5841: u64 [s1 + 0x110] = a0\n  5845: a0 = u64 [a1 + 0x70]\n  5848: u64 [s1 + 0x108] = a0\n  5852: a0 = u64 [a1 + 0x68]\n  5855: u64 [s1 + 0xf8] = a0\n  5859: a0 = u64 [a1 + 0x60]\n  5862: u64 [s1 + 0x100] = a0\n  5866: fallthrough\n      : @171 (gas: 15)\n  5867: a0 = a2 >> 0x3f\n  5870: a1 = a4 << 0x1\n  5873: a0 = a0 | a1\n  5876: u64 [s1 + 0xf0] = a0\n  5880: a0 = a4 >> 0x3f\n  5883: a1 = a5 << 0x1\n  5886: a0 = a0 | a1\n  5889: u64 [s1 + 0xe8] = a0\n  5893: a0 = a3 >> 0x3f\n  5896: a1 = a2 << 0x1\n  5899: a0 = a0 | a1\n  5902: u64 [s1 + 0xe0] = a0\n  5906: a0 = a3 << 0x1\n  5909: u64 [s1 + 0xd8] = a0\n  5913: t0 = 170, jump @2010\n      : @172 [@dyn 85] (gas: 1)\n  5920: ra = 172, jump @2025\n      : @173 [@dyn 86] (gas: 7)\n  5927: u64 [s1 + 0xb8] = a0\n  5931: u64 [s1 + 0xd0] = a1\n  5935: a0 = u64 [s1 + 0xa0]\n  5939: i32 a2 = a0 << 0x3\n  5942: a0 = 0xffffffffffffffff\n  5945: a1 = 0xffffffffffffffff\n  5948: ra = 174, jump @2020\n      : @174 [@dyn 87] (gas: 10)\n  5955: u64 [s1 + 0xc8] = a0\n  5959: u64 [s1 + 0xc0] = a1\n  5963: a1 = u64 [s1 + 0xb8]\n  5967: a0 = a0 | a1\n  5970: u64 [s1 + 0xb8] = a0\n  5974: a0 = u64 [s1 + 0x118]\n  5978: i32 a2 = a0 + 0xffffffffffffff80\n  5981: a0 = 0xffffffffffffffff\n  5984: a1 = 0xffffffffffffffff\n  5987: ra = 176, jump @2020\n      : @175 [@dyn 88] (gas: 7)\n  5994: a4 = u64 [s1 + 0x118]\n  5998: a2 = a4 <u 0x80\n  6002: a3 = u64 [s1 + 0xb8]\n  6006: a0 = a3 if a2 != 0\n  6009: a5 = u64 [s1 + 0xc0]\n  6013: a3 = u64 [s1 + 0xd0]\n  6017: t0 = 178, jump @1964\n      : @176 [@dyn 89] (gas: 2)\n  6024: a4 = u64 [s1 + 0xc8]\n  6028: t0 = 180, jump @1960\n      : @177 [@dyn 90] (gas: 20)\n  6035: a4 = u64 [s1 + 0xd8]\n  6039: a0 = a0 | a4\n  6042: a4 = u64 [s1 + 0xe0]\n  6046: a1 = a1 | a4\n  6049: a4 = u64 [s1 + 0xe8]\n  6053: a3 = a3 | a4\n  6056: a4 = u64 [s1 + 0xf0]\n  6060: a2 = a2 | a4\n  6063: a5 = s1 + 0x700\n  6067: u64 [a5 + 160] = 0x1\n  6072: u64 [a5 + 0xd0] = a2\n  6076: u64 [a5 + 0xd8] = a3\n  6080: u64 [a5 + 0xc8] = a1\n  6084: u64 [a5 + 0xc0] = a0\n  6088: u64 [s1 + 1976] = 0\n  6092: u64 [s1 + 1968] = 0\n  6096: u64 [s1 + 1960] = 0\n  6100: a0 = s1 + 0x7a0\n  6104: a1 = s1 + 0x7c0\n  6108: ra = 182, jump @23\n      : @178 [@dyn 91] (gas: 17)\n  6114: u64 [s1 + 2040] = 0\n  6118: u64 [s1 + 2032] = 0\n  6122: u64 [s1 + 2024] = 0\n  6126: u64 [s1 + 2016] = 0x9\n  6131: a0 = s1 + 0x1000\n  6135: u64 [a0 + 4294965272] = 0\n  6139: a0 = s1 + 0x1000\n  6143: u64 [a0 + 4294965264] = 0\n  6147: a0 = s1 + 0x1000\n  6151: u64 [a0 + 4294965256] = 0\n  6155: a0 = 0xe35fa931a000\n  6165: a1 = s1 + 0x1000\n  6169: u64 [a1 + 0xfffffffffffff800] = a0\n  6173: a0 = s1 + 0x7e0\n  6177: a1 = s1 + 0x7ff\n  6181: a1 = a1 + 0x1\n  6184: ra = 184, jump @23\n      : @179 [@dyn 92] (gas: 8)\n  6190: a0 = 0x30220\n  6195: u64 [s1 + 0x118] = a0\n  6199: i32 a0 = a0 + 0\n  6201: ra = 0xba\n  6205: ecalli 5 // 'caller'\n  6207: a2 = u64 [s1 + 0x118]\n  6211: t0 = 0xbc\n  6215: jump @1948\n      : @180 [@dyn 93] (gas: 2)\n  6219: a2 = u64 [s1 + 0x118]\n  6223: t0 = 188, jump @1948\n      : @181 [@dyn 94] (gas: 20)\n  6230: u64 [s1 + 0x118] = a1\n  6234: a0 = a0 >> 0x20\n  6237: a1 = reverse a2\n  6239: a2 = a1 << 0x20\n  6242: a0 = a0 | a2\n  6245: u64 [s1 + 0x110] = a0\n  6249: a1 = a1 >> 0x20\n  6252: u64 [s1 + 0x108] = a1\n  6256: a0 = s1 + 0x1000\n  6260: u64 [a0 + 4294965304] = 0\n  6264: a0 = s1 + 0x1000\n  6268: u64 [a0 + 4294965296] = 0\n  6272: a0 = s1 + 0x1000\n  6276: u64 [a0 + 4294965288] = 0\n  6280: a1 = s1 + 0x1000\n  6284: u64 [a1 + 4294965280] = 0xa\n  6289: a0 = s1 + 0x300\n  6293: a1 = s1 + 0x7ff\n  6297: a1 = a1 + 0x21\n  6300: ra = 190, jump @21\n      : @182 [@dyn 95] (gas: 29)\n  6306: a0 = u32 [s1 + 0x314]\n  6310: a0 = a0 << 0x20\n  6313: a1 = u64 [s1 + 0x318]\n  6317: a4 = s1 + 0x100\n  6321: a2 = u64 [a4 + 0x8]\n  6324: a0 = a0 | a2\n  6327: a2 = s1 + 0x1000\n  6331: u64 [a2 + 4294965336] = 0\n  6335: a2 = s1 + 0x1000\n  6339: u64 [a2 + 4294965328] = 0\n  6343: a2 = s1 + 0x1000\n  6347: u64 [a2 + 4294965320] = 0\n  6351: a3 = s1 + 0x1000\n  6355: u64 [a3 + 4294965312] = 0xa\n  6360: a2 = s1 + 0x1000\n  6364: u64 [a2 + 0xfffffffffffff878] = a1\n  6368: a1 = u64 [a4 + 0x10]\n  6371: a2 = s1 + 0x1000\n  6375: u64 [a2 + 0xfffffffffffff868] = a1\n  6379: a1 = u64 [a4 + 0x18]\n  6382: a2 = s1 + 0x1000\n  6386: u64 [a2 + 0xfffffffffffff860] = a1\n  6390: a1 = s1 + 0x1000\n  6394: u64 [a1 + 0xfffffffffffff870] = a0\n  6398: a0 = s1 + 0x7ff\n  6402: a0 = a0 + 0x41\n  6405: a1 = s1 + 0x7ff\n  6409: a1 = a1 + 0x61\n  6412: ra = 192, jump @23\n      : @183 [@dyn 96] (gas: 3)\n  6418: a0 = s1 + 0x2e0\n  6422: a1 = 0x40\n  6425: ra = 194, jump @17\n      : @184 [@dyn 97] (gas: 13)\n  6431: a4 = s1 + 0x200\n  6435: a3 = u64 [a4 + 0xf8]\n  6439: a1 = u64 [a4 + 0xf0]\n  6443: a2 = u64 [a4 + 0xe8]\n  6447: a0 = u64 [a4 + 0xe0]\n  6451: a3 = a3 | a2\n  6454: a2 = a0 | a1\n  6457: a2 = a2 | a3\n  6460: a2 = a2 >> 0x20\n  6463: a1 = a1 | a3\n  6466: a1 = a1 << 0x20\n  6469: a1 = a1 | a2\n  6472: jump @224 if a1 == 0\n      : @185 (gas: 1)\n  6476: trap\n      : @186 (gas: 6)\n  6477: a1 = 0x20220\n  6482: i32 a1 = a1 + 0\n  6484: a0 = 0x1\n  6487: a2 = 0\n  6489: ecalli 13 // 'seal_return'\n  6491: fallthrough\n      : @187 (gas: 6)\n  6492: u64 [s1 + 336] = 0\n  6496: u64 [s1 + 328] = 0\n  6500: u64 [s1 + 320] = 0\n  6504: t0 = 0xc4\n  6508: a0 = 0x4e487b7100000000\n  6518: fallthrough\n      : @188 [@dyn 98] (gas: 4)\n  6519: a1 = s1 + 0x140\n  6523: u64 [s1 + 0x158] = a0\n  6527: a0 = 0\n  6529: ra = 198, jump @19\n      : @189 [@dyn 99] (gas: 7)\n  6535: u64 [s1 + 312] = 0\n  6539: u64 [s1 + 304] = 0\n  6543: u64 [s1 + 288] = 0x41\n  6548: a0 = 0x4\n  6551: a1 = s1 + 0x120\n  6555: u64 [s1 + 296] = 0\n  6559: ra = 200, jump @19\n      : @190 [@dyn 100] (gas: 2)\n  6565: a1 = i32 [0x2020c]\n  6570: jump @192 if a1 >u 63\n      : @191 (gas: 3)\n  6574: u32 [0x2020c] = 0x40\n  6580: a1 = 0x20220\n  6585: jump @223\n      : @192 (gas: 2)\n  6588: a1 = 0x20220\n  6593: jump @223\n      : @193 (gas: 6)\n  6596: u64 [s1 + 400] = 0\n  6600: u64 [s1 + 392] = 0\n  6604: u64 [s1 + 384] = 0\n  6608: t0 = 0xca\n  6612: a0 = 0x4e487b7100000000\n  6622: fallthrough\n      : @194 [@dyn 101] (gas: 4)\n  6623: a1 = s1 + 0x180\n  6627: u64 [s1 + 0x198] = a0\n  6631: a0 = 0\n  6633: ra = 204, jump @19\n      : @195 [@dyn 102] (gas: 7)\n  6639: u64 [s1 + 376] = 0\n  6643: u64 [s1 + 368] = 0\n  6647: u64 [s1 + 352] = 0x41\n  6652: a0 = 0x4\n  6655: a1 = s1 + 0x160\n  6659: u64 [s1 + 360] = 0\n  6663: ra = 206, jump @19\n      : @196 [@dyn 103] (gas: 2)\n  6669: a1 = i32 [0x2020c]\n  6674: jump @198 if a1 >u 63\n      : @197 (gas: 3)\n  6678: u32 [0x2020c] = 0x40\n  6684: a1 = 0x20220\n  6689: jump @223\n      : @198 (gas: 2)\n  6692: a1 = 0x20220\n  6697: jump @223\n      : @199 (gas: 6)\n  6700: u64 [s1 + 464] = 0\n  6704: u64 [s1 + 456] = 0\n  6708: u64 [s1 + 448] = 0\n  6712: t0 = 0xd0\n  6716: a0 = 0x4e487b7100000000\n  6726: fallthrough\n      : @200 [@dyn 104] (gas: 4)\n  6727: a1 = s1 + 0x1c0\n  6731: u64 [s1 + 0x1d8] = a0\n  6735: a0 = 0\n  6737: ra = 210, jump @19\n      : @201 [@dyn 105] (gas: 7)\n  6743: u64 [s1 + 440] = 0\n  6747: u64 [s1 + 432] = 0\n  6751: u64 [s1 + 416] = 0x41\n  6756: a0 = 0x4\n  6759: a1 = s1 + 0x1a0\n  6763: u64 [s1 + 424] = 0\n  6767: ra = 212, jump @19\n      : @202 [@dyn 106] (gas: 2)\n  6773: a1 = i32 [0x2020c]\n  6778: jump @204 if a1 >u 63\n      : @203 (gas: 3)\n  6782: u32 [0x2020c] = 0x40\n  6788: a1 = 0x20220\n  6793: jump @223\n      : @204 (gas: 2)\n  6796: a1 = 0x20220\n  6801: jump @223\n      : @205 (gas: 6)\n  6804: u64 [s1 + 528] = 0\n  6808: u64 [s1 + 520] = 0\n  6812: u64 [s1 + 512] = 0\n  6816: t0 = 0xd6\n  6820: a0 = 0x4e487b7100000000\n  6830: fallthrough\n      : @206 [@dyn 107] (gas: 4)\n  6831: a1 = s1 + 0x200\n  6835: u64 [s1 + 0x218] = a0\n  6839: a0 = 0\n  6841: ra = 216, jump @19\n      : @207 [@dyn 108] (gas: 7)\n  6847: u64 [s1 + 504] = 0\n  6851: u64 [s1 + 496] = 0\n  6855: u64 [s1 + 480] = 0x22\n  6860: a0 = 0x4\n  6863: a1 = s1 + 0x1e0\n  6867: u64 [s1 + 488] = 0\n  6871: ra = 218, jump @19\n      : @208 [@dyn 109] (gas: 2)\n  6877: a1 = i32 [0x2020c]\n  6882: jump @210 if a1 >u 63\n      : @209 (gas: 3)\n  6886: u32 [0x2020c] = 0x40\n  6892: a1 = 0x20220\n  6897: jump @223\n      : @210 (gas: 2)\n  6900: a1 = 0x20220\n  6905: jump @223\n      : @211 (gas: 6)\n  6908: u64 [s1 + 624] = 0\n  6912: u64 [s1 + 616] = 0\n  6916: u64 [s1 + 608] = 0\n  6920: t0 = 0xdc\n  6924: a0 = 0x4e487b7100000000\n  6934: fallthrough\n      : @212 [@dyn 110] (gas: 4)\n  6935: a1 = s1 + 0x260\n  6939: u64 [s1 + 0x278] = a0\n  6943: a0 = 0\n  6945: ra = 222, jump @19\n      : @213 [@dyn 111] (gas: 7)\n  6951: u64 [s1 + 600] = 0\n  6955: u64 [s1 + 592] = 0\n  6959: u64 [s1 + 576] = 0x41\n  6964: a0 = 0x4\n  6967: a1 = s1 + 0x240\n  6971: u64 [s1 + 584] = 0\n  6975: ra = 224, jump @19\n      : @214 [@dyn 112] (gas: 2)\n  6981: a1 = i32 [0x2020c]\n  6986: jump @216 if a1 >u 63\n      : @215 (gas: 3)\n  6990: u32 [0x2020c] = 0x40\n  6996: a1 = 0x20220\n  7001: jump @223\n      : @216 (gas: 2)\n  7003: a1 = 0x20220\n  7008: jump @223\n      : @217 (gas: 6)\n  7010: u64 [s1 + 688] = 0\n  7014: u64 [s1 + 680] = 0\n  7018: u64 [s1 + 672] = 0\n  7022: t0 = 0xe2\n  7026: a0 = 0x4e487b7100000000\n  7036: fallthrough\n      : @218 [@dyn 113] (gas: 4)\n  7037: a1 = s1 + 0x2a0\n  7041: u64 [s1 + 0x2b8] = a0\n  7045: a0 = 0\n  7047: ra = 228, jump @19\n      : @219 [@dyn 114] (gas: 7)\n  7053: u64 [s1 + 664] = 0\n  7057: u64 [s1 + 656] = 0\n  7061: u64 [s1 + 640] = 0x22\n  7066: a0 = 0x4\n  7069: a1 = s1 + 0x280\n  7073: u64 [s1 + 648] = 0\n  7077: ra = 230, jump @19\n      : @220 [@dyn 115] (gas: 2)\n  7083: a1 = i32 [0x2020c]\n  7088: jump @222 if a1 >u 63\n      : @221 (gas: 3)\n  7092: u32 [0x2020c] = 0x40\n  7098: a1 = 0x20220\n  7103: jump @223\n      : @222 (gas: 2)\n  7105: a1 = 0x20220\n  7110: fallthrough\n      : @223 (gas: 7)\n  7111: i32 a1 = a1 + 0\n  7113: a0 = 0x1\n  7116: a2 = 0x24\n  7119: ecalli 13 // 'seal_return'\n  7121: u64 [s1 + 0x118] = a0\n  7125: ra = 0xe8\n  7129: jump @34\n      : @224 (gas: 2)\n  7132: u64 [s1 + 0x118] = a0\n  7136: ra = 232, jump @34\n      : @225 [@dyn 116] (gas: 5)\n  7142: i32 a0 = a0 + 0\n  7144: a1 = 0\n  7146: a2 = 0\n  7148: ecalli 2 // 'call_data_copy'\n  7150: jump @15\n      : @226 (gas: 3)\n  7153: a0 = u64 [s1 + 0x118]\n  7157: a1 = 0\n  7159: ra = 234, jump @34\n      : @227 [@dyn 117] (gas: 5)\n  7165: i32 a1 = a0 + 0\n  7167: a0 = 0\n  7169: a2 = 0\n  7171: ecalli 13 // 'seal_return'\n  7173: jump @187\n      : @228 [@dyn 118] (gas: 4)\n  7176: a0 = 0x20208\n  7181: u64 [s1 + 0x158] = a0\n  7185: a0 = i32 [0x20208]\n  7190: jump @230 if a0 >=u 4\n      : @229 (gas: 1)\n  7194: jump @1371\n      : @230 (gas: 6)\n  7197: a0 = s1 + 0x3000\n  7201: i32 a0 = a0 + 0x220\n  7205: a1 = 0\n  7207: ra = 0xee\n  7211: ecalli 3 // 'call_data_load'\n  7213: fallthrough\n      : @231 [@dyn 119] (gas: 3)\n  7214: a2 = s1 + 0x30d8\n  7218: a0 = i32 [a2 + 0x164]\n  7222: jump @263 if a0 == 252243936\n      : @232 (gas: 1)\n  7230: jump @333 if a0 == 539899712\n      : @233 (gas: 1)\n  7238: jump @235 if a0 == 1173944960\n      : @234 (gas: 1)\n  7245: jump @501\n      : @235 (gas: 8)\n  7248: u64 [a2 + 1344] = 0\n  7252: u64 [a2 + 1336] = 0\n  7256: u64 [a2 + 1328] = 0\n  7260: u64 [a2 + 1320] = 0\n  7264: a0 = s1 + 0x3000\n  7268: i32 a0 = a0 + 0x600\n  7272: ecalli 16 // 'value_transferred'\n  7274: fallthrough\n      : @236 (gas: 10)\n  7275: a4 = s1 + 0x30d8\n  7279: a5 = a4 + 0x500\n  7283: a0 = u64 [a5 + 0x38]\n  7286: a1 = u64 [a5 + 0x40]\n  7289: a2 = u64 [a5 + 0x30]\n  7292: a3 = u64 [a5 + 0x28]\n  7295: a1 = a1 | a2\n  7298: a0 = a0 | a3\n  7301: a0 = a0 | a1\n  7304: jump @238 if a0 == 0\n      : @237 (gas: 1)\n  7307: jump @1213\n      : @238 (gas: 3)\n  7310: a0 = u64 [s1 + 0x158]\n  7314: a0 = i32 [a0]\n  7316: jump @240 if a0 >u 3\n      : @239 (gas: 1)\n  7320: jump @1214\n      : @240 (gas: 7)\n  7323: u64 [a4 + 1376] = 0\n  7327: u64 [a4 + 1368] = 0\n  7331: u64 [a4 + 1360] = 0\n  7335: u64 [a4 + 1352] = 0x7\n  7340: a0 = s1 + 0x1720\n  7344: a1 = s1 + 0x3620\n  7348: ra = 240, jump @21\n      : @241 [@dyn 120] (gas: 1)\n  7354: t0 = 242, jump @2002\n      : @242 [@dyn 121] (gas: 19)\n  7361: a1 = 0x30220\n  7366: a0 = 0x2020c\n  7371: u64 [s1 + 0x100] = a0\n  7375: a5 = s1 + 0x10d8\n  7379: a2 = a5 + 0x600\n  7383: a0 = u64 [a2 + 0x60]\n  7386: u64 [s1 + 0xf0] = a0\n  7390: a0 = u64 [a2 + 0x58]\n  7393: u64 [s1 + 0xe8] = a0\n  7397: a0 = u64 [a2 + 0x50]\n  7400: u64 [s1 + 0xe0] = a0\n  7404: a0 = u64 [a2 + 0x48]\n  7407: u64 [s1 + 0xd8] = a0\n  7411: u64 [s1 + 0xd0] = a1\n  7415: i32 a1 = a1 + 0\n  7417: u64 [s1 + 0xc8] = a1\n  7421: a0 = a4\n  7423: t0 = 0xf4\n  7427: jump @1999\n      : @243 (gas: 3)\n  7431: a0 = a4\n  7433: t0 = 0xf4\n  7437: jump @1999\n      : @244 (gas: 1)\n  7441: t0 = 244, jump @1999\n      : @245 [@dyn 122] (gas: 9)\n  7448: t0 = a0 <u a1\n  7451: a4 = u64 [s1 + 0xf0]\n  7455: a2 = ra ^ a4\n  7458: a4 = ra <u a4\n  7461: a4 = t0 if a2 == 0\n  7464: a1 = a1 ^ a0\n  7467: a1 = a1 | a2\n  7470: a4 = a3 if a1 == 0\n  7473: jump @361 if a4 == 0\n      : @246 (gas: 1)\n  7477: t0 = 246, jump @1975\n      : @247 [@dyn 123] (gas: 10)\n  7484: u64 [a5 + 0x228] = t1\n  7488: u64 [s1 + 0x150] = t2\n  7492: u64 [a5 + 0x230] = t2\n  7496: u64 [s1 + 0x140] = a1\n  7500: u64 [a5 + 0x238] = a1\n  7504: a1 = s1 + 0x1300\n  7508: u64 [s1 + 0x148] = ra\n  7512: u64 [a5 + 0x240] = ra\n  7516: a0 = 0\n  7518: ra = 248, jump @19\n      : @248 [@dyn 124] (gas: 9)\n  7524: a0 = s1 + 0x10d8\n  7528: u64 [a0 + 544] = 0\n  7532: u64 [a0 + 536] = 0\n  7536: u64 [a0 + 528] = 0\n  7540: a3 = a0\n  7542: a0 = 0x20\n  7545: a1 = s1 + 0x12e0\n  7549: u64 [a3 + 520] = 0xb\n  7554: ra = 250, jump @19\n      : @249 [@dyn 125] (gas: 4)\n  7560: a0 = u64 [s1 + 0xc8]\n  7564: ra = 0xfc\n  7568: ecalli 5 // 'caller'\n  7570: fallthrough\n      : @250 [@dyn 126] (gas: 3)\n  7571: a0 = u64 [s1 + 0x100]\n  7575: a0 = i32 [a0]\n  7577: jump @252 if a0 >=u 64\n      : @251 (gas: 4)\n  7581: a0 = u64 [s1 + 0x100]\n  7585: u32 [a0 + 0] = 0x40\n  7588: t0 = 0xfe\n  7592: jump @1926\n      : @252 (gas: 1)\n  7596: t0 = 254, jump @1926\n      : @253 [@dyn 127] (gas: 10)\n  7603: a0 = 0x20220\n  7608: i32 a0 = a0 + 0\n  7610: i32 a2 = a2 + 0\n  7612: a1 = 0x40\n  7615: u64 [s1 + 0x118] = a0\n  7619: ra = 0x100\n  7623: ecalli 9 // 'hash_keccak_256'\n  7625: a3 = u64 [s1 + 0x120]\n  7629: t0 = 0x102\n  7633: jump @1929\n      : @254 [@dyn 128] (gas: 2)\n  7637: a3 = u64 [s1 + 0x120]\n  7641: t0 = 258, jump @1929\n      : @255 [@dyn 129] (gas: 7)\n  7648: u64 [a5 + 0x68] = a3\n  7651: u64 [a5 + 0x70] = a2\n  7654: u64 [a5 + 0x78] = a4\n  7657: u64 [a5 + 0x80] = a0\n  7661: a0 = s1 + 0x12c0\n  7665: a1 = s1 + 0x3640\n  7669: ra = 260, jump @21\n      : @256 [@dyn 130] (gas: 5)\n  7675: a5 = s1 + 0x10d8\n  7679: a0 = u32 [a5 + 0x1f8]\n  7683: a1 = u64 [a5 + 0x1e8]\n  7687: a2 = u64 [a5 + 0x1f0]\n  7691: t0 = 262, jump @1941\n      : @257 [@dyn 131] (gas: 1)\n  7698: jump @244 if a1 != 0\n      : @258 (gas: 1)\n  7702: t0 = 264, jump @1986\n      : @259 [@dyn 132] (gas: 12)\n  7709: t0 = a1 + a0\n  7712: a1 = t0 <u a1\n  7715: a0 = u64 [s1 + 0x110]\n  7719: a0 = a0 + a1\n  7722: u64 [s1 + 0x110] = a0\n  7726: u64 [s1 + 0xf8] = a2\n  7730: a1 = a2 | a0\n  7733: u64 [s1 + 0x108] = a3\n  7737: a2 = a3 | t0\n  7740: a1 = a1 | a2\n  7743: u64 [s1 + 0xc0] = t0\n  7747: jump @243 if a1 != 0\n      : @260 (gas: 8)\n  7751: u64 [a5 + 472] = 0\n  7755: u64 [a5 + 464] = 0\n  7759: u64 [a5 + 456] = 0\n  7763: a0 = 0x4e487b7100000000\n  7773: a1 = s1 + 0x12a0\n  7777: u64 [a5 + 0x1e0] = a0\n  7781: a0 = 0\n  7783: ra = 266, jump @19\n      : @261 [@dyn 133] (gas: 3)\n  7789: t0 = 0x10c\n  7793: a1 = s1 + 0x10d8\n  7797: fallthrough\n      : @262 [@dyn 134] (gas: 9)\n  7798: u64 [a1 + 448] = 0\n  7802: u64 [a1 + 440] = 0\n  7806: u64 [a1 + 424] = 0x11\n  7811: a2 = a1\n  7813: a0 = 0x4\n  7816: a1 = s1 + 0x1280\n  7820: u64 [a2 + 432] = 0\n  7824: ra = 0x176\n  7828: jump @19\n      : @263 (gas: 8)\n  7831: u64 [a2 + 704] = 0\n  7835: u64 [a2 + 696] = 0\n  7839: u64 [a2 + 688] = 0\n  7843: u64 [a2 + 680] = 0\n  7847: a0 = s1 + 0x3000\n  7851: i32 a0 = a0 + 0x380\n  7855: ecalli 16 // 'value_transferred'\n  7857: fallthrough\n      : @264 (gas: 10)\n  7858: a4 = s1 + 0x30d8\n  7862: a5 = a4 + 0x200\n  7866: a0 = u64 [a5 + 0xb8]\n  7870: a1 = u64 [a5 + 0xc0]\n  7874: a2 = u64 [a5 + 0xb0]\n  7878: a3 = u64 [a5 + 0xa8]\n  7882: a1 = a1 | a2\n  7885: a0 = a0 | a3\n  7888: a0 = a0 | a1\n  7891: jump @266 if a0 == 0\n      : @265 (gas: 1)\n  7894: jump @1215\n      : @266 (gas: 3)\n  7897: a0 = u64 [s1 + 0x158]\n  7901: a0 = i32 [a0]\n  7903: jump @268 if a0 >u 3\n      : @267 (gas: 1)\n  7907: jump @1216\n      : @268 (gas: 8)\n  7910: u64 [a4 + 736] = 0\n  7914: u64 [a4 + 728] = 0\n  7918: u64 [a4 + 720] = 0\n  7922: u64 [a4 + 712] = 0x7\n  7927: a0 = s1 + 0x7ff\n  7931: a0 = a0 + 0x2e1\n  7935: a1 = s1 + 0x33a0\n  7939: ra = 270, jump @21\n      : @269 [@dyn 135] (gas: 21)\n  7945: a1 = s1 + 0x7ff\n  7949: a1 = a1 + 0xd9\n  7953: a2 = a1 + 0x200\n  7957: a0 = u64 [a2 + 0x20]\n  7960: u64 [s1 + 0xf0] = a0\n  7964: a0 = u64 [a2 + 0x18]\n  7967: u64 [s1 + 0xd8] = a0\n  7971: a0 = u64 [a2 + 0x10]\n  7974: u64 [s1 + 0xe8] = a0\n  7978: a0 = u64 [a2 + 0x8]\n  7981: u64 [s1 + 0xe0] = a0\n  7985: a0 = s1 + 0x30d8\n  7989: u64 [a0 + 768] = 0\n  7993: u64 [a0 + 760] = 0\n  7997: u64 [a0 + 752] = 0\n  8001: a1 = a0\n  8003: u64 [a1 + 744] = 0x8\n  8008: a0 = s1 + 0x7ff\n  8012: a0 = a0 + 0x2c1\n  8016: a1 = s1 + 0x33c0\n  8020: ra = 272, jump @21\n      : @270 [@dyn 136] (gas: 25)\n  8026: a0 = s1 + 0x7ff\n  8030: a0 = a0 + 0xd9\n  8034: t1 = u64 [a0 + 0x200]\n  8038: t2 = u64 [a0 + 0x1f8]\n  8042: t0 = u64 [a0 + 0x1f0]\n  8046: a1 = u64 [a0 + 0x1e8]\n  8050: a0 = u64 [s1 + 0xf0]\n  8054: a4 = a0 ^ t1\n  8057: a5 = a0 <u t1\n  8060: a2 = u64 [s1 + 0xd8]\n  8064: a0 = a2 <u t2\n  8067: u64 [s1 + 0x150] = a0\n  8071: a5 = a0 if a4 == 0\n  8074: a0 = u64 [s1 + 0xe8]\n  8078: ra = a0 ^ t0\n  8081: a0 = a0 <u t0\n  8084: u64 [s1 + 0x158] = a1\n  8088: a3 = u64 [s1 + 0xe0]\n  8092: a1 = a3 <u a1\n  8095: a0 = a1 if ra == 0\n  8098: ra = a1\n  8100: a1 = a2 ^ t2\n  8103: a1 = a1 | a4\n  8106: a5 = a0 if a1 == 0\n  8109: jump @272 if a5 == 0\n      : @271 (gas: 1)\n  8112: jump @1217\n      : @272 (gas: 28)\n  8115: a1 = a2 - t2\n  8118: a2 = u64 [s1 + 0xf0]\n  8122: a2 = a2 - t1\n  8125: a3 = u64 [s1 + 0x150]\n  8129: a2 = a2 - a3\n  8132: a3 = a1 <u a0\n  8135: a2 = a2 - a3\n  8138: a1 = a1 - a0\n  8141: a0 = u64 [s1 + 0xe8]\n  8145: a0 = a0 - t0\n  8148: a0 = a0 - ra\n  8151: a3 = 0xffffffff\n  8161: u64 [s1 + 0x78] = a3\n  8164: a3 = u64 [s1 + 0xe0]\n  8168: a4 = u64 [s1 + 0x158]\n  8172: a3 = a3 - a4\n  8175: a4 = s1 + 0x7ff\n  8179: a4 = a4 + 0xd9\n  8183: a5 = a4 + 0x100\n  8187: u64 [a5 + 0xa8] = a3\n  8191: u64 [a5 + 0xb0] = a0\n  8195: u64 [a5 + 0xb8] = a1\n  8199: a0 = s1 + 0x7ff\n  8203: a0 = a0 + 0x2a1\n  8207: a1 = s1 + 0x7ff\n  8211: a1 = a1 + 0x281\n  8215: u64 [a5 + 0xc0] = a2\n  8219: ra = 274, jump @1575\n      : @273 [@dyn 137] (gas: 23)\n  8226: t2 = 0\n  8228: u64 [s1 + 192] = 0\n  8232: t0 = 0\n  8234: a4 = 0\n  8236: a2 = 0\n  8238: a3 = 0\n  8240: ra = 0\n  8242: t1 = 0\n  8244: a5 = s1 + 0x7ff\n  8248: a5 = a5 + 0xd9\n  8252: a0 = u64 [a5 + 0x1e0]\n  8256: u64 [s1 + 0x98] = a0\n  8260: a1 = 0x100000000\n  8270: a0 = u64 [a5 + 0x1d8]\n  8274: u64 [s1 + 0x80] = a0\n  8278: a0 = u64 [a5 + 0x1d0]\n  8282: u64 [s1 + 0x88] = a0\n  8286: a0 = u64 [a5 + 0x1c8]\n  8290: u64 [s1 + 0x90] = a0\n  8294: u64 [s1 + 0xa0] = a1\n  8298: a1 = 0xffffffe0\n  8308: u64 [s1 + 0x70] = a1\n  8311: fallthrough\n      : @274 (gas: 19)\n  8312: u64 [s1 + 0x148] = a4\n  8316: u64 [s1 + 0x150] = t0\n  8320: u64 [s1 + 0x158] = t2\n  8324: a0 = u64 [s1 + 0xe0]\n  8328: a1 = a2 <u a0\n  8331: a0 = u64 [s1 + 0xe8]\n  8335: a4 = a3 ^ a0\n  8338: t2 = a3 <u a0\n  8341: t2 = a1 if a4 == 0\n  8344: a1 = u64 [s1 + 0xd8]\n  8348: a0 = ra <u a1\n  8351: a4 = u64 [s1 + 0xf0]\n  8355: t0 = t1 ^ a4\n  8358: a4 = t1 <u a4\n  8361: a4 = a0 if t0 == 0\n  8364: a1 = ra ^ a1\n  8367: a1 = a1 | t0\n  8370: a4 = t2 if a1 == 0\n  8373: jump @276 if a4 != 0\n      : @275 (gas: 1)\n  8376: jump @483\n      : @276 (gas: 21)\n  8379: a2 = a2 + 0x1\n  8382: a1 = a2 <u 0x1\n  8385: a3 = a3 + a1\n  8388: a1 = a2 | a3\n  8391: a1 = a1 <u 0x1\n  8394: a1 = a1 + ra\n  8397: a0 = a1 <u ra\n  8400: t1 = t1 + a0\n  8403: u64 [s1 + 0x140] = a2\n  8407: a0 = a5 + 0x100\n  8411: u64 [a0 + 0x8] = a2\n  8414: u64 [s1 + 0x138] = a3\n  8418: u64 [a0 + 0x10] = a3\n  8421: u64 [s1 + 0x128] = a1\n  8425: u64 [a0 + 0x18] = a1\n  8428: a1 = s1 + 0x7ff\n  8432: a1 = a1 + 0x1e1\n  8436: u64 [s1 + 0x130] = t1\n  8440: u64 [a5 + 0x120] = t1\n  8444: a0 = 0\n  8446: ra = 276, jump @19\n      : @277 [@dyn 138] (gas: 11)\n  8452: a0 = s1 + 0x7ff\n  8456: a0 = a0 + 0xd9\n  8460: u64 [a0 + 256] = 0\n  8464: u64 [a0 + 248] = 0\n  8468: u64 [a0 + 240] = 0\n  8472: a3 = a0\n  8474: a0 = 0x20\n  8477: a1 = s1 + 0x7ff\n  8481: a1 = a1 + 0x1c1\n  8485: u64 [a3 + 232] = 0xb\n  8490: ra = 278, jump @19\n      : @278 [@dyn 139] (gas: 6)\n  8496: a0 = 0x30220\n  8501: u64 [s1 + 0x120] = a0\n  8505: i32 a0 = a0 + 0\n  8507: ra = 0x118\n  8511: ecalli 0 // 'address'\n  8512: fallthrough\n      : @279 [@dyn 140] (gas: 3)\n  8513: a2 = 0x2020c\n  8518: a0 = i32 [0x2020c]\n  8523: jump @281 if a0 >=u 64\n      : @280 (gas: 2)\n  8527: u32 [0x2020c] = 0x40\n  8533: fallthrough\n      : @281 (gas: 3)\n  8534: u64 [s1 + 0x100] = a2\n  8538: a2 = u64 [s1 + 0x120]\n  8542: t0 = 282, jump @1911\n      : @282 [@dyn 141] (gas: 9)\n  8549: a0 = 0x20220\n  8554: i32 a0 = a0 + 0\n  8556: i32 a2 = a2 + 0\n  8558: a1 = 0x40\n  8561: u64 [s1 + 0xf8] = a0\n  8565: ra = 0x11c\n  8569: ecalli 9 // 'hash_keccak_256'\n  8571: t0 = 0x11e\n  8575: jump @1924\n      : @283 [@dyn 142] (gas: 1)\n  8579: t0 = 286, jump @1924\n      : @284 [@dyn 143] (gas: 9)\n  8586: a3 = a1 + 0x300\n  8590: u64 [a3 + 0x8] = a4\n  8593: u64 [a3 + 0x10] = a5\n  8596: u64 [a3 + 0x18] = a2\n  8599: u64 [a3 + 0x20] = a0\n  8602: a0 = s1 + 0x7ff\n  8606: a0 = a0 + 0x1a1\n  8610: a1 = s1 + 0x33e0\n  8614: ra = 288, jump @21\n      : @285 [@dyn 144] (gas: 22)\n  8620: a5 = s1 + 0x7ff\n  8624: a5 = a5 + 0xd9\n  8628: a0 = u32 [a5 + 0xd8]\n  8632: a1 = u64 [a5 + 0xc8]\n  8636: a2 = u64 [a5 + 0xd0]\n  8640: a3 = u64 [s1 + 0x110]\n  8644: a0 = a0 ^ a3\n  8647: a3 = u64 [s1 + 0x118]\n  8651: a1 = a1 ^ a3\n  8654: a0 = a0 | a1\n  8657: a1 = u64 [s1 + 0x120]\n  8661: a1 = a1 ^ a2\n  8664: a1 = a1 | a0\n  8667: a0 = u64 [s1 + 0x128]\n  8671: ra = a0\n  8673: t2 = u64 [s1 + 0x158]\n  8677: t0 = u64 [s1 + 0x150]\n  8681: a4 = u64 [s1 + 0x148]\n  8685: a2 = u64 [s1 + 0x140]\n  8689: a3 = u64 [s1 + 0x138]\n  8693: t1 = u64 [s1 + 0x130]\n  8697: jump @274 if a1 != 0\n      : @286 (gas: 8)\n  8701: u64 [a5 + 0xa8] = a2\n  8705: u64 [a5 + 0xb0] = a3\n  8709: u64 [a5 + 0xb8] = a0\n  8713: a1 = s1 + 0x7ff\n  8717: a1 = a1 + 0x181\n  8721: u64 [a5 + 0xc0] = t1\n  8725: a0 = 0\n  8727: ra = 290, jump @19\n      : @287 [@dyn 145] (gas: 11)\n  8733: a0 = s1 + 0x7ff\n  8737: a0 = a0 + 0xd9\n  8741: u64 [a0 + 160] = 0\n  8745: u64 [a0 + 152] = 0\n  8749: u64 [a0 + 144] = 0\n  8753: a3 = a0\n  8755: a0 = 0x20\n  8758: a1 = s1 + 0x7ff\n  8762: a1 = a1 + 0x161\n  8766: u64 [a3 + 136] = 0xb\n  8771: ra = 292, jump @19\n      : @288 [@dyn 146] (gas: 7)\n  8777: a0 = sp + 0xffffffffffffffe0\n  8780: a0 = a0 & 0xffffffffffffffe0\n  8783: u64 [s1 + 0xa8] = a0\n  8787: sp = a0\n  8789: a2 = u64 [s1 + 0x100]\n  8793: a0 = i32 [a2]\n  8795: jump @290 if a0 >u 63\n      : @289 (gas: 3)\n  8799: u32 [a2 + 0] = 0x40\n  8802: t0 = 0x126\n  8806: jump @1952\n      : @290 (gas: 1)\n  8810: t0 = 294, jump @1952\n      : @291 [@dyn 147] (gas: 23)\n  8817: ecalli 9 // 'hash_keccak_256'\n  8819: a3 = u64 [s1 + 0x120]\n  8823: a0 = u64 [a3 + 0x18]\n  8826: a1 = u64 [a3 + 0x10]\n  8829: a2 = u64 [a3 + 0x8]\n  8832: a3 = u64 [a3]\n  8834: a5 = reverse a0\n  8836: a4 = reverse a1\n  8838: a0 = reverse a2\n  8840: a1 = reverse a3\n  8842: u64 [s1 + 0x108] = a1\n  8846: a2 = u64 [s1 + 0xa8]\n  8850: u64 [a2 + 0x18] = a1\n  8853: u64 [s1 + 0x110] = a0\n  8857: u64 [a2 + 0x10] = a0\n  8860: u64 [s1 + 0xd0] = a4\n  8864: u64 [a2 + 0x8] = a4\n  8867: u64 [s1 + 0xc8] = a5\n  8871: u64 [a2] = a5\n  8873: a0 = s1 + 0x7ff\n  8877: a0 = a0 + 0x141\n  8881: a1 = 0x40\n  8884: ra = 296, jump @17\n      : @292 [@dyn 148] (gas: 17)\n  8890: a1 = s1 + 0x7ff\n  8894: a1 = a1 + 0xd9\n  8898: a0 = u64 [a1 + 0x80]\n  8902: u64 [s1 + 0xb8] = a0\n  8906: a3 = u64 [a1 + 0x78]\n  8909: u64 [s1 + 0xb0] = a3\n  8913: a2 = u64 [a1 + 0x70]\n  8916: u64 [s1 + 0x118] = a2\n  8920: a4 = u64 [a1 + 0x68]\n  8923: u64 [s1 + 0x120] = a4\n  8927: u64 [a1 + 0x60] = a0\n  8930: u64 [a1 + 0x58] = a3\n  8933: u64 [a1 + 0x50] = a2\n  8936: a0 = s1 + 0x7ff\n  8940: a0 = a0 + 0x121\n  8944: u64 [a1 + 0x48] = a4\n  8947: ra = 298, jump @1511\n      : @293 [@dyn 149] (gas: 4)\n  8953: a0 = s1 + 0x7ff\n  8957: a0 = a0 + 0x101\n  8961: a1 = u64 [s1 + 0xa8]\n  8965: ra = 300, jump @21\n      : @294 [@dyn 150] (gas: 3)\n  8971: a2 = u64 [s1 + 0xb0]\n  8975: a0 = u64 [s1 + 0xb8]\n  8979: t0 = 302, jump @1956\n      : @295 [@dyn 151] (gas: 1)\n  8986: jump @297 if a0 == 0\n      : @296 (gas: 1)\n  8989: jump @500\n      : @297 (gas: 14)\n  8992: a4 = s1 + 0x7ff\n  8996: a4 = a4 + 0xd9\n  9000: a0 = u64 [a4 + 0x40]\n  9003: a1 = u64 [a4 + 0x38]\n  9006: a2 = u64 [a4 + 0x30]\n  9009: a3 = u64 [a4 + 0x28]\n  9012: u64 [a4 + 0x8] = a3\n  9015: u64 [a4 + 0x10] = a2\n  9018: u64 [a4 + 0x18] = a1\n  9021: a1 = s1 + 0x7ff\n  9025: a1 = a1 + 0xe1\n  9029: u64 [a4 + 0x20] = a0\n  9032: a0 = u64 [s1 + 0x120]\n  9036: ra = 304, jump @19\n      : @298 [@dyn 152] (gas: 5)\n  9042: a0 = u64 [s1 + 0xc8]\n  9046: a0 = a0 + 0x1\n  9049: a1 = a0 <u 0x1\n  9052: a2 = u64 [s1 + 0xd0]\n  9056: t0 = 306, jump @1928\n      : @299 [@dyn 153] (gas: 9)\n  9063: a5 = a4 + 0x300\n  9067: u64 [a5 + 0x30] = a1\n  9070: u64 [a5 + 0x28] = a0\n  9073: u64 [a5 + 0x38] = a2\n  9076: u64 [a5 + 0x40] = a3\n  9079: a0 = s1 + 0x7ff\n  9083: a0 = a0 + 0xc1\n  9087: a1 = s1 + 0x3400\n  9091: ra = 308, jump @21\n      : @300 [@dyn 154] (gas: 11)\n  9097: a0 = u64 [s1 + 0xb0]\n  9101: a1 = u64 [s1 + 0xb8]\n  9105: a1 = a1 | a0\n  9108: a0 = u64 [s1 + 0x70]\n  9111: a2 = u64 [s1 + 0x120]\n  9115: a0 = a2 <u a0\n  9118: a2 = u64 [s1 + 0x118]\n  9122: a0 = 0 if a2 != 0\n  9124: u64 [s1 + 0xa8] = a1\n  9128: a0 = 0 if a1 != 0\n  9130: jump @302 if a0 != 0\n      : @301 (gas: 1)\n  9133: jump @500\n      : @302 (gas: 9)\n  9136: a0 = s1 + 0x7ff\n  9140: a0 = a0 + 0xd9\n  9144: a0 = u64 [a0 + 0xfffffffffffffff8]\n  9147: a1 = s1 + 0x1000\n  9151: a1 = u64 [a1 + 0xfffffffffffff8c8]\n  9155: a2 = s1 + 0x1000\n  9159: a2 = u64 [a2 + 0xfffffffffffff8c0]\n  9163: a3 = u64 [s1 + 0x78]\n  9166: t0 = 310, jump @1980\n      : @303 [@dyn 155] (gas: 11)\n  9173: a4 = s1 + 0x1000\n  9177: u64 [a4 + 4294965432] = 0\n  9181: a4 = s1 + 0x1000\n  9185: u64 [a4 + 0xfffffffffffff8a0] = a2\n  9189: a2 = s1 + 0x1000\n  9193: u64 [a2 + 0xfffffffffffff8a8] = a1\n  9197: a1 = s1 + 0x7ff\n  9201: a1 = a1 + 0xa1\n  9205: a2 = s1 + 0x1000\n  9209: u64 [a2 + 0xfffffffffffff8b0] = a3\n  9213: ra = 312, jump @19\n      : @304 [@dyn 156] (gas: 3)\n  9219: a1 = u64 [s1 + 0xc8]\n  9223: a0 = a1 + 0x2\n  9226: t0 = 314, jump @1917\n      : @305 [@dyn 157] (gas: 8)\n  9233: u64 [a5 + 0x50] = a2\n  9236: u64 [a5 + 0x48] = a0\n  9239: u64 [a5 + 0x58] = a3\n  9242: u64 [a5 + 0x60] = a1\n  9245: a0 = s1 + 0x7ff\n  9249: a0 = a0 + 0x81\n  9253: a1 = s1 + 0x3420\n  9257: ra = 316, jump @21\n      : @306 [@dyn 158] (gas: 3)\n  9263: a0 = u64 [s1 + 0xa0]\n  9267: a0 = a0 + 0xffffffffffffffc0\n  9270: t0 = 318, jump @1951\n      : @307 [@dyn 159] (gas: 1)\n  9277: jump @309 if a0 != 0\n      : @308 (gas: 1)\n  9280: jump @500\n      : @309 (gas: 8)\n  9283: a0 = s1 + 0x1000\n  9287: a0 = u64 [a0 + 0xfffffffffffff890]\n  9291: a1 = s1 + 0x1000\n  9295: a1 = u64 [a1 + 0xfffffffffffff888]\n  9299: a2 = s1 + 0x1000\n  9303: a2 = u64 [a2 + 0xfffffffffffff880]\n  9307: a3 = u64 [s1 + 0x78]\n  9310: t0 = 320, jump @1981\n      : @310 [@dyn 160] (gas: 11)\n  9317: a4 = s1 + 0x1000\n  9321: u64 [a4 + 4294965368] = 0\n  9325: a4 = s1 + 0x1000\n  9329: u64 [a4 + 0xfffffffffffff860] = a2\n  9333: a2 = s1 + 0x1000\n  9337: u64 [a2 + 0xfffffffffffff868] = a1\n  9341: a1 = s1 + 0x7ff\n  9345: a1 = a1 + 0x61\n  9348: a2 = s1 + 0x1000\n  9352: u64 [a2 + 0xfffffffffffff870] = a3\n  9356: ra = 322, jump @19\n      : @311 [@dyn 161] (gas: 3)\n  9362: a1 = u64 [s1 + 0xc8]\n  9366: a0 = a1 + 0x3\n  9369: t0 = 324, jump @1917\n      : @312 [@dyn 162] (gas: 8)\n  9376: u64 [a5 + 0x70] = a2\n  9379: u64 [a5 + 0x68] = a0\n  9382: u64 [a5 + 0x78] = a3\n  9385: u64 [a5 + 0x80] = a1\n  9389: a0 = s1 + 0x7ff\n  9393: a0 = a0 + 0x41\n  9396: a1 = s1 + 0x3440\n  9400: ra = 326, jump @21\n      : @313 [@dyn 163] (gas: 3)\n  9406: a0 = u64 [s1 + 0xa0]\n  9410: a0 = a0 + 0xffffffffffffffa0\n  9413: t0 = 328, jump @1951\n      : @314 [@dyn 164] (gas: 1)\n  9420: jump @316 if a0 != 0\n      : @315 (gas: 1)\n  9423: jump @500\n      : @316 (gas: 21)\n  9426: a0 = s1 + 0x1000\n  9430: a2 = u64 [a0 + 0xfffffffffffff858]\n  9434: a0 = s1 + 0x1000\n  9438: a1 = u64 [a0 + 0xfffffffffffff850]\n  9442: a0 = s1 + 0x1000\n  9446: a3 = u64 [a0 + 0xfffffffffffff848]\n  9450: a0 = s1 + 0x1000\n  9454: a4 = u64 [a0 + 0xfffffffffffff840]\n  9458: a0 = u64 [s1 + 0x120]\n  9462: i32 a0 = a0 + 0x60\n  9465: a5 = s1 + 0x1000\n  9469: u64 [a5 + 0xfffffffffffff820] = a4\n  9473: a4 = s1 + 0x1000\n  9477: u64 [a4 + 0xfffffffffffff828] = a3\n  9481: a3 = s1 + 0x1000\n  9485: u64 [a3 + 0xfffffffffffff830] = a1\n  9489: a1 = s1 + 0x7ff\n  9493: a1 = a1 + 0x21\n  9496: a3 = s1 + 0x1000\n  9500: u64 [a3 + 0xfffffffffffff838] = a2\n  9504: ra = 330, jump @19\n      : @317 [@dyn 165] (gas: 3)\n  9510: a1 = u64 [s1 + 0xc8]\n  9514: a0 = a1 + 0x4\n  9517: t0 = 332, jump @1917\n      : @318 [@dyn 166] (gas: 8)\n  9524: u64 [a5 + 0x90] = a2\n  9528: u64 [a5 + 0x88] = a0\n  9532: u64 [a5 + 0x98] = a3\n  9536: u64 [a5 + 0xa0] = a1\n  9540: a0 = s1 + 0x7ff\n  9544: a0 = a0 + 0x1\n  9547: a1 = s1 + 0x3460\n  9551: ra = 334, jump @21\n      : @319 [@dyn 167] (gas: 3)\n  9557: a0 = u64 [s1 + 0xa0]\n  9561: a0 = a0 + 0xffffffffffffff80\n  9564: t0 = 336, jump @1951\n      : @320 [@dyn 168] (gas: 1)\n  9571: jump @322 if a0 != 0\n      : @321 (gas: 1)\n  9574: jump @500\n      : @322 (gas: 3)\n  9577: a0 = s1 + 0x1000\n  9581: a0 = u64 [a0 + 0xfffffffffffff800]\n  9585: t0 = 338, jump @1990\n      : @323 [@dyn 169] (gas: 6)\n  9592: u64 [s1 + 2040] = 0\n  9596: u64 [s1 + 2032] = 0\n  9600: u64 [s1 + 0x7e0] = a1\n  9604: a1 = s1 + 0x7e0\n  9608: u64 [s1 + 2024] = 0\n  9612: ra = 340, jump @19\n      : @324 [@dyn 170] (gas: 21)\n  9618: a1 = s1 + 0x100\n  9622: a0 = u64 [a1 + 0x58]\n  9625: u64 [s1 + 0x798] = a0\n  9629: a0 = u64 [s1 + 0xc0]\n  9633: u64 [s1 + 0x790] = a0\n  9637: a0 = u64 [a1 + 0x50]\n  9640: u64 [s1 + 0x788] = a0\n  9644: a0 = u64 [a1 + 0x48]\n  9647: u64 [s1 + 0x780] = a0\n  9651: a0 = u64 [s1 + 0x98]\n  9655: u64 [s1 + 0x7b8] = a0\n  9659: a0 = u64 [s1 + 0x80]\n  9663: u64 [s1 + 0x7b0] = a0\n  9667: a0 = u64 [s1 + 0x88]\n  9671: u64 [s1 + 0x7a8] = a0\n  9675: a0 = s1 + 0x7c0\n  9679: a1 = s1 + 0x7a0\n  9683: a2 = s1 + 0x780\n  9687: a3 = u64 [s1 + 0x90]\n  9691: u64 [s1 + 0x7a0] = a3\n  9695: ra = 342, jump @1606\n      : @325 [@dyn 171] (gas: 6)\n  9702: a4 = s1 + 0x700\n  9706: a1 = u64 [a4 + 0xd8]\n  9710: a2 = u64 [a4 + 0xd0]\n  9714: a3 = u64 [a4 + 0xc8]\n  9718: a0 = u64 [a4 + 0xc0]\n  9722: t0 = 344, jump @1988\n      : @326 [@dyn 172] (gas: 1)\n  9729: jump @328 if a1 == 0\n      : @327 (gas: 1)\n  9732: jump @500\n      : @328 (gas: 10)\n  9735: a1 = u64 [s1 + 0x120]\n  9739: u64 [s1 + 0x760] = a1\n  9743: a1 = u64 [s1 + 0x118]\n  9747: u64 [s1 + 0x768] = a1\n  9751: a1 = u64 [s1 + 0xb0]\n  9755: u64 [s1 + 0x770] = a1\n  9759: a1 = s1 + 0x760\n  9763: a2 = u64 [s1 + 0xb8]\n  9767: u64 [s1 + 0x778] = a2\n  9771: ra = 346, jump @19\n      : @329 [@dyn 173] (gas: 21)\n  9777: a0 = u64 [s1 + 0x158]\n  9781: a4 = s1 + 0x700\n  9785: u64 [a4 + 0x18] = a0\n  9788: a0 = u64 [s1 + 0xc0]\n  9792: u64 [a4 + 0x10] = a0\n  9795: a0 = u64 [s1 + 0x150]\n  9799: u64 [a4 + 0x8] = a0\n  9802: a0 = u64 [s1 + 0x148]\n  9806: u64 [a4] = a0\n  9808: a0 = u64 [s1 + 0x98]\n  9812: u64 [a4 + 0x38] = a0\n  9815: a0 = u64 [s1 + 0x80]\n  9819: u64 [a4 + 0x30] = a0\n  9822: a0 = u64 [s1 + 0x88]\n  9826: u64 [a4 + 0x28] = a0\n  9829: a0 = s1 + 0x740\n  9833: a1 = s1 + 0x720\n  9837: a2 = s1 + 0x700\n  9841: a3 = u64 [s1 + 0x90]\n  9845: u64 [a4 + 0x20] = a3\n  9848: ra = 348, jump @1606\n      : @330 [@dyn 174] (gas: 16)\n  9855: a4 = u64 [s1 + 0x148]\n  9859: a4 = a4 + 0x1\n  9862: a0 = a4 <u 0x1\n  9865: t0 = u64 [s1 + 0x150]\n  9869: t0 = t0 + a0\n  9872: a0 = a4 | t0\n  9875: a0 = a0 <u 0x1\n  9878: a1 = u64 [s1 + 0xc0]\n  9882: a0 = a0 + a1\n  9885: a1 = a0 <u a1\n  9888: t2 = u64 [s1 + 0x158]\n  9892: t2 = t2 + a1\n  9895: a1 = t0 | t2\n  9898: a2 = a4 | a0\n  9901: a1 = a1 | a2\n  9904: jump @332 if a1 != 0\n      : @331 (gas: 1)\n  9907: jump @546\n      : @332 (gas: 8)\n  9910: u64 [s1 + 0xc0] = a0\n  9914: ra = u64 [s1 + 0x128]\n  9918: a5 = s1 + 0x7ff\n  9922: a5 = a5 + 0xd9\n  9926: a2 = u64 [s1 + 0x140]\n  9930: a3 = u64 [s1 + 0x138]\n  9934: t1 = u64 [s1 + 0x130]\n  9938: jump @274\n      : @333 (gas: 8)\n  9941: u64 [a2 + 1024] = 0\n  9945: u64 [a2 + 1016] = 0\n  9949: u64 [a2 + 1008] = 0\n  9953: u64 [a2 + 1000] = 0\n  9957: a0 = s1 + 0x3000\n  9961: i32 a0 = a0 + 0x4c0\n  9965: ecalli 16 // 'value_transferred'\n  9967: fallthrough\n      : @334 (gas: 10)\n  9968: a4 = s1 + 0x30d8\n  9972: a5 = a4 + 0x300\n  9976: a0 = u64 [a5 + 0xf8]\n  9980: a1 = u64 [a4 + 0x400]\n  9984: a2 = u64 [a5 + 0xf0]\n  9988: a3 = u64 [a5 + 0xe8]\n  9992: a1 = a1 | a2\n  9995: a0 = a0 | a3\n  9998: a0 = a0 | a1\n 10001: jump @336 if a0 == 0\n      : @335 (gas: 1)\n 10004: jump @1224\n      : @336 (gas: 3)\n 10007: a0 = u64 [s1 + 0x158]\n 10011: a0 = i32 [a0]\n 10013: jump @338 if a0 >u 3\n      : @337 (gas: 1)\n 10017: jump @1225\n      : @338 (gas: 7)\n 10020: u64 [a4 + 1056] = 0\n 10024: u64 [a4 + 1048] = 0\n 10028: u64 [a4 + 1040] = 0\n 10032: u64 [a4 + 1032] = 0x7\n 10037: a0 = s1 + 0x1000\n 10041: a1 = s1 + 0x34e0\n 10045: ra = 350, jump @21\n      : @339 [@dyn 175] (gas: 1)\n 10051: t0 = 352, jump @2002\n      : @340 [@dyn 176] (gas: 20)\n 10058: a1 = 0x30220\n 10063: a0 = 0x2020c\n 10068: u64 [s1 + 0x100] = a0\n 10072: a5 = s1 + 0x7ff\n 10076: a5 = a5 + 0xd9\n 10080: a2 = a5 + 0x700\n 10084: a0 = u64 [a2 + 0x40]\n 10087: u64 [s1 + 0xf0] = a0\n 10091: a0 = u64 [a2 + 0x38]\n 10094: u64 [s1 + 0xe8] = a0\n 10098: a0 = u64 [a2 + 0x30]\n 10101: u64 [s1 + 0xe0] = a0\n 10105: a0 = u64 [a2 + 0x28]\n 10108: u64 [s1 + 0xd8] = a0\n 10112: u64 [s1 + 0xd0] = a1\n 10116: i32 a1 = a1 + 0\n 10118: u64 [s1 + 0xc8] = a1\n 10122: a0 = a4\n 10124: t0 = 0x162\n 10128: jump @1999\n      : @341 (gas: 3)\n 10132: a0 = a4\n 10134: t0 = 0x162\n 10138: jump @1999\n      : @342 (gas: 1)\n 10142: t0 = 354, jump @1999\n      : @343 [@dyn 177] (gas: 9)\n 10149: t0 = a0 <u a1\n 10152: a4 = u64 [s1 + 0xf0]\n 10156: a2 = ra ^ a4\n 10159: a4 = ra <u a4\n 10162: a4 = t0 if a2 == 0\n 10165: a1 = a1 ^ a0\n 10168: a1 = a1 | a2\n 10171: a4 = a3 if a1 == 0\n 10174: jump @422 if a4 == 0\n      : @344 (gas: 1)\n 10178: t0 = 356, jump @1975\n      : @345 [@dyn 178] (gas: 11)\n 10185: u64 [a5 + 0x308] = t1\n 10189: u64 [s1 + 0x150] = t2\n 10193: u64 [a5 + 0x310] = t2\n 10197: u64 [s1 + 0x140] = a1\n 10201: u64 [a5 + 0x318] = a1\n 10205: a1 = s1 + 0x7ff\n 10209: a1 = a1 + 0x3e1\n 10213: u64 [s1 + 0x148] = ra\n 10217: u64 [a5 + 0x320] = ra\n 10221: a0 = 0\n 10223: ra = 358, jump @19\n      : @346 [@dyn 179] (gas: 11)\n 10229: a0 = s1 + 0x7ff\n 10233: a0 = a0 + 0xd9\n 10237: u64 [a0 + 768] = 0\n 10241: u64 [a0 + 760] = 0\n 10245: u64 [a0 + 752] = 0\n 10249: a3 = a0\n 10251: a0 = 0x20\n 10254: a1 = s1 + 0x7ff\n 10258: a1 = a1 + 0x3c1\n 10262: u64 [a3 + 744] = 0xb\n 10267: ra = 360, jump @19\n      : @347 [@dyn 180] (gas: 4)\n 10273: a0 = u64 [s1 + 0xc8]\n 10277: ra = 0x16a\n 10281: ecalli 5 // 'caller'\n 10283: fallthrough\n      : @348 [@dyn 181] (gas: 3)\n 10284: a0 = u64 [s1 + 0x100]\n 10288: a0 = i32 [a0]\n 10290: jump @350 if a0 >=u 64\n      : @349 (gas: 4)\n 10294: a0 = u64 [s1 + 0x100]\n 10298: u32 [a0 + 0] = 0x40\n 10301: t0 = 0x16c\n 10305: jump @1926\n      : @350 (gas: 1)\n 10309: t0 = 364, jump @1926\n      : @351 [@dyn 182] (gas: 33)\n 10316: a0 = 0x20220\n 10321: i32 a0 = a0 + 0\n 10323: i32 a2 = a2 + 0\n 10325: a1 = 0x40\n 10328: u64 [s1 + 0x118] = a0\n 10332: ecalli 9 // 'hash_keccak_256'\n 10334: a3 = u64 [s1 + 0x120]\n 10338: a0 = u64 [a3]\n 10340: a1 = u64 [a3 + 0x8]\n 10343: a2 = u64 [a3 + 0x10]\n 10346: a3 = u64 [a3 + 0x18]\n 10349: a0 = reverse a0\n 10351: a1 = reverse a1\n 10353: a2 = reverse a2\n 10355: a3 = reverse a3\n 10357: a4 = a3 + 0x2\n 10360: a3 = a4 <u a3\n 10363: a5 = a2 + a3\n 10366: a2 = a5 <u a2\n 10369: a2 = a3 if a3 == 0\n 10372: a2 = a2 + a1\n 10375: a1 = a2 <u a1\n 10378: a0 = a0 + a1\n 10381: a1 = s1 + 0x30d8\n 10385: a3 = a1 + 0x400\n 10389: u64 [a3 + 0x28] = a4\n 10392: u64 [a3 + 0x30] = a5\n 10395: u64 [a3 + 0x38] = a2\n 10398: u64 [a3 + 0x40] = a0\n 10401: a0 = s1 + 0x7ff\n 10405: a0 = a0 + 0x3a1\n 10409: a1 = s1 + 0x3500\n 10413: ra = 366, jump @21\n      : @352 [@dyn 183] (gas: 6)\n 10419: a5 = s1 + 0x7ff\n 10423: a5 = a5 + 0xd9\n 10427: a0 = u32 [a5 + 0x2d8]\n 10431: a1 = u64 [a5 + 0x2c8]\n 10435: a2 = u64 [a5 + 0x2d0]\n 10439: t0 = 368, jump @1941\n      : @353 [@dyn 184] (gas: 1)\n 10446: jump @342 if a1 != 0\n      : @354 (gas: 1)\n 10450: t0 = 370, jump @1986\n      : @355 [@dyn 185] (gas: 12)\n 10457: t0 = a1 + a0\n 10460: a1 = t0 <u a1\n 10463: a0 = u64 [s1 + 0x110]\n 10467: a0 = a0 + a1\n 10470: u64 [s1 + 0x110] = a0\n 10474: u64 [s1 + 0xf8] = a2\n 10478: a1 = a2 | a0\n 10481: u64 [s1 + 0x108] = a3\n 10485: a2 = a3 | t0\n 10488: a1 = a1 | a2\n 10491: u64 [s1 + 0xc0] = t0\n 10495: jump @341 if a1 != 0\n      : @356 (gas: 9)\n 10499: u64 [a5 + 696] = 0\n 10503: u64 [a5 + 688] = 0\n 10507: u64 [a5 + 680] = 0\n 10511: a0 = 0x4e487b7100000000\n 10521: a1 = s1 + 0x7ff\n 10525: a1 = a1 + 0x381\n 10529: u64 [a5 + 0x2c0] = a0\n 10533: a0 = 0\n 10535: ra = 372, jump @19\n      : @357 [@dyn 186] (gas: 11)\n 10541: a1 = s1 + 0x7ff\n 10545: a1 = a1 + 0xd9\n 10549: u64 [a1 + 672] = 0\n 10553: u64 [a1 + 664] = 0\n 10557: u64 [a1 + 648] = 0x11\n 10562: a2 = a1\n 10564: a0 = 0x4\n 10567: a1 = s1 + 0x7ff\n 10571: a1 = a1 + 0x361\n 10575: u64 [a2 + 656] = 0\n 10579: ra = 374, jump @19\n      : @358 [@dyn 187] (gas: 3)\n 10585: a0 = u64 [s1 + 0x100]\n 10589: a0 = i32 [a0]\n 10591: jump @360 if a0 >u 63\n      : @359 (gas: 3)\n 10595: a1 = u64 [s1 + 0x100]\n 10599: u32 [a1 + 0] = 0x40\n 10602: fallthrough\n      : @360 (gas: 5)\n 10603: a0 = 0x1\n 10606: a2 = 0x24\n 10609: a1 = u64 [s1 + 0x118]\n 10613: ecalli 13 // 'seal_return'\n 10615: fallthrough\n      : @361 (gas: 14)\n 10616: a0 = 0xffffffff\n 10626: u64 [s1 + 0x68] = a0\n 10629: a0 = u64 [s1 + 0x108]\n 10633: a3 = a5 + 0x600\n 10637: u64 [a3 + 0x8] = a0\n 10640: a0 = u64 [s1 + 0xf8]\n 10644: u64 [a3 + 0x10] = a0\n 10647: a0 = u64 [s1 + 0xc0]\n 10651: u64 [a3 + 0x18] = a0\n 10654: a0 = s1 + 0x1700\n 10658: a1 = s1 + 0x16e0\n 10662: a2 = u64 [s1 + 0x110]\n 10666: u64 [a3 + 0x20] = a2\n 10669: ra = 376, jump @1575\n      : @362 [@dyn 188] (gas: 22)\n 10675: a4 = s1 + 0x10d8\n 10679: t0 = 0\n 10681: u64 [s1 + 176] = 0\n 10685: t2 = 0\n 10687: a0 = 0\n 10689: a2 = 0\n 10691: a5 = 0\n 10693: ra = 0\n 10695: t1 = 0\n 10697: a1 = u64 [a4 + 0x640]\n 10701: u64 [s1 + 0x88] = a1\n 10705: a3 = 0x100000000\n 10715: a1 = u64 [a4 + 0x638]\n 10719: u64 [s1 + 0x70] = a1\n 10722: a1 = u64 [a4 + 0x630]\n 10726: u64 [s1 + 0x78] = a1\n 10729: a1 = u64 [a4 + 0x628]\n 10733: u64 [s1 + 0x80] = a1\n 10737: u64 [s1 + 0x90] = a3\n 10741: a3 = 0xffffffe0\n 10751: u64 [s1 + 0x60] = a3\n 10754: fallthrough\n      : @363 (gas: 4)\n 10755: u64 [s1 + 0x148] = a0\n 10759: u64 [s1 + 0x150] = t2\n 10763: u64 [s1 + 0x158] = t0\n 10767: t0 = 378, jump @2013\n      : @364 [@dyn 189] (gas: 12)\n 10774: t0 = u64 [s1 + 0xe8]\n 10778: a0 = ra <u t0\n 10781: u64 [s1 + 0x140] = a0\n 10785: a4 = u64 [s1 + 0xf0]\n 10789: t2 = t1 ^ a4\n 10792: a4 = t1 <u a4\n 10795: a1 = u64 [s1 + 0x140]\n 10799: a4 = a1 if t2 == 0\n 10802: a1 = ra ^ t0\n 10805: a1 = a1 | t2\n 10808: a4 = a3 if a1 == 0\n 10811: jump @366 if a4 != 0\n      : @365 (gas: 1)\n 10814: jump @488\n      : @366 (gas: 1)\n 10817: t0 = 380, jump @1972\n      : @367 [@dyn 190] (gas: 12)\n 10824: a0 = s1 + 0x10d8\n 10828: a3 = a0 + 0x500\n 10832: u64 [a3 + 0x68] = a2\n 10835: u64 [s1 + 0x138] = a5\n 10839: u64 [a3 + 0x70] = a5\n 10842: u64 [s1 + 0x128] = a1\n 10846: u64 [a3 + 0x78] = a1\n 10849: a1 = s1 + 0x1640\n 10853: u64 [s1 + 0x130] = t1\n 10857: u64 [a0 + 0x580] = t1\n 10861: a0 = 0\n 10863: ra = 382, jump @19\n      : @368 [@dyn 191] (gas: 9)\n 10869: a0 = s1 + 0x10d8\n 10873: u64 [a0 + 1376] = 0\n 10877: u64 [a0 + 1368] = 0\n 10881: u64 [a0 + 1360] = 0\n 10885: a3 = a0\n 10887: a0 = 0x20\n 10890: a1 = s1 + 0x1620\n 10894: u64 [a3 + 1352] = 0xb\n 10899: ra = 384, jump @19\n      : @369 [@dyn 192] (gas: 4)\n 10905: a0 = u64 [s1 + 0xc8]\n 10909: ra = 0x182\n 10913: ecalli 5 // 'caller'\n 10915: fallthrough\n      : @370 [@dyn 193] (gas: 3)\n 10916: a0 = u64 [s1 + 0x100]\n 10920: a0 = i32 [a0]\n 10922: jump @372 if a0 >=u 64\n      : @371 (gas: 5)\n 10926: a0 = u64 [s1 + 0x100]\n 10930: u32 [a0 + 0] = 0x40\n 10933: a2 = u64 [s1 + 0xd0]\n 10937: t0 = 0x184\n 10941: jump @1911\n      : @372 (gas: 2)\n 10945: a2 = u64 [s1 + 0xd0]\n 10949: t0 = 388, jump @1911\n      : @373 [@dyn 194] (gas: 10)\n 10956: a0 = 0x20220\n 10961: i32 a0 = a0 + 0\n 10963: i32 a2 = a2 + 0\n 10965: a1 = 0x40\n 10968: u64 [s1 + 0xf8] = a0\n 10972: ra = 0x186\n 10976: ecalli 9 // 'hash_keccak_256'\n 10978: a3 = u64 [s1 + 0x108]\n 10982: t0 = 0x188\n 10986: jump @1929\n      : @374 [@dyn 195] (gas: 2)\n 10990: a3 = u64 [s1 + 0x108]\n 10994: t0 = 392, jump @1929\n      : @375 [@dyn 196] (gas: 7)\n 11001: u64 [a5 + 0x88] = a3\n 11005: u64 [a5 + 0x90] = a2\n 11009: u64 [a5 + 0x98] = a4\n 11013: u64 [a5 + 0xa0] = a0\n 11017: a0 = s1 + 0x1600\n 11021: a1 = s1 + 0x3660\n 11025: ra = 394, jump @21\n      : @376 [@dyn 197] (gas: 5)\n 11031: a4 = s1 + 0x10d8\n 11035: a0 = u32 [a4 + 0x538]\n 11039: a1 = u64 [a4 + 0x528]\n 11043: a2 = u64 [a4 + 0x530]\n 11047: t0 = 396, jump @1974\n      : @377 [@dyn 198] (gas: 7)\n 11054: t0 = u64 [s1 + 0x158]\n 11058: t2 = u64 [s1 + 0x150]\n 11062: a0 = u64 [s1 + 0x148]\n 11066: a2 = u64 [s1 + 0x140]\n 11070: a5 = u64 [s1 + 0x138]\n 11074: t1 = u64 [s1 + 0x130]\n 11078: jump @363 if a1 != 0\n      : @378 (gas: 8)\n 11082: a0 = a4 + 0x500\n 11086: u64 [a0 + 0x8] = a2\n 11089: u64 [a0 + 0x10] = a5\n 11092: u64 [a0 + 0x18] = a3\n 11095: a1 = s1 + 0x15e0\n 11099: u64 [a4 + 0x520] = t1\n 11103: a0 = 0\n 11105: ra = 398, jump @19\n      : @379 [@dyn 199] (gas: 9)\n 11111: a0 = s1 + 0x10d8\n 11115: u64 [a0 + 1280] = 0\n 11119: u64 [a0 + 1272] = 0\n 11123: u64 [a0 + 1264] = 0\n 11127: a3 = a0\n 11129: a0 = 0x20\n 11132: a1 = s1 + 0x15c0\n 11136: u64 [a3 + 1256] = 0xb\n 11141: ra = 400, jump @19\n      : @380 [@dyn 200] (gas: 1)\n 11147: t0 = 402, jump @2007\n      : @381 [@dyn 201] (gas: 1)\n 11154: jump @383 if a1 <u a0\n      : @382 (gas: 4)\n 11157: a0 = u64 [s1 + 0x100]\n 11161: u32 [a0 + 0] = 0x40\n 11164: t0 = 0x194\n 11168: jump @1952\n      : @383 (gas: 1)\n 11172: t0 = 404, jump @1952\n      : @384 [@dyn 202] (gas: 4)\n 11179: ra = 0x196\n 11183: ecalli 9 // 'hash_keccak_256'\n 11185: t0 = 0x198\n 11189: jump @1934\n      : @385 [@dyn 203] (gas: 1)\n 11193: t0 = 408, jump @1934\n      : @386 [@dyn 204] (gas: 3)\n 11200: a0 = s1 + 0x15a0\n 11204: a1 = 0x40\n 11207: ra = 410, jump @17\n      : @387 [@dyn 205] (gas: 16)\n 11213: a1 = s1 + 0x10d8\n 11217: a5 = a1 + 0x400\n 11221: a0 = u64 [a5 + 0xe0]\n 11225: u64 [s1 + 0xa8] = a0\n 11229: a3 = u64 [a5 + 0xd8]\n 11233: u64 [s1 + 0xa0] = a3\n 11237: a2 = u64 [a5 + 0xd0]\n 11241: u64 [s1 + 0x118] = a2\n 11245: a4 = u64 [a5 + 0xc8]\n 11249: u64 [s1 + 0x120] = a4\n 11253: u64 [a5 + 0xc0] = a0\n 11257: u64 [a5 + 0xb8] = a3\n 11261: u64 [a5 + 0xb0] = a2\n 11265: a0 = s1 + 0x1580\n 11269: u64 [a5 + 0xa8] = a4\n 11273: ra = 412, jump @1511\n      : @388 [@dyn 206] (gas: 3)\n 11279: a0 = s1 + 0x1560\n 11283: a1 = u64 [s1 + 0x98]\n 11287: ra = 414, jump @21\n      : @389 [@dyn 207] (gas: 3)\n 11293: a2 = u64 [s1 + 0xa0]\n 11297: a0 = u64 [s1 + 0xa8]\n 11301: t0 = 416, jump @1956\n      : @390 [@dyn 208] (gas: 1)\n 11308: jump @500 if a0 != 0\n      : @391 (gas: 13)\n 11312: a4 = s1 + 0x10d8\n 11316: a5 = a4 + 0x400\n 11320: a0 = u64 [a5 + 0xa0]\n 11324: a1 = u64 [a5 + 0x98]\n 11328: a2 = u64 [a5 + 0x90]\n 11332: a3 = u64 [a5 + 0x88]\n 11336: u64 [a5 + 0x68] = a3\n 11339: u64 [a5 + 0x70] = a2\n 11342: u64 [a5 + 0x78] = a1\n 11345: a1 = s1 + 0x1540\n 11349: u64 [a5 + 0x80] = a0\n 11353: a0 = u64 [s1 + 0x120]\n 11357: ra = 418, jump @19\n      : @392 [@dyn 209] (gas: 5)\n 11363: a0 = u64 [s1 + 0xb8]\n 11367: a0 = a0 + 0x1\n 11370: a1 = a0 <u 0x1\n 11373: a2 = u64 [s1 + 0xc0]\n 11377: t0 = 420, jump @1928\n      : @393 [@dyn 210] (gas: 8)\n 11384: a5 = a4 + 0x500\n 11388: u64 [a5 + 0xb0] = a1\n 11392: u64 [a5 + 0xa8] = a0\n 11396: u64 [a5 + 0xb8] = a2\n 11400: u64 [a5 + 0xc0] = a3\n 11404: a0 = s1 + 0x1520\n 11408: a1 = s1 + 0x3680\n 11412: ra = 422, jump @21\n      : @394 [@dyn 211] (gas: 1)\n 11418: t0 = 424, jump @1968\n      : @395 [@dyn 212] (gas: 1)\n 11425: jump @500 if a0 == 0\n      : @396 (gas: 7)\n 11429: a4 = s1 + 0x10d8\n 11433: a5 = a4 + 0x400\n 11437: a0 = u64 [a5 + 0x58]\n 11440: a1 = u64 [a5 + 0x50]\n 11443: a2 = u64 [a5 + 0x48]\n 11446: a3 = u64 [s1 + 0x68]\n 11449: t0 = 426, jump @1980\n      : @397 [@dyn 213] (gas: 6)\n 11456: u64 [a4 + 1088] = 0\n 11460: u64 [a5 + 0x28] = a2\n 11463: u64 [a5 + 0x30] = a1\n 11466: a1 = s1 + 0x1500\n 11470: u64 [a5 + 0x38] = a3\n 11473: ra = 428, jump @19\n      : @398 [@dyn 214] (gas: 3)\n 11479: a1 = u64 [s1 + 0xb8]\n 11483: a0 = a1 + 0x2\n 11486: t0 = 430, jump @1937\n      : @399 [@dyn 215] (gas: 7)\n 11493: u64 [a5 + 0xd0] = a2\n 11497: u64 [a5 + 0xc8] = a0\n 11501: u64 [a5 + 0xd8] = a3\n 11505: u64 [a5 + 0xe0] = a1\n 11509: a0 = s1 + 0x14e0\n 11513: a1 = s1 + 0x36a0\n 11517: ra = 432, jump @21\n      : @400 [@dyn 216] (gas: 3)\n 11523: a0 = u64 [s1 + 0x90]\n 11527: a0 = a0 + 0xffffffffffffffc0\n 11530: t0 = 434, jump @1919\n      : @401 [@dyn 217] (gas: 1)\n 11537: jump @500 if a0 == 0\n      : @402 (gas: 7)\n 11541: a4 = s1 + 0x10d8\n 11545: a3 = a4 + 0x400\n 11549: a0 = u64 [a3 + 0x18]\n 11552: a1 = u64 [a3 + 0x10]\n 11555: a2 = u64 [a3 + 0x8]\n 11558: a3 = u64 [s1 + 0x68]\n 11561: t0 = 436, jump @1981\n      : @403 [@dyn 218] (gas: 7)\n 11568: u64 [a4 + 1024] = 0\n 11572: a5 = a4 + 0x300\n 11576: u64 [a5 + 0xe8] = a2\n 11580: u64 [a5 + 0xf0] = a1\n 11584: a1 = s1 + 0x14c0\n 11588: u64 [a5 + 0xf8] = a3\n 11592: ra = 438, jump @19\n      : @404 [@dyn 219] (gas: 3)\n 11598: a1 = u64 [s1 + 0xb8]\n 11602: a0 = a1 + 0x3\n 11605: t0 = 440, jump @1937\n      : @405 [@dyn 220] (gas: 7)\n 11612: u64 [a5 + 0xf0] = a2\n 11616: u64 [a5 + 0xe8] = a0\n 11620: u64 [a5 + 0xf8] = a3\n 11624: u64 [a4 + 0x600] = a1\n 11628: a0 = s1 + 0x14a0\n 11632: a1 = s1 + 0x36c0\n 11636: ra = 442, jump @21\n      : @406 [@dyn 221] (gas: 3)\n 11642: a0 = u64 [s1 + 0x90]\n 11646: a0 = a0 + 0xffffffffffffffa0\n 11649: t0 = 444, jump @1919\n      : @407 [@dyn 222] (gas: 1)\n 11656: jump @500 if a0 == 0\n      : @408 (gas: 14)\n 11660: a5 = s1 + 0x10d8\n 11664: t0 = u64 [a5 + 0x3e0]\n 11668: a2 = a5 + 0x300\n 11672: a1 = u64 [a2 + 0xd8]\n 11676: a3 = u64 [a2 + 0xd0]\n 11680: a4 = u64 [a2 + 0xc8]\n 11684: a0 = u64 [s1 + 0x120]\n 11688: i32 a0 = a0 + 0x60\n 11691: u64 [a2 + 0xa8] = a4\n 11695: u64 [a2 + 0xb0] = a3\n 11699: u64 [a2 + 0xb8] = a1\n 11703: a1 = s1 + 0x1480\n 11707: u64 [a5 + 0x3c0] = t0\n 11711: ra = 446, jump @19\n      : @409 [@dyn 223] (gas: 21)\n 11717: a1 = u64 [s1 + 0xb8]\n 11721: a0 = a1 + 0x4\n 11724: a1 = a0 <u a1\n 11727: a3 = u64 [s1 + 0xc0]\n 11731: a2 = a3 + a1\n 11734: a3 = a2 <u a3\n 11737: a3 = a1 if a1 == 0\n 11740: a1 = u64 [s1 + 0x110]\n 11744: a3 = a3 + a1\n 11747: a1 = a3 <u a1\n 11750: a4 = u64 [s1 + 0x108]\n 11754: a1 = a1 + a4\n 11757: a4 = s1 + 0x30d8\n 11761: a5 = a4 + 0x600\n 11765: u64 [a5 + 0x10] = a2\n 11768: u64 [a5 + 0x8] = a0\n 11771: u64 [a5 + 0x18] = a3\n 11774: u64 [a5 + 0x20] = a1\n 11777: a0 = s1 + 0x1460\n 11781: a1 = s1 + 0x36e0\n 11785: ra = 448, jump @21\n      : @410 [@dyn 224] (gas: 3)\n 11791: a0 = u64 [s1 + 0x90]\n 11795: a0 = a0 + 0xffffffffffffff80\n 11798: t0 = 450, jump @1919\n      : @411 [@dyn 225] (gas: 1)\n 11805: jump @500 if a0 == 0\n      : @412 (gas: 3)\n 11809: a2 = s1 + 0x10d8\n 11813: a0 = u64 [a2 + 0x388]\n 11817: t0 = 452, jump @1990\n      : @413 [@dyn 226] (gas: 6)\n 11824: u64 [a2 + 896] = 0\n 11828: u64 [a2 + 888] = 0\n 11832: u64 [a2 + 0x368] = a1\n 11836: a1 = s1 + 0x1440\n 11840: u64 [a2 + 880] = 0\n 11844: ra = 454, jump @19\n      : @414 [@dyn 227] (gas: 23)\n 11850: a2 = s1 + 0x100\n 11854: a0 = u64 [a2 + 0x58]\n 11857: a3 = s1 + 0x10d8\n 11861: a5 = a3 + 0x300\n 11865: u64 [a5 + 0x20] = a0\n 11868: a0 = u64 [s1 + 0xb0]\n 11872: u64 [a5 + 0x18] = a0\n 11875: a0 = u64 [a2 + 0x50]\n 11878: u64 [a5 + 0x10] = a0\n 11881: a0 = u64 [a2 + 0x48]\n 11884: u64 [a5 + 0x8] = a0\n 11887: a0 = u64 [s1 + 0x88]\n 11891: u64 [a5 + 0x40] = a0\n 11894: a0 = u64 [s1 + 0x70]\n 11897: u64 [a5 + 0x38] = a0\n 11900: a0 = u64 [s1 + 0x78]\n 11903: u64 [a5 + 0x30] = a0\n 11906: a0 = s1 + 0x1420\n 11910: a1 = s1 + 0x1400\n 11914: a2 = s1 + 0x13e0\n 11918: a4 = u64 [s1 + 0x80]\n 11922: u64 [a5 + 0x28] = a4\n 11925: ra = 456, jump @1606\n      : @415 [@dyn 228] (gas: 7)\n 11931: a4 = s1 + 0x10d8\n 11935: a5 = a4 + 0x300\n 11939: a1 = u64 [a5 + 0x60]\n 11942: a2 = u64 [a5 + 0x58]\n 11945: a3 = u64 [a5 + 0x50]\n 11948: a0 = u64 [a5 + 0x48]\n 11951: t0 = 458, jump @1988\n      : @416 [@dyn 229] (gas: 1)\n 11958: jump @500 if a1 != 0\n      : @417 (gas: 11)\n 11962: a1 = u64 [s1 + 0x120]\n 11966: a2 = a4 + 0x200\n 11970: u64 [a2 + 0xe8] = a1\n 11974: a1 = u64 [s1 + 0x118]\n 11978: u64 [a2 + 0xf0] = a1\n 11982: a1 = u64 [s1 + 0xa0]\n 11986: u64 [a2 + 0xf8] = a1\n 11990: a1 = s1 + 0x13c0\n 11994: a3 = u64 [s1 + 0xa8]\n 11998: u64 [a4 + 0x300] = a3\n 12002: ra = 460, jump @19\n      : @418 [@dyn 230] (gas: 23)\n 12008: a0 = u64 [s1 + 0x158]\n 12012: a1 = s1 + 0x10d8\n 12016: a2 = a1 + 0x200\n 12020: u64 [a2 + 0xa0] = a0\n 12024: a0 = u64 [s1 + 0xb0]\n 12028: u64 [a2 + 0x98] = a0\n 12032: a0 = u64 [s1 + 0x150]\n 12036: u64 [a2 + 0x90] = a0\n 12040: a0 = u64 [s1 + 0x148]\n 12044: u64 [a2 + 0x88] = a0\n 12048: a0 = u64 [s1 + 0x88]\n 12052: u64 [a2 + 0xc0] = a0\n 12056: a0 = u64 [s1 + 0x70]\n 12059: u64 [a2 + 0xb8] = a0\n 12063: a0 = u64 [s1 + 0x78]\n 12066: u64 [a2 + 0xb0] = a0\n 12070: a4 = a1\n 12072: a0 = s1 + 0x13a0\n 12076: a1 = s1 + 0x1380\n 12080: a2 = s1 + 0x1360\n 12084: a3 = u64 [s1 + 0x80]\n 12088: u64 [a4 + 0x2a8] = a3\n 12092: ra = 462, jump @1606\n      : @419 [@dyn 231] (gas: 1)\n 12098: t0 = 464, jump @1959\n      : @420 [@dyn 232] (gas: 6)\n 12105: t0 = u64 [s1 + 0x158]\n 12109: t0 = t0 + a1\n 12112: a1 = t2 | t0\n 12115: a2 = a4 | a3\n 12118: a1 = a1 | a2\n 12121: jump @549 if a1 == 0\n      : @421 (gas: 7)\n 12125: a0 = a4\n 12127: u64 [s1 + 0xb0] = a3\n 12131: ra = u64 [s1 + 0x128]\n 12135: a2 = u64 [s1 + 0x140]\n 12139: a5 = u64 [s1 + 0x138]\n 12143: t1 = u64 [s1 + 0x130]\n 12147: jump @363\n      : @422 (gas: 16)\n 12150: a0 = 0xffffffff\n 12160: u64 [s1 + 0x68] = a0\n 12163: a0 = u64 [s1 + 0x108]\n 12167: a1 = a5 + 0x600\n 12171: u64 [a1 + 0xe8] = a0\n 12175: a0 = u64 [s1 + 0xf8]\n 12179: u64 [a1 + 0xf0] = a0\n 12183: a0 = u64 [s1 + 0xc0]\n 12187: u64 [a1 + 0xf8] = a0\n 12191: a0 = s1 + 0x7ff\n 12195: a0 = a0 + 0x7e1\n 12199: a1 = s1 + 0x7ff\n 12203: a1 = a1 + 0x7c1\n 12207: a2 = u64 [s1 + 0x110]\n 12211: u64 [a5 + 0x700] = a2\n 12215: ra = 466, jump @1575\n      : @423 [@dyn 233] (gas: 23)\n 12221: a4 = s1 + 0x7ff\n 12225: a4 = a4 + 0xd9\n 12229: t0 = 0\n 12231: u64 [s1 + 176] = 0\n 12235: t2 = 0\n 12237: a0 = 0\n 12239: a2 = 0\n 12241: a5 = 0\n 12243: ra = 0\n 12245: t1 = 0\n 12247: a1 = u64 [a4 + 0x720]\n 12251: u64 [s1 + 0x88] = a1\n 12255: a3 = 0x100000000\n 12265: a1 = u64 [a4 + 0x718]\n 12269: u64 [s1 + 0x70] = a1\n 12272: a1 = u64 [a4 + 0x710]\n 12276: u64 [s1 + 0x78] = a1\n 12279: a1 = u64 [a4 + 0x708]\n 12283: u64 [s1 + 0x80] = a1\n 12287: u64 [s1 + 0x90] = a3\n 12291: a3 = 0xffffffe0\n 12301: u64 [s1 + 0x60] = a3\n 12304: fallthrough\n      : @424 (gas: 4)\n 12305: u64 [s1 + 0x148] = a0\n 12309: u64 [s1 + 0x150] = t2\n 12313: u64 [s1 + 0x158] = t0\n 12317: t0 = 468, jump @2013\n      : @425 [@dyn 234] (gas: 12)\n 12324: t0 = u64 [s1 + 0xe8]\n 12328: a0 = ra <u t0\n 12331: u64 [s1 + 0x140] = a0\n 12335: a4 = u64 [s1 + 0xf0]\n 12339: t2 = t1 ^ a4\n 12342: a4 = t1 <u a4\n 12345: a1 = u64 [s1 + 0x140]\n 12349: a4 = a1 if t2 == 0\n 12352: a1 = ra ^ t0\n 12355: a1 = a1 | t2\n 12358: a4 = a3 if a1 == 0\n 12361: jump @493 if a4 == 0\n      : @426 (gas: 1)\n 12365: t0 = 470, jump @1972\n      : @427 [@dyn 235] (gas: 14)\n 12372: a0 = s1 + 0x7ff\n 12376: a0 = a0 + 0xd9\n 12380: a3 = a0 + 0x600\n 12384: u64 [a3 + 0x48] = a2\n 12387: u64 [s1 + 0x138] = a5\n 12391: u64 [a3 + 0x50] = a5\n 12394: u64 [s1 + 0x128] = a1\n 12398: u64 [a3 + 0x58] = a1\n 12401: a1 = s1 + 0x7ff\n 12405: a1 = a1 + 0x721\n 12409: u64 [s1 + 0x130] = t1\n 12413: u64 [a0 + 0x660] = t1\n 12417: a0 = 0\n 12419: ra = 472, jump @19\n      : @428 [@dyn 236] (gas: 11)\n 12425: a0 = s1 + 0x7ff\n 12429: a0 = a0 + 0xd9\n 12433: u64 [a0 + 1600] = 0\n 12437: u64 [a0 + 1592] = 0\n 12441: u64 [a0 + 1584] = 0\n 12445: a3 = a0\n 12447: a0 = 0x20\n 12450: a1 = s1 + 0x7ff\n 12454: a1 = a1 + 0x701\n 12458: u64 [a3 + 1576] = 0xb\n 12463: ra = 474, jump @19\n      : @429 [@dyn 237] (gas: 4)\n 12469: a0 = u64 [s1 + 0xc8]\n 12473: ra = 0x1dc\n 12477: ecalli 5 // 'caller'\n 12479: fallthrough\n      : @430 [@dyn 238] (gas: 3)\n 12480: a0 = u64 [s1 + 0x100]\n 12484: a0 = i32 [a0]\n 12486: jump @432 if a0 >=u 64\n      : @431 (gas: 5)\n 12490: a0 = u64 [s1 + 0x100]\n 12494: u32 [a0 + 0] = 0x40\n 12497: a2 = u64 [s1 + 0xd0]\n 12501: t0 = 0x1de\n 12505: jump @1911\n      : @432 (gas: 2)\n 12509: a2 = u64 [s1 + 0xd0]\n 12513: t0 = 478, jump @1911\n      : @433 [@dyn 239] (gas: 9)\n 12520: a0 = 0x20220\n 12525: i32 a0 = a0 + 0\n 12527: i32 a2 = a2 + 0\n 12529: a1 = 0x40\n 12532: u64 [s1 + 0xf8] = a0\n 12536: ra = 0x1e0\n 12540: ecalli 9 // 'hash_keccak_256'\n 12542: t0 = 0x1e2\n 12546: jump @1924\n      : @434 [@dyn 240] (gas: 1)\n 12550: t0 = 482, jump @1924\n      : @435 [@dyn 241] (gas: 9)\n 12557: a3 = a1 + 0x400\n 12561: u64 [a3 + 0x48] = a4\n 12564: u64 [a3 + 0x50] = a5\n 12567: u64 [a3 + 0x58] = a2\n 12570: u64 [a3 + 0x60] = a0\n 12573: a0 = s1 + 0x7ff\n 12577: a0 = a0 + 0x6e1\n 12581: a1 = s1 + 0x3520\n 12585: ra = 484, jump @21\n      : @436 [@dyn 242] (gas: 6)\n 12591: a4 = s1 + 0x7ff\n 12595: a4 = a4 + 0xd9\n 12599: a0 = u32 [a4 + 0x618]\n 12603: a1 = u64 [a4 + 0x608]\n 12607: a2 = u64 [a4 + 0x610]\n 12611: t0 = 486, jump @1974\n      : @437 [@dyn 243] (gas: 7)\n 12618: t0 = u64 [s1 + 0x158]\n 12622: t2 = u64 [s1 + 0x150]\n 12626: a0 = u64 [s1 + 0x148]\n 12630: a2 = u64 [s1 + 0x140]\n 12634: a5 = u64 [s1 + 0x138]\n 12638: t1 = u64 [s1 + 0x130]\n 12642: jump @424 if a1 != 0\n      : @438 (gas: 9)\n 12646: a0 = a4 + 0x500\n 12650: u64 [a0 + 0xe8] = a2\n 12654: u64 [a0 + 0xf0] = a5\n 12658: u64 [a0 + 0xf8] = a3\n 12662: a1 = s1 + 0x7ff\n 12666: a1 = a1 + 0x6c1\n 12670: u64 [a4 + 0x600] = t1\n 12674: a0 = 0\n 12676: ra = 488, jump @19\n      : @439 [@dyn 244] (gas: 11)\n 12682: a0 = s1 + 0x7ff\n 12686: a0 = a0 + 0xd9\n 12690: u64 [a0 + 1504] = 0\n 12694: u64 [a0 + 1496] = 0\n 12698: u64 [a0 + 1488] = 0\n 12702: a3 = a0\n 12704: a0 = 0x20\n 12707: a1 = s1 + 0x7ff\n 12711: a1 = a1 + 0x6a1\n 12715: u64 [a3 + 1480] = 0xb\n 12720: ra = 490, jump @19\n      : @440 [@dyn 245] (gas: 1)\n 12726: t0 = 492, jump @2007\n      : @441 [@dyn 246] (gas: 1)\n 12733: jump @443 if a1 <u a0\n      : @442 (gas: 4)\n 12736: a0 = u64 [s1 + 0x100]\n 12740: u32 [a0 + 0] = 0x40\n 12743: t0 = 0x1ee\n 12747: jump @1952\n      : @443 (gas: 1)\n 12751: t0 = 494, jump @1952\n      : @444 [@dyn 247] (gas: 4)\n 12758: ra = 0x1f0\n 12762: ecalli 9 // 'hash_keccak_256'\n 12764: t0 = 0x1f2\n 12768: jump @1934\n      : @445 [@dyn 248] (gas: 1)\n 12772: t0 = 498, jump @1934\n      : @446 [@dyn 249] (gas: 4)\n 12779: a0 = s1 + 0x7ff\n 12783: a0 = a0 + 0x681\n 12787: a1 = 0x40\n 12790: ra = 500, jump @17\n      : @447 [@dyn 250] (gas: 18)\n 12796: a1 = s1 + 0x7ff\n 12800: a1 = a1 + 0xd9\n 12804: a5 = a1 + 0x500\n 12808: a0 = u64 [a5 + 0xc0]\n 12812: u64 [s1 + 0xa8] = a0\n 12816: a3 = u64 [a5 + 0xb8]\n 12820: u64 [s1 + 0xa0] = a3\n 12824: a2 = u64 [a5 + 0xb0]\n 12828: u64 [s1 + 0x118] = a2\n 12832: a4 = u64 [a5 + 0xa8]\n 12836: u64 [s1 + 0x120] = a4\n 12840: u64 [a5 + 0xa0] = a0\n 12844: u64 [a5 + 0x98] = a3\n 12848: u64 [a5 + 0x90] = a2\n 12852: a0 = s1 + 0x7ff\n 12856: a0 = a0 + 0x661\n 12860: u64 [a5 + 0x88] = a4\n 12864: ra = 502, jump @1511\n      : @448 [@dyn 251] (gas: 4)\n 12870: a0 = s1 + 0x7ff\n 12874: a0 = a0 + 0x641\n 12878: a1 = u64 [s1 + 0x98]\n 12882: ra = 504, jump @21\n      : @449 [@dyn 252] (gas: 3)\n 12888: a2 = u64 [s1 + 0xa0]\n 12892: a0 = u64 [s1 + 0xa8]\n 12896: t0 = 506, jump @1956\n      : @450 [@dyn 253] (gas: 1)\n 12903: jump @500 if a0 != 0\n      : @451 (gas: 15)\n 12907: a4 = s1 + 0x7ff\n 12911: a4 = a4 + 0xd9\n 12915: a5 = a4 + 0x500\n 12919: a0 = u64 [a5 + 0x80]\n 12923: a1 = u64 [a5 + 0x78]\n 12926: a2 = u64 [a5 + 0x70]\n 12929: a3 = u64 [a5 + 0x68]\n 12932: u64 [a5 + 0x48] = a3\n 12935: u64 [a5 + 0x50] = a2\n 12938: u64 [a5 + 0x58] = a1\n 12941: a1 = s1 + 0x7ff\n 12945: a1 = a1 + 0x621\n 12949: u64 [a5 + 0x60] = a0\n 12952: a0 = u64 [s1 + 0x120]\n 12956: ra = 508, jump @19\n      : @452 [@dyn 254] (gas: 5)\n 12962: a0 = u64 [s1 + 0xb8]\n 12966: a0 = a0 + 0x1\n 12969: a1 = a0 <u 0x1\n 12972: a2 = u64 [s1 + 0xc0]\n 12976: t0 = 510, jump @1928\n      : @453 [@dyn 255] (gas: 9)\n 12983: a5 = a4 + 0x400\n 12987: u64 [a5 + 0x70] = a1\n 12990: u64 [a5 + 0x68] = a0\n 12993: u64 [a5 + 0x78] = a2\n 12996: u64 [a5 + 0x80] = a3\n 13000: a0 = s1 + 0x7ff\n 13004: a0 = a0 + 0x601\n 13008: a1 = s1 + 0x3540\n 13012: ra = 512, jump @21\n      : @454 [@dyn 256] (gas: 1)\n 13018: t0 = 514, jump @1968\n      : @455 [@dyn 257] (gas: 1)\n 13025: jump @500 if a0 == 0\n      : @456 (gas: 8)\n 13029: a4 = s1 + 0x7ff\n 13033: a4 = a4 + 0xd9\n 13037: a5 = a4 + 0x500\n 13041: a0 = u64 [a5 + 0x38]\n 13044: a1 = u64 [a5 + 0x30]\n 13047: a2 = u64 [a5 + 0x28]\n 13050: a3 = u64 [s1 + 0x68]\n 13053: t0 = 516, jump @1980\n      : @457 [@dyn 258] (gas: 7)\n 13060: u64 [a4 + 1312] = 0\n 13064: u64 [a5 + 0x8] = a2\n 13067: u64 [a5 + 0x10] = a1\n 13070: a1 = s1 + 0x7ff\n 13074: a1 = a1 + 0x5e1\n 13078: u64 [a5 + 0x18] = a3\n 13081: ra = 518, jump @19\n      : @458 [@dyn 259] (gas: 3)\n 13087: a1 = u64 [s1 + 0xb8]\n 13091: a0 = a1 + 0x2\n 13094: t0 = 520, jump @1918\n      : @459 [@dyn 260] (gas: 8)\n 13101: u64 [a5 + 0x90] = a2\n 13105: u64 [a5 + 0x88] = a0\n 13109: u64 [a5 + 0x98] = a3\n 13113: u64 [a5 + 0xa0] = a1\n 13117: a0 = s1 + 0x7ff\n 13121: a0 = a0 + 0x5c1\n 13125: a1 = s1 + 0x3560\n 13129: ra = 522, jump @21\n      : @460 [@dyn 261] (gas: 3)\n 13135: a0 = u64 [s1 + 0x90]\n 13139: a0 = a0 + 0xffffffffffffffc0\n 13142: t0 = 524, jump @1919\n      : @461 [@dyn 262] (gas: 1)\n 13149: jump @500 if a0 == 0\n      : @462 (gas: 8)\n 13153: a4 = s1 + 0x7ff\n 13157: a4 = a4 + 0xd9\n 13161: a5 = a4 + 0x400\n 13165: a0 = u64 [a5 + 0xf8]\n 13169: a1 = u64 [a5 + 0xf0]\n 13173: a2 = u64 [a5 + 0xe8]\n 13177: a3 = u64 [s1 + 0x68]\n 13180: t0 = 526, jump @1981\n      : @463 [@dyn 263] (gas: 7)\n 13187: u64 [a4 + 1248] = 0\n 13191: u64 [a5 + 0xc8] = a2\n 13195: u64 [a5 + 0xd0] = a1\n 13199: a1 = s1 + 0x7ff\n 13203: a1 = a1 + 0x5a1\n 13207: u64 [a5 + 0xd8] = a3\n 13211: ra = 528, jump @19\n      : @464 [@dyn 264] (gas: 3)\n 13217: a1 = u64 [s1 + 0xb8]\n 13221: a0 = a1 + 0x3\n 13224: t0 = 530, jump @1918\n      : @465 [@dyn 265] (gas: 8)\n 13231: u64 [a5 + 0xb0] = a2\n 13235: u64 [a5 + 0xa8] = a0\n 13239: u64 [a5 + 0xb8] = a3\n 13243: u64 [a5 + 0xc0] = a1\n 13247: a0 = s1 + 0x7ff\n 13251: a0 = a0 + 0x581\n 13255: a1 = s1 + 0x3580\n 13259: ra = 532, jump @21\n      : @466 [@dyn 266] (gas: 3)\n 13265: a0 = u64 [s1 + 0x90]\n 13269: a0 = a0 + 0xffffffffffffffa0\n 13272: t0 = 534, jump @1919\n      : @467 [@dyn 267] (gas: 1)\n 13279: jump @500 if a0 == 0\n      : @468 (gas: 16)\n 13283: a5 = s1 + 0x7ff\n 13287: a5 = a5 + 0xd9\n 13291: t0 = u64 [a5 + 0x4c0]\n 13295: a2 = a5 + 0x400\n 13299: a1 = u64 [a2 + 0xb8]\n 13303: a3 = u64 [a2 + 0xb0]\n 13307: a4 = u64 [a2 + 0xa8]\n 13311: a0 = u64 [s1 + 0x120]\n 13315: i32 a0 = a0 + 0x60\n 13318: u64 [a2 + 0x88] = a4\n 13322: u64 [a2 + 0x90] = a3\n 13326: u64 [a2 + 0x98] = a1\n 13330: a1 = s1 + 0x7ff\n 13334: a1 = a1 + 0x561\n 13338: u64 [a5 + 0x4a0] = t0\n 13342: ra = 536, jump @19\n      : @469 [@dyn 268] (gas: 3)\n 13348: a1 = u64 [s1 + 0xb8]\n 13352: a0 = a1 + 0x4\n 13355: t0 = 538, jump @1918\n      : @470 [@dyn 269] (gas: 8)\n 13362: u64 [a5 + 0xd0] = a2\n 13366: u64 [a5 + 0xc8] = a0\n 13370: u64 [a5 + 0xd8] = a3\n 13374: u64 [a5 + 0xe0] = a1\n 13378: a0 = s1 + 0x7ff\n 13382: a0 = a0 + 0x541\n 13386: a1 = s1 + 0x35a0\n 13390: ra = 540, jump @21\n      : @471 [@dyn 270] (gas: 3)\n 13396: a0 = u64 [s1 + 0x90]\n 13400: a0 = a0 + 0xffffffffffffff80\n 13403: t0 = 542, jump @1919\n      : @472 [@dyn 271] (gas: 1)\n 13410: jump @500 if a0 == 0\n      : @473 (gas: 4)\n 13414: a2 = s1 + 0x7ff\n 13418: a2 = a2 + 0xd9\n 13422: a0 = u64 [a2 + 0x468]\n 13426: t0 = 544, jump @1990\n      : @474 [@dyn 272] (gas: 7)\n 13433: u64 [a2 + 1120] = 0\n 13437: u64 [a2 + 1112] = 0\n 13441: u64 [a2 + 0x448] = a1\n 13445: a1 = s1 + 0x7ff\n 13449: a1 = a1 + 0x521\n 13453: u64 [a2 + 1104] = 0\n 13457: ra = 546, jump @19\n      : @475 [@dyn 273] (gas: 28)\n 13463: a1 = s1 + 0x100\n 13467: a0 = u64 [a1 + 0x58]\n 13470: a3 = s1 + 0x7ff\n 13474: a3 = a3 + 0xd9\n 13478: a5 = a3 + 0x400\n 13482: u64 [a5] = a0\n 13484: a0 = u64 [s1 + 0xb0]\n 13488: a2 = a3 + 0x300\n 13492: u64 [a2 + 0xf8] = a0\n 13496: a0 = u64 [a1 + 0x50]\n 13499: u64 [a2 + 0xf0] = a0\n 13503: a0 = u64 [a1 + 0x48]\n 13506: u64 [a2 + 0xe8] = a0\n 13510: a0 = u64 [s1 + 0x88]\n 13514: u64 [a5 + 0x20] = a0\n 13517: a0 = u64 [s1 + 0x70]\n 13520: u64 [a5 + 0x18] = a0\n 13523: a0 = u64 [s1 + 0x78]\n 13526: u64 [a5 + 0x10] = a0\n 13529: a0 = s1 + 0x7ff\n 13533: a0 = a0 + 0x501\n 13537: a1 = s1 + 0x7ff\n 13541: a1 = a1 + 0x4e1\n 13545: a2 = s1 + 0x7ff\n 13549: a2 = a2 + 0x4c1\n 13553: a4 = u64 [s1 + 0x80]\n 13557: u64 [a5 + 0x8] = a4\n 13560: ra = 548, jump @1606\n      : @476 [@dyn 274] (gas: 8)\n 13566: a4 = s1 + 0x7ff\n 13570: a4 = a4 + 0xd9\n 13574: a5 = a4 + 0x400\n 13578: a1 = u64 [a5 + 0x40]\n 13581: a2 = u64 [a5 + 0x38]\n 13584: a3 = u64 [a5 + 0x30]\n 13587: a0 = u64 [a5 + 0x28]\n 13590: t0 = 550, jump @1988\n      : @477 [@dyn 275] (gas: 1)\n 13597: jump @500 if a1 != 0\n      : @478 (gas: 12)\n 13601: a1 = u64 [s1 + 0x120]\n 13605: a2 = a4 + 0x300\n 13609: u64 [a2 + 0xc8] = a1\n 13613: a1 = u64 [s1 + 0x118]\n 13617: u64 [a2 + 0xd0] = a1\n 13621: a1 = u64 [s1 + 0xa0]\n 13625: u64 [a2 + 0xd8] = a1\n 13629: a1 = s1 + 0x7ff\n 13633: a1 = a1 + 0x4a1\n 13637: a3 = u64 [s1 + 0xa8]\n 13641: u64 [a2 + 0xe0] = a3\n 13645: ra = 552, jump @19\n      : @479 [@dyn 276] (gas: 27)\n 13651: a0 = u64 [s1 + 0x158]\n 13655: a1 = s1 + 0x7ff\n 13659: a1 = a1 + 0xd9\n 13663: a2 = a1 + 0x300\n 13667: u64 [a2 + 0x80] = a0\n 13671: a0 = u64 [s1 + 0xb0]\n 13675: u64 [a2 + 0x78] = a0\n 13678: a0 = u64 [s1 + 0x150]\n 13682: u64 [a2 + 0x70] = a0\n 13685: a0 = u64 [s1 + 0x148]\n 13689: u64 [a2 + 0x68] = a0\n 13692: a0 = u64 [s1 + 0x88]\n 13696: u64 [a2 + 0xa0] = a0\n 13700: a0 = u64 [s1 + 0x70]\n 13703: u64 [a2 + 0x98] = a0\n 13707: a0 = u64 [s1 + 0x78]\n 13710: u64 [a2 + 0x90] = a0\n 13714: a4 = a1\n 13716: a0 = s1 + 0x7ff\n 13720: a0 = a0 + 0x481\n 13724: a1 = s1 + 0x7ff\n 13728: a1 = a1 + 0x461\n 13732: a2 = s1 + 0x7ff\n 13736: a2 = a2 + 0x441\n 13740: a3 = u64 [s1 + 0x80]\n 13744: u64 [a4 + 0x388] = a3\n 13748: ra = 554, jump @1606\n      : @480 [@dyn 277] (gas: 1)\n 13754: t0 = 556, jump @1959\n      : @481 [@dyn 278] (gas: 6)\n 13761: t0 = u64 [s1 + 0x158]\n 13765: t0 = t0 + a1\n 13768: a1 = t2 | t0\n 13771: a2 = a4 | a3\n 13774: a1 = a1 | a2\n 13777: jump @552 if a1 == 0\n      : @482 (gas: 7)\n 13781: a0 = a4\n 13783: u64 [s1 + 0xb0] = a3\n 13787: ra = u64 [s1 + 0x128]\n 13791: a2 = u64 [s1 + 0x140]\n 13795: a5 = u64 [s1 + 0x138]\n 13799: t1 = u64 [s1 + 0x130]\n 13803: jump @424\n      : @483 (gas: 4)\n 13806: a0 = s1 + 0x7ff\n 13810: a0 = a0 + 0x261\n 13814: a1 = 0x40\n 13817: ra = 558, jump @17\n      : @484 [@dyn 279] (gas: 31)\n 13823: a1 = s1 + 0x7ff\n 13827: a1 = a1 + 0xd9\n 13831: a3 = u64 [a1 + 0x1a0]\n 13835: u64 [s1 + 0x158] = a3\n 13839: a2 = u64 [a1 + 0x198]\n 13843: u64 [s1 + 0x150] = a2\n 13847: a4 = u64 [a1 + 0x190]\n 13851: u64 [s1 + 0x148] = a4\n 13855: a5 = u64 [a1 + 0x188]\n 13859: u64 [s1 + 0x140] = a5\n 13863: a0 = u64 [s1 + 0x98]\n 13867: u64 [a1 + 0x140] = a0\n 13871: a0 = u64 [s1 + 0x80]\n 13875: u64 [a1 + 0x138] = a0\n 13879: a0 = u64 [s1 + 0x88]\n 13883: u64 [a1 + 0x130] = a0\n 13887: a0 = u64 [s1 + 0x90]\n 13891: u64 [a1 + 0x128] = a0\n 13895: a0 = a1 + 0x100\n 13899: u64 [a0 + 0x60] = a3\n 13902: u64 [a0 + 0x58] = a2\n 13905: u64 [a0 + 0x50] = a4\n 13908: a3 = a1\n 13910: a0 = s1 + 0x7ff\n 13914: a0 = a0 + 0x241\n 13918: a1 = s1 + 0x7ff\n 13922: a1 = a1 + 0x221\n 13926: a2 = s1 + 0x7ff\n 13930: a2 = a2 + 0x201\n 13934: u64 [a3 + 0x148] = a5\n 13938: ra = 560, jump @1464\n      : @485 [@dyn 280] (gas: 1)\n 13944: t0 = 562, jump @1936\n      : @486 [@dyn 281] (gas: 1)\n 13951: jump @500 if a0 != 0\n      : @487 (gas: 10)\n 13955: t0 = a3\n 13957: a1 = s1 + 0x7ff\n 13961: a1 = a1 + 0xd9\n 13965: a5 = a1 + 0x100\n 13969: a0 = u64 [a5 + 0x70]\n 13972: a3 = u64 [a5 + 0x80]\n 13976: u64 [s1 + 0x138] = a3\n 13980: t1 = u64 [a1 + 0x168]\n 13984: a3 = u64 [a5 + 0x78]\n 13987: jump @498\n      : @488 (gas: 3)\n 13990: a0 = s1 + 0x16c0\n 13994: a1 = 0x40\n 13997: ra = 564, jump @17\n      : @489 [@dyn 282] (gas: 27)\n 14003: a1 = s1 + 0x10d8\n 14007: a3 = u64 [a1 + 0x600]\n 14011: u64 [s1 + 0x158] = a3\n 14015: a2 = u64 [a1 + 0x5f8]\n 14019: u64 [s1 + 0x150] = a2\n 14023: a4 = u64 [a1 + 0x5f0]\n 14027: u64 [s1 + 0x148] = a4\n 14031: a5 = u64 [a1 + 0x5e8]\n 14035: u64 [s1 + 0x140] = a5\n 14039: a0 = u64 [s1 + 0x88]\n 14043: u64 [a1 + 0x5a0] = a0\n 14047: a0 = u64 [s1 + 0x70]\n 14050: u64 [a1 + 0x598] = a0\n 14054: a0 = u64 [s1 + 0x78]\n 14057: u64 [a1 + 0x590] = a0\n 14061: a0 = u64 [s1 + 0x80]\n 14065: u64 [a1 + 0x588] = a0\n 14069: a0 = a1 + 0x500\n 14073: u64 [a0 + 0xc0] = a3\n 14077: u64 [a0 + 0xb8] = a2\n 14081: u64 [a0 + 0xb0] = a4\n 14085: a3 = a1\n 14087: a0 = s1 + 0x16a0\n 14091: a1 = s1 + 0x1680\n 14095: a2 = s1 + 0x1660\n 14099: u64 [a3 + 0x5a8] = a5\n 14103: ra = 566, jump @1464\n      : @490 [@dyn 283] (gas: 1)\n 14109: t0 = 568, jump @1936\n      : @491 [@dyn 284] (gas: 1)\n 14116: jump @500 if a0 != 0\n      : @492 (gas: 9)\n 14120: t0 = a3\n 14122: a1 = s1 + 0x10d8\n 14126: a5 = a1 + 0x500\n 14130: a0 = u64 [a5 + 0xd0]\n 14134: a3 = u64 [a5 + 0xe0]\n 14138: u64 [s1 + 0x138] = a3\n 14142: t1 = u64 [a1 + 0x5c8]\n 14146: a3 = u64 [a5 + 0xd8]\n 14150: jump @498\n      : @493 (gas: 4)\n 14153: a0 = s1 + 0x7ff\n 14157: a0 = a0 + 0x7a1\n 14161: a1 = 0x40\n 14164: ra = 570, jump @17\n      : @494 [@dyn 285] (gas: 31)\n 14170: a1 = s1 + 0x7ff\n 14174: a1 = a1 + 0xd9\n 14178: a3 = u64 [a1 + 0x6e0]\n 14182: u64 [s1 + 0x158] = a3\n 14186: a2 = u64 [a1 + 0x6d8]\n 14190: u64 [s1 + 0x150] = a2\n 14194: a4 = u64 [a1 + 0x6d0]\n 14198: u64 [s1 + 0x148] = a4\n 14202: a5 = u64 [a1 + 0x6c8]\n 14206: u64 [s1 + 0x140] = a5\n 14210: a0 = u64 [s1 + 0x88]\n 14214: u64 [a1 + 0x680] = a0\n 14218: a0 = u64 [s1 + 0x70]\n 14221: u64 [a1 + 0x678] = a0\n 14225: a0 = u64 [s1 + 0x78]\n 14228: u64 [a1 + 0x670] = a0\n 14232: a0 = u64 [s1 + 0x80]\n 14236: u64 [a1 + 0x668] = a0\n 14240: a0 = a1 + 0x600\n 14244: u64 [a0 + 0xa0] = a3\n 14248: u64 [a0 + 0x98] = a2\n 14252: u64 [a0 + 0x90] = a4\n 14256: a3 = a1\n 14258: a0 = s1 + 0x7ff\n 14262: a0 = a0 + 0x781\n 14266: a1 = s1 + 0x7ff\n 14270: a1 = a1 + 0x761\n 14274: a2 = s1 + 0x7ff\n 14278: a2 = a2 + 0x741\n 14282: u64 [a3 + 0x688] = a5\n 14286: ra = 572, jump @1464\n      : @495 [@dyn 286] (gas: 1)\n 14292: t0 = 574, jump @1936\n      : @496 [@dyn 287] (gas: 1)\n 14299: jump @500 if a0 != 0\n      : @497 (gas: 10)\n 14302: t0 = a3\n 14304: a1 = s1 + 0x7ff\n 14308: a1 = a1 + 0xd9\n 14312: a5 = a1 + 0x600\n 14316: a0 = u64 [a5 + 0xb0]\n 14320: a3 = u64 [a5 + 0xc0]\n 14324: u64 [s1 + 0x138] = a3\n 14328: t1 = u64 [a1 + 0x6a8]\n 14332: a3 = u64 [a5 + 0xb8]\n 14336: fallthrough\n      : @498 (gas: 26)\n 14337: t2 = a0 ^ a4\n 14340: a5 = a0 <u a4\n 14343: ra = t1 <u a2\n 14346: a5 = ra if t2 == 0\n 14349: a1 = a3 - t0\n 14352: t2 = a1 - a5\n 14355: a1 = a1 <u a5\n 14358: u64 [s1 + 0x130] = a1\n 14362: a3 = a3 <u t0\n 14365: a5 = u64 [s1 + 0x158]\n 14369: a1 = u64 [s1 + 0x138]\n 14373: a5 = a1 - a5\n 14376: a5 = a5 - a3\n 14379: a1 = u64 [s1 + 0x130]\n 14383: a5 = a5 - a1\n 14386: a0 = a0 - a4\n 14389: a0 = a0 - ra\n 14392: a1 = t1 - a2\n 14395: a0 = a0 | a5\n 14398: a3 = a1 | t2\n 14401: a3 = a3 | a0\n 14404: a0 = a0 | t2\n 14407: a3 = a3 >> 0x20\n 14410: a0 = a0 << 0x20\n 14413: a0 = a0 | a3\n 14416: jump @500 if a0 != 0\n      : @499 (gas: 1)\n 14419: jump @1211\n      : @500 (gas: 1)\n 14422: trap\n      : @501 (gas: 1)\n 14423: jump @557 if a0 == 2514000705\n      : @502 (gas: 1)\n 14431: jump @575 if a0 == 2720838757\n      : @503 (gas: 1)\n 14439: jump @610 if a0 == 2926017187\n      : @504 (gas: 1)\n 14447: jump @634 if a0 == 3363526365\n      : @505 (gas: 1)\n 14455: jump @650 if a0 == 3647605066\n      : @506 (gas: 1)\n 14463: jump @508 if a0 != 3793353845\n      : @507 (gas: 1)\n 14470: jump @733\n      : @508 (gas: 1)\n 14473: jump @510 if a0 != 3917867461\n      : @509 (gas: 1)\n 14480: jump @775\n      : @510 (gas: 1)\n 14483: jump @512 if a0 != 117300739\n      : @511 (gas: 1)\n 14490: jump @803\n      : @512 (gas: 1)\n 14493: jump @514 if a0 != 135795452\n      : @513 (gas: 1)\n 14500: jump @825\n      : @514 (gas: 1)\n 14503: jump @516 if a0 != 317216133\n      : @515 (gas: 1)\n 14510: jump @846\n      : @516 (gas: 1)\n 14513: jump @518 if a0 != 1115958798\n      : @517 (gas: 1)\n 14520: jump @861\n      : @518 (gas: 1)\n 14523: jump @520 if a0 != 1666326814\n      : @519 (gas: 1)\n 14530: jump @873\n      : @520 (gas: 1)\n 14533: jump @522 if a0 == 1889567281\n      : @521 (gas: 1)\n 14540: jump @891\n      : @522 (gas: 11)\n 14543: a0 = s1 + 0x30d8\n 14547: u64 [a0 + 1664] = 0\n 14551: u64 [a0 + 1656] = 0\n 14555: u64 [a0 + 1648] = 0\n 14559: u64 [a0 + 1640] = 0\n 14563: a0 = s1 + 0x3000\n 14567: i32 a0 = a0 + 0x740\n 14571: ra = 0x240\n 14575: ecalli 16 // 'value_transferred'\n 14577: t0 = 0x242\n 14581: jump @2016\n      : @523 [@dyn 288] (gas: 1)\n 14585: t0 = 578, jump @2016\n      : @524 [@dyn 289] (gas: 8)\n 14592: a0 = u64 [a4 + 0x78]\n 14595: a1 = u64 [a4 + 0x80]\n 14599: a2 = u64 [a4 + 0x70]\n 14602: a3 = u64 [a4 + 0x68]\n 14605: a1 = a1 | a2\n 14608: a0 = a0 | a3\n 14611: a0 = a0 | a1\n 14614: jump @526 if a0 == 0\n      : @525 (gas: 1)\n 14617: jump @1226\n      : @526 (gas: 1)\n 14620: t0 = 580, jump @2014\n      : @527 [@dyn 290] (gas: 1)\n 14627: jump @529 if a1 <u a0\n      : @528 (gas: 1)\n 14630: jump @1227\n      : @529 (gas: 4)\n 14633: a0 = s1 + 0x18a0\n 14637: ra = 0x246\n 14641: t0 = 0x62e\n 14645: jump @2009\n      : @530 [@dyn 291] (gas: 7)\n 14649: a2 = s1 + 0x10d8\n 14653: a0 = u32 [a2 + 0x7d8]\n 14657: a1 = u64 [a2 + 0x7c8]\n 14661: a2 = u64 [a2 + 0x7d0]\n 14665: a3 = a1 | a0\n 14668: a3 = a3 | a2\n 14671: jump @532 if a3 != 0\n      : @531 (gas: 1)\n 14674: jump @1228\n      : @532 (gas: 9)\n 14677: a3 = s1 + 0x10d8\n 14681: u64 [a3 + 1984] = 0\n 14685: a4 = a3 + 0x700\n 14689: u64 [a4 + 0xa8] = a1\n 14693: u64 [a4 + 0xb0] = a2\n 14697: a1 = s1 + 0x1880\n 14701: u64 [a4 + 0xb8] = a0\n 14705: a0 = 0\n 14707: ra = 584, jump @19\n      : @533 [@dyn 292] (gas: 3)\n 14713: t0 = 0x24a\n 14717: a1 = s1 + 0x10d8\n 14721: fallthrough\n      : @534 [@dyn 293] (gas: 8)\n 14722: u64 [a1 + 1952] = 0\n 14726: u64 [a1 + 1944] = 0\n 14730: u64 [a1 + 1928] = 0x3\n 14735: a2 = a1\n 14737: a0 = 0x20\n 14740: a1 = s1 + 0x1860\n 14744: u64 [a2 + 1936] = 0\n 14748: ra = 588, jump @19\n      : @535 [@dyn 294] (gas: 2)\n 14754: a1 = i32 [0x2020c]\n 14759: jump @537 if a1 >u 63\n      : @536 (gas: 4)\n 14763: a1 = 0x40\n 14766: u32 [0x2020c] = a1\n 14771: t0 = 0x24e\n 14775: jump @2006\n      : @537 (gas: 1)\n 14779: t0 = 590, jump @2006\n      : @538 [@dyn 295] (gas: 8)\n 14786: a0 = 0x20220\n 14791: i32 a0 = a0 + 0\n 14793: i32 a2 = a2 + 0\n 14795: a1 = 0x40\n 14798: ra = 0x250\n 14802: ecalli 9 // 'hash_keccak_256'\n 14804: t0 = 0x252\n 14808: jump @1958\n      : @539 [@dyn 296] (gas: 1)\n 14812: t0 = 594, jump @1958\n      : @540 [@dyn 297] (gas: 8)\n 14819: a5 = a4 + 0x600\n 14823: u64 [a5 + 0xa0] = a3\n 14827: u64 [a5 + 0x98] = a2\n 14831: u64 [a5 + 0x90] = a1\n 14835: u64 [a5 + 0x88] = a0\n 14839: a0 = s1 + 0x1840\n 14843: a1 = s1 + 0x3760\n 14847: ra = 596, jump @21\n      : @541 [@dyn 298] (gas: 3)\n 14853: a1 = s1 + 0x10d8\n 14857: a2 = a1 + 0x700\n 14861: t0 = 598, jump @2015\n      : @542 [@dyn 299] (gas: 3)\n 14868: a0 = s1 + 0x1820\n 14872: a1 = 0x40\n 14875: ra = 600, jump @17\n      : @543 [@dyn 300] (gas: 7)\n 14881: a3 = s1 + 0x10d8\n 14885: a5 = a3 + 0x700\n 14889: a0 = u64 [a5 + 0x60]\n 14892: a1 = u64 [a5 + 0x58]\n 14895: a2 = u64 [a5 + 0x50]\n 14898: a4 = u64 [a5 + 0x48]\n 14901: t0 = 602, jump @1927\n      : @544 [@dyn 301] (gas: 1)\n 14908: jump @500 if a0 != 0\n      : @545 (gas: 14)\n 14912: a3 = a4\n 14914: a0 = s1 + 0x10d8\n 14918: a4 = s1 + 0x100\n 14922: a1 = u64 [a4 + 0x40]\n 14925: a5 = a0 + 0x700\n 14929: u64 [a5 + 0x28] = a1\n 14932: a1 = u64 [a4 + 0x48]\n 14935: u64 [a5 + 0x30] = a1\n 14938: a1 = u64 [a4 + 0x50]\n 14941: u64 [a5 + 0x38] = a1\n 14944: a1 = s1 + 0x1800\n 14948: a2 = u64 [a4 + 0x58]\n 14951: u64 [a5 + 0x40] = a2\n 14954: jump @859\n      : @546 (gas: 6)\n 14957: u64 [s1 + 1776] = 0\n 14961: u64 [s1 + 1768] = 0\n 14965: u64 [s1 + 1760] = 0\n 14969: t0 = 0x25c\n 14973: a0 = 0x4e487b7100000000\n 14983: fallthrough\n      : @547 [@dyn 302] (gas: 4)\n 14984: a1 = s1 + 0x6e0\n 14988: u64 [s1 + 0x6f8] = a0\n 14992: a0 = 0\n 14994: ra = 606, jump @19\n      : @548 [@dyn 303] (gas: 8)\n 15000: u64 [s1 + 1752] = 0\n 15004: u64 [s1 + 1744] = 0\n 15008: u64 [s1 + 1728] = 0x11\n 15013: a0 = 0x4\n 15016: a1 = s1 + 0x6c0\n 15020: u64 [s1 + 1736] = 0\n 15024: ra = 0x266\n 15028: jump @19\n      : @549 (gas: 10)\n 15031: a0 = s1 + 0x10d8\n 15035: u64 [a0 + 632] = 0\n 15039: u64 [a0 + 624] = 0\n 15043: u64 [a0 + 616] = 0\n 15047: a2 = a0\n 15049: a0 = 0x4e487b7100000000\n 15059: a1 = s1 + 0x1340\n 15063: u64 [a2 + 0x280] = a0\n 15067: a0 = 0\n 15069: ra = 608, jump @19\n      : @550 [@dyn 304] (gas: 3)\n 15075: t0 = 0x262\n 15079: a1 = s1 + 0x10d8\n 15083: fallthrough\n      : @551 [@dyn 305] (gas: 9)\n 15084: u64 [a1 + 608] = 0\n 15088: u64 [a1 + 600] = 0\n 15092: u64 [a1 + 584] = 0x11\n 15097: a2 = a1\n 15099: a0 = 0x4\n 15102: a1 = s1 + 0x1320\n 15106: u64 [a2 + 592] = 0\n 15110: ra = 0x266\n 15114: jump @19\n      : @552 (gas: 12)\n 15117: a0 = s1 + 0x7ff\n 15121: a0 = a0 + 0xd9\n 15125: u64 [a0 + 856] = 0\n 15129: u64 [a0 + 848] = 0\n 15133: u64 [a0 + 840] = 0\n 15137: a2 = a0\n 15139: a0 = 0x4e487b7100000000\n 15149: a1 = s1 + 0x7ff\n 15153: a1 = a1 + 0x421\n 15157: u64 [a2 + 0x360] = a0\n 15161: a0 = 0\n 15163: ra = 612, jump @19\n      : @553 [@dyn 306] (gas: 11)\n 15169: a1 = s1 + 0x7ff\n 15173: a1 = a1 + 0xd9\n 15177: u64 [a1 + 832] = 0\n 15181: u64 [a1 + 824] = 0\n 15185: u64 [a1 + 808] = 0x11\n 15190: a2 = a1\n 15192: a0 = 0x4\n 15195: a1 = s1 + 0x7ff\n 15199: a1 = a1 + 0x401\n 15203: u64 [a2 + 816] = 0\n 15207: ra = 614, jump @19\n      : @554 [@dyn 307] (gas: 3)\n 15213: a0 = u64 [s1 + 0x100]\n 15217: a0 = i32 [a0]\n 15219: jump @556 if a0 >u 63\n      : @555 (gas: 3)\n 15223: a1 = u64 [s1 + 0x100]\n 15227: u32 [a1 + 0] = 0x40\n 15230: fallthrough\n      : @556 (gas: 5)\n 15231: a0 = 0x1\n 15234: a2 = 0x24\n 15237: a1 = u64 [s1 + 0xf8]\n 15241: ecalli 13 // 'seal_return'\n 15243: fallthrough\n      : @557 (gas: 9)\n 15244: a0 = s1 + 0x38d8\n 15248: u64 [a0 + 224] = 0\n 15252: u64 [a0 + 216] = 0\n 15256: u64 [a0 + 208] = 0\n 15260: u64 [a0 + 200] = 0\n 15264: a0 = s1 + 0x4000\n 15268: i32 a0 = a0 + 0xfffffffffffff9a0\n 15272: ecalli 16 // 'value_transferred'\n 15274: fallthrough\n      : @558 (gas: 9)\n 15275: a3 = s1 + 0x38d8\n 15279: a0 = u64 [a3 + 0xd8]\n 15283: a1 = u64 [a3 + 0xe0]\n 15287: a2 = u64 [a3 + 0xd0]\n 15291: a3 = u64 [a3 + 0xc8]\n 15295: a1 = a1 | a2\n 15298: a0 = a0 | a3\n 15301: a0 = a0 | a1\n 15304: jump @560 if a0 == 0\n      : @559 (gas: 1)\n 15307: jump @1233\n      : @560 (gas: 3)\n 15310: a0 = u64 [s1 + 0x158]\n 15314: a0 = i32 [a0]\n 15316: jump @562 if a0 >u 3\n      : @561 (gas: 1)\n 15320: jump @1234\n      : @562 (gas: 3)\n 15323: a0 = s1 + 0x2380\n 15327: a1 = 0x40\n 15330: ra = 616, jump @17\n      : @563 [@dyn 308] (gas: 18)\n 15336: a1 = s1 + 0x20d8\n 15340: a2 = a1 + 0x200\n 15344: a0 = u64 [a2 + 0xc0]\n 15348: u64 [s1 + 0xb8] = a0\n 15352: a0 = u64 [a2 + 0xb8]\n 15356: u64 [s1 + 0xc0] = a0\n 15360: a0 = u64 [a2 + 0xb0]\n 15364: u64 [s1 + 0xc8] = a0\n 15368: a0 = u64 [a2 + 0xa8]\n 15372: u64 [s1 + 0xd0] = a0\n 15376: a1 = s1 + 0x38d8\n 15380: u64 [a1 + 256] = 0\n 15384: u64 [a1 + 248] = 0\n 15388: u64 [a1 + 240] = 0\n 15392: u64 [a1 + 232] = 0x1\n 15397: a0 = s1 + 0x2360\n 15401: a1 = s1 + 0x39c0\n 15405: ra = 618, jump @21\n      : @564 [@dyn 309] (gas: 18)\n 15411: a4 = s1 + 0x20d8\n 15415: a5 = a4 + 0x200\n 15419: a0 = u64 [a5 + 0xa0]\n 15423: a1 = u64 [a5 + 0x98]\n 15427: a2 = u64 [a5 + 0x90]\n 15431: a3 = u64 [a5 + 0x88]\n 15435: a4 = s1 + 0x100\n 15439: u64 [a4 + 0x50] = a0\n 15442: u64 [a5 + 0x60] = a0\n 15445: u64 [a4 + 0x48] = a1\n 15448: u64 [a5 + 0x58] = a1\n 15451: u64 [a4 + 0x40] = a2\n 15454: u64 [a5 + 0x50] = a2\n 15457: a0 = s1 + 0x2340\n 15461: a1 = s1 + 0x2320\n 15465: u64 [a4 + 0x58] = a3\n 15468: u64 [a5 + 0x48] = a3\n 15471: ra = 620, jump @1557\n      : @565 [@dyn 310] (gas: 1)\n 15477: t0 = 622, jump @1994\n      : @566 [@dyn 311] (gas: 1)\n 15484: jump @500 if a0 != 0\n      : @567 (gas: 17)\n 15488: a0 = s1 + 0x20d8\n 15492: a5 = a0 + 0x200\n 15496: a2 = u64 [a5 + 0x80]\n 15500: a3 = u64 [a5 + 0x78]\n 15503: a1 = u64 [a5 + 0x70]\n 15506: a4 = u64 [a5 + 0x68]\n 15509: u64 [s1 + 0xf8] = a4\n 15513: u64 [a5 + 0x28] = a4\n 15516: u64 [s1 + 0x108] = a1\n 15520: u64 [a5 + 0x30] = a1\n 15523: u64 [s1 + 0x100] = a3\n 15527: u64 [a5 + 0x38] = a3\n 15530: a1 = s1 + 0x2300\n 15534: u64 [s1 + 0x110] = a2\n 15538: u64 [a5 + 0x40] = a2\n 15541: a0 = u64 [s1 + 0xd0]\n 15545: ra = 624, jump @19\n      : @568 [@dyn 312] (gas: 3)\n 15551: a0 = u64 [s1 + 0x158]\n 15555: a0 = a0 & 0x1\n 15558: jump @570 if a0 == 0\n      : @569 (gas: 1)\n 15561: jump @993\n      : @570 (gas: 1)\n 15564: t0 = 626, jump @1978\n      : @571 [@dyn 313] (gas: 1)\n 15571: jump @500 if a1 == 0\n      : @572 (gas: 15)\n 15575: a0 = u64 [s1 + 0x158]\n 15579: a1 = a0 & 0xffffffffffffff00\n 15583: a0 = u64 [s1 + 0xd0]\n 15587: i32 a0 = a0 + 0x20\n 15590: a2 = s1 + 0x20d8\n 15594: a3 = u64 [s1 + 0x140]\n 15598: a4 = a2 + 0x100\n 15602: u64 [a4 + 0xb0] = a3\n 15606: u64 [a4 + 0xa8] = a1\n 15610: a1 = u64 [s1 + 0x148]\n 15614: u64 [a4 + 0xb8] = a1\n 15618: a1 = s1 + 0x2280\n 15622: a3 = u64 [s1 + 0x150]\n 15626: u64 [a4 + 0xc0] = a3\n 15630: ra = 628, jump @19\n      : @573 [@dyn 314] (gas: 1)\n 15636: t0 = 630, jump @1965\n      : @574 [@dyn 315] (gas: 1)\n 15643: jump @1040\n      : @575 (gas: 12)\n 15646: a0 = s1 + 0x38d8\n 15650: u64 [a0 + 288] = 0\n 15654: u64 [a0 + 280] = 0\n 15658: u64 [a0 + 272] = 0\n 15662: u64 [a0 + 264] = 0\n 15666: a0 = s1 + 0x4000\n 15670: i32 a0 = a0 + 0xfffffffffffff9e0\n 15674: ra = 0x278\n 15678: ecalli 16 // 'value_transferred'\n 15680: a0 = 0x4000\n 15684: t0 = 0x27a\n 15688: jump @2011\n      : @576 [@dyn 316] (gas: 2)\n 15692: a0 = 0x4000\n 15696: t0 = 634, jump @2011\n      : @577 [@dyn 317] (gas: 8)\n 15703: a0 = u64 [a4 + 0x18]\n 15706: a1 = u64 [a4 + 0x20]\n 15709: a2 = u64 [a4 + 0x10]\n 15712: a3 = u64 [a4 + 0x8]\n 15715: a1 = a1 | a2\n 15718: a0 = a0 | a3\n 15721: a0 = a0 | a1\n 15724: jump @579 if a0 == 0\n      : @578 (gas: 1)\n 15727: jump @1235\n      : @579 (gas: 4)\n 15730: a0 = u64 [s1 + 0x158]\n 15734: a0 = i32 [a0]\n 15736: a1 = 0x43\n 15739: jump @581 if a1 <u a0\n      : @580 (gas: 1)\n 15742: jump @1236\n      : @581 (gas: 4)\n 15745: a0 = s1 + 0x2540\n 15749: ra = 0x27c\n 15753: t0 = 0x62e\n 15757: jump @2009\n      : @582 [@dyn 318] (gas: 13)\n 15761: a0 = s1 + 0x20d8\n 15765: a2 = a0 + 0x400\n 15769: a1 = u64 [a2 + 0x78]\n 15772: u64 [s1 + 0x148] = a1\n 15776: a1 = u64 [a2 + 0x70]\n 15779: u64 [s1 + 0x150] = a1\n 15783: a0 = u64 [a2 + 0x68]\n 15786: u64 [s1 + 0x158] = a0\n 15790: a0 = s1 + 0x4000\n 15794: i32 a0 = a0 + 0xfffffffffffffa00\n 15798: a1 = 0x24\n 15801: ecalli 3 // 'call_data_load'\n 15803: fallthrough\n      : @583 (gas: 16)\n 15804: a0 = s1 + 0x38d8\n 15808: a5 = a0 + 0x100\n 15812: a1 = u64 [a5 + 0x40]\n 15815: a2 = u64 [a5 + 0x38]\n 15818: a3 = u64 [a5 + 0x28]\n 15821: a4 = u64 [a5 + 0x30]\n 15824: a5 = s1 + 0x100\n 15828: u64 [a5 + 0x38] = a1\n 15831: u64 [a5 + 0x30] = a2\n 15834: a0 = a2 | a1\n 15837: u64 [a5 + 0x28] = a3\n 15840: a1 = a3 <u 0x2\n 15843: u64 [a5 + 0x20] = a4\n 15846: a1 = 0 if a4 != 0\n 15848: a1 = 0 if a0 != 0\n 15850: jump @585 if a1 != 0\n      : @584 (gas: 1)\n 15853: jump @1237\n      : @585 (gas: 10)\n 15856: a3 = s1 + 0x100\n 15860: a0 = u64 [a3 + 0x48]\n 15863: a0 = a0 << 0x20\n 15866: a2 = a0 >> 0x20\n 15869: a0 = u64 [a3 + 0x58]\n 15872: a1 = u64 [a3 + 0x50]\n 15875: a0 = a0 | a1\n 15878: u64 [a3 + 0x40] = a2\n 15881: a0 = a0 | a2\n 15884: jump @587 if a0 != 0\n      : @586 (gas: 1)\n 15887: jump @1238\n      : @587 (gas: 9)\n 15890: a0 = 0x30220\n 15895: u64 [s1 + 0x118] = a0\n 15899: i32 a0 = a0 + 0\n 15901: u64 [s1 + 0xe8] = a0\n 15905: ra = 0x27e\n 15909: ecalli 5 // 'caller'\n 15911: a2 = u64 [s1 + 0x118]\n 15915: t0 = 0x280\n 15919: jump @1944\n      : @588 [@dyn 319] (gas: 2)\n 15923: a2 = u64 [s1 + 0x118]\n 15927: t0 = 640, jump @1944\n      : @589 [@dyn 320] (gas: 10)\n 15934: i32 a2 = a2 + 0xd8\n 15938: a2 = a2 + s1\n 15941: u64 [a2 + 1120] = 0\n 15945: a4 = a2 + 0x400\n 15949: u64 [a4 + 0x58] = a1\n 15952: u64 [a4 + 0x50] = a0\n 15955: a1 = s1 + 0x2520\n 15959: u64 [a4 + 0x48] = a3\n 15962: a0 = 0\n 15964: ra = 642, jump @19\n      : @590 [@dyn 321] (gas: 3)\n 15970: t0 = 0x284\n 15974: a1 = s1 + 0x20d8\n 15978: fallthrough\n      : @591 [@dyn 322] (gas: 8)\n 15979: u64 [a1 + 1088] = 0\n 15983: u64 [a1 + 1080] = 0\n 15987: u64 [a1 + 1064] = 0x5\n 15992: a2 = a1\n 15994: a0 = 0x20\n 15997: a1 = s1 + 0x2500\n 16001: u64 [a2 + 1072] = 0\n 16005: ra = 646, jump @19\n      : @592 [@dyn 323] (gas: 5)\n 16011: a0 = 0x2020c\n 16016: u64 [s1 + 0x148] = a0\n 16020: a0 = i32 [0x2020c]\n 16025: a1 = 0x3f\n 16028: jump @594 if a1 <u a0\n      : @593 (gas: 4)\n 16031: a1 = u64 [s1 + 0x148]\n 16035: u32 [a1 + 0] = 0x40\n 16038: t0 = 0x288\n 16042: jump @1945\n      : @594 (gas: 1)\n 16046: t0 = 648, jump @1945\n      : @595 [@dyn 324] (gas: 10)\n 16053: a0 = 0x20220\n 16058: i32 a0 = a0 + 0\n 16060: i32 a2 = a2 + 0\n 16062: a1 = 0x40\n 16065: u64 [s1 + 0x110] = a0\n 16069: ra = 0x28a\n 16073: ecalli 9 // 'hash_keccak_256'\n 16075: a3 = u64 [s1 + 0x108]\n 16079: t0 = 0x28c\n 16083: jump @2019\n      : @596 [@dyn 325] (gas: 2)\n 16087: a3 = u64 [s1 + 0x108]\n 16091: t0 = 652, jump @2019\n      : @597 [@dyn 326] (gas: 19)\n 16098: u64 [s1 + 0x108] = a0\n 16102: a0 = reverse a1\n 16104: u64 [s1 + 0x100] = a0\n 16108: a0 = reverse a2\n 16110: u64 [s1 + 0xf8] = a0\n 16114: a0 = reverse a3\n 16116: u64 [s1 + 0xf0] = a0\n 16120: a2 = s1 + 0x20d8\n 16124: u64 [a2 + 1056] = 0\n 16128: a0 = u64 [s1 + 0x140]\n 16132: a3 = a2 + 0x400\n 16136: u64 [a3 + 0x18] = a0\n 16139: a0 = u64 [s1 + 0x150]\n 16143: u64 [a3 + 0x10] = a0\n 16146: a1 = s1 + 0x24e0\n 16150: a0 = u64 [s1 + 0x158]\n 16154: u64 [a3 + 0x8] = a0\n 16157: a0 = 0\n 16159: ra = 654, jump @19\n      : @598 [@dyn 327] (gas: 13)\n 16165: a0 = u64 [s1 + 0xf0]\n 16169: a1 = s1 + 0x20d8\n 16173: u64 [a1 + 0x400] = a0\n 16177: a0 = u64 [s1 + 0xf8]\n 16181: u64 [a1 + 0x3f8] = a0\n 16185: a0 = u64 [s1 + 0x100]\n 16189: u64 [a1 + 0x3f0] = a0\n 16193: a3 = a1\n 16195: a0 = 0x20\n 16198: a1 = s1 + 0x24c0\n 16202: a2 = u64 [s1 + 0x108]\n 16206: u64 [a3 + 0x3e8] = a2\n 16210: ra = 656, jump @19\n      : @599 [@dyn 328] (gas: 3)\n 16216: a0 = u64 [s1 + 0x148]\n 16220: a0 = i32 [a0]\n 16222: jump @601 if a0 >u 63\n      : @600 (gas: 3)\n 16226: a0 = u64 [s1 + 0x148]\n 16230: u32 [a0 + 0] = 0x40\n 16233: fallthrough\n      : @601 (gas: 34)\n 16234: a0 = sp + 0xffffffffffffffe0\n 16237: a0 = a0 & 0xffffffffffffffe0\n 16240: u64 [s1 + 0x148] = a0\n 16244: sp = a0\n 16246: i32 a2 = a0 + 0\n 16248: a1 = 0x40\n 16251: a0 = u64 [s1 + 0x110]\n 16255: ecalli 9 // 'hash_keccak_256'\n 16257: a3 = u64 [s1 + 0x148]\n 16261: a0 = u64 [a3 + 0x18]\n 16264: a1 = u64 [a3 + 0x10]\n 16267: a2 = u64 [a3 + 0x8]\n 16270: a3 = u64 [a3]\n 16272: a4 = reverse a0\n 16274: a0 = reverse a1\n 16276: a1 = reverse a2\n 16278: a2 = reverse a3\n 16280: a5 = s1 + 0x20d8\n 16284: a3 = u64 [s1 + 0x138]\n 16288: u64 [a5 + 0x3c0] = a3\n 16292: a3 = u64 [s1 + 0x130]\n 16296: u64 [a5 + 0x3b8] = a3\n 16300: a3 = u64 [s1 + 0x120]\n 16304: u64 [a5 + 0x3b0] = a3\n 16308: a3 = u64 [s1 + 0x128]\n 16312: u64 [a5 + 0x3a8] = a3\n 16316: a3 = a5 + 0x300\n 16320: u64 [a3 + 0xe0] = a2\n 16324: u64 [a3 + 0xd8] = a1\n 16328: u64 [a3 + 0xd0] = a0\n 16332: a0 = s1 + 0x24a0\n 16336: a1 = s1 + 0x2480\n 16340: u64 [a3 + 0xc8] = a4\n 16344: ra = 658, jump @1820\n      : @602 [@dyn 329] (gas: 3)\n 16351: a0 = s1 + 0x2460\n 16355: a1 = 0x40\n 16358: ra = 660, jump @17\n      : @603 [@dyn 330] (gas: 7)\n 16364: a3 = s1 + 0x20d8\n 16368: a5 = a3 + 0x300\n 16372: a0 = u64 [a5 + 0xa0]\n 16376: a1 = u64 [a5 + 0x98]\n 16380: a2 = u64 [a5 + 0x90]\n 16384: a4 = u64 [a5 + 0x88]\n 16388: t0 = 662, jump @1927\n      : @604 [@dyn 331] (gas: 1)\n 16395: jump @500 if a0 != 0\n      : @605 (gas: 15)\n 16399: a3 = a4\n 16401: a2 = s1 + 0x20d8\n 16405: a0 = u64 [s1 + 0x128]\n 16409: a5 = a2 + 0x300\n 16413: u64 [a5 + 0x68] = a0\n 16416: a0 = u64 [s1 + 0x120]\n 16420: u64 [a5 + 0x70] = a0\n 16423: a0 = u64 [s1 + 0x130]\n 16427: u64 [a5 + 0x78] = a0\n 16430: a1 = s1 + 0x2440\n 16434: a0 = u64 [s1 + 0x138]\n 16438: u64 [a5 + 0x80] = a0\n 16442: a0 = a4\n 16444: u64 [s1 + 0x148] = a3\n 16448: ra = 664, jump @19\n      : @606 [@dyn 332] (gas: 6)\n 16454: a0 = u64 [s1 + 0xe8]\n 16458: ra = 0x29a\n 16462: ecalli 5 // 'caller'\n 16464: a2 = u64 [s1 + 0x118]\n 16468: t0 = 0x29c\n 16472: jump @2003\n      : @607 [@dyn 333] (gas: 2)\n 16476: a2 = u64 [s1 + 0x118]\n 16480: t0 = 668, jump @2003\n      : @608 [@dyn 334] (gas: 49)\n 16487: t0 = a1 | a0\n 16490: a3 = a3 >> 0x20\n 16493: a2 = reverse a2\n 16495: a1 = a2 << 0x20\n 16498: a1 = a1 | a3\n 16501: a2 = a2 >> 0x20\n 16504: a3 = u64 [s1 + 0x140]\n 16508: a0 = s1 + 0x20d8\n 16512: u64 [a0 + 0x318] = a3\n 16516: a3 = u64 [0x200e8]\n 16521: u64 [a0 + 800] = 0\n 16525: a4 = u64 [s1 + 0x150]\n 16529: u64 [a0 + 0x310] = a4\n 16533: a4 = u64 [s1 + 0x158]\n 16537: u64 [a0 + 0x308] = a4\n 16541: u64 [a0 + 0x360] = a3\n 16545: a3 = u64 [0x200f0]\n 16550: a4 = u64 [0x200f8]\n 16555: a5 = u64 [0x20100]\n 16560: u64 [a0 + 832] = 0\n 16564: u64 [a0 + 0x358] = a3\n 16568: a3 = a0 + 0x300\n 16572: u64 [a3 + 0x50] = a4\n 16575: u64 [a3 + 0x48] = a5\n 16578: u64 [a3 + 0x38] = a2\n 16581: u64 [a3 + 0x30] = a1\n 16584: a1 = 0x20\n 16587: a2 = s1 + 0x2420\n 16591: a3 = s1 + 0x2400\n 16595: a4 = s1 + 0x23e0\n 16599: u64 [a0 + 0x328] = t0\n 16603: a0 = u64 [s1 + 0x148]\n 16607: ra = 0x29e\n 16611: sp = sp + 0xffffffffffffff20\n 16615: u64 [sp + 0xd8] = ra\n 16619: u64 [sp + 0xd0] = s0\n 16623: u64 [sp + 0xc8] = s1\n 16627: s0 = sp + 0xe0\n 16631: sp = sp & 0xffffffffffffffe0\n 16634: a5 = u64 [a4]\n 16636: u64 [sp + 0x40] = a5\n 16639: a5 = u64 [a4 + 0x8]\n 16642: u64 [sp + 0x48] = a5\n 16645: a5 = u64 [a4 + 0x10]\n 16648: u64 [sp + 0x50] = a5\n 16651: a4 = u64 [a4 + 0x18]\n 16654: u64 [sp + 0x58] = a4\n 16657: t0 = 0x12\n 16660: jump @1970\n      : @609 [@dyn 335] (gas: 5)\n 16664: a0 = 0\n 16666: a1 = u64 [s1 + 0x110]\n 16670: a2 = 0\n 16672: ecalli 13 // 'seal_return'\n 16674: jump @1373\n      : @610 (gas: 1)\n 16677: t0 = 672, jump @2014\n      : @611 [@dyn 336] (gas: 1)\n 16684: jump @613 if a1 <u a0\n      : @612 (gas: 1)\n 16687: jump @1243\n      : @613 (gas: 8)\n 16690: a1 = s1 + 0x38d8\n 16694: u64 [a1 + 352] = 0\n 16698: u64 [a1 + 344] = 0\n 16702: u64 [a1 + 336] = 0\n 16706: u64 [a1 + 328] = 0xa\n 16711: a0 = s1 + 0x2620\n 16715: a1 = s1 + 0x3a20\n 16719: ra = 674, jump @21\n      : @614 [@dyn 337] (gas: 13)\n 16725: a0 = s1 + 0x20d8\n 16729: a1 = u64 [a0 + 0x550]\n 16733: u64 [s1 + 0x158] = a1\n 16737: a1 = u64 [a0 + 0x548]\n 16741: u64 [s1 + 0x150] = a1\n 16745: a0 = u32 [a0 + 0x558]\n 16749: u64 [s1 + 0x148] = a0\n 16753: a0 = 0x30220\n 16758: u64 [s1 + 0x140] = a0\n 16762: i32 a0 = a0 + 0\n 16764: ra = 0x2a4\n 16768: ecalli 5 // 'caller'\n 16770: fallthrough\n      : @615 [@dyn 338] (gas: 3)\n 16771: a5 = s1 + 0x100\n 16775: a2 = u64 [a5 + 0x40]\n 16778: t0 = 678, jump @1913\n      : @616 [@dyn 339] (gas: 9)\n 16785: a2 = u64 [a5 + 0x48]\n 16788: a1 = a1 ^ a2\n 16791: a2 = u64 [a5 + 0x50]\n 16794: a0 = a0 ^ a2\n 16797: a0 = a0 | a1\n 16800: a1 = u64 [a5 + 0x58]\n 16803: a1 = a1 ^ a3\n 16806: a0 = a0 | a1\n 16809: jump @618 if a0 != 0\n      : @617 (gas: 1)\n 16812: jump @1244\n      : @618 (gas: 3)\n 16815: a0 = s1 + 0x2600\n 16819: a1 = 0x40\n 16822: ra = 680, jump @17\n      : @619 [@dyn 340] (gas: 7)\n 16828: a0 = s1 + 0x20d8\n 16832: a5 = a0 + 0x500\n 16836: a3 = u64 [a5 + 0x40]\n 16839: a4 = u64 [a5 + 0x38]\n 16842: a2 = u64 [a5 + 0x30]\n 16845: a1 = u64 [a5 + 0x28]\n 16848: t0 = 682, jump @1916\n      : @620 [@dyn 341] (gas: 1)\n 16855: jump @500 if a0 != 0\n      : @621 (gas: 9)\n 16859: a2 = s1 + 0x20d8\n 16863: u64 [a2 + 1304] = 0\n 16867: u64 [a2 + 1296] = 0\n 16871: u64 [a2 + 1288] = 0\n 16875: a0 = 0x8c379a000000000\n 16885: a1 = s1 + 0x25e0\n 16889: u64 [a2 + 0x520] = a0\n 16893: a0 = u64 [s1 + 0x158]\n 16897: ra = 684, jump @19\n      : @622 [@dyn 342] (gas: 1)\n 16903: t0 = 686, jump @1910\n      : @623 [@dyn 343] (gas: 1)\n 16910: jump @500 if a0 == 0\n      : @624 (gas: 9)\n 16914: a0 = u64 [s1 + 0x158]\n 16918: i32 a0 = a0 + 0x4\n 16921: a2 = s1 + 0x20d8\n 16925: u64 [a2 + 1280] = 0\n 16929: u64 [a2 + 1272] = 0\n 16933: u64 [a2 + 1256] = 0x20\n 16938: a1 = s1 + 0x25c0\n 16942: u64 [a2 + 1264] = 0\n 16946: ra = 688, jump @19\n      : @625 [@dyn 344] (gas: 4)\n 16952: a2 = s1 + 0x100\n 16956: a0 = u64 [a2 + 0x40]\n 16959: a0 = a0 + 0xffffffffffffffdc\n 16962: t0 = 690, jump @1909\n      : @626 [@dyn 345] (gas: 1)\n 16969: jump @500 if a0 == 0\n      : @627 (gas: 9)\n 16973: a0 = u64 [s1 + 0x158]\n 16977: i32 a0 = a0 + 0x24\n 16980: a2 = s1 + 0x20d8\n 16984: u64 [a2 + 1248] = 0\n 16988: u64 [a2 + 1240] = 0\n 16992: u64 [a2 + 1224] = 0x30\n 16997: a1 = s1 + 0x25a0\n 17001: u64 [a2 + 1232] = 0\n 17005: ra = 692, jump @19\n      : @628 [@dyn 346] (gas: 5)\n 17011: a0 = 0x100000000\n 17021: a2 = s1 + 0x100\n 17025: u64 [a2 + 0x40] = a0\n 17028: a0 = 0xffffffbc\n 17038: t0 = 694, jump @1909\n      : @629 [@dyn 347] (gas: 1)\n 17045: jump @500 if a0 == 0\n      : @630 (gas: 14)\n 17049: a0 = u64 [s1 + 0x158]\n 17053: i32 a0 = a0 + 0x44\n 17056: a1 = u64 [0x200b8]\n 17061: a4 = s1 + 0x20d8\n 17065: a5 = a4 + 0x400\n 17069: u64 [a5 + 0xc0] = a1\n 17073: a1 = u64 [0x200c0]\n 17078: a2 = u64 [0x200c8]\n 17083: a3 = u64 [0x200d0]\n 17088: u64 [a5 + 0xb8] = a1\n 17092: u64 [a5 + 0xb0] = a2\n 17096: a1 = s1 + 0x2580\n 17100: u64 [a5 + 0xa8] = a3\n 17104: ra = 696, jump @19\n      : @631 [@dyn 348] (gas: 4)\n 17110: a2 = s1 + 0x100\n 17114: a0 = u64 [a2 + 0x40]\n 17117: a0 = a0 + 0xffffffffffffff9c\n 17120: t0 = 698, jump @1909\n      : @632 [@dyn 349] (gas: 1)\n 17127: jump @500 if a0 == 0\n      : @633 (gas: 12)\n 17131: a0 = u64 [s1 + 0x158]\n 17135: i32 a0 = a0 + 0x64\n 17138: a1 = u64 [0x200d8]\n 17143: a2 = u64 [0x200e0]\n 17148: a3 = s1 + 0x20d8\n 17152: u64 [a3 + 0x4a0] = a1\n 17156: u64 [a3 + 1168] = 0\n 17160: u64 [a3 + 0x498] = a2\n 17164: a1 = s1 + 0x2560\n 17168: u64 [a3 + 1160] = 0\n 17172: ra = 0x542\n 17176: jump @19\n      : @634 (gas: 12)\n 17179: a0 = s1 + 0x38d8\n 17183: u64 [a0 + 608] = 0\n 17187: u64 [a0 + 600] = 0\n 17191: u64 [a0 + 592] = 0\n 17195: u64 [a0 + 584] = 0\n 17199: a0 = s1 + 0x4000\n 17203: i32 a0 = a0 + 0xfffffffffffffb20\n 17207: ra = 0x2bc\n 17211: ecalli 16 // 'value_transferred'\n 17213: a0 = 0x38d8\n 17217: t0 = 0x2be\n 17221: jump @2001\n      : @635 [@dyn 350] (gas: 2)\n 17225: a0 = 0x38d8\n 17229: t0 = 702, jump @2001\n      : @636 [@dyn 351] (gas: 1)\n 17236: jump @638 if a0 == 0\n      : @637 (gas: 1)\n 17239: jump @1246\n      : @638 (gas: 1)\n 17242: t0 = 704, jump @2014\n      : @639 [@dyn 352] (gas: 1)\n 17249: jump @641 if a1 <u a0\n      : @640 (gas: 1)\n 17252: jump @1247\n      : @641 (gas: 44)\n 17255: a0 = s1 + 0x4000\n 17259: i32 a0 = a0 + 0xfffffffffffffb40\n 17263: a1 = 0x4\n 17266: ecalli 3 // 'call_data_load'\n 17268: a3 = s1 + 0x38d8\n 17272: a4 = a3 + 0x200\n 17276: a2 = u64 [a4 + 0x68]\n 17279: a0 = u64 [a4 + 0x70]\n 17282: a1 = u64 [a4 + 0x78]\n 17285: a3 = u64 [a4 + 0x80]\n 17289: a4 = s1 + 0x20d8\n 17293: a5 = a4 + 0x700\n 17297: u64 [a5 + 0x60] = a3\n 17300: u64 [a5 + 0x58] = a1\n 17303: u64 [a5 + 0x50] = a0\n 17306: a0 = s1 + 0x2840\n 17310: a1 = s1 + 0x2820\n 17314: u64 [a5 + 0x48] = a2\n 17317: ra = 0x2c2\n 17321: sp = sp + 0xfffffffffffffca0\n 17325: a2 = sp + 0x300\n 17329: u64 [a2 + 0x58] = ra\n 17332: u64 [a2 + 0x50] = s0\n 17335: u64 [a2 + 0x48] = s1\n 17338: s0 = sp + 0x360\n 17342: sp = sp & 0xffffffffffffffe0\n 17345: s1 = sp\n 17347: a2 = u64 [a1]\n 17349: u64 [s1 + 0xb8] = a2\n 17353: a3 = u64 [a1 + 0x8]\n 17356: u64 [s1 + 0xb0] = a3\n 17360: a4 = u64 [a1 + 0x10]\n 17363: u64 [s1 + 0xa8] = a4\n 17367: a1 = u64 [a1 + 0x18]\n 17370: u64 [s1 + 0xa0] = a1\n 17374: u64 [s1 + 0x10] = a0\n 17377: u64 [s1 + 0x2f8] = a1\n 17381: u64 [s1 + 0x2f0] = a4\n 17385: u64 [s1 + 0x2e8] = a3\n 17389: a0 = s1 + 0x300\n 17393: a1 = s1 + 0x2e0\n 17397: u64 [s1 + 0x2e0] = a2\n 17401: ra = 0x790\n 17405: jump @1823\n      : @642 [@dyn 353] (gas: 3)\n 17409: t0 = 0x2c4\n 17413: a1 = s1 + 0x20d8\n 17417: fallthrough\n      : @643 [@dyn 354] (gas: 12)\n 17418: a2 = a1 + 0x700\n 17422: a0 = u64 [a2 + 0x80]\n 17426: u64 [s1 + 0x120] = a0\n 17430: a0 = u64 [a2 + 0x78]\n 17433: u64 [s1 + 0x128] = a0\n 17437: a0 = u64 [a2 + 0x70]\n 17440: u64 [s1 + 0x130] = a0\n 17444: a0 = u64 [a2 + 0x68]\n 17447: u64 [s1 + 0x138] = a0\n 17451: a0 = s1 + 0x2800\n 17455: a1 = 0x40\n 17458: ra = 710, jump @17\n      : @644 [@dyn 355] (gas: 7)\n 17464: a1 = s1 + 0x20d8\n 17468: a4 = a1 + 0x700\n 17472: a2 = u64 [a4 + 0x40]\n 17475: a3 = u64 [a4 + 0x38]\n 17478: a0 = u64 [a4 + 0x30]\n 17481: a1 = u64 [a4 + 0x28]\n 17484: t0 = 712, jump @1938\n      : @645 [@dyn 356] (gas: 1)\n 17491: jump @500 if a0 != 0\n      : @646 (gas: 8)\n 17495: a2 = s1 + 0x20d8\n 17499: u64 [a2 + 1824] = 0\n 17503: u64 [a2 + 1816] = 0\n 17507: u64 [a2 + 1808] = 0\n 17511: a1 = s1 + 0x27e0\n 17515: u64 [a2 + 1800] = 0x20\n 17520: a0 = u64 [s1 + 0x158]\n 17524: ra = 714, jump @19\n      : @647 [@dyn 357] (gas: 1)\n 17530: t0 = 716, jump @1935\n      : @648 [@dyn 358] (gas: 18)\n 17537: u64 [a1 + 0x6b0] = a2\n 17541: a2 = a1 + 0x600\n 17545: u64 [a2 + 0xa8] = a0\n 17549: a0 = u64 [a5 + 0x20]\n 17552: u64 [a2 + 0xe0] = a0\n 17556: a0 = u64 [a5 + 0x28]\n 17559: u64 [a2 + 0xd8] = a0\n 17563: a0 = u64 [a5 + 0x30]\n 17566: u64 [a2 + 0xd0] = a0\n 17570: a0 = u64 [a5 + 0x38]\n 17573: u64 [a2 + 0xc8] = a0\n 17577: u64 [a2 + 0xb8] = a3\n 17581: a3 = a1\n 17583: a0 = s1 + 0x27c0\n 17587: a1 = s1 + 0x27a0\n 17591: a2 = s1 + 0x2780\n 17595: u64 [a3 + 0x6c0] = a4\n 17599: ra = 718, jump @1435\n      : @649 [@dyn 359] (gas: 6)\n 17605: a1 = s1 + 0x20d8\n 17609: a0 = u64 [a1 + 0x6f0]\n 17613: t0 = u64 [a1 + 0x700]\n 17617: t1 = u64 [a1 + 0x6e8]\n 17621: a3 = u64 [a1 + 0x6f8]\n 17625: jump @1061\n      : @650 (gas: 1)\n 17628: t0 = 720, jump @2014\n      : @651 [@dyn 360] (gas: 1)\n 17635: jump @653 if a1 <u a0\n      : @652 (gas: 1)\n 17638: jump @1248\n      : @653 (gas: 23)\n 17641: a0 = s1 + 0x4000\n 17645: i32 a0 = a0 + 0xfffffffffffffb60\n 17649: a1 = 0x4\n 17652: ecalli 3 // 'call_data_load'\n 17654: a0 = s1 + 0x38d8\n 17658: a5 = a0 + 0x200\n 17662: a4 = u64 [a5 + 0xa0]\n 17666: a3 = u64 [a5 + 0x98]\n 17670: a1 = u64 [a5 + 0x90]\n 17674: a2 = u64 [a5 + 0x88]\n 17678: a0 = s1 + 0x28d8\n 17682: u64 [s1 + 0x138] = a4\n 17686: u64 [a0 + 0x400] = a4\n 17690: u64 [s1 + 0x140] = a3\n 17694: a4 = a0 + 0x300\n 17698: u64 [a4 + 0xf8] = a3\n 17702: u64 [s1 + 0x148] = a1\n 17706: u64 [a4 + 0xf0] = a1\n 17710: a1 = s1 + 0x2cc0\n 17714: u64 [s1 + 0x150] = a2\n 17718: u64 [a4 + 0xe8] = a2\n 17722: a0 = 0\n 17724: ra = 722, jump @19\n      : @654 [@dyn 361] (gas: 9)\n 17730: a0 = s1 + 0x28d8\n 17734: u64 [a0 + 992] = 0\n 17738: u64 [a0 + 984] = 0\n 17742: u64 [a0 + 976] = 0\n 17746: a3 = a0\n 17748: a0 = 0x20\n 17751: a1 = s1 + 0x2ca0\n 17755: u64 [a3 + 968] = 0xb\n 17760: ra = 724, jump @19\n      : @655 [@dyn 362] (gas: 4)\n 17766: a0 = 0x2020c\n 17771: u64 [s1 + 0x158] = a0\n 17775: a0 = i32 [0x2020c]\n 17780: jump @657 if a0 >u 63\n      : @656 (gas: 3)\n 17784: a1 = u64 [s1 + 0x158]\n 17788: u32 [a1 + 0] = 0x40\n 17791: fallthrough\n      : @657 (gas: 14)\n 17792: a0 = sp + 0xffffffffffffffe0\n 17795: a2 = a0 & 0xffffffffffffffe0\n 17798: u64 [s1 + 0x128] = a2\n 17802: sp = a2\n 17804: a0 = 0x20220\n 17809: u64 [s1 + 0xf8] = a0\n 17813: i32 a0 = a0 + 0\n 17815: i32 a2 = a2 + 0\n 17817: a1 = 0x40\n 17820: u64 [s1 + 0x130] = a0\n 17824: ra = 0x2d6\n 17828: ecalli 9 // 'hash_keccak_256'\n 17830: t0 = 0x2d8\n 17834: jump @1925\n      : @658 [@dyn 363] (gas: 1)\n 17838: t0 = 728, jump @1925\n      : @659 [@dyn 364] (gas: 8)\n 17845: a3 = a1 + 0x200\n 17849: u64 [a3 + 0xa8] = a4\n 17853: u64 [a3 + 0xb0] = a5\n 17857: u64 [a3 + 0xb8] = a2\n 17861: u64 [a3 + 0xc0] = a0\n 17865: a0 = s1 + 0x2c80\n 17869: a1 = s1 + 0x3b80\n 17873: ra = 730, jump @21\n      : @660 [@dyn 365] (gas: 3)\n 17879: t0 = 0x2dc\n 17883: a1 = s1 + 0x28d8\n 17887: fallthrough\n      : @661 [@dyn 366] (gas: 21)\n 17888: a2 = a1 + 0x300\n 17892: a0 = u64 [a2 + 0xc0]\n 17896: u64 [s1 + 0x120] = a0\n 17900: a0 = u64 [a2 + 0xb8]\n 17904: u64 [s1 + 0x118] = a0\n 17908: a0 = u64 [a2 + 0xb0]\n 17912: u64 [s1 + 0x110] = a0\n 17916: a0 = u64 [a2 + 0xa8]\n 17920: u64 [s1 + 0x108] = a0\n 17924: a0 = u64 [s1 + 0x138]\n 17928: u64 [a2 + 0xa0] = a0\n 17932: a0 = u64 [s1 + 0x140]\n 17936: u64 [a2 + 0x98] = a0\n 17940: a0 = u64 [s1 + 0x148]\n 17944: u64 [a2 + 0x90] = a0\n 17948: a2 = a1\n 17950: a1 = s1 + 0x2c60\n 17954: a0 = u64 [s1 + 0x150]\n 17958: u64 [a2 + 0x388] = a0\n 17962: a0 = 0\n 17964: ra = 734, jump @19\n      : @662 [@dyn 367] (gas: 3)\n 17970: t0 = 0x2e0\n 17974: a1 = s1 + 0x28d8\n 17978: fallthrough\n      : @663 [@dyn 368] (gas: 8)\n 17979: u64 [a1 + 896] = 0\n 17983: u64 [a1 + 888] = 0\n 17987: u64 [a1 + 872] = 0xb\n 17992: a2 = a1\n 17994: a0 = 0x20\n 17997: a1 = s1 + 0x2c40\n 18001: u64 [a2 + 880] = 0\n 18005: ra = 738, jump @19\n      : @664 [@dyn 369] (gas: 3)\n 18011: a0 = u64 [s1 + 0x158]\n 18015: a0 = i32 [a0]\n 18017: jump @666 if a0 >u 63\n      : @665 (gas: 3)\n 18021: a0 = u64 [s1 + 0x158]\n 18025: u32 [a0 + 0] = 0x40\n 18028: fallthrough\n      : @666 (gas: 4)\n 18029: a0 = sp + 0xffffffffffffffe0\n 18032: a0 = a0 & 0xffffffffffffffe0\n 18035: u64 [s1 + 0x128] = a0\n 18039: t0 = 740, jump @1967\n      : @667 [@dyn 370] (gas: 5)\n 18046: ra = 0x2e6\n 18050: ecalli 9 // 'hash_keccak_256'\n 18052: a3 = u64 [s1 + 0x128]\n 18056: t0 = 0x2e8\n 18060: jump @1915\n      : @668 [@dyn 371] (gas: 2)\n 18064: a3 = u64 [s1 + 0x128]\n 18068: t0 = 744, jump @1915\n      : @669 [@dyn 372] (gas: 9)\n 18075: a1 = s1 + 0x38d8\n 18079: a5 = a1 + 0x200\n 18083: u64 [a5 + 0xc8] = a3\n 18087: u64 [a5 + 0xd0] = a2\n 18091: u64 [a5 + 0xd8] = a4\n 18095: u64 [a5 + 0xe0] = a0\n 18099: a0 = s1 + 0x2c20\n 18103: a1 = s1 + 0x3ba0\n 18107: ra = 746, jump @21\n      : @670 [@dyn 373] (gas: 17)\n 18113: a0 = s1 + 0x28d8\n 18117: a2 = a0 + 0x300\n 18121: a1 = u64 [a2 + 0x58]\n 18124: u64 [s1 + 0xd8] = a1\n 18128: a1 = u64 [a2 + 0x50]\n 18131: u64 [s1 + 0xe0] = a1\n 18135: a0 = u64 [a2 + 0x48]\n 18138: u64 [s1 + 0xe8] = a0\n 18142: a0 = s1 + 0x38d8\n 18146: u64 [a0 + 768] = 0\n 18150: u64 [a0 + 760] = 0\n 18154: u64 [a0 + 752] = 0\n 18158: u64 [a0 + 744] = 0\n 18162: a0 = s1 + 0x4000\n 18166: i32 a0 = a0 + 0xfffffffffffffbc0\n 18170: ecalli 16 // 'value_transferred'\n 18172: fallthrough\n      : @671 (gas: 19)\n 18173: a3 = s1 + 0x38d8\n 18177: a0 = u64 [a3 + 0x300]\n 18181: a4 = a3 + 0x200\n 18185: a1 = u64 [a4 + 0xf0]\n 18189: a2 = u64 [a4 + 0xe8]\n 18193: a3 = u64 [a4 + 0xf8]\n 18197: a5 = s1 + 0x100\n 18201: a4 = u64 [a5 + 0x20]\n 18204: a0 = a0 ^ a4\n 18207: a4 = u64 [a5 + 0x10]\n 18210: a1 = a1 ^ a4\n 18213: a0 = a0 | a1\n 18216: a1 = u64 [a5 + 0x18]\n 18219: a1 = a1 ^ a3\n 18222: a3 = u64 [a5 + 0x8]\n 18225: a2 = a2 ^ a3\n 18228: a1 = a1 | a2\n 18231: a0 = a0 | a1\n 18234: jump @673 if a0 == 0\n      : @672 (gas: 1)\n 18237: jump @935\n      : @673 (gas: 3)\n 18240: t0 = 0x2ec\n 18244: a2 = s1 + 0x28d8\n 18248: fallthrough\n      : @674 [@dyn 374] (gas: 12)\n 18249: a0 = u64 [s1 + 0x150]\n 18253: a3 = a2 + 0x200\n 18257: u64 [a3 + 0x68] = a0\n 18260: a0 = u64 [s1 + 0x148]\n 18264: u64 [a3 + 0x70] = a0\n 18267: a0 = u64 [s1 + 0x140]\n 18271: u64 [a3 + 0x78] = a0\n 18274: a1 = s1 + 0x2b40\n 18278: a0 = u64 [s1 + 0x138]\n 18282: u64 [a3 + 0x80] = a0\n 18286: a0 = 0\n 18288: ra = 750, jump @19\n      : @675 [@dyn 375] (gas: 9)\n 18294: a0 = s1 + 0x28d8\n 18298: u64 [a0 + 608] = 0\n 18302: u64 [a0 + 600] = 0\n 18306: u64 [a0 + 592] = 0\n 18310: a3 = a0\n 18312: a0 = 0x20\n 18315: a1 = s1 + 0x2b20\n 18319: u64 [a3 + 584] = 0xb\n 18324: ra = 752, jump @19\n      : @676 [@dyn 376] (gas: 1)\n 18330: t0 = 754, jump @1997\n      : @677 [@dyn 377] (gas: 1)\n 18337: jump @679 if a1 <u a0\n      : @678 (gas: 3)\n 18340: a1 = u64 [s1 + 0x158]\n 18344: u32 [a1 + 0] = 0x40\n 18347: fallthrough\n      : @679 (gas: 4)\n 18348: a0 = sp + 0xffffffffffffffe0\n 18351: a0 = a0 & 0xffffffffffffffe0\n 18354: u64 [s1 + 0x128] = a0\n 18358: t0 = 756, jump @1967\n      : @680 [@dyn 378] (gas: 5)\n 18365: ra = 0x2f6\n 18369: ecalli 9 // 'hash_keccak_256'\n 18371: a3 = u64 [s1 + 0x128]\n 18375: t0 = 0x2f8\n 18379: jump @1912\n      : @681 [@dyn 379] (gas: 2)\n 18383: a3 = u64 [s1 + 0x128]\n 18387: t0 = 760, jump @1912\n      : @682 [@dyn 380] (gas: 14)\n 18394: a1 = u64 [s1 + 0x100]\n 18398: u64 [a1] = a4\n 18400: u64 [a1 + 0x8] = a5\n 18403: u64 [a1 + 0x10] = a2\n 18406: u64 [a1 + 0x18] = a0\n 18409: a0 = 0x30220\n 18414: u64 [s1 + 0x128] = a0\n 18418: i32 a0 = a0 + 0\n 18420: u64 [s1 + 0xf0] = a0\n 18424: ra = 0x2fa\n 18428: ecalli 5 // 'caller'\n 18430: a2 = u64 [s1 + 0x128]\n 18434: t0 = 0x2fc\n 18438: jump @1948\n      : @683 [@dyn 381] (gas: 2)\n 18442: a2 = u64 [s1 + 0x128]\n 18446: t0 = 764, jump @1948\n      : @684 [@dyn 382] (gas: 11)\n 18453: u64 [s1 + 0xd0] = a1\n 18457: a0 = a0 >> 0x20\n 18460: a1 = reverse a2\n 18462: a2 = a1 << 0x20\n 18465: a0 = a0 | a2\n 18468: u64 [s1 + 0xc8] = a0\n 18472: a1 = a1 >> 0x20\n 18475: u64 [s1 + 0xc0] = a1\n 18479: a0 = s1 + 0x2b00\n 18483: a1 = u64 [s1 + 0x100]\n 18487: ra = 766, jump @21\n      : @685 [@dyn 383] (gas: 17)\n 18493: a1 = s1 + 0x28d8\n 18497: a0 = u32 [a1 + 0x23c]\n 18501: a1 = u64 [a1 + 0x240]\n 18505: a0 = a0 << 0x20\n 18508: a2 = u64 [s1 + 0xc0]\n 18512: a0 = a0 | a2\n 18515: a2 = s1 + 0x38d8\n 18519: a3 = a2 + 0x300\n 18523: u64 [a3 + 0x20] = a1\n 18526: a1 = u64 [s1 + 0xc8]\n 18530: u64 [a3 + 0x10] = a1\n 18533: a1 = u64 [s1 + 0xd0]\n 18537: u64 [a3 + 0x8] = a1\n 18540: u64 [a3 + 0x18] = a0\n 18543: a1 = s1 + 0x3be0\n 18547: a0 = u64 [s1 + 0x100]\n 18551: ra = 768, jump @23\n      : @686 [@dyn 384] (gas: 13)\n 18557: a0 = u64 [s1 + 0x138]\n 18561: a2 = s1 + 0x28d8\n 18565: a3 = a2 + 0x200\n 18569: u64 [a3 + 0x20] = a0\n 18572: a0 = u64 [s1 + 0x140]\n 18576: u64 [a3 + 0x18] = a0\n 18579: a0 = u64 [s1 + 0x148]\n 18583: u64 [a3 + 0x10] = a0\n 18586: a1 = s1 + 0x2ae0\n 18590: a0 = u64 [s1 + 0x150]\n 18594: u64 [a3 + 0x8] = a0\n 18597: a0 = 0\n 18599: ra = 770, jump @19\n      : @687 [@dyn 385] (gas: 3)\n 18605: t0 = 0x304\n 18609: a1 = s1 + 0x28d8\n 18613: fallthrough\n      : @688 [@dyn 386] (gas: 8)\n 18614: u64 [a1 + 512] = 0\n 18618: u64 [a1 + 504] = 0\n 18622: u64 [a1 + 488] = 0xb\n 18627: a2 = a1\n 18629: a0 = 0x20\n 18632: a1 = s1 + 0x2ac0\n 18636: u64 [a2 + 496] = 0\n 18640: ra = 774, jump @19\n      : @689 [@dyn 387] (gas: 1)\n 18646: t0 = 776, jump @1997\n      : @690 [@dyn 388] (gas: 1)\n 18653: jump @692 if a1 <u a0\n      : @691 (gas: 3)\n 18656: a0 = u64 [s1 + 0x158]\n 18660: u32 [a0 + 0] = 0x40\n 18663: fallthrough\n      : @692 (gas: 6)\n 18664: a0 = 0xffffffff00000000\n 18674: u64 [s1 + 0xd0] = a0\n 18678: a0 = sp + 0xffffffffffffffe0\n 18681: a0 = a0 & 0xffffffffffffffe0\n 18684: u64 [s1 + 0xc8] = a0\n 18688: t0 = 778, jump @1967\n      : @693 [@dyn 389] (gas: 5)\n 18695: ra = 0x30c\n 18699: ecalli 9 // 'hash_keccak_256'\n 18701: a3 = u64 [s1 + 0xc8]\n 18705: t0 = 0x30e\n 18709: jump @1932\n      : @694 [@dyn 390] (gas: 2)\n 18713: a3 = u64 [s1 + 0xc8]\n 18717: t0 = 782, jump @1932\n      : @695 [@dyn 391] (gas: 7)\n 18724: a1 = u64 [s1 + 0x100]\n 18728: u64 [a1] = a4\n 18730: u64 [a1 + 0x8] = a5\n 18733: u64 [a1 + 0x10] = a2\n 18736: u64 [a1 + 0x18] = a0\n 18739: a0 = s1 + 0x2aa0\n 18743: ra = 784, jump @21\n      : @696 [@dyn 392] (gas: 2)\n 18749: a0 = 0x3000\n 18753: t0 = 786, jump @2011\n      : @697 [@dyn 393] (gas: 15)\n 18760: a0 = u64 [a4 + 0xc8]\n 18764: a1 = u64 [a4 + 0xd0]\n 18768: a2 = u64 [a4 + 0xe0]\n 18772: a3 = u64 [a4 + 0xd8]\n 18776: a0 = a0 & 0xffffffffffffff00\n 18780: a0 = a0 | 0x1\n 18783: a4 = s1 + 0x38d8\n 18787: a5 = a4 + 0x300\n 18791: u64 [a5 + 0x40] = a2\n 18794: u64 [a5 + 0x38] = a3\n 18797: u64 [a5 + 0x30] = a1\n 18800: u64 [a5 + 0x28] = a0\n 18803: a1 = s1 + 0x3c00\n 18807: a0 = u64 [s1 + 0x100]\n 18811: ra = 788, jump @23\n      : @698 [@dyn 394] (gas: 13)\n 18817: a0 = u64 [s1 + 0x138]\n 18821: a2 = s1 + 0x28d8\n 18825: a3 = a2 + 0x100\n 18829: u64 [a3 + 0xc0] = a0\n 18833: a0 = u64 [s1 + 0x140]\n 18837: u64 [a3 + 0xb8] = a0\n 18841: a0 = u64 [s1 + 0x148]\n 18845: u64 [a3 + 0xb0] = a0\n 18849: a1 = s1 + 0x2a80\n 18853: a0 = u64 [s1 + 0x150]\n 18857: u64 [a3 + 0xa8] = a0\n 18861: a0 = 0\n 18863: ra = 790, jump @19\n      : @699 [@dyn 395] (gas: 3)\n 18869: t0 = 0x318\n 18873: a1 = s1 + 0x28d8\n 18877: fallthrough\n      : @700 [@dyn 396] (gas: 8)\n 18878: u64 [a1 + 416] = 0\n 18882: u64 [a1 + 408] = 0\n 18886: u64 [a1 + 392] = 0xb\n 18891: a2 = a1\n 18893: a0 = 0x20\n 18896: a1 = s1 + 0x2a60\n 18900: u64 [a2 + 400] = 0\n 18904: ra = 794, jump @19\n      : @701 [@dyn 397] (gas: 7)\n 18910: a0 = sp + 0xffffffffffffffe0\n 18913: a0 = a0 & 0xffffffffffffffe0\n 18916: u64 [s1 + 0x100] = a0\n 18920: sp = a0\n 18922: a0 = u64 [s1 + 0x158]\n 18926: a0 = i32 [a0]\n 18928: jump @703 if a0 >=u 64\n      : @702 (gas: 3)\n 18932: a0 = u64 [s1 + 0x158]\n 18936: u32 [a0 + 0] = 0x40\n 18939: fallthrough\n      : @703 (gas: 4)\n 18940: a0 = sp + 0xffffffffffffffe0\n 18943: a0 = a0 & 0xffffffffffffffe0\n 18946: u64 [s1 + 0x158] = a0\n 18950: t0 = 796, jump @1967\n      : @704 [@dyn 398] (gas: 5)\n 18957: ra = 0x31e\n 18961: ecalli 9 // 'hash_keccak_256'\n 18963: a3 = u64 [s1 + 0x158]\n 18967: t0 = 0x320\n 18971: jump @1915\n      : @705 [@dyn 399] (gas: 2)\n 18975: a3 = u64 [s1 + 0x158]\n 18979: t0 = 800, jump @1915\n      : @706 [@dyn 400] (gas: 7)\n 18986: a1 = u64 [s1 + 0x100]\n 18990: u64 [a1] = a3\n 18992: u64 [a1 + 0x8] = a2\n 18995: u64 [a1 + 0x10] = a4\n 18998: u64 [a1 + 0x18] = a0\n 19001: a0 = s1 + 0x2a40\n 19005: ra = 802, jump @21\n      : @707 [@dyn 401] (gas: 14)\n 19011: a1 = s1 + 0x28d8\n 19015: a0 = u64 [a1 + 0x178]\n 19019: a1 = u64 [a1 + 0x180]\n 19023: a2 = u64 [s1 + 0xd0]\n 19027: a0 = a0 & a2\n 19030: a1 = a1 & 0xffffffffffffffff\n 19033: a2 = s1 + 0x38d8\n 19037: u64 [a2 + 848] = 0\n 19041: u64 [a2 + 840] = 0\n 19045: u64 [a2 + 0x360] = a1\n 19049: u64 [a2 + 0x358] = a0\n 19053: a1 = s1 + 0x3c20\n 19057: a0 = u64 [s1 + 0x100]\n 19061: ra = 804, jump @23\n      : @708 [@dyn 402] (gas: 8)\n 19067: a0 = s1 + 0x38d8\n 19071: u64 [a0 + 896] = 0\n 19075: u64 [a0 + 888] = 0\n 19079: u64 [a0 + 880] = 0\n 19083: u64 [a0 + 872] = 0x8\n 19088: a0 = s1 + 0x2a20\n 19092: a1 = s1 + 0x3c40\n 19096: ra = 806, jump @21\n      : @709 [@dyn 403] (gas: 13)\n 19102: a4 = s1 + 0x28d8\n 19106: a5 = a4 + 0x100\n 19110: a2 = u64 [a5 + 0x48]\n 19113: a0 = u64 [a5 + 0x50]\n 19116: a1 = u64 [a5 + 0x58]\n 19119: a3 = u64 [a5 + 0x60]\n 19122: u64 [a5 + 0x20] = a3\n 19125: u64 [a5 + 0x18] = a1\n 19128: u64 [a5 + 0x10] = a0\n 19131: a0 = s1 + 0x2a00\n 19135: a1 = s1 + 0x29e0\n 19139: u64 [a5 + 0x8] = a2\n 19142: ra = 808, jump @1715\n      : @710 [@dyn 404] (gas: 2)\n 19148: a0 = 0x3000\n 19152: t0 = 810, jump @2011\n      : @711 [@dyn 405] (gas: 17)\n 19159: a0 = u64 [a4 + 0x28]\n 19162: a1 = u64 [a4 + 0x30]\n 19165: a2 = u64 [a4 + 0x38]\n 19168: a3 = u64 [a4 + 0x40]\n 19171: a4 = s1 + 0x38d8\n 19175: u64 [a4 + 928] = 0\n 19179: u64 [a4 + 920] = 0\n 19183: u64 [a4 + 912] = 0\n 19187: u64 [a4 + 904] = 0x8\n 19192: a5 = a4 + 0x300\n 19196: u64 [a5 + 0xc0] = a3\n 19200: u64 [a5 + 0xb8] = a2\n 19204: u64 [a5 + 0xb0] = a1\n 19208: u64 [a5 + 0xa8] = a0\n 19212: a0 = s1 + 0x3c60\n 19216: a1 = s1 + 0x3c80\n 19220: ra = 812, jump @23\n      : @712 [@dyn 406] (gas: 6)\n 19226: a0 = u64 [s1 + 0xf0]\n 19230: ra = 0x32e\n 19234: ecalli 5 // 'caller'\n 19236: a2 = u64 [s1 + 0x128]\n 19240: t0 = 0x330\n 19244: jump @1943\n      : @713 [@dyn 407] (gas: 2)\n 19248: a2 = u64 [s1 + 0x128]\n 19252: t0 = 816, jump @1943\n      : @714 [@dyn 408] (gas: 9)\n 19259: u64 [s1 + 0x100] = a0\n 19263: a1 = a1 >> 0x20\n 19266: u64 [s1 + 0xd0] = a1\n 19270: a0 = u64 [s1 + 0xf0]\n 19274: ra = 0x332\n 19278: ecalli 0 // 'address'\n 19279: a2 = u64 [s1 + 0x128]\n 19283: t0 = 0x334\n 19287: jump @1947\n      : @715 [@dyn 409] (gas: 2)\n 19291: a2 = u64 [s1 + 0x128]\n 19295: t0 = 820, jump @1947\n      : @716 [@dyn 410] (gas: 24)\n 19302: a4 = s1 + 0x28d8\n 19306: a3 = u64 [s1 + 0xd0]\n 19310: u64 [a4 + 0xd8] = a3\n 19314: a3 = u64 [s1 + 0x100]\n 19318: u64 [a4 + 0xd0] = a3\n 19322: a3 = u64 [s1 + 0x158]\n 19326: u64 [a4 + 0xc8] = a3\n 19330: a3 = u64 [s1 + 0x138]\n 19334: u64 [a4 + 0xc0] = a3\n 19338: a3 = u64 [s1 + 0x140]\n 19342: u64 [a4 + 0xb8] = a3\n 19346: a3 = u64 [s1 + 0x148]\n 19350: u64 [a4 + 0xb0] = a3\n 19354: a3 = u64 [s1 + 0x150]\n 19358: u64 [a4 + 0xa8] = a3\n 19362: u64 [a4 + 224] = 0\n 19366: u64 [a4 + 0xf8] = a1\n 19370: u64 [a4 + 0xf0] = a2\n 19374: u64 [a4 + 0xe8] = a0\n 19378: a0 = s1 + 0x29c0\n 19382: a1 = s1 + 0x29a0\n 19386: a2 = s1 + 0x2980\n 19390: u64 [a4 + 256] = 0\n 19394: ra = 822, jump @1875\n      : @717 [@dyn 411] (gas: 8)\n 19400: a1 = s1 + 0x38d8\n 19404: u64 [a1 + 992] = 0\n 19408: u64 [a1 + 984] = 0\n 19412: u64 [a1 + 976] = 0\n 19416: u64 [a1 + 968] = 0xa\n 19421: a0 = s1 + 0x2960\n 19425: a1 = s1 + 0x3ca0\n 19429: ra = 824, jump @21\n      : @718 [@dyn 412] (gas: 15)\n 19435: a0 = s1 + 0x28d8\n 19439: a1 = u64 [a0 + 0x88]\n 19443: u64 [s1 + 0x158] = a1\n 19447: a1 = u64 [a0 + 0x98]\n 19451: u64 [s1 + 0x100] = a1\n 19455: a1 = u64 [a0 + 0x90]\n 19459: u64 [s1 + 0xd0] = a1\n 19463: a1 = s1 + 0x38d8\n 19467: u64 [a1 + 1024] = 0\n 19471: u64 [a1 + 1016] = 0\n 19475: u64 [a1 + 1008] = 0\n 19479: u64 [a1 + 1000] = 0x9\n 19484: a0 = s1 + 0x2940\n 19488: a1 = s1 + 0x3cc0\n 19492: ra = 826, jump @21\n      : @719 [@dyn 413] (gas: 54)\n 19498: a0 = s1 + 0x28d8\n 19502: t0 = u64 [a0 + 0x68]\n 19505: t1 = u64 [a0 + 0x70]\n 19508: a2 = u64 [a0 + 0x78]\n 19511: a1 = a0\n 19513: a0 = u64 [s1 + 0xd0]\n 19517: a3 = reverse a0\n 19519: a4 = a3 << 0x20\n 19522: a0 = u64 [s1 + 0x100]\n 19526: a5 = reverse a0\n 19528: a5 = a5 >> 0x20\n 19531: a4 = a4 | a5\n 19534: a3 = a3 >> 0x20\n 19537: a0 = u64 [s1 + 0x158]\n 19541: a0 = reverse a0\n 19543: a5 = a0 << 0x20\n 19546: a3 = a3 | a5\n 19549: a5 = u64 [a1 + 0x80]\n 19553: a0 = a0 >> 0x20\n 19556: a1 = u64 [s1 + 0x128]\n 19560: u32 [a1 + 0x10] = a0\n 19563: u64 [a1 + 0x8] = a3\n 19566: u64 [a1] = a4\n 19568: a0 = s1 + 0x38d8\n 19572: u64 [a0 + 0x420] = a5\n 19576: u64 [a0 + 0x418] = a2\n 19580: u64 [a0 + 0x410] = t1\n 19584: u64 [a0 + 0x408] = t0\n 19588: u32 [a0 + 1064] = 0\n 19592: u64 [a0 + 1120] = 0\n 19596: u64 [a0 + 1112] = 0\n 19600: u64 [a0 + 1104] = 0\n 19604: u64 [a0 + 1096] = 0\n 19608: a0 = a1 << 0x20\n 19611: t0 = a0 >> 0x20\n 19614: a0 = s1 + 0x3ce0\n 19618: a0 = a0 << 0x20\n 19621: a0 = a0 >> 0x20\n 19624: a1 = s1 + 0x3d20\n 19628: a1 = a1 << 0x20\n 19631: a3 = a1 | a0\n 19634: a0 = u64 [s1 + 0xf8]\n 19638: a0 = a0 << 0x20\n 19641: a4 = a0 >> 0x20\n 19644: a0 = s1 + 0x3d00\n 19648: a0 = a0 << 0x20\n 19651: a5 = a0 | a4\n 19654: a1 = 0xffffffffffffffff\n 19657: a2 = 0xffffffffffffffff\n 19660: u64 [s1 + 0x158] = t0\n 19664: a0 = t0\n 19666: u64 [s1 + 0x100] = a4\n 19670: ecalli 1 // 'call'\n 19672: fallthrough\n      : @720 (gas: 1)\n 19673: jump @722 if a0 == 0\n      : @721 (gas: 1)\n 19676: jump @1004\n      : @722 (gas: 66)\n 19679: a0 = s1 + 0x38d8\n 19683: u64 [a0 + 1184] = 0\n 19687: u64 [a0 + 1176] = 0\n 19691: u64 [a0 + 1168] = 0\n 19695: u64 [a0 + 1160] = 0\n 19699: a0 = s1 + 0x4000\n 19703: i32 a0 = a0 + 0xfffffffffffffd60\n 19707: ecalli 16 // 'value_transferred'\n 19709: a0 = s1 + 0x38d8\n 19713: u64 [a0 + 1216] = 0\n 19717: u64 [a0 + 1208] = 0\n 19721: u64 [a0 + 1200] = 0\n 19725: u64 [a0 + 1192] = 0\n 19729: a0 = s1 + 0x4000\n 19733: i32 a0 = a0 + 0xfffffffffffffd80\n 19737: ecalli 16 // 'value_transferred'\n 19739: a0 = u64 [s1 + 0xe0]\n 19743: a0 = reverse a0\n 19745: a1 = a0 << 0x20\n 19748: a2 = u64 [s1 + 0xd8]\n 19752: a2 = reverse a2\n 19754: a2 = a2 >> 0x20\n 19757: a1 = a1 | a2\n 19760: a2 = u64 [s1 + 0xe8]\n 19764: a2 = reverse a2\n 19766: a3 = a2 << 0x20\n 19769: a0 = a0 >> 0x20\n 19772: a0 = a0 | a3\n 19775: a5 = s1 + 0x38d8\n 19779: a3 = u64 [a5 + 0x4b0]\n 19783: a4 = u64 [s1 + 0x128]\n 19787: u64 [a4 + 0x8] = a0\n 19790: a0 = u64 [a5 + 0x4b8]\n 19794: u64 [a4] = a1\n 19796: a1 = u64 [a5 + 0x4c0]\n 19800: a2 = a2 >> 0x20\n 19803: u32 [a4 + 0x10] = a2\n 19806: a4 = a5 + 0x400\n 19810: a2 = u64 [a4 + 0xa8]\n 19814: u64 [a4 + 0xe0] = a1\n 19818: u64 [a4 + 0xd8] = a0\n 19822: u64 [a4 + 0xd0] = a3\n 19826: u64 [a4 + 0xc8] = a2\n 19830: u32 [a5 + 1256] = 0\n 19834: u64 [a5 + 1312] = 0\n 19838: u64 [a5 + 1304] = 0\n 19842: u64 [a5 + 1296] = 0\n 19846: u64 [a5 + 1288] = 0\n 19850: a0 = s1 + 0x3da0\n 19854: a0 = a0 << 0x20\n 19857: a0 = a0 >> 0x20\n 19860: a1 = s1 + 0x3de0\n 19864: a1 = a1 << 0x20\n 19867: a3 = a1 | a0\n 19870: a0 = s1 + 0x3dc0\n 19874: a0 = a0 << 0x20\n 19877: a4 = u64 [s1 + 0x100]\n 19881: a5 = a0 | a4\n 19884: a1 = 0xffffffffffffffff\n 19887: a2 = 0xffffffffffffffff\n 19890: a0 = u64 [s1 + 0x158]\n 19894: ecalli 1 // 'call'\n 19896: u64 [s1 + 0xc8] = a0\n 19900: a0 = s1 + 0x2900\n 19904: a1 = 0x40\n 19907: ra = 828, jump @17\n      : @723 [@dyn 414] (gas: 11)\n 19913: a0 = s1 + 0x28d8\n 19917: a1 = u64 [a0 + 0x40]\n 19920: u64 [s1 + 0xf8] = a1\n 19924: a1 = u64 [a0 + 0x38]\n 19927: u64 [s1 + 0x100] = a1\n 19931: a1 = u64 [a0 + 0x30]\n 19934: u64 [s1 + 0xd0] = a1\n 19938: a0 = u64 [a0 + 0x28]\n 19941: u64 [s1 + 0x158] = a0\n 19945: a0 = u64 [s1 + 0xc8]\n 19949: jump @725 if a0 == 0\n      : @724 (gas: 1)\n 19952: jump @1025\n      : @725 (gas: 12)\n 19955: a0 = u64 [s1 + 0x158]\n 19959: a2 = u64 [s1 + 0x100]\n 19963: a0 = a0 | a2\n 19966: a1 = u64 [s1 + 0xf8]\n 19970: a3 = u64 [s1 + 0xd0]\n 19974: a1 = a1 | a3\n 19977: a0 = a0 | a1\n 19980: a0 = a0 >> 0x20\n 19983: a1 = a1 | a2\n 19986: a1 = a1 << 0x20\n 19989: a0 = a0 | a1\n 19992: jump @727 if a0 == 0\n      : @726 (gas: 1)\n 19995: jump @500\n      : @727 (gas: 7)\n 19998: a0 = u64 [s1 + 0xd8]\n 20002: a0 = a0 << 0x20\n 20005: a0 = a0 >> 0x20\n 20008: u64 [s1 + 0x100] = a0\n 20012: t0 = 0x33e\n 20016: a2 = s1 + 0x28d8\n 20020: fallthrough\n      : @728 [@dyn 415] (gas: 11)\n 20021: a0 = u64 [s1 + 0x108]\n 20025: u64 [a2 + 0x8] = a0\n 20028: a0 = u64 [s1 + 0x110]\n 20032: u64 [a2 + 0x10] = a0\n 20035: a0 = u64 [s1 + 0x118]\n 20039: u64 [a2 + 0x18] = a0\n 20042: a1 = s1 + 0x28e0\n 20046: a0 = u64 [s1 + 0x120]\n 20050: u64 [a2 + 0x20] = a0\n 20053: a0 = u64 [s1 + 0x158]\n 20057: ra = 832, jump @19\n      : @729 [@dyn 416] (gas: 6)\n 20063: a0 = u64 [s1 + 0xf0]\n 20067: ra = 0x342\n 20071: ecalli 5 // 'caller'\n 20073: a2 = u64 [s1 + 0x128]\n 20077: t0 = 0x344\n 20081: jump @2003\n      : @730 [@dyn 417] (gas: 2)\n 20085: a2 = u64 [s1 + 0x128]\n 20089: t0 = 836, jump @2003\n      : @731 [@dyn 418] (gas: 43)\n 20096: t0 = a1 | a0\n 20099: a3 = a3 >> 0x20\n 20102: a2 = reverse a2\n 20104: a1 = a2 << 0x20\n 20107: t2 = a1 | a3\n 20110: a2 = a2 >> 0x20\n 20113: t1 = s1 + 0x20d8\n 20117: a0 = u64 [s1 + 0x100]\n 20121: u64 [t1 + 0x798] = a0\n 20125: a0 = u64 [s1 + 0xe0]\n 20129: u64 [t1 + 0x790] = a0\n 20133: a0 = u64 [s1 + 0xe8]\n 20137: u64 [t1 + 0x788] = a0\n 20141: u64 [t1 + 1952] = 0\n 20145: u64 [t1 + 1984] = 0\n 20149: a0 = u64 [s1 + 0x138]\n 20153: u64 [t1 + 0x7e0] = a0\n 20157: a0 = u64 [s1 + 0x140]\n 20161: u64 [t1 + 0x7d8] = a0\n 20165: a0 = u64 [s1 + 0x148]\n 20169: u64 [t1 + 0x7d0] = a0\n 20173: a0 = u64 [s1 + 0x150]\n 20177: u64 [t1 + 0x7c8] = a0\n 20181: a3 = u64 [0x20098]\n 20186: a4 = u64 [0x200a0]\n 20191: a5 = u64 [0x200a8]\n 20196: a0 = u64 [0x200b0]\n 20201: a1 = s1 + 0x28d8\n 20205: u64 [a1] = a3\n 20207: a3 = a1 + 0xffffffffffffff00\n 20211: u64 [a3 + 0xf8] = a4\n 20215: u64 [a3 + 0xf0] = a5\n 20219: u64 [a3 + 0xe8] = a0\n 20223: u64 [t1 + 0x7b8] = a2\n 20227: u64 [t1 + 0x7b0] = t2\n 20231: a1 = 0x20\n 20234: a2 = s1 + 0x28c0\n 20238: a3 = s1 + 0x28a0\n 20242: a4 = s1 + 0x2880\n 20246: a5 = s1 + 0x2860\n 20250: u64 [t1 + 0x7a8] = t0\n 20254: a0 = u64 [s1 + 0x158]\n 20258: ra = 838, jump @31\n      : @732 [@dyn 419] (gas: 5)\n 20264: a0 = 0\n 20266: a1 = u64 [s1 + 0x130]\n 20270: a2 = 0\n 20272: ecalli 13 // 'seal_return'\n 20274: jump @1373\n      : @733 (gas: 3)\n 20277: a0 = u64 [s1 + 0x158]\n 20281: a0 = i32 [a0]\n 20283: jump @735 if a0 >u 67\n      : @734 (gas: 1)\n 20287: jump @1249\n      : @735 (gas: 25)\n 20290: a0 = s1 + 0x4000\n 20294: i32 a0 = a0 + 0xfffffffffffffe20\n 20298: a1 = 0x4\n 20301: ecalli 3 // 'call_data_load'\n 20303: a1 = s1 + 0x38d8\n 20307: a2 = a1 + 0x500\n 20311: a0 = u64 [a2 + 0x60]\n 20314: u64 [s1 + 0x140] = a0\n 20318: a0 = u64 [a2 + 0x58]\n 20321: u64 [s1 + 0x148] = a0\n 20325: a0 = u64 [a2 + 0x50]\n 20328: u64 [s1 + 0x150] = a0\n 20332: a0 = u64 [a2 + 0x48]\n 20335: u64 [s1 + 0x158] = a0\n 20339: a0 = sp + 0xffffffffffffffe0\n 20342: a0 = a0 & 0xffffffffffffffe0\n 20345: u64 [s1 + 0x130] = a0\n 20349: sp = a0\n 20351: a0 = s1 + 0x4000\n 20355: i32 a0 = a0 + 0xfffffffffffffe40\n 20359: a1 = 0x24\n 20362: ecalli 3 // 'call_data_load'\n 20364: t0 = 0x348\n 20368: a1 = s1 + 0x38d8\n 20372: fallthrough\n      : @736 [@dyn 420] (gas: 27)\n 20373: a4 = a1 + 0x500\n 20377: a2 = u64 [a4 + 0x80]\n 20381: a0 = u64 [a4 + 0x78]\n 20384: a3 = u64 [a4 + 0x70]\n 20387: a1 = u64 [a4 + 0x68]\n 20390: u64 [s1 + 0xf8] = a2\n 20394: a4 = u64 [s1 + 0x130]\n 20398: u64 [a4 + 0x18] = a2\n 20401: u64 [s1 + 0x108] = a0\n 20405: u64 [a4 + 0x10] = a0\n 20408: u64 [s1 + 0xf0] = a3\n 20412: u64 [a4 + 0x8] = a3\n 20415: u64 [s1 + 0x100] = a1\n 20419: u64 [a4] = a1\n 20421: a0 = s1 + 0x30d8\n 20425: a1 = u64 [s1 + 0x140]\n 20429: u64 [a0] = a1\n 20431: a1 = u64 [s1 + 0x148]\n 20435: a3 = a0 + 0xffffffffffffff00\n 20439: u64 [a3 + 0xf8] = a1\n 20443: a1 = u64 [s1 + 0x150]\n 20447: u64 [a3 + 0xf0] = a1\n 20451: a1 = s1 + 0x30c0\n 20455: a2 = u64 [s1 + 0x158]\n 20459: u64 [a3 + 0xe8] = a2\n 20463: a0 = 0\n 20465: ra = 842, jump @19\n      : @737 [@dyn 421] (gas: 3)\n 20471: t0 = 0x34c\n 20475: a2 = s1 + 0x28d8\n 20479: fallthrough\n      : @738 [@dyn 422] (gas: 7)\n 20480: u64 [a2 + 2016] = 0\n 20484: u64 [a2 + 2008] = 0\n 20488: u64 [a2 + 1992] = 0xb\n 20493: a0 = 0x20\n 20496: a1 = s1 + 0x30a0\n 20500: u64 [a2 + 2000] = 0\n 20504: ra = 846, jump @19\n      : @739 [@dyn 423] (gas: 4)\n 20510: a0 = 0x2020c\n 20515: u64 [s1 + 0x110] = a0\n 20519: a0 = i32 [0x2020c]\n 20524: jump @741 if a0 >u 63\n      : @740 (gas: 3)\n 20528: a1 = u64 [s1 + 0x110]\n 20532: u32 [a1 + 0] = 0x40\n 20535: fallthrough\n      : @741 (gas: 14)\n 20536: a0 = sp + 0xffffffffffffffe0\n 20539: a2 = a0 & 0xffffffffffffffe0\n 20542: u64 [s1 + 0x138] = a2\n 20546: sp = a2\n 20548: a0 = 0x20220\n 20553: i32 a0 = a0 + 0\n 20555: i32 a2 = a2 + 0\n 20557: a1 = 0x40\n 20560: u64 [s1 + 0xe8] = a0\n 20564: ra = 0x350\n 20568: ecalli 9 // 'hash_keccak_256'\n 20570: a3 = u64 [s1 + 0x138]\n 20574: t0 = 0x352\n 20578: jump @1912\n      : @742 [@dyn 424] (gas: 2)\n 20581: a3 = u64 [s1 + 0x138]\n 20585: t0 = 850, jump @1912\n      : @743 [@dyn 425] (gas: 9)\n 20591: a1 = s1 + 0x38d8\n 20595: a3 = a1 + 0x500\n 20599: u64 [a3 + 0x88] = a4\n 20603: u64 [a3 + 0x90] = a5\n 20607: u64 [a3 + 0x98] = a2\n 20611: u64 [a3 + 0xa0] = a0\n 20615: a0 = s1 + 0x3080\n 20619: a1 = s1 + 0x3e60\n 20623: ra = 852, jump @21\n      : @744 [@dyn 426] (gas: 14)\n 20629: a0 = s1 + 0x28d8\n 20633: a1 = u64 [a0 + 0x7b0]\n 20637: u64 [s1 + 0x128] = a1\n 20641: a1 = u64 [a0 + 0x7a8]\n 20645: u64 [s1 + 0x120] = a1\n 20649: a0 = u32 [a0 + 0x7b8]\n 20653: u64 [s1 + 0x118] = a0\n 20657: a0 = 0x30220\n 20662: u64 [s1 + 0x138] = a0\n 20666: i32 a0 = a0 + 0\n 20668: u64 [s1 + 0xe0] = a0\n 20672: ra = 0x356\n 20676: ecalli 5 // 'caller'\n 20678: fallthrough\n      : @745 [@dyn 427] (gas: 3)\n 20679: a5 = s1 + 0x100\n 20683: a2 = u64 [a5 + 0x38]\n 20686: t0 = 856, jump @1913\n      : @746 [@dyn 428] (gas: 9)\n 20692: a2 = u64 [a5 + 0x18]\n 20695: a1 = a1 ^ a2\n 20698: a2 = u64 [a5 + 0x20]\n 20701: a0 = a0 ^ a2\n 20704: a0 = a0 | a1\n 20707: a1 = u64 [a5 + 0x28]\n 20710: a1 = a1 ^ a3\n 20713: a0 = a0 | a1\n 20716: jump @748 if a0 == 0\n      : @747 (gas: 1)\n 20719: jump @959\n      : @748 (gas: 9)\n 20722: a0 = s1 + 0x38d8\n 20726: u64 [a0 + 1472] = 0\n 20730: u64 [a0 + 1464] = 0\n 20734: u64 [a0 + 1456] = 0\n 20738: u64 [a0 + 1448] = 0\n 20742: a0 = s1 + 0x4000\n 20746: i32 a0 = a0 + 0xfffffffffffffe80\n 20750: ecalli 16 // 'value_transferred'\n 20752: fallthrough\n      : @749 (gas: 18)\n 20753: a3 = s1 + 0x38d8\n 20757: a4 = a3 + 0x500\n 20761: a0 = u64 [a4 + 0xc0]\n 20765: a1 = u64 [a4 + 0xb0]\n 20769: a2 = u64 [a4 + 0xa8]\n 20773: a3 = u64 [a4 + 0xb8]\n 20777: a4 = u64 [s1 + 0xf8]\n 20781: a0 = a0 ^ a4\n 20784: a4 = u64 [s1 + 0xf0]\n 20788: a1 = a1 ^ a4\n 20791: a0 = a0 | a1\n 20794: a1 = u64 [s1 + 0x108]\n 20798: a1 = a1 ^ a3\n 20801: a3 = u64 [s1 + 0x100]\n 20805: a2 = a2 ^ a3\n 20808: a1 = a1 | a2\n 20811: a0 = a0 | a1\n 20814: jump @751 if a0 != 0\n      : @750 (gas: 1)\n 20817: jump @1250\n      : @751 (gas: 3)\n 20820: a0 = s1 + 0x2fa0\n 20824: a1 = 0x40\n 20827: ra = 858, jump @17\n      : @752 [@dyn 429] (gas: 7)\n 20833: a0 = s1 + 0x28d8\n 20837: a5 = a0 + 0x600\n 20841: a3 = u64 [a5 + 0xe0]\n 20845: a4 = u64 [a5 + 0xd8]\n 20849: a2 = u64 [a5 + 0xd0]\n 20853: a1 = u64 [a5 + 0xc8]\n 20857: t0 = 860, jump @1916\n      : @753 [@dyn 430] (gas: 1)\n 20863: jump @755 if a0 == 0\n      : @754 (gas: 1)\n 20866: jump @500\n      : @755 (gas: 3)\n 20869: t0 = 0x35e\n 20873: a2 = s1 + 0x28d8\n 20877: fallthrough\n      : @756 [@dyn 431] (gas: 8)\n 20878: u64 [a2 + 1720] = 0\n 20882: u64 [a2 + 1712] = 0\n 20886: u64 [a2 + 1704] = 0\n 20890: a0 = 0x8c379a000000000\n 20900: a1 = s1 + 0x2f80\n 20904: u64 [a2 + 0x6c0] = a0\n 20908: a0 = u64 [s1 + 0x158]\n 20912: ra = 864, jump @19\n      : @757 [@dyn 432] (gas: 1)\n 20918: t0 = 866, jump @1910\n      : @758 [@dyn 433] (gas: 1)\n 20924: jump @760 if a0 != 0\n      : @759 (gas: 1)\n 20927: jump @500\n      : @760 (gas: 1)\n 20930: t0 = 868, jump @1987\n      : @761 [@dyn 434] (gas: 6)\n 20937: u64 [a2 + 1696] = 0\n 20941: u64 [a2 + 1688] = 0\n 20945: u64 [a2 + 1672] = 0x20\n 20950: a1 = s1 + 0x2f60\n 20954: u64 [a2 + 1680] = 0\n 20958: ra = 870, jump @19\n      : @762 [@dyn 435] (gas: 4)\n 20964: a2 = s1 + 0x100\n 20968: a0 = u64 [a2 + 0x40]\n 20971: a0 = a0 + 0xffffffffffffffdc\n 20974: t0 = 872, jump @1909\n      : @763 [@dyn 436] (gas: 1)\n 20980: jump @765 if a0 != 0\n      : @764 (gas: 1)\n 20983: jump @500\n      : @765 (gas: 1)\n 20986: t0 = 874, jump @1977\n      : @766 [@dyn 437] (gas: 6)\n 20993: u64 [a2 + 1664] = 0\n 20997: u64 [a2 + 1656] = 0\n 21001: u64 [a2 + 1640] = 0x23\n 21006: a1 = s1 + 0x2f40\n 21010: u64 [a2 + 1648] = 0\n 21014: ra = 876, jump @19\n      : @767 [@dyn 438] (gas: 5)\n 21020: a0 = 0x100000000\n 21030: a2 = s1 + 0x100\n 21034: u64 [a2 + 0x40] = a0\n 21037: a0 = 0xffffffbc\n 21047: t0 = 878, jump @1909\n      : @768 [@dyn 439] (gas: 1)\n 21053: jump @770 if a0 != 0\n      : @769 (gas: 1)\n 21056: jump @500\n      : @770 (gas: 14)\n 21059: a0 = u64 [s1 + 0x158]\n 21063: i32 a0 = a0 + 0x44\n 21066: a1 = u64 [0x20038]\n 21071: a4 = s1 + 0x28d8\n 21075: a5 = a4 + 0x600\n 21079: u64 [a5 + 0x60] = a1\n 21082: a1 = u64 [0x20040]\n 21087: a2 = u64 [0x20048]\n 21092: a3 = u64 [0x20050]\n 21097: u64 [a5 + 0x58] = a1\n 21100: u64 [a5 + 0x50] = a2\n 21103: a1 = s1 + 0x2f20\n 21107: u64 [a5 + 0x48] = a3\n 21110: ra = 880, jump @19\n      : @771 [@dyn 440] (gas: 4)\n 21116: a2 = s1 + 0x100\n 21120: a0 = u64 [a2 + 0x40]\n 21123: a0 = a0 + 0xffffffffffffff9c\n 21126: t0 = 882, jump @1909\n      : @772 [@dyn 441] (gas: 1)\n 21132: jump @774 if a0 != 0\n      : @773 (gas: 1)\n 21135: jump @500\n      : @774 (gas: 11)\n 21138: a0 = u64 [s1 + 0x158]\n 21142: i32 a0 = a0 + 0x64\n 21145: a2 = s1 + 0x28d8\n 21149: u64 [a2 + 1592] = 0\n 21153: u64 [a2 + 1584] = 0\n 21157: a1 = 0x6c75650000000000\n 21167: u64 [a2 + 0x640] = a1\n 21171: a1 = s1 + 0x2f00\n 21175: u64 [a2 + 1576] = 0\n 21179: ra = 0x542\n 21183: jump @19\n      : @775 (gas: 10)\n 21186: a0 = s1 + 0x38d8\n 21190: u64 [a0 + 1728] = 0\n 21194: u64 [a0 + 1720] = 0\n 21198: u64 [a0 + 1712] = 0\n 21202: u64 [a0 + 1704] = 0\n 21206: a0 = s1 + 0x4000\n 21210: i32 a0 = a0 + 0xffffffffffffff80\n 21213: ra = 0x374\n 21217: ecalli 16 // 'value_transferred'\n 21219: fallthrough\n      : @776 [@dyn 442] (gas: 3)\n 21220: a3 = s1 + 0x38d8\n 21224: a4 = a3 + 0x600\n 21228: t0 = 886, jump @2005\n      : @777 [@dyn 443] (gas: 1)\n 21235: jump @779 if a0 == 0\n      : @778 (gas: 1)\n 21238: jump @1303\n      : @779 (gas: 4)\n 21241: a0 = u64 [s1 + 0x158]\n 21245: a0 = i32 [a0]\n 21247: a1 = 0x43\n 21250: jump @781 if a1 <u a0\n      : @780 (gas: 1)\n 21253: jump @1304\n      : @781 (gas: 6)\n 21256: a0 = 0xffffffff\n 21266: u64 [s1 + 0x150] = a0\n 21270: a0 = s1 + 0x31e0\n 21274: ra = 0x378\n 21278: t0 = 0x62e\n 21282: jump @2009\n      : @782 [@dyn 444] (gas: 11)\n 21286: a1 = s1 + 0x30d8\n 21290: a0 = u64 [a1 + 0x108]\n 21294: u64 [s1 + 0x158] = a0\n 21298: a0 = u64 [a1 + 0x110]\n 21302: u64 [s1 + 0x130] = a0\n 21306: a0 = u32 [a1 + 0x118]\n 21310: u64 [s1 + 0x128] = a0\n 21314: a0 = s1 + 0x31c0\n 21318: ra = 0x37a\n 21322: t0 = 0x638\n 21326: jump @2009\n      : @783 [@dyn 445] (gas: 18)\n 21330: a1 = s1 + 0x30d8\n 21334: a0 = u64 [a1 + 0xf8]\n 21338: u64 [s1 + 0x148] = a0\n 21342: a0 = u64 [a1 + 0xf0]\n 21346: u64 [s1 + 0x140] = a0\n 21350: a0 = u64 [a1 + 0xe8]\n 21354: u64 [s1 + 0x138] = a0\n 21358: u64 [a1 + 224] = 0\n 21362: a0 = u64 [s1 + 0x128]\n 21366: u64 [a1 + 0xd8] = a0\n 21370: a0 = u64 [s1 + 0x130]\n 21374: u64 [a1 + 0xd0] = a0\n 21378: a2 = a1\n 21380: a1 = s1 + 0x31a0\n 21384: a0 = u64 [s1 + 0x158]\n 21388: u64 [a2 + 0xc8] = a0\n 21392: a0 = 0\n 21394: ra = 892, jump @19\n      : @784 [@dyn 446] (gas: 9)\n 21400: a1 = s1 + 0x30d8\n 21404: u64 [a1 + 192] = 0\n 21408: u64 [a1 + 184] = 0\n 21412: u64 [a1 + 168] = 0x5\n 21417: a2 = a1\n 21419: a0 = 0x20\n 21422: a1 = s1 + 0x3180\n 21426: u64 [a2 + 176] = 0\n 21430: ra = 894, jump @19\n      : @785 [@dyn 447] (gas: 4)\n 21436: a0 = 0x2020c\n 21441: u64 [s1 + 0x158] = a0\n 21445: a0 = i32 [0x2020c]\n 21450: jump @787 if a0 >u 63\n      : @786 (gas: 3)\n 21454: a1 = u64 [s1 + 0x158]\n 21458: u32 [a1 + 0] = 0x40\n 21461: fallthrough\n      : @787 (gas: 14)\n 21462: a0 = sp + 0xffffffffffffffe0\n 21465: a2 = a0 & 0xffffffffffffffe0\n 21468: u64 [s1 + 0x128] = a2\n 21472: sp = a2\n 21474: a0 = 0x20220\n 21479: i32 a0 = a0 + 0\n 21481: i32 a2 = a2 + 0\n 21483: a1 = 0x40\n 21486: u64 [s1 + 0x130] = a0\n 21490: ra = 0x380\n 21494: ecalli 9 // 'hash_keccak_256'\n 21496: a3 = u64 [s1 + 0x128]\n 21500: t0 = 0x382\n 21504: jump @2019\n      : @788 [@dyn 448] (gas: 2)\n 21508: a3 = u64 [s1 + 0x128]\n 21512: t0 = 898, jump @2019\n      : @789 [@dyn 449] (gas: 26)\n 21519: u64 [s1 + 0x120] = a0\n 21523: a0 = reverse a1\n 21525: u64 [s1 + 0x118] = a0\n 21529: a0 = reverse a2\n 21531: u64 [s1 + 0x110] = a0\n 21535: a0 = reverse a3\n 21537: u64 [s1 + 0x108] = a0\n 21541: a0 = sp + 0xffffffffffffffe0\n 21544: a0 = a0 & 0xffffffffffffffe0\n 21547: u64 [s1 + 0x128] = a0\n 21551: sp = a0\n 21553: a0 = u64 [s1 + 0x138]\n 21557: a0 = a0 & 0xffffffffffffffff\n 21560: a2 = u64 [s1 + 0x140]\n 21564: a1 = a2 & 0xffffffffffffffff\n 21567: a2 = u64 [s1 + 0x150]\n 21571: a3 = u64 [s1 + 0x148]\n 21575: a2 = a2 & a3\n 21578: a3 = s1 + 0x30d8\n 21582: u64 [a3 + 160] = 0\n 21586: u64 [a3 + 0x98] = a2\n 21590: u64 [a3 + 0x90] = a1\n 21594: a1 = s1 + 0x3160\n 21598: u64 [a3 + 0x88] = a0\n 21602: a0 = 0\n 21604: ra = 900, jump @19\n      : @790 [@dyn 450] (gas: 13)\n 21610: a0 = u64 [s1 + 0x108]\n 21614: a1 = s1 + 0x30d8\n 21618: u64 [a1 + 0x80] = a0\n 21622: a0 = u64 [s1 + 0x110]\n 21626: u64 [a1 + 0x78] = a0\n 21629: a0 = u64 [s1 + 0x118]\n 21633: u64 [a1 + 0x70] = a0\n 21636: a3 = a1\n 21638: a0 = 0x20\n 21641: a1 = s1 + 0x3140\n 21645: a2 = u64 [s1 + 0x120]\n 21649: u64 [a3 + 0x68] = a2\n 21652: ra = 902, jump @19\n      : @791 [@dyn 451] (gas: 3)\n 21658: a0 = u64 [s1 + 0x158]\n 21662: a0 = i32 [a0]\n 21664: jump @793 if a0 >u 63\n      : @792 (gas: 3)\n 21668: a0 = u64 [s1 + 0x158]\n 21672: u32 [a0 + 0] = 0x40\n 21675: fallthrough\n      : @793 (gas: 4)\n 21676: a0 = sp + 0xffffffffffffffe0\n 21679: a0 = a0 & 0xffffffffffffffe0\n 21682: u64 [s1 + 0x158] = a0\n 21686: t0 = 904, jump @1967\n      : @794 [@dyn 452] (gas: 5)\n 21693: ra = 0x38a\n 21697: ecalli 9 // 'hash_keccak_256'\n 21699: a3 = u64 [s1 + 0x158]\n 21703: t0 = 0x38c\n 21707: jump @1921\n      : @795 [@dyn 453] (gas: 2)\n 21710: a3 = u64 [s1 + 0x158]\n 21714: t0 = 908, jump @1921\n      : @796 [@dyn 454] (gas: 7)\n 21720: a1 = u64 [s1 + 0x128]\n 21724: u64 [a1 + 0x18] = a3\n 21727: u64 [a1 + 0x10] = a2\n 21730: u64 [a1 + 0x8] = a4\n 21733: u64 [a1] = a0\n 21735: a0 = s1 + 0x3120\n 21739: ra = 910, jump @21\n      : @797 [@dyn 455] (gas: 6)\n 21745: a0 = s1 + 0x30d8\n 21749: a0 = u64 [a0 + 0x48]\n 21752: u64 [s1 + 0x158] = a0\n 21756: a0 = s1 + 0x3100\n 21760: a1 = 0x40\n 21763: ra = 912, jump @17\n      : @798 [@dyn 456] (gas: 6)\n 21769: a3 = s1 + 0x30d8\n 21773: a0 = u64 [a3 + 0x40]\n 21776: a1 = u64 [a3 + 0x38]\n 21779: a2 = u64 [a3 + 0x30]\n 21782: a4 = u64 [a3 + 0x28]\n 21785: t0 = 914, jump @1927\n      : @799 [@dyn 457] (gas: 1)\n 21791: jump @801 if a0 == 0\n      : @800 (gas: 1)\n 21794: jump @500\n      : @801 (gas: 13)\n 21797: a3 = a4\n 21799: a0 = u8 [s1 + 0x158]\n 21803: a0 = a0 >u 0\n 21805: a2 = s1 + 0x30d8\n 21809: a5 = 0\n 21811: u64 [a2 + 32] = 0\n 21814: u64 [a2 + 24] = 0\n 21817: u64 [a2 + 0x8] = a0\n 21820: a1 = s1 + 0x30e0\n 21824: u64 [a2 + 16] = 0\n 21827: a0 = a4\n 21829: u64 [s1 + 0x150] = a3\n 21833: ra = 916, jump @19\n      : @802 [@dyn 458] (gas: 4)\n 21839: a1 = 0x20\n 21842: a0 = u64 [s1 + 0x150]\n 21846: ra = 0x530\n 21850: jump @34\n      : @803 (gas: 11)\n 21853: a0 = s1 + 0x30d8\n 21857: u64 [a0 + 448] = 0\n 21861: u64 [a0 + 440] = 0\n 21865: u64 [a0 + 432] = 0\n 21869: u64 [a0 + 424] = 0\n 21873: a0 = s1 + 0x3000\n 21877: i32 a0 = a0 + 0x280\n 21881: ra = 0x396\n 21885: ecalli 16 // 'value_transferred'\n 21887: t0 = 0x398\n 21891: jump @2017\n      : @804 [@dyn 459] (gas: 1)\n 21895: t0 = 920, jump @2017\n      : @805 [@dyn 460] (gas: 1)\n 21902: t0 = 922, jump @2005\n      : @806 [@dyn 461] (gas: 1)\n 21909: jump @808 if a0 == 0\n      : @807 (gas: 1)\n 21912: jump @1305\n      : @808 (gas: 3)\n 21915: a0 = u64 [s1 + 0x158]\n 21919: a0 = i32 [a0]\n 21921: jump @810 if a0 >u 3\n      : @809 (gas: 1)\n 21925: jump @1306\n      : @810 (gas: 3)\n 21928: a0 = s1 + 0x360\n 21932: a1 = 0x40\n 21935: ra = 924, jump @17\n      : @811 [@dyn 462] (gas: 16)\n 21941: a0 = u64 [s1 + 0x378]\n 21945: u64 [s1 + 0xb8] = a0\n 21949: a0 = u64 [s1 + 0x370]\n 21953: u64 [s1 + 0xc0] = a0\n 21957: a0 = u64 [s1 + 0x368]\n 21961: u64 [s1 + 0xc8] = a0\n 21965: a0 = u64 [s1 + 0x360]\n 21969: u64 [s1 + 0xd0] = a0\n 21973: a0 = s1 + 0x30d8\n 21977: u64 [a0 + 480] = 0\n 21981: u64 [a0 + 472] = 0\n 21985: u64 [a0 + 464] = 0\n 21989: u64 [a0 + 456] = 0\n 21993: a0 = s1 + 0x340\n 21997: a1 = s1 + 0x32a0\n 22001: ra = 926, jump @21\n      : @812 [@dyn 463] (gas: 17)\n 22007: a4 = s1 + 0x300\n 22011: a0 = u64 [a4 + 0x58]\n 22014: a1 = u64 [a4 + 0x50]\n 22017: a2 = u64 [a4 + 0x48]\n 22020: a3 = u64 [a4 + 0x40]\n 22023: a5 = s1 + 0x100\n 22027: u64 [a5 + 0x50] = a0\n 22030: u64 [a4 + 0x18] = a0\n 22033: u64 [a5 + 0x48] = a1\n 22036: u64 [a4 + 0x10] = a1\n 22039: u64 [a5 + 0x40] = a2\n 22042: u64 [a4 + 0x8] = a2\n 22045: a0 = s1 + 0x320\n 22049: a1 = s1 + 0x300\n 22053: u64 [a5 + 0x58] = a3\n 22056: u64 [a4] = a3\n 22058: ra = 928, jump @1557\n      : @813 [@dyn 464] (gas: 1)\n 22064: t0 = 930, jump @1994\n      : @814 [@dyn 465] (gas: 1)\n 22071: jump @816 if a0 == 0\n      : @815 (gas: 1)\n 22074: jump @500\n      : @816 (gas: 17)\n 22077: a4 = s1 + 0x300\n 22081: a0 = u64 [a4 + 0x38]\n 22084: a2 = u64 [a4 + 0x30]\n 22087: a1 = u64 [a4 + 0x28]\n 22090: a3 = u64 [a4 + 0x20]\n 22093: u64 [s1 + 0xf8] = a3\n 22097: a4 = s1 + 0x200\n 22101: u64 [a4 + 0xe0] = a3\n 22105: u64 [s1 + 0x108] = a1\n 22109: u64 [a4 + 0xe8] = a1\n 22113: u64 [s1 + 0x100] = a2\n 22117: u64 [a4 + 0xf0] = a2\n 22121: a1 = s1 + 0x2e0\n 22125: u64 [s1 + 0x110] = a0\n 22129: u64 [a4 + 0xf8] = a0\n 22133: a0 = u64 [s1 + 0xd0]\n 22137: ra = 932, jump @19\n      : @817 [@dyn 466] (gas: 3)\n 22143: a0 = u64 [s1 + 0x158]\n 22147: a0 = a0 & 0x1\n 22150: jump @819 if a0 == 0\n      : @818 (gas: 1)\n 22153: jump @1012\n      : @819 (gas: 1)\n 22156: t0 = 934, jump @1978\n      : @820 [@dyn 467] (gas: 1)\n 22163: jump @822 if a1 != 0\n      : @821 (gas: 1)\n 22166: jump @500\n      : @822 (gas: 14)\n 22169: a0 = u64 [s1 + 0x158]\n 22173: a1 = a0 & 0xffffffffffffff00\n 22177: a0 = u64 [s1 + 0xd0]\n 22181: i32 a0 = a0 + 0x20\n 22184: a2 = u64 [s1 + 0x140]\n 22188: a3 = s1 + 0x200\n 22192: u64 [a3 + 0x68] = a2\n 22195: u64 [a3 + 0x60] = a1\n 22198: a1 = u64 [s1 + 0x148]\n 22202: u64 [a3 + 0x70] = a1\n 22205: a1 = s1 + 0x260\n 22209: a2 = u64 [s1 + 0x150]\n 22213: u64 [a3 + 0x78] = a2\n 22216: ra = 936, jump @19\n      : @823 [@dyn 468] (gas: 1)\n 22222: t0 = 938, jump @1965\n      : @824 [@dyn 469] (gas: 1)\n 22229: jump @1051\n      : @825 (gas: 11)\n 22232: a0 = s1 + 0x30d8\n 22236: u64 [a0 + 512] = 0\n 22240: u64 [a0 + 504] = 0\n 22244: u64 [a0 + 496] = 0\n 22248: u64 [a0 + 488] = 0\n 22252: a0 = s1 + 0x3000\n 22256: i32 a0 = a0 + 0x2c0\n 22260: ra = 0x3ac\n 22264: ecalli 16 // 'value_transferred'\n 22266: t0 = 0x3ae\n 22270: jump @2017\n      : @826 [@dyn 470] (gas: 1)\n 22274: t0 = 942, jump @2017\n      : @827 [@dyn 471] (gas: 8)\n 22281: a0 = u64 [a4 + 0xf8]\n 22285: a1 = u64 [a3 + 0x200]\n 22289: a2 = u64 [a4 + 0xf0]\n 22293: a3 = u64 [a4 + 0xe8]\n 22297: a1 = a1 | a2\n 22300: a0 = a0 | a3\n 22303: a0 = a0 | a1\n 22306: jump @829 if a0 == 0\n      : @828 (gas: 1)\n 22309: jump @1307\n      : @829 (gas: 1)\n 22312: t0 = 944, jump @2014\n      : @830 [@dyn 472] (gas: 1)\n 22319: jump @832 if a1 <u a0\n      : @831 (gas: 1)\n 22322: jump @1308\n      : @832 (gas: 21)\n 22325: a0 = s1 + 0x3000\n 22329: i32 a0 = a0 + 0x2e0\n 22333: a1 = 0x4\n 22336: ecalli 3 // 'call_data_load'\n 22338: a0 = s1 + 0x30d8\n 22342: a4 = a0 + 0x200\n 22346: a2 = u64 [a4 + 0x8]\n 22349: u64 [s1 + 0x158] = a2\n 22353: a1 = u64 [a4 + 0x10]\n 22356: u64 [s1 + 0x150] = a1\n 22360: a3 = u64 [a4 + 0x18]\n 22363: u64 [s1 + 0x148] = a3\n 22367: a0 = u64 [a4 + 0x20]\n 22370: u64 [s1 + 0x140] = a0\n 22374: u64 [s1 + 0x438] = a0\n 22378: u64 [s1 + 0x430] = a3\n 22382: u64 [s1 + 0x428] = a1\n 22386: a0 = s1 + 0x440\n 22390: a1 = s1 + 0x420\n 22394: u64 [s1 + 0x420] = a2\n 22398: ra = 946, jump @1823\n      : @833 [@dyn 473] (gas: 13)\n 22404: a2 = s1 + 0x100\n 22408: a0 = u64 [a2 + 0x40]\n 22411: a3 = s1 + 0x400\n 22415: u64 [a3 + 0x18] = a0\n 22418: a0 = u64 [a2 + 0x48]\n 22421: u64 [a3 + 0x10] = a0\n 22424: a0 = u64 [a2 + 0x50]\n 22427: u64 [a3 + 0x8] = a0\n 22430: a1 = s1 + 0x400\n 22434: a0 = u64 [a2 + 0x58]\n 22437: u64 [a3] = a0\n 22439: a0 = 0\n 22441: ra = 948, jump @19\n      : @834 [@dyn 474] (gas: 7)\n 22447: u64 [s1 + 1016] = 0\n 22451: u64 [s1 + 1008] = 0\n 22455: u64 [s1 + 992] = 0x4\n 22460: a0 = 0x20\n 22463: a1 = s1 + 0x3e0\n 22467: u64 [s1 + 1000] = 0\n 22471: ra = 950, jump @19\n      : @835 [@dyn 475] (gas: 2)\n 22477: a1 = i32 [0x2020c]\n 22482: jump @837 if a1 >u 63\n      : @836 (gas: 4)\n 22486: a1 = 0x40\n 22489: u32 [0x2020c] = a1\n 22494: t0 = 0x3b8\n 22498: jump @2006\n      : @837 (gas: 1)\n 22502: t0 = 952, jump @2006\n      : @838 [@dyn 476] (gas: 8)\n 22509: a0 = 0x20220\n 22514: i32 a0 = a0 + 0\n 22516: i32 a2 = a2 + 0\n 22518: a1 = 0x40\n 22521: ra = 0x3ba\n 22525: ecalli 9 // 'hash_keccak_256'\n 22527: t0 = 0x3bc\n 22531: jump @1958\n      : @839 [@dyn 477] (gas: 1)\n 22534: t0 = 956, jump @1958\n      : @840 [@dyn 478] (gas: 8)\n 22540: a5 = a4 + 0x200\n 22544: u64 [a5 + 0x40] = a3\n 22547: u64 [a5 + 0x38] = a2\n 22550: u64 [a5 + 0x30] = a1\n 22553: u64 [a5 + 0x28] = a0\n 22556: a0 = s1 + 0x3c0\n 22560: a1 = s1 + 0x3300\n 22564: ra = 958, jump @21\n      : @841 [@dyn 479] (gas: 10)\n 22570: a0 = u64 [s1 + 0x3d0]\n 22574: a1 = s1 + 0x100\n 22578: u64 [a1 + 0x48] = a0\n 22581: a0 = u64 [s1 + 0x3c8]\n 22585: u64 [a1 + 0x58] = a0\n 22588: a0 = u64 [s1 + 0x3c0]\n 22592: u64 [a1 + 0x50] = a0\n 22595: a0 = s1 + 0x3a0\n 22599: a1 = 0x40\n 22602: ra = 960, jump @17\n      : @842 [@dyn 480] (gas: 6)\n 22608: a3 = s1 + 0x300\n 22612: a0 = u64 [a3 + 0xb8]\n 22616: a1 = u64 [a3 + 0xb0]\n 22620: a2 = u64 [a3 + 0xa8]\n 22624: a4 = u64 [a3 + 0xa0]\n 22628: t0 = 962, jump @1927\n      : @843 [@dyn 481] (gas: 1)\n 22634: jump @845 if a0 == 0\n      : @844 (gas: 1)\n 22637: jump @500\n      : @845 (gas: 14)\n 22640: a3 = a4\n 22642: a2 = s1 + 0x100\n 22646: a0 = u64 [a2 + 0x48]\n 22649: a0 = a0 << 0x20\n 22652: a0 = a0 >> 0x20\n 22655: u64 [s1 + 920] = 0\n 22659: a1 = u64 [a2 + 0x50]\n 22662: a4 = s1 + 0x300\n 22666: u64 [a4 + 0x80] = a1\n 22670: a1 = u64 [a2 + 0x58]\n 22673: u64 [a4 + 0x88] = a1\n 22677: a1 = s1 + 0x380\n 22681: u64 [a4 + 0x90] = a0\n 22685: jump @889\n      : @846 (gas: 10)\n 22688: a0 = s1 + 0x30d8\n 22692: u64 [a0 + 960] = 0\n 22696: u64 [a0 + 952] = 0\n 22700: u64 [a0 + 944] = 0\n 22704: u64 [a0 + 936] = 0\n 22708: a0 = s1 + 0x3000\n 22712: i32 a0 = a0 + 0x480\n 22716: ra = 0x3c4\n 22720: ecalli 16 // 'value_transferred'\n 22722: fallthrough\n      : @847 [@dyn 482] (gas: 3)\n 22723: a3 = s1 + 0x30d8\n 22727: a4 = a3 + 0x300\n 22731: t0 = 966, jump @2005\n      : @848 [@dyn 483] (gas: 1)\n 22738: jump @850 if a0 == 0\n      : @849 (gas: 1)\n 22741: jump @1309\n      : @850 (gas: 3)\n 22744: a0 = u64 [s1 + 0x158]\n 22748: a0 = i32 [a0]\n 22750: jump @852 if a0 >u 3\n      : @851 (gas: 1)\n 22754: jump @1310\n      : @852 (gas: 9)\n 22757: a1 = s1 + 0x30d8\n 22761: u64 [a1 + 992] = 0\n 22765: u64 [a1 + 984] = 0\n 22769: u64 [a1 + 976] = 0\n 22773: u64 [a1 + 968] = 0x9\n 22778: a0 = s1 + 0x7ff\n 22782: a0 = a0 + 0x341\n 22786: a1 = s1 + 0x34a0\n 22790: ra = 968, jump @21\n      : @853 [@dyn 484] (gas: 4)\n 22796: a1 = s1 + 0x7ff\n 22800: a1 = a1 + 0xd9\n 22804: a2 = a1 + 0x200\n 22808: t0 = 970, jump @2015\n      : @854 [@dyn 485] (gas: 4)\n 22815: a0 = s1 + 0x7ff\n 22819: a0 = a0 + 0x321\n 22823: a1 = 0x40\n 22826: ra = 972, jump @17\n      : @855 [@dyn 486] (gas: 8)\n 22832: a3 = s1 + 0x7ff\n 22836: a3 = a3 + 0xd9\n 22840: a5 = a3 + 0x200\n 22844: a0 = u64 [a5 + 0x60]\n 22847: a1 = u64 [a5 + 0x58]\n 22850: a2 = u64 [a5 + 0x50]\n 22853: a4 = u64 [a5 + 0x48]\n 22856: t0 = 974, jump @1927\n      : @856 [@dyn 487] (gas: 1)\n 22862: jump @858 if a0 == 0\n      : @857 (gas: 1)\n 22865: jump @500\n      : @858 (gas: 16)\n 22868: a3 = a4\n 22870: a0 = s1 + 0x7ff\n 22874: a0 = a0 + 0xd9\n 22878: a4 = s1 + 0x100\n 22882: a1 = u64 [a4 + 0x40]\n 22885: a5 = a0 + 0x200\n 22889: u64 [a5 + 0x28] = a1\n 22892: a1 = u64 [a4 + 0x48]\n 22895: u64 [a5 + 0x30] = a1\n 22898: a1 = u64 [a4 + 0x50]\n 22901: u64 [a5 + 0x38] = a1\n 22904: a1 = s1 + 0x7ff\n 22908: a1 = a1 + 0x301\n 22912: a2 = u64 [a4 + 0x58]\n 22915: u64 [a5 + 0x40] = a2\n 22918: fallthrough\n      : @859 (gas: 3)\n 22919: a0 = a3\n 22921: u64 [s1 + 0x138] = a3\n 22925: ra = 976, jump @19\n      : @860 [@dyn 488] (gas: 4)\n 22931: a1 = 0x20\n 22934: a0 = u64 [s1 + 0x138]\n 22938: ra = 0x530\n 22942: jump @34\n      : @861 (gas: 9)\n 22945: a0 = s1 + 0x30d8\n 22949: u64 [a0 + 1312] = 0\n 22953: u64 [a0 + 1304] = 0\n 22957: u64 [a0 + 1296] = 0\n 22961: u64 [a0 + 1288] = 0\n 22965: a0 = s1 + 0x3000\n 22969: i32 a0 = a0 + 0x5e0\n 22973: ecalli 16 // 'value_transferred'\n 22975: fallthrough\n      : @862 (gas: 10)\n 22976: a3 = s1 + 0x30d8\n 22980: a4 = a3 + 0x500\n 22984: a0 = u64 [a4 + 0x18]\n 22987: a1 = u64 [a4 + 0x20]\n 22990: a2 = u64 [a4 + 0x10]\n 22993: a3 = u64 [a4 + 0x8]\n 22996: a1 = a1 | a2\n 22999: a0 = a0 | a3\n 23002: a0 = a0 | a1\n 23005: jump @864 if a0 == 0\n      : @863 (gas: 1)\n 23008: jump @1311\n      : @864 (gas: 10)\n 23011: a0 = u64 [s1 + 0x158]\n 23015: a0 = u32 [a0]\n 23017: a2 = s1 + 0x10d8\n 23021: u64 [a2 + 320] = 0\n 23025: u64 [a2 + 312] = 0\n 23029: u64 [a2 + 0x128] = a0\n 23033: a0 = s1 + 0x1220\n 23037: a1 = s1 + 0x1200\n 23041: u64 [a2 + 304] = 0\n 23045: ra = 978, jump @1501\n      : @865 [@dyn 489] (gas: 3)\n 23051: t0 = 0x3d4\n 23055: a1 = s1 + 0x10d8\n 23059: fallthrough\n      : @866 [@dyn 490] (gas: 28)\n 23060: a2 = a1 + 0x100\n 23064: a0 = u64 [a2 + 0xa0]\n 23068: u64 [s1 + 0x138] = a0\n 23072: a0 = u64 [a2 + 0x98]\n 23076: u64 [s1 + 0x130] = a0\n 23080: a0 = u64 [a2 + 0x90]\n 23084: u64 [s1 + 0x128] = a0\n 23088: a0 = u64 [a2 + 0x88]\n 23092: u64 [s1 + 0x120] = a0\n 23096: a0 = u64 [a2 + 0x80]\n 23100: u64 [s1 + 0x118] = a0\n 23104: a0 = u64 [a2 + 0x78]\n 23107: u64 [s1 + 0x110] = a0\n 23111: a0 = u64 [a2 + 0x70]\n 23114: u64 [s1 + 0x108] = a0\n 23118: a0 = u64 [a2 + 0x68]\n 23121: u64 [s1 + 0x100] = a0\n 23125: a0 = u64 [a2 + 0x60]\n 23128: u64 [s1 + 0xe0] = a0\n 23132: a0 = u64 [a2 + 0x58]\n 23135: u64 [s1 + 0xe8] = a0\n 23139: a0 = u64 [a2 + 0x50]\n 23142: u64 [s1 + 0xf0] = a0\n 23146: a0 = u64 [a2 + 0x48]\n 23149: u64 [s1 + 0xf8] = a0\n 23153: a0 = s1 + 0x11e0\n 23157: a1 = 0x40\n 23160: ra = 982, jump @17\n      : @867 [@dyn 491] (gas: 21)\n 23166: a1 = s1 + 0x10d8\n 23170: a2 = u64 [a1 + 0x120]\n 23174: u64 [s1 + 0x148] = a2\n 23178: a3 = u64 [a1 + 0x118]\n 23182: u64 [s1 + 0x150] = a3\n 23186: a5 = u64 [a1 + 0x110]\n 23190: u64 [s1 + 0x158] = a5\n 23194: a4 = u64 [a1 + 0x108]\n 23198: u64 [s1 + 0x140] = a4\n 23202: u64 [a1 + 224] = 0\n 23206: u64 [a1 + 216] = 0\n 23210: u64 [a1 + 208] = 0\n 23214: u64 [a1 + 200] = 0x20\n 23219: u64 [a1 + 0x100] = a2\n 23223: u64 [a1 + 0xf8] = a3\n 23227: u64 [a1 + 0xf0] = a5\n 23231: a2 = a1\n 23233: a0 = s1 + 0x11c0\n 23237: a1 = s1 + 0x11a0\n 23241: u64 [a2 + 0xe8] = a4\n 23245: ra = 984, jump @1521\n      : @868 [@dyn 492] (gas: 14)\n 23251: a4 = s1 + 0x100\n 23255: a0 = u64 [a4 + 0x48]\n 23258: a1 = u64 [a4 + 0x58]\n 23261: a0 = a0 | a1\n 23264: a1 = u64 [a4 + 0x40]\n 23267: a2 = a1\n 23269: a3 = u64 [a4 + 0x50]\n 23272: a1 = a1 | a3\n 23275: a1 = a1 | a0\n 23278: a1 = a1 >> 0x20\n 23281: a0 = a0 | a3\n 23284: a0 = a0 << 0x20\n 23287: a0 = a0 | a1\n 23290: jump @870 if a0 == 0\n      : @869 (gas: 1)\n 23293: jump @500\n      : @870 (gas: 8)\n 23296: a0 = s1 + 0x10d8\n 23300: u64 [a0 + 192] = 0\n 23304: u64 [a0 + 184] = 0\n 23308: u64 [a0 + 176] = 0\n 23312: a1 = s1 + 0x1180\n 23316: u64 [a0 + 168] = 0\n 23320: a0 = a2\n 23322: ra = 986, jump @19\n      : @871 [@dyn 493] (gas: 39)\n 23328: a0 = u64 [s1 + 0x148]\n 23332: a1 = s1 + 0x10d8\n 23336: u64 [a1 + 0x40] = a0\n 23339: a0 = u64 [s1 + 0x150]\n 23343: u64 [a1 + 0x38] = a0\n 23346: a0 = u64 [s1 + 0x158]\n 23350: u64 [a1 + 0x30] = a0\n 23353: a0 = u64 [s1 + 0x140]\n 23357: u64 [a1 + 0x28] = a0\n 23360: a0 = u64 [s1 + 0xe0]\n 23364: u64 [a1 + 0xa0] = a0\n 23368: a0 = u64 [s1 + 0xe8]\n 23372: u64 [a1 + 0x98] = a0\n 23376: a0 = u64 [s1 + 0xf0]\n 23380: u64 [a1 + 0x90] = a0\n 23384: a0 = u64 [s1 + 0xf8]\n 23388: u64 [a1 + 0x88] = a0\n 23392: a0 = u64 [s1 + 0x100]\n 23396: u64 [a1 + 0x68] = a0\n 23399: a0 = u64 [s1 + 0x108]\n 23403: u64 [a1 + 0x70] = a0\n 23406: a0 = u64 [s1 + 0x110]\n 23410: u64 [a1 + 0x78] = a0\n 23413: a0 = u64 [s1 + 0x118]\n 23417: u64 [a1 + 0x80] = a0\n 23421: a0 = u64 [s1 + 0x120]\n 23425: u64 [a1 + 0x48] = a0\n 23428: a0 = u64 [s1 + 0x128]\n 23432: u64 [a1 + 0x50] = a0\n 23435: a0 = u64 [s1 + 0x130]\n 23439: u64 [a1 + 0x58] = a0\n 23442: a5 = a1\n 23444: a0 = s1 + 0x1160\n 23448: a1 = s1 + 0x1140\n 23452: a2 = s1 + 0x1120\n 23456: a3 = s1 + 0x1100\n 23460: a4 = u64 [s1 + 0x138]\n 23464: u64 [a5 + 0x60] = a4\n 23467: ra = 988, jump @1723\n      : @872 [@dyn 494] (gas: 6)\n 23473: a1 = 0x20220\n 23478: i32 a1 = a1 + 0\n 23480: a0 = 0\n 23482: a2 = 0\n 23484: ecalli 13 // 'seal_return'\n 23486: jump @1373\n      : @873 (gas: 11)\n 23489: a0 = s1 + 0x30d8\n 23493: u64 [a0 + 1600] = 0\n 23497: u64 [a0 + 1592] = 0\n 23501: u64 [a0 + 1584] = 0\n 23505: u64 [a0 + 1576] = 0\n 23509: a0 = s1 + 0x3000\n 23513: i32 a0 = a0 + 0x700\n 23517: ra = 0x3de\n 23521: ecalli 16 // 'value_transferred'\n 23523: t0 = 0x3e0\n 23527: jump @2016\n      : @874 [@dyn 495] (gas: 1)\n 23531: t0 = 992, jump @2016\n      : @875 [@dyn 496] (gas: 8)\n 23538: a0 = u64 [a4 + 0x38]\n 23541: a1 = u64 [a4 + 0x40]\n 23544: a2 = u64 [a4 + 0x30]\n 23547: a3 = u64 [a4 + 0x28]\n 23550: a1 = a1 | a2\n 23553: a0 = a0 | a3\n 23556: a0 = a0 | a1\n 23559: jump @877 if a0 == 0\n      : @876 (gas: 1)\n 23562: jump @1312\n      : @877 (gas: 1)\n 23565: t0 = 994, jump @2014\n      : @878 [@dyn 497] (gas: 1)\n 23571: jump @880 if a1 <u a0\n      : @879 (gas: 1)\n 23574: jump @1313\n      : @880 (gas: 7)\n 23577: a0 = s1 + 0x3000\n 23581: i32 a0 = a0 + 0x720\n 23585: a1 = 0x4\n 23588: ra = 0x3e4\n 23592: ecalli 3 // 'call_data_load'\n 23594: t0 = 0x3e6\n 23598: jump @2016\n      : @881 [@dyn 498] (gas: 1)\n 23601: t0 = 998, jump @2016\n      : @882 [@dyn 499] (gas: 13)\n 23607: a2 = u64 [a4 + 0x48]\n 23610: a0 = u64 [a4 + 0x50]\n 23613: a1 = u64 [a4 + 0x58]\n 23616: a3 = u64 [a4 + 0x60]\n 23619: a4 = s1 + 0x10d8\n 23623: a5 = a4 + 0x600\n 23627: u64 [a5 + 0xc0] = a3\n 23631: u64 [a5 + 0xb8] = a1\n 23635: u64 [a5 + 0xb0] = a0\n 23639: a0 = s1 + 0x17a0\n 23643: a1 = s1 + 0x1780\n 23647: u64 [a5 + 0xa8] = a2\n 23651: ra = 1000, jump @1823\n      : @883 [@dyn 500] (gas: 3)\n 23657: t0 = 0x3ea\n 23661: a1 = s1 + 0x10d8\n 23665: fallthrough\n      : @884 [@dyn 501] (gas: 11)\n 23666: a2 = a1 + 0x600\n 23670: a0 = u64 [a2 + 0xd8]\n 23674: a1 = s1 + 0x100\n 23678: u64 [a1 + 0x48] = a0\n 23681: a0 = u64 [a2 + 0xd0]\n 23685: u64 [a1 + 0x58] = a0\n 23688: a0 = u64 [a2 + 0xc8]\n 23692: u64 [a1 + 0x50] = a0\n 23695: a0 = s1 + 0x1760\n 23699: a1 = 0x40\n 23702: ra = 1004, jump @17\n      : @885 [@dyn 502] (gas: 7)\n 23708: a3 = s1 + 0x10d8\n 23712: a5 = a3 + 0x600\n 23716: a0 = u64 [a5 + 0xa0]\n 23720: a1 = u64 [a5 + 0x98]\n 23724: a2 = u64 [a5 + 0x90]\n 23728: a4 = u64 [a5 + 0x88]\n 23732: t0 = 1006, jump @1927\n      : @886 [@dyn 503] (gas: 1)\n 23738: jump @888 if a0 == 0\n      : @887 (gas: 1)\n 23741: jump @500\n      : @888 (gas: 15)\n 23744: a3 = a4\n 23746: a4 = s1 + 0x100\n 23750: a0 = u64 [a4 + 0x48]\n 23753: a0 = a0 << 0x20\n 23756: a0 = a0 >> 0x20\n 23759: a2 = s1 + 0x10d8\n 23763: u64 [a2 + 1664] = 0\n 23767: a1 = u64 [a4 + 0x50]\n 23770: a5 = a2 + 0x600\n 23774: u64 [a5 + 0x68] = a1\n 23777: a1 = u64 [a4 + 0x58]\n 23780: u64 [a5 + 0x70] = a1\n 23783: a1 = s1 + 0x1740\n 23787: u64 [a5 + 0x78] = a0\n 23790: fallthrough\n      : @889 (gas: 3)\n 23791: a0 = a3\n 23793: u64 [s1 + 0x140] = a3\n 23797: ra = 1008, jump @19\n      : @890 [@dyn 504] (gas: 4)\n 23803: a1 = 0x20\n 23806: a0 = u64 [s1 + 0x140]\n 23810: ra = 0x530\n 23814: jump @34\n      : @891 (gas: 1)\n 23817: jump @893 if a0 == 1924380192\n      : @892 (gas: 1)\n 23824: jump @1314\n      : @893 (gas: 3)\n 23827: a0 = u64 [s1 + 0x158]\n 23831: a0 = i32 [a0]\n 23833: jump @895 if a0 >u 67\n      : @894 (gas: 1)\n 23837: jump @1319\n      : @895 (gas: 6)\n 23840: a0 = s1 + 0x3000\n 23844: i32 a0 = a0 + 0x780\n 23848: a1 = 0x4\n 23851: ra = 0x3f2\n 23855: ecalli 3 // 'call_data_load'\n 23857: fallthrough\n      : @896 [@dyn 505] (gas: 6)\n 23858: a0 = s1 + 0x30d8\n 23862: a4 = a0 + 0x600\n 23866: a1 = u64 [a4 + 0xc0]\n 23870: a2 = u64 [a4 + 0xb8]\n 23874: a3 = u64 [a4 + 0xb0]\n 23878: t0 = 1012, jump @1993\n      : @897 [@dyn 506] (gas: 1)\n 23884: jump @899 if a1 != 0\n      : @898 (gas: 1)\n 23887: jump @1320\n      : @899 (gas: 22)\n 23890: a0 = s1 + 0x30d8\n 23894: a1 = u64 [a0 + 0x6a8]\n 23898: a0 = u64 [s1 + 0x158]\n 23902: a5 = u32 [a0]\n 23904: a0 = a1 + 0x23\n 23907: t0 = a1\n 23909: a1 = a0 <u a1\n 23912: a3 = u64 [s1 + 0x140]\n 23916: a2 = a3 + a1\n 23919: a3 = a2 <u a3\n 23922: a3 = a1 if a1 == 0\n 23925: a1 = u64 [s1 + 0x148]\n 23929: a3 = a3 + a1\n 23932: a1 = a3 <u a1\n 23935: a4 = u64 [s1 + 0x150]\n 23939: a1 = a1 + a4\n 23942: a1 = a1 | a3\n 23945: u64 [s1 + 0x158] = a5\n 23949: a0 = a0 <u a5\n 23952: a0 = 0 if a2 != 0\n 23954: a0 = 0 if a1 != 0\n 23956: jump @901 if a0 != 0\n      : @900 (gas: 1)\n 23959: jump @1321\n      : @901 (gas: 43)\n 23962: u64 [s1 + 0x138] = t0\n 23966: i32 a1 = t0 + 0x4\n 23969: a0 = s1 + 0x3000\n 23973: i32 a0 = a0 + 0x7a0\n 23977: ecalli 3 // 'call_data_load'\n 23979: a0 = s1 + 0x30d8\n 23983: t0 = u64 [a0 + 0x6c8]\n 23987: t2 = u64 [a0 + 0x6d0]\n 23991: ra = u64 [a0 + 0x6d8]\n 23995: a1 = a0\n 23997: a0 = u64 [s1 + 0x138]\n 24001: a2 = a0 + 0x24\n 24004: a4 = a2 <u a0\n 24007: a0 = u64 [s1 + 0x140]\n 24011: a5 = a0 + a4\n 24014: a0 = a5 <u a0\n 24017: a0 = a4 if a4 == 0\n 24020: a4 = u64 [a1 + 0x6e0]\n 24024: a1 = u64 [s1 + 0x148]\n 24028: a0 = a0 + a1\n 24031: t1 = a0 <u a1\n 24034: a1 = u64 [s1 + 0x150]\n 24038: t1 = t1 + a1\n 24041: a1 = s1 + 0x20d8\n 24045: u64 [a1 + 96] = 0\n 24048: u64 [a1 + 88] = 0\n 24051: u64 [a1 + 80] = 0\n 24054: a3 = u64 [s1 + 0x158]\n 24058: u64 [a1 + 0x48] = a3\n 24061: u64 [a1 + 0x80] = a4\n 24065: u64 [a1 + 0x78] = ra\n 24068: u64 [a1 + 0x70] = t2\n 24071: u64 [a1 + 0x68] = t0\n 24074: u64 [a1 + 0x90] = a5\n 24078: u64 [a1 + 0x88] = a2\n 24082: u64 [a1 + 0x98] = a0\n 24086: a4 = a1\n 24088: a0 = s1 + 0x2180\n 24092: a1 = s1 + 0x2160\n 24096: a2 = s1 + 0x2140\n 24100: a3 = s1 + 0x2120\n 24104: u64 [a4 + 0xa0] = t1\n 24108: ra = 1014, jump @1540\n      : @902 [@dyn 507] (gas: 34)\n 24114: a1 = s1 + 0x20d8\n 24118: a0 = u64 [a1 + 0xc0]\n 24122: u64 [s1 + 0xe0] = a0\n 24126: a0 = u64 [a1 + 0xb8]\n 24130: u64 [s1 + 0xd8] = a0\n 24134: a0 = u64 [a1 + 0xb0]\n 24138: u64 [s1 + 0xe8] = a0\n 24142: a0 = u64 [a1 + 0xa8]\n 24146: u64 [s1 + 0xf0] = a0\n 24150: a0 = s1 + 0x3000\n 24154: i32 a0 = a0 + 0x7c0\n 24158: a1 = 0x24\n 24161: ecalli 3 // 'call_data_load'\n 24163: a1 = s1 + 0x30d8\n 24167: a0 = u64 [a1 + 0x700]\n 24171: u64 [s1 + 0x58] = a0\n 24174: a2 = a1 + 0x600\n 24178: a0 = u64 [a2 + 0xf8]\n 24182: u64 [s1 + 0x50] = a0\n 24185: a0 = u64 [a2 + 0xf0]\n 24189: u64 [s1 + 0x48] = a0\n 24192: a0 = u64 [a2 + 0xe8]\n 24196: u64 [s1 + 0x40] = a0\n 24199: a0 = sp + 0xffffffffffffffe0\n 24202: a0 = a0 & 0xffffffffffffffe0\n 24205: u64 [s1 + 0x158] = a0\n 24209: sp = a0\n 24211: u64 [a1 + 1824] = 0\n 24215: u64 [a1 + 1816] = 0\n 24219: u64 [a1 + 1808] = 0\n 24223: u64 [a1 + 1800] = 0x7\n 24228: a0 = s1 + 0x2100\n 24232: a1 = s1 + 0x37e0\n 24236: ra = 1016, jump @21\n      : @903 [@dyn 508] (gas: 13)\n 24242: a4 = s1 + 0x20d8\n 24246: a2 = u64 [a4 + 0x28]\n 24249: a0 = u64 [a4 + 0x30]\n 24252: a1 = u64 [a4 + 0x38]\n 24255: a3 = u64 [a4 + 0x40]\n 24258: u64 [a4] = a3\n 24260: a3 = a4 + 0xffffffffffffff00\n 24264: u64 [a3 + 0xf8] = a1\n 24268: u64 [a3 + 0xf0] = a0\n 24272: a0 = s1 + 0x20e0\n 24276: a1 = s1 + 0x20c0\n 24280: u64 [a3 + 0xe8] = a2\n 24284: ra = 1018, jump @1715\n      : @904 [@dyn 509] (gas: 22)\n 24290: a3 = s1 + 0x20d8\n 24294: a1 = u64 [a3 + 0x18]\n 24297: a0 = u64 [a3 + 0x20]\n 24300: a2 = u64 [a3 + 0x8]\n 24303: a3 = u64 [a3 + 0x10]\n 24306: u64 [s1 + 0xc0] = a1\n 24310: a4 = u64 [s1 + 0x158]\n 24314: u64 [a4 + 0x10] = a1\n 24317: u64 [s1 + 0xc8] = a0\n 24321: u64 [a4 + 0x18] = a0\n 24324: u64 [s1 + 0xb8] = a2\n 24328: u64 [a4] = a2\n 24330: u64 [s1 + 0xb0] = a3\n 24334: u64 [a4 + 0x8] = a3\n 24337: a1 = a4\n 24339: a2 = s1 + 0x30d8\n 24343: u64 [a2 + 1856] = 0\n 24347: u64 [a2 + 1848] = 0\n 24351: u64 [a2 + 1840] = 0\n 24355: u64 [a2 + 1832] = 0x7\n 24360: a0 = s1 + 0x3800\n 24364: ra = 1020, jump @23\n      : @905 [@dyn 510] (gas: 6)\n 24370: a0 = 0x30220\n 24375: u64 [s1 + 0xa8] = a0\n 24379: i32 a0 = a0 + 0\n 24381: u64 [s1 + 0x90] = a0\n 24385: ecalli 5 // 'caller'\n 24387: fallthrough\n      : @906 (gas: 7)\n 24388: a2 = u64 [s1 + 0xa8]\n 24392: a0 = u32 [a2 + 0x10]\n 24395: a1 = u64 [a2]\n 24397: a2 = u64 [a2 + 0x8]\n 24400: a0 = a0 | a1\n 24403: a0 = a0 | a2\n 24406: jump @908 if a0 != 0\n      : @907 (gas: 1)\n 24409: jump @1322\n      : @908 (gas: 6)\n 24412: a0 = u64 [s1 + 0x90]\n 24416: ra = 0x3fe\n 24420: ecalli 5 // 'caller'\n 24422: a2 = u64 [s1 + 0xa8]\n 24426: t0 = 0x400\n 24430: jump @1949\n      : @909 [@dyn 511] (gas: 2)\n 24433: a2 = u64 [s1 + 0xa8]\n 24437: t0 = 1024, jump @1949\n      : @910 [@dyn 512] (gas: 18)\n 24443: a4 = s1 + 0x18d8\n 24447: a3 = u64 [s1 + 0xc8]\n 24451: a5 = a4 + 0x700\n 24455: u64 [a5 + 0xa0] = a3\n 24459: a3 = u64 [s1 + 0xc0]\n 24463: u64 [a5 + 0x98] = a3\n 24467: a3 = u64 [s1 + 0xb0]\n 24471: u64 [a5 + 0x90] = a3\n 24475: a3 = u64 [s1 + 0xb8]\n 24479: u64 [a5 + 0x88] = a3\n 24483: u64 [a5 + 0xb8] = a2\n 24487: u64 [a5 + 0xb0] = a0\n 24491: u64 [a5 + 0xa8] = a1\n 24495: a0 = s1 + 0x20a0\n 24499: a1 = s1 + 0x2080\n 24503: a2 = s1 + 0x2060\n 24507: u64 [a4 + 1984] = 0\n 24511: ra = 1026, jump @1837\n      : @911 [@dyn 513] (gas: 10)\n 24517: a3 = s1 + 0x18d8\n 24521: a4 = a3 + 0x700\n 24525: a0 = u64 [a4 + 0xd8]\n 24529: a1 = u64 [a4 + 0xe0]\n 24533: a2 = u64 [a4 + 0xd0]\n 24537: a3 = u64 [a4 + 0xc8]\n 24541: a1 = a1 | a2\n 24544: a0 = a0 | a3\n 24547: a0 = a0 | a1\n 24550: jump @913 if a0 == 0\n      : @912 (gas: 1)\n 24553: jump @1327\n      : @913 (gas: 13)\n 24556: a2 = s1 + 0x18d8\n 24560: a0 = u64 [s1 + 0xb8]\n 24564: a3 = a2 + 0x700\n 24568: u64 [a3 + 0x28] = a0\n 24571: a0 = u64 [s1 + 0xb0]\n 24575: u64 [a3 + 0x30] = a0\n 24578: a0 = u64 [s1 + 0xc0]\n 24582: u64 [a3 + 0x38] = a0\n 24585: a1 = s1 + 0x2000\n 24589: a0 = u64 [s1 + 0xc8]\n 24593: u64 [a3 + 0x40] = a0\n 24596: a0 = 0\n 24598: ra = 1028, jump @19\n      : @914 [@dyn 514] (gas: 3)\n 24604: t0 = 0x406\n 24608: a1 = s1 + 0x18d8\n 24612: fallthrough\n      : @915 [@dyn 515] (gas: 8)\n 24613: u64 [a1 + 1824] = 0\n 24617: u64 [a1 + 1816] = 0\n 24621: u64 [a1 + 1800] = 0x6\n 24626: a2 = a1\n 24628: a0 = 0x20\n 24631: a1 = s1 + 0x1fe0\n 24635: u64 [a2 + 1808] = 0\n 24639: ra = 1032, jump @19\n      : @916 [@dyn 516] (gas: 9)\n 24645: a0 = sp + 0xffffffffffffffe0\n 24648: a0 = a0 & 0xffffffffffffffe0\n 24651: u64 [s1 + 0xa0] = a0\n 24655: sp = a0\n 24657: a0 = 0x2020c\n 24662: u64 [s1 + 0x88] = a0\n 24666: a0 = i32 [0x2020c]\n 24671: a1 = 0x3f\n 24674: jump @918 if a1 <u a0\n      : @917 (gas: 4)\n 24677: a1 = u64 [s1 + 0x88]\n 24681: u32 [a1 + 0] = 0x40\n 24684: t0 = 0x40a\n 24688: jump @2006\n      : @918 (gas: 1)\n 24691: t0 = 1034, jump @2006\n      : @919 [@dyn 517] (gas: 7)\n 24697: a0 = 0x20220\n 24702: i32 a0 = a0 + 0\n 24704: i32 a2 = a2 + 0\n 24706: a1 = 0x40\n 24709: u64 [s1 + 0x78] = a0\n 24712: ecalli 9 // 'hash_keccak_256'\n 24714: fallthrough\n      : @920 (gas: 32)\n 24715: a2 = u64 [s1 + 0x158]\n 24719: t1 = u64 [a2 + 0x10]\n 24722: a1 = u64 [a2 + 0x18]\n 24725: a0 = a2\n 24727: a2 = u64 [s1 + 0xf0]\n 24731: a5 = u64 [s1 + 0xd8]\n 24735: a2 = a2 | a5\n 24738: a3 = u64 [s1 + 0xe8]\n 24742: a4 = u64 [s1 + 0xe0]\n 24746: a3 = a3 | a4\n 24749: a2 = a2 | a3\n 24752: a2 = a2 >> 0x20\n 24755: a3 = a3 | a5\n 24758: a3 = a3 << 0x20\n 24761: t0 = a3 | a2\n 24764: a3 = u64 [a0 + 0x8]\n 24767: a4 = u64 [a0]\n 24769: a5 = reverse a1\n 24771: a2 = reverse t1\n 24773: a3 = reverse a3\n 24775: a1 = reverse a4\n 24777: a0 = u64 [s1 + 0xa0]\n 24781: a4 = s1 + 0x100\n 24785: u64 [a4 + 0x10] = a1\n 24788: u64 [a0 + 0x18] = a1\n 24791: u64 [s1 + 0xf8] = a3\n 24795: u64 [a0 + 0x10] = a3\n 24798: u64 [a4] = a2\n 24800: u64 [a0 + 0x8] = a2\n 24803: u64 [a4 + 0x8] = a5\n 24806: u64 [a0] = a5\n 24808: jump @922 if t0 == 0\n      : @921 (gas: 1)\n 24811: jump @500\n      : @922 (gas: 3)\n 24814: a0 = s1 + 0x1fc0\n 24818: a1 = u64 [s1 + 0xf0]\n 24822: ra = 1036, jump @17\n      : @923 [@dyn 518] (gas: 17)\n 24828: a0 = s1 + 0x18d8\n 24832: a3 = u64 [a0 + 0x700]\n 24836: a1 = u64 [a0 + 0x6f8]\n 24840: a2 = u64 [a0 + 0x6f0]\n 24844: a0 = a3 >u 0\n 24846: a4 = a1 >u 0\n 24848: a4 = a0 if a3 != 0\n 24851: u64 [s1 + 0xd0] = a2\n 24855: a0 = a2 >u 0\n 24857: u64 [s1 + 0x80] = a1\n 24861: u64 [s1 + 0x70] = a3\n 24864: a1 = a1 | a3\n 24867: u64 [s1 + 0x30] = a0\n 24870: u64 [s1 + 0x38] = a4\n 24873: u64 [s1 + 0x68] = a1\n 24876: a0 = a4 if a1 != 0\n 24879: jump @925 if a0 == 0\n      : @924 (gas: 1)\n 24882: jump @1332\n      : @925 (gas: 6)\n 24885: a0 = s1 + 0x18d8\n 24889: a0 = u64 [a0 + 0x6e8]\n 24893: u64 [s1 + 0x98] = a0\n 24897: a0 = s1 + 0x1fa0\n 24901: a1 = u64 [s1 + 0xa0]\n 24905: ra = 1038, jump @21\n      : @926 [@dyn 519] (gas: 13)\n 24911: a4 = s1 + 0x18d8\n 24915: a5 = a4 + 0x600\n 24919: a2 = u64 [a5 + 0xc8]\n 24923: a0 = u64 [a5 + 0xd0]\n 24927: a1 = u64 [a5 + 0xd8]\n 24931: a3 = u64 [a5 + 0xe0]\n 24935: u64 [a5 + 0xa0] = a3\n 24939: u64 [a5 + 0x98] = a1\n 24943: u64 [a5 + 0x90] = a0\n 24947: a0 = s1 + 0x1f80\n 24951: a1 = s1 + 0x1f60\n 24955: u64 [a5 + 0x88] = a2\n 24959: ra = 1040, jump @1557\n      : @927 [@dyn 520] (gas: 23)\n 24965: a0 = s1 + 0x18d8\n 24969: a1 = a0 + 0x600\n 24973: a3 = u64 [a1 + 0xc0]\n 24977: a4 = u64 [a1 + 0xb8]\n 24981: a5 = u64 [a1 + 0xb0]\n 24985: a2 = u64 [a1 + 0xa8]\n 24989: a0 = a3 >u 0\n 24991: a1 = a4 >u 0\n 24993: a1 = a0 if a3 != 0\n 24996: a0 = a5 >u 0\n 24998: u64 [s1 + 0x138] = a2\n 25002: a2 = a2 <u 0x20\n 25005: a2 = a2 ^ 0x1\n 25008: u64 [s1 + 0x140] = a5\n 25012: a2 = a0 if a5 != 0\n 25015: u64 [s1 + 0x148] = a3\n 25019: u64 [s1 + 0x150] = a4\n 25023: a0 = a4 | a3\n 25026: a2 = a1 if a0 != 0\n 25029: a0 = u64 [s1 + 0x98]\n 25033: a0 = a0 <u 0x20\n 25036: u64 [s1 + 0x60] = a0\n 25039: jump @983 if a2 == 0\n      : @928 (gas: 14)\n 25043: a0 = s1 + 0x18d8\n 25047: a3 = s1 + 0x100\n 25051: a1 = u64 [a3 + 0x8]\n 25054: a4 = a0 + 0x600\n 25058: u64 [a4 + 0x68] = a1\n 25061: a1 = u64 [a3]\n 25063: u64 [a4 + 0x70] = a1\n 25066: a1 = u64 [s1 + 0xf8]\n 25070: u64 [a4 + 0x78] = a1\n 25073: a1 = s1 + 0x1f40\n 25077: a2 = u64 [a3 + 0x10]\n 25080: u64 [a4 + 0x80] = a2\n 25084: a0 = 0\n 25086: ra = 1042, jump @19\n      : @929 [@dyn 521] (gas: 3)\n 25092: a0 = u64 [s1 + 0x88]\n 25096: a0 = i32 [a0]\n 25098: jump @931 if a0 >u 31\n      : @930 (gas: 3)\n 25102: a1 = u64 [s1 + 0x88]\n 25106: u32 [a1 + 0] = 0x20\n 25109: fallthrough\n      : @931 (gas: 117)\n 25110: a0 = sp + 0xffffffffffffffe0\n 25113: a0 = a0 & 0xffffffffffffffe0\n 25116: u64 [s1 + 0x120] = a0\n 25120: sp = a0\n 25122: i32 a2 = a0 + 0\n 25124: a1 = 0x20\n 25127: a0 = u64 [s1 + 0x78]\n 25130: ecalli 9 // 'hash_keccak_256'\n 25132: a0 = u64 [s1 + 0x98]\n 25136: a1 = a0 + 0x1f\n 25139: a0 = a1 <u a0\n 25142: a5 = u64 [s1 + 0xd0]\n 25146: a2 = a5 + a0\n 25149: a3 = a2 <u a5\n 25152: a3 = a0 if a0 == 0\n 25155: a4 = u64 [s1 + 0x80]\n 25159: a3 = a3 + a4\n 25162: u64 [s1 + 0x118] = a3\n 25166: a3 = a3 << 0x3b\n 25169: a4 = a2 >> 0x5\n 25172: a4 = a4 | a3\n 25175: a0 = u64 [s1 + 0x120]\n 25179: t1 = u64 [a0 + 0x18]\n 25182: a2 = a2 << 0x3b\n 25185: a3 = u64 [a0 + 0x10]\n 25188: a1 = a1 >> 0x5\n 25191: a0 = a1 | a2\n 25194: t2 = reverse t1\n 25196: a2 = reverse a3\n 25198: a1 = u64 [s1 + 0x60]\n 25201: a1 = 0 if a5 != 0\n 25203: a3 = u64 [s1 + 0x68]\n 25206: a1 = 0 if a3 != 0\n 25208: a4 = 0 if a1 != 0\n 25210: a0 = 0 if a1 != 0\n 25212: t0 = t2 + a0\n 25215: a0 = t0 <u t2\n 25218: a5 = a2 + a0\n 25221: a4 = a4 + a5\n 25224: u64 [s1 + 0x158] = a4\n 25228: a5 = a4 ^ a2\n 25231: a3 = a4 <u a2\n 25234: a3 = a0 if a5 == 0\n 25237: u64 [s1 + 0x28] = a3\n 25240: a0 = u64 [s1 + 0x138]\n 25244: ra = a0 + 0x1f\n 25247: a4 = ra <u a0\n 25250: a3 = u64 [s1 + 0x140]\n 25254: a0 = a3 + a4\n 25257: a5 = a0 <u a3\n 25260: a5 = a4 if a4 == 0\n 25263: t1 = u64 [s1 + 0x150]\n 25267: t1 = t1 + a5\n 25270: a4 = t1 << 0x3b\n 25273: a3 = a0 >> 0x5\n 25276: a3 = a3 | a4\n 25279: a0 = a0 << 0x3b\n 25282: a4 = ra >> 0x5\n 25285: a0 = a0 | a4\n 25288: a0 = a0 + t2\n 25291: u64 [s1 + 0x130] = a0\n 25295: a0 = a0 <u t2\n 25298: t2 = t0\n 25300: a4 = a2 + a0\n 25303: a4 = a4 + a3\n 25306: a3 = a4 ^ a2\n 25309: u64 [s1 + 0x128] = a4\n 25313: a2 = a4 <u a2\n 25316: a2 = a0 if a3 == 0\n 25319: a4 = u64 [s1 + 0x118]\n 25323: a0 = u64 [s1 + 0x80]\n 25327: a0 = a4 <u a0\n 25330: a3 = u64 [s1 + 0x70]\n 25333: a0 = a0 + a3\n 25336: a3 = a4 >> 0x5\n 25339: a4 = a0 << 0x3b\n 25342: a3 = a3 | a4\n 25345: a4 = u64 [s1 + 0x120]\n 25349: t0 = u64 [a4]\n 25351: a4 = u64 [a4 + 0x8]\n 25354: a0 = a0 >> 0x5\n 25357: a3 = 0 if a1 != 0\n 25359: a0 = 0 if a1 != 0\n 25361: a1 = reverse a4\n 25363: a4 = reverse t0\n 25365: a0 = a0 + a4\n 25368: a3 = a3 + a1\n 25371: a5 = a3 <u a1\n 25374: a0 = a0 + a5\n 25377: ra = u64 [s1 + 0x28]\n 25380: ra = ra + a3\n 25383: a3 = ra <u a3\n 25386: t0 = a0 + a3\n 25389: a0 = u64 [s1 + 0x150]\n 25393: a0 = t1 <u a0\n 25396: a3 = u64 [s1 + 0x148]\n 25400: a0 = a0 + a3\n 25403: a3 = t1 >> 0x5\n 25406: a5 = a0 << 0x3b\n 25409: a3 = a3 | a5\n 25412: a0 = a0 >> 0x5\n 25415: a0 = a0 + a4\n 25418: a5 = s1 + 0x100\n 25422: a4 = u64 [a5 + 0x58]\n 25425: a3 = a3 + a1\n 25428: a1 = a3 <u a1\n 25431: a0 = a0 + a1\n 25434: a2 = a2 + a3\n 25437: u64 [a5 + 0x20] = a2\n 25440: a1 = a2 <u a3\n 25443: a0 = a0 + a1\n 25446: u64 [a5 + 0x18] = a0\n 25449: a0 = sp + 0xffffffffffffffe0\n 25452: a0 = a0 & 0xffffffffffffffe0\n 25455: u64 [a5 + 0x50] = a0\n 25458: sp = a0\n 25460: fallthrough\n      : @932 (gas: 26)\n 25461: a0 = u64 [s1 + 0x130]\n 25465: a0 = t2 <u a0\n 25468: a2 = u64 [s1 + 0x128]\n 25472: a1 = a4 ^ a2\n 25475: a2 = a4 <u a2\n 25478: a2 = a0 if a1 == 0\n 25481: a5 = u64 [s1 + 0x120]\n 25485: a0 = ra <u a5\n 25488: a3 = u64 [s1 + 0x118]\n 25492: a1 = t0 ^ a3\n 25495: a3 = t0 <u a3\n 25498: a3 = a0 if a1 == 0\n 25501: a0 = ra ^ a5\n 25504: a0 = a0 | a1\n 25507: a3 = a2 if a0 == 0\n 25510: u64 [s1 + 0x148] = t2\n 25514: a0 = u64 [s1 + 0x150]\n 25518: u64 [a0] = t2\n 25520: u64 [s1 + 0x158] = a4\n 25524: u64 [a0 + 0x8] = a4\n 25527: u64 [s1 + 0x138] = ra\n 25531: u64 [a0 + 0x10] = ra\n 25534: u64 [s1 + 0x140] = t0\n 25538: u64 [a0 + 0x18] = t0\n 25541: a0 = s1 + 0x30d8\n 25545: jump @983 if a3 == 0\n      : @933 (gas: 7)\n 25549: u64 [a0 + 1888] = 0\n 25553: u64 [a0 + 1880] = 0\n 25557: u64 [a0 + 1872] = 0\n 25561: u64 [a0 + 1864] = 0\n 25565: a1 = s1 + 0x3820\n 25569: a0 = u64 [s1 + 0x150]\n 25573: ra = 1044, jump @23\n      : @934 [@dyn 522] (gas: 14)\n 25579: t2 = u64 [s1 + 0x148]\n 25583: t2 = t2 + 0x1\n 25586: a0 = t2 <u 0x1\n 25589: a4 = u64 [s1 + 0x158]\n 25593: a4 = a4 + a0\n 25596: a0 = t2 | a4\n 25599: a0 = a0 <u 0x1\n 25602: a1 = u64 [s1 + 0x138]\n 25606: a0 = a0 + a1\n 25609: a1 = a0 <u a1\n 25612: t0 = u64 [s1 + 0x140]\n 25616: t0 = t0 + a1\n 25619: ra = a0\n 25621: jump @932\n      : @935 (gas: 3)\n 25624: a0 = s1 + 0x2c00\n 25628: a1 = 0x40\n 25631: ra = 1046, jump @17\n      : @936 [@dyn 523] (gas: 7)\n 25637: a0 = s1 + 0x28d8\n 25641: a5 = a0 + 0x300\n 25645: a3 = u64 [a5 + 0x40]\n 25648: a4 = u64 [a5 + 0x38]\n 25651: a2 = u64 [a5 + 0x30]\n 25654: a1 = u64 [a5 + 0x28]\n 25657: t0 = 1048, jump @1916\n      : @937 [@dyn 524] (gas: 1)\n 25663: jump @939 if a0 == 0\n      : @938 (gas: 1)\n 25666: jump @500\n      : @939 (gas: 3)\n 25669: t0 = 0x41a\n 25673: a2 = s1 + 0x28d8\n 25677: fallthrough\n      : @940 [@dyn 525] (gas: 8)\n 25678: u64 [a2 + 792] = 0\n 25682: u64 [a2 + 784] = 0\n 25686: u64 [a2 + 776] = 0\n 25690: a0 = 0x8c379a000000000\n 25700: a1 = s1 + 0x2be0\n 25704: u64 [a2 + 0x320] = a0\n 25708: a0 = u64 [s1 + 0x158]\n 25712: ra = 1052, jump @19\n      : @941 [@dyn 526] (gas: 1)\n 25718: t0 = 1054, jump @1910\n      : @942 [@dyn 527] (gas: 1)\n 25724: jump @944 if a0 != 0\n      : @943 (gas: 1)\n 25727: jump @500\n      : @944 (gas: 1)\n 25730: t0 = 1056, jump @1987\n      : @945 [@dyn 528] (gas: 6)\n 25736: u64 [a2 + 768] = 0\n 25740: u64 [a2 + 760] = 0\n 25744: u64 [a2 + 744] = 0x20\n 25749: a1 = s1 + 0x2bc0\n 25753: u64 [a2 + 752] = 0\n 25757: ra = 1058, jump @19\n      : @946 [@dyn 529] (gas: 4)\n 25763: a2 = s1 + 0x100\n 25767: a0 = u64 [a2 + 0x40]\n 25770: a0 = a0 + 0xffffffffffffffdc\n 25773: t0 = 1060, jump @1909\n      : @947 [@dyn 530] (gas: 1)\n 25779: jump @949 if a0 != 0\n      : @948 (gas: 1)\n 25782: jump @500\n      : @949 (gas: 1)\n 25785: t0 = 1062, jump @1977\n      : @950 [@dyn 531] (gas: 6)\n 25791: u64 [a2 + 736] = 0\n 25795: u64 [a2 + 728] = 0\n 25799: u64 [a2 + 712] = 0x40\n 25804: a1 = s1 + 0x2ba0\n 25808: u64 [a2 + 720] = 0\n 25812: ra = 1064, jump @19\n      : @951 [@dyn 532] (gas: 5)\n 25818: a0 = 0x100000000\n 25828: a2 = s1 + 0x100\n 25832: u64 [a2 + 0x40] = a0\n 25835: a0 = 0xffffffbc\n 25845: t0 = 1066, jump @1909\n      : @952 [@dyn 533] (gas: 1)\n 25851: jump @954 if a0 != 0\n      : @953 (gas: 1)\n 25854: jump @500\n      : @954 (gas: 14)\n 25857: a0 = u64 [s1 + 0x158]\n 25861: i32 a0 = a0 + 0x44\n 25864: a1 = u64 [0x20058]\n 25869: a4 = s1 + 0x28d8\n 25873: a5 = a4 + 0x200\n 25877: u64 [a5 + 0xc0] = a1\n 25881: a1 = u64 [0x20060]\n 25886: a2 = u64 [0x20068]\n 25891: a3 = u64 [0x20070]\n 25896: u64 [a5 + 0xb8] = a1\n 25900: u64 [a5 + 0xb0] = a2\n 25904: a1 = s1 + 0x2b80\n 25908: u64 [a5 + 0xa8] = a3\n 25912: ra = 1068, jump @19\n      : @955 [@dyn 534] (gas: 4)\n 25918: a2 = s1 + 0x100\n 25922: a0 = u64 [a2 + 0x40]\n 25925: a0 = a0 + 0xffffffffffffff9c\n 25928: t0 = 1070, jump @1909\n      : @956 [@dyn 535] (gas: 1)\n 25934: jump @958 if a0 != 0\n      : @957 (gas: 1)\n 25937: jump @500\n      : @958 (gas: 15)\n 25940: a0 = u64 [s1 + 0x158]\n 25944: i32 a0 = a0 + 0x64\n 25947: a1 = u64 [0x20078]\n 25952: a4 = s1 + 0x28d8\n 25956: a5 = a4 + 0x200\n 25960: u64 [a5 + 0xa0] = a1\n 25964: a1 = u64 [0x20080]\n 25969: a2 = u64 [0x20088]\n 25974: a3 = u64 [0x20090]\n 25979: u64 [a5 + 0x98] = a1\n 25983: u64 [a5 + 0x90] = a2\n 25987: a1 = s1 + 0x2b60\n 25991: u64 [a5 + 0x88] = a3\n 25995: ra = 0x542\n 25999: jump @19\n      : @959 (gas: 3)\n 26002: a0 = s1 + 0x3060\n 26006: a1 = 0x40\n 26009: ra = 1072, jump @17\n      : @960 [@dyn 536] (gas: 7)\n 26015: a0 = s1 + 0x28d8\n 26019: a5 = a0 + 0x700\n 26023: a3 = u64 [a5 + 0xa0]\n 26027: a4 = u64 [a5 + 0x98]\n 26031: a2 = u64 [a5 + 0x90]\n 26035: a1 = u64 [a5 + 0x88]\n 26039: t0 = 1074, jump @1916\n      : @961 [@dyn 537] (gas: 1)\n 26045: jump @963 if a0 == 0\n      : @962 (gas: 1)\n 26048: jump @500\n      : @963 (gas: 3)\n 26051: t0 = 0x434\n 26055: a2 = s1 + 0x28d8\n 26059: fallthrough\n      : @964 [@dyn 538] (gas: 8)\n 26060: u64 [a2 + 1912] = 0\n 26064: u64 [a2 + 1904] = 0\n 26068: u64 [a2 + 1896] = 0\n 26072: a0 = 0x8c379a000000000\n 26082: a1 = s1 + 0x3040\n 26086: u64 [a2 + 0x780] = a0\n 26090: a0 = u64 [s1 + 0x158]\n 26094: ra = 1078, jump @19\n      : @965 [@dyn 539] (gas: 1)\n 26100: t0 = 1080, jump @1910\n      : @966 [@dyn 540] (gas: 1)\n 26106: jump @968 if a0 != 0\n      : @967 (gas: 1)\n 26109: jump @500\n      : @968 (gas: 1)\n 26112: t0 = 1082, jump @1987\n      : @969 [@dyn 541] (gas: 6)\n 26118: u64 [a2 + 1888] = 0\n 26122: u64 [a2 + 1880] = 0\n 26126: u64 [a2 + 1864] = 0x20\n 26131: a1 = s1 + 0x3020\n 26135: u64 [a2 + 1872] = 0\n 26139: ra = 1084, jump @19\n      : @970 [@dyn 542] (gas: 4)\n 26145: a2 = s1 + 0x100\n 26149: a0 = u64 [a2 + 0x40]\n 26152: a0 = a0 + 0xffffffffffffffdc\n 26155: t0 = 1086, jump @1909\n      : @971 [@dyn 543] (gas: 1)\n 26161: jump @973 if a0 != 0\n      : @972 (gas: 1)\n 26164: jump @500\n      : @973 (gas: 1)\n 26167: t0 = 1088, jump @1977\n      : @974 [@dyn 544] (gas: 6)\n 26173: u64 [a2 + 1856] = 0\n 26177: u64 [a2 + 1848] = 0\n 26181: u64 [a2 + 1832] = 0x2a\n 26186: a1 = s1 + 0x3000\n 26190: u64 [a2 + 1840] = 0\n 26194: ra = 1090, jump @19\n      : @975 [@dyn 545] (gas: 5)\n 26200: a0 = 0x100000000\n 26210: a2 = s1 + 0x100\n 26214: u64 [a2 + 0x40] = a0\n 26217: a0 = 0xffffffbc\n 26227: t0 = 1092, jump @1909\n      : @976 [@dyn 546] (gas: 1)\n 26233: jump @978 if a0 != 0\n      : @977 (gas: 1)\n 26236: jump @500\n      : @978 (gas: 14)\n 26239: a0 = u64 [s1 + 0x158]\n 26243: i32 a0 = a0 + 0x44\n 26246: a1 = u64 [0x20010]\n 26251: a4 = s1 + 0x28d8\n 26255: a5 = a4 + 0x700\n 26259: u64 [a5 + 0x20] = a1\n 26262: a1 = u64 [0x20018]\n 26267: a2 = u64 [0x20020]\n 26272: a3 = u64 [0x20028]\n 26277: u64 [a5 + 0x18] = a1\n 26280: u64 [a5 + 0x10] = a2\n 26283: a1 = s1 + 0x2fe0\n 26287: u64 [a5 + 0x8] = a3\n 26290: ra = 1094, jump @19\n      : @979 [@dyn 547] (gas: 4)\n 26296: a2 = s1 + 0x100\n 26300: a0 = u64 [a2 + 0x40]\n 26303: a0 = a0 + 0xffffffffffffff9c\n 26306: t0 = 1096, jump @1909\n      : @980 [@dyn 548] (gas: 1)\n 26312: jump @982 if a0 != 0\n      : @981 (gas: 1)\n 26315: jump @500\n      : @982 (gas: 12)\n 26318: a0 = u64 [s1 + 0x158]\n 26322: i32 a0 = a0 + 0x64\n 26325: a1 = u64 [0x20030]\n 26330: a2 = s1 + 0x28d8\n 26334: u64 [a2 + 1776] = 0\n 26338: u64 [a2 + 0x700] = a1\n 26342: a1 = 0x6f6e000000000000\n 26352: u64 [a2 + 0x6f8] = a1\n 26356: a1 = s1 + 0x2fc0\n 26360: u64 [a2 + 1768] = 0\n 26364: ra = 0x542\n 26368: jump @19\n      : @983 (gas: 28)\n 26371: a0 = u64 [s1 + 0x60]\n 26374: a0 = a0 ^ 0x1\n 26377: a3 = u64 [s1 + 0xd0]\n 26381: a1 = u64 [s1 + 0x30]\n 26384: a0 = a1 if a3 != 0\n 26387: a1 = u64 [s1 + 0x38]\n 26390: a2 = u64 [s1 + 0x68]\n 26393: a0 = a1 if a2 != 0\n 26396: a4 = u64 [s1 + 0x70]\n 26399: a1 = a3 | a4\n 26402: u64 [s1 + 0x68] = a1\n 26405: a1 = u64 [s1 + 0x80]\n 26409: a2 = a1 >> 0x3f\n 26412: u64 [s1 + 0x60] = a2\n 26415: a2 = a4 << 0x1\n 26418: u64 [s1 + 0x38] = a2\n 26421: a2 = a3 >> 0x3f\n 26424: u64 [s1 + 0x28] = a2\n 26427: a1 = a1 << 0x1\n 26430: u64 [s1 + 0x18] = a1\n 26433: a1 = u64 [s1 + 0x98]\n 26437: a2 = a1 >> 0x3f\n 26440: u64 [s1 + 0x30] = a2\n 26443: a2 = a3 << 0x1\n 26446: u64 [s1 + 0x20] = a2\n 26449: a1 = a1 << 0x1\n 26452: u64 [s1 + 0x70] = a1\n 26455: jump @1023 if a0 == 0\n      : @984 (gas: 16)\n 26459: a0 = u64 [s1 + 0x98]\n 26463: a0 = a0 & 0xffffffffffffffe0\n 26466: u64 [s1 + 0xd0] = a0\n 26470: a0 = s1 + 0x18d8\n 26474: a1 = u64 [s1 + 0x108]\n 26478: a3 = a0 + 0x600\n 26482: u64 [a3 + 0x28] = a1\n 26485: a1 = u64 [s1 + 0x100]\n 26489: u64 [a3 + 0x30] = a1\n 26492: a1 = u64 [s1 + 0xf8]\n 26496: u64 [a3 + 0x38] = a1\n 26499: a1 = s1 + 0x1f00\n 26503: a2 = u64 [s1 + 0x110]\n 26507: u64 [a3 + 0x40] = a2\n 26510: a0 = 0\n 26512: ra = 1098, jump @19\n      : @985 [@dyn 549] (gas: 7)\n 26518: a0 = sp + 0xffffffffffffffe0\n 26521: a0 = a0 & 0xffffffffffffffe0\n 26524: u64 [s1 + 0x130] = a0\n 26528: sp = a0\n 26530: a1 = 0x20\n 26533: a0 = 0\n 26535: ra = 1100, jump @34\n      : @986 [@dyn 550] (gas: 34)\n 26541: a1 = sp + 0xffffffffffffffe0\n 26544: a1 = a1 & 0xffffffffffffffe0\n 26547: u64 [s1 + 0x128] = a1\n 26551: sp = a1\n 26553: i32 a0 = a0 + 0\n 26555: i32 a2 = a1 + 0\n 26557: a1 = 0x20\n 26560: ecalli 9 // 'hash_keccak_256'\n 26562: u64 [s1 + 344] = 0x20\n 26567: a5 = 0\n 26569: u64 [s1 + 336] = 0\n 26573: u64 [s1 + 328] = 0\n 26577: u64 [s1 + 312] = 0\n 26581: u64 [s1 + 320] = 0\n 26585: a3 = u64 [s1 + 0x128]\n 26589: a0 = u64 [a3 + 0x18]\n 26592: a1 = u64 [a3 + 0x10]\n 26595: a2 = u64 [a3 + 0x8]\n 26598: a3 = u64 [a3]\n 26600: t1 = reverse a0\n 26602: t2 = reverse a1\n 26604: ra = reverse a2\n 26606: a2 = 0\n 26608: a4 = u64 [s1 + 0x138]\n 26612: a0 = reverse a3\n 26614: a3 = 0\n 26616: t0 = a0\n 26618: a1 = u64 [s1 + 0x130]\n 26622: u64 [a1 + 0x18] = a0\n 26625: u64 [s1 + 0x110] = ra\n 26629: u64 [a1 + 0x10] = ra\n 26632: u64 [a1 + 0x8] = t2\n 26635: u64 [a1] = t1\n 26637: fallthrough\n      : @987 (gas: 24)\n 26638: u64 [s1 + 0x128] = t0\n 26642: a0 = u64 [s1 + 0xd0]\n 26646: u64 [s1 + 0x138] = a4\n 26650: a0 = a4 <u a0\n 26653: a4 = a0 ^ 0x1\n 26656: u64 [s1 + 0x118] = a3\n 26660: a4 = 0x1 if a3 != 0\n 26663: u64 [s1 + 0x120] = a2\n 26667: a0 = u64 [s1 + 0x140]\n 26671: a0 = a0 | a2\n 26674: a4 = 0x1 if a0 != 0\n 26677: a1 = u64 [s1 + 0xf0]\n 26681: a0 = u64 [s1 + 0x158]\n 26685: a1 = a1 + a0\n 26688: a3 = u64 [s1 + 0xe8]\n 26692: ra = a5 + a3\n 26695: a2 = u64 [s1 + 0xd8]\n 26699: a0 = u64 [s1 + 0x150]\n 26703: a2 = a2 + a0\n 26706: a0 = u64 [s1 + 0xe0]\n 26710: a3 = a5\n 26712: a5 = u64 [s1 + 0x148]\n 26716: a0 = a0 + a5\n 26719: jump @1065 if a4 != 0\n      : @988 (gas: 23)\n 26723: a4 = u64 [s1 + 0x158]\n 26727: a4 = a1 <u a4\n 26730: ra = ra + a4\n 26733: t0 = ra ^ a3\n 26736: u64 [s1 + 0xf8] = a3\n 26740: a5 = ra <u a3\n 26743: a5 = a4 if t0 == 0\n 26746: a5 = a5 + a2\n 26749: t0 = a5 <u a2\n 26752: a3 = u64 [s1 + 0x150]\n 26756: a2 = a2 <u a3\n 26759: a0 = a0 + a2\n 26762: a0 = a0 + t0\n 26765: a2 = a1 | a5\n 26768: a0 = ra | a0\n 26771: a2 = a2 | a0\n 26774: a2 = a2 >> 0x20\n 26777: a0 = a0 | a5\n 26780: a0 = a0 << 0x20\n 26783: a0 = a0 | a2\n 26786: u64 [s1 + 0x108] = t1\n 26790: u64 [s1 + 0x100] = t2\n 26794: jump @990 if a0 == 0\n      : @989 (gas: 1)\n 26797: jump @500\n      : @990 (gas: 2)\n 26800: a0 = s1 + 0x1940\n 26804: ra = 1102, jump @17\n      : @991 [@dyn 551] (gas: 14)\n 26810: a3 = s1 + 0x18d8\n 26814: a0 = u64 [a3 + 0x80]\n 26818: a1 = u64 [a3 + 0x78]\n 26821: a2 = u64 [a3 + 0x70]\n 26824: a3 = u64 [a3 + 0x68]\n 26827: a4 = s1 + 0x30d8\n 26831: a5 = a4 + 0x700\n 26835: u64 [a5 + 0x80] = a0\n 26839: u64 [a5 + 0x78] = a1\n 26842: u64 [a5 + 0x70] = a2\n 26845: u64 [a5 + 0x68] = a3\n 26848: a1 = s1 + 0x3840\n 26852: a0 = u64 [s1 + 0x130]\n 26856: ra = 1104, jump @23\n      : @992 [@dyn 552] (gas: 53)\n 26862: t1 = u64 [s1 + 0x108]\n 26866: t1 = t1 + 0x1\n 26869: a0 = t1 <u 0x1\n 26872: t2 = u64 [s1 + 0x100]\n 26876: t2 = t2 + a0\n 26879: a0 = t1 | t2\n 26882: a0 = a0 <u 0x1\n 26885: a1 = u64 [s1 + 0x110]\n 26889: ra = a1 + a0\n 26892: a1 = ra <u a1\n 26895: a0 = u64 [s1 + 0x128]\n 26899: a0 = a0 + a1\n 26902: a1 = u64 [s1 + 0x158]\n 26906: a2 = a1 + 0x20\n 26909: u64 [s1 + 0x128] = a2\n 26913: a3 = a2 <u a1\n 26916: a1 = u64 [s1 + 0xf8]\n 26920: a2 = a1 + a3\n 26923: u64 [s1 + 0x108] = a2\n 26927: a4 = a2 <u a1\n 26930: a4 = a3 if a3 == 0\n 26933: a1 = u64 [s1 + 0x150]\n 26937: a3 = a1 + a4\n 26940: a4 = a3 <u a1\n 26943: a1 = u64 [s1 + 0x148]\n 26947: a1 = a1 + a4\n 26950: u64 [s1 + 0x148] = a1\n 26954: a1 = u64 [s1 + 0x138]\n 26958: a4 = a1 + 0x20\n 26961: a5 = a4 <u a1\n 26964: a2 = u64 [s1 + 0x118]\n 26968: a1 = a2 + a5\n 26971: a2 = a1 <u a2\n 26974: a2 = a5 if a5 == 0\n 26977: a5 = u64 [s1 + 0x120]\n 26981: a2 = a2 + a5\n 26984: a5 = a2 <u a5\n 26987: t0 = u64 [s1 + 0x140]\n 26991: t0 = t0 + a5\n 26994: u64 [s1 + 0x140] = t0\n 26998: a5 = u64 [s1 + 0x130]\n 27002: u64 [a5 + 0x8] = t2\n 27005: u64 [a5] = t1\n 27007: u64 [a5 + 0x10] = ra\n 27010: t0 = a0\n 27012: u64 [a5 + 0x18] = a0\n 27015: u64 [s1 + 0x110] = ra\n 27019: a0 = u64 [s1 + 0x128]\n 27023: u64 [s1 + 0x158] = a0\n 27027: a5 = u64 [s1 + 0x108]\n 27031: u64 [s1 + 0x150] = a3\n 27035: a3 = a1\n 27037: jump @987\n      : @993 (gas: 8)\n 27040: a2 = s1 + 0x20d8\n 27044: u64 [a2 + 544] = 0\n 27048: u64 [a2 + 536] = 0\n 27052: u64 [a2 + 528] = 0\n 27056: a1 = s1 + 0x22e0\n 27060: u64 [a2 + 520] = 0x1\n 27065: a0 = 0\n 27067: ra = 1106, jump @19\n      : @994 [@dyn 553] (gas: 36)\n 27073: a0 = sp + 0xffffffffffffffe0\n 27076: a5 = a0 & 0xffffffffffffffe0\n 27079: sp = a5\n 27081: u64 [s1 + 344] = 0\n 27085: a3 = 0\n 27087: t2 = 0\n 27089: t0 = 0\n 27091: ra = u64 [0x20108]\n 27096: t1 = u64 [0x20110]\n 27101: a0 = u64 [s1 + 0xd0]\n 27105: a1 = a0 + 0x20\n 27108: u64 [s1 + 0xf0] = a1\n 27112: a2 = a1 <u a0\n 27115: a1 = u64 [s1 + 0xc8]\n 27119: a0 = a1 + a2\n 27122: u64 [s1 + 0xe8] = a0\n 27126: a1 = a0 <u a1\n 27129: a1 = a2 if a2 == 0\n 27132: a4 = u64 [0x20118]\n 27137: a2 = u64 [0x20120]\n 27142: u64 [a5 + 0x18] = ra\n 27145: u64 [s1 + 0x118] = t1\n 27149: u64 [a5 + 0x10] = t1\n 27152: u64 [a5 + 0x8] = a4\n 27155: u64 [s1 + 0x138] = a5\n 27159: u64 [a5] = a2\n 27161: a0 = u64 [s1 + 0xc0]\n 27165: a1 = a1 + a0\n 27168: u64 [s1 + 0xe0] = a1\n 27172: a0 = a1 <u a0\n 27175: a1 = u64 [s1 + 0xb8]\n 27179: a0 = a0 + a1\n 27182: a1 = u64 [s1 + 0x158]\n 27186: u64 [s1 + 0xd8] = a0\n 27190: a0 = 0\n 27192: fallthrough\n      : @995 (gas: 24)\n 27193: u64 [s1 + 0x140] = a0\n 27197: u64 [s1 + 0x148] = a3\n 27201: u64 [s1 + 0x158] = a1\n 27205: u64 [s1 + 0x150] = t0\n 27209: u64 [s1 + 0x120] = a2\n 27213: u64 [s1 + 0x128] = a4\n 27217: u64 [s1 + 0x130] = ra\n 27221: a5 = a0\n 27223: a0 = u64 [s1 + 0xf8]\n 27227: a0 = a1 <u a0\n 27230: a2 = u64 [s1 + 0x108]\n 27234: a1 = a3 ^ a2\n 27237: a2 = a3 <u a2\n 27240: a2 = a0 if a1 == 0\n 27243: a4 = u64 [s1 + 0x100]\n 27247: a0 = a5 <u a4\n 27250: a3 = u64 [s1 + 0x110]\n 27254: a1 = t0 ^ a3\n 27257: a3 = t0 <u a3\n 27260: a3 = a0 if a1 == 0\n 27263: a0 = a5 ^ a4\n 27266: a0 = a0 | a1\n 27269: a3 = a2 if a0 == 0\n 27272: jump @1039 if a3 == 0\n      : @996 (gas: 3)\n 27276: a0 = s1 + 0x22c0\n 27280: a1 = u64 [s1 + 0x138]\n 27284: ra = 1108, jump @21\n      : @997 [@dyn 554] (gas: 1)\n 27290: t0 = 1110, jump @1940\n      : @998 [@dyn 555] (gas: 6)\n 27296: t0 = a1 <u a3\n 27299: a5 = u64 [s1 + 0xd8]\n 27303: a3 = u64 [s1 + 0x150]\n 27307: a5 = a5 + a3\n 27310: a3 = a5 + t0\n 27313: t0 = 1112, jump @1930\n      : @999 [@dyn 556] (gas: 1)\n 27319: jump @1001 if a1 == 0\n      : @1000 (gas: 1)\n 27322: jump @500\n      : @1001 (gas: 12)\n 27325: a5 = s1 + 0x20d8\n 27329: a2 = u64 [a5 + 0x200]\n 27333: a1 = u64 [a5 + 0x1f8]\n 27337: a3 = u64 [a5 + 0x1f0]\n 27341: a4 = u64 [a5 + 0x1e8]\n 27345: u64 [a5 + 0x1c8] = a4\n 27349: a4 = a5 + 0x100\n 27353: u64 [a4 + 0xd0] = a3\n 27357: u64 [a4 + 0xd8] = a1\n 27361: a1 = s1 + 0x22a0\n 27365: u64 [a4 + 0xe0] = a2\n 27369: ra = 1114, jump @19\n      : @1002 [@dyn 557] (gas: 1)\n 27375: t0 = 1116, jump @1920\n      : @1003 [@dyn 558] (gas: 12)\n 27381: t0 = u64 [s1 + 0x150]\n 27385: t0 = t0 + a2\n 27388: a2 = u64 [a5 + 0x38]\n 27391: u64 [a2 + 0x8] = t2\n 27394: u64 [a2] = t1\n 27396: u64 [a2 + 0x10] = a0\n 27399: u64 [a2 + 0x18] = ra\n 27402: u64 [a5 + 0x18] = a0\n 27405: a0 = a4\n 27407: a4 = t2\n 27409: a2 = t1\n 27411: jump @995\n      : @1004 (gas: 3)\n 27414: a0 = s1 + 0x2920\n 27418: a1 = 0x40\n 27421: ra = 1118, jump @17\n      : @1005 [@dyn 559] (gas: 11)\n 27427: a0 = s1 + 0x28d8\n 27431: a1 = u64 [a0 + 0x60]\n 27434: u64 [s1 + 0x150] = a1\n 27438: a1 = u64 [a0 + 0x58]\n 27441: u64 [s1 + 0x148] = a1\n 27445: a1 = u64 [a0 + 0x50]\n 27448: u64 [s1 + 0x140] = a1\n 27452: a0 = u64 [a0 + 0x48]\n 27455: u64 [s1 + 0x158] = a0\n 27459: ecalli 12 // 'return_data_size'\n 27461: fallthrough\n      : @1006 (gas: 13)\n 27462: a4 = s1 + 0x100\n 27466: a1 = u64 [a4 + 0x50]\n 27469: a2 = u64 [a4 + 0x40]\n 27472: a1 = a1 | a2\n 27475: a3 = u64 [a4 + 0x48]\n 27478: a2 = u64 [a4 + 0x58]\n 27481: a2 = a2 | a3\n 27484: a2 = a2 | a1\n 27487: a2 = a2 >> 0x20\n 27490: a1 = a1 | a3\n 27493: a1 = a1 << 0x20\n 27496: a1 = a1 | a2\n 27499: jump @1008 if a1 == 0\n      : @1007 (gas: 1)\n 27502: jump @500\n      : @1008 (gas: 2)\n 27505: a1 = a0 >> 0x20\n 27508: jump @1010 if a1 == 0\n      : @1009 (gas: 1)\n 27511: jump @500\n      : @1010 (gas: 6)\n 27514: a1 = a0\n 27516: u64 [s1 + 0x148] = a0\n 27520: i32 a0 = a0 + 0\n 27522: u64 [s1 + 0x150] = a0\n 27526: a0 = u64 [s1 + 0x158]\n 27530: ra = 1120, jump @34\n      : @1011 [@dyn 560] (gas: 11)\n 27536: a1 = s1 + 0x38d8\n 27540: a2 = u64 [s1 + 0x148]\n 27544: u32 [a1 + 0x468] = a2\n 27548: i32 a0 = a0 + 0\n 27550: a1 = s1 + 0x4000\n 27554: i32 a1 = a1 + 0xfffffffffffffd40\n 27558: a2 = 0\n 27560: ecalli 11 // 'return_data_copy'\n 27562: a0 = s1 + 0x38d8\n 27566: a0 = i32 [a0 + 0x468]\n 27570: jump @1032\n      : @1012 (gas: 7)\n 27573: u64 [s1 + 728] = 0\n 27577: u64 [s1 + 720] = 0\n 27581: u64 [s1 + 712] = 0\n 27585: a1 = s1 + 0x2c0\n 27589: u64 [s1 + 704] = 0\n 27593: a0 = 0\n 27595: ra = 1122, jump @19\n      : @1013 [@dyn 561] (gas: 36)\n 27601: a0 = sp + 0xffffffffffffffe0\n 27604: a5 = a0 & 0xffffffffffffffe0\n 27607: sp = a5\n 27609: u64 [s1 + 344] = 0\n 27613: a3 = 0\n 27615: t2 = 0\n 27617: t0 = 0\n 27619: ra = u64 [0x201a8]\n 27624: t1 = u64 [0x201b0]\n 27629: a0 = u64 [s1 + 0xd0]\n 27633: a1 = a0 + 0x20\n 27636: u64 [s1 + 0xf0] = a1\n 27640: a2 = a1 <u a0\n 27643: a1 = u64 [s1 + 0xc8]\n 27647: a0 = a1 + a2\n 27650: u64 [s1 + 0xe8] = a0\n 27654: a1 = a0 <u a1\n 27657: a1 = a2 if a2 == 0\n 27660: a4 = u64 [0x201b8]\n 27665: a2 = u64 [0x201c0]\n 27670: u64 [a5 + 0x18] = ra\n 27673: u64 [s1 + 0x118] = t1\n 27677: u64 [a5 + 0x10] = t1\n 27680: u64 [a5 + 0x8] = a4\n 27683: u64 [s1 + 0x138] = a5\n 27687: u64 [a5] = a2\n 27689: a0 = u64 [s1 + 0xc0]\n 27693: a1 = a1 + a0\n 27696: u64 [s1 + 0xe0] = a1\n 27700: a0 = a1 <u a0\n 27703: a1 = u64 [s1 + 0xb8]\n 27707: a0 = a0 + a1\n 27710: a1 = u64 [s1 + 0x158]\n 27714: u64 [s1 + 0xd8] = a0\n 27718: a0 = 0\n 27720: fallthrough\n      : @1014 (gas: 24)\n 27721: u64 [s1 + 0x140] = a0\n 27725: u64 [s1 + 0x148] = a3\n 27729: u64 [s1 + 0x158] = a1\n 27733: u64 [s1 + 0x150] = t0\n 27737: u64 [s1 + 0x120] = a2\n 27741: u64 [s1 + 0x128] = a4\n 27745: u64 [s1 + 0x130] = ra\n 27749: a5 = a0\n 27751: a0 = u64 [s1 + 0xf8]\n 27755: a0 = a1 <u a0\n 27758: a2 = u64 [s1 + 0x108]\n 27762: a1 = a3 ^ a2\n 27765: a2 = a3 <u a2\n 27768: a2 = a0 if a1 == 0\n 27771: a4 = u64 [s1 + 0x100]\n 27775: a0 = a5 <u a4\n 27778: a3 = u64 [s1 + 0x110]\n 27782: a1 = t0 ^ a3\n 27785: a3 = t0 <u a3\n 27788: a3 = a0 if a1 == 0\n 27791: a0 = a5 ^ a4\n 27794: a0 = a0 | a1\n 27797: a3 = a2 if a0 == 0\n 27800: jump @1050 if a3 == 0\n      : @1015 (gas: 3)\n 27804: a0 = s1 + 0x2a0\n 27808: a1 = u64 [s1 + 0x138]\n 27812: ra = 1124, jump @21\n      : @1016 [@dyn 562] (gas: 1)\n 27818: t0 = 1126, jump @1940\n      : @1017 [@dyn 563] (gas: 6)\n 27824: t0 = a1 <u a3\n 27827: a5 = u64 [s1 + 0xd8]\n 27831: a3 = u64 [s1 + 0x150]\n 27835: a5 = a5 + a3\n 27838: a3 = a5 + t0\n 27841: t0 = 1128, jump @1930\n      : @1018 [@dyn 564] (gas: 1)\n 27847: jump @1020 if a1 == 0\n      : @1019 (gas: 1)\n 27850: jump @500\n      : @1020 (gas: 11)\n 27853: a5 = s1 + 0x200\n 27857: a2 = u64 [a5 + 0xb8]\n 27861: a1 = u64 [a5 + 0xb0]\n 27865: a3 = u64 [a5 + 0xa8]\n 27869: a4 = u64 [a5 + 0xa0]\n 27873: u64 [a5 + 0x80] = a4\n 27877: u64 [a5 + 0x88] = a3\n 27881: u64 [a5 + 0x90] = a1\n 27885: a1 = s1 + 0x280\n 27889: u64 [a5 + 0x98] = a2\n 27893: ra = 1130, jump @19\n      : @1021 [@dyn 565] (gas: 1)\n 27899: t0 = 1132, jump @1920\n      : @1022 [@dyn 566] (gas: 12)\n 27905: t0 = u64 [s1 + 0x150]\n 27909: t0 = t0 + a2\n 27912: a2 = u64 [a5 + 0x38]\n 27915: u64 [a2 + 0x8] = t2\n 27918: u64 [a2] = t1\n 27920: u64 [a2 + 0x10] = a0\n 27923: u64 [a2 + 0x18] = ra\n 27926: u64 [a5 + 0x18] = a0\n 27929: a0 = a4\n 27931: a4 = t2\n 27933: a2 = t1\n 27935: jump @1014\n      : @1023 (gas: 6)\n 27938: a0 = u64 [s1 + 0x98]\n 27942: a1 = u64 [s1 + 0x80]\n 27946: a0 = a0 | a1\n 27949: a1 = u64 [s1 + 0x68]\n 27952: a0 = a0 | a1\n 27955: jump @1074 if a0 != 0\n      : @1024 (gas: 5)\n 27959: u64 [s1 + 264] = 0\n 27963: u64 [s1 + 256] = 0\n 27967: u64 [s1 + 272] = 0\n 27971: u64 [s1 + 280] = 0\n 27975: jump @1078\n      : @1025 (gas: 2)\n 27978: ecalli 12 // 'return_data_size'\n 27980: fallthrough\n      : @1026 (gas: 12)\n 27981: a1 = u64 [s1 + 0x158]\n 27985: a3 = u64 [s1 + 0x100]\n 27989: a1 = a1 | a3\n 27992: a2 = u64 [s1 + 0xf8]\n 27996: a4 = u64 [s1 + 0xd0]\n 28000: a2 = a2 | a4\n 28003: a1 = a1 | a2\n 28006: a1 = a1 >> 0x20\n 28009: a2 = a2 | a3\n 28012: a2 = a2 << 0x20\n 28015: a1 = a1 | a2\n 28018: jump @1028 if a1 == 0\n      : @1027 (gas: 1)\n 28021: jump @500\n      : @1028 (gas: 2)\n 28024: a1 = a0 >> 0x20\n 28027: jump @1030 if a1 == 0\n      : @1029 (gas: 1)\n 28030: jump @500\n      : @1030 (gas: 6)\n 28033: a1 = a0\n 28035: u64 [s1 + 0x148] = a0\n 28039: i32 a0 = a0 + 0\n 28041: u64 [s1 + 0x150] = a0\n 28045: a0 = u64 [s1 + 0x158]\n 28049: ra = 1134, jump @34\n      : @1031 [@dyn 567] (gas: 11)\n 28055: a1 = s1 + 0x38d8\n 28059: a2 = u64 [s1 + 0x148]\n 28063: u32 [a1 + 0x528] = a2\n 28067: i32 a0 = a0 + 0\n 28069: a1 = s1 + 0x4000\n 28073: i32 a1 = a1 + 0xfffffffffffffe00\n 28077: a2 = 0\n 28079: ecalli 11 // 'return_data_copy'\n 28081: a0 = s1 + 0x38d8\n 28085: a0 = i32 [a0 + 0x528]\n 28089: fallthrough\n      : @1032 (gas: 2)\n 28090: a1 = u64 [s1 + 0x150]\n 28094: jump @1034 if a0 >=u a1\n      : @1033 (gas: 1)\n 28097: jump @500\n      : @1034 (gas: 2)\n 28100: ecalli 12 // 'return_data_size'\n 28102: fallthrough\n      : @1035 (gas: 3)\n 28103: a1 = a0\n 28105: a0 = a0 >> 0x20\n 28108: jump @1037 if a0 == 0\n      : @1036 (gas: 1)\n 28111: jump @500\n      : @1037 (gas: 3)\n 28114: a0 = u64 [s1 + 0x158]\n 28118: u64 [s1 + 0x150] = a1\n 28122: ra = 1136, jump @34\n      : @1038 [@dyn 568] (gas: 6)\n 28128: i32 a1 = a0 + 0\n 28130: a2 = i32 [s1 + 0x150]\n 28134: a0 = 0x1\n 28137: ra = 0x472\n 28141: ecalli 13 // 'seal_return'\n 28143: fallthrough\n      : @1039 [@dyn 569] (gas: 7)\n 28144: a1 = s1 + 0x100\n 28148: a0 = u64 [a1 + 0x58]\n 28151: a3 = u64 [a1 + 0x48]\n 28154: a5 = u64 [a1 + 0x40]\n 28157: a4 = u64 [a1 + 0x50]\n 28160: t0 = 0x474\n 28164: jump @1969\n      : @1040 (gas: 1)\n 28167: t0 = 1140, jump @1969\n      : @1041 [@dyn 570] (gas: 17)\n 28173: a5 = s1 + 0x20d8\n 28177: a1 = u64 [s1 + 0xd0]\n 28181: u64 [a5 + 0x188] = a1\n 28185: u64 [a5 + 0x168] = a0\n 28189: a0 = u64 [s1 + 0xc8]\n 28193: u64 [a5 + 0x190] = a0\n 28197: a0 = u64 [s1 + 0xc0]\n 28201: u64 [a5 + 0x198] = a0\n 28205: u64 [a5 + 0x170] = a2\n 28209: a0 = u64 [s1 + 0xb8]\n 28213: a2 = a5 + 0x100\n 28217: u64 [a2 + 0xa0] = a0\n 28221: u64 [a2 + 0x78] = a3\n 28224: a0 = s1 + 0x2260\n 28228: a1 = s1 + 0x2240\n 28232: u64 [a2 + 0x80] = a4\n 28236: ra = 1142, jump @1521\n      : @1042 [@dyn 571] (gas: 3)\n 28242: a0 = s1 + 0x2220\n 28246: a1 = 0x40\n 28249: ra = 1144, jump @17\n      : @1043 [@dyn 572] (gas: 7)\n 28255: a1 = s1 + 0x20d8\n 28259: a4 = a1 + 0x100\n 28263: a2 = u64 [a4 + 0x60]\n 28266: a3 = u64 [a4 + 0x58]\n 28269: a0 = u64 [a4 + 0x50]\n 28272: a1 = u64 [a4 + 0x48]\n 28275: t0 = 1146, jump @1938\n      : @1044 [@dyn 573] (gas: 1)\n 28281: jump @1046 if a0 == 0\n      : @1045 (gas: 1)\n 28284: jump @500\n      : @1046 (gas: 8)\n 28287: a2 = s1 + 0x20d8\n 28291: u64 [a2 + 320] = 0\n 28295: u64 [a2 + 312] = 0\n 28299: u64 [a2 + 304] = 0\n 28303: a1 = s1 + 0x2200\n 28307: u64 [a2 + 296] = 0x20\n 28312: a0 = u64 [s1 + 0x158]\n 28316: ra = 1148, jump @19\n      : @1047 [@dyn 574] (gas: 1)\n 28322: t0 = 1150, jump @1935\n      : @1048 [@dyn 575] (gas: 17)\n 28328: u64 [a1 + 0xd0] = a2\n 28332: u64 [a1 + 0xc8] = a0\n 28336: a0 = u64 [s1 + 0xb8]\n 28340: u64 [a1 + 0x100] = a0\n 28344: a0 = u64 [s1 + 0xc0]\n 28348: u64 [a1 + 0xf8] = a0\n 28352: a0 = u64 [s1 + 0xc8]\n 28356: u64 [a1 + 0xf0] = a0\n 28360: a0 = u64 [s1 + 0xd0]\n 28364: u64 [a1 + 0xe8] = a0\n 28368: u64 [a1 + 0xd8] = a3\n 28372: a3 = a1\n 28374: a0 = s1 + 0x21e0\n 28378: a1 = s1 + 0x21c0\n 28382: a2 = s1 + 0x21a0\n 28386: u64 [a3 + 0xe0] = a4\n 28390: ra = 1152, jump @1435\n      : @1049 [@dyn 576] (gas: 6)\n 28396: a1 = s1 + 0x20d8\n 28400: a0 = u64 [a1 + 0x110]\n 28404: t0 = u64 [a1 + 0x120]\n 28408: t1 = u64 [a1 + 0x108]\n 28412: a3 = u64 [a1 + 0x118]\n 28416: jump @1061\n      : @1050 (gas: 7)\n 28419: a1 = s1 + 0x100\n 28423: a0 = u64 [a1 + 0x58]\n 28426: a3 = u64 [a1 + 0x48]\n 28429: a5 = u64 [a1 + 0x40]\n 28432: a4 = u64 [a1 + 0x50]\n 28435: t0 = 0x482\n 28439: jump @1969\n      : @1051 (gas: 1)\n 28442: t0 = 1154, jump @1969\n      : @1052 [@dyn 577] (gas: 15)\n 28448: a1 = u64 [s1 + 0xd0]\n 28452: u64 [s1 + 0x240] = a1\n 28456: u64 [s1 + 0x220] = a0\n 28460: a0 = u64 [s1 + 0xc8]\n 28464: u64 [s1 + 0x248] = a0\n 28468: a0 = u64 [s1 + 0xc0]\n 28472: u64 [s1 + 0x250] = a0\n 28476: u64 [s1 + 0x228] = a2\n 28480: a0 = u64 [s1 + 0xb8]\n 28484: u64 [s1 + 0x258] = a0\n 28488: u64 [s1 + 0x230] = a3\n 28492: a0 = s1 + 0x240\n 28496: a1 = s1 + 0x220\n 28500: u64 [s1 + 0x238] = a4\n 28504: ra = 1156, jump @1521\n      : @1053 [@dyn 578] (gas: 3)\n 28510: a0 = s1 + 0x200\n 28514: a1 = 0x40\n 28517: ra = 1158, jump @17\n      : @1054 [@dyn 579] (gas: 6)\n 28523: a4 = s1 + 0x200\n 28527: a2 = u64 [a4 + 0x18]\n 28530: a3 = u64 [a4 + 0x10]\n 28533: a0 = u64 [a4 + 0x8]\n 28536: a1 = u64 [a4]\n 28538: t0 = 1160, jump @1938\n      : @1055 [@dyn 580] (gas: 1)\n 28544: jump @1057 if a0 == 0\n      : @1056 (gas: 1)\n 28547: jump @500\n      : @1057 (gas: 7)\n 28550: u64 [s1 + 504] = 0\n 28554: u64 [s1 + 496] = 0\n 28558: u64 [s1 + 488] = 0\n 28562: a1 = s1 + 0x1e0\n 28566: u64 [s1 + 480] = 0x20\n 28571: a0 = u64 [s1 + 0x158]\n 28575: ra = 1162, jump @19\n      : @1058 [@dyn 581] (gas: 5)\n 28581: a1 = u64 [s1 + 0x158]\n 28585: a0 = a1 + 0x20\n 28588: a1 = a0 <u a1\n 28591: a3 = u64 [s1 + 0x150]\n 28595: t0 = 1164, jump @1991\n      : @1059 [@dyn 582] (gas: 21)\n 28601: a1 = u64 [s1 + 0x140]\n 28605: a3 = a3 + a1\n 28608: a1 = a3 <u a1\n 28611: a4 = u64 [s1 + 0x148]\n 28615: a4 = a4 + a1\n 28618: u64 [s1 + 0x188] = a2\n 28622: u64 [s1 + 0x180] = a0\n 28626: a0 = u64 [s1 + 0xb8]\n 28630: u64 [s1 + 0x1b8] = a0\n 28634: a0 = u64 [s1 + 0xc0]\n 28638: u64 [s1 + 0x1b0] = a0\n 28642: a0 = u64 [s1 + 0xc8]\n 28646: u64 [s1 + 0x1a8] = a0\n 28650: a0 = u64 [s1 + 0xd0]\n 28654: u64 [s1 + 0x1a0] = a0\n 28658: u64 [s1 + 0x190] = a3\n 28662: a0 = s1 + 0x1c0\n 28666: a1 = s1 + 0x1a0\n 28670: a2 = s1 + 0x180\n 28674: u64 [s1 + 0x198] = a4\n 28678: ra = 1166, jump @1435\n      : @1060 [@dyn 583] (gas: 5)\n 28684: a0 = u64 [s1 + 0x1c8]\n 28688: t0 = u64 [s1 + 0x1d8]\n 28692: t1 = u64 [s1 + 0x1c0]\n 28696: a3 = u64 [s1 + 0x1d0]\n 28700: fallthrough\n      : @1061 (gas: 28)\n 28701: a1 = u64 [s1 + 0x150]\n 28705: a4 = a0 ^ a1\n 28708: a5 = a0 <u a1\n 28711: ra = a1\n 28713: t2 = u64 [s1 + 0x158]\n 28717: a1 = t1 <u t2\n 28720: a5 = a1 if a4 == 0\n 28723: a2 = u64 [s1 + 0x140]\n 28727: a4 = a3 - a2\n 28730: a3 = a3 <u a2\n 28733: a2 = u64 [s1 + 0x148]\n 28737: a2 = t0 - a2\n 28740: a2 = a2 - a3\n 28743: a3 = a4 <u a5\n 28746: a2 = a2 - a3\n 28749: a4 = a4 - a5\n 28752: a0 = a0 - ra\n 28755: a0 = a0 - a1\n 28758: a1 = t1 - t2\n 28761: a0 = a0 | a2\n 28764: a2 = a1\n 28766: a1 = a1 | a4\n 28769: a1 = a1 | a0\n 28772: a0 = a0 | a4\n 28775: a1 = a1 >> 0x20\n 28778: a0 = a0 << 0x20\n 28781: a0 = a0 | a1\n 28784: jump @1063 if a0 == 0\n      : @1062 (gas: 1)\n 28787: jump @500\n      : @1063 (gas: 4)\n 28790: a0 = u64 [s1 + 0x158]\n 28794: a1 = a2\n 28796: u64 [s1 + 0x150] = a2\n 28800: ra = 1168, jump @34\n      : @1064 [@dyn 584] (gas: 5)\n 28806: i32 a1 = a0 + 0\n 28808: a2 = i32 [s1 + 0x150]\n 28812: a0 = 0\n 28814: ecalli 13 // 'seal_return'\n 28816: jump @1213\n      : @1065 (gas: 10)\n 28819: t1 = u64 [s1 + 0x150]\n 28823: t0 = u64 [s1 + 0x158]\n 28827: a4 = u64 [s1 + 0x98]\n 28831: a5 = u64 [s1 + 0xd0]\n 28835: a4 = a4 ^ a5\n 28838: a5 = u64 [s1 + 0x80]\n 28842: a4 = a4 | a5\n 28845: a5 = u64 [s1 + 0x68]\n 28848: a4 = a4 | a5\n 28851: jump @1073 if a4 == 0\n      : @1066 (gas: 19)\n 28855: t2 = a3\n 28857: a4 = a1 <u t0\n 28860: a3 = ra + a4\n 28863: t0 = a3 ^ t2\n 28866: a5 = a3 <u t2\n 28869: a5 = a4 if t0 == 0\n 28872: a5 = a5 + a2\n 28875: a4 = a5 <u a2\n 28878: a2 = a2 <u t1\n 28881: a0 = a0 + a2\n 28884: a0 = a0 + a4\n 28887: a2 = a1 | a5\n 28890: a0 = a0 | a3\n 28893: a2 = a2 | a0\n 28896: a2 = a2 >> 0x20\n 28899: a0 = a0 | a5\n 28902: a0 = a0 << 0x20\n 28905: a0 = a0 | a2\n 28908: jump @1068 if a0 == 0\n      : @1067 (gas: 1)\n 28911: jump @500\n      : @1068 (gas: 2)\n 28914: a0 = s1 + 0x1ee0\n 28918: ra = 1170, jump @17\n      : @1069 [@dyn 585] (gas: 18)\n 28924: a0 = s1 + 0x18d8\n 28928: a2 = a0 + 0x600\n 28932: a1 = u64 [a2 + 0x20]\n 28935: u64 [s1 + 0x150] = a1\n 28939: a1 = u64 [a2 + 0x18]\n 28942: u64 [s1 + 0x148] = a1\n 28946: a1 = u64 [a2 + 0x10]\n 28949: u64 [s1 + 0x140] = a1\n 28953: a0 = u64 [a2 + 0x8]\n 28956: u64 [s1 + 0x138] = a0\n 28960: a0 = u64 [s1 + 0x98]\n 28964: a0 = a0 << 0x3b\n 28967: a1 = a0 >> 0x38\n 28970: u64 [s1 + 0x158] = a1\n 28974: a2 = 0x80 - a1\n 28978: a0 = 0xffffffffffffffff\n 28981: a1 = 0xffffffffffffffff\n 28984: ra = 1172, jump @2025\n      : @1070 [@dyn 586] (gas: 6)\n 28990: u64 [s1 + 0x128] = a0\n 28994: u64 [s1 + 0x110] = a1\n 28998: a0 = 0xffffffffffffffff\n 29001: a1 = 0xffffffffffffffff\n 29004: a2 = u64 [s1 + 0x158]\n 29008: ra = 1174, jump @2020\n      : @1071 [@dyn 587] (gas: 10)\n 29014: u64 [s1 + 0x118] = a0\n 29018: u64 [s1 + 0x120] = a1\n 29022: a0 = u64 [s1 + 0x110]\n 29026: a0 = a0 | a1\n 29029: u64 [s1 + 0x110] = a0\n 29033: a0 = u64 [s1 + 0x158]\n 29037: a2 = a0 + 0xffffffffffffff80\n 29040: a0 = 0xffffffffffffffff\n 29043: a1 = 0xffffffffffffffff\n 29046: ra = 1176, jump @2020\n      : @1072 [@dyn 588] (gas: 30)\n 29052: a4 = u64 [s1 + 0x158]\n 29056: a2 = a4 <u 0x80\n 29060: a3 = u64 [s1 + 0x110]\n 29064: a1 = a3 if a2 != 0\n 29067: a5 = u64 [s1 + 0x118]\n 29071: a3 = u64 [s1 + 0x128]\n 29075: a3 = a3 | a5\n 29078: a3 = a0 if a2 == 0\n 29081: a1 = 0xffffffffffffffff if a4 == 0\n 29084: a3 = 0xffffffffffffffff if a4 == 0\n 29087: a4 = u64 [s1 + 0x120]\n 29091: a4 = 0 if a2 == 0\n 29093: a5 = 0 if a2 == 0\n 29095: a0 = u64 [s1 + 0x138]\n 29099: a0 = a0 & ~a3\n 29102: a2 = u64 [s1 + 0x140]\n 29106: a1 = a2 & ~a1\n 29109: a2 = u64 [s1 + 0x148]\n 29113: a2 = a2 & ~a5\n 29116: a3 = u64 [s1 + 0x150]\n 29120: a3 = a3 & ~a4\n 29123: a4 = s1 + 0x30d8\n 29127: a5 = a4 + 0x700\n 29131: u64 [a5 + 0xa0] = a3\n 29135: u64 [a5 + 0x98] = a2\n 29139: u64 [a5 + 0x90] = a1\n 29143: u64 [a5 + 0x88] = a0\n 29147: a1 = s1 + 0x3860\n 29151: a0 = u64 [s1 + 0x130]\n 29155: ra = 1178, jump @23\n      : @1073 [@dyn 589] (gas: 19)\n 29161: a0 = u64 [s1 + 0x60]\n 29164: a1 = u64 [s1 + 0x38]\n 29167: a0 = a0 | a1\n 29170: a1 = u64 [s1 + 0x28]\n 29173: a2 = u64 [s1 + 0x18]\n 29176: a1 = a1 | a2\n 29179: a2 = u64 [s1 + 0x30]\n 29182: a3 = u64 [s1 + 0x20]\n 29185: a2 = a2 | a3\n 29188: a3 = u64 [s1 + 0x70]\n 29191: a3 = a3 + 0x1\n 29194: a4 = s1 + 0x30d8\n 29198: a5 = a4 + 0x700\n 29202: u64 [a5 + 0xa8] = a3\n 29206: u64 [a5 + 0xb0] = a2\n 29210: u64 [a5 + 0xb8] = a1\n 29214: u64 [a5 + 0xc0] = a0\n 29218: a0 = 0x3880\n 29222: jump @1083\n      : @1074 (gas: 10)\n 29225: a0 = u64 [s1 + 0xe0]\n 29229: a1 = u64 [s1 + 0xd8]\n 29233: a0 = a0 | a1\n 29236: a1 = 0xffffffe0\n 29246: a2 = u64 [s1 + 0xf0]\n 29250: a1 = a2 <u a1\n 29253: a2 = u64 [s1 + 0xe8]\n 29257: a1 = 0 if a2 != 0\n 29259: a1 = 0 if a0 != 0\n 29261: jump @1076 if a1 != 0\n      : @1075 (gas: 1)\n 29264: jump @500\n      : @1076 (gas: 4)\n 29267: a0 = u64 [s1 + 0xf0]\n 29271: i32 a1 = a0 + 0x20\n 29274: a0 = s1 + 0x1f20\n 29278: ra = 1180, jump @17\n      : @1077 [@dyn 590] (gas: 12)\n 29284: a0 = s1 + 0x18d8\n 29288: a2 = a0 + 0x600\n 29292: a1 = u64 [a2 + 0x60]\n 29295: a3 = s1 + 0x100\n 29299: u64 [a3 + 0x18] = a1\n 29302: a1 = u64 [a2 + 0x58]\n 29305: u64 [a3 + 0x10] = a1\n 29308: a1 = u64 [a2 + 0x50]\n 29311: u64 [a3] = a1\n 29313: a0 = u64 [a2 + 0x48]\n 29316: u64 [a3 + 0x8] = a0\n 29319: fallthrough\n      : @1078 (gas: 19)\n 29320: a0 = u64 [s1 + 0x28]\n 29323: a1 = u64 [s1 + 0x18]\n 29326: a0 = a0 | a1\n 29329: u64 [s1 + 0x150] = a0\n 29333: a0 = u64 [s1 + 0x60]\n 29336: a1 = u64 [s1 + 0x38]\n 29339: a0 = a0 | a1\n 29342: u64 [s1 + 0x148] = a0\n 29346: a0 = u64 [s1 + 0x30]\n 29349: a1 = u64 [s1 + 0x20]\n 29352: a0 = a0 | a1\n 29355: u64 [s1 + 0x140] = a0\n 29359: a1 = u64 [s1 + 0x98]\n 29363: a1 = a1 << 0x3\n 29366: u64 [s1 + 0x158] = a1\n 29370: i32 a2 = 0x80 - a1\n 29374: a0 = 0xffffffffffffffff\n 29377: a1 = 0xffffffffffffffff\n 29380: ra = 1182, jump @2025\n      : @1079 [@dyn 591] (gas: 7)\n 29386: u64 [s1 + 0x120] = a0\n 29390: u64 [s1 + 0x138] = a1\n 29394: a0 = u64 [s1 + 0x98]\n 29398: i32 a2 = a0 << 0x3\n 29401: a0 = 0xffffffffffffffff\n 29404: a1 = 0xffffffffffffffff\n 29407: ra = 1184, jump @2020\n      : @1080 [@dyn 592] (gas: 10)\n 29413: u64 [s1 + 0x130] = a0\n 29417: u64 [s1 + 0x128] = a1\n 29421: a1 = u64 [s1 + 0x120]\n 29425: a0 = a0 | a1\n 29428: u64 [s1 + 0x120] = a0\n 29432: a0 = u64 [s1 + 0x158]\n 29436: i32 a2 = a0 + 0xffffffffffffff80\n 29439: a0 = 0xffffffffffffffff\n 29442: a1 = 0xffffffffffffffff\n 29445: ra = 1186, jump @2020\n      : @1081 [@dyn 593] (gas: 7)\n 29451: a4 = u64 [s1 + 0x158]\n 29455: a2 = a4 <u 0x80\n 29459: a3 = u64 [s1 + 0x120]\n 29463: a0 = a3 if a2 != 0\n 29466: a5 = u64 [s1 + 0x128]\n 29470: a3 = u64 [s1 + 0x138]\n 29474: t0 = 1188, jump @1964\n      : @1082 [@dyn 594] (gas: 27)\n 29480: a4 = u64 [s1 + 0x130]\n 29484: a4 = 0 if a2 == 0\n 29486: a1 = u64 [s1 + 0x100]\n 29490: a1 = a1 & ~a3\n 29493: a2 = u64 [s1 + 0x108]\n 29497: a0 = a2 & ~a0\n 29500: a2 = u64 [s1 + 0x110]\n 29504: a2 = a2 & ~a4\n 29507: a3 = u64 [s1 + 0x118]\n 29511: a3 = a3 & ~a5\n 29514: a4 = u64 [s1 + 0x70]\n 29517: a0 = a0 | a4\n 29520: a5 = s1 + 0x100\n 29524: a4 = u64 [a5 + 0x40]\n 29527: a1 = a1 | a4\n 29530: a4 = u64 [a5 + 0x48]\n 29533: a3 = a3 | a4\n 29536: a4 = u64 [a5 + 0x50]\n 29539: a2 = a2 | a4\n 29542: a4 = s1 + 0x30d8\n 29546: a5 = a4 + 0x700\n 29550: u64 [a5 + 0xd8] = a2\n 29554: u64 [a5 + 0xe0] = a3\n 29558: u64 [a5 + 0xd0] = a1\n 29562: u64 [a5 + 0xc8] = a0\n 29566: a0 = 0x38a0\n 29570: fallthrough\n      : @1083 (gas: 3)\n 29571: a1 = s1 + a0\n 29574: a0 = u64 [s1 + 0xa0]\n 29578: ra = 1190, jump @23\n      : @1084 [@dyn 595] (gas: 3)\n 29584: a0 = s1 + 0x1ec0\n 29588: a1 = 0x40\n 29591: ra = 1192, jump @17\n      : @1085 [@dyn 596] (gas: 7)\n 29597: a3 = s1 + 0x18d8\n 29601: a0 = u64 [a3 + 0x600]\n 29605: a5 = a3 + 0x500\n 29609: a1 = u64 [a5 + 0xf8]\n 29613: a2 = u64 [a5 + 0xf0]\n 29617: a4 = u64 [a5 + 0xe8]\n 29621: t0 = 1194, jump @1927\n      : @1086 [@dyn 597] (gas: 1)\n 29627: jump @1088 if a0 == 0\n      : @1087 (gas: 1)\n 29630: jump @500\n      : @1088 (gas: 15)\n 29633: a3 = a4\n 29635: a2 = s1 + 0x18d8\n 29639: a0 = u64 [s1 + 0xb8]\n 29643: a5 = a2 + 0x500\n 29647: u64 [a5 + 0xc8] = a0\n 29651: a0 = u64 [s1 + 0xb0]\n 29655: u64 [a5 + 0xd0] = a0\n 29659: a0 = u64 [s1 + 0xc0]\n 29663: u64 [a5 + 0xd8] = a0\n 29667: a1 = s1 + 0x1ea0\n 29671: a0 = u64 [s1 + 0xc8]\n 29675: u64 [a5 + 0xe0] = a0\n 29679: a0 = a4\n 29681: u64 [s1 + 0x158] = a3\n 29685: ra = 1196, jump @19\n      : @1089 [@dyn 598] (gas: 32)\n 29691: a0 = u64 [0x20128]\n 29696: a1 = u64 [0x20130]\n 29701: a2 = s1 + 0x18d8\n 29705: a4 = a2 + 0x500\n 29709: u64 [a4 + 0xc0] = a0\n 29713: a0 = u64 [0x20138]\n 29718: u64 [a4 + 0xb8] = a1\n 29722: a3 = u64 [0x20140]\n 29727: u64 [a4 + 0xb0] = a0\n 29731: a0 = a2\n 29733: a1 = 0x20\n 29736: a2 = s1 + 0x1e80\n 29740: u64 [a0 + 0x5a8] = a3\n 29744: a0 = u64 [s1 + 0x158]\n 29748: ra = 0x4ae\n 29752: sp = sp + 0xffffffffffffffa0\n 29755: u64 [sp + 0x58] = ra\n 29758: u64 [sp + 0x50] = s0\n 29761: u64 [sp + 0x48] = s1\n 29764: s0 = sp + 0x60\n 29767: sp = sp & 0xffffffffffffffe0\n 29770: a3 = u64 [a2]\n 29772: u64 [sp + 0x18] = a3\n 29775: a3 = u64 [a2 + 0x8]\n 29778: u64 [sp + 0x10] = a3\n 29781: a3 = u64 [a2 + 0x10]\n 29784: u64 [sp + 0x8] = a3\n 29787: a2 = u64 [a2 + 0x18]\n 29790: u64 [sp] = a2\n 29792: s1 = a1\n 29794: ra = 0x8\n 29797: jump @34\n      : @1090 [@dyn 599] (gas: 8)\n 29800: a0 = u64 [s1 + 0x50]\n 29803: a1 = u64 [s1 + 0x40]\n 29806: a0 = a0 | a1\n 29809: a1 = u64 [s1 + 0x58]\n 29812: a2 = u64 [s1 + 0x48]\n 29815: a1 = a1 | a2\n 29818: a0 = a0 | a1\n 29821: jump @1110 if a0 != 0\n      : @1091 (gas: 3)\n 29825: a0 = s1 + 0x19e0\n 29829: a1 = 0x40\n 29832: ra = 1200, jump @17\n      : @1092 [@dyn 600] (gas: 7)\n 29838: a0 = s1 + 0x18d8\n 29842: a5 = a0 + 0x100\n 29846: a3 = u64 [a5 + 0x20]\n 29849: a4 = u64 [a5 + 0x18]\n 29852: a2 = u64 [a5 + 0x10]\n 29855: a1 = u64 [a5 + 0x8]\n 29858: t0 = 1202, jump @1916\n      : @1093 [@dyn 601] (gas: 1)\n 29864: jump @1095 if a0 == 0\n      : @1094 (gas: 1)\n 29867: jump @500\n      : @1095 (gas: 9)\n 29870: a2 = s1 + 0x18d8\n 29874: u64 [a2 + 248] = 0\n 29878: u64 [a2 + 240] = 0\n 29882: u64 [a2 + 232] = 0\n 29886: a0 = 0x8c379a000000000\n 29896: a1 = s1 + 0x19c0\n 29900: u64 [a2 + 0x100] = a0\n 29904: a0 = u64 [s1 + 0x158]\n 29908: ra = 1204, jump @19\n      : @1096 [@dyn 602] (gas: 1)\n 29914: t0 = 1206, jump @1910\n      : @1097 [@dyn 603] (gas: 1)\n 29920: jump @1099 if a0 != 0\n      : @1098 (gas: 1)\n 29923: jump @500\n      : @1099 (gas: 9)\n 29926: a0 = u64 [s1 + 0x158]\n 29930: i32 a0 = a0 + 0x4\n 29933: a2 = s1 + 0x18d8\n 29937: u64 [a2 + 224] = 0\n 29941: u64 [a2 + 216] = 0\n 29945: u64 [a2 + 200] = 0x20\n 29950: a1 = s1 + 0x19a0\n 29954: u64 [a2 + 208] = 0\n 29958: ra = 1208, jump @19\n      : @1100 [@dyn 604] (gas: 4)\n 29964: a2 = s1 + 0x100\n 29968: a0 = u64 [a2 + 0x40]\n 29971: a0 = a0 + 0xffffffffffffffdc\n 29974: t0 = 1210, jump @1909\n      : @1101 [@dyn 605] (gas: 1)\n 29980: jump @1103 if a0 != 0\n      : @1102 (gas: 1)\n 29983: jump @500\n      : @1103 (gas: 9)\n 29986: a0 = u64 [s1 + 0x158]\n 29990: i32 a0 = a0 + 0x24\n 29993: a2 = s1 + 0x18d8\n 29997: u64 [a2 + 192] = 0\n 30001: u64 [a2 + 184] = 0\n 30005: u64 [a2 + 168] = 0x1c\n 30010: a1 = s1 + 0x1980\n 30014: u64 [a2 + 176] = 0\n 30018: ra = 1212, jump @19\n      : @1104 [@dyn 606] (gas: 3)\n 30024: a0 = 0xffffffbc\n 30034: a2 = s1 + 0x100\n 30038: t0 = 1214, jump @1909\n      : @1105 [@dyn 607] (gas: 1)\n 30044: jump @1107 if a0 != 0\n      : @1106 (gas: 1)\n 30047: jump @500\n      : @1107 (gas: 13)\n 30050: a0 = u64 [s1 + 0x158]\n 30054: i32 a0 = a0 + 0x44\n 30057: a1 = u64 [0x20038]\n 30062: a2 = u64 [0x20178]\n 30067: a3 = u64 [0x20180]\n 30072: a4 = s1 + 0x18d8\n 30076: u64 [a4 + 0xa0] = a1\n 30080: u64 [a4 + 0x98] = a2\n 30084: u64 [a4 + 0x90] = a3\n 30088: a2 = 0x2077656900000000\n 30098: a1 = s1 + 0x1960\n 30102: u64 [a4 + 0x88] = a2\n 30106: ra = 1216, jump @19\n      : @1108 [@dyn 608] (gas: 3)\n 30112: a1 = 0x64\n 30115: a0 = u64 [s1 + 0x158]\n 30119: ra = 1218, jump @34\n      : @1109 [@dyn 609] (gas: 6)\n 30125: i32 a1 = a0 + 0\n 30127: a0 = 0x1\n 30130: a2 = 0x64\n 30133: ecalli 13 // 'seal_return'\n 30135: a1 = s1 + 0x38d8\n 30139: jump @1111\n      : @1110 (gas: 2)\n 30141: a1 = s1 + 0x38d8\n 30145: fallthrough\n      : @1111 (gas: 7)\n 30146: u64 [a1 + 0] = 0\n 30148: u64 [a1 + 4294967288] = 0\n 30151: u64 [a1 + 4294967280] = 0\n 30154: u64 [a1 + 4294967272] = 0x9\n 30158: a0 = s1 + 0x1e60\n 30162: a1 = s1 + 0x38c0\n 30166: ra = 1220, jump @21\n      : @1112 [@dyn 610] (gas: 38)\n 30172: a0 = s1 + 0x18d8\n 30176: a2 = a0 + 0x500\n 30180: a1 = u64 [a2 + 0x88]\n 30184: u64 [s1 + 0x158] = a1\n 30188: a1 = u64 [a2 + 0x98]\n 30192: u64 [s1 + 0x150] = a1\n 30196: a1 = u64 [a2 + 0x90]\n 30200: u64 [s1 + 0x148] = a1\n 30204: a0 = u64 [a2 + 0xa0]\n 30208: u64 [s1 + 0x140] = a0\n 30212: a0 = s1 + 0x38d8\n 30216: u64 [a0 + 32] = 0\n 30219: u64 [a0 + 24] = 0\n 30222: u64 [a0 + 16] = 0\n 30225: u64 [a0 + 8] = 0\n 30228: a0 = s1 + 0x4000\n 30232: i32 a0 = a0 + 0xfffffffffffff8e0\n 30236: ecalli 16 // 'value_transferred'\n 30238: a3 = s1 + 0x38d8\n 30242: a0 = u64 [a3 + 0x20]\n 30245: a1 = u64 [a3 + 0x10]\n 30248: a2 = u64 [a3 + 0x8]\n 30251: a3 = u64 [a3 + 0x18]\n 30254: a4 = u64 [s1 + 0x140]\n 30258: a0 = a0 ^ a4\n 30261: a4 = u64 [s1 + 0x148]\n 30265: a1 = a1 ^ a4\n 30268: a0 = a0 | a1\n 30271: a1 = u64 [s1 + 0x150]\n 30275: a1 = a1 ^ a3\n 30278: a3 = u64 [s1 + 0x158]\n 30282: a2 = a2 ^ a3\n 30285: a1 = a1 | a2\n 30288: a0 = a0 | a1\n 30291: u64 [s1 + 0x138] = a0\n 30295: a0 = s1 + 0x1e40\n 30299: a1 = 0x40\n 30302: ra = 1222, jump @17\n      : @1113 [@dyn 611] (gas: 3)\n 30308: t0 = 0x4c8\n 30312: a1 = s1 + 0x18d8\n 30316: fallthrough\n      : @1114 [@dyn 612] (gas: 12)\n 30317: a2 = a1 + 0x500\n 30321: a0 = u64 [a2 + 0x80]\n 30325: a1 = s1 + 0x100\n 30329: u64 [a1 + 0x48] = a0\n 30332: a0 = u64 [a2 + 0x78]\n 30335: u64 [a1 + 0x40] = a0\n 30338: a0 = u64 [a2 + 0x70]\n 30341: u64 [a1 + 0x50] = a0\n 30344: a0 = u64 [a2 + 0x68]\n 30347: u64 [a1 + 0x58] = a0\n 30350: a0 = u64 [a1 + 0x38]\n 30353: jump @1190 if a0 != 0\n      : @1115 (gas: 12)\n 30357: a1 = s1 + 0x18d8\n 30361: a0 = u64 [s1 + 0x158]\n 30365: a3 = a1 + 0x400\n 30369: u64 [a3 + 0xa8] = a0\n 30373: a0 = u64 [s1 + 0x150]\n 30377: u64 [a3 + 0xb0] = a0\n 30381: a0 = u64 [s1 + 0x140]\n 30385: u64 [a3 + 0xb8] = a0\n 30389: a0 = s1 + 0x1d80\n 30393: a2 = u64 [s1 + 0x148]\n 30397: u64 [a3 + 0xc0] = a2\n 30401: ra = 1226, jump @1511\n      : @1116 [@dyn 613] (gas: 13)\n 30407: a4 = s1 + 0x100\n 30411: a2 = u64 [a4 + 0x40]\n 30414: a0 = u64 [a4 + 0x58]\n 30417: a0 = a0 | a2\n 30420: a1 = u64 [a4 + 0x50]\n 30423: a3 = u64 [a4 + 0x48]\n 30426: a1 = a1 | a3\n 30429: a0 = a0 | a1\n 30432: a0 = a0 >> 0x20\n 30435: a1 = a1 | a2\n 30438: a1 = a1 << 0x20\n 30441: a0 = a0 | a1\n 30444: jump @1118 if a0 == 0\n      : @1117 (gas: 1)\n 30447: jump @500\n      : @1118 (gas: 13)\n 30450: a0 = s1 + 0x18d8\n 30454: a1 = u64 [s1 + 0xb8]\n 30458: a3 = a0 + 0x400\n 30462: u64 [a3 + 0x88] = a1\n 30466: a1 = u64 [s1 + 0xb0]\n 30470: u64 [a3 + 0x90] = a1\n 30474: a1 = u64 [s1 + 0xc0]\n 30478: u64 [a3 + 0x98] = a1\n 30482: a1 = s1 + 0x1d60\n 30486: a2 = u64 [s1 + 0xc8]\n 30490: u64 [a3 + 0xa0] = a2\n 30494: a0 = u64 [s1 + 0x158]\n 30498: ra = 1228, jump @19\n      : @1119 [@dyn 614] (gas: 5)\n 30504: a0 = u64 [s1 + 0x90]\n 30508: ra = 0x4ce\n 30512: ecalli 5 // 'caller'\n 30514: t0 = 0x4d0\n 30518: jump @1955\n      : @1120 [@dyn 615] (gas: 1)\n 30521: t0 = 1232, jump @1955\n      : @1121 [@dyn 616] (gas: 1)\n 30527: jump @1123 if a0 != 0\n      : @1122 (gas: 1)\n 30530: jump @500\n      : @1123 (gas: 1)\n 30533: t0 = 1234, jump @1939\n      : @1124 [@dyn 617] (gas: 10)\n 30539: i32 a0 = a0 + 0x20\n 30542: a2 = s1 + 0x18d8\n 30546: u64 [a2 + 1152] = 0\n 30550: a5 = a2 + 0x400\n 30554: u64 [a5 + 0x78] = a1\n 30557: u64 [a5 + 0x70] = a4\n 30560: a1 = s1 + 0x1d40\n 30564: u64 [a5 + 0x68] = a3\n 30567: u64 [s1 + 0x138] = a0\n 30571: ra = 1236, jump @19\n      : @1125 [@dyn 618] (gas: 4)\n 30577: a0 = u64 [s1 + 0x90]\n 30581: ra = 0x4d6\n 30585: ecalli 0 // 'address'\n 30586: fallthrough\n      : @1126 [@dyn 619] (gas: 4)\n 30587: a2 = s1 + 0x100\n 30591: a0 = u64 [a2 + 0x40]\n 30594: a0 = a0 + 0xffffffffffffffc0\n 30597: t0 = 1240, jump @1909\n      : @1127 [@dyn 620] (gas: 1)\n 30603: jump @1129 if a0 != 0\n      : @1128 (gas: 1)\n 30606: jump @500\n      : @1129 (gas: 1)\n 30609: t0 = 1242, jump @1939\n      : @1130 [@dyn 621] (gas: 10)\n 30615: i32 a0 = a0 + 0x40\n 30618: a2 = s1 + 0x18d8\n 30622: u64 [a2 + 1120] = 0\n 30626: a5 = a2 + 0x400\n 30630: u64 [a5 + 0x58] = a1\n 30633: u64 [a5 + 0x50] = a4\n 30636: a1 = s1 + 0x1d20\n 30640: u64 [a5 + 0x48] = a3\n 30643: u64 [s1 + 0x130] = a0\n 30647: ra = 1244, jump @19\n      : @1131 [@dyn 622] (gas: 5)\n 30653: a0 = 0x100000000\n 30663: a2 = s1 + 0x100\n 30667: u64 [a2 + 0x40] = a0\n 30670: a0 = 0xffffffa0\n 30680: t0 = 1246, jump @1909\n      : @1132 [@dyn 623] (gas: 1)\n 30686: jump @1134 if a0 != 0\n      : @1133 (gas: 1)\n 30689: jump @500\n      : @1134 (gas: 16)\n 30692: a0 = u64 [s1 + 0x158]\n 30696: i32 a3 = a0 + 0x60\n 30699: a0 = s1 + 0x18d8\n 30703: a1 = u64 [s1 + 0x40]\n 30706: a4 = a0 + 0x400\n 30710: u64 [a4 + 0x28] = a1\n 30713: a1 = u64 [s1 + 0x48]\n 30716: u64 [a4 + 0x30] = a1\n 30719: a1 = u64 [s1 + 0x50]\n 30722: u64 [a4 + 0x38] = a1\n 30725: a1 = s1 + 0x1d00\n 30729: a2 = u64 [s1 + 0x58]\n 30732: u64 [a4 + 0x40] = a2\n 30735: u64 [s1 + 0x120] = a3\n 30739: a0 = a3\n 30741: ra = 1248, jump @19\n      : @1135 [@dyn 624] (gas: 4)\n 30747: a2 = s1 + 0x100\n 30751: a0 = u64 [a2 + 0x40]\n 30754: a0 = a0 + 0xffffffffffffff80\n 30757: t0 = 1250, jump @1909\n      : @1136 [@dyn 625] (gas: 1)\n 30763: jump @1138 if a0 != 0\n      : @1137 (gas: 1)\n 30766: jump @500\n      : @1138 (gas: 11)\n 30769: a0 = u64 [s1 + 0x158]\n 30773: i32 a2 = a0 + 0x80\n 30777: a0 = s1 + 0x18d8\n 30781: u64 [a0 + 1056] = 0\n 30785: u64 [a0 + 1048] = 0\n 30789: u64 [a0 + 1040] = 0\n 30793: a1 = s1 + 0x1ce0\n 30797: u64 [a0 + 1032] = 0\n 30801: u64 [s1 + 0x110] = a2\n 30805: a0 = a2\n 30807: ra = 1252, jump @19\n      : @1139 [@dyn 626] (gas: 13)\n 30813: a0 = u64 [s1 + 0xc8]\n 30817: a2 = s1 + 0x18d8\n 30821: u64 [a2 + 0x400] = a0\n 30825: a0 = u64 [s1 + 0xc0]\n 30829: a3 = a2 + 0x300\n 30833: u64 [a3 + 0xf8] = a0\n 30837: a0 = u64 [s1 + 0xb0]\n 30841: u64 [a3 + 0xf0] = a0\n 30845: a1 = s1 + 0x1cc0\n 30849: a0 = u64 [s1 + 0xb8]\n 30853: u64 [a3 + 0xe8] = a0\n 30857: a0 = 0\n 30859: ra = 1254, jump @19\n      : @1140 [@dyn 627] (gas: 3)\n 30865: t0 = 0x4e8\n 30869: a1 = s1 + 0x18d8\n 30873: fallthrough\n      : @1141 [@dyn 628] (gas: 8)\n 30874: u64 [a1 + 992] = 0\n 30878: u64 [a1 + 984] = 0\n 30882: u64 [a1 + 968] = 0xb\n 30887: a2 = a1\n 30889: a0 = 0x20\n 30892: a1 = s1 + 0x1ca0\n 30896: u64 [a2 + 976] = 0\n 30900: ra = 1258, jump @19\n      : @1142 [@dyn 629] (gas: 7)\n 30906: a0 = sp + 0xffffffffffffffe0\n 30909: a0 = a0 & 0xffffffffffffffe0\n 30912: u64 [s1 + 0x118] = a0\n 30916: sp = a0\n 30918: a0 = u64 [s1 + 0x88]\n 30922: a0 = i32 [a0]\n 30924: jump @1144 if a0 >u 63\n      : @1143 (gas: 3)\n 30928: a1 = u64 [s1 + 0x88]\n 30932: u32 [a1 + 0] = 0x40\n 30935: fallthrough\n      : @1144 (gas: 29)\n 30936: a0 = sp + 0xffffffffffffffe0\n 30939: a0 = a0 & 0xffffffffffffffe0\n 30942: u64 [s1 + 0x150] = a0\n 30946: sp = a0\n 30948: i32 a2 = a0 + 0\n 30950: a1 = 0x40\n 30953: a0 = u64 [s1 + 0x78]\n 30956: ecalli 9 // 'hash_keccak_256'\n 30958: a3 = u64 [s1 + 0x150]\n 30962: a0 = u64 [a3 + 0x18]\n 30965: a1 = u64 [a3 + 0x10]\n 30968: a2 = u64 [a3 + 0x8]\n 30971: a3 = u64 [a3]\n 30973: a4 = reverse a0\n 30975: u64 [s1 + 0x140] = a4\n 30979: a1 = reverse a1\n 30981: u64 [s1 + 0x148] = a1\n 30985: a2 = reverse a2\n 30987: u64 [s1 + 0x128] = a2\n 30991: a0 = reverse a3\n 30993: u64 [s1 + 0x150] = a0\n 30997: a3 = u64 [s1 + 0x118]\n 31001: u64 [a3 + 0x18] = a0\n 31004: u64 [a3 + 0x10] = a2\n 31007: u64 [a3 + 0x8] = a1\n 31010: u64 [a3] = a4\n 31012: a0 = s1 + 0x1c80\n 31016: a1 = u64 [s1 + 0x158]\n 31020: ra = 1260, jump @17\n      : @1145 [@dyn 630] (gas: 14)\n 31026: a3 = s1 + 0x18d8\n 31030: a4 = a3 + 0x300\n 31034: a0 = u64 [a4 + 0xc0]\n 31038: a1 = u64 [a4 + 0xb8]\n 31042: a2 = u64 [a4 + 0xb0]\n 31046: a3 = u64 [a4 + 0xa8]\n 31050: a4 = s1 + 0x38d8\n 31054: u64 [a4 + 0x40] = a0\n 31057: u64 [a4 + 0x38] = a1\n 31060: u64 [a4 + 0x30] = a2\n 31063: u64 [a4 + 0x28] = a3\n 31066: a1 = s1 + 0x3900\n 31070: a0 = u64 [s1 + 0x118]\n 31074: ra = 1262, jump @23\n      : @1146 [@dyn 631] (gas: 3)\n 31080: a0 = s1 + 0x1c60\n 31084: a1 = u64 [s1 + 0x138]\n 31088: ra = 1264, jump @17\n      : @1147 [@dyn 632] (gas: 31)\n 31094: a0 = s1 + 0x18d8\n 31098: a1 = u64 [a0 + 0x388]\n 31102: u64 [s1 + 0x158] = a1\n 31106: a1 = u64 [a0 + 0x390]\n 31110: u64 [s1 + 0x138] = a1\n 31114: a1 = u32 [a0 + 0x398]\n 31118: u64 [s1 + 0x118] = a1\n 31122: a0 = sp + 0xffffffffffffffe0\n 31125: t0 = a0 & 0xffffffffffffffe0\n 31128: sp = t0\n 31130: a0 = u64 [s1 + 0x140]\n 31134: a0 = a0 + 0x1\n 31137: a1 = a0 <u 0x1\n 31140: a2 = u64 [s1 + 0x148]\n 31144: a5 = a2 + a1\n 31147: a2 = a0 | a5\n 31150: a2 = a2 <u 0x1\n 31153: a3 = u64 [s1 + 0x128]\n 31157: a2 = a2 + a3\n 31160: a3 = a2 <u a3\n 31163: a4 = u64 [s1 + 0x150]\n 31167: a3 = a3 + a4\n 31170: a1 = t0\n 31172: u64 [s1 + 0x108] = t0\n 31176: a4 = t0\n 31178: u64 [a4 + 0x18] = a3\n 31181: u64 [a4 + 0x10] = a2\n 31184: u64 [a4 + 0x8] = a5\n 31187: u64 [a4] = a0\n 31189: a0 = s1 + 0x1c40\n 31193: ra = 1266, jump @21\n      : @1148 [@dyn 633] (gas: 16)\n 31199: a1 = s1 + 0x18d8\n 31203: a0 = u32 [a1 + 0x37c]\n 31207: a0 = a0 << 0x20\n 31210: a1 = u64 [a1 + 0x380]\n 31214: a2 = u64 [s1 + 0x118]\n 31218: a0 = a0 | a2\n 31221: a2 = s1 + 0x38d8\n 31225: a3 = u64 [s1 + 0x138]\n 31229: u64 [a2 + 0x50] = a3\n 31232: a3 = u64 [s1 + 0x158]\n 31236: u64 [a2 + 0x48] = a3\n 31239: u64 [a2 + 0x60] = a1\n 31242: u64 [a2 + 0x58] = a0\n 31245: a1 = s1 + 0x3920\n 31249: a0 = u64 [s1 + 0x108]\n 31253: ra = 1268, jump @23\n      : @1149 [@dyn 634] (gas: 3)\n 31259: a0 = s1 + 0x1c20\n 31263: a1 = u64 [s1 + 0x130]\n 31267: ra = 1270, jump @17\n      : @1150 [@dyn 635] (gas: 15)\n 31273: a0 = s1 + 0x18d8\n 31277: a1 = u64 [a0 + 0x348]\n 31281: u64 [s1 + 0x158] = a1\n 31285: a1 = u64 [a0 + 0x350]\n 31289: u64 [s1 + 0x138] = a1\n 31293: a1 = u32 [a0 + 0x358]\n 31297: u64 [s1 + 0x130] = a1\n 31301: a0 = sp + 0xffffffffffffffe0\n 31304: a5 = a0 & 0xffffffffffffffe0\n 31307: sp = a5\n 31309: a1 = u64 [s1 + 0x140]\n 31313: a0 = a1 + 0x2\n 31316: a1 = a0 <u a1\n 31319: a3 = u64 [s1 + 0x148]\n 31323: t0 = 1272, jump @1991\n      : @1151 [@dyn 636] (gas: 13)\n 31329: a1 = u64 [s1 + 0x128]\n 31333: a3 = a3 + a1\n 31336: a1 = a3 <u a1\n 31339: a4 = u64 [s1 + 0x150]\n 31343: a4 = a4 + a1\n 31346: a1 = a5\n 31348: u64 [s1 + 0x118] = a5\n 31352: u64 [a5 + 0x18] = a4\n 31355: u64 [a5 + 0x10] = a3\n 31358: u64 [a5 + 0x8] = a2\n 31361: u64 [a5] = a0\n 31363: a0 = s1 + 0x1c00\n 31367: ra = 1274, jump @21\n      : @1152 [@dyn 637] (gas: 16)\n 31373: a1 = s1 + 0x18d8\n 31377: a0 = u32 [a1 + 0x33c]\n 31381: a0 = a0 << 0x20\n 31384: a1 = u64 [a1 + 0x340]\n 31388: a2 = u64 [s1 + 0x130]\n 31392: a0 = a0 | a2\n 31395: a2 = s1 + 0x38d8\n 31399: a3 = u64 [s1 + 0x138]\n 31403: u64 [a2 + 0x70] = a3\n 31406: a3 = u64 [s1 + 0x158]\n 31410: u64 [a2 + 0x68] = a3\n 31413: u64 [a2 + 0x80] = a1\n 31417: u64 [a2 + 0x78] = a0\n 31420: a1 = s1 + 0x3940\n 31424: a0 = u64 [s1 + 0x118]\n 31428: ra = 1276, jump @23\n      : @1153 [@dyn 638] (gas: 3)\n 31434: a0 = s1 + 0x1be0\n 31438: a1 = u64 [s1 + 0x120]\n 31442: ra = 1278, jump @17\n      : @1154 [@dyn 639] (gas: 29)\n 31448: a0 = s1 + 0x18d8\n 31452: t0 = u64 [a0 + 0x308]\n 31456: t1 = u64 [a0 + 0x310]\n 31460: t2 = u64 [a0 + 0x318]\n 31464: a3 = u64 [a0 + 0x320]\n 31468: a0 = u64 [s1 + 0x140]\n 31472: a4 = a0 + 0x3\n 31475: a5 = a4 <u a0\n 31478: a1 = u64 [s1 + 0x148]\n 31482: a0 = a1 + a5\n 31485: a1 = a0 <u a1\n 31488: a1 = a5 if a5 == 0\n 31491: a2 = u64 [s1 + 0x128]\n 31495: a1 = a1 + a2\n 31498: a5 = a1 <u a2\n 31501: a2 = u64 [s1 + 0x150]\n 31505: a5 = a5 + a2\n 31508: a2 = s1 + 0x38d8\n 31512: u64 [a2 + 0xa0] = a5\n 31516: u64 [a2 + 0x98] = a1\n 31520: u64 [a2 + 0x90] = a0\n 31524: u64 [a2 + 0x88] = a4\n 31528: u64 [a2 + 0xc0] = a3\n 31532: u64 [a2 + 0xb8] = t2\n 31536: u64 [a2 + 0xb0] = t1\n 31540: u64 [a2 + 0xa8] = t0\n 31544: a0 = s1 + 0x3960\n 31548: a1 = s1 + 0x3980\n 31552: ra = 1280, jump @23\n      : @1155 [@dyn 640] (gas: 3)\n 31558: a0 = s1 + 0x1bc0\n 31562: a1 = u64 [s1 + 0x110]\n 31566: ra = 1282, jump @17\n      : @1156 [@dyn 641] (gas: 33)\n 31572: a5 = s1 + 0x18d8\n 31576: a0 = u64 [a5 + 0x2f8]\n 31580: a1 = u64 [a5 + 0x300]\n 31584: a2 = u64 [a5 + 0x2f0]\n 31588: a3 = u64 [a5 + 0x2e8]\n 31592: a1 = a1 | a2\n 31595: a0 = a0 | a3\n 31598: a0 = a0 | a1\n 31601: t0 = a0 >u 0\n 31603: a1 = u64 [s1 + 0x140]\n 31607: a0 = a1 + 0x4\n 31610: a1 = a0 <u a1\n 31613: a2 = u64 [s1 + 0x148]\n 31617: a3 = a2 + a1\n 31620: a4 = a3 <u a2\n 31623: a4 = a1 if a1 == 0\n 31626: a1 = u64 [s1 + 0x128]\n 31630: a4 = a4 + a1\n 31633: a1 = a4 <u a1\n 31636: a2 = u64 [s1 + 0x150]\n 31640: a1 = a1 + a2\n 31643: u64 [a5 + 704] = 0\n 31647: u64 [a5 + 696] = 0\n 31651: u64 [a5 + 688] = 0\n 31655: a2 = a5 + 0x200\n 31659: u64 [a2 + 0xe0] = a1\n 31663: u64 [a2 + 0xd8] = a4\n 31667: u64 [a2 + 0xd0] = a3\n 31671: u64 [a2 + 0xc8] = a0\n 31675: a0 = s1 + 0x1ba0\n 31679: a1 = s1 + 0x1b80\n 31683: u64 [a5 + 0x2a8] = t0\n 31687: ra = 1284, jump @1820\n      : @1157 [@dyn 642] (gas: 6)\n 31693: a0 = u64 [s1 + 0x90]\n 31697: ra = 0x506\n 31701: ecalli 0 // 'address'\n 31702: a2 = u64 [s1 + 0xa8]\n 31706: t0 = 0x508\n 31710: jump @1943\n      : @1158 [@dyn 643] (gas: 2)\n 31713: a2 = u64 [s1 + 0xa8]\n 31717: t0 = 1288, jump @1943\n      : @1159 [@dyn 644] (gas: 9)\n 31723: u64 [s1 + 0x150] = a0\n 31727: a1 = a1 >> 0x20\n 31730: u64 [s1 + 0x148] = a1\n 31734: a0 = u64 [s1 + 0x90]\n 31738: ra = 0x50a\n 31742: ecalli 5 // 'caller'\n 31744: a2 = u64 [s1 + 0xa8]\n 31748: t0 = 0x50c\n 31752: jump @1947\n      : @1160 [@dyn 645] (gas: 2)\n 31755: a2 = u64 [s1 + 0xa8]\n 31759: t0 = 1292, jump @1947\n      : @1161 [@dyn 646] (gas: 25)\n 31765: a4 = s1 + 0x18d8\n 31769: a3 = u64 [s1 + 0x148]\n 31773: a5 = a4 + 0x200\n 31777: u64 [a5 + 0x78] = a3\n 31780: a3 = u64 [s1 + 0x150]\n 31784: u64 [a5 + 0x70] = a3\n 31787: a3 = u64 [s1 + 0x158]\n 31791: u64 [a5 + 0x68] = a3\n 31794: a3 = u64 [s1 + 0xc8]\n 31798: u64 [a5 + 0x60] = a3\n 31801: a3 = u64 [s1 + 0xc0]\n 31805: u64 [a5 + 0x58] = a3\n 31808: a3 = u64 [s1 + 0xb0]\n 31812: u64 [a5 + 0x50] = a3\n 31815: a3 = u64 [s1 + 0xb8]\n 31819: u64 [a5 + 0x48] = a3\n 31822: u64 [a4 + 640] = 0\n 31826: u64 [a5 + 0x98] = a1\n 31830: u64 [a5 + 0x90] = a2\n 31834: u64 [a5 + 0x88] = a0\n 31838: a0 = s1 + 0x1b60\n 31842: a1 = s1 + 0x1b40\n 31846: a2 = s1 + 0x1b20\n 31850: u64 [a4 + 672] = 0\n 31854: ra = 1294, jump @1875\n      : @1162 [@dyn 647] (gas: 3)\n 31860: a0 = s1 + 0x1b00\n 31864: a1 = 0x40\n 31867: ra = 1296, jump @17\n      : @1163 [@dyn 648] (gas: 14)\n 31873: a0 = s1 + 0x18d8\n 31877: a2 = a0 + 0x200\n 31881: a1 = u64 [a2 + 0x40]\n 31884: u64 [s1 + 0x148] = a1\n 31888: a1 = u64 [a2 + 0x38]\n 31891: u64 [s1 + 0x140] = a1\n 31895: a1 = u64 [a2 + 0x30]\n 31898: u64 [s1 + 0x150] = a1\n 31902: a0 = u64 [a2 + 0x28]\n 31905: u64 [s1 + 0x158] = a0\n 31909: a0 = u64 [s1 + 0x90]\n 31913: ra = 0x512\n 31917: ecalli 5 // 'caller'\n 31919: fallthrough\n      : @1164 [@dyn 649] (gas: 13)\n 31920: a3 = s1 + 0x100\n 31924: a0 = u64 [a3 + 0x48]\n 31927: a1 = u64 [a3 + 0x50]\n 31930: a0 = a0 | a1\n 31933: a2 = u64 [a3 + 0x40]\n 31936: a1 = u64 [a3 + 0x58]\n 31939: a1 = a1 | a2\n 31942: a1 = a1 | a0\n 31945: a1 = a1 >> 0x20\n 31948: a0 = a0 | a2\n 31951: a0 = a0 << 0x20\n 31954: a0 = a0 | a1\n 31957: jump @1166 if a0 == 0\n      : @1165 (gas: 1)\n 31960: jump @500\n      : @1166 (gas: 2)\n 31963: a2 = u64 [s1 + 0xa8]\n 31967: t0 = 1300, jump @1944\n      : @1167 [@dyn 650] (gas: 10)\n 31973: i32 a2 = a2 + 0xfffffffffffff8d8\n 31977: a2 = a2 + s1\n 31980: u64 [a2 + 544] = 0\n 31984: a4 = a2 + 0x200\n 31988: u64 [a4 + 0x18] = a1\n 31991: u64 [a4 + 0x10] = a0\n 31994: a1 = s1 + 0x1ae0\n 31998: u64 [a4 + 0x8] = a3\n 32001: a0 = u64 [s1 + 0x158]\n 32005: ra = 1302, jump @19\n      : @1168 [@dyn 651] (gas: 5)\n 32011: a0 = u64 [s1 + 0x90]\n 32015: ra = 0x518\n 32019: ecalli 0 // 'address'\n 32020: t0 = 0x51a\n 32024: jump @1955\n      : @1169 [@dyn 652] (gas: 1)\n 32027: t0 = 1306, jump @1955\n      : @1170 [@dyn 653] (gas: 1)\n 32033: jump @1172 if a0 != 0\n      : @1171 (gas: 1)\n 32036: jump @500\n      : @1172 (gas: 2)\n 32039: a2 = u64 [s1 + 0xa8]\n 32043: t0 = 1308, jump @1950\n      : @1173 [@dyn 654] (gas: 10)\n 32049: a0 = u64 [s1 + 0x158]\n 32053: i32 a0 = a0 + 0x20\n 32056: a4 = s1 + 0x18d8\n 32060: u64 [a4 + 512] = 0\n 32064: a5 = a4 + 0x100\n 32068: u64 [a5 + 0xf8] = a1\n 32072: u64 [a5 + 0xf0] = a2\n 32076: a1 = s1 + 0x1ac0\n 32080: u64 [a5 + 0xe8] = a3\n 32084: ra = 1310, jump @19\n      : @1174 [@dyn 655] (gas: 4)\n 32090: a2 = s1 + 0x100\n 32094: a0 = u64 [a2 + 0x40]\n 32097: a0 = a0 + 0xffffffffffffffc0\n 32100: t0 = 1312, jump @1909\n      : @1175 [@dyn 656] (gas: 1)\n 32106: jump @1177 if a0 != 0\n      : @1176 (gas: 1)\n 32109: jump @500\n      : @1177 (gas: 14)\n 32112: a0 = u64 [s1 + 0x158]\n 32116: i32 a0 = a0 + 0x40\n 32119: a2 = s1 + 0x18d8\n 32123: a1 = u64 [s1 + 0x40]\n 32126: a4 = a2 + 0x100\n 32130: u64 [a4 + 0xc8] = a1\n 32134: a1 = u64 [s1 + 0x48]\n 32137: u64 [a4 + 0xd0] = a1\n 32141: a1 = u64 [s1 + 0x50]\n 32144: u64 [a4 + 0xd8] = a1\n 32148: a1 = s1 + 0x1aa0\n 32152: a3 = u64 [s1 + 0x58]\n 32155: u64 [a4 + 0xe0] = a3\n 32159: ra = 1314, jump @19\n      : @1178 [@dyn 657] (gas: 3)\n 32165: a0 = 0xffffffa0\n 32175: a2 = s1 + 0x100\n 32179: t0 = 1316, jump @1909\n      : @1179 [@dyn 658] (gas: 1)\n 32185: jump @1181 if a0 != 0\n      : @1180 (gas: 1)\n 32188: jump @500\n      : @1181 (gas: 9)\n 32191: a0 = u64 [s1 + 0x158]\n 32195: i32 a0 = a0 + 0x60\n 32198: a2 = s1 + 0x18d8\n 32202: u64 [a2 + 448] = 0\n 32206: u64 [a2 + 440] = 0\n 32210: u64 [a2 + 432] = 0\n 32214: a1 = s1 + 0x1a80\n 32218: u64 [a2 + 424] = 0\n 32222: ra = 1318, jump @19\n      : @1182 [@dyn 659] (gas: 48)\n 32228: a0 = u64 [0x20158]\n 32233: a1 = u64 [s1 + 0xc8]\n 32237: a4 = s1 + 0x18d8\n 32241: a5 = a4 + 0x100\n 32245: u64 [a5 + 0x80] = a1\n 32249: a1 = u64 [s1 + 0xc0]\n 32253: u64 [a5 + 0x78] = a1\n 32256: u64 [a5 + 0xa0] = a0\n 32260: a0 = u64 [0x20160]\n 32265: a1 = u64 [0x20168]\n 32270: a2 = u64 [0x20170]\n 32275: a3 = u64 [s1 + 0xb0]\n 32279: u64 [a5 + 0x70] = a3\n 32282: u64 [a5 + 0x98] = a0\n 32286: u64 [a5 + 0x90] = a1\n 32290: u64 [a5 + 0x88] = a2\n 32294: a1 = 0x80\n 32298: a2 = s1 + 0x1a60\n 32302: a3 = s1 + 0x1a40\n 32306: a0 = u64 [s1 + 0xb8]\n 32310: u64 [a5 + 0x68] = a0\n 32313: a0 = u64 [s1 + 0x158]\n 32317: ra = 0x528\n 32321: sp = sp + 0xffffffffffffff60\n 32325: u64 [sp + 0x98] = ra\n 32329: u64 [sp + 0x90] = s0\n 32333: u64 [sp + 0x88] = s1\n 32337: s0 = sp + 0xa0\n 32341: sp = sp & 0xffffffffffffffe0\n 32344: a4 = u64 [a3]\n 32346: u64 [sp + 0x38] = a4\n 32349: a4 = u64 [a3 + 0x8]\n 32352: u64 [sp + 0x30] = a4\n 32355: a4 = u64 [a3 + 0x10]\n 32358: u64 [sp + 0x28] = a4\n 32361: a3 = u64 [a3 + 0x18]\n 32364: u64 [sp + 0x20] = a3\n 32367: a3 = u64 [a2]\n 32369: u64 [sp + 0x18] = a3\n 32372: a3 = u64 [a2 + 0x8]\n 32375: u64 [sp + 0x10] = a3\n 32378: a3 = u64 [a2 + 0x10]\n 32381: u64 [sp + 0x8] = a3\n 32384: a2 = u64 [a2 + 0x18]\n 32387: u64 [sp] = a2\n 32389: s1 = a1\n 32391: ra = 0xe\n 32394: jump @34\n      : @1183 [@dyn 660] (gas: 3)\n 32397: a0 = s1 + 0x1a20\n 32401: a1 = 0x40\n 32404: ra = 1322, jump @17\n      : @1184 [@dyn 661] (gas: 7)\n 32410: a3 = s1 + 0x18d8\n 32414: a5 = a3 + 0x100\n 32418: a0 = u64 [a5 + 0x60]\n 32421: a1 = u64 [a5 + 0x58]\n 32424: a2 = u64 [a5 + 0x50]\n 32427: a4 = u64 [a5 + 0x48]\n 32430: t0 = 1324, jump @1927\n      : @1185 [@dyn 662] (gas: 1)\n 32436: jump @1187 if a0 == 0\n      : @1186 (gas: 1)\n 32439: jump @500\n      : @1187 (gas: 15)\n 32442: a3 = a4\n 32444: a0 = s1 + 0x18d8\n 32448: a1 = u64 [s1 + 0xb8]\n 32452: a5 = a0 + 0x100\n 32456: u64 [a5 + 0x28] = a1\n 32459: a1 = u64 [s1 + 0xb0]\n 32463: u64 [a5 + 0x30] = a1\n 32466: a1 = u64 [s1 + 0xc0]\n 32470: u64 [a5 + 0x38] = a1\n 32473: a1 = s1 + 0x1a00\n 32477: a2 = u64 [s1 + 0xc8]\n 32481: u64 [a5 + 0x40] = a2\n 32484: a0 = a4\n 32486: u64 [s1 + 0x158] = a3\n 32490: ra = 1326, jump @19\n      : @1188 [@dyn 663] (gas: 3)\n 32496: a1 = 0x20\n 32499: a0 = u64 [s1 + 0x158]\n 32503: ra = 1328, jump @34\n      : @1189 [@dyn 664] (gas: 5)\n 32509: i32 a1 = a0 + 0\n 32511: a2 = 0x20\n 32514: a0 = 0\n 32516: ecalli 13 // 'seal_return'\n 32518: jump @1213\n      : @1190 (gas: 13)\n 32521: a4 = s1 + 0x100\n 32525: a0 = u64 [a4 + 0x58]\n 32528: a3 = u64 [a4 + 0x40]\n 32531: a0 = a0 | a3\n 32534: a1 = u64 [a4 + 0x50]\n 32537: a2 = u64 [a4 + 0x48]\n 32540: a1 = a1 | a2\n 32543: a0 = a0 | a1\n 32546: a0 = a0 >> 0x20\n 32549: a1 = a1 | a3\n 32552: a1 = a1 << 0x20\n 32555: a0 = a0 | a1\n 32558: jump @1192 if a0 == 0\n      : @1191 (gas: 1)\n 32561: jump @500\n      : @1192 (gas: 9)\n 32564: a2 = s1 + 0x18d8\n 32568: u64 [a2 + 1368] = 0\n 32572: u64 [a2 + 1360] = 0\n 32576: u64 [a2 + 1352] = 0\n 32580: a0 = 0x8c379a000000000\n 32590: a1 = s1 + 0x1e20\n 32594: u64 [a2 + 0x560] = a0\n 32598: a0 = u64 [s1 + 0x158]\n 32602: ra = 1330, jump @19\n      : @1193 [@dyn 665] (gas: 1)\n 32608: t0 = 1332, jump @1910\n      : @1194 [@dyn 666] (gas: 1)\n 32614: jump @1196 if a0 != 0\n      : @1195 (gas: 1)\n 32617: jump @500\n      : @1196 (gas: 9)\n 32620: a0 = u64 [s1 + 0x158]\n 32624: i32 a0 = a0 + 0x4\n 32627: a2 = s1 + 0x18d8\n 32631: u64 [a2 + 1344] = 0\n 32635: u64 [a2 + 1336] = 0\n 32639: u64 [a2 + 1320] = 0x20\n 32644: a1 = s1 + 0x1e00\n 32648: u64 [a2 + 1328] = 0\n 32652: ra = 1334, jump @19\n      : @1197 [@dyn 667] (gas: 4)\n 32658: a2 = s1 + 0x100\n 32662: a0 = u64 [a2 + 0x40]\n 32665: a0 = a0 + 0xffffffffffffffdc\n 32668: t0 = 1336, jump @1909\n      : @1198 [@dyn 668] (gas: 1)\n 32674: jump @1200 if a0 != 0\n      : @1199 (gas: 1)\n 32677: jump @500\n      : @1200 (gas: 9)\n 32680: a0 = u64 [s1 + 0x158]\n 32684: i32 a0 = a0 + 0x24\n 32687: a2 = s1 + 0x18d8\n 32691: u64 [a2 + 1312] = 0\n 32695: u64 [a2 + 1304] = 0\n 32699: u64 [a2 + 1288] = 0x24\n 32704: a1 = s1 + 0x1de0\n 32708: u64 [a2 + 1296] = 0\n 32712: ra = 1338, jump @19\n      : @1201 [@dyn 669] (gas: 5)\n 32718: a0 = 0x100000000\n 32728: a2 = s1 + 0x100\n 32732: u64 [a2 + 0x40] = a0\n 32735: a0 = 0xffffffbc\n 32745: t0 = 1340, jump @1909\n      : @1202 [@dyn 670] (gas: 1)\n 32751: jump @1204 if a0 != 0\n      : @1203 (gas: 1)\n 32754: jump @500\n      : @1204 (gas: 14)\n 32757: a0 = u64 [s1 + 0x158]\n 32761: i32 a0 = a0 + 0x44\n 32764: a1 = u64 [0x20038]\n 32769: a4 = s1 + 0x18d8\n 32773: u64 [a4 + 0x500] = a1\n 32777: a1 = u64 [0x20040]\n 32782: a2 = u64 [0x20148]\n 32787: a3 = u64 [0x20150]\n 32792: a5 = a4 + 0x400\n 32796: u64 [a5 + 0xf8] = a1\n 32800: u64 [a5 + 0xf0] = a2\n 32804: a1 = s1 + 0x1dc0\n 32808: u64 [a5 + 0xe8] = a3\n 32812: ra = 1342, jump @19\n      : @1205 [@dyn 671] (gas: 4)\n 32818: a2 = s1 + 0x100\n 32822: a0 = u64 [a2 + 0x40]\n 32825: a0 = a0 + 0xffffffffffffff9c\n 32828: t0 = 1344, jump @1909\n      : @1206 [@dyn 672] (gas: 1)\n 32834: jump @1208 if a0 != 0\n      : @1207 (gas: 1)\n 32837: jump @500\n      : @1208 (gas: 10)\n 32840: a0 = u64 [s1 + 0x158]\n 32844: i32 a0 = a0 + 0x64\n 32847: a2 = s1 + 0x18d8\n 32851: u64 [a2 + 1240] = 0\n 32855: u64 [a2 + 1232] = 0\n 32859: a1 = 0x7269636500000000\n 32869: u64 [a2 + 0x4e0] = a1\n 32873: a1 = s1 + 0x1da0\n 32877: u64 [a2 + 1224] = 0\n 32881: ra = 1346, jump @19\n      : @1209 [@dyn 673] (gas: 3)\n 32887: a1 = 0x84\n 32891: a0 = u64 [s1 + 0x158]\n 32895: ra = 1348, jump @34\n      : @1210 [@dyn 674] (gas: 5)\n 32901: i32 a1 = a0 + 0\n 32903: a0 = 0x1\n 32906: a2 = 0x84\n 32910: ecalli 13 // 'seal_return'\n 32912: fallthrough\n      : @1211 (gas: 3)\n 32913: a0 = a2\n 32915: u64 [s1 + 0x158] = a1\n 32919: ra = 1350, jump @34\n      : @1212 [@dyn 675] (gas: 5)\n 32925: i32 a1 = a0 + 0\n 32927: a2 = i32 [s1 + 0x158]\n 32931: a0 = 0\n 32933: ecalli 13 // 'seal_return'\n 32935: fallthrough\n      : @1213 (gas: 6)\n 32936: a1 = 0x20220\n 32941: i32 a1 = a1 + 0\n 32943: a0 = 0x1\n 32946: a2 = 0\n 32948: ecalli 13 // 'seal_return'\n 32950: jump @1373\n      : @1214 (gas: 6)\n 32953: a1 = 0x20220\n 32958: i32 a1 = a1 + 0\n 32960: a0 = 0x1\n 32963: a2 = 0\n 32965: ecalli 13 // 'seal_return'\n 32967: jump @1373\n      : @1215 (gas: 6)\n 32970: a1 = 0x20220\n 32975: i32 a1 = a1 + 0\n 32977: a0 = 0x1\n 32980: a2 = 0\n 32982: ecalli 13 // 'seal_return'\n 32984: jump @1373\n      : @1216 (gas: 6)\n 32987: a1 = 0x20220\n 32992: i32 a1 = a1 + 0\n 32994: a0 = 0x1\n 32997: a2 = 0\n 32999: ecalli 13 // 'seal_return'\n 33001: jump @1373\n      : @1217 (gas: 6)\n 33004: u64 [s1 + 1712] = 0\n 33008: u64 [s1 + 1704] = 0\n 33012: u64 [s1 + 1696] = 0\n 33016: t0 = 0x548\n 33020: a0 = 0x4e487b7100000000\n 33030: fallthrough\n      : @1218 [@dyn 676] (gas: 4)\n 33031: a1 = s1 + 0x6a0\n 33035: u64 [s1 + 0x6b8] = a0\n 33039: a0 = 0\n 33041: ra = 1354, jump @19\n      : @1219 [@dyn 677] (gas: 7)\n 33047: u64 [s1 + 1688] = 0\n 33051: u64 [s1 + 1680] = 0\n 33055: u64 [s1 + 1664] = 0x11\n 33060: a0 = 0x4\n 33063: a1 = s1 + 0x680\n 33067: u64 [s1 + 1672] = 0\n 33071: ra = 1356, jump @19\n      : @1220 [@dyn 678] (gas: 2)\n 33077: a1 = i32 [0x2020c]\n 33082: jump @1222 if a1 >u 63\n      : @1221 (gas: 3)\n 33086: u32 [0x2020c] = 0x40\n 33092: a1 = 0x20220\n 33097: jump @1223\n      : @1222 (gas: 2)\n 33099: a1 = 0x20220\n 33104: fallthrough\n      : @1223 (gas: 5)\n 33105: i32 a1 = a1 + 0\n 33107: a0 = 0x1\n 33110: a2 = 0x24\n 33113: ecalli 13 // 'seal_return'\n 33115: fallthrough\n      : @1224 (gas: 6)\n 33116: a1 = 0x20220\n 33121: i32 a1 = a1 + 0\n 33123: a0 = 0x1\n 33126: a2 = 0\n 33128: ecalli 13 // 'seal_return'\n 33130: jump @1373\n      : @1225 (gas: 6)\n 33133: a1 = 0x20220\n 33138: i32 a1 = a1 + 0\n 33140: a0 = 0x1\n 33143: a2 = 0\n 33145: ecalli 13 // 'seal_return'\n 33147: jump @1373\n      : @1226 (gas: 6)\n 33150: a1 = 0x20220\n 33155: i32 a1 = a1 + 0\n 33157: a0 = 0x1\n 33160: a2 = 0\n 33162: ecalli 13 // 'seal_return'\n 33164: jump @1373\n      : @1227 (gas: 6)\n 33167: a1 = 0x20220\n 33172: i32 a1 = a1 + 0\n 33174: a0 = 0x1\n 33177: a2 = 0\n 33179: ecalli 13 // 'seal_return'\n 33181: jump @1373\n      : @1228 (gas: 10)\n 33184: a0 = s1 + 0x10d8\n 33188: u64 [a0 + 1816] = 0\n 33192: u64 [a0 + 1808] = 0\n 33196: u64 [a0 + 1800] = 0\n 33200: a2 = a0\n 33202: a0 = 0x89c62b6400000000\n 33212: a1 = s1 + 0x17e0\n 33216: u64 [a2 + 0x720] = a0\n 33220: a0 = 0\n 33222: ra = 1358, jump @19\n      : @1229 [@dyn 679] (gas: 9)\n 33229: a0 = s1 + 0x10d8\n 33233: u64 [a0 + 1792] = 0\n 33237: u64 [a0 + 1784] = 0\n 33241: u64 [a0 + 1776] = 0\n 33245: a2 = a0\n 33247: a0 = 0x4\n 33250: a1 = s1 + 0x17c0\n 33254: u64 [a2 + 1768] = 0\n 33258: ra = 1360, jump @19\n      : @1230 [@dyn 680] (gas: 2)\n 33265: a1 = i32 [0x2020c]\n 33270: jump @1232 if a1 >u 63\n      : @1231 (gas: 3)\n 33274: u32 [0x2020c] = 0x40\n 33280: a1 = 0x20220\n 33285: jump @1223\n      : @1232 (gas: 2)\n 33288: a1 = 0x20220\n 33293: jump @1223\n      : @1233 (gas: 6)\n 33296: a1 = 0x20220\n 33301: i32 a1 = a1 + 0\n 33303: a0 = 0x1\n 33306: a2 = 0\n 33308: ecalli 13 // 'seal_return'\n 33310: jump @1373\n      : @1234 (gas: 6)\n 33313: a1 = 0x20220\n 33318: i32 a1 = a1 + 0\n 33320: a0 = 0x1\n 33323: a2 = 0\n 33325: ecalli 13 // 'seal_return'\n 33327: jump @1373\n      : @1235 (gas: 6)\n 33330: a1 = 0x20220\n 33335: i32 a1 = a1 + 0\n 33337: a0 = 0x1\n 33340: a2 = 0\n 33342: ecalli 13 // 'seal_return'\n 33344: jump @1373\n      : @1236 (gas: 6)\n 33347: a1 = 0x20220\n 33352: i32 a1 = a1 + 0\n 33354: a0 = 0x1\n 33357: a2 = 0\n 33359: ecalli 13 // 'seal_return'\n 33361: jump @1373\n      : @1237 (gas: 6)\n 33364: a1 = 0x20220\n 33369: i32 a1 = a1 + 0\n 33371: a0 = 0x1\n 33374: a2 = 0\n 33376: ecalli 13 // 'seal_return'\n 33378: jump @1373\n      : @1238 (gas: 10)\n 33381: a0 = s1 + 0x20d8\n 33385: u64 [a0 + 760] = 0\n 33389: u64 [a0 + 752] = 0\n 33393: u64 [a0 + 744] = 0\n 33397: a2 = a0\n 33399: a0 = 0x5b08ba1800000000\n 33409: a1 = s1 + 0x23c0\n 33413: u64 [a2 + 0x300] = a0\n 33417: a0 = 0\n 33419: ra = 1362, jump @19\n      : @1239 [@dyn 681] (gas: 9)\n 33426: a0 = s1 + 0x20d8\n 33430: u64 [a0 + 736] = 0\n 33434: u64 [a0 + 728] = 0\n 33438: u64 [a0 + 720] = 0\n 33442: a2 = a0\n 33444: a0 = 0x4\n 33447: a1 = s1 + 0x23a0\n 33451: u64 [a2 + 712] = 0\n 33455: ra = 1364, jump @19\n      : @1240 [@dyn 682] (gas: 2)\n 33462: a1 = i32 [0x2020c]\n 33467: jump @1242 if a1 >u 63\n      : @1241 (gas: 3)\n 33471: u32 [0x2020c] = 0x40\n 33477: a1 = 0x20220\n 33482: jump @1223\n      : @1242 (gas: 2)\n 33485: a1 = 0x20220\n 33490: jump @1223\n      : @1243 (gas: 6)\n 33493: a1 = 0x20220\n 33498: i32 a1 = a1 + 0\n 33500: a0 = 0x1\n 33503: a2 = 0\n 33505: ecalli 13 // 'seal_return'\n 33507: jump @1373\n      : @1244 (gas: 21)\n 33510: a0 = s1 + 0x4000\n 33514: i32 a0 = a0 + 0xfffffffffffffa40\n 33518: a1 = 0x4\n 33521: ecalli 3 // 'call_data_load'\n 33523: a5 = s1 + 0x38d8\n 33527: a0 = u64 [a5 + 0x168]\n 33531: a1 = u64 [a5 + 0x170]\n 33535: a2 = u64 [a5 + 0x178]\n 33539: a3 = u64 [a5 + 0x180]\n 33543: u64 [a5 + 416] = 0\n 33547: u64 [a5 + 408] = 0\n 33551: u64 [a5 + 400] = 0\n 33555: u64 [a5 + 392] = 0x9\n 33560: a4 = a5 + 0x100\n 33564: u64 [a4 + 0xc0] = a3\n 33568: u64 [a4 + 0xb8] = a2\n 33572: u64 [a4 + 0xb0] = a1\n 33576: u64 [a4 + 0xa8] = a0\n 33580: a0 = s1 + 0x3a60\n 33584: a1 = s1 + 0x3a80\n 33588: ra = 1366, jump @23\n      : @1245 [@dyn 683] (gas: 6)\n 33595: a1 = 0x20220\n 33600: i32 a1 = a1 + 0\n 33602: a0 = 0\n 33604: a2 = 0\n 33606: ecalli 13 // 'seal_return'\n 33608: jump @1373\n      : @1246 (gas: 6)\n 33611: a1 = 0x20220\n 33616: i32 a1 = a1 + 0\n 33618: a0 = 0x1\n 33621: a2 = 0\n 33623: ecalli 13 // 'seal_return'\n 33625: jump @1373\n      : @1247 (gas: 6)\n 33628: a1 = 0x20220\n 33633: i32 a1 = a1 + 0\n 33635: a0 = 0x1\n 33638: a2 = 0\n 33640: ecalli 13 // 'seal_return'\n 33642: jump @1373\n      : @1248 (gas: 6)\n 33645: a1 = 0x20220\n 33650: i32 a1 = a1 + 0\n 33652: a0 = 0x1\n 33655: a2 = 0\n 33657: ecalli 13 // 'seal_return'\n 33659: jump @1373\n      : @1249 (gas: 6)\n 33662: a1 = 0x20220\n 33667: i32 a1 = a1 + 0\n 33669: a0 = 0x1\n 33672: a2 = 0\n 33674: ecalli 13 // 'seal_return'\n 33676: jump @1373\n      : @1250 (gas: 3)\n 33679: t0 = 0x558\n 33683: a2 = s1 + 0x28d8\n 33687: fallthrough\n      : @1251 [@dyn 684] (gas: 12)\n 33688: a0 = u64 [s1 + 0x158]\n 33692: a3 = a2 + 0x600\n 33696: u64 [a3 + 0x8] = a0\n 33699: a0 = u64 [s1 + 0x150]\n 33703: u64 [a3 + 0x10] = a0\n 33706: a0 = u64 [s1 + 0x148]\n 33710: u64 [a3 + 0x18] = a0\n 33713: a1 = s1 + 0x2ee0\n 33717: a0 = u64 [s1 + 0x140]\n 33721: u64 [a3 + 0x20] = a0\n 33724: a0 = 0\n 33726: ra = 1370, jump @19\n      : @1252 [@dyn 685] (gas: 9)\n 33733: a0 = s1 + 0x28d8\n 33737: u64 [a0 + 1536] = 0\n 33741: u64 [a0 + 1528] = 0\n 33745: u64 [a0 + 1520] = 0\n 33749: a3 = a0\n 33751: a0 = 0x20\n 33754: a1 = s1 + 0x2ec0\n 33758: u64 [a3 + 1512] = 0xb\n 33763: ra = 1372, jump @19\n      : @1253 [@dyn 686] (gas: 7)\n 33770: a0 = sp + 0xffffffffffffffe0\n 33773: a0 = a0 & 0xffffffffffffffe0\n 33776: u64 [s1 + 0x128] = a0\n 33780: sp = a0\n 33782: a0 = u64 [s1 + 0x110]\n 33786: a0 = i32 [a0]\n 33788: jump @1255 if a0 >u 63\n      : @1254 (gas: 4)\n 33792: a1 = u64 [s1 + 0x110]\n 33796: u32 [a1 + 0] = 0x40\n 33799: t0 = 0x55e\n 33803: jump @1953\n      : @1255 (gas: 1)\n 33806: t0 = 1374, jump @1953\n      : @1256 [@dyn 687] (gas: 5)\n 33812: ra = 0x560\n 33816: ecalli 9 // 'hash_keccak_256'\n 33818: a3 = u64 [s1 + 0x120]\n 33822: t0 = 0x562\n 33826: jump @1932\n      : @1257 [@dyn 688] (gas: 2)\n 33829: a3 = u64 [s1 + 0x120]\n 33833: t0 = 1378, jump @1932\n      : @1258 [@dyn 689] (gas: 7)\n 33839: a1 = u64 [s1 + 0x128]\n 33843: u64 [a1] = a4\n 33845: u64 [a1 + 0x8] = a5\n 33848: u64 [a1 + 0x10] = a2\n 33851: u64 [a1 + 0x18] = a0\n 33854: a0 = s1 + 0x2ea0\n 33858: ra = 1380, jump @21\n      : @1259 [@dyn 690] (gas: 16)\n 33865: a3 = s1 + 0x28d8\n 33869: a4 = a3 + 0x500\n 33873: a0 = u64 [a4 + 0xc8]\n 33877: a1 = u64 [a4 + 0xe0]\n 33881: a2 = u64 [a4 + 0xd8]\n 33885: a3 = u64 [a4 + 0xd0]\n 33889: a0 = a0 & 0xffffffffffffff00\n 33893: a4 = s1 + 0x38d8\n 33897: a5 = a4 + 0x500\n 33901: u64 [a5 + 0xe0] = a1\n 33905: u64 [a5 + 0xd8] = a2\n 33909: u64 [a5 + 0xd0] = a3\n 33913: u64 [a5 + 0xc8] = a0\n 33917: a1 = s1 + 0x3ea0\n 33921: a0 = u64 [s1 + 0x128]\n 33925: ra = 1382, jump @23\n      : @1260 [@dyn 691] (gas: 13)\n 33932: a0 = u64 [s1 + 0x140]\n 33936: a2 = s1 + 0x28d8\n 33940: a3 = a2 + 0x500\n 33944: u64 [a3 + 0xc0] = a0\n 33948: a0 = u64 [s1 + 0x148]\n 33952: u64 [a3 + 0xb8] = a0\n 33956: a0 = u64 [s1 + 0x150]\n 33960: u64 [a3 + 0xb0] = a0\n 33964: a1 = s1 + 0x2e80\n 33968: a0 = u64 [s1 + 0x158]\n 33972: u64 [a3 + 0xa8] = a0\n 33976: a0 = 0\n 33978: ra = 1384, jump @19\n      : @1261 [@dyn 692] (gas: 3)\n 33985: t0 = 0x56a\n 33989: a1 = s1 + 0x28d8\n 33993: fallthrough\n      : @1262 [@dyn 693] (gas: 8)\n 33994: u64 [a1 + 1440] = 0\n 33998: u64 [a1 + 1432] = 0\n 34002: u64 [a1 + 1416] = 0xb\n 34007: a2 = a1\n 34009: a0 = 0x20\n 34012: a1 = s1 + 0x2e60\n 34016: u64 [a2 + 1424] = 0\n 34020: ra = 1388, jump @19\n      : @1263 [@dyn 694] (gas: 3)\n 34027: a0 = u64 [s1 + 0x110]\n 34031: a0 = i32 [a0]\n 34033: jump @1265 if a0 >u 63\n      : @1264 (gas: 3)\n 34037: a0 = u64 [s1 + 0x110]\n 34041: u32 [a0 + 0] = 0x40\n 34044: fallthrough\n      : @1265 (gas: 11)\n 34045: a0 = sp + 0xffffffffffffffe0\n 34048: a0 = a0 & 0xffffffffffffffe0\n 34051: u64 [s1 + 0x128] = a0\n 34055: sp = a0\n 34057: i32 a2 = a0 + 0\n 34059: a1 = 0x40\n 34062: a0 = u64 [s1 + 0xe8]\n 34066: ra = 0x56e\n 34070: ecalli 9 // 'hash_keccak_256'\n 34072: t0 = 0x570\n 34076: jump @1925\n      : @1266 [@dyn 695] (gas: 1)\n 34079: t0 = 1392, jump @1925\n      : @1267 [@dyn 696] (gas: 8)\n 34085: a3 = a1 + 0x500\n 34089: u64 [a3 + 0xe8] = a4\n 34093: u64 [a3 + 0xf0] = a5\n 34097: u64 [a3 + 0xf8] = a2\n 34101: u64 [a1 + 0x600] = a0\n 34105: a0 = s1 + 0x3ec0\n 34109: a1 = u64 [s1 + 0x130]\n 34113: ra = 1394, jump @23\n      : @1268 [@dyn 697] (gas: 3)\n 34120: t0 = 0x574\n 34124: a2 = s1 + 0x28d8\n 34128: fallthrough\n      : @1269 [@dyn 698] (gas: 12)\n 34129: a0 = u64 [s1 + 0x140]\n 34133: a3 = a2 + 0x500\n 34137: u64 [a3 + 0x80] = a0\n 34141: a0 = u64 [s1 + 0x148]\n 34145: u64 [a3 + 0x78] = a0\n 34148: a0 = u64 [s1 + 0x150]\n 34152: u64 [a3 + 0x70] = a0\n 34155: a1 = s1 + 0x2e40\n 34159: a0 = u64 [s1 + 0x158]\n 34163: u64 [a3 + 0x68] = a0\n 34166: a0 = 0\n 34168: ra = 1398, jump @19\n      : @1270 [@dyn 699] (gas: 9)\n 34175: a0 = s1 + 0x28d8\n 34179: u64 [a0 + 1376] = 0\n 34183: u64 [a0 + 1368] = 0\n 34187: u64 [a0 + 1360] = 0\n 34191: a3 = a0\n 34193: a0 = 0x20\n 34196: a1 = s1 + 0x2e20\n 34200: u64 [a3 + 1352] = 0xb\n 34205: ra = 1400, jump @19\n      : @1271 [@dyn 700] (gas: 1)\n 34212: t0 = 1402, jump @1998\n      : @1272 [@dyn 701] (gas: 1)\n 34218: jump @1274 if a1 <u a0\n      : @1273 (gas: 3)\n 34221: a0 = u64 [s1 + 0x110]\n 34225: u32 [a0 + 0] = 0x40\n 34228: fallthrough\n      : @1274 (gas: 3)\n 34229: a0 = 0xffffffff00000000\n 34239: u64 [s1 + 0x128] = a0\n 34243: t0 = 1404, jump @1953\n      : @1275 [@dyn 702] (gas: 5)\n 34249: ra = 0x57e\n 34253: ecalli 9 // 'hash_keccak_256'\n 34255: a3 = u64 [s1 + 0x120]\n 34259: t0 = 0x580\n 34263: jump @1915\n      : @1276 [@dyn 703] (gas: 2)\n 34266: a3 = u64 [s1 + 0x120]\n 34270: t0 = 1408, jump @1915\n      : @1277 [@dyn 704] (gas: 10)\n 34276: a1 = u64 [s1 + 0x130]\n 34280: u64 [a1] = a3\n 34282: u64 [a1 + 0x8] = a2\n 34285: u64 [a1 + 0x10] = a4\n 34288: u64 [a1 + 0x18] = a0\n 34291: a0 = u64 [s1 + 0xe0]\n 34295: ra = 0x582\n 34299: ecalli 5 // 'caller'\n 34301: t0 = 0x584\n 34305: jump @1931\n      : @1278 [@dyn 705] (gas: 1)\n 34308: t0 = 1412, jump @1931\n      : @1279 [@dyn 706] (gas: 4)\n 34314: i32 a0 = a0 + 0xfffffffffffffe00\n 34318: a0 = a0 + s1\n 34321: a1 = u64 [s1 + 0x130]\n 34325: ra = 1414, jump @21\n      : @1280 [@dyn 707] (gas: 17)\n 34332: a1 = s1 + 0x28d8\n 34336: a0 = u32 [a1 + 0x53c]\n 34340: a1 = u64 [a1 + 0x540]\n 34344: a0 = a0 << 0x20\n 34347: a2 = u64 [s1 + 0x108]\n 34351: a0 = a0 | a2\n 34354: a2 = s1 + 0x38d8\n 34358: a3 = a2 + 0x600\n 34362: u64 [a3 + 0x20] = a1\n 34365: a1 = u64 [s1 + 0x118]\n 34369: u64 [a3 + 0x10] = a1\n 34372: a1 = u64 [s1 + 0x120]\n 34376: u64 [a3 + 0x8] = a1\n 34379: u64 [a3 + 0x18] = a0\n 34382: a1 = s1 + 0x3ee0\n 34386: a0 = u64 [s1 + 0x130]\n 34390: ra = 1416, jump @23\n      : @1281 [@dyn 708] (gas: 13)\n 34397: a0 = u64 [s1 + 0x140]\n 34401: a2 = s1 + 0x28d8\n 34405: a3 = a2 + 0x500\n 34409: u64 [a3 + 0x20] = a0\n 34412: a0 = u64 [s1 + 0x148]\n 34416: u64 [a3 + 0x18] = a0\n 34419: a0 = u64 [s1 + 0x150]\n 34423: u64 [a3 + 0x10] = a0\n 34426: a1 = s1 + 0x2de0\n 34430: a0 = u64 [s1 + 0x158]\n 34434: u64 [a3 + 0x8] = a0\n 34437: a0 = 0\n 34439: ra = 1418, jump @19\n      : @1282 [@dyn 709] (gas: 3)\n 34446: t0 = 0x58c\n 34450: a1 = s1 + 0x28d8\n 34454: fallthrough\n      : @1283 [@dyn 710] (gas: 8)\n 34455: u64 [a1 + 1280] = 0\n 34459: u64 [a1 + 1272] = 0\n 34463: u64 [a1 + 1256] = 0xb\n 34468: a2 = a1\n 34470: a0 = 0x20\n 34473: a1 = s1 + 0x2dc0\n 34477: u64 [a2 + 1264] = 0\n 34481: ra = 1422, jump @19\n      : @1284 [@dyn 711] (gas: 1)\n 34488: t0 = 1424, jump @1998\n      : @1285 [@dyn 712] (gas: 1)\n 34494: jump @1287 if a1 <u a0\n      : @1286 (gas: 4)\n 34497: a0 = u64 [s1 + 0x110]\n 34501: u32 [a0 + 0] = 0x40\n 34504: t0 = 0x592\n 34508: jump @1953\n      : @1287 (gas: 1)\n 34511: t0 = 1426, jump @1953\n      : @1288 [@dyn 713] (gas: 5)\n 34517: ra = 0x594\n 34521: ecalli 9 // 'hash_keccak_256'\n 34523: a3 = u64 [s1 + 0x120]\n 34527: t0 = 0x596\n 34531: jump @1912\n      : @1289 [@dyn 714] (gas: 2)\n 34534: a3 = u64 [s1 + 0x120]\n 34538: t0 = 1430, jump @1912\n      : @1290 [@dyn 715] (gas: 10)\n 34544: a1 = u64 [s1 + 0x130]\n 34548: u64 [a1] = a4\n 34550: u64 [a1 + 0x8] = a5\n 34553: u64 [a1 + 0x10] = a2\n 34556: u64 [a1 + 0x18] = a0\n 34559: a0 = u64 [s1 + 0xe0]\n 34563: ra = 0x598\n 34567: ecalli 0 // 'address'\n 34568: t0 = 0x59a\n 34572: jump @1931\n      : @1291 [@dyn 716] (gas: 1)\n 34575: t0 = 1434, jump @1931\n      : @1292 [@dyn 717] (gas: 4)\n 34581: i32 a0 = a0 + 0xfffffffffffffda0\n 34585: a0 = a0 + s1\n 34588: a1 = u64 [s1 + 0x130]\n 34592: ra = 1436, jump @21\n      : @1293 [@dyn 718] (gas: 20)\n 34599: a1 = s1 + 0x28d8\n 34603: a0 = u64 [a1 + 0x4e0]\n 34607: a1 = u64 [a1 + 0x4d8]\n 34611: a0 = a0 & 0xffffffffffffffff\n 34614: a4 = s1 + 0x100\n 34618: a2 = u64 [a4 + 0x28]\n 34621: a1 = a1 & a2\n 34624: a2 = u64 [a4 + 0x8]\n 34627: a1 = a1 | a2\n 34630: a3 = s1 + 0x38d8\n 34634: a2 = u64 [a4 + 0x18]\n 34637: a5 = a3 + 0x600\n 34641: u64 [a5 + 0x30] = a2\n 34644: a2 = u64 [a4 + 0x20]\n 34647: u64 [a5 + 0x28] = a2\n 34650: u64 [a5 + 0x40] = a0\n 34653: u64 [a5 + 0x38] = a1\n 34656: a1 = s1 + 0x3f00\n 34660: a0 = u64 [a4 + 0x30]\n 34663: ra = 1438, jump @23\n      : @1294 [@dyn 719] (gas: 9)\n 34670: a0 = s1 + 0x38d8\n 34674: u64 [a0 + 1632] = 0\n 34678: u64 [a0 + 1624] = 0\n 34682: u64 [a0 + 1616] = 0\n 34686: a1 = a0\n 34688: u64 [a1 + 1608] = 0x8\n 34693: a0 = s1 + 0x2d80\n 34697: a1 = s1 + 0x3f20\n 34701: ra = 1440, jump @21\n      : @1295 [@dyn 720] (gas: 10)\n 34708: a0 = s1 + 0x28d8\n 34712: a4 = a0 + 0x400\n 34716: a3 = u64 [a4 + 0xc0]\n 34720: a2 = u64 [a4 + 0xb8]\n 34724: a1 = u64 [a4 + 0xb0]\n 34728: a0 = u64 [a4 + 0xa8]\n 34732: a4 = a1 | a3\n 34735: a5 = a0 | a2\n 34738: a4 = a4 | a5\n 34741: jump @1339 if a4 == 0\n      : @1296 (gas: 21)\n 34745: a4 = a0 | a1\n 34748: a4 = a4 <u 0x1\n 34751: a5 = a2 <u a4\n 34754: a3 = a3 - a5\n 34757: a2 = a2 - a4\n 34760: a4 = a0 <u 0x1\n 34763: a1 = a1 - a4\n 34766: a0 = a0 + 0xffffffffffffffff\n 34769: a4 = s1 + 0x38d8\n 34773: u64 [a4 + 1664] = 0\n 34777: u64 [a4 + 1656] = 0\n 34781: u64 [a4 + 1648] = 0\n 34785: u64 [a4 + 1640] = 0x8\n 34790: a5 = a4 + 0x600\n 34794: u64 [a5 + 0x88] = a0\n 34798: u64 [a5 + 0x90] = a1\n 34802: u64 [a5 + 0x98] = a2\n 34806: u64 [a5 + 0xa0] = a3\n 34810: a0 = s1 + 0x3f40\n 34814: a1 = s1 + 0x3f60\n 34818: ra = 1442, jump @23\n      : @1297 [@dyn 721] (gas: 6)\n 34825: a0 = u64 [s1 + 0xe0]\n 34829: ra = 0x5a4\n 34833: ecalli 0 // 'address'\n 34834: a2 = u64 [s1 + 0x138]\n 34838: t0 = 0x5a6\n 34842: jump @1948\n      : @1298 [@dyn 722] (gas: 2)\n 34845: a2 = u64 [s1 + 0x138]\n 34849: t0 = 1446, jump @1948\n      : @1299 [@dyn 723] (gas: 12)\n 34855: u64 [s1 + 0x130] = a1\n 34859: a0 = a0 >> 0x20\n 34862: a1 = reverse a2\n 34864: a2 = a1 << 0x20\n 34867: a0 = a0 | a2\n 34870: u64 [s1 + 0x128] = a0\n 34874: a1 = a1 >> 0x20\n 34877: u64 [s1 + 0x120] = a1\n 34881: a0 = u64 [s1 + 0xe0]\n 34885: ra = 0x5a8\n 34889: ecalli 5 // 'caller'\n 34891: fallthrough\n      : @1300 [@dyn 724] (gas: 3)\n 34892: a5 = s1 + 0x100\n 34896: a2 = u64 [a5 + 0x38]\n 34899: t0 = 1450, jump @1949\n      : @1301 [@dyn 725] (gas: 25)\n 34905: a3 = s1 + 0x28d8\n 34909: a4 = u64 [a5 + 0x40]\n 34912: u64 [a3 + 0x460] = a4\n 34916: a4 = u64 [a5 + 0x48]\n 34919: u64 [a3 + 0x458] = a4\n 34923: a4 = u64 [a5 + 0x50]\n 34926: u64 [a3 + 0x450] = a4\n 34930: a4 = u64 [a5 + 0x58]\n 34933: u64 [a3 + 0x448] = a4\n 34937: a4 = u64 [a5 + 0x20]\n 34940: u64 [a3 + 0x478] = a4\n 34944: a4 = u64 [a5 + 0x28]\n 34947: u64 [a3 + 0x470] = a4\n 34951: a4 = u64 [a5 + 0x30]\n 34954: a5 = a3 + 0x400\n 34958: u64 [a5 + 0x68] = a4\n 34961: u64 [a3 + 1152] = 0\n 34965: u64 [a5 + 0x98] = a2\n 34969: u64 [a5 + 0x90] = a0\n 34973: u64 [a5 + 0x88] = a1\n 34977: a0 = s1 + 0x2d60\n 34981: a1 = s1 + 0x2d40\n 34985: a2 = s1 + 0x2d20\n 34989: u64 [a3 + 1184] = 0\n 34993: ra = 1452, jump @1875\n      : @1302 [@dyn 726] (gas: 5)\n 34999: a0 = 0\n 35001: a1 = u64 [s1 + 0xe8]\n 35005: a2 = 0\n 35007: ecalli 13 // 'seal_return'\n 35009: jump @1373\n      : @1303 (gas: 6)\n 35012: a1 = 0x20220\n 35017: i32 a1 = a1 + 0\n 35019: a0 = 0x1\n 35022: a2 = 0\n 35024: ecalli 13 // 'seal_return'\n 35026: jump @1373\n      : @1304 (gas: 6)\n 35029: a1 = 0x20220\n 35034: i32 a1 = a1 + 0\n 35036: a0 = 0x1\n 35039: a2 = 0\n 35041: ecalli 13 // 'seal_return'\n 35043: jump @1373\n      : @1305 (gas: 6)\n 35046: a1 = 0x20220\n 35051: i32 a1 = a1 + 0\n 35053: a0 = 0x1\n 35056: a2 = 0\n 35058: ecalli 13 // 'seal_return'\n 35060: jump @1373\n      : @1306 (gas: 6)\n 35063: a1 = 0x20220\n 35068: i32 a1 = a1 + 0\n 35070: a0 = 0x1\n 35073: a2 = 0\n 35075: ecalli 13 // 'seal_return'\n 35077: jump @1373\n      : @1307 (gas: 6)\n 35080: a1 = 0x20220\n 35085: i32 a1 = a1 + 0\n 35087: a0 = 0x1\n 35090: a2 = 0\n 35092: ecalli 13 // 'seal_return'\n 35094: jump @1373\n      : @1308 (gas: 6)\n 35097: a1 = 0x20220\n 35102: i32 a1 = a1 + 0\n 35104: a0 = 0x1\n 35107: a2 = 0\n 35109: ecalli 13 // 'seal_return'\n 35111: jump @1373\n      : @1309 (gas: 6)\n 35114: a1 = 0x20220\n 35119: i32 a1 = a1 + 0\n 35121: a0 = 0x1\n 35124: a2 = 0\n 35126: ecalli 13 // 'seal_return'\n 35128: jump @1373\n      : @1310 (gas: 6)\n 35131: a1 = 0x20220\n 35136: i32 a1 = a1 + 0\n 35138: a0 = 0x1\n 35141: a2 = 0\n 35143: ecalli 13 // 'seal_return'\n 35145: jump @1373\n      : @1311 (gas: 6)\n 35148: a1 = 0x20220\n 35153: i32 a1 = a1 + 0\n 35155: a0 = 0x1\n 35158: a2 = 0\n 35160: ecalli 13 // 'seal_return'\n 35162: jump @1373\n      : @1312 (gas: 6)\n 35165: a1 = 0x20220\n 35170: i32 a1 = a1 + 0\n 35172: a0 = 0x1\n 35175: a2 = 0\n 35177: ecalli 13 // 'seal_return'\n 35179: jump @1373\n      : @1313 (gas: 6)\n 35182: a1 = 0x20220\n 35187: i32 a1 = a1 + 0\n 35189: a0 = 0x1\n 35192: a2 = 0\n 35194: ecalli 13 // 'seal_return'\n 35196: jump @1373\n      : @1314 (gas: 1)\n 35199: jump @1346 if a0 != 3096268766\n      : @1315 (gas: 12)\n 35207: a0 = s1 + 0x38d8\n 35211: u64 [a0 + 480] = 0\n 35215: u64 [a0 + 472] = 0\n 35219: u64 [a0 + 464] = 0\n 35223: u64 [a0 + 456] = 0\n 35227: a0 = s1 + 0x4000\n 35231: i32 a0 = a0 + 0xfffffffffffffaa0\n 35235: ra = 0x5ae\n 35239: ecalli 16 // 'value_transferred'\n 35241: a0 = 0x4000\n 35245: t0 = 0x5b0\n 35249: jump @2011\n      : @1316 [@dyn 727] (gas: 2)\n 35252: a0 = 0x4000\n 35256: t0 = 1456, jump @2011\n      : @1317 [@dyn 728] (gas: 8)\n 35262: a0 = u64 [a4 + 0xd8]\n 35266: a1 = u64 [a4 + 0xe0]\n 35270: a2 = u64 [a4 + 0xd0]\n 35274: a3 = u64 [a4 + 0xc8]\n 35278: a1 = a1 | a2\n 35281: a0 = a0 | a3\n 35284: a0 = a0 | a1\n 35287: jump @1351 if a0 == 0\n      : @1318 (gas: 6)\n 35291: a1 = 0x20220\n 35296: i32 a1 = a1 + 0\n 35298: a0 = 0x1\n 35301: a2 = 0\n 35303: ecalli 13 // 'seal_return'\n 35305: jump @1373\n      : @1319 (gas: 6)\n 35308: a1 = 0x20220\n 35313: i32 a1 = a1 + 0\n 35315: a0 = 0x1\n 35318: a2 = 0\n 35320: ecalli 13 // 'seal_return'\n 35322: jump @1373\n      : @1320 (gas: 6)\n 35325: a1 = 0x20220\n 35330: i32 a1 = a1 + 0\n 35332: a0 = 0x1\n 35335: a2 = 0\n 35337: ecalli 13 // 'seal_return'\n 35339: jump @1373\n      : @1321 (gas: 6)\n 35342: a1 = 0x20220\n 35347: i32 a1 = a1 + 0\n 35349: a0 = 0x1\n 35352: a2 = 0\n 35354: ecalli 13 // 'seal_return'\n 35356: jump @1373\n      : @1322 (gas: 10)\n 35359: a0 = s1 + 0x18d8\n 35363: u64 [a0 + 24] = 0\n 35366: u64 [a0 + 16] = 0\n 35369: u64 [a0 + 8] = 0\n 35372: a2 = a0\n 35374: a0 = 0x64a0ae9200000000\n 35384: a1 = s1 + 0x18e0\n 35388: u64 [a2 + 0x20] = a0\n 35391: a0 = 0\n 35393: ra = 1458, jump @19\n      : @1323 [@dyn 729] (gas: 9)\n 35400: a0 = s1 + 0x18d8\n 35404: u64 [a0 + 0] = 0\n 35406: u64 [a0 + 4294967288] = 0\n 35409: u64 [a0 + 4294967280] = 0\n 35412: a2 = a0\n 35414: a0 = 0x4\n 35417: a1 = s1 + 0x18c0\n 35421: u64 [a2 + 4294967272] = 0\n 35424: ra = 1460, jump @19\n      : @1324 [@dyn 730] (gas: 2)\n 35431: a1 = i32 [0x2020c]\n 35436: jump @1326 if a1 >u 63\n      : @1325 (gas: 3)\n 35440: u32 [0x2020c] = 0x40\n 35446: a1 = 0x20220\n 35451: jump @1223\n      : @1326 (gas: 2)\n 35454: a1 = 0x20220\n 35459: jump @1223\n      : @1327 (gas: 10)\n 35462: a0 = s1 + 0x18d8\n 35466: u64 [a0 + 1912] = 0\n 35470: u64 [a0 + 1904] = 0\n 35474: u64 [a0 + 1896] = 0\n 35478: a2 = a0\n 35480: a0 = 0x73c6ac6e00000000\n 35490: a1 = s1 + 0x2040\n 35494: u64 [a2 + 0x780] = a0\n 35498: a0 = 0\n 35500: ra = 1462, jump @19\n      : @1328 [@dyn 731] (gas: 9)\n 35507: a0 = s1 + 0x18d8\n 35511: u64 [a0 + 1888] = 0\n 35515: u64 [a0 + 1880] = 0\n 35519: u64 [a0 + 1872] = 0\n 35523: a2 = a0\n 35525: a0 = 0x4\n 35528: a1 = s1 + 0x2020\n 35532: u64 [a2 + 1864] = 0\n 35536: ra = 1464, jump @19\n      : @1329 [@dyn 732] (gas: 2)\n 35543: a1 = i32 [0x2020c]\n 35548: jump @1331 if a1 >u 63\n      : @1330 (gas: 3)\n 35552: u32 [0x2020c] = 0x40\n 35558: a1 = 0x20220\n 35563: jump @1223\n      : @1331 (gas: 2)\n 35566: a1 = 0x20220\n 35571: jump @1223\n      : @1332 (gas: 8)\n 35574: a0 = s1 + 0x18d8\n 35578: u64 [a0 + 88] = 0\n 35581: u64 [a0 + 80] = 0\n 35584: u64 [a0 + 72] = 0\n 35587: a2 = a0\n 35589: t0 = 0x5ba\n 35593: a0 = 0x4e487b7100000000\n 35603: fallthrough\n      : @1333 [@dyn 733] (gas: 4)\n 35604: a1 = s1 + 0x1920\n 35608: u64 [a2 + 0x60] = a0\n 35611: a0 = 0\n 35613: ra = 1468, jump @19\n      : @1334 [@dyn 734] (gas: 3)\n 35620: t0 = 0x5be\n 35624: a1 = s1 + 0x18d8\n 35628: fallthrough\n      : @1335 [@dyn 735] (gas: 8)\n 35629: u64 [a1 + 64] = 0\n 35632: u64 [a1 + 56] = 0\n 35635: u64 [a1 + 40] = 0x41\n 35639: a2 = a1\n 35641: a0 = 0x4\n 35644: a1 = s1 + 0x1900\n 35648: u64 [a2 + 48] = 0\n 35651: ra = 1472, jump @19\n      : @1336 [@dyn 736] (gas: 3)\n 35658: a0 = u64 [s1 + 0x88]\n 35662: a0 = i32 [a0]\n 35664: jump @1338 if a0 >u 63\n      : @1337 (gas: 3)\n 35668: a1 = u64 [s1 + 0x88]\n 35672: u32 [a1 + 0] = 0x40\n 35675: fallthrough\n      : @1338 (gas: 5)\n 35676: a0 = 0x1\n 35679: a2 = 0x24\n 35682: a1 = u64 [s1 + 0x78]\n 35685: ecalli 13 // 'seal_return'\n 35687: fallthrough\n      : @1339 (gas: 8)\n 35688: a0 = s1 + 0x28d8\n 35692: u64 [a0 + 1080] = 0\n 35696: u64 [a0 + 1072] = 0\n 35700: u64 [a0 + 1064] = 0\n 35704: a2 = a0\n 35706: t0 = 0x5c2\n 35710: a0 = 0x4e487b7100000000\n 35720: fallthrough\n      : @1340 [@dyn 737] (gas: 4)\n 35721: a1 = s1 + 0x2d00\n 35725: u64 [a2 + 0x440] = a0\n 35729: a0 = 0\n 35731: ra = 1476, jump @19\n      : @1341 [@dyn 738] (gas: 3)\n 35738: t0 = 0x5c6\n 35742: a1 = s1 + 0x28d8\n 35746: fallthrough\n      : @1342 [@dyn 739] (gas: 8)\n 35747: u64 [a1 + 1056] = 0\n 35751: u64 [a1 + 1048] = 0\n 35755: u64 [a1 + 1032] = 0x11\n 35760: a2 = a1\n 35762: a0 = 0x4\n 35765: a1 = s1 + 0x2ce0\n 35769: u64 [a2 + 1040] = 0\n 35773: ra = 1480, jump @19\n      : @1343 [@dyn 740] (gas: 3)\n 35780: a0 = u64 [s1 + 0x110]\n 35784: a0 = i32 [a0]\n 35786: jump @1345 if a0 >u 63\n      : @1344 (gas: 3)\n 35790: a1 = u64 [s1 + 0x110]\n 35794: u32 [a1 + 0] = 0x40\n 35797: fallthrough\n      : @1345 (gas: 5)\n 35798: a0 = 0x1\n 35801: a2 = 0x24\n 35804: a1 = u64 [s1 + 0xe8]\n 35808: ecalli 13 // 'seal_return'\n 35810: fallthrough\n      : @1346 (gas: 1)\n 35811: jump @1353 if a0 != 33540519\n      : @1347 (gas: 11)\n 35819: a0 = s1 + 0x30d8\n 35823: u64 [a0 + 384] = 0\n 35827: u64 [a0 + 376] = 0\n 35831: u64 [a0 + 368] = 0\n 35835: u64 [a0 + 360] = 0\n 35839: a0 = s1 + 0x3000\n 35843: i32 a0 = a0 + 0x240\n 35847: ra = 0x5ca\n 35851: ecalli 16 // 'value_transferred'\n 35853: t0 = 0x5cc\n 35857: jump @2017\n      : @1348 [@dyn 741] (gas: 1)\n 35860: t0 = 1484, jump @2017\n      : @1349 [@dyn 742] (gas: 8)\n 35866: a0 = u64 [a4 + 0x78]\n 35869: a1 = u64 [a4 + 0x80]\n 35873: a2 = u64 [a4 + 0x70]\n 35876: a3 = u64 [a4 + 0x68]\n 35879: a1 = a1 | a2\n 35882: a0 = a0 | a3\n 35885: a0 = a0 | a1\n 35888: jump @1358 if a0 == 0\n      : @1350 (gas: 6)\n 35892: a1 = 0x20220\n 35897: i32 a1 = a1 + 0\n 35899: a0 = 0x1\n 35902: a2 = 0\n 35904: ecalli 13 // 'seal_return'\n 35906: jump @1373\n      : @1351 (gas: 4)\n 35909: a0 = u64 [s1 + 0x158]\n 35913: a0 = i32 [a0]\n 35915: a1 = 0x83\n 35919: jump @1361 if a1 <u a0\n      : @1352 (gas: 6)\n 35923: a1 = 0x20220\n 35928: i32 a1 = a1 + 0\n 35930: a0 = 0x1\n 35933: a2 = 0\n 35935: ecalli 13 // 'seal_return'\n 35937: jump @1373\n      : @1353 (gas: 1)\n 35940: jump @1367 if a0 != 157198259\n      : @1354 (gas: 12)\n 35948: a0 = s1 + 0x30d8\n 35952: u64 [a0 + 608] = 0\n 35956: u64 [a0 + 600] = 0\n 35960: u64 [a0 + 592] = 0\n 35964: u64 [a0 + 584] = 0\n 35968: a0 = s1 + 0x3000\n 35972: i32 a0 = a0 + 0x320\n 35976: ra = 0x5ce\n 35980: ecalli 16 // 'value_transferred'\n 35982: a0 = 0x30d8\n 35986: t0 = 0x5d0\n 35990: jump @2001\n      : @1355 [@dyn 743] (gas: 2)\n 35993: a0 = 0x30d8\n 35997: t0 = 1488, jump @2001\n      : @1356 [@dyn 744] (gas: 1)\n 36003: jump @1373 if a0 == 0\n      : @1357 (gas: 6)\n 36007: a1 = 0x20220\n 36012: i32 a1 = a1 + 0\n 36014: a0 = 0x1\n 36017: a2 = 0\n 36019: ecalli 13 // 'seal_return'\n 36021: jump @1373\n      : @1358 (gas: 1)\n 36024: t0 = 1490, jump @2014\n      : @1359 [@dyn 745] (gas: 1)\n 36030: jump @1375 if a1 <u a0\n      : @1360 (gas: 6)\n 36034: a1 = 0x20220\n 36039: i32 a1 = a1 + 0\n 36041: a0 = 0x1\n 36044: a2 = 0\n 36046: ecalli 13 // 'seal_return'\n 36048: jump @1373\n      : @1361 (gas: 4)\n 36051: a0 = s1 + 0x2760\n 36055: ra = 0x5d4\n 36059: t0 = 0x62e\n 36063: jump @2009\n      : @1362 [@dyn 746] (gas: 14)\n 36066: a1 = s1 + 0x20d8\n 36070: a2 = a1 + 0x600\n 36074: a0 = u64 [a2 + 0xa0]\n 36078: u64 [s1 + 0x120] = a0\n 36082: a0 = u64 [a2 + 0x98]\n 36086: u64 [s1 + 0x128] = a0\n 36090: a0 = u64 [a2 + 0x90]\n 36094: u64 [s1 + 0x130] = a0\n 36098: a0 = u64 [a2 + 0x88]\n 36102: u64 [s1 + 0x138] = a0\n 36106: a0 = s1 + 0x2740\n 36110: ra = 0x5d6\n 36114: t0 = 0x638\n 36118: jump @2009\n      : @1363 [@dyn 747] (gas: 16)\n 36121: a1 = s1 + 0x20d8\n 36125: a2 = a1 + 0x600\n 36129: a0 = u64 [a2 + 0x80]\n 36133: u64 [s1 + 0x100] = a0\n 36137: a0 = u64 [a2 + 0x78]\n 36140: u64 [s1 + 0x108] = a0\n 36144: a0 = u64 [a2 + 0x70]\n 36147: u64 [s1 + 0x110] = a0\n 36151: a0 = u64 [a2 + 0x68]\n 36154: u64 [s1 + 0x118] = a0\n 36158: a0 = s1 + 0x4000\n 36162: i32 a0 = a0 + 0xfffffffffffffac0\n 36166: a1 = 0x64\n 36169: ra = 0x5d8\n 36173: ecalli 3 // 'call_data_load'\n 36175: fallthrough\n      : @1364 [@dyn 748] (gas: 5)\n 36176: a0 = s1 + 0x38d8\n 36180: a1 = u64 [a0 + 0x200]\n 36184: a2 = u64 [a0 + 0x1f8]\n 36188: a3 = u64 [a0 + 0x1f0]\n 36192: t0 = 1498, jump @1993\n      : @1365 [@dyn 749] (gas: 1)\n 36198: jump @1378 if a1 != 0\n      : @1366 (gas: 6)\n 36202: a1 = 0x20220\n 36207: i32 a1 = a1 + 0\n 36209: a0 = 0x1\n 36212: a2 = 0\n 36214: ecalli 13 // 'seal_return'\n 36216: jump @1373\n      : @1367 (gas: 2)\n 36218: a2 = s1 + 0x30d8\n 36222: jump @1371 if a0 != 599290589\n      : @1368 (gas: 8)\n 36229: u64 [a2 + 1280] = 0\n 36233: u64 [a2 + 1272] = 0\n 36237: u64 [a2 + 1264] = 0\n 36241: u64 [a2 + 1256] = 0\n 36245: a0 = s1 + 0x3000\n 36249: i32 a0 = a0 + 0x5c0\n 36253: ecalli 16 // 'value_transferred'\n 36255: fallthrough\n      : @1369 (gas: 10)\n 36256: a3 = s1 + 0x30d8\n 36260: a4 = a3 + 0x400\n 36264: a0 = u64 [a4 + 0xf8]\n 36268: a1 = u64 [a3 + 0x500]\n 36272: a2 = u64 [a4 + 0xf0]\n 36276: a3 = u64 [a4 + 0xe8]\n 36280: a1 = a1 | a2\n 36283: a0 = a0 | a3\n 36286: a0 = a0 | a1\n 36289: jump @1382 if a0 == 0\n      : @1370 (gas: 6)\n 36293: a1 = 0x20220\n 36298: i32 a1 = a1 + 0\n 36300: a0 = 0x1\n 36303: a2 = 0\n 36305: ecalli 13 // 'seal_return'\n 36307: jump @1373\n      : @1371 (gas: 6)\n 36309: a1 = 0x20220\n 36314: i32 a1 = a1 + 0\n 36316: a0 = 0x1\n 36319: a2 = 0\n 36321: ecalli 13 // 'seal_return'\n 36323: jump @1373\n      : @1372 (gas: 5)\n 36325: i32 a1 = a1 + 0\n 36327: a0 = 0x1\n 36330: a2 = 0\n 36332: ecalli 13 // 'seal_return'\n 36334: fallthrough\n      : @1373 (gas: 4)\n 36335: a0 = u64 [s1 + 0x158]\n 36339: a0 = i32 [a0]\n 36341: a1 = 0x43\n 36344: jump @1385 if a1 <u a0\n      : @1374 (gas: 2)\n 36348: a1 = 0x20220\n 36353: jump @1372\n      : @1375 (gas: 6)\n 36355: a0 = s1 + 0x3000\n 36359: i32 a0 = a0 + 0x260\n 36363: a1 = 0x4\n 36366: ra = 0x5dc\n 36370: ecalli 3 // 'call_data_load'\n 36372: fallthrough\n      : @1376 [@dyn 750] (gas: 12)\n 36373: a2 = s1 + 0x30d8\n 36377: a4 = a2 + 0x100\n 36381: a1 = u64 [a4 + 0xa0]\n 36385: a0 = u64 [a4 + 0x98]\n 36389: a3 = u64 [a4 + 0x88]\n 36393: a2 = u64 [a4 + 0x90]\n 36397: a4 = a1 << 0x20\n 36400: a4 = a4 >> 0x20\n 36403: a3 = a3 | a0\n 36406: a4 = a4 | a2\n 36409: a4 = a4 | a3\n 36412: jump @1418 if a4 == 0\n      : @1377 (gas: 2)\n 36416: a1 = 0x20220\n 36421: jump @1372\n      : @1378 (gas: 22)\n 36423: a0 = s1 + 0x38d8\n 36427: a1 = u64 [a0 + 0x1e8]\n 36431: a0 = u64 [s1 + 0x158]\n 36435: a5 = u32 [a0]\n 36437: a0 = a1 + 0x23\n 36440: t0 = a1\n 36442: a1 = a0 <u a1\n 36445: a3 = u64 [s1 + 0x140]\n 36449: a2 = a3 + a1\n 36452: a3 = a2 <u a3\n 36455: a3 = a1 if a1 == 0\n 36458: a1 = u64 [s1 + 0x148]\n 36462: a3 = a3 + a1\n 36465: a1 = a3 <u a1\n 36468: a4 = u64 [s1 + 0x150]\n 36472: a1 = a1 + a4\n 36475: a1 = a1 | a3\n 36478: u64 [s1 + 0x158] = a5\n 36482: a0 = a0 <u a5\n 36485: a0 = 0 if a2 != 0\n 36487: a0 = 0 if a1 != 0\n 36489: jump @1427 if a0 == 0\n      : @1379 (gas: 44)\n 36493: u64 [s1 + 0xf8] = t0\n 36497: i32 a1 = t0 + 0x4\n 36500: a0 = s1 + 0x4000\n 36504: i32 a0 = a0 + 0xfffffffffffffae0\n 36508: ecalli 3 // 'call_data_load'\n 36510: a0 = s1 + 0x38d8\n 36514: t0 = u64 [a0 + 0x208]\n 36518: t2 = u64 [a0 + 0x210]\n 36522: ra = u64 [a0 + 0x218]\n 36526: a1 = a0\n 36528: a0 = u64 [s1 + 0xf8]\n 36532: a2 = a0 + 0x24\n 36535: a4 = a2 <u a0\n 36538: a0 = u64 [s1 + 0x140]\n 36542: a5 = a0 + a4\n 36545: a0 = a5 <u a0\n 36548: a0 = a4 if a4 == 0\n 36551: a4 = u64 [a1 + 0x220]\n 36555: a1 = u64 [s1 + 0x148]\n 36559: a0 = a0 + a1\n 36562: t1 = a0 <u a1\n 36565: a1 = u64 [s1 + 0x150]\n 36569: t1 = t1 + a1\n 36572: a3 = s1 + 0x20d8\n 36576: u64 [a3 + 1536] = 0\n 36580: u64 [a3 + 1528] = 0\n 36584: u64 [a3 + 1520] = 0\n 36588: a1 = u64 [s1 + 0x158]\n 36592: u64 [a3 + 0x5e8] = a1\n 36596: a1 = a3 + 0x600\n 36600: u64 [a1 + 0x20] = a4\n 36603: u64 [a3 + 0x618] = ra\n 36607: u64 [a3 + 0x610] = t2\n 36611: u64 [a3 + 0x608] = t0\n 36615: u64 [a1 + 0x30] = a5\n 36618: u64 [a1 + 0x28] = a2\n 36621: u64 [a1 + 0x38] = a0\n 36624: a4 = a3\n 36626: a0 = s1 + 0x2720\n 36630: a1 = s1 + 0x2700\n 36634: a2 = s1 + 0x26e0\n 36638: a3 = s1 + 0x26c0\n 36642: u64 [a4 + 0x640] = t1\n 36646: ra = 1502, jump @1540\n      : @1380 [@dyn 751] (gas: 56)\n 36652: a0 = s1 + 0x20d8\n 36656: a2 = a0 + 0x600\n 36660: a1 = u64 [a2 + 0x48]\n 36663: u64 [s1 + 0x158] = a1\n 36667: a1 = u64 [a2 + 0x50]\n 36670: u64 [s1 + 0x150] = a1\n 36674: a1 = u64 [a2 + 0x58]\n 36677: u64 [s1 + 0x148] = a1\n 36681: a1 = u64 [a2 + 0x60]\n 36684: u64 [s1 + 0x140] = a1\n 36688: a0 = s1 + 0x4000\n 36692: i32 a0 = a0 + 0xfffffffffffffb00\n 36696: a1 = 0x44\n 36699: ecalli 3 // 'call_data_load'\n 36701: a3 = s1 + 0x38d8\n 36705: a4 = a3 + 0x200\n 36709: a0 = u64 [a4 + 0x28]\n 36712: a1 = u64 [a4 + 0x30]\n 36715: a2 = u64 [a4 + 0x38]\n 36718: a3 = u64 [a4 + 0x40]\n 36721: a4 = s1 + 0x20d8\n 36725: a5 = u64 [s1 + 0x140]\n 36729: u64 [a4 + 0x580] = a5\n 36733: a5 = u64 [s1 + 0x148]\n 36737: u64 [a4 + 0x578] = a5\n 36741: a5 = u64 [s1 + 0x150]\n 36745: u64 [a4 + 0x570] = a5\n 36749: a5 = u64 [s1 + 0x158]\n 36753: u64 [a4 + 0x568] = a5\n 36757: a5 = a4 + 0x500\n 36761: u64 [a5 + 0xa0] = a3\n 36765: u64 [a5 + 0x98] = a2\n 36769: u64 [a5 + 0x90] = a1\n 36773: u64 [a5 + 0x88] = a0\n 36777: a0 = u64 [s1 + 0x100]\n 36781: u64 [a5 + 0xc0] = a0\n 36785: a0 = u64 [s1 + 0x108]\n 36789: u64 [a5 + 0xb8] = a0\n 36793: a0 = u64 [s1 + 0x110]\n 36797: u64 [a5 + 0xb0] = a0\n 36801: a0 = u64 [s1 + 0x118]\n 36805: u64 [a5 + 0xa8] = a0\n 36809: a0 = u64 [s1 + 0x120]\n 36813: u64 [a5 + 0xe0] = a0\n 36817: a0 = u64 [s1 + 0x128]\n 36821: u64 [a5 + 0xd8] = a0\n 36825: a0 = u64 [s1 + 0x130]\n 36829: u64 [a5 + 0xd0] = a0\n 36833: a5 = a4\n 36835: a0 = s1 + 0x26a0\n 36839: a1 = s1 + 0x2680\n 36843: a2 = s1 + 0x2660\n 36847: a3 = s1 + 0x2640\n 36851: a4 = u64 [s1 + 0x138]\n 36855: u64 [a5 + 0x5c8] = a4\n 36859: ra = 1504, jump @1723\n      : @1381 [@dyn 752] (gas: 6)\n 36865: a1 = 0x20220\n 36870: i32 a1 = a1 + 0\n 36872: a0 = 0\n 36874: a2 = 0\n 36876: ecalli 13 // 'seal_return'\n 36878: jump @1373\n      : @1382 (gas: 11)\n 36881: a0 = u64 [s1 + 0x158]\n 36885: a0 = u32 [a0]\n 36887: a2 = s1 + 0x7ff\n 36891: a2 = a2 + 0xd9\n 36895: u64 [a2 + 1984] = 0\n 36899: u64 [a2 + 1976] = 0\n 36903: u64 [a2 + 0x7a8] = a0\n 36907: a0 = s1 + 0x10a0\n 36911: a1 = s1 + 0x1080\n 36915: u64 [a2 + 1968] = 0\n 36919: ra = 1506, jump @1501\n      : @1383 [@dyn 753] (gas: 40)\n 36925: a1 = s1 + 0x7ff\n 36929: a1 = a1 + 0xd9\n 36933: a0 = u64 [a1 + 0x7c8]\n 36937: u64 [s1 + 0x158] = a0\n 36941: a0 = u64 [a1 + 0x7d0]\n 36945: u64 [s1 + 0x150] = a0\n 36949: a0 = u64 [a1 + 0x7d8]\n 36953: u64 [s1 + 0x148] = a0\n 36957: ra = u64 [a1 + 0x7e0]\n 36961: t2 = u64 [a1 + 0x7e8]\n 36965: a0 = s1 + 0x10d8\n 36969: t1 = u64 [a0]\n 36971: t0 = u64 [a0 + 0x8]\n 36974: a4 = u64 [a0 + 0x10]\n 36977: a3 = u64 [a0 + 0x18]\n 36980: a2 = u64 [a0 + 0x20]\n 36983: a5 = u64 [a1 + 0x7f0]\n 36987: a0 = u64 [a1 + 0x7f8]\n 36991: u64 [a1 + 0x760] = a2\n 36995: a2 = a1 + 0x700\n 36999: u64 [a2 + 0x58] = a3\n 37002: u64 [a2 + 0x50] = a4\n 37005: u64 [a1 + 0x748] = t0\n 37009: u64 [a1 + 0x780] = t1\n 37013: u64 [a2 + 0x78] = a0\n 37016: u64 [a2 + 0x70] = a5\n 37019: u64 [a1 + 0x768] = t2\n 37023: u64 [a1 + 0x7a0] = ra\n 37027: a5 = s1 + 0x100\n 37031: a0 = u64 [a5 + 0x48]\n 37034: u64 [a2 + 0x98] = a0\n 37038: a0 = u64 [a5 + 0x50]\n 37041: u64 [a2 + 0x90] = a0\n 37045: a3 = a1\n 37047: a0 = s1 + 0x1060\n 37051: a1 = s1 + 0x1040\n 37055: a2 = s1 + 0x1020\n 37059: a4 = u64 [a5 + 0x58]\n 37062: u64 [a3 + 0x788] = a4\n 37066: ra = 1508, jump @1617\n      : @1384 [@dyn 754] (gas: 6)\n 37072: a1 = 0x20220\n 37077: i32 a1 = a1 + 0\n 37079: a0 = 0\n 37081: a2 = 0\n 37083: ecalli 13 // 'seal_return'\n 37085: jump @1373\n      : @1385 (gas: 6)\n 37088: a0 = 0xffffffff\n 37098: u64 [s1 + 0x120] = a0\n 37102: a0 = s1 + 0x660\n 37106: ra = 0x5e6\n 37110: t0 = 0x62e\n 37114: jump @2009\n      : @1386 [@dyn 755] (gas: 27)\n 37117: a0 = u64 [s1 + 0x670]\n 37121: u64 [s1 + 0xe0] = a0\n 37125: a0 = u64 [s1 + 0x668]\n 37129: u64 [s1 + 0xe8] = a0\n 37133: a0 = u64 [s1 + 0x660]\n 37137: u64 [s1 + 0xf0] = a0\n 37141: a0 = s1 + 0x3000\n 37145: i32 a0 = a0 + 0x340\n 37149: a1 = 0x24\n 37152: ecalli 3 // 'call_data_load'\n 37154: a0 = s1 + 0x30d8\n 37158: a5 = a0 + 0x200\n 37162: a4 = u64 [a5 + 0x80]\n 37166: a3 = u64 [a5 + 0x78]\n 37169: a1 = u64 [a5 + 0x70]\n 37172: a2 = u64 [a5 + 0x68]\n 37175: u64 [s1 + 0x128] = a4\n 37179: u64 [s1 + 0x638] = a4\n 37183: u64 [s1 + 0x130] = a3\n 37187: u64 [s1 + 0x630] = a3\n 37191: u64 [s1 + 0x138] = a1\n 37195: u64 [s1 + 0x628] = a1\n 37199: a0 = s1 + 0x640\n 37203: a1 = s1 + 0x620\n 37207: u64 [s1 + 0x140] = a2\n 37211: u64 [s1 + 0x620] = a2\n 37215: ra = 1512, jump @1823\n      : @1387 [@dyn 756] (gas: 13)\n 37221: a1 = s1 + 0x600\n 37225: a0 = u64 [a1 + 0x50]\n 37228: u64 [s1 + 0xf8] = a0\n 37232: a0 = u64 [a1 + 0x48]\n 37235: u64 [s1 + 0x158] = a0\n 37239: a0 = u64 [a1 + 0x40]\n 37242: u64 [s1 + 0x100] = a0\n 37246: a0 = 0x30220\n 37251: u64 [s1 + 0x150] = a0\n 37255: i32 a0 = a0 + 0\n 37257: u64 [s1 + 0x148] = a0\n 37261: ecalli 5 // 'caller'\n 37263: fallthrough\n      : @1388 (gas: 18)\n 37264: a3 = s1 + 0x100\n 37268: a2 = u64 [a3 + 0x50]\n 37271: a0 = u32 [a2 + 0x10]\n 37274: a1 = u64 [a2]\n 37276: a2 = u64 [a2 + 0x8]\n 37279: a0 = a0 | a1\n 37282: a0 = a0 | a2\n 37285: a1 = u64 [a3 + 0x20]\n 37288: a2 = u64 [s1 + 0xf8]\n 37292: a1 = a1 & a2\n 37295: u64 [a3 + 0x18] = a1\n 37298: a1 = u64 [a3 + 0x58]\n 37301: a1 = a1 & 0xffffffffffffffff\n 37304: u64 [a3 + 0x10] = a1\n 37307: a1 = u64 [a3]\n 37309: a1 = a1 & 0xffffffffffffffff\n 37312: u64 [a3 + 0x8] = a1\n 37315: jump @1408 if a0 == 0\n      : @1389 (gas: 4)\n 37319: a0 = u64 [s1 + 0x148]\n 37323: ra = 0x5ea\n 37327: ecalli 5 // 'caller'\n 37329: fallthrough\n      : @1390 [@dyn 757] (gas: 3)\n 37330: a5 = s1 + 0x100\n 37334: a2 = u64 [a5 + 0x50]\n 37337: t0 = 1516, jump @1913\n      : @1391 [@dyn 758] (gas: 11)\n 37343: a2 = u64 [s1 + 0xf8]\n 37347: a2 = a2 << 0x20\n 37350: a2 = a2 >> 0x20\n 37353: a1 = a1 ^ a2\n 37356: a2 = u64 [a5]\n 37358: a0 = a0 ^ a2\n 37361: a0 = a0 | a1\n 37364: a1 = u64 [a5 + 0x58]\n 37367: a1 = a1 ^ a3\n 37370: a0 = a0 | a1\n 37373: jump @1408 if a0 == 0\n      : @1392 (gas: 11)\n 37377: u64 [s1 + 1560] = 0\n 37381: a0 = u64 [s1 + 0x108]\n 37385: a2 = s1 + 0x600\n 37389: u64 [a2] = a0\n 37391: a0 = u64 [s1 + 0x110]\n 37395: u64 [a2 + 0x8] = a0\n 37398: a1 = s1 + 0x600\n 37402: a0 = u64 [s1 + 0x118]\n 37406: u64 [a2 + 0x10] = a0\n 37409: a0 = 0\n 37411: ra = 1518, jump @19\n      : @1393 [@dyn 759] (gas: 7)\n 37418: u64 [s1 + 1528] = 0\n 37422: u64 [s1 + 1520] = 0\n 37426: u64 [s1 + 1504] = 0x5\n 37431: a0 = 0x20\n 37434: a1 = s1 + 0x5e0\n 37438: u64 [s1 + 1512] = 0\n 37442: ra = 1520, jump @19\n      : @1394 [@dyn 760] (gas: 4)\n 37449: a0 = 0x2020c\n 37454: u64 [s1 + 0x158] = a0\n 37458: a0 = i32 [0x2020c]\n 37463: jump @1396 if a0 >u 63\n      : @1395 (gas: 3)\n 37467: a1 = u64 [s1 + 0x158]\n 37471: u32 [a1 + 0] = 0x40\n 37474: fallthrough\n      : @1396 (gas: 14)\n 37475: a0 = sp + 0xffffffffffffffe0\n 37478: a2 = a0 & 0xffffffffffffffe0\n 37481: u64 [s1 + 0xf8] = a2\n 37485: sp = a2\n 37487: a0 = 0x20220\n 37492: i32 a0 = a0 + 0\n 37494: i32 a2 = a2 + 0\n 37496: a1 = 0x40\n 37499: u64 [s1 + 0x100] = a0\n 37503: ra = 0x5f2\n 37507: ecalli 9 // 'hash_keccak_256'\n 37509: a3 = u64 [s1 + 0xf8]\n 37513: t0 = 0x5f4\n 37517: jump @2019\n      : @1397 [@dyn 761] (gas: 2)\n 37520: a3 = u64 [s1 + 0xf8]\n 37524: t0 = 1524, jump @2019\n      : @1398 [@dyn 762] (gas: 17)\n 37530: u64 [s1 + 0xd8] = a0\n 37534: a0 = reverse a1\n 37536: u64 [s1 + 0xd0] = a0\n 37540: a0 = reverse a2\n 37542: u64 [s1 + 0xc8] = a0\n 37546: a0 = reverse a3\n 37548: u64 [s1 + 0xc0] = a0\n 37552: a0 = sp + 0xffffffffffffffe0\n 37555: a0 = a0 & 0xffffffffffffffe0\n 37558: u64 [s1 + 0xf8] = a0\n 37562: sp = a0\n 37564: a0 = u64 [s1 + 0x148]\n 37568: ra = 0x5f6\n 37572: ecalli 5 // 'caller'\n 37574: a2 = u64 [s1 + 0x150]\n 37578: t0 = 0x5f8\n 37582: jump @1914\n      : @1399 [@dyn 763] (gas: 2)\n 37585: a2 = u64 [s1 + 0x150]\n 37589: t0 = 1528, jump @1914\n      : @1400 [@dyn 764] (gas: 7)\n 37595: u64 [s1 + 1496] = 0\n 37599: u64 [s1 + 0x5d0] = a1\n 37603: u64 [s1 + 0x5c8] = a0\n 37607: a1 = s1 + 0x5c0\n 37611: u64 [s1 + 0x5c0] = a3\n 37615: a0 = 0\n 37617: ra = 1530, jump @19\n      : @1401 [@dyn 765] (gas: 12)\n 37624: a0 = u64 [s1 + 0xc0]\n 37628: a3 = s1 + 0x500\n 37632: u64 [a3 + 0xb8] = a0\n 37636: a0 = u64 [s1 + 0xc8]\n 37640: u64 [a3 + 0xb0] = a0\n 37644: a0 = u64 [s1 + 0xd0]\n 37648: u64 [a3 + 0xa8] = a0\n 37652: a0 = 0x20\n 37655: a1 = s1 + 0x5a0\n 37659: a2 = u64 [s1 + 0xd8]\n 37663: u64 [a3 + 0xa0] = a2\n 37667: ra = 1532, jump @19\n      : @1402 [@dyn 766] (gas: 3)\n 37674: a0 = u64 [s1 + 0x158]\n 37678: a0 = i32 [a0]\n 37680: jump @1404 if a0 >u 63\n      : @1403 (gas: 3)\n 37684: a0 = u64 [s1 + 0x158]\n 37688: u32 [a0 + 0] = 0x40\n 37691: fallthrough\n      : @1404 (gas: 12)\n 37692: a0 = sp + 0xffffffffffffffe0\n 37695: a0 = a0 & 0xffffffffffffffe0\n 37698: u64 [s1 + 0xd8] = a0\n 37702: sp = a0\n 37704: i32 a2 = a0 + 0\n 37706: a1 = 0x40\n 37709: a0 = u64 [s1 + 0x100]\n 37713: ra = 0x5fe\n 37717: ecalli 9 // 'hash_keccak_256'\n 37719: a3 = u64 [s1 + 0xd8]\n 37723: t0 = 0x600\n 37727: jump @1921\n      : @1405 [@dyn 767] (gas: 2)\n 37730: a3 = u64 [s1 + 0xd8]\n 37734: t0 = 1536, jump @1921\n      : @1406 [@dyn 768] (gas: 7)\n 37740: a1 = u64 [s1 + 0xf8]\n 37744: u64 [a1 + 0x18] = a3\n 37747: u64 [a1 + 0x10] = a2\n 37750: u64 [a1 + 0x8] = a4\n 37753: u64 [a1] = a0\n 37755: a0 = s1 + 0x580\n 37759: ra = 1538, jump @21\n      : @1407 [@dyn 769] (gas: 2)\n 37766: a0 = u8 [s1 + 0x580]\n 37770: jump @1428 if a0 == 0\n      : @1408 (gas: 45)\n 37774: a0 = u64 [s1 + 0x120]\n 37778: a1 = u64 [s1 + 0xe0]\n 37782: a5 = a1 & a0\n 37785: a1 = u64 [s1 + 0xe8]\n 37789: a4 = a1 & 0xffffffffffffffff\n 37792: a1 = u64 [s1 + 0xf0]\n 37796: a0 = a1 & 0xffffffffffffffff\n 37799: a1 = u64 [s1 + 0x140]\n 37803: u64 [s1 + 0x4c0] = a1\n 37807: u64 [s1 + 1272] = 0\n 37811: u64 [s1 + 1304] = 0\n 37815: a1 = u64 [s1 + 0x138]\n 37819: u64 [s1 + 0x4c8] = a1\n 37823: u64 [s1 + 0x150] = a0\n 37827: u64 [s1 + 0x4e0] = a0\n 37831: a0 = u64 [s1 + 0x108]\n 37835: u64 [s1 + 0x500] = a0\n 37839: a0 = u64 [0x20188]\n 37844: a1 = u64 [0x20190]\n 37849: a2 = u64 [0x20198]\n 37854: a3 = u64 [0x201a0]\n 37859: u64 [s1 + 0x538] = a0\n 37863: u64 [s1 + 0x530] = a1\n 37867: a1 = s1 + 0x500\n 37871: u64 [a1 + 0x28] = a2\n 37874: u64 [a1 + 0x20] = a3\n 37877: a0 = u64 [s1 + 0x130]\n 37881: u64 [s1 + 0x4d0] = a0\n 37885: u64 [s1 + 0x148] = a4\n 37889: u64 [s1 + 0x4e8] = a4\n 37893: a0 = u64 [s1 + 0x110]\n 37897: u64 [a1 + 0x8] = a0\n 37900: a0 = u64 [s1 + 0x128]\n 37904: u64 [s1 + 0x4d8] = a0\n 37908: u64 [s1 + 0x120] = a5\n 37912: u64 [s1 + 0x4f0] = a5\n 37916: a2 = s1 + 0x520\n 37920: a3 = s1 + 0x500\n 37924: a4 = s1 + 0x4e0\n 37928: a5 = s1 + 0x4c0\n 37932: a0 = u64 [s1 + 0x118]\n 37936: u64 [a1 + 0x10] = a0\n 37939: a0 = 0\n 37941: a1 = 0\n 37943: ra = 1540, jump @31\n      : @1409 [@dyn 770] (gas: 11)\n 37950: a0 = u64 [s1 + 0x128]\n 37954: u64 [s1 + 0x4b8] = a0\n 37958: a0 = u64 [s1 + 0x130]\n 37962: u64 [s1 + 0x4b0] = a0\n 37966: a0 = u64 [s1 + 0x138]\n 37970: u64 [s1 + 0x4a8] = a0\n 37974: a1 = s1 + 0x4a0\n 37978: a0 = u64 [s1 + 0x140]\n 37982: u64 [s1 + 0x4a0] = a0\n 37986: a0 = 0\n 37988: ra = 1542, jump @19\n      : @1410 [@dyn 771] (gas: 7)\n 37995: u64 [s1 + 1176] = 0\n 37999: u64 [s1 + 1168] = 0\n 38003: u64 [s1 + 1152] = 0x4\n 38008: a0 = 0x20\n 38011: a1 = s1 + 0x480\n 38015: u64 [s1 + 1160] = 0\n 38019: ra = 1544, jump @19\n      : @1411 [@dyn 772] (gas: 6)\n 38026: a0 = sp + 0xffffffffffffffe0\n 38029: a0 = a0 & 0xffffffffffffffe0\n 38032: u64 [s1 + 0x158] = a0\n 38036: sp = a0\n 38038: a1 = i32 [0x2020c]\n 38043: jump @1413 if a1 >u 63\n      : @1412 (gas: 2)\n 38047: u32 [0x2020c] = 0x40\n 38053: fallthrough\n      : @1413 (gas: 14)\n 38054: a0 = sp + 0xffffffffffffffe0\n 38057: a2 = a0 & 0xffffffffffffffe0\n 38060: u64 [s1 + 0x138] = a2\n 38064: sp = a2\n 38066: a0 = 0x20220\n 38071: i32 a0 = a0 + 0\n 38073: u64 [s1 + 0x140] = a0\n 38077: i32 a2 = a2 + 0\n 38079: a1 = 0x40\n 38082: ra = 0x60a\n 38086: ecalli 9 // 'hash_keccak_256'\n 38088: a3 = u64 [s1 + 0x138]\n 38092: t0 = 0x60c\n 38096: jump @1921\n      : @1414 [@dyn 773] (gas: 2)\n 38099: a3 = u64 [s1 + 0x138]\n 38103: t0 = 1548, jump @1921\n      : @1415 [@dyn 774] (gas: 7)\n 38109: a1 = u64 [s1 + 0x158]\n 38113: u64 [a1 + 0x18] = a3\n 38116: u64 [a1 + 0x10] = a2\n 38119: u64 [a1 + 0x8] = a4\n 38122: u64 [a1] = a0\n 38124: a0 = s1 + 0x460\n 38128: ra = 1550, jump @21\n      : @1416 [@dyn 775] (gas: 16)\n 38135: a0 = u32 [s1 + 0x474]\n 38139: a0 = a0 << 0x20\n 38142: a1 = u64 [s1 + 0x478]\n 38146: a2 = u64 [s1 + 0x120]\n 38150: a0 = a0 | a2\n 38153: a2 = s1 + 0x30d8\n 38157: a3 = u64 [s1 + 0x148]\n 38161: a4 = a2 + 0x200\n 38165: u64 [a4 + 0x90] = a3\n 38169: a3 = u64 [s1 + 0x150]\n 38173: u64 [a4 + 0x88] = a3\n 38177: u64 [a4 + 0xa0] = a1\n 38181: u64 [a4 + 0x98] = a0\n 38185: a1 = s1 + 0x3360\n 38189: a0 = u64 [s1 + 0x158]\n 38193: ra = 1552, jump @23\n      : @1417 [@dyn 776] (gas: 5)\n 38200: a0 = 0\n 38202: a1 = u64 [s1 + 0x140]\n 38206: a2 = 0\n 38208: ecalli 13 // 'seal_return'\n 38210: jump @1373\n      : @1418 (gas: 6)\n 38213: a0 = 0x80ac58cd00000000\n 38223: a0 = a0 ^ a1\n 38226: a0 = a0 | a2\n 38229: a4 = a3 | a0\n 38232: a0 = 0x1\n 38235: jump @1423 if a4 == 0\n      : @1419 (gas: 5)\n 38238: a4 = 0x1ffc9a700000000\n 38248: a4 = a4 ^ a1\n 38251: a4 = a4 | a2\n 38254: a4 = a4 | a3\n 38257: jump @1423 if a4 == 0\n      : @1420 (gas: 5)\n 38260: a4 = 0x5b5e139f00000000\n 38270: a4 = a4 ^ a1\n 38273: a4 = a4 | a2\n 38276: a4 = a4 | a3\n 38279: jump @1423 if a4 == 0\n      : @1421 (gas: 5)\n 38282: a4 = 0x4906490600000000\n 38292: a1 = a1 ^ a4\n 38295: a1 = a1 | a2\n 38298: a1 = a1 | a3\n 38301: jump @1423 if a1 == 0\n      : @1422 (gas: 2)\n 38304: a0 = 0\n 38306: fallthrough\n      : @1423 (gas: 7)\n 38307: u64 [s1 + 376] = 0\n 38311: u64 [s1 + 368] = 0\n 38315: u64 [s1 + 0x160] = a0\n 38319: a0 = 0x80\n 38323: a1 = s1 + 0x160\n 38327: u64 [s1 + 360] = 0\n 38331: ra = 1554, jump @19\n      : @1424 [@dyn 777] (gas: 2)\n 38338: a1 = i32 [0x2020c]\n 38343: jump @1426 if a1 >u 159\n      : @1425 (gas: 7)\n 38348: u32 [0x2020c] = 0xa0\n 38355: a0 = 0x20220\n 38360: i32 a1 = a0 + 0x80\n 38364: a2 = 0x20\n 38367: a0 = 0\n 38369: ecalli 13 // 'seal_return'\n 38371: jump @1213\n      : @1426 (gas: 6)\n 38374: a0 = 0x20220\n 38379: i32 a1 = a0 + 0x80\n 38383: a2 = 0x20\n 38386: a0 = 0\n 38388: ecalli 13 // 'seal_return'\n 38390: jump @1213\n      : @1427 (gas: 2)\n 38393: a1 = 0x20220\n 38398: jump @1372\n      : @1428 (gas: 8)\n 38401: u64 [s1 + 1392] = 0\n 38405: u64 [s1 + 1384] = 0\n 38409: u64 [s1 + 1376] = 0\n 38413: a0 = 0xa9fbf51f00000000\n 38423: a1 = s1 + 0x560\n 38427: u64 [s1 + 0x578] = a0\n 38431: a0 = 0\n 38433: ra = 1556, jump @19\n      : @1429 [@dyn 778] (gas: 6)\n 38440: a0 = u64 [s1 + 0x148]\n 38444: ra = 0x616\n 38448: ecalli 5 // 'caller'\n 38450: a2 = u64 [s1 + 0x150]\n 38454: t0 = 0x618\n 38458: jump @1914\n      : @1430 [@dyn 779] (gas: 2)\n 38461: a2 = u64 [s1 + 0x150]\n 38465: t0 = 1560, jump @1914\n      : @1431 [@dyn 780] (gas: 8)\n 38471: u64 [s1 + 1368] = 0\n 38475: a2 = s1 + 0x500\n 38479: u64 [a2 + 0x50] = a1\n 38482: u64 [a2 + 0x48] = a0\n 38485: a0 = 0x4\n 38488: a1 = s1 + 0x540\n 38492: u64 [a2 + 0x40] = a3\n 38495: ra = 1562, jump @19\n      : @1432 [@dyn 781] (gas: 3)\n 38502: a0 = u64 [s1 + 0x158]\n 38506: a0 = i32 [a0]\n 38508: jump @1434 if a0 >u 63\n      : @1433 (gas: 3)\n 38512: a1 = u64 [s1 + 0x158]\n 38516: u32 [a1 + 0] = 0x40\n 38519: fallthrough\n      : @1434 (gas: 6)\n 38520: a0 = 0x1\n 38523: a2 = 0x24\n 38526: a1 = u64 [s1 + 0x100]\n 38530: ra = 0x61c\n 38534: ecalli 13 // 'seal_return'\n 38536: fallthrough\n      : @1435 [@dyn 782] (gas: 21)\n 38537: sp = sp + 0xffffffffffffff10\n 38541: u64 [sp + 0xe8] = ra\n 38545: u64 [sp + 0xe0] = s0\n 38549: u64 [sp + 0xd8] = s1\n 38553: s0 = sp + 0xf0\n 38557: sp = sp & 0xfffffffffffffff0\n 38560: a5 = u64 [a1 + 0x10]\n 38563: a4 = u64 [a1 + 0x18]\n 38566: a3 = u64 [a1 + 0x8]\n 38569: a1 = u64 [a1]\n 38571: u64 [sp + 0x28] = a3\n 38574: u64 [sp + 0x18] = a4\n 38577: a4 = a4 | a3\n 38580: a3 = a1 | a5\n 38583: a3 = a3 | a4\n 38586: a3 = a3 >> 0x20\n 38589: u64 [sp + 0x20] = a5\n 38592: a4 = a4 | a5\n 38595: a4 = a4 << 0x20\n 38598: a3 = a3 | a4\n 38601: jump @1450 if a3 != 0\n      : @1436 (gas: 11)\n 38605: u64 [sp + 0x8] = a0\n 38608: a0 = u64 [a2 + 0x18]\n 38611: u64 [sp + 0x68] = a0\n 38614: s1 = u64 [a2 + 0x10]\n 38617: a0 = u64 [a2 + 0x8]\n 38620: u64 [sp + 0x60] = a0\n 38623: a0 = u64 [a2]\n 38625: u64 [sp + 0x58] = a0\n 38628: a0 = sp + 0xb0\n 38632: u64 [sp + 0x10] = a1\n 38635: ra = 1566, jump @17\n      : @1437 [@dyn 783] (gas: 12)\n 38642: a0 = u64 [sp + 0x58]\n 38645: a2 = a0 | s1\n 38648: a1 = u64 [sp + 0x68]\n 38651: a3 = u64 [sp + 0x60]\n 38654: a1 = a1 | a3\n 38657: a2 = a2 | a1\n 38660: a2 = a2 >> 0x20\n 38663: u64 [sp + 0x50] = s1\n 38666: a1 = a1 | s1\n 38669: a1 = a1 << 0x20\n 38672: a1 = a1 | a2\n 38675: jump @1450 if a1 != 0\n      : @1438 (gas: 15)\n 38679: a2 = u64 [sp + 0xc8]\n 38683: a3 = u64 [sp + 0xc0]\n 38687: a4 = u64 [sp + 0xb8]\n 38691: a1 = u64 [sp + 0xb0]\n 38695: u64 [sp + 0x30] = a1\n 38698: u64 [sp + 0x90] = a1\n 38702: u64 [sp + 0x38] = a4\n 38705: u64 [sp + 0x98] = a4\n 38709: u64 [sp + 0x40] = a3\n 38712: u64 [sp + 0xa0] = a3\n 38716: a1 = sp + 0x90\n 38720: u64 [sp + 0x48] = a2\n 38723: u64 [sp + 0xa8] = a2\n 38727: s1 = a0\n 38729: ra = 1568, jump @19\n      : @1439 [@dyn 784] (gas: 9)\n 38736: a0 = u64 [sp + 0x68]\n 38739: a1 = u64 [sp + 0x50]\n 38742: a1 = a1 | a0\n 38745: a0 = 0xffffffe0\n 38755: a2 = s1 <u a0\n 38758: a3 = u64 [sp + 0x60]\n 38761: a2 = 0 if a3 != 0\n 38763: a2 = 0 if a1 != 0\n 38765: jump @1450 if a2 == 0\n      : @1440 (gas: 9)\n 38769: a1 = u64 [sp + 0x20]\n 38772: a2 = u64 [sp + 0x18]\n 38775: a1 = a1 | a2\n 38778: a2 = u64 [sp + 0x10]\n 38781: a0 = a2 <u a0\n 38784: a3 = u64 [sp + 0x28]\n 38787: a0 = 0 if a3 != 0\n 38789: a0 = 0 if a1 != 0\n 38791: jump @1450 if a0 == 0\n      : @1441 (gas: 13)\n 38795: a5 = s1\n 38797: s1 = u64 [sp + 0x30]\n 38800: a3 = u64 [sp + 0x40]\n 38803: a0 = s1 | a3\n 38806: a1 = u64 [sp + 0x48]\n 38809: a4 = u64 [sp + 0x38]\n 38812: a1 = a1 | a4\n 38815: a0 = a0 | a1\n 38818: a0 = a0 >> 0x20\n 38821: a1 = a1 | a3\n 38824: a1 = a1 << 0x20\n 38827: a0 = a0 | a1\n 38830: jump @1450 if a0 != 0\n      : @1442 (gas: 5)\n 38834: i32 a0 = a5 + 0x20\n 38837: i32 a1 = a2 + 0x20\n 38840: u64 [sp + 0x28] = a1\n 38843: a1 = s1\n 38845: ra = 1570, jump @34\n      : @1443 [@dyn 785] (gas: 4)\n 38852: u64 [sp + 0x20] = a0\n 38855: a0 = u64 [sp + 0x28]\n 38858: a1 = s1\n 38860: ra = 1572, jump @34\n      : @1444 [@dyn 786] (gas: 4)\n 38867: a1 = a0\n 38869: a0 = u64 [sp + 0x20]\n 38872: a2 = s1\n 38874: ra = 1574, jump @0\n      : @1445 [@dyn 787] (gas: 6)\n 38881: a0 = u64 [sp + 0x58]\n 38884: a0 = a0 + s1\n 38887: a1 = a0 <u s1\n 38890: a2 = u64 [sp + 0x60]\n 38893: a4 = u64 [sp + 0x38]\n 38896: t0 = 1576, jump @1984\n      : @1446 [@dyn 788] (gas: 17)\n 38902: a1 = u64 [sp + 0x50]\n 38905: a3 = u64 [sp + 0x40]\n 38908: a1 = a1 + a3\n 38911: a3 = a1 <u a3\n 38914: a5 = u64 [sp + 0x68]\n 38917: s1 = u64 [sp + 0x48]\n 38920: a5 = a5 + s1\n 38923: a3 = a3 + a5\n 38926: a4 = a4 + a1\n 38929: a1 = a4 <u a1\n 38932: a1 = a1 + a3\n 38935: a1 = a1 | a4\n 38938: a3 = 0xffffffe0\n 38948: a3 = a0 <u a3\n 38951: a3 = 0 if a2 != 0\n 38953: a3 = 0 if a1 != 0\n 38955: jump @1450 if a3 == 0\n      : @1447 (gas: 7)\n 38959: i32 a0 = a0 + 0x20\n 38962: u64 [sp + 136] = 0\n 38966: u64 [sp + 128] = 0\n 38970: u64 [sp + 120] = 0\n 38973: a1 = sp + 0x70\n 38976: u64 [sp + 112] = 0\n 38979: ra = 1578, jump @19\n      : @1448 [@dyn 789] (gas: 9)\n 38986: s1 = u64 [sp + 0x30]\n 38989: s1 = s1 + 0x1f\n 38992: a0 = 0x1ffffffe0\n 39002: a0 = a0 & s1\n 39005: a1 = u64 [sp + 0x58]\n 39008: a0 = a0 + a1\n 39011: a1 = a0 <u a1\n 39014: a3 = u64 [sp + 0x60]\n 39017: t0 = 1580, jump @1991\n      : @1449 [@dyn 790] (gas: 24)\n 39023: a1 = u64 [sp + 0x50]\n 39026: a3 = a3 + a1\n 39029: a1 = a3 <u a1\n 39032: a4 = u64 [sp + 0x68]\n 39035: a1 = a1 + a4\n 39038: a4 = a0 + 0x20\n 39041: a0 = a4 <u a0\n 39044: a5 = a2 + a0\n 39047: a2 = a5 <u a2\n 39050: a2 = a0 if a0 == 0\n 39053: a2 = a2 + a3\n 39056: a0 = a2 <u a3\n 39059: a0 = a0 + a1\n 39062: a1 = u64 [sp + 0x8]\n 39065: u64 [a1] = a4\n 39067: u64 [a1 + 0x8] = a5\n 39070: u64 [a1 + 0x10] = a2\n 39073: u64 [a1 + 0x18] = a0\n 39076: sp = s0 + 0xffffffffffffff10\n 39080: ra = u64 [sp + 0xe8]\n 39084: s0 = u64 [sp + 0xe0]\n 39088: s1 = u64 [sp + 0xd8]\n 39092: sp = sp + 0xf0\n 39096: ret\n      : @1450 (gas: 1)\n 39098: trap\n      : @1451 [@dyn 791] (gas: 5)\n 39099: a1 = 0x4\n 39102: ra = 0x630\n 39106: ecalli 3 // 'call_data_load'\n 39108: t0 = 0x632\n 39112: jump @1973\n      : @1452 [@dyn 792] (gas: 1)\n 39115: t0 = 1586, jump @1973\n      : @1453 [@dyn 793] (gas: 1)\n 39121: jump @1456 if a3 == 0\n      : @1454 (gas: 1)\n 39124: t0 = 1588, jump @1989\n      : @1455 [@dyn 794] (gas: 1)\n 39130: ret\n      : @1456 (gas: 8)\n 39132: a1 = 0x20220\n 39137: i32 a1 = a1 + 0\n 39139: a0 = 0x1\n 39142: a2 = 0\n 39144: ra = 0x636\n 39148: ecalli 13 // 'seal_return'\n 39150: t0 = 0x638\n 39154: jump @2009\n      : @1457 [@dyn 795] (gas: 1)\n 39157: t0 = 1592, jump @2009\n      : @1458 [@dyn 796] (gas: 5)\n 39163: a1 = 0x24\n 39166: ra = 0x63a\n 39170: ecalli 3 // 'call_data_load'\n 39172: t0 = 0x63c\n 39176: jump @1973\n      : @1459 [@dyn 797] (gas: 1)\n 39179: t0 = 1596, jump @1973\n      : @1460 [@dyn 798] (gas: 1)\n 39185: jump @1463 if a3 == 0\n      : @1461 (gas: 1)\n 39188: t0 = 1598, jump @1989\n      : @1462 [@dyn 799] (gas: 1)\n 39194: ret\n      : @1463 (gas: 7)\n 39196: a1 = 0x20220\n 39201: i32 a1 = a1 + 0\n 39203: a0 = 0x1\n 39206: a2 = 0\n 39208: ra = 0x640\n 39212: ecalli 13 // 'seal_return'\n 39214: fallthrough\n      : @1464 [@dyn 800] (gas: 23)\n 39215: sp = sp + 0xfffffffffffffd50\n 39219: a3 = sp + 0x200\n 39223: u64 [a3 + 0xa8] = ra\n 39227: u64 [a3 + 0xa0] = s0\n 39231: u64 [a3 + 0x98] = s1\n 39235: s0 = sp + 0x2b0\n 39239: sp = sp & 0xfffffffffffffff0\n 39242: a3 = u64 [a1 + 0x18]\n 39245: a4 = u64 [a1 + 0x10]\n 39248: a5 = u64 [a1 + 0x8]\n 39251: t0 = u64 [a1]\n 39253: u64 [sp + 0xb8] = a3\n 39257: u64 [sp + 0xa8] = a5\n 39261: a1 = a5 | a3\n 39264: a3 = t0 | a4\n 39267: a3 = a3 | a1\n 39270: a3 = a3 >> 0x20\n 39273: u64 [sp + 0xb0] = a4\n 39277: a1 = a1 | a4\n 39280: a1 = a1 << 0x20\n 39283: a1 = a1 | a3\n 39286: u64 [sp + 0x8] = a0\n 39289: jump @1500 if a1 != 0\n      : @1465 (gas: 16)\n 39293: a0 = u64 [a2 + 0x18]\n 39296: u64 [sp + 0x88] = a0\n 39300: s1 = u64 [a2 + 0x10]\n 39303: a0 = u64 [a2 + 0x8]\n 39306: u64 [sp + 0x80] = a0\n 39310: a0 = u64 [a2]\n 39312: u64 [sp + 0x68] = a0\n 39315: a2 = sp + 0x200\n 39319: u64 [a2 + 136] = 0\n 39323: u64 [a2 + 128] = 0\n 39327: u64 [a2 + 120] = 0\n 39330: a1 = sp + 0x270\n 39334: u64 [a2 + 112] = 0x20\n 39338: u64 [sp + 0xc0] = t0\n 39342: a0 = t0\n 39344: ra = 1602, jump @19\n      : @1466 [@dyn 801] (gas: 12)\n 39351: a1 = u64 [sp + 0x68]\n 39354: a0 = a1 | s1\n 39357: a2 = u64 [sp + 0x88]\n 39361: a3 = u64 [sp + 0x80]\n 39365: a2 = a2 | a3\n 39368: a0 = a0 | a2\n 39371: a0 = a0 >> 0x20\n 39374: u64 [sp + 0x60] = s1\n 39377: a2 = a2 | s1\n 39380: a2 = a2 << 0x20\n 39383: a0 = a0 | a2\n 39386: jump @1500 if a0 != 0\n      : @1467 (gas: 17)\n 39390: a0 = u64 [sp + 0xc0]\n 39394: a2 = a0 + 0x20\n 39397: u64 [sp + 0xa0] = a2\n 39401: a0 = a2 <u a0\n 39404: a2 = u64 [sp + 0xa8]\n 39408: a3 = a2 + a0\n 39411: u64 [sp + 0xc8] = a3\n 39415: s1 = a3 <u a2\n 39418: s1 = a0 if a0 == 0\n 39421: a0 = u64 [sp + 0xb0]\n 39425: s1 = s1 + a0\n 39428: a0 = s1 <u a0\n 39431: a2 = u64 [sp + 0xb8]\n 39435: a0 = a0 + a2\n 39438: u64 [sp + 0x98] = a0\n 39442: a0 = sp + 0x250\n 39446: ra = 1604, jump @17\n      : @1468 [@dyn 802] (gas: 11)\n 39453: a0 = u64 [sp + 0xa0]\n 39457: a2 = a0 | s1\n 39460: a1 = u64 [sp + 0xc8]\n 39464: a3 = u64 [sp + 0x98]\n 39468: a1 = a1 | a3\n 39471: a2 = a2 | a1\n 39474: a2 = a2 >> 0x20\n 39477: a1 = a1 | s1\n 39480: a1 = a1 << 0x20\n 39483: a1 = a1 | a2\n 39486: jump @1500 if a1 != 0\n      : @1469 (gas: 17)\n 39490: s1 = sp + 0x200\n 39494: a5 = u64 [s1 + 0x68]\n 39497: a1 = u64 [s1 + 0x60]\n 39500: a2 = u64 [s1 + 0x58]\n 39503: a3 = u64 [s1 + 0x50]\n 39506: a4 = 0xffffffff\n 39516: u64 [sp + 0x50] = a4\n 39519: u64 [sp + 0x10] = a3\n 39522: u64 [s1 + 0x30] = a3\n 39525: u64 [sp + 0x18] = a2\n 39528: u64 [s1 + 0x38] = a2\n 39531: u64 [sp + 0x20] = a1\n 39534: u64 [s1 + 0x40] = a1\n 39537: a1 = sp + 0x230\n 39541: u64 [sp + 0x28] = a5\n 39544: u64 [s1 + 0x48] = a5\n 39547: ra = 1606, jump @19\n      : @1470 [@dyn 803] (gas: 27)\n 39554: t2 = 0\n 39556: s1 = 0\n 39558: a3 = 0\n 39560: ra = 0\n 39562: a1 = u64 [sp + 0xc0]\n 39566: a0 = a1 + 0x40\n 39569: u64 [sp + 0xc8] = a0\n 39573: a0 = a0 <u a1\n 39576: a2 = u64 [sp + 0xa8]\n 39580: a1 = a2 + a0\n 39583: u64 [sp + 0xc0] = a1\n 39587: a1 = a1 <u a2\n 39590: a1 = a0 if a0 == 0\n 39593: a0 = u64 [sp + 0xb0]\n 39597: a1 = a1 + a0\n 39600: u64 [sp + 0xa0] = a1\n 39604: a0 = a1 <u a0\n 39607: a1 = u64 [sp + 0xb8]\n 39611: a0 = a0 + a1\n 39614: u64 [sp + 0xa8] = a0\n 39618: a0 = 0x100000000\n 39628: u64 [sp + 0x78] = a0\n 39631: a0 = 0xffffffe0\n 39641: u64 [sp + 0x58] = a0\n 39644: t1 = u64 [sp + 0x60]\n 39647: a4 = u64 [sp + 0x68]\n 39650: fallthrough\n      : @1471 (gas: 18)\n 39651: a0 = u64 [sp + 0x10]\n 39654: a0 = t2 <u a0\n 39657: a2 = u64 [sp + 0x18]\n 39660: a1 = s1 ^ a2\n 39663: a2 = s1 <u a2\n 39666: a2 = a0 if a1 == 0\n 39669: a5 = u64 [sp + 0x20]\n 39672: t0 = a3 <u a5\n 39675: a0 = a3\n 39677: a3 = u64 [sp + 0x28]\n 39680: a1 = ra ^ a3\n 39683: a3 = ra <u a3\n 39686: a3 = t0 if a1 == 0\n 39689: u64 [sp + 0x48] = a0\n 39692: a0 = a0 ^ a5\n 39695: a0 = a0 | a1\n 39698: a3 = a2 if a0 == 0\n 39701: jump @1499 if a3 == 0\n      : @1472 (gas: 12)\n 39705: u64 [sp + 0x30] = ra\n 39708: u64 [sp + 0x38] = s1\n 39711: u64 [sp + 0x40] = t2\n 39714: a0 = u64 [sp + 0x88]\n 39718: u64 [sp + 0x60] = t1\n 39721: a0 = t1 | a0\n 39724: a1 = u64 [sp + 0x58]\n 39727: a1 = a4 <u a1\n 39730: a2 = u64 [sp + 0x80]\n 39734: a1 = 0 if a2 != 0\n 39736: a1 = 0 if a0 != 0\n 39738: jump @1500 if a1 == 0\n      : @1473 (gas: 5)\n 39742: u64 [sp + 0x68] = a4\n 39745: a1 = a4 + 0x20\n 39748: a0 = sp + 0x210\n 39752: u64 [sp + 0x70] = a1\n 39755: ra = 1608, jump @17\n      : @1474 [@dyn 804] (gas: 15)\n 39762: a3 = sp + 0x200\n 39766: a2 = u64 [a3 + 0x28]\n 39769: s1 = u64 [a3 + 0x20]\n 39772: a0 = u64 [a3 + 0x18]\n 39775: a1 = u64 [a3 + 0x10]\n 39778: u64 [sp + 0xb8] = a0\n 39782: u64 [sp + 0x98] = a2\n 39786: a0 = a0 | a2\n 39789: a2 = a1 | s1\n 39792: a2 = a2 | a0\n 39795: a2 = a2 >> 0x20\n 39798: a0 = a0 | s1\n 39801: a0 = a0 << 0x20\n 39804: a0 = a0 | a2\n 39807: jump @1500 if a0 != 0\n      : @1475 (gas: 3)\n 39811: a0 = sp + 0x1f0\n 39815: u64 [sp + 0xb0] = a1\n 39819: ra = 1610, jump @17\n      : @1476 [@dyn 805] (gas: 12)\n 39826: a2 = u64 [sp + 0xa0]\n 39830: a0 = u64 [sp + 0xc8]\n 39834: a3 = a0 | a2\n 39837: a1 = u64 [sp + 0xa8]\n 39841: a4 = u64 [sp + 0xc0]\n 39845: a1 = a1 | a4\n 39848: a3 = a3 | a1\n 39851: a3 = a3 >> 0x20\n 39854: a1 = a1 | a2\n 39857: a1 = a1 << 0x20\n 39860: a1 = a1 | a3\n 39863: jump @1500 if a1 != 0\n      : @1477 (gas: 11)\n 39867: a4 = u64 [sp + 0x208]\n 39871: a1 = u64 [sp + 0x200]\n 39875: a2 = u64 [sp + 0x1f8]\n 39879: a3 = u64 [sp + 0x1f0]\n 39883: u64 [sp + 0x1d0] = a3\n 39887: u64 [sp + 0x1d8] = a2\n 39891: u64 [sp + 0x1e0] = a1\n 39895: a1 = sp + 0x1d0\n 39899: u64 [sp + 0x1e8] = a4\n 39903: u64 [sp + 0xc8] = a0\n 39907: ra = 1612, jump @19\n      : @1478 [@dyn 806] (gas: 10)\n 39914: a3 = u64 [sp + 0x98]\n 39918: a3 = a3 | s1\n 39921: s1 = u64 [sp + 0x58]\n 39924: a1 = u64 [sp + 0xb0]\n 39928: a0 = a1 <u s1\n 39931: a2 = u64 [sp + 0xb8]\n 39935: a0 = 0 if a2 != 0\n 39937: u64 [sp + 0x98] = a3\n 39941: a0 = 0 if a3 != 0\n 39943: jump @1500 if a0 == 0\n      : @1479 (gas: 3)\n 39947: i32 a1 = a1 + 0x20\n 39950: a0 = sp + 0x1b0\n 39954: ra = 1614, jump @17\n      : @1480 [@dyn 807] (gas: 10)\n 39961: a0 = u64 [sp + 0xa8]\n 39965: a1 = u64 [sp + 0xa0]\n 39969: a2 = a1 | a0\n 39972: a4 = u64 [sp + 0xc8]\n 39976: a0 = a4 <u s1\n 39979: a1 = u64 [sp + 0xc0]\n 39983: a0 = 0 if a1 != 0\n 39985: u64 [sp + 0x90] = a2\n 39989: a0 = 0 if a2 != 0\n 39991: jump @1500 if a0 == 0\n      : @1481 (gas: 14)\n 39995: a0 = u64 [sp + 0x1c0]\n 39999: a1 = u64 [sp + 0x1b8]\n 40003: a2 = u64 [sp + 0x1b0]\n 40007: a3 = u64 [sp + 0x50]\n 40010: a3 = a3 & a0\n 40013: a1 = a1 & 0xffffffffffffffff\n 40016: a2 = a2 & 0xffffffffffffffff\n 40019: i32 a0 = a4 + 0x20\n 40022: u64 [sp + 424] = 0\n 40026: u64 [sp + 0x190] = a2\n 40030: u64 [sp + 0x198] = a1\n 40034: a1 = sp + 0x190\n 40038: u64 [sp + 0x1a0] = a3\n 40042: ra = 1616, jump @19\n      : @1482 [@dyn 808] (gas: 3)\n 40049: a0 = u64 [sp + 0x78]\n 40052: s1 = a0 + 0xffffffffffffffc0\n 40055: t0 = 1618, jump @1976\n      : @1483 [@dyn 809] (gas: 1)\n 40061: jump @1500 if a0 == 0\n      : @1484 (gas: 3)\n 40065: i32 a1 = a1 + 0x40\n 40068: a0 = sp + 0x170\n 40072: ra = 1620, jump @17\n      : @1485 [@dyn 810] (gas: 7)\n 40079: a4 = u64 [sp + 0xc8]\n 40083: a0 = a4 <u s1\n 40086: a1 = u64 [sp + 0xc0]\n 40090: a0 = 0 if a1 != 0\n 40092: a1 = u64 [sp + 0x90]\n 40096: a0 = 0 if a1 != 0\n 40098: jump @1500 if a0 == 0\n      : @1486 (gas: 14)\n 40102: a0 = u64 [sp + 0x180]\n 40106: a1 = u64 [sp + 0x178]\n 40110: a2 = u64 [sp + 0x170]\n 40114: a3 = u64 [sp + 0x50]\n 40117: a3 = a3 & a0\n 40120: a1 = a1 & 0xffffffffffffffff\n 40123: a2 = a2 & 0xffffffffffffffff\n 40126: i32 a0 = a4 + 0x40\n 40129: u64 [sp + 360] = 0\n 40133: u64 [sp + 0x150] = a2\n 40137: u64 [sp + 0x158] = a1\n 40141: a1 = sp + 0x150\n 40145: u64 [sp + 0x160] = a3\n 40149: ra = 1622, jump @19\n      : @1487 [@dyn 811] (gas: 3)\n 40156: a0 = u64 [sp + 0x78]\n 40159: s1 = a0 + 0xffffffffffffffa0\n 40162: t0 = 1624, jump @1976\n      : @1488 [@dyn 812] (gas: 1)\n 40168: jump @1500 if a0 == 0\n      : @1489 (gas: 3)\n 40172: i32 a1 = a1 + 0x60\n 40175: a0 = sp + 0x130\n 40179: ra = 1626, jump @17\n      : @1490 [@dyn 813] (gas: 7)\n 40186: a5 = u64 [sp + 0xc8]\n 40190: a0 = a5 <u s1\n 40193: a1 = u64 [sp + 0xc0]\n 40197: a0 = 0 if a1 != 0\n 40199: a1 = u64 [sp + 0x90]\n 40203: a0 = 0 if a1 != 0\n 40205: jump @1500 if a0 == 0\n      : @1491 (gas: 11)\n 40209: a2 = u64 [sp + 0x148]\n 40213: a1 = u64 [sp + 0x140]\n 40217: a3 = u64 [sp + 0x138]\n 40221: a4 = u64 [sp + 0x130]\n 40225: i32 a0 = a5 + 0x60\n 40228: u64 [sp + 0x110] = a4\n 40232: u64 [sp + 0x118] = a3\n 40236: u64 [sp + 0x120] = a1\n 40240: a1 = sp + 0x110\n 40244: u64 [sp + 0x128] = a2\n 40248: ra = 1628, jump @19\n      : @1492 [@dyn 814] (gas: 3)\n 40255: a0 = u64 [sp + 0x78]\n 40258: s1 = a0 + 0xffffffffffffff80\n 40261: t0 = 1630, jump @1976\n      : @1493 [@dyn 815] (gas: 1)\n 40267: jump @1500 if a0 == 0\n      : @1494 (gas: 3)\n 40271: i32 a1 = a1 + 0x80\n 40275: a0 = sp + 0xf0\n 40279: ra = 1632, jump @17\n      : @1495 [@dyn 816] (gas: 7)\n 40286: a2 = u64 [sp + 0xc8]\n 40290: a0 = a2 <u s1\n 40293: a1 = u64 [sp + 0xc0]\n 40297: a0 = 0 if a1 != 0\n 40299: a1 = u64 [sp + 0x90]\n 40303: a0 = 0 if a1 != 0\n 40305: jump @1500 if a0 == 0\n      : @1496 (gas: 31)\n 40309: a0 = u64 [sp + 0x68]\n 40312: a1 = u64 [sp + 0x70]\n 40315: a0 = a1 <u a0\n 40318: a1 = u64 [sp + 0x80]\n 40322: a3 = a1 + a0\n 40325: u64 [sp + 0xb8] = a3\n 40329: s1 = a3 <u a1\n 40332: s1 = a0 if a0 == 0\n 40335: a4 = u64 [sp + 0x60]\n 40338: a5 = a4 + s1\n 40341: u64 [sp + 0xb0] = a5\n 40345: a0 = u64 [sp + 0x108]\n 40349: s1 = u64 [sp + 0x100]\n 40353: a1 = u64 [sp + 0xf0]\n 40357: a3 = u64 [sp + 0xf8]\n 40361: a4 = a5 <u a4\n 40364: a5 = u64 [sp + 0x88]\n 40368: a5 = a5 + a4\n 40371: u64 [sp + 0x88] = a5\n 40375: a1 = a1 | s1\n 40378: a0 = a0 | a3\n 40381: a0 = a0 | a1\n 40384: a1 = a0 >u 0\n 40386: i32 a0 = a2 + 0x80\n 40390: u64 [sp + 232] = 0\n 40394: u64 [sp + 224] = 0\n 40398: u64 [sp + 0xd0] = a1\n 40402: a1 = sp + 0xd0\n 40406: u64 [sp + 216] = 0\n 40410: s1 = a2\n 40412: ra = 1634, jump @19\n      : @1497 [@dyn 817] (gas: 4)\n 40419: a0 = s1 + 0xa0\n 40423: a1 = a0 <u s1\n 40426: a3 = u64 [sp + 0xc0]\n 40430: t0 = 1636, jump @1991\n      : @1498 [@dyn 818] (gas: 27)\n 40436: a1 = u64 [sp + 0xa0]\n 40440: a3 = a3 + a1\n 40443: a1 = a3 <u a1\n 40446: a4 = u64 [sp + 0xa8]\n 40450: a4 = a4 + a1\n 40453: u64 [sp + 0xa8] = a4\n 40457: t2 = u64 [sp + 0x40]\n 40460: t2 = t2 + 0x1\n 40463: a1 = t2 <u 0x1\n 40466: s1 = u64 [sp + 0x38]\n 40469: s1 = s1 + a1\n 40472: a1 = t2 | s1\n 40475: a1 = a1 <u 0x1\n 40478: a4 = u64 [sp + 0x48]\n 40481: a1 = a1 + a4\n 40484: a4 = a1 <u a4\n 40487: ra = u64 [sp + 0x30]\n 40490: ra = ra + a4\n 40493: u64 [sp + 0xc8] = a0\n 40497: u64 [sp + 0xc0] = a2\n 40501: u64 [sp + 0xa0] = a3\n 40505: a4 = u64 [sp + 0x70]\n 40508: a0 = u64 [sp + 0xb8]\n 40512: u64 [sp + 0x80] = a0\n 40516: t1 = u64 [sp + 0xb0]\n 40520: a3 = a1\n 40522: jump @1471\n      : @1499 (gas: 16)\n 40525: a0 = u64 [sp + 0x8]\n 40528: a1 = u64 [sp + 0xc8]\n 40532: u64 [a0] = a1\n 40534: a1 = u64 [sp + 0xc0]\n 40538: u64 [a0 + 0x8] = a1\n 40541: a1 = u64 [sp + 0xa0]\n 40545: u64 [a0 + 0x10] = a1\n 40548: a1 = u64 [sp + 0xa8]\n 40552: u64 [a0 + 0x18] = a1\n 40555: sp = s0 + 0xfffffffffffffd50\n 40559: a0 = sp + 0x200\n 40563: ra = u64 [a0 + 0xa8]\n 40567: s0 = u64 [a0 + 0xa0]\n 40571: s1 = u64 [a0 + 0x98]\n 40575: sp = sp + 0x2b0\n 40579: ret\n      : @1500 (gas: 1)\n 40581: trap\n      : @1501 (gas: 33)\n 40582: sp = sp + 0xffffffffffffff40\n 40586: u64 [sp + 0xb8] = ra\n 40590: u64 [sp + 0xb0] = s0\n 40594: u64 [sp + 0xa8] = s1\n 40598: s0 = sp + 0xc0\n 40602: sp = sp & 0xffffffffffffffe0\n 40605: a2 = u64 [a1]\n 40607: t0 = u64 [a1 + 0x18]\n 40610: a4 = u64 [a1 + 0x8]\n 40613: a1 = u64 [a1 + 0x10]\n 40616: a5 = a2 + 0xfffffffffffffffc\n 40619: s1 = a5 <u a2\n 40622: a2 = a4 + s1\n 40625: a2 = a2 + 0xffffffffffffffff\n 40628: a3 = a2 ^ a4\n 40631: a4 = a2 <u a4\n 40634: a4 = s1 if a3 == 0\n 40637: a3 = a1 + 0xffffffffffffffff\n 40640: a4 = a4 + a3\n 40643: a3 = a4 <u a3\n 40646: a1 = a1 <u 0x1\n 40649: a1 = t0 - a1\n 40652: a1 = a1 + a3\n 40655: a3 = a1 >s 0\n 40657: s1 = a4 >u 0\n 40659: s1 = a3 if a1 != 0\n 40662: a1 = a1 | a4\n 40665: a3 = a2 >u 0\n 40667: a4 = a5 <u 0x60\n 40670: a4 = a4 ^ 0x1\n 40673: a4 = a3 if a2 != 0\n 40676: a4 = s1 if a1 != 0\n 40679: jump @1507 if a4 == 0\n      : @1502 (gas: 5)\n 40683: s1 = a0\n 40685: i32 a0 = sp + 0x40\n 40688: a1 = 0x4\n 40691: ecalli 3 // 'call_data_load'\n 40693: fallthrough\n      : @1503 (gas: 13)\n 40694: a1 = u64 [sp + 0x50]\n 40697: a2 = u64 [sp + 0x58]\n 40700: a0 = 0x100000000\n 40710: u64 [sp + 0x18] = a0\n 40713: a0 = a0 ^ a1\n 40716: a0 = a0 | a2\n 40719: u64 [sp + 0x30] = a1\n 40722: a1 = a1 >> 0x20\n 40725: a1 = a1 <u 0x1\n 40728: u64 [sp + 0x38] = a2\n 40731: a1 = 0 if a2 != 0\n 40733: a1 = 0 if a0 == 0\n 40735: jump @1508 if a1 == 0\n      : @1504 (gas: 8)\n 40739: a0 = u64 [sp + 0x48]\n 40742: u64 [sp + 0x20] = a0\n 40745: a0 = u64 [sp + 0x40]\n 40748: u64 [sp + 0x28] = a0\n 40751: i32 a0 = sp + 0x60\n 40754: a1 = 0x24\n 40757: ecalli 3 // 'call_data_load'\n 40759: fallthrough\n      : @1505 (gas: 12)\n 40760: a1 = u64 [sp + 0x70]\n 40763: a2 = u64 [sp + 0x78]\n 40766: a0 = u64 [sp + 0x18]\n 40769: a0 = a0 ^ a1\n 40772: a0 = a0 | a2\n 40775: u64 [sp + 0x10] = a1\n 40778: a1 = a1 >> 0x20\n 40781: a1 = a1 <u 0x1\n 40784: u64 [sp + 0x18] = a2\n 40787: a1 = 0 if a2 != 0\n 40789: a1 = 0 if a0 == 0\n 40791: jump @1509 if a1 == 0\n      : @1506 (gas: 37)\n 40795: a0 = u64 [sp + 0x68]\n 40798: u64 [sp] = a0\n 40800: a0 = u64 [sp + 0x60]\n 40803: u64 [sp + 0x8] = a0\n 40806: i32 a0 = sp + 0x80\n 40810: a1 = 0x44\n 40813: ecalli 3 // 'call_data_load'\n 40815: a0 = u64 [sp + 0x80]\n 40819: a1 = u64 [sp + 0x88]\n 40823: a2 = u64 [sp + 0x90]\n 40827: a3 = u64 [sp + 0x98]\n 40831: a4 = u64 [sp + 0x30]\n 40834: u64 [s1 + 0x10] = a4\n 40837: a4 = u64 [sp + 0x20]\n 40840: u64 [s1 + 0x8] = a4\n 40843: a4 = u64 [sp + 0x28]\n 40846: u64 [s1] = a4\n 40848: a4 = u64 [sp + 0x10]\n 40851: u64 [s1 + 0x30] = a4\n 40854: a4 = u64 [sp]\n 40856: u64 [s1 + 0x28] = a4\n 40859: a4 = u64 [sp + 0x8]\n 40862: u64 [s1 + 0x20] = a4\n 40865: u64 [s1 + 0x58] = a3\n 40868: u64 [s1 + 0x50] = a2\n 40871: u64 [s1 + 0x48] = a1\n 40874: u64 [s1 + 0x40] = a0\n 40877: a0 = u64 [sp + 0x38]\n 40880: u64 [s1 + 0x18] = a0\n 40883: a0 = u64 [sp + 0x18]\n 40886: u64 [s1 + 0x38] = a0\n 40889: sp = s0 + 0xffffffffffffff40\n 40893: ra = u64 [sp + 0xb8]\n 40897: s0 = u64 [sp + 0xb0]\n 40901: s1 = u64 [sp + 0xa8]\n 40905: sp = sp + 0xc0\n 40909: ret\n      : @1507 (gas: 2)\n 40911: a1 = 0x20220\n 40916: jump @1510\n      : @1508 (gas: 2)\n 40918: a1 = 0x20220\n 40923: jump @1510\n      : @1509 (gas: 2)\n 40925: a1 = 0x20220\n 40930: fallthrough\n      : @1510 (gas: 6)\n 40931: i32 a1 = a1 + 0\n 40933: a0 = 0x1\n 40936: a2 = 0\n 40938: ra = 0x666\n 40942: ecalli 13 // 'seal_return'\n 40944: fallthrough\n      : @1511 [@dyn 819] (gas: 19)\n 40945: sp = sp + 0xffffffffffffff90\n 40948: u64 [sp + 0x68] = ra\n 40951: u64 [sp + 0x60] = s0\n 40954: s0 = sp + 0x70\n 40957: sp = sp & 0xfffffffffffffff0\n 40960: a3 = u64 [a0 + 0x18]\n 40963: a2 = u64 [a0 + 0x10]\n 40966: t1 = u64 [a0]\n 40968: a0 = u64 [a0 + 0x8]\n 40971: a4 = a3 >u 0\n 40973: a5 = a2 >u 0\n 40975: a5 = a4 if a3 != 0\n 40978: t0 = a0 >u 0\n 40980: a4 = t1 <u 0xffffffffffffff60\n 40984: a4 = a4 ^ 0x1\n 40987: a4 = t0 if a0 != 0\n 40990: a1 = a2 | a3\n 40993: a4 = a5 if a1 != 0\n 40996: jump @1514 if a4 != 0\n      : @1512 (gas: 15)\n 40999: a1 = t1 + 0xa0\n 41003: a4 = a1 <u t1\n 41006: a5 = a0 + a4\n 41009: a0 = a5 <u a0\n 41012: a0 = a4 if a4 == 0\n 41015: a0 = a0 + a2\n 41018: a2 = a0 <u a2\n 41021: a2 = a2 + a3\n 41024: u64 [sp + 0x40] = a1\n 41027: u64 [sp + 0x48] = a5\n 41030: u64 [sp + 0x50] = a0\n 41033: a0 = 0x40\n 41036: a1 = sp + a0\n 41039: u64 [sp + 0x58] = a2\n 41042: ra = 1640, jump @19\n      : @1513 [@dyn 820] (gas: 5)\n 41049: sp = s0 + 0xffffffffffffff90\n 41052: ra = u64 [sp + 0x68]\n 41055: s0 = u64 [sp + 0x60]\n 41058: sp = sp + 0x70\n 41061: ret\n      : @1514 (gas: 1)\n 41063: t0 = 1642, jump @1922\n      : @1515 [@dyn 821] (gas: 1)\n 41069: ra = 1644, jump @19\n      : @1516 [@dyn 822] (gas: 1)\n 41076: t0 = 1646, jump @1983\n      : @1517 [@dyn 823] (gas: 1)\n 41082: ra = 1648, jump @19\n      : @1518 [@dyn 824] (gas: 2)\n 41089: a1 = i32 [0x2020c]\n 41094: jump @1520 if a1 >u 63\n      : @1519 (gas: 2)\n 41098: u32 [0x2020c] = 0x40\n 41104: fallthrough\n      : @1520 (gas: 7)\n 41105: a1 = 0x20220\n 41110: i32 a1 = a1 + 0\n 41112: a0 = 0x1\n 41115: a2 = 0x24\n 41118: ra = 0x672\n 41122: ecalli 13 // 'seal_return'\n 41124: fallthrough\n      : @1521 [@dyn 825] (gas: 46)\n 41125: sp = sp + 0xffffffffffffff70\n 41129: u64 [sp + 0x88] = ra\n 41133: u64 [sp + 0x80] = s0\n 41137: u64 [sp + 0x78] = s1\n 41140: s0 = sp + 0x90\n 41144: sp = sp & 0xfffffffffffffff0\n 41147: t0 = a0\n 41149: a2 = u64 [a1]\n 41151: t2 = u64 [a0 + 0x8]\n 41154: a5 = u64 [a1 + 0x8]\n 41157: t1 = u64 [a0]\n 41159: a3 = a2 + 0x1f\n 41162: ra = a3 <u a2\n 41165: a2 = a5 + ra\n 41168: a3 = a3 & 0xffffffffffffffe0\n 41171: u64 [sp + 0x8] = t1\n 41174: t1 = t1 + a3\n 41177: a4 = t1 <u a3\n 41180: a3 = a2 + t2\n 41183: a3 = a3 + a4\n 41186: s1 = a3 ^ a2\n 41189: a0 = a3 <u a2\n 41192: a0 = a4 if s1 == 0\n 41195: a4 = u64 [t0 + 0x18]\n 41198: a5 = a2 <u a5\n 41201: s1 = u64 [a1 + 0x10]\n 41204: t0 = u64 [t0 + 0x10]\n 41207: a1 = u64 [a1 + 0x18]\n 41210: a5 = ra if ra == 0\n 41213: a5 = a5 + s1\n 41216: s1 = a5 <u s1\n 41219: a2 = a5 + t0\n 41222: a0 = a0 + a2\n 41225: a5 = a2 <u a5\n 41228: a2 = a0 <u a2\n 41231: a1 = a1 + a4\n 41234: a1 = a1 + s1\n 41237: a1 = a1 + a5\n 41240: a5 = a1 + a2\n 41243: a1 = a5 >u 0\n 41245: a2 = a0 >u 0\n 41247: a2 = a1 if a5 != 0\n 41250: a1 = a0 | a5\n 41253: s1 = a3 >u 0\n 41255: s1 = a2 if a1 != 0\n 41258: jump @1525 if s1 != 0\n      : @1522 (gas: 13)\n 41261: a1 = u64 [sp + 0x8]\n 41264: a1 = t1 <u a1\n 41267: a2 = a3 ^ t2\n 41270: s1 = a3 <u t2\n 41273: s1 = a1 if a2 == 0\n 41276: a1 = a0 <u t0\n 41279: a2 = a5 ^ a4\n 41282: a4 = a5 <u a4\n 41285: a4 = a1 if a2 == 0\n 41288: a1 = a0 ^ t0\n 41291: a1 = a1 | a2\n 41294: a4 = s1 if a1 == 0\n 41297: jump @1525 if a4 != 0\n      : @1523 (gas: 7)\n 41300: u64 [sp + 0x50] = t1\n 41303: u64 [sp + 0x58] = a3\n 41306: u64 [sp + 0x60] = a0\n 41309: a0 = 0x40\n 41312: a1 = sp + 0x50\n 41315: u64 [sp + 0x68] = a5\n 41318: ra = 1652, jump @19\n      : @1524 [@dyn 826] (gas: 6)\n 41325: sp = s0 + 0xffffffffffffff70\n 41329: ra = u64 [sp + 0x88]\n 41333: s0 = u64 [sp + 0x80]\n 41337: s1 = u64 [sp + 0x78]\n 41340: sp = sp + 0x90\n 41344: ret\n      : @1525 (gas: 6)\n 41346: u64 [sp + 64] = 0\n 41349: u64 [sp + 56] = 0\n 41352: u64 [sp + 48] = 0\n 41355: t0 = 0x676\n 41359: a0 = 0x4e487b7100000000\n 41369: fallthrough\n      : @1526 [@dyn 827] (gas: 4)\n 41370: a1 = sp + 0x30\n 41373: u64 [sp + 0x48] = a0\n 41376: a0 = 0\n 41378: ra = 1656, jump @19\n      : @1527 [@dyn 828] (gas: 7)\n 41385: u64 [sp + 40] = 0\n 41388: u64 [sp + 32] = 0\n 41391: u64 [sp + 16] = 0x41\n 41395: a0 = 0x4\n 41398: a1 = sp + 0x10\n 41401: u64 [sp + 24] = 0\n 41404: ra = 1658, jump @19\n      : @1528 [@dyn 829] (gas: 2)\n 41411: a1 = i32 [0x2020c]\n 41416: jump @1530 if a1 >u 63\n      : @1529 (gas: 2)\n 41420: u32 [0x2020c] = 0x40\n 41426: fallthrough\n      : @1530 (gas: 7)\n 41427: a1 = 0x20220\n 41432: i32 a1 = a1 + 0\n 41434: a0 = 0x1\n 41437: a2 = 0x24\n 41440: ra = 0x67c\n 41444: ecalli 13 // 'seal_return'\n 41446: fallthrough\n      : @1531 [@dyn 830] (gas: 10)\n 41447: a3 = u64 [a1 + 0x18]\n 41450: a4 = u64 [a1 + 0x10]\n 41453: t0 = u64 [a1 + 0x8]\n 41456: a5 = a3 >u 0\n 41458: a2 = a4 >u 0\n 41460: a2 = a5 if a3 != 0\n 41463: a3 = a3 | a4\n 41466: a4 = t0 >u 0\n 41468: a4 = a2 if a3 != 0\n 41471: jump @1533 if a4 != 0\n      : @1532 (gas: 16)\n 41474: a1 = u64 [a1]\n 41476: a2 = a1 + 0x1f\n 41479: a1 = a2 <u a1\n 41482: a1 = a1 + t0\n 41485: a1 = a1 & 0x1\n 41488: a2 = a2 & 0xffffffffffffffe0\n 41491: a3 = a2 + 0x20\n 41494: a2 = a3 <u a2\n 41497: a4 = a1 + a2\n 41500: a1 = a4 <u a1\n 41503: a1 = a2 if a2 == 0\n 41506: u64 [a0 + 24] = 0\n 41509: u64 [a0] = a3\n 41511: u64 [a0 + 0x8] = a4\n 41514: u64 [a0 + 0x10] = a1\n 41517: ret\n      : @1533 (gas: 6)\n 41519: sp = sp + 0xffffffffffffffb0\n 41522: u64 [sp + 0x48] = ra\n 41525: u64 [sp + 0x40] = s0\n 41528: s0 = sp + 0x50\n 41531: sp = sp & 0xfffffffffffffff0\n 41534: t0 = 1662, jump @1922\n      : @1534 [@dyn 831] (gas: 1)\n 41540: ra = 1664, jump @19\n      : @1535 [@dyn 832] (gas: 1)\n 41547: t0 = 1666, jump @1983\n      : @1536 [@dyn 833] (gas: 1)\n 41553: ra = 1668, jump @19\n      : @1537 [@dyn 834] (gas: 2)\n 41560: a1 = i32 [0x2020c]\n 41565: jump @1539 if a1 >u 63\n      : @1538 (gas: 2)\n 41569: u32 [0x2020c] = 0x40\n 41575: fallthrough\n      : @1539 (gas: 7)\n 41576: a1 = 0x20220\n 41581: i32 a1 = a1 + 0\n 41583: a0 = 0x1\n 41586: a2 = 0x24\n 41589: ra = 0x686\n 41593: ecalli 13 // 'seal_return'\n 41595: fallthrough\n      : @1540 [@dyn 835] (gas: 38)\n 41596: sp = sp + 0xfffffffffffffe50\n 41600: u64 [sp + 0x1a8] = ra\n 41604: u64 [sp + 0x1a0] = s0\n 41608: u64 [sp + 0x198] = s1\n 41612: s0 = sp + 0x1b0\n 41616: sp = sp & 0xfffffffffffffff0\n 41619: a4 = u64 [a3 + 0x18]\n 41622: u64 [sp + 0x20] = a4\n 41625: a4 = u64 [a3 + 0x10]\n 41628: u64 [sp + 0x28] = a4\n 41631: a4 = u64 [a3 + 0x8]\n 41634: u64 [sp + 0x10] = a4\n 41637: a3 = u64 [a3]\n 41639: u64 [sp + 0x18] = a3\n 41642: a3 = u64 [a1 + 0x18]\n 41645: u64 [sp + 0x30] = a3\n 41648: a3 = u64 [a1 + 0x10]\n 41651: u64 [sp + 0x38] = a3\n 41654: a3 = u64 [a1 + 0x8]\n 41657: u64 [sp + 0x70] = a3\n 41660: a1 = u64 [a1]\n 41662: u64 [sp + 0x68] = a1\n 41665: a3 = u64 [a2]\n 41667: a1 = u64 [a2 + 0x8]\n 41670: a4 = u64 [a2 + 0x10]\n 41673: a2 = u64 [a2 + 0x18]\n 41676: u64 [sp + 0x8] = a0\n 41679: u64 [sp + 0x98] = a2\n 41683: u64 [sp + 0x168] = a2\n 41687: u64 [sp + 0x90] = a4\n 41691: u64 [sp + 0x160] = a4\n 41695: u64 [sp + 0x88] = a1\n 41699: u64 [sp + 0x158] = a1\n 41703: a0 = sp + 0x170\n 41707: a1 = sp + 0x150\n 41711: u64 [sp + 0x60] = a3\n 41714: u64 [sp + 0x150] = a3\n 41718: ra = 1672, jump @1531\n      : @1541 [@dyn 836] (gas: 11)\n 41724: a0 = u64 [sp + 0x170]\n 41728: u64 [sp + 0x58] = a0\n 41731: a0 = u64 [sp + 0x178]\n 41735: u64 [sp + 0x50] = a0\n 41738: a0 = u64 [sp + 0x180]\n 41742: u64 [sp + 0x48] = a0\n 41745: a0 = u64 [sp + 0x188]\n 41749: u64 [sp + 0x40] = a0\n 41752: a0 = sp + 0x130\n 41756: a1 = 0x40\n 41759: ra = 1674, jump @17\n      : @1542 [@dyn 837] (gas: 23)\n 41766: a1 = u64 [sp + 0x148]\n 41770: u64 [sp + 0xa8] = a1\n 41774: a2 = u64 [sp + 0x140]\n 41778: u64 [sp + 0xa0] = a2\n 41782: s1 = u64 [sp + 0x138]\n 41786: a0 = u64 [sp + 0x130]\n 41790: a3 = u64 [sp + 0x40]\n 41793: u64 [sp + 0x108] = a3\n 41797: a3 = a0\n 41799: u64 [sp + 0x80] = a0\n 41803: a0 = u64 [sp + 0x48]\n 41806: u64 [sp + 0x100] = a0\n 41810: a0 = u64 [sp + 0x50]\n 41813: u64 [sp + 0xf8] = a0\n 41817: a0 = u64 [sp + 0x58]\n 41820: u64 [sp + 0xf0] = a0\n 41824: u64 [sp + 0x128] = a1\n 41828: u64 [sp + 0x120] = a2\n 41832: u64 [sp + 0x118] = s1\n 41836: a0 = sp + 0x110\n 41840: a1 = sp + 0xf0\n 41844: u64 [sp + 0x110] = a3\n 41848: ra = 1676, jump @1521\n      : @1543 [@dyn 838] (gas: 6)\n 41854: a0 = u64 [sp + 0x80]\n 41858: u64 [sp + 0x78] = s1\n 41861: a2 = u64 [sp + 0xa8]\n 41865: a2 = a2 | s1\n 41868: a3 = u64 [sp + 0xa0]\n 41872: t0 = 1678, jump @2018\n      : @1544 [@dyn 839] (gas: 1)\n 41878: jump @1555 if a1 != 0\n      : @1545 (gas: 10)\n 41882: s1 = u64 [sp + 0x60]\n 41885: u64 [sp + 0xd0] = s1\n 41889: a1 = u64 [sp + 0x88]\n 41893: u64 [sp + 0xd8] = a1\n 41897: a1 = u64 [sp + 0x90]\n 41901: u64 [sp + 0xe0] = a1\n 41905: a1 = sp + 0xd0\n 41909: a2 = u64 [sp + 0x98]\n 41913: u64 [sp + 0xe8] = a2\n 41917: ra = 1680, jump @19\n      : @1546 [@dyn 840] (gas: 41)\n 41924: a1 = u64 [sp + 0x68]\n 41927: a1 = a1 + s1\n 41930: a2 = a1 <u s1\n 41933: a0 = u64 [sp + 0x70]\n 41936: t2 = u64 [sp + 0x88]\n 41940: a0 = a0 + t2\n 41943: a3 = a0 + a2\n 41946: a4 = a3 ^ t2\n 41949: a0 = a3 <u t2\n 41952: a0 = a2 if a4 == 0\n 41955: a4 = u64 [sp + 0x10]\n 41958: a2 = a3 ^ a4\n 41961: a3 = a4 <u a3\n 41964: a4 = u64 [sp + 0x18]\n 41967: a1 = a4 <u a1\n 41970: s1 = u64 [sp + 0x38]\n 41973: t1 = u64 [sp + 0x90]\n 41977: a4 = t1 + s1\n 41980: a1 = a3 if a2 != 0\n 41983: a2 = a4 <u t1\n 41986: ra = u64 [sp + 0x30]\n 41989: t0 = u64 [sp + 0x98]\n 41993: a3 = t0 + ra\n 41996: a2 = a2 + a3\n 41999: a0 = a0 + a4\n 42002: a3 = a0 <u a4\n 42005: a2 = a2 + a3\n 42008: a4 = u64 [sp + 0x20]\n 42011: a3 = a2 ^ a4\n 42014: a2 = a4 <u a2\n 42017: a5 = u64 [sp + 0x28]\n 42020: a4 = a5 <u a0\n 42023: a2 = a4 if a3 == 0\n 42026: a0 = a0 ^ a5\n 42029: a0 = a0 | a3\n 42032: a1 = a2 if a0 != 0\n 42035: a4 = t0\n 42037: a3 = t1\n 42039: t0 = u64 [sp + 0x60]\n 42042: t1 = u64 [sp + 0x68]\n 42045: jump @1556 if a1 != 0\n      : @1547 (gas: 9)\n 42049: a0 = t1 | s1\n 42052: a1 = u64 [sp + 0x70]\n 42055: a1 = a1 | ra\n 42058: a0 = a0 | a1\n 42061: a0 = a0 >> 0x20\n 42064: a1 = a1 | s1\n 42067: a1 = a1 << 0x20\n 42070: a0 = a0 | a1\n 42073: jump @1555 if a0 != 0\n      : @1548 (gas: 10)\n 42077: a0 = t0 | a3\n 42080: a1 = t2 | a4\n 42083: a0 = a0 | a1\n 42086: a0 = a0 >> 0x20\n 42089: a1 = a1 | a3\n 42092: a1 = a1 << 0x20\n 42095: a0 = a0 | a1\n 42098: a2 = u64 [sp + 0x78]\n 42101: a3 = u64 [sp + 0xa8]\n 42105: jump @1555 if a0 != 0\n      : @1549 (gas: 9)\n 42109: a0 = u64 [sp + 0xa0]\n 42113: a0 = a0 | a3\n 42116: a1 = 0xffffffe0\n 42126: a4 = u64 [sp + 0x80]\n 42130: u64 [sp + 0x70] = a1\n 42133: a1 = a4 <u a1\n 42136: a1 = 0 if a2 != 0\n 42138: a1 = 0 if a0 != 0\n 42140: jump @1555 if a1 == 0\n      : @1550 (gas: 6)\n 42144: i32 t1 = t1 + 0\n 42146: u64 [sp + 0x68] = t1\n 42149: i32 a0 = a4 + 0x20\n 42152: a1 = t0\n 42154: s1 = t0\n 42156: ra = 1682, jump @34\n      : @1551 [@dyn 841] (gas: 5)\n 42163: i32 a0 = a0 + 0\n 42165: i32 a1 = s1 + 0\n 42167: a2 = u64 [sp + 0x68]\n 42170: ecalli 2 // 'call_data_copy'\n 42172: fallthrough\n      : @1552 (gas: 27)\n 42173: t0 = u64 [sp + 0x80]\n 42177: a0 = t0 + s1\n 42180: a1 = a0 <u t0\n 42183: a2 = u64 [sp + 0x88]\n 42187: a4 = u64 [sp + 0x78]\n 42190: a2 = a2 + a4\n 42193: a2 = a2 + a1\n 42196: a3 = a2 ^ a4\n 42199: a4 = a2 <u a4\n 42202: a4 = a1 if a3 == 0\n 42205: a1 = u64 [sp + 0x90]\n 42209: a3 = u64 [sp + 0xa0]\n 42213: a1 = a1 + a3\n 42216: a3 = a1 <u a3\n 42219: a5 = u64 [sp + 0x98]\n 42223: s1 = u64 [sp + 0xa8]\n 42227: a5 = a5 + s1\n 42230: a3 = a3 + a5\n 42233: a4 = a4 + a1\n 42236: a1 = a4 <u a1\n 42239: a1 = a1 + a3\n 42242: a1 = a1 | a4\n 42245: a3 = u64 [sp + 0x70]\n 42248: a3 = a0 <u a3\n 42251: a3 = 0 if a2 != 0\n 42253: a3 = 0 if a1 != 0\n 42255: jump @1555 if a3 == 0\n      : @1553 (gas: 8)\n 42258: s1 = t0\n 42260: i32 a0 = a0 + 0x20\n 42263: u64 [sp + 200] = 0\n 42267: u64 [sp + 192] = 0\n 42271: u64 [sp + 184] = 0\n 42275: a1 = sp + 0xb0\n 42279: u64 [sp + 176] = 0\n 42283: ra = 1684, jump @19\n      : @1554 [@dyn 842] (gas: 14)\n 42290: a0 = u64 [sp + 0x8]\n 42293: a1 = u64 [sp + 0xa8]\n 42297: u64 [a0 + 0x18] = a1\n 42300: a1 = u64 [sp + 0xa0]\n 42304: u64 [a0 + 0x10] = a1\n 42307: a1 = u64 [sp + 0x78]\n 42310: u64 [a0 + 0x8] = a1\n 42313: u64 [a0] = s1\n 42315: sp = s0 + 0xfffffffffffffe50\n 42319: ra = u64 [sp + 0x1a8]\n 42323: s0 = u64 [sp + 0x1a0]\n 42327: s1 = u64 [sp + 0x198]\n 42331: sp = sp + 0x1b0\n 42335: ret\n      : @1555 (gas: 1)\n 42337: trap\n      : @1556 (gas: 7)\n 42338: a1 = 0x20220\n 42343: i32 a1 = a1 + 0\n 42345: a0 = 0x1\n 42348: a2 = 0\n 42350: ra = 0x696\n 42354: ecalli 13 // 'seal_return'\n 42356: fallthrough\n      : @1557 [@dyn 843] (gas: 33)\n 42357: sp = sp + 0xffffffffffffffa0\n 42360: u64 [sp + 0x58] = ra\n 42363: u64 [sp + 0x50] = s0\n 42366: u64 [sp + 0x48] = s1\n 42369: s0 = sp + 0x60\n 42372: sp = sp & 0xfffffffffffffff0\n 42375: a2 = u64 [a1 + 0x10]\n 42378: a5 = u64 [a1 + 0x8]\n 42381: a4 = u64 [a1]\n 42383: a1 = u64 [a1 + 0x18]\n 42386: t0 = a2 << 0x3f\n 42389: a3 = a5 >> 0x1\n 42392: t0 = a3 | t0\n 42395: a3 = a1 << 0x3f\n 42398: a2 = a2 >> 0x1\n 42401: a3 = a3 | a2\n 42404: a5 = a5 << 0x3f\n 42407: a2 = a4 >> 0x1\n 42410: a5 = a5 | a2\n 42413: t1 = a1 >> 0x1\n 42416: a4 = a4 & 0x1\n 42419: a1 = -a4\n 42421: s1 = a4 <u 0x1\n 42424: a2 = a5 & 0x7f\n 42427: t2 = a1 & a3\n 42430: a3 = a1 & t0\n 42433: a2 = a5 if a4 != 0\n 42436: a4 = a1 & t1\n 42439: a1 = a2 <u 0x20\n 42442: a1 = 0 if a3 != 0\n 42444: a5 = t2 | a4\n 42447: a1 = 0 if a5 != 0\n 42449: jump @1560 if s1 != a1\n      : @1558 (gas: 5)\n 42452: u64 [a0] = a2\n 42454: u64 [a0 + 0x8] = a3\n 42457: u64 [a0 + 0x10] = t2\n 42460: u64 [a0 + 0x18] = a4\n 42463: t0 = 1688, jump @2004\n      : @1559 [@dyn 844] (gas: 1)\n 42469: ret\n      : @1560 (gas: 1)\n 42471: t0 = 1690, jump @1922\n      : @1561 [@dyn 845] (gas: 1)\n 42477: ra = 1692, jump @19\n      : @1562 [@dyn 846] (gas: 7)\n 42484: u64 [sp + 24] = 0\n 42487: u64 [sp + 16] = 0\n 42490: u64 [sp + 0] = 0x22\n 42493: a0 = 0x4\n 42496: a1 = sp\n 42498: u64 [sp + 8] = 0\n 42501: ra = 1694, jump @19\n      : @1563 [@dyn 847] (gas: 2)\n 42508: a1 = i32 [0x2020c]\n 42513: jump @1565 if a1 >u 63\n      : @1564 (gas: 2)\n 42517: u32 [0x2020c] = 0x40\n 42523: fallthrough\n      : @1565 (gas: 7)\n 42524: a1 = 0x20220\n 42529: i32 a1 = a1 + 0\n 42531: a0 = 0x1\n 42534: a2 = 0x24\n 42537: ra = 0x6a0\n 42541: ecalli 13 // 'seal_return'\n 42543: fallthrough\n      : @1566 [@dyn 848] (gas: 10)\n 42544: a4 = u64 [a1 + 0x18]\n 42547: a3 = u64 [a1 + 0x10]\n 42550: t1 = u64 [a1 + 0x8]\n 42553: t0 = a4 >u 0\n 42555: a5 = a3 >u 0\n 42557: a5 = t0 if a4 != 0\n 42560: t0 = a3 | a4\n 42563: a2 = t1 >u 0\n 42565: a2 = a5 if t0 != 0\n 42568: jump @1568 if a2 != 0\n      : @1567 (gas: 24)\n 42571: a1 = u64 [a1]\n 42573: a2 = a3 >> 0x3b\n 42576: a4 = a4 << 0x5\n 42579: t0 = a4 | a2\n 42582: a4 = t1 >> 0x3b\n 42585: a3 = a3 << 0x5\n 42588: a3 = a3 | a4\n 42591: a4 = a1 >> 0x3b\n 42594: t1 = t1 << 0x5\n 42597: a4 = t1 | a4\n 42600: a1 = a1 << 0x5\n 42603: a5 = a1 + 0x20\n 42606: a1 = a5 <u a1\n 42609: a2 = a4 + a1\n 42612: a4 = a2 <u a4\n 42615: a4 = a1 if a1 == 0\n 42618: a4 = a4 + a3\n 42621: a1 = a4 <u a3\n 42624: a1 = a1 + t0\n 42627: u64 [a0] = a5\n 42629: u64 [a0 + 0x8] = a2\n 42632: u64 [a0 + 0x10] = a4\n 42635: u64 [a0 + 0x18] = a1\n 42638: ret\n      : @1568 (gas: 6)\n 42640: sp = sp + 0xffffffffffffffb0\n 42643: u64 [sp + 0x48] = ra\n 42646: u64 [sp + 0x40] = s0\n 42649: s0 = sp + 0x50\n 42652: sp = sp & 0xfffffffffffffff0\n 42655: t0 = 1698, jump @1922\n      : @1569 [@dyn 849] (gas: 1)\n 42661: ra = 1700, jump @19\n      : @1570 [@dyn 850] (gas: 1)\n 42668: t0 = 1702, jump @1983\n      : @1571 [@dyn 851] (gas: 1)\n 42674: ra = 1704, jump @19\n      : @1572 [@dyn 852] (gas: 2)\n 42681: a1 = i32 [0x2020c]\n 42686: jump @1574 if a1 >u 63\n      : @1573 (gas: 2)\n 42690: u32 [0x2020c] = 0x40\n 42696: fallthrough\n      : @1574 (gas: 7)\n 42697: a1 = 0x20220\n 42702: i32 a1 = a1 + 0\n 42704: a0 = 0x1\n 42707: a2 = 0x24\n 42710: ra = 0x6aa\n 42714: ecalli 13 // 'seal_return'\n 42716: fallthrough\n      : @1575 [@dyn 853] (gas: 24)\n 42717: sp = sp + 0xfffffffffffffd20\n 42721: a2 = sp + 0x200\n 42725: u64 [a2 + 0xd8] = ra\n 42729: u64 [a2 + 0xd0] = s0\n 42733: u64 [a2 + 0xc8] = s1\n 42737: s0 = sp + 0x2e0\n 42741: sp = sp & 0xfffffffffffffff0\n 42744: a2 = u64 [a1]\n 42746: a3 = u64 [a1 + 0x8]\n 42749: a4 = u64 [a1 + 0x10]\n 42752: a1 = u64 [a1 + 0x18]\n 42755: u64 [sp] = a0\n 42757: u64 [sp + 0x80] = a1\n 42761: a5 = sp + 0x200\n 42765: u64 [a5 + 0x98] = a1\n 42769: u64 [sp + 0xa8] = a4\n 42773: u64 [a5 + 0x90] = a4\n 42777: u64 [sp + 0xb0] = a3\n 42781: u64 [a5 + 0x88] = a3\n 42785: a0 = sp + 0x2a0\n 42789: a1 = sp + 0x280\n 42793: u64 [sp + 0xb8] = a2\n 42797: u64 [a5 + 0x80] = a2\n 42801: ra = 1708, jump @1566\n      : @1576 [@dyn 854] (gas: 12)\n 42807: a1 = sp + 0x200\n 42811: a0 = u64 [a1 + 0xa0]\n 42815: u64 [sp + 0xa0] = a0\n 42819: a0 = u64 [a1 + 0xa8]\n 42823: u64 [sp + 0x98] = a0\n 42827: a0 = u64 [a1 + 0xb0]\n 42831: u64 [sp + 0x90] = a0\n 42835: a0 = u64 [a1 + 0xb8]\n 42839: u64 [sp + 0x88] = a0\n 42843: a0 = sp + 0x260\n 42847: a1 = 0x40\n 42850: ra = 1710, jump @17\n      : @1577 [@dyn 855] (gas: 24)\n 42857: a4 = sp + 0x200\n 42861: a0 = u64 [a4 + 0x78]\n 42864: s1 = u64 [a4 + 0x70]\n 42867: a1 = u64 [a4 + 0x68]\n 42870: u64 [sp + 0x68] = a1\n 42873: a2 = u64 [a4 + 0x60]\n 42876: u64 [sp + 0x8] = a2\n 42879: a3 = u64 [sp + 0x88]\n 42883: u64 [a4 + 0x38] = a3\n 42886: a3 = a0\n 42888: u64 [sp + 0x10] = a0\n 42891: a0 = u64 [sp + 0x90]\n 42895: u64 [a4 + 0x30] = a0\n 42898: a0 = u64 [sp + 0x98]\n 42902: u64 [a4 + 0x28] = a0\n 42905: a0 = u64 [sp + 0xa0]\n 42909: u64 [a4 + 0x20] = a0\n 42912: u64 [a4 + 0x58] = a3\n 42915: u64 [a4 + 0x50] = s1\n 42918: u64 [a4 + 0x48] = a1\n 42921: a0 = sp + 0x240\n 42925: a1 = sp + 0x220\n 42929: u64 [a4 + 0x40] = a2\n 42932: ra = 1712, jump @1521\n      : @1578 [@dyn 856] (gas: 12)\n 42938: a0 = u64 [sp + 0x8]\n 42941: a2 = u64 [sp + 0x10]\n 42944: a1 = u64 [sp + 0x68]\n 42947: a2 = a2 | a1\n 42950: a1 = a0 | s1\n 42953: a1 = a1 | a2\n 42956: a1 = a1 >> 0x20\n 42959: u64 [sp + 0x60] = s1\n 42962: a2 = a2 | s1\n 42965: a2 = a2 << 0x20\n 42968: a1 = a1 | a2\n 42971: jump @1605 if a1 != 0\n      : @1579 (gas: 11)\n 42975: a1 = u64 [sp + 0xb8]\n 42979: a2 = sp + 0x200\n 42983: u64 [a2] = a1\n 42985: a1 = u64 [sp + 0xb0]\n 42989: u64 [a2 + 0x8] = a1\n 42992: a1 = u64 [sp + 0xa8]\n 42996: u64 [a2 + 0x10] = a1\n 42999: a1 = sp + 0x200\n 43003: s1 = u64 [sp + 0x80]\n 43007: u64 [a2 + 0x18] = s1\n 43010: ra = 1714, jump @19\n      : @1580 [@dyn 857] (gas: 10)\n 43017: u64 [sp + 0x1d8] = s1\n 43021: a0 = u64 [sp + 0xa8]\n 43025: u64 [sp + 0x1d0] = a0\n 43029: a0 = u64 [sp + 0xb0]\n 43033: u64 [sp + 0x1c8] = a0\n 43037: a0 = sp + 0x1e0\n 43041: a1 = sp + 0x1c0\n 43045: a2 = u64 [sp + 0xb8]\n 43049: u64 [sp + 0x1c0] = a2\n 43053: ra = 1716, jump @1566\n      : @1581 [@dyn 858] (gas: 46)\n 43059: t1 = 0\n 43061: t2 = 0\n 43063: a5 = 0\n 43065: s1 = 0\n 43067: a0 = u64 [sp + 0x1e0]\n 43071: t0 = u64 [sp + 0x1f8]\n 43075: a2 = u64 [sp + 0x1e8]\n 43079: a3 = u64 [sp + 0x1f0]\n 43083: a4 = a0 + 0xffffffffffffffe0\n 43086: u64 [sp + 0x58] = a4\n 43089: a0 = a4 <u a0\n 43092: a4 = a2 + a0\n 43095: a4 = a4 + 0xffffffffffffffff\n 43098: a1 = a4 ^ a2\n 43101: u64 [sp + 0x50] = a4\n 43104: a2 = a4 <u a2\n 43107: a2 = a0 if a1 == 0\n 43110: a0 = a3 + 0xffffffffffffffff\n 43113: a2 = a2 + a0\n 43116: u64 [sp + 0x48] = a2\n 43119: a0 = a2 <u a0\n 43122: a2 = a3 <u 0x1\n 43125: a1 = t0 - a2\n 43128: a0 = a0 + a1\n 43131: u64 [sp + 0x40] = a0\n 43134: a1 = u64 [sp + 0x8]\n 43137: a0 = a1 + 0x20\n 43140: u64 [sp + 0x30] = a0\n 43143: a0 = a0 <u a1\n 43146: ra = u64 [sp + 0x68]\n 43149: a1 = ra + a0\n 43152: u64 [sp + 0x28] = a1\n 43155: a1 = a1 <u ra\n 43158: a1 = a0 if a0 == 0\n 43161: t0 = u64 [sp + 0x60]\n 43164: a1 = a1 + t0\n 43167: u64 [sp + 0x20] = a1\n 43170: a0 = a1 <u t0\n 43173: a1 = u64 [sp + 0x10]\n 43176: a0 = a0 + a1\n 43179: u64 [sp + 0x18] = a0\n 43182: a0 = 0x100000000\n 43192: u64 [sp + 0x98] = a0\n 43196: a0 = 0xffffffe0\n 43206: u64 [sp + 0x38] = a0\n 43209: fallthrough\n      : @1582 (gas: 16)\n 43210: a0 = u64 [sp + 0x58]\n 43213: a0 = t1 <u a0\n 43216: a2 = u64 [sp + 0x50]\n 43219: a1 = t2 ^ a2\n 43222: a2 = t2 <u a2\n 43225: a2 = a0 if a1 == 0\n 43228: a0 = u64 [sp + 0x48]\n 43231: a4 = a5 <u a0\n 43234: a3 = u64 [sp + 0x40]\n 43237: a1 = s1 ^ a3\n 43240: a3 = s1 <u a3\n 43243: a3 = a4 if a1 == 0\n 43246: a0 = a0 ^ a5\n 43249: a0 = a0 | a1\n 43252: a3 = a2 if a0 == 0\n 43255: jump @1604 if a3 == 0\n      : @1583 (gas: 7)\n 43259: u64 [sp + 0x80] = t2\n 43263: u64 [sp + 0x88] = t1\n 43267: u64 [sp + 0x90] = a5\n 43271: u64 [sp + 0x78] = s1\n 43274: a0 = sp + 0x1a0\n 43278: a1 = 0x40\n 43281: ra = 1718, jump @17\n      : @1584 [@dyn 859] (gas: 13)\n 43288: a0 = u64 [sp + 0x1b8]\n 43292: u64 [sp + 0xa8] = a0\n 43296: s1 = u64 [sp + 0x1b0]\n 43300: a2 = u64 [sp + 0x1a8]\n 43304: u64 [sp + 0xb0] = a2\n 43308: a1 = u64 [sp + 0x1a0]\n 43312: u64 [sp + 0xb8] = a1\n 43316: u64 [sp + 0x198] = a0\n 43320: u64 [sp + 0x190] = s1\n 43324: u64 [sp + 0x188] = a2\n 43328: a0 = sp + 0x180\n 43332: u64 [sp + 0x180] = a1\n 43336: ra = 1720, jump @1511\n      : @1585 [@dyn 860] (gas: 11)\n 43342: a0 = u64 [sp + 0xa8]\n 43346: a1 = u64 [sp + 0xb0]\n 43350: a0 = a0 | a1\n 43353: a1 = u64 [sp + 0xb8]\n 43357: a1 = a1 | s1\n 43360: a1 = a1 | a0\n 43363: a1 = a1 >> 0x20\n 43366: a0 = a0 | s1\n 43369: a0 = a0 << 0x20\n 43372: a0 = a0 | a1\n 43375: jump @1605 if a0 != 0\n      : @1586 (gas: 7)\n 43379: u64 [sp + 376] = 0\n 43383: u64 [sp + 368] = 0\n 43387: u64 [sp + 360] = 0\n 43391: a1 = sp + 0x160\n 43395: u64 [sp + 352] = 0\n 43399: a0 = u64 [sp + 0xb8]\n 43403: ra = 1722, jump @19\n      : @1587 [@dyn 861] (gas: 11)\n 43410: u64 [sp + 0x70] = s1\n 43413: a2 = u64 [sp + 0xa8]\n 43417: a2 = a2 | s1\n 43420: a0 = u64 [sp + 0x38]\n 43423: a1 = u64 [sp + 0xb8]\n 43427: a0 = a1 <u a0\n 43430: a1 = u64 [sp + 0xb0]\n 43434: a0 = 0 if a1 != 0\n 43436: u64 [sp + 0xa0] = a2\n 43440: a0 = 0 if a2 != 0\n 43442: jump @1605 if a0 == 0\n      : @1588 (gas: 8)\n 43446: s1 = u64 [sp + 0xb8]\n 43450: i32 a0 = s1 + 0x20\n 43453: u64 [sp + 344] = 0\n 43457: u64 [sp + 336] = 0\n 43461: u64 [sp + 328] = 0\n 43465: a1 = sp + 0x140\n 43469: u64 [sp + 320] = 0\n 43473: ra = 1724, jump @19\n      : @1589 [@dyn 862] (gas: 3)\n 43480: a0 = u64 [sp + 0x98]\n 43484: a0 = a0 + 0xffffffffffffffc0\n 43487: t0 = 1726, jump @1985\n      : @1590 [@dyn 863] (gas: 1)\n 43493: jump @1605 if a0 == 0\n      : @1591 (gas: 8)\n 43497: s1 = u64 [sp + 0xb8]\n 43501: i32 a0 = s1 + 0x40\n 43504: u64 [sp + 312] = 0\n 43508: u64 [sp + 304] = 0\n 43512: u64 [sp + 296] = 0\n 43516: a1 = sp + 0x120\n 43520: u64 [sp + 288] = 0\n 43524: ra = 1728, jump @19\n      : @1592 [@dyn 864] (gas: 3)\n 43531: a0 = u64 [sp + 0x98]\n 43535: a0 = a0 + 0xffffffffffffffa0\n 43538: t0 = 1730, jump @1985\n      : @1593 [@dyn 865] (gas: 1)\n 43544: jump @1605 if a0 == 0\n      : @1594 (gas: 8)\n 43548: s1 = u64 [sp + 0xb8]\n 43552: i32 a0 = s1 + 0x60\n 43555: u64 [sp + 280] = 0\n 43559: u64 [sp + 272] = 0\n 43563: u64 [sp + 264] = 0\n 43567: a1 = sp + 0x100\n 43571: u64 [sp + 256] = 0\n 43575: ra = 1732, jump @19\n      : @1595 [@dyn 866] (gas: 3)\n 43582: a0 = u64 [sp + 0x98]\n 43586: a0 = a0 + 0xffffffffffffff80\n 43589: t0 = 1734, jump @1985\n      : @1596 [@dyn 867] (gas: 1)\n 43595: jump @1605 if a0 == 0\n      : @1597 (gas: 8)\n 43599: a0 = u64 [sp + 0xb8]\n 43603: i32 a0 = a0 + 0x80\n 43607: u64 [sp + 248] = 0\n 43611: u64 [sp + 240] = 0\n 43615: u64 [sp + 232] = 0\n 43619: a1 = sp + 0xe0\n 43623: u64 [sp + 224] = 0\n 43627: ra = 1736, jump @19\n      : @1598 [@dyn 868] (gas: 7)\n 43634: a1 = u64 [sp + 0x30]\n 43637: a0 = u64 [sp + 0x88]\n 43641: a0 = a0 + a1\n 43644: a1 = a0 <u a1\n 43647: a4 = u64 [sp + 0x28]\n 43650: a2 = u64 [sp + 0x80]\n 43654: t0 = 1738, jump @1984\n      : @1599 [@dyn 869] (gas: 9)\n 43660: a3 = u64 [sp + 0x20]\n 43663: a1 = u64 [sp + 0x90]\n 43667: a1 = a1 + a3\n 43670: a3 = a1 <u a3\n 43673: s1 = u64 [sp + 0x78]\n 43676: a5 = u64 [sp + 0x18]\n 43679: a5 = a5 + s1\n 43682: a3 = a3 + a5\n 43685: t0 = 1740, jump @1930\n      : @1600 [@dyn 870] (gas: 1)\n 43691: jump @1605 if a1 != 0\n      : @1601 (gas: 10)\n 43695: a1 = u64 [sp + 0xb8]\n 43699: u64 [sp + 0xc0] = a1\n 43703: a1 = u64 [sp + 0xb0]\n 43707: u64 [sp + 0xc8] = a1\n 43711: a1 = u64 [sp + 0x70]\n 43714: u64 [sp + 0xd0] = a1\n 43718: a1 = sp + 0xc0\n 43722: a2 = u64 [sp + 0xa8]\n 43726: u64 [sp + 0xd8] = a2\n 43730: ra = 1742, jump @19\n      : @1602 [@dyn 871] (gas: 5)\n 43737: a1 = u64 [sp + 0x88]\n 43741: a0 = a1 + 0x20\n 43744: a1 = a0 <u a1\n 43747: a3 = u64 [sp + 0x80]\n 43751: t0 = 1744, jump @1991\n      : @1603 [@dyn 872] (gas: 10)\n 43757: a1 = u64 [sp + 0x90]\n 43761: a3 = a3 + a1\n 43764: a1 = a3 <u a1\n 43767: s1 = s1 + a1\n 43770: t1 = a0\n 43772: t2 = a2\n 43774: a5 = a3\n 43776: t0 = u64 [sp + 0x60]\n 43779: ra = u64 [sp + 0x68]\n 43782: jump @1582\n      : @1604 (gas: 14)\n 43785: a0 = u64 [sp]\n 43787: a1 = u64 [sp + 0x8]\n 43790: u64 [a0] = a1\n 43792: u64 [a0 + 0x8] = ra\n 43795: u64 [a0 + 0x10] = t0\n 43798: a1 = u64 [sp + 0x10]\n 43801: u64 [a0 + 0x18] = a1\n 43804: sp = s0 + 0xfffffffffffffd20\n 43808: a0 = sp + 0x200\n 43812: ra = u64 [a0 + 0xd8]\n 43816: s0 = u64 [a0 + 0xd0]\n 43820: s1 = u64 [a0 + 0xc8]\n 43824: sp = sp + 0x2e0\n 43828: ret\n      : @1605 (gas: 1)\n 43830: trap\n      : @1606 (gas: 22)\n 43831: sp = sp + 0xffffffffffffff40\n 43835: u64 [sp + 0xb8] = ra\n 43839: u64 [sp + 0xb0] = s0\n 43843: u64 [sp + 0xa8] = s1\n 43847: s0 = sp + 0xc0\n 43851: sp = sp & 0xfffffffffffffff0\n 43854: a4 = u64 [a1 + 0x10]\n 43857: a3 = u64 [a1 + 0x18]\n 43860: a5 = u64 [a1 + 0x8]\n 43863: a1 = u64 [a1]\n 43865: u64 [sp + 0x28] = a3\n 43868: u64 [sp + 0x20] = a5\n 43871: a5 = a5 | a3\n 43874: a3 = a1 | a4\n 43877: a3 = a3 | a5\n 43880: a3 = a3 >> 0x20\n 43883: u64 [sp + 0x30] = a4\n 43886: a4 = a4 | a5\n 43889: a4 = a4 << 0x20\n 43892: a3 = a3 | a4\n 43895: u64 [sp + 0x38] = a0\n 43898: jump @1610 if a3 != 0\n      : @1607 (gas: 10)\n 43902: a0 = u64 [a2 + 0x18]\n 43905: u64 [sp + 0x10] = a0\n 43908: s1 = u64 [a2 + 0x10]\n 43911: a0 = u64 [a2 + 0x8]\n 43914: u64 [sp + 0x8] = a0\n 43917: a0 = u64 [a2]\n 43919: u64 [sp] = a0\n 43921: a0 = sp + 0x80\n 43925: u64 [sp + 0x18] = a1\n 43928: ra = 1746, jump @17\n      : @1608 [@dyn 873] (gas: 19)\n 43935: t0 = u64 [sp + 0x10]\n 43938: a5 = u64 [sp + 0x8]\n 43941: t1 = u64 [sp]\n 43943: a0 = u64 [sp + 0x88]\n 43947: a1 = u64 [sp + 0x98]\n 43951: a2 = u64 [sp + 0x80]\n 43955: a3 = u64 [sp + 0x90]\n 43959: a4 = a0 ^ a5\n 43962: a0 = a5 <u a0\n 43965: a2 = t1 <u a2\n 43968: a2 = a0 if a4 != 0\n 43971: a0 = s1 <u a3\n 43974: a4 = a1 ^ t0\n 43977: a1 = t0 <u a1\n 43980: a1 = a0 if a4 == 0\n 43983: a3 = a3 ^ s1\n 43986: a3 = a3 | a4\n 43989: a1 = a2 if a3 == 0\n 43992: jump @1611 if a1 == 0\n      : @1609 (gas: 47)\n 43996: a0 = s1 >> 0x3b\n 43999: a1 = t0 << 0x5\n 44002: t0 = a1 | a0\n 44005: a1 = a5 >> 0x3b\n 44008: s1 = s1 << 0x5\n 44011: a1 = a1 | s1\n 44014: a2 = t1 >> 0x3b\n 44017: a3 = a5 << 0x5\n 44020: a2 = a2 | a3\n 44023: a3 = t1 << 0x5\n 44026: a0 = u64 [sp + 0x18]\n 44029: a3 = a3 + a0\n 44032: a4 = a3 <u a0\n 44035: a5 = u64 [sp + 0x20]\n 44038: a2 = a2 + a5\n 44041: a2 = a2 + a4\n 44044: a0 = a2 ^ a5\n 44047: s1 = a2 <u a5\n 44050: s1 = a4 if a0 == 0\n 44053: a5 = u64 [sp + 0x30]\n 44056: a1 = a1 + a5\n 44059: s1 = s1 + a1\n 44062: a4 = s1 <u a1\n 44065: a1 = a1 <u a5\n 44068: a5 = u64 [sp + 0x28]\n 44071: a0 = a5 + t0\n 44074: a0 = a0 + a1\n 44077: a0 = a0 + a4\n 44080: a1 = a3 + 0x20\n 44083: a3 = a1 <u a3\n 44086: a4 = a2 + a3\n 44089: a2 = a4 <u a2\n 44092: a2 = a3 if a3 == 0\n 44095: a2 = a2 + s1\n 44098: a3 = a2 <u s1\n 44101: a0 = a0 + a3\n 44104: a3 = u64 [sp + 0x38]\n 44107: u64 [a3] = a1\n 44109: u64 [a3 + 0x8] = a4\n 44112: u64 [a3 + 0x10] = a2\n 44115: u64 [a3 + 0x18] = a0\n 44118: sp = s0 + 0xffffffffffffff40\n 44122: ra = u64 [sp + 0xb8]\n 44126: s0 = u64 [sp + 0xb0]\n 44130: s1 = u64 [sp + 0xa8]\n 44134: sp = sp + 0xc0\n 44138: ret\n      : @1610 (gas: 1)\n 44140: trap\n      : @1611 (gas: 6)\n 44141: u64 [sp + 112] = 0\n 44144: u64 [sp + 104] = 0\n 44147: u64 [sp + 96] = 0\n 44150: t0 = 0x6d4\n 44154: a0 = 0x4e487b7100000000\n 44164: fallthrough\n      : @1612 [@dyn 874] (gas: 4)\n 44165: a1 = sp + 0x60\n 44168: u64 [sp + 0x78] = a0\n 44171: a0 = 0\n 44173: ra = 1750, jump @19\n      : @1613 [@dyn 875] (gas: 7)\n 44180: u64 [sp + 88] = 0\n 44183: u64 [sp + 80] = 0\n 44186: u64 [sp + 64] = 0x32\n 44190: a0 = 0x4\n 44193: a1 = sp + 0x40\n 44196: u64 [sp + 72] = 0\n 44199: ra = 1752, jump @19\n      : @1614 [@dyn 876] (gas: 2)\n 44206: a1 = i32 [0x2020c]\n 44211: jump @1616 if a1 >u 63\n      : @1615 (gas: 2)\n 44215: u32 [0x2020c] = 0x40\n 44221: fallthrough\n      : @1616 (gas: 7)\n 44222: a1 = 0x20220\n 44227: i32 a1 = a1 + 0\n 44229: a0 = 0x1\n 44232: a2 = 0x24\n 44235: ra = 0x6da\n 44239: ecalli 13 // 'seal_return'\n 44241: fallthrough\n      : @1617 [@dyn 877] (gas: 17)\n 44242: sp = sp + 0xfffffffffffffa00\n 44246: a3 = sp + 0x500\n 44250: u64 [a3 + 0xf8] = ra\n 44254: u64 [a3 + 0xf0] = s0\n 44258: u64 [a3 + 0xe8] = s1\n 44262: s0 = sp + 0x600\n 44266: sp = sp & 0xffffffffffffffe0\n 44269: s1 = sp\n 44271: a4 = u32 [a1 + 0x10]\n 44274: a3 = u64 [a1]\n 44276: a5 = u64 [a1 + 0x8]\n 44279: u64 [s1 + 0x90] = a3\n 44283: u64 [s1 + 0x88] = a4\n 44287: a1 = a3 | a4\n 44290: u64 [s1 + 0x80] = a5\n 44294: a1 = a1 | a5\n 44297: jump @1689 if a1 == 0\n      : @1618 (gas: 23)\n 44301: a5 = u64 [a2 + 0x18]\n 44304: a4 = u64 [a2 + 0x10]\n 44307: a3 = u64 [a2 + 0x8]\n 44310: a1 = u64 [a2]\n 44312: a2 = u64 [a0 + 0x10]\n 44315: u64 [s1 + 0x40] = a2\n 44318: a2 = u64 [a0 + 0x8]\n 44321: u64 [s1 + 0x30] = a2\n 44324: a0 = u64 [a0]\n 44326: u64 [s1 + 0x38] = a0\n 44329: a0 = 0xffffffff\n 44339: u64 [s1 + 0x50] = a0\n 44342: u64 [s1 + 0x78] = a1\n 44345: u64 [s1 + 0x520] = a1\n 44349: u64 [s1 + 0x70] = a3\n 44352: u64 [s1 + 0x528] = a3\n 44356: u64 [s1 + 0x68] = a4\n 44359: u64 [s1 + 0x530] = a4\n 44363: a1 = s1 + 0x520\n 44367: u64 [s1 + 0x60] = a5\n 44370: u64 [s1 + 0x538] = a5\n 44374: a0 = 0\n 44376: ra = 1756, jump @19\n      : @1619 [@dyn 878] (gas: 7)\n 44383: u64 [s1 + 1304] = 0\n 44387: u64 [s1 + 1296] = 0\n 44391: u64 [s1 + 1280] = 0x2\n 44396: a0 = 0x20\n 44399: a1 = s1 + 0x500\n 44403: u64 [s1 + 1288] = 0\n 44407: ra = 1758, jump @19\n      : @1620 [@dyn 879] (gas: 3)\n 44414: a2 = 0x2020c\n 44419: a0 = i32 [0x2020c]\n 44424: jump @1622 if a0 >u 63\n      : @1621 (gas: 2)\n 44428: u32 [0x2020c] = 0x40\n 44434: fallthrough\n      : @1622 (gas: 15)\n 44435: u64 [s1 + 0x98] = a2\n 44439: a0 = sp + 0xffffffffffffffe0\n 44442: a2 = a0 & 0xffffffffffffffe0\n 44445: u64 [s1 + 0xb8] = a2\n 44449: sp = a2\n 44451: a0 = 0x20220\n 44456: i32 a0 = a0 + 0\n 44458: i32 a2 = a2 + 0\n 44460: a1 = 0x40\n 44463: u64 [s1 + 0xa0] = a0\n 44467: ra = 0x6e0\n 44471: ecalli 9 // 'hash_keccak_256'\n 44473: a3 = u64 [s1 + 0xb8]\n 44477: t0 = 0x6e2\n 44481: jump @1979\n      : @1623 [@dyn 880] (gas: 2)\n 44484: a3 = u64 [s1 + 0xb8]\n 44488: t0 = 1762, jump @1979\n      : @1624 [@dyn 881] (gas: 7)\n 44494: u64 [a4 + 0x58] = a3\n 44497: u64 [a4 + 0x50] = a2\n 44500: u64 [a4 + 0x48] = a1\n 44503: u64 [a4 + 0x40] = a0\n 44506: a0 = s1 + 0x4e0\n 44510: a1 = s1 + 0x540\n 44514: ra = 1764, jump @21\n      : @1625 [@dyn 882] (gas: 20)\n 44521: a0 = s1 + 0x400\n 44525: a3 = u64 [a0 + 0xf0]\n 44529: a1 = u64 [a0 + 0xe8]\n 44533: a2 = u64 [a0 + 0xe0]\n 44537: a0 = u64 [s1 + 0x50]\n 44540: u64 [s1 + 0x18] = a3\n 44543: a0 = a0 & a3\n 44546: u64 [s1 + 0xa8] = a0\n 44550: u64 [s1 + 0x28] = a1\n 44553: a1 = a1 & 0xffffffffffffffff\n 44556: u64 [s1 + 0xb0] = a1\n 44560: u64 [s1 + 0x20] = a2\n 44563: a0 = a2 & 0xffffffffffffffff\n 44566: u64 [s1 + 0xb8] = a0\n 44570: a0 = 0x30220\n 44575: u64 [s1 + 0x58] = a0\n 44578: i32 a0 = a0 + 0\n 44580: u64 [s1 + 0x48] = a0\n 44583: ecalli 5 // 'caller'\n 44585: fallthrough\n      : @1626 (gas: 7)\n 44586: a2 = u64 [s1 + 0x58]\n 44589: a0 = u32 [a2 + 0x10]\n 44592: a1 = u64 [a2]\n 44594: a2 = u64 [a2 + 0x8]\n 44597: a0 = a0 | a1\n 44600: a0 = a0 | a2\n 44603: jump @1655 if a0 == 0\n      : @1627 (gas: 6)\n 44607: a0 = u64 [s1 + 0x48]\n 44610: ra = 0x6e6\n 44614: ecalli 5 // 'caller'\n 44616: a2 = u64 [s1 + 0x58]\n 44619: t0 = 0x6e8\n 44623: jump @1913\n      : @1628 [@dyn 883] (gas: 2)\n 44626: a2 = u64 [s1 + 0x58]\n 44629: t0 = 1768, jump @1913\n      : @1629 [@dyn 884] (gas: 11)\n 44635: a2 = u64 [s1 + 0x18]\n 44638: a2 = a2 << 0x20\n 44641: a2 = a2 >> 0x20\n 44644: a1 = a1 ^ a2\n 44647: a2 = u64 [s1 + 0x20]\n 44650: a0 = a0 ^ a2\n 44653: a0 = a0 | a1\n 44656: a1 = u64 [s1 + 0x28]\n 44659: a1 = a1 ^ a3\n 44662: a0 = a0 | a1\n 44665: jump @1655 if a0 == 0\n      : @1630 (gas: 10)\n 44669: u64 [s1 + 1240] = 0\n 44673: a0 = u64 [s1 + 0xb8]\n 44677: u64 [s1 + 0x4c0] = a0\n 44681: a0 = u64 [s1 + 0xb0]\n 44685: u64 [s1 + 0x4c8] = a0\n 44689: a1 = s1 + 0x4c0\n 44693: a0 = u64 [s1 + 0xa8]\n 44697: u64 [s1 + 0x4d0] = a0\n 44701: a0 = 0\n 44703: ra = 1770, jump @19\n      : @1631 [@dyn 885] (gas: 7)\n 44710: u64 [s1 + 1208] = 0\n 44714: u64 [s1 + 1200] = 0\n 44718: u64 [s1 + 1184] = 0x5\n 44723: a0 = 0x20\n 44726: a1 = s1 + 0x4a0\n 44730: u64 [s1 + 1192] = 0\n 44734: ra = 1772, jump @19\n      : @1632 [@dyn 886] (gas: 3)\n 44741: a1 = u64 [s1 + 0x98]\n 44745: a0 = i32 [a1]\n 44747: jump @1634 if a0 >u 63\n      : @1633 (gas: 2)\n 44751: u32 [a1 + 0] = 0x40\n 44754: fallthrough\n      : @1634 (gas: 12)\n 44755: a0 = sp + 0xffffffffffffffe0\n 44758: a0 = a0 & 0xffffffffffffffe0\n 44761: u64 [s1 + 0x28] = a0\n 44764: sp = a0\n 44766: i32 a2 = a0 + 0\n 44768: a1 = 0x40\n 44771: a0 = u64 [s1 + 0xa0]\n 44775: ra = 0x6ee\n 44779: ecalli 9 // 'hash_keccak_256'\n 44781: a3 = u64 [s1 + 0x28]\n 44784: t0 = 0x6f0\n 44788: jump @2019\n      : @1635 [@dyn 887] (gas: 2)\n 44791: a3 = u64 [s1 + 0x28]\n 44794: t0 = 1776, jump @2019\n      : @1636 [@dyn 888] (gas: 17)\n 44800: u64 [s1 + 0x20] = a0\n 44803: a0 = reverse a1\n 44805: u64 [s1 + 0x18] = a0\n 44808: a0 = reverse a2\n 44810: u64 [s1 + 0x10] = a0\n 44813: a0 = reverse a3\n 44815: u64 [s1 + 0x8] = a0\n 44818: a0 = sp + 0xffffffffffffffe0\n 44821: a0 = a0 & 0xffffffffffffffe0\n 44824: u64 [s1 + 0x28] = a0\n 44827: sp = a0\n 44829: a0 = u64 [s1 + 0x48]\n 44832: ra = 0x6f2\n 44836: ecalli 5 // 'caller'\n 44838: a2 = u64 [s1 + 0x58]\n 44841: t0 = 0x6f4\n 44845: jump @1914\n      : @1637 [@dyn 889] (gas: 2)\n 44848: a2 = u64 [s1 + 0x58]\n 44851: t0 = 1780, jump @1914\n      : @1638 [@dyn 890] (gas: 7)\n 44857: u64 [s1 + 1176] = 0\n 44861: u64 [s1 + 0x490] = a1\n 44865: u64 [s1 + 0x488] = a0\n 44869: a1 = s1 + 0x480\n 44873: u64 [s1 + 0x480] = a3\n 44877: a0 = 0\n 44879: ra = 1782, jump @19\n      : @1639 [@dyn 891] (gas: 12)\n 44886: a0 = u64 [s1 + 0x8]\n 44889: a3 = s1 + 0x400\n 44893: u64 [a3 + 0x78] = a0\n 44896: a0 = u64 [s1 + 0x10]\n 44899: u64 [a3 + 0x70] = a0\n 44902: a0 = u64 [s1 + 0x18]\n 44905: u64 [a3 + 0x68] = a0\n 44908: a0 = 0x20\n 44911: a1 = s1 + 0x460\n 44915: a2 = u64 [s1 + 0x20]\n 44918: u64 [a3 + 0x60] = a2\n 44921: ra = 1784, jump @19\n      : @1640 [@dyn 892] (gas: 3)\n 44928: a1 = u64 [s1 + 0x98]\n 44932: a0 = i32 [a1]\n 44934: jump @1642 if a0 >u 63\n      : @1641 (gas: 2)\n 44938: u32 [a1 + 0] = 0x40\n 44941: fallthrough\n      : @1642 (gas: 12)\n 44942: a0 = sp + 0xffffffffffffffe0\n 44945: a0 = a0 & 0xffffffffffffffe0\n 44948: u64 [s1 + 0x20] = a0\n 44951: sp = a0\n 44953: i32 a2 = a0 + 0\n 44955: a1 = 0x40\n 44958: a0 = u64 [s1 + 0xa0]\n 44962: ra = 0x6fa\n 44966: ecalli 9 // 'hash_keccak_256'\n 44968: a3 = u64 [s1 + 0x20]\n 44971: t0 = 0x6fc\n 44975: jump @1921\n      : @1643 [@dyn 893] (gas: 2)\n 44978: a3 = u64 [s1 + 0x20]\n 44981: t0 = 1788, jump @1921\n      : @1644 [@dyn 894] (gas: 7)\n 44987: a1 = u64 [s1 + 0x28]\n 44990: u64 [a1 + 0x18] = a3\n 44993: u64 [a1 + 0x10] = a2\n 44996: u64 [a1 + 0x8] = a4\n 44999: u64 [a1] = a0\n 45001: a0 = s1 + 0x440\n 45005: ra = 1790, jump @21\n      : @1645 [@dyn 895] (gas: 2)\n 45012: a0 = u8 [s1 + 0x440]\n 45016: jump @1655 if a0 != 0\n      : @1646 (gas: 11)\n 45020: a0 = u64 [s1 + 0x78]\n 45023: u64 [s1 + 0x420] = a0\n 45027: a0 = u64 [s1 + 0x70]\n 45030: u64 [s1 + 0x428] = a0\n 45034: a0 = u64 [s1 + 0x68]\n 45037: u64 [s1 + 0x430] = a0\n 45041: a1 = s1 + 0x420\n 45045: a0 = u64 [s1 + 0x60]\n 45048: u64 [s1 + 0x438] = a0\n 45052: a0 = 0\n 45054: ra = 1792, jump @19\n      : @1647 [@dyn 896] (gas: 7)\n 45061: u64 [s1 + 1048] = 0\n 45065: u64 [s1 + 1040] = 0\n 45069: u64 [s1 + 1024] = 0x4\n 45074: a0 = 0x20\n 45077: a1 = s1 + 0x400\n 45081: u64 [s1 + 1032] = 0\n 45085: ra = 1794, jump @19\n      : @1648 [@dyn 897] (gas: 3)\n 45092: a0 = u64 [s1 + 0x48]\n 45095: ecalli 5 // 'caller'\n 45097: fallthrough\n      : @1649 (gas: 20)\n 45098: a2 = u64 [s1 + 0x58]\n 45101: a0 = u64 [a2 + 0x8]\n 45104: a1 = u64 [a2]\n 45106: a2 = i32 [a2 + 0x10]\n 45109: a0 = reverse a0\n 45111: a3 = a0 >> 0x20\n 45114: a1 = reverse a1\n 45116: a4 = a1 << 0x20\n 45119: a3 = a3 | a4\n 45122: u64 [s1 + 0x28] = a3\n 45125: a0 = a0 << 0x20\n 45128: a2 = reverse a2\n 45130: a4 = u64 [s1 + 0x98]\n 45134: a3 = i32 [a4]\n 45136: a2 = a2 >> 0x20\n 45139: a0 = a0 | a2\n 45142: u64 [s1 + 0x20] = a0\n 45145: a1 = a1 >> 0x20\n 45148: u64 [s1 + 0x18] = a1\n 45151: jump @1651 if a3 >u 63\n      : @1650 (gas: 2)\n 45155: u32 [a4 + 0] = 0x40\n 45158: fallthrough\n      : @1651 (gas: 12)\n 45159: a0 = sp + 0xffffffffffffffe0\n 45162: a0 = a0 & 0xffffffffffffffe0\n 45165: u64 [s1 + 0x10] = a0\n 45168: sp = a0\n 45170: i32 a2 = a0 + 0\n 45172: a1 = 0x40\n 45175: a0 = u64 [s1 + 0xa0]\n 45179: ra = 0x704\n 45183: ecalli 9 // 'hash_keccak_256'\n 45185: a3 = u64 [s1 + 0x10]\n 45188: t0 = 0x706\n 45192: jump @1979\n      : @1652 [@dyn 898] (gas: 2)\n 45195: a3 = u64 [s1 + 0x10]\n 45198: t0 = 1798, jump @1979\n      : @1653 [@dyn 899] (gas: 7)\n 45204: u64 [a4 + 0x78] = a3\n 45207: u64 [a4 + 0x70] = a2\n 45210: u64 [a4 + 0x68] = a1\n 45213: u64 [a4 + 0x60] = a0\n 45216: a0 = s1 + 0x3e0\n 45220: a1 = s1 + 0x560\n 45224: ra = 1800, jump @21\n      : @1654 [@dyn 900] (gas: 12)\n 45231: a0 = u32 [s1 + 0x3f0]\n 45235: a1 = u64 [s1 + 0x3e0]\n 45239: a2 = u64 [s1 + 0x3e8]\n 45243: a3 = u64 [s1 + 0x18]\n 45246: a0 = a0 ^ a3\n 45249: a3 = u64 [s1 + 0x20]\n 45252: a1 = a1 ^ a3\n 45255: a0 = a0 | a1\n 45258: a1 = u64 [s1 + 0x28]\n 45261: a1 = a1 ^ a2\n 45264: a0 = a0 | a1\n 45267: jump @1701 if a0 != 0\n      : @1655 (gas: 6)\n 45271: a0 = u64 [s1 + 0xb8]\n 45275: a1 = u64 [s1 + 0xa8]\n 45279: a0 = a0 | a1\n 45282: a1 = u64 [s1 + 0xb0]\n 45286: a0 = a0 | a1\n 45289: jump @1667 if a0 == 0\n      : @1656 (gas: 10)\n 45293: a0 = u64 [s1 + 0x78]\n 45296: u64 [s1 + 0x320] = a0\n 45300: a0 = u64 [s1 + 0x70]\n 45303: u64 [s1 + 0x328] = a0\n 45307: a0 = u64 [s1 + 0x68]\n 45310: u64 [s1 + 0x330] = a0\n 45314: a0 = s1 + 0x320\n 45318: a1 = u64 [s1 + 0x60]\n 45321: u64 [s1 + 0x338] = a1\n 45325: ra = 1802, jump @1898\n      : @1657 [@dyn 901] (gas: 11)\n 45331: u64 [s1 + 792] = 0\n 45335: a0 = u64 [s1 + 0xa8]\n 45339: a2 = s1 + 0x300\n 45343: u64 [a2 + 0x10] = a0\n 45346: a0 = u64 [s1 + 0xb0]\n 45350: u64 [a2 + 0x8] = a0\n 45353: a1 = s1 + 0x300\n 45357: a0 = u64 [s1 + 0xb8]\n 45361: u64 [a2] = a0\n 45363: a0 = 0\n 45365: ra = 1804, jump @19\n      : @1658 [@dyn 902] (gas: 7)\n 45372: u64 [s1 + 760] = 0\n 45376: u64 [s1 + 752] = 0\n 45380: u64 [s1 + 736] = 0x3\n 45385: a0 = 0x20\n 45388: a1 = s1 + 0x2e0\n 45392: u64 [s1 + 744] = 0\n 45396: ra = 1806, jump @19\n      : @1659 [@dyn 903] (gas: 7)\n 45403: a0 = sp + 0xffffffffffffffe0\n 45406: a0 = a0 & 0xffffffffffffffe0\n 45409: u64 [s1 + 0x58] = a0\n 45412: sp = a0\n 45414: a2 = u64 [s1 + 0x98]\n 45418: a0 = i32 [a2]\n 45420: jump @1661 if a0 >u 63\n      : @1660 (gas: 3)\n 45424: u32 [a2 + 0] = 0x40\n 45427: t0 = 0x710\n 45431: jump @1962\n      : @1661 (gas: 1)\n 45434: t0 = 1808, jump @1962\n      : @1662 [@dyn 904] (gas: 4)\n 45440: ra = 0x712\n 45444: ecalli 9 // 'hash_keccak_256'\n 45446: t0 = 0x714\n 45450: jump @1923\n      : @1663 [@dyn 905] (gas: 1)\n 45453: t0 = 1812, jump @1923\n      : @1664 [@dyn 906] (gas: 2)\n 45459: a0 = s1 + 0x2c0\n 45463: ra = 1814, jump @21\n      : @1665 [@dyn 907] (gas: 2)\n 45470: a4 = s1 + 0x200\n 45474: t0 = 1816, jump @1966\n      : @1666 [@dyn 908] (gas: 8)\n 45480: a4 = s1 + 0x500\n 45484: u64 [a4 + 0x80] = a1\n 45488: u64 [a4 + 0x88] = a0\n 45492: u64 [a4 + 0x90] = a2\n 45496: u64 [a4 + 0x98] = a3\n 45500: a1 = s1 + 0x580\n 45504: a0 = u64 [s1 + 0x58]\n 45507: ra = 1818, jump @23\n      : @1667 [@dyn 909] (gas: 10)\n 45514: u64 [s1 + 696] = 0\n 45518: a0 = u64 [s1 + 0x90]\n 45522: u64 [s1 + 0x2a0] = a0\n 45526: a0 = u64 [s1 + 0x80]\n 45530: u64 [s1 + 0x2a8] = a0\n 45534: a1 = s1 + 0x2a0\n 45538: a0 = u64 [s1 + 0x88]\n 45542: u64 [s1 + 0x2b0] = a0\n 45546: a0 = 0\n 45548: ra = 1820, jump @19\n      : @1668 [@dyn 910] (gas: 7)\n 45555: u64 [s1 + 664] = 0\n 45559: u64 [s1 + 656] = 0\n 45563: u64 [s1 + 640] = 0x3\n 45568: a0 = 0x20\n 45571: a1 = s1 + 0x280\n 45575: u64 [s1 + 648] = 0\n 45579: ra = 1822, jump @19\n      : @1669 [@dyn 911] (gas: 7)\n 45586: a0 = sp + 0xffffffffffffffe0\n 45589: a0 = a0 & 0xffffffffffffffe0\n 45592: u64 [s1 + 0x58] = a0\n 45595: sp = a0\n 45597: a1 = u64 [s1 + 0x98]\n 45601: a0 = i32 [a1]\n 45603: jump @1671 if a0 >u 63\n      : @1670 (gas: 3)\n 45607: u32 [a1 + 0] = 0x40\n 45610: t0 = 0x720\n 45614: jump @1962\n      : @1671 (gas: 1)\n 45617: t0 = 1824, jump @1962\n      : @1672 [@dyn 912] (gas: 4)\n 45623: ra = 0x722\n 45627: ecalli 9 // 'hash_keccak_256'\n 45629: t0 = 0x724\n 45633: jump @1923\n      : @1673 [@dyn 913] (gas: 1)\n 45636: t0 = 1828, jump @1923\n      : @1674 [@dyn 914] (gas: 2)\n 45642: a0 = s1 + 0x260\n 45646: ra = 1830, jump @21\n      : @1675 [@dyn 915] (gas: 5)\n 45653: a0 = u64 [s1 + 0x260]\n 45657: a1 = u64 [s1 + 0x278]\n 45661: a2 = u64 [s1 + 0x268]\n 45665: a3 = u64 [s1 + 0x270]\n 45669: t0 = 1832, jump @1982\n      : @1676 [@dyn 916] (gas: 8)\n 45675: a3 = s1 + 0x500\n 45679: u64 [a3 + 0xa0] = a0\n 45683: u64 [a3 + 0xa8] = a2\n 45687: u64 [a3 + 0xb0] = a4\n 45691: u64 [a3 + 0xb8] = a1\n 45695: a1 = s1 + 0x5a0\n 45699: a0 = u64 [s1 + 0x58]\n 45702: ra = 1834, jump @23\n      : @1677 [@dyn 917] (gas: 11)\n 45709: a0 = u64 [s1 + 0x60]\n 45712: u64 [s1 + 0x258] = a0\n 45716: a0 = u64 [s1 + 0x68]\n 45719: u64 [s1 + 0x250] = a0\n 45723: a0 = u64 [s1 + 0x70]\n 45726: u64 [s1 + 0x248] = a0\n 45730: a1 = s1 + 0x240\n 45734: a0 = u64 [s1 + 0x78]\n 45737: u64 [s1 + 0x240] = a0\n 45741: a0 = 0\n 45743: ra = 1836, jump @19\n      : @1678 [@dyn 918] (gas: 7)\n 45750: u64 [s1 + 568] = 0\n 45754: u64 [s1 + 560] = 0\n 45758: u64 [s1 + 544] = 0x2\n 45763: a0 = 0x20\n 45766: a1 = s1 + 0x220\n 45770: u64 [s1 + 552] = 0\n 45774: ra = 1838, jump @19\n      : @1679 [@dyn 919] (gas: 7)\n 45781: a1 = u64 [s1 + 0x98]\n 45785: a0 = sp + 0xffffffffffffffe0\n 45788: a0 = a0 & 0xffffffffffffffe0\n 45791: u64 [s1 + 0x58] = a0\n 45794: sp = a0\n 45796: a0 = i32 [a1]\n 45798: jump @1681 if a0 >u 63\n      : @1680 (gas: 3)\n 45802: u32 [a1 + 0] = 0x40\n 45805: t0 = 0x730\n 45809: jump @1962\n      : @1681 (gas: 1)\n 45812: t0 = 1840, jump @1962\n      : @1682 [@dyn 920] (gas: 4)\n 45818: ra = 0x732\n 45822: ecalli 9 // 'hash_keccak_256'\n 45824: t0 = 0x734\n 45828: jump @1923\n      : @1683 [@dyn 921] (gas: 1)\n 45831: t0 = 1844, jump @1923\n      : @1684 [@dyn 922] (gas: 2)\n 45837: a0 = s1 + 0x200\n 45841: ra = 1846, jump @21\n      : @1685 [@dyn 923] (gas: 15)\n 45848: a0 = u32 [s1 + 0x214]\n 45852: a0 = a0 << 0x20\n 45855: a1 = u64 [s1 + 0x218]\n 45859: a2 = u64 [s1 + 0x88]\n 45863: a0 = a0 | a2\n 45866: a2 = u64 [s1 + 0x80]\n 45870: a3 = s1 + 0x500\n 45874: u64 [a3 + 0xc8] = a2\n 45878: a2 = u64 [s1 + 0x90]\n 45882: u64 [a3 + 0xc0] = a2\n 45886: u64 [a3 + 0xd8] = a1\n 45890: u64 [a3 + 0xd0] = a0\n 45894: a1 = s1 + 0x5c0\n 45898: a0 = u64 [s1 + 0x58]\n 45901: ra = 1848, jump @23\n      : @1686 [@dyn 924] (gas: 37)\n 45908: a0 = u64 [s1 + 0x60]\n 45911: u64 [s1 + 0x198] = a0\n 45915: a0 = u64 [s1 + 0x68]\n 45918: u64 [s1 + 0x190] = a0\n 45922: a0 = u64 [s1 + 0x70]\n 45925: u64 [s1 + 0x188] = a0\n 45929: a0 = u64 [s1 + 0x78]\n 45932: u64 [s1 + 0x180] = a0\n 45936: u64 [s1 + 440] = 0\n 45940: a0 = u64 [s1 + 0x88]\n 45944: u64 [s1 + 0x1b0] = a0\n 45948: a0 = u64 [s1 + 0x80]\n 45952: u64 [s1 + 0x1a8] = a0\n 45956: a0 = u64 [s1 + 0x90]\n 45960: u64 [s1 + 0x1a0] = a0\n 45964: u64 [s1 + 472] = 0\n 45968: a0 = u64 [s1 + 0xa8]\n 45972: u64 [s1 + 0x1d0] = a0\n 45976: a0 = u64 [s1 + 0xb0]\n 45980: u64 [s1 + 0x1c8] = a0\n 45984: a0 = u64 [0x201c8]\n 45989: a1 = u64 [0x201d0]\n 45994: a2 = u64 [0x201d8]\n 45999: a3 = u64 [s1 + 0xb8]\n 46003: u64 [s1 + 0x1c0] = a3\n 46007: u64 [s1 + 0x1f8] = a0\n 46011: u64 [s1 + 0x1f0] = a1\n 46015: u64 [s1 + 0x1e8] = a2\n 46019: a0 = u64 [0x201e0]\n 46024: a2 = s1 + 0x1e0\n 46028: a3 = s1 + 0x1c0\n 46032: a4 = s1 + 0x1a0\n 46036: a5 = s1 + 0x180\n 46040: u64 [s1 + 0x1e0] = a0\n 46044: a0 = 0\n 46046: a1 = 0\n 46048: ra = 1850, jump @31\n      : @1687 [@dyn 925] (gas: 16)\n 46055: t0 = u64 [s1 + 0xa8]\n 46059: t1 = u64 [s1 + 0xb0]\n 46063: a0 = u64 [s1 + 0x30]\n 46066: a4 = a0 & 0xffffffffffffffff\n 46069: a0 = u64 [s1 + 0x40]\n 46072: a2 = u64 [s1 + 0x50]\n 46075: a3 = a0 & a2\n 46078: a2 = u64 [s1 + 0xb8]\n 46082: a0 = u64 [s1 + 0x38]\n 46085: a5 = a0 & 0xffffffffffffffff\n 46088: a0 = a2 ^ a5\n 46091: a1 = t0 ^ a3\n 46094: a0 = a0 | a1\n 46097: a1 = t1 ^ a4\n 46100: a0 = a0 | a1\n 46103: jump @1694 if a0 != 0\n      : @1688 (gas: 7)\n 46107: sp = s0 + 0xfffffffffffffa00\n 46111: a0 = sp + 0x500\n 46115: ra = u64 [a0 + 0xf8]\n 46119: s0 = u64 [a0 + 0xf0]\n 46123: s1 = u64 [a0 + 0xe8]\n 46127: sp = sp + 0x600\n 46131: ret\n      : @1689 (gas: 8)\n 46133: u64 [s1 + 240] = 0\n 46137: u64 [s1 + 232] = 0\n 46141: u64 [s1 + 224] = 0\n 46145: a0 = 0x64a0ae9200000000\n 46155: a1 = s1 + 0xe0\n 46159: u64 [s1 + 0xf8] = a0\n 46163: a0 = 0\n 46165: ra = 1852, jump @19\n      : @1690 [@dyn 926] (gas: 7)\n 46172: u64 [s1 + 216] = 0\n 46176: u64 [s1 + 208] = 0\n 46180: u64 [s1 + 200] = 0\n 46184: a0 = 0x4\n 46187: a1 = s1 + 0xc0\n 46191: u64 [s1 + 192] = 0\n 46195: ra = 1854, jump @19\n      : @1691 [@dyn 927] (gas: 2)\n 46202: a1 = i32 [0x2020c]\n 46207: jump @1693 if a1 >u 63\n      : @1692 (gas: 2)\n 46211: u32 [0x2020c] = 0x40\n 46217: fallthrough\n      : @1693 (gas: 6)\n 46218: a1 = 0x20220\n 46223: i32 a1 = a1 + 0\n 46225: a0 = 0x1\n 46228: a2 = 0x24\n 46231: ecalli 13 // 'seal_return'\n 46233: fallthrough\n      : @1694 (gas: 11)\n 46234: u64 [s1 + 368] = 0\n 46238: u64 [s1 + 360] = 0\n 46242: u64 [s1 + 352] = 0\n 46246: a0 = 0x64283d7b00000000\n 46256: a1 = s1 + 0x160\n 46260: u64 [s1 + 0x178] = a0\n 46264: a0 = 0\n 46266: u64 [s1 + 0x90] = a5\n 46270: u64 [s1 + 0x88] = a4\n 46274: u64 [s1 + 0x80] = a3\n 46278: ra = 1856, jump @19\n      : @1695 [@dyn 928] (gas: 10)\n 46285: u64 [s1 + 344] = 0\n 46289: a0 = u64 [s1 + 0x80]\n 46293: u64 [s1 + 0x150] = a0\n 46297: a0 = u64 [s1 + 0x88]\n 46301: u64 [s1 + 0x148] = a0\n 46305: a0 = 0x4\n 46308: a1 = s1 + 0x140\n 46312: a2 = u64 [s1 + 0x90]\n 46316: u64 [s1 + 0x140] = a2\n 46320: ra = 1858, jump @19\n      : @1696 [@dyn 929] (gas: 11)\n 46327: a0 = u64 [s1 + 0x60]\n 46330: u64 [s1 + 0x138] = a0\n 46334: a0 = u64 [s1 + 0x68]\n 46337: u64 [s1 + 0x130] = a0\n 46341: a0 = u64 [s1 + 0x70]\n 46344: u64 [s1 + 0x128] = a0\n 46348: a0 = 0x24\n 46351: a1 = s1 + 0x120\n 46355: a2 = u64 [s1 + 0x78]\n 46358: u64 [s1 + 0x120] = a2\n 46362: ra = 1860, jump @19\n      : @1697 [@dyn 930] (gas: 11)\n 46369: u64 [s1 + 280] = 0\n 46373: a0 = u64 [s1 + 0xa8]\n 46377: a3 = s1 + 0x100\n 46381: u64 [a3 + 0x10] = a0\n 46384: a0 = u64 [s1 + 0xb0]\n 46388: u64 [a3 + 0x8] = a0\n 46391: a0 = 0x44\n 46394: a1 = s1 + 0x100\n 46398: a2 = u64 [s1 + 0xb8]\n 46402: u64 [a3] = a2\n 46404: ra = 1862, jump @19\n      : @1698 [@dyn 931] (gas: 3)\n 46411: a0 = u64 [s1 + 0x98]\n 46415: a0 = i32 [a0]\n 46417: jump @1700 if a0 >u 127\n      : @1699 (gas: 7)\n 46421: a1 = u64 [s1 + 0x98]\n 46425: u32 [a1 + 0] = 0x80\n 46429: a0 = 0x1\n 46432: a2 = 0x64\n 46435: a1 = u64 [s1 + 0xa0]\n 46439: ecalli 13 // 'seal_return'\n 46441: jump @1701\n      : @1700 (gas: 5)\n 46443: a0 = 0x1\n 46446: a2 = 0x64\n 46449: a1 = u64 [s1 + 0xa0]\n 46453: ecalli 13 // 'seal_return'\n 46455: fallthrough\n      : @1701 (gas: 6)\n 46456: a0 = u64 [s1 + 0xb8]\n 46460: a1 = u64 [s1 + 0xa8]\n 46464: a0 = a0 | a1\n 46467: a1 = u64 [s1 + 0xb0]\n 46471: a0 = a0 | a1\n 46474: jump @1710 if a0 == 0\n      : @1702 (gas: 8)\n 46478: u64 [s1 + 976] = 0\n 46482: u64 [s1 + 968] = 0\n 46486: u64 [s1 + 960] = 0\n 46490: a0 = 0x177e802f00000000\n 46500: a1 = s1 + 0x3c0\n 46504: u64 [s1 + 0x3d8] = a0\n 46508: a0 = 0\n 46510: ra = 1864, jump @19\n      : @1703 [@dyn 932] (gas: 6)\n 46517: a0 = u64 [s1 + 0x48]\n 46520: ra = 0x74a\n 46524: ecalli 5 // 'caller'\n 46526: a2 = u64 [s1 + 0x58]\n 46529: t0 = 0x74c\n 46533: jump @1914\n      : @1704 [@dyn 933] (gas: 2)\n 46536: a2 = u64 [s1 + 0x58]\n 46539: t0 = 1868, jump @1914\n      : @1705 [@dyn 934] (gas: 7)\n 46545: u64 [s1 + 952] = 0\n 46549: u64 [s1 + 0x3b0] = a1\n 46553: u64 [s1 + 0x3a8] = a0\n 46557: a0 = 0x4\n 46560: a1 = s1 + 0x3a0\n 46564: u64 [s1 + 0x3a0] = a3\n 46568: ra = 1870, jump @19\n      : @1706 [@dyn 935] (gas: 12)\n 46575: a0 = u64 [s1 + 0x60]\n 46578: a3 = s1 + 0x300\n 46582: u64 [a3 + 0x98] = a0\n 46586: a0 = u64 [s1 + 0x68]\n 46589: u64 [a3 + 0x90] = a0\n 46593: a0 = u64 [s1 + 0x70]\n 46596: u64 [a3 + 0x88] = a0\n 46600: a0 = 0x24\n 46603: a1 = s1 + 0x380\n 46607: a2 = u64 [s1 + 0x78]\n 46610: u64 [a3 + 0x80] = a2\n 46614: ra = 1872, jump @19\n      : @1707 [@dyn 936] (gas: 3)\n 46621: a0 = u64 [s1 + 0x98]\n 46625: a0 = i32 [a0]\n 46627: jump @1709 if a0 >u 95\n      : @1708 (gas: 7)\n 46631: a1 = u64 [s1 + 0x98]\n 46635: u32 [a1 + 0] = 0x60\n 46638: a0 = 0x1\n 46641: a2 = 0x44\n 46644: a1 = u64 [s1 + 0xa0]\n 46648: ecalli 13 // 'seal_return'\n 46650: jump @1701\n      : @1709 (gas: 5)\n 46653: a0 = 0x1\n 46656: a2 = 0x44\n 46659: a1 = u64 [s1 + 0xa0]\n 46663: ecalli 13 // 'seal_return'\n 46665: jump @1701\n      : @1710 (gas: 8)\n 46668: u64 [s1 + 880] = 0\n 46672: u64 [s1 + 872] = 0\n 46676: u64 [s1 + 864] = 0\n 46680: a0 = 0x7e27328900000000\n 46690: a1 = s1 + 0x360\n 46694: u64 [s1 + 0x378] = a0\n 46698: a0 = 0\n 46700: ra = 1874, jump @19\n      : @1711 [@dyn 937] (gas: 12)\n 46707: a0 = u64 [s1 + 0x60]\n 46710: a3 = s1 + 0x300\n 46714: u64 [a3 + 0x58] = a0\n 46717: a0 = u64 [s1 + 0x68]\n 46720: u64 [a3 + 0x50] = a0\n 46723: a0 = u64 [s1 + 0x70]\n 46726: u64 [a3 + 0x48] = a0\n 46729: a0 = 0x4\n 46732: a1 = s1 + 0x340\n 46736: a2 = u64 [s1 + 0x78]\n 46739: u64 [a3 + 0x40] = a2\n 46742: ra = 1876, jump @19\n      : @1712 [@dyn 938] (gas: 3)\n 46749: a0 = u64 [s1 + 0x98]\n 46753: a0 = i32 [a0]\n 46755: jump @1714 if a0 >u 63\n      : @1713 (gas: 7)\n 46759: a1 = u64 [s1 + 0x98]\n 46763: u32 [a1 + 0] = 0x40\n 46766: a0 = 0x1\n 46769: a2 = 0x24\n 46772: a1 = u64 [s1 + 0xa0]\n 46776: ecalli 13 // 'seal_return'\n 46778: jump @1701\n      : @1714 (gas: 5)\n 46781: a0 = 0x1\n 46784: a2 = 0x24\n 46787: a1 = u64 [s1 + 0xa0]\n 46791: ecalli 13 // 'seal_return'\n 46793: jump @1701\n      : @1715 (gas: 16)\n 46796: a2 = u64 [a1]\n 46798: t0 = u64 [a1 + 0x18]\n 46801: a3 = u64 [a1 + 0x8]\n 46804: a5 = u64 [a1 + 0x10]\n 46807: a4 = a2 + 0x1\n 46810: a2 = a4 <u 0x1\n 46813: a2 = a2 + a3\n 46816: a3 = a4 | a2\n 46819: a3 = a3 <u 0x1\n 46822: a3 = a3 + a5\n 46825: a5 = a3 <u a5\n 46828: a5 = a5 + t0\n 46831: t0 = a2 | a5\n 46834: a1 = a4 | a3\n 46837: a1 = a1 | t0\n 46840: jump @1717 if a1 == 0\n      : @1716 (gas: 5)\n 46843: u64 [a0] = a4\n 46845: u64 [a0 + 0x8] = a2\n 46848: u64 [a0 + 0x10] = a3\n 46851: u64 [a0 + 0x18] = a5\n 46854: ret\n      : @1717 (gas: 6)\n 46856: sp = sp + 0xffffffffffffffb0\n 46859: u64 [sp + 0x48] = ra\n 46862: u64 [sp + 0x40] = s0\n 46865: s0 = sp + 0x50\n 46868: sp = sp & 0xfffffffffffffff0\n 46871: t0 = 1878, jump @1922\n      : @1718 [@dyn 939] (gas: 1)\n 46877: ra = 1880, jump @19\n      : @1719 [@dyn 940] (gas: 7)\n 46884: u64 [sp + 24] = 0\n 46887: u64 [sp + 16] = 0\n 46890: u64 [sp + 0] = 0x11\n 46893: a0 = 0x4\n 46896: a1 = sp\n 46898: u64 [sp + 8] = 0\n 46901: ra = 1882, jump @19\n      : @1720 [@dyn 941] (gas: 2)\n 46908: a1 = i32 [0x2020c]\n 46913: jump @1722 if a1 >u 63\n      : @1721 (gas: 2)\n 46917: u32 [0x2020c] = 0x40\n 46923: fallthrough\n      : @1722 (gas: 7)\n 46924: a1 = 0x20220\n 46929: i32 a1 = a1 + 0\n 46931: a0 = 0x1\n 46934: a2 = 0x24\n 46937: ra = 0x75c\n 46941: ecalli 13 // 'seal_return'\n 46943: fallthrough\n      : @1723 [@dyn 942] (gas: 55)\n 46944: sp = sp + 0xfffffffffffffb80\n 46948: a4 = sp + 0x400\n 46952: u64 [a4 + 0x78] = ra\n 46955: u64 [a4 + 0x70] = s0\n 46958: u64 [a4 + 0x68] = s1\n 46961: s0 = sp + 0x480\n 46965: sp = sp & 0xffffffffffffffe0\n 46968: a4 = u64 [a3 + 0x18]\n 46971: u64 [sp + 0x20] = a4\n 46974: a4 = u64 [a3 + 0x10]\n 46977: u64 [sp + 0x28] = a4\n 46980: a4 = u64 [a3 + 0x8]\n 46983: u64 [sp + 0x30] = a4\n 46986: a3 = u64 [a3]\n 46988: u64 [sp + 0x38] = a3\n 46991: ra = u64 [a0]\n 46993: t1 = u64 [a0 + 0x8]\n 46996: t2 = u64 [a0 + 0x10]\n 46999: a0 = u64 [a0 + 0x18]\n 47002: u64 [sp + 0xb8] = a0\n 47006: t0 = u64 [a1]\n 47008: u64 [sp + 0x88] = t0\n 47012: s1 = u64 [a1 + 0x8]\n 47015: a0 = u64 [a1 + 0x10]\n 47018: u64 [sp + 0xa0] = a0\n 47022: a1 = u64 [a1 + 0x18]\n 47025: a3 = u64 [a2]\n 47027: a4 = u64 [a2 + 0x8]\n 47030: a5 = u64 [a2 + 0x10]\n 47033: a2 = u64 [a2 + 0x18]\n 47036: u64 [sp + 0x60] = a2\n 47039: u64 [sp + 0x3b8] = a2\n 47043: u64 [sp + 0x48] = a5\n 47046: u64 [sp + 0x3b0] = a5\n 47050: u64 [sp + 0x50] = a4\n 47053: a5 = sp + 0x300\n 47057: u64 [a5 + 0xa8] = a4\n 47061: u64 [sp + 0x58] = a3\n 47064: u64 [a5 + 0xa0] = a3\n 47068: u64 [a5 + 0xd8] = a1\n 47072: u64 [a5 + 0xd0] = a0\n 47076: u64 [a5 + 0xc8] = s1\n 47080: u64 [a5 + 0xc0] = t0\n 47084: a0 = u64 [sp + 0xb8]\n 47088: u64 [a5 + 0xf8] = a0\n 47092: u64 [sp + 0x68] = t2\n 47095: u64 [a5 + 0xf0] = t2\n 47099: u64 [sp + 0x70] = t1\n 47102: u64 [a5 + 0xe8] = t1\n 47106: a0 = sp + 0x3e0\n 47110: a1 = sp + 0x3c0\n 47114: a2 = sp + 0x3a0\n 47118: u64 [sp + 0x78] = ra\n 47121: u64 [a5 + 0xe0] = ra\n 47125: ra = 1886, jump @1617\n      : @1724 [@dyn 943] (gas: 24)\n 47131: u64 [sp + 0x8] = s1\n 47134: a0 = reverse s1\n 47136: a1 = a0 << 0x20\n 47139: a2 = u64 [sp + 0xa0]\n 47143: a2 = reverse a2\n 47145: a2 = a2 >> 0x20\n 47148: a3 = a2 | a1\n 47151: a0 = a0 >> 0x20\n 47154: a1 = u64 [sp + 0x88]\n 47158: a1 = reverse a1\n 47160: s1 = 0x30220\n 47165: a2 = a1 << 0x20\n 47168: a0 = a0 | a2\n 47171: a1 = a1 >> 0x20\n 47174: u64 [sp + 0x18] = a1\n 47177: u32 [0x30230] = a1\n 47182: u64 [sp + 0x10] = a0\n 47185: u64 [0x30228] = a0\n 47190: u64 [sp + 0x40] = a3\n 47193: u64 [0x30220] = a3\n 47198: i32 a0 = s1 + 0\n 47200: u64 [sp + 0x98] = a0\n 47204: ecalli 6 // 'code_size'\n 47206: fallthrough\n      : @1725 (gas: 1)\n 47207: jump @1754 if a0 == 0\n      : @1726 (gas: 4)\n 47211: u64 [sp + 0x90] = s1\n 47215: a0 = sp + 0x380\n 47219: a1 = 0x40\n 47222: ra = 1888, jump @17\n      : @1727 [@dyn 944] (gas: 15)\n 47229: a3 = sp + 0x300\n 47233: a2 = u64 [a3 + 0x98]\n 47237: s1 = u64 [a3 + 0x90]\n 47241: a1 = u64 [a3 + 0x88]\n 47245: a0 = u64 [a3 + 0x80]\n 47249: u64 [sp + 0xb0] = a1\n 47253: u64 [sp + 0xa8] = a2\n 47257: a2 = a2 | a1\n 47260: a1 = a0 | s1\n 47263: a1 = a1 | a2\n 47266: a1 = a1 >> 0x20\n 47269: a2 = a2 | s1\n 47272: a2 = a2 << 0x20\n 47275: a1 = a1 | a2\n 47278: jump @1772 if a1 != 0\n      : @1728 (gas: 9)\n 47282: a3 = sp + 0x300\n 47286: u64 [a3 + 112] = 0\n 47289: u64 [a3 + 104] = 0\n 47292: u64 [a3 + 96] = 0\n 47295: a2 = 0x150b7a0200000000\n 47305: a1 = sp + 0x360\n 47309: u64 [a3 + 0x78] = a2\n 47312: u64 [sp + 0xb8] = a0\n 47316: ra = 1890, jump @19\n      : @1729 [@dyn 945] (gas: 4)\n 47323: a0 = u64 [sp + 0x98]\n 47327: ra = 0x764\n 47331: ecalli 5 // 'caller'\n 47333: fallthrough\n      : @1730 [@dyn 946] (gas: 12)\n 47334: a4 = u64 [sp + 0xb8]\n 47338: u64 [sp + 0x80] = s1\n 47342: a2 = u64 [sp + 0xa8]\n 47346: a2 = a2 | s1\n 47349: s1 = 0x100000000\n 47359: a0 = 0xfffffffc\n 47369: a0 = a4 <u a0\n 47372: a1 = u64 [sp + 0xb0]\n 47376: a0 = 0 if a1 != 0\n 47378: u64 [sp + 0x98] = a2\n 47382: a0 = 0 if a2 != 0\n 47384: jump @1772 if a0 == 0\n      : @1731 (gas: 2)\n 47388: a2 = u64 [sp + 0x90]\n 47392: t0 = 1894, jump @1950\n      : @1732 [@dyn 947] (gas: 8)\n 47398: i32 a0 = a4 + 0x4\n 47401: a4 = sp + 0x300\n 47405: u64 [a4 + 88] = 0\n 47408: u64 [a4 + 0x50] = a1\n 47411: u64 [a4 + 0x48] = a2\n 47414: a1 = sp + 0x340\n 47418: u64 [a4 + 0x40] = a3\n 47421: ra = 1896, jump @19\n      : @1733 [@dyn 948] (gas: 8)\n 47428: a4 = u64 [sp + 0xb8]\n 47432: a0 = s1 + 0xffffffffffffffdc\n 47435: a0 = a4 <u a0\n 47438: a1 = u64 [sp + 0xb0]\n 47442: a0 = 0 if a1 != 0\n 47444: a1 = u64 [sp + 0x98]\n 47448: a0 = 0 if a1 != 0\n 47450: jump @1772 if a0 == 0\n      : @1734 (gas: 15)\n 47454: a1 = 0xffffffff\n 47464: a2 = u64 [sp + 0x68]\n 47467: a2 = a2 & a1\n 47470: a1 = u64 [sp + 0x70]\n 47473: a1 = a1 & 0xffffffffffffffff\n 47476: a3 = u64 [sp + 0x78]\n 47479: a3 = a3 & 0xffffffffffffffff\n 47482: i32 a0 = a4 + 0x24\n 47485: a4 = sp + 0x300\n 47489: u64 [a4 + 56] = 0\n 47492: u64 [a4 + 0x20] = a3\n 47495: u64 [a4 + 0x28] = a1\n 47498: a1 = sp + 0x320\n 47502: u64 [a4 + 0x30] = a2\n 47505: ra = 1898, jump @19\n      : @1735 [@dyn 949] (gas: 9)\n 47512: a1 = u64 [sp + 0xb8]\n 47516: s1 = 0x100000000\n 47526: a0 = 0xffffffbc\n 47536: a0 = a1 <u a0\n 47539: a2 = u64 [sp + 0xb0]\n 47543: a0 = 0 if a2 != 0\n 47545: a2 = u64 [sp + 0x98]\n 47549: a0 = 0 if a2 != 0\n 47551: jump @1772 if a0 == 0\n      : @1736 (gas: 12)\n 47555: i32 a0 = a1 + 0x44\n 47558: a1 = u64 [sp + 0x58]\n 47561: a3 = sp + 0x300\n 47565: u64 [a3] = a1\n 47567: a1 = u64 [sp + 0x50]\n 47570: u64 [a3 + 0x8] = a1\n 47573: a1 = u64 [sp + 0x48]\n 47576: u64 [a3 + 0x10] = a1\n 47579: a1 = sp + 0x300\n 47583: a2 = u64 [sp + 0x60]\n 47586: u64 [a3 + 0x18] = a2\n 47589: ra = 1900, jump @19\n      : @1737 [@dyn 950] (gas: 8)\n 47596: a2 = u64 [sp + 0xb8]\n 47600: a0 = s1 + 0xffffffffffffff9c\n 47603: a0 = a2 <u a0\n 47606: s1 = u64 [sp + 0xb0]\n 47610: a0 = 0 if s1 != 0\n 47612: a1 = u64 [sp + 0x98]\n 47616: a0 = 0 if a1 != 0\n 47618: jump @1772 if a0 == 0\n      : @1738 (gas: 8)\n 47622: i32 a0 = a2 + 0x64\n 47625: a2 = sp + 0x200\n 47629: u64 [a2 + 248] = 0\n 47633: u64 [a2 + 240] = 0\n 47637: u64 [a2 + 224] = 0x80\n 47643: a1 = sp + 0x2e0\n 47647: u64 [a2 + 232] = 0\n 47651: ra = 1902, jump @19\n      : @1739 [@dyn 951] (gas: 28)\n 47658: a1 = u64 [sp + 0xb8]\n 47662: a0 = a1 + 0x84\n 47666: a1 = a0 <u a1\n 47669: a2 = s1 + a1\n 47672: a3 = a2 <u s1\n 47675: a3 = a1 if a1 == 0\n 47678: s1 = u64 [sp + 0x80]\n 47682: a3 = a3 + s1\n 47685: a1 = a3 <u s1\n 47688: a4 = u64 [sp + 0xa8]\n 47692: a4 = a4 + a1\n 47695: a5 = sp + 0x200\n 47699: u64 [a5 + 0x88] = a2\n 47703: u64 [a5 + 0x80] = a0\n 47707: a0 = u64 [sp + 0x20]\n 47710: u64 [a5 + 0xb8] = a0\n 47714: a0 = u64 [sp + 0x28]\n 47717: u64 [a5 + 0xb0] = a0\n 47721: a0 = u64 [sp + 0x30]\n 47724: u64 [a5 + 0xa8] = a0\n 47728: a0 = u64 [sp + 0x38]\n 47731: u64 [a5 + 0xa0] = a0\n 47735: u64 [a5 + 0x90] = a3\n 47739: a0 = sp + 0x2c0\n 47743: a1 = sp + 0x2a0\n 47747: a2 = sp + 0x280\n 47751: u64 [a5 + 0x98] = a4\n 47755: ra = 1904, jump @1435\n      : @1740 [@dyn 952] (gas: 28)\n 47761: a2 = sp + 0x200\n 47765: a0 = u64 [a2 + 0xc8]\n 47769: a1 = u64 [a2 + 0xd8]\n 47773: t0 = u64 [a2 + 0xc0]\n 47777: a3 = u64 [a2 + 0xd0]\n 47781: a2 = u64 [sp + 0xb0]\n 47785: a4 = a0 ^ a2\n 47788: a5 = a0 <u a2\n 47791: t2 = a2\n 47793: t1 = u64 [sp + 0xb8]\n 47797: a2 = t0 <u t1\n 47800: a5 = a2 if a4 == 0\n 47803: a4 = a3 - s1\n 47806: a3 = a3 <u s1\n 47809: s1 = u64 [sp + 0xa8]\n 47813: a1 = a1 - s1\n 47816: a1 = a1 - a3\n 47819: a3 = a4 <u a5\n 47822: a1 = a1 - a3\n 47825: u64 [sp + 0x98] = a1\n 47829: a4 = a4 - a5\n 47832: u64 [sp + 0x78] = a4\n 47835: a0 = a0 - t2\n 47838: a0 = a0 - a2\n 47841: u64 [sp + 0x70] = a0\n 47844: s1 = t0 - t1\n 47847: ecalli 10 // 'ref_time_left'\n 47849: fallthrough\n      : @1741 (gas: 24)\n 47850: a1 = u64 [sp + 0x90]\n 47854: a0 = u64 [sp + 0x10]\n 47857: u64 [a1 + 0x8] = a0\n 47860: a0 = u64 [sp + 0x40]\n 47863: u64 [a1] = a0\n 47865: a0 = u64 [sp + 0x18]\n 47868: u32 [a1 + 0x10] = a0\n 47871: a2 = sp + 0x400\n 47875: u64 [a2 + 24] = 0\n 47878: a5 = 0\n 47880: u64 [a2 + 16] = 0\n 47883: u64 [a2 + 8] = 0\n 47886: a3 = u64 [sp + 0x78]\n 47889: a0 = s1 | a3\n 47892: a1 = u64 [sp + 0x98]\n 47896: a4 = u64 [sp + 0x70]\n 47899: a1 = a1 | a4\n 47902: a0 = a0 | a1\n 47905: a0 = a0 >> 0x20\n 47908: a1 = a1 | a3\n 47911: a1 = a1 << 0x20\n 47914: a0 = a0 | a1\n 47917: u64 [a2 + 0] = 0\n 47919: jump @1772 if a0 != 0\n      : @1742 (gas: 10)\n 47923: a2 = s1\n 47925: a0 = u64 [sp + 0xa0]\n 47929: a0 = a0 << 0x20\n 47932: a0 = a0 >> 0x20\n 47935: u64 [sp + 0x98] = a0\n 47939: s1 = u64 [sp + 0xb8]\n 47943: a0 = s1\n 47945: a1 = a2\n 47947: u64 [sp + 0x68] = a2\n 47950: ra = 1906, jump @34\n      : @1743 [@dyn 953] (gas: 4)\n 47957: u64 [sp + 0xa0] = a0\n 47961: a1 = 0x20\n 47964: a0 = s1\n 47966: ra = 1908, jump @34\n      : @1744 [@dyn 954] (gas: 35)\n 47973: a2 = sp + 0x400\n 47977: u32 [a2 + 32] = 0x20\n 47981: u64 [a2 + 88] = 0xffffffffffffffff\n 47985: u64 [a2 + 80] = 0xffffffffffffffff\n 47989: u64 [a2 + 72] = 0xffffffffffffffff\n 47993: u64 [a2 + 64] = 0xffffffffffffffff\n 47997: a1 = u64 [sp + 0x90]\n 48001: a1 = a1 << 0x20\n 48004: a1 = a1 >> 0x20\n 48007: a2 = 0x800000000\n 48017: s1 = a1 | a2\n 48020: a1 = sp + 0x400\n 48024: a1 = a1 << 0x20\n 48027: a1 = a1 >> 0x20\n 48030: a2 = sp + 0x440\n 48034: a2 = a2 << 0x20\n 48037: a3 = a2 | a1\n 48040: a1 = u64 [sp + 0xa0]\n 48044: a1 = a1 << 0x20\n 48047: a1 = a1 >> 0x20\n 48050: a4 = u64 [sp + 0x68]\n 48053: a4 = a4 << 0x20\n 48056: a4 = a4 | a1\n 48059: a0 = a0 << 0x20\n 48062: a0 = a0 >> 0x20\n 48065: a1 = sp + 0x420\n 48069: a1 = a1 << 0x20\n 48072: a5 = a1 | a0\n 48075: a1 = 0xffffffffffffffff\n 48078: a2 = 0xffffffffffffffff\n 48081: a0 = s1\n 48083: ecalli 1 // 'call'\n 48085: s1 = a0\n 48087: ecalli 12 // 'return_data_size'\n 48089: fallthrough\n      : @1745 (gas: 1)\n 48090: jump @1755 if s1 != 0\n      : @1746 (gas: 1)\n 48094: jump @1748 if a0 >u 31\n      : @1747 (gas: 6)\n 48098: ecalli 12 // 'return_data_size'\n 48100: s1 = 0\n 48102: a1 = u64 [sp + 0xb8]\n 48106: a3 = u64 [sp + 0xa8]\n 48110: a4 = u64 [sp + 0x80]\n 48114: jump @1749\n      : @1748 (gas: 6)\n 48116: s1 = 0\n 48118: a1 = u64 [sp + 0xb8]\n 48122: a3 = u64 [sp + 0xa8]\n 48126: a4 = u64 [sp + 0x80]\n 48130: a0 = 0x20\n 48133: fallthrough\n      : @1749 (gas: 13)\n 48134: u64 [sp + 0xa8] = a0\n 48138: u64 [sp + 0x120] = a0\n 48142: u64 [sp + 0x140] = a1\n 48146: u64 [sp + 296] = 0\n 48150: a1 = u64 [sp + 0xb0]\n 48154: u64 [sp + 0x148] = a1\n 48158: u64 [sp + 304] = 0\n 48162: u64 [sp + 0x150] = a4\n 48166: u64 [sp + 312] = 0\n 48170: a0 = sp + 0x140\n 48174: a1 = sp + 0x120\n 48178: u64 [sp + 0x158] = a3\n 48182: ra = 1910, jump @1521\n      : @1750 [@dyn 955] (gas: 11)\n 48188: a0 = s1 >u 0\n 48190: a1 = u64 [sp + 0xa8]\n 48194: a1 = a1 <u 0x20\n 48197: a1 = a1 ^ 0x1\n 48200: a1 = a0 if s1 != 0\n 48203: a0 = s1 >u 0\n 48205: a2 = s1 >u 0\n 48207: a2 = a0 if s1 == 0\n 48210: s1 = s1 | s1\n 48213: a2 = a1 if s1 == 0\n 48216: jump @1773 if a2 == 0\n      : @1751 (gas: 3)\n 48220: a0 = sp + 0x100\n 48224: a1 = u64 [sp + 0xb8]\n 48228: ra = 1912, jump @17\n      : @1752 [@dyn 956] (gas: 10)\n 48235: a0 = u64 [sp + 0x118]\n 48239: a2 = u64 [sp + 0x110]\n 48243: a3 = u64 [sp + 0x100]\n 48247: a1 = u64 [sp + 0x108]\n 48251: a4 = a0 << 0x20\n 48254: a4 = a4 >> 0x20\n 48257: a2 = a2 | a3\n 48260: a4 = a4 | a1\n 48263: a4 = a4 | a2\n 48266: jump @1774 if a4 != 0\n      : @1753 (gas: 5)\n 48270: a3 = 0x150b7a0200000000\n 48280: a0 = a0 ^ a3\n 48283: a0 = a0 | a1\n 48286: a0 = a0 | a2\n 48289: jump @1775 if a0 != 0\n      : @1754 (gas: 7)\n 48293: sp = s0 + 0xfffffffffffffb80\n 48297: a0 = sp + 0x400\n 48301: ra = u64 [a0 + 0x78]\n 48304: s0 = u64 [a0 + 0x70]\n 48307: s1 = u64 [a0 + 0x68]\n 48310: sp = sp + 0x480\n 48314: ret\n      : @1755 (gas: 2)\n 48316: u64 [sp + 184] = 0x60\n 48321: jump @1761 if a0 != 0\n      : @1756 (gas: 3)\n 48324: a0 = sp + 0x1a0\n 48328: a1 = u64 [sp + 0xb8]\n 48332: ra = 1914, jump @17\n      : @1757 [@dyn 957] (gas: 8)\n 48339: a1 = u64 [sp + 0x1b8]\n 48343: a0 = u64 [sp + 0x1b0]\n 48347: a2 = u64 [sp + 0x1a8]\n 48351: s1 = u64 [sp + 0x1a0]\n 48355: a1 = a1 | a2\n 48358: a2 = s1 | a0\n 48361: a2 = a2 | a1\n 48364: jump @1781 if a2 == 0\n      : @1758 (gas: 5)\n 48368: a2 = a2 >> 0x20\n 48371: a0 = a0 | a1\n 48374: a0 = a0 << 0x20\n 48377: a0 = a0 | a2\n 48380: jump @1772 if a0 != 0\n      : @1759 (gas: 4)\n 48384: a0 = u64 [sp + 0xb8]\n 48388: i32 a0 = a0 + 0x20\n 48391: a1 = s1\n 48393: ra = 1916, jump @34\n      : @1760 [@dyn 958] (gas: 5)\n 48400: i32 a1 = a0 + 0\n 48402: i32 a2 = s1 + 0\n 48404: a0 = 0x1\n 48407: ecalli 13 // 'seal_return'\n 48409: jump @1774\n      : @1761 (gas: 11)\n 48412: ecalli 12 // 'return_data_size'\n 48414: a2 = a0\n 48416: a3 = sp + 0x200\n 48420: u64 [a3 + 88] = 0\n 48423: u64 [a3 + 80] = 0\n 48426: u64 [a3 + 72] = 0\n 48429: a0 = sp + 0x260\n 48433: a1 = sp + 0x240\n 48437: u64 [sp + 0x70] = a2\n 48440: u64 [a3 + 0x40] = a2\n 48443: ra = 1918, jump @1531\n      : @1762 [@dyn 959] (gas: 12)\n 48449: a1 = sp + 0x200\n 48453: a0 = u64 [a1 + 0x60]\n 48456: u64 [sp + 0xa0] = a0\n 48460: a0 = u64 [a1 + 0x68]\n 48463: u64 [sp + 0x90] = a0\n 48467: a0 = u64 [a1 + 0x70]\n 48470: u64 [sp + 0x80] = a0\n 48474: a0 = u64 [a1 + 0x78]\n 48477: u64 [sp + 0x78] = a0\n 48480: a0 = sp + 0x220\n 48484: a1 = 0x40\n 48487: ra = 1920, jump @17\n      : @1763 [@dyn 960] (gas: 23)\n 48494: a4 = sp + 0x200\n 48498: a0 = u64 [a4 + 0x38]\n 48501: u64 [sp + 0xa8] = a0\n 48505: s1 = u64 [a4 + 0x30]\n 48508: a3 = u64 [a4 + 0x28]\n 48511: u64 [sp + 0xb0] = a3\n 48515: a2 = u64 [a4 + 0x20]\n 48518: u64 [sp + 0xb8] = a2\n 48522: a1 = u64 [sp + 0x78]\n 48525: u64 [sp + 0x1f8] = a1\n 48529: a1 = u64 [sp + 0x80]\n 48533: u64 [sp + 0x1f0] = a1\n 48537: a1 = u64 [sp + 0x90]\n 48541: u64 [sp + 0x1e8] = a1\n 48545: a1 = u64 [sp + 0xa0]\n 48549: u64 [sp + 0x1e0] = a1\n 48553: u64 [a4 + 0x18] = a0\n 48556: u64 [a4 + 0x10] = s1\n 48559: u64 [a4 + 0x8] = a3\n 48562: a0 = sp + 0x200\n 48566: a1 = sp + 0x1e0\n 48570: u64 [a4] = a2\n 48572: ra = 1922, jump @1521\n      : @1764 [@dyn 961] (gas: 12)\n 48578: a0 = u64 [sp + 0xa8]\n 48582: a1 = u64 [sp + 0xb0]\n 48586: a0 = a0 | a1\n 48589: a1 = u64 [sp + 0xb8]\n 48593: a1 = a1 | s1\n 48596: a1 = a1 | a0\n 48599: a1 = a1 >> 0x20\n 48602: u64 [sp + 0xa0] = s1\n 48606: a0 = a0 | s1\n 48609: a0 = a0 << 0x20\n 48612: a0 = a0 | a1\n 48615: jump @1772 if a0 != 0\n      : @1765 (gas: 9)\n 48619: u64 [sp + 472] = 0\n 48623: u64 [sp + 464] = 0\n 48627: u64 [sp + 456] = 0\n 48631: a1 = sp + 0x1c0\n 48635: a0 = u64 [sp + 0x70]\n 48638: u64 [sp + 0x1c0] = a0\n 48642: s1 = u64 [sp + 0xb8]\n 48646: a0 = s1\n 48648: ra = 1924, jump @19\n      : @1766 [@dyn 962] (gas: 2)\n 48655: ecalli 12 // 'return_data_size'\n 48657: fallthrough\n      : @1767 (gas: 9)\n 48658: a1 = u64 [sp + 0xa8]\n 48662: a2 = u64 [sp + 0xa0]\n 48666: a1 = a1 | a2\n 48669: a2 = 0xffffffe0\n 48679: a2 = s1 <u a2\n 48682: a3 = u64 [sp + 0xb0]\n 48686: a2 = 0 if a3 != 0\n 48688: a2 = 0 if a1 != 0\n 48690: jump @1772 if a2 == 0\n      : @1768 (gas: 3)\n 48693: s1 = a0\n 48695: a0 = a0 >> 0x20\n 48698: jump @1772 if a0 != 0\n      : @1769 (gas: 6)\n 48701: a0 = u64 [sp + 0xb8]\n 48705: i32 a0 = a0 + 0x20\n 48708: i32 a1 = s1 + 0\n 48710: u64 [sp + 0xb0] = a1\n 48714: a1 = s1\n 48716: ra = 1926, jump @34\n      : @1770 [@dyn 963] (gas: 6)\n 48723: u32 [sp + 0x460] = s1\n 48727: i32 a0 = a0 + 0\n 48729: i32 a1 = sp + 0x460\n 48733: a2 = 0\n 48735: ecalli 11 // 'return_data_copy'\n 48737: fallthrough\n      : @1771 (gas: 3)\n 48738: a0 = i32 [sp + 0x460]\n 48742: a1 = u64 [sp + 0xb0]\n 48746: jump @1756 if a0 >=u a1\n      : @1772 (gas: 1)\n 48750: trap\n      : @1773 (gas: 5)\n 48751: a1 = 0x20220\n 48756: i32 a1 = a1 + 0\n 48758: a0 = 0x1\n 48761: ecalli 13 // 'seal_return'\n 48763: fallthrough\n      : @1774 (gas: 6)\n 48764: a1 = 0x20220\n 48769: i32 a1 = a1 + 0\n 48771: a0 = 0x1\n 48774: a2 = 0\n 48776: ecalli 13 // 'seal_return'\n 48778: fallthrough\n      : @1775 (gas: 8)\n 48779: u64 [sp + 240] = 0\n 48783: u64 [sp + 232] = 0\n 48787: u64 [sp + 224] = 0\n 48791: a0 = 0x64a0ae9200000000\n 48801: a1 = sp + 0xe0\n 48805: u64 [sp + 0xf8] = a0\n 48809: a0 = 0\n 48811: ra = 1928, jump @19\n      : @1776 [@dyn 964] (gas: 10)\n 48818: u64 [sp + 216] = 0\n 48822: a0 = u64 [sp + 0x98]\n 48826: u64 [sp + 0xd0] = a0\n 48830: a0 = u64 [sp + 0x8]\n 48833: u64 [sp + 0xc8] = a0\n 48837: a0 = 0x4\n 48840: a1 = sp + 0xc0\n 48844: a2 = u64 [sp + 0x88]\n 48848: u64 [sp + 0xc0] = a2\n 48852: ra = 1930, jump @19\n      : @1777 [@dyn 965] (gas: 2)\n 48859: a1 = i32 [0x2020c]\n 48864: jump @1779 if a1 >u 63\n      : @1778 (gas: 3)\n 48868: u32 [0x2020c] = 0x40\n 48874: a1 = 0x20220\n 48879: jump @1780\n      : @1779 (gas: 2)\n 48881: a1 = 0x20220\n 48886: fallthrough\n      : @1780 (gas: 5)\n 48887: i32 a1 = a1 + 0\n 48889: a0 = 0x1\n 48892: a2 = 0x24\n 48895: ecalli 13 // 'seal_return'\n 48897: fallthrough\n      : @1781 (gas: 8)\n 48898: u64 [sp + 400] = 0\n 48902: u64 [sp + 392] = 0\n 48906: u64 [sp + 384] = 0\n 48910: a0 = 0x64a0ae9200000000\n 48920: a1 = sp + 0x180\n 48924: u64 [sp + 0x198] = a0\n 48928: a0 = 0\n 48930: ra = 1932, jump @19\n      : @1782 [@dyn 966] (gas: 10)\n 48937: u64 [sp + 376] = 0\n 48941: a0 = u64 [sp + 0x98]\n 48945: u64 [sp + 0x170] = a0\n 48949: a0 = u64 [sp + 0x8]\n 48952: u64 [sp + 0x168] = a0\n 48956: a0 = 0x4\n 48959: a1 = sp + 0x160\n 48963: a2 = u64 [sp + 0x88]\n 48967: u64 [sp + 0x160] = a2\n 48971: ra = 1934, jump @19\n      : @1783 [@dyn 967] (gas: 2)\n 48978: a1 = i32 [0x2020c]\n 48983: jump @1785 if a1 >u 63\n      : @1784 (gas: 3)\n 48987: u32 [0x2020c] = 0x40\n 48993: a1 = 0x20220\n 48998: jump @1780\n      : @1785 (gas: 2)\n 49000: a1 = 0x20220\n 49005: jump @1780\n      : @1786 [@dyn 968] (gas: 11)\n 49007: a0 = u64 [s1 + 0xa0]\n 49011: u64 [s1 + 0x2d8] = a0\n 49015: a0 = u64 [s1 + 0xa8]\n 49019: u64 [s1 + 0x2d0] = a0\n 49023: a0 = u64 [s1 + 0xb0]\n 49027: u64 [s1 + 0x2c8] = a0\n 49031: a1 = s1 + 0x2c0\n 49035: a0 = u64 [s1 + 0xb8]\n 49039: u64 [s1 + 0x2c0] = a0\n 49043: a0 = 0\n 49045: ra = 1938, jump @19\n      : @1787 [@dyn 969] (gas: 7)\n 49052: u64 [s1 + 696] = 0\n 49056: u64 [s1 + 688] = 0\n 49060: u64 [s1 + 672] = 0x6\n 49065: a0 = 0x20\n 49068: a1 = s1 + 0x2a0\n 49072: u64 [s1 + 680] = 0\n 49076: ra = 1940, jump @19\n      : @1788 [@dyn 970] (gas: 3)\n 49083: a2 = 0x2020c\n 49088: a0 = i32 [0x2020c]\n 49093: jump @1790 if a0 >u 63\n      : @1789 (gas: 2)\n 49097: u32 [0x2020c] = 0x40\n 49103: fallthrough\n      : @1790 (gas: 32)\n 49104: u64 [s1 + 0xb0] = a2\n 49108: a0 = sp + 0xffffffffffffffe0\n 49111: a2 = a0 & 0xffffffffffffffe0\n 49114: u64 [s1 + 0xb8] = a2\n 49118: sp = a2\n 49120: a0 = 0x20220\n 49125: i32 a0 = a0 + 0\n 49127: i32 a2 = a2 + 0\n 49129: a1 = 0x40\n 49132: u64 [s1 + 0xa8] = a0\n 49136: ecalli 9 // 'hash_keccak_256'\n 49138: a3 = u64 [s1 + 0xb8]\n 49142: a0 = u64 [a3 + 0x18]\n 49145: a1 = u64 [a3 + 0x10]\n 49148: a2 = u64 [a3 + 0x8]\n 49151: a3 = u64 [a3]\n 49153: a4 = reverse a0\n 49155: a1 = reverse a1\n 49157: a2 = reverse a2\n 49159: a0 = reverse a3\n 49161: u64 [s1 + 0xa0] = a0\n 49165: a3 = s1 + 0x300\n 49169: u64 [a3 + 0x38] = a0\n 49172: u64 [s1 + 0x88] = a2\n 49176: u64 [a3 + 0x30] = a2\n 49179: u64 [s1 + 0x90] = a1\n 49183: u64 [a3 + 0x28] = a1\n 49186: u64 [s1 + 0x98] = a4\n 49190: u64 [a3 + 0x20] = a4\n 49193: a0 = s1 + 0x280\n 49197: a1 = 0x40\n 49200: ra = 1942, jump @17\n      : @1791 [@dyn 971] (gas: 11)\n 49207: a0 = u64 [s1 + 0x298]\n 49211: u64 [s1 + 0x78] = a0\n 49214: a0 = u64 [s1 + 0x290]\n 49218: u64 [s1 + 0x18] = a0\n 49221: a0 = u64 [s1 + 0x288]\n 49225: u64 [s1 + 0x20] = a0\n 49228: a0 = u64 [s1 + 0x280]\n 49232: u64 [s1 + 0x28] = a0\n 49235: a0 = s1 + 0x260\n 49239: a1 = s1 + 0x320\n 49243: ra = 1944, jump @21\n      : @1792 [@dyn 972] (gas: 16)\n 49250: a4 = s1 + 0x200\n 49254: a0 = u64 [a4 + 0x78]\n 49257: a1 = u64 [a4 + 0x70]\n 49260: a2 = u64 [a4 + 0x68]\n 49263: a3 = u64 [a4 + 0x60]\n 49266: u64 [s1 + 0x80] = a0\n 49270: u64 [a4 + 0x38] = a0\n 49273: u64 [s1 + 0x50] = a1\n 49276: u64 [a4 + 0x30] = a1\n 49279: u64 [s1 + 0x48] = a2\n 49282: u64 [a4 + 0x28] = a2\n 49285: a0 = s1 + 0x240\n 49289: a1 = s1 + 0x220\n 49293: u64 [s1 + 0xb8] = a3\n 49297: u64 [a4 + 0x20] = a3\n 49300: ra = 1946, jump @1557\n      : @1793 [@dyn 973] (gas: 6)\n 49306: a0 = u64 [s1 + 0x28]\n 49309: a1 = u64 [s1 + 0x78]\n 49312: a2 = u64 [s1 + 0x20]\n 49315: a2 = a2 | a1\n 49318: a3 = u64 [s1 + 0x18]\n 49321: t0 = 1948, jump @2018\n      : @1794 [@dyn 974] (gas: 1)\n 49327: jump @1819 if a1 != 0\n      : @1795 (gas: 15)\n 49331: a5 = s1 + 0x200\n 49335: a2 = u64 [a5 + 0x58]\n 49338: a3 = u64 [a5 + 0x50]\n 49341: a1 = u64 [a5 + 0x48]\n 49344: a4 = u64 [a5 + 0x40]\n 49347: u64 [s1 + 0x58] = a4\n 49350: u64 [a5] = a4\n 49352: u64 [s1 + 0x68] = a1\n 49355: u64 [a5 + 0x8] = a1\n 49358: u64 [s1 + 0x60] = a3\n 49361: u64 [a5 + 0x10] = a3\n 49364: a1 = s1 + 0x200\n 49368: u64 [s1 + 0x70] = a2\n 49371: u64 [a5 + 0x18] = a2\n 49374: ra = 1950, jump @19\n      : @1796 [@dyn 975] (gas: 3)\n 49381: a3 = u64 [s1 + 0xb8]\n 49385: a0 = a3 & 0x1\n 49388: jump @1800 if a0 != 0\n      : @1797 (gas: 10)\n 49392: a0 = u64 [s1 + 0x18]\n 49395: a1 = u64 [s1 + 0x78]\n 49398: a0 = a0 | a1\n 49401: a1 = 0xffffffe0\n 49411: a4 = u64 [s1 + 0x28]\n 49414: a1 = a4 <u a1\n 49417: a2 = u64 [s1 + 0x20]\n 49420: a1 = 0 if a2 != 0\n 49422: a1 = 0 if a0 != 0\n 49424: jump @1819 if a1 == 0\n      : @1798 (gas: 12)\n 49428: a1 = a3 & 0xffffffffffffff00\n 49432: i32 a0 = a4 + 0x20\n 49435: a3 = u64 [s1 + 0x48]\n 49438: a2 = s1 + 0x100\n 49442: u64 [a2 + 0x88] = a3\n 49446: u64 [a2 + 0x80] = a1\n 49450: a1 = u64 [s1 + 0x50]\n 49453: u64 [a2 + 0x90] = a1\n 49457: a1 = s1 + 0x180\n 49461: a3 = u64 [s1 + 0x80]\n 49465: u64 [a2 + 0x98] = a3\n 49469: ra = 1952, jump @19\n      : @1799 [@dyn 976] (gas: 15)\n 49476: a3 = 0\n 49478: a4 = 0\n 49480: t0 = 0\n 49482: a0 = u64 [s1 + 0x60]\n 49485: a1 = u64 [s1 + 0x58]\n 49488: a0 = a0 | a1\n 49491: a1 = u64 [s1 + 0x70]\n 49494: a2 = u64 [s1 + 0x68]\n 49497: a1 = a1 | a2\n 49500: a0 = a0 | a1\n 49503: a0 = a0 >u 0\n 49505: a1 = a0 << 0x5\n 49508: a5 = u64 [s1 + 0x18]\n 49511: t2 = u64 [s1 + 0x78]\n 49514: jump @1812\n      : @1800 (gas: 12)\n 49517: a0 = u64 [s1 + 0x98]\n 49521: a2 = s1 + 0x100\n 49525: u64 [a2 + 0xe0] = a0\n 49529: a0 = u64 [s1 + 0x90]\n 49533: u64 [a2 + 0xe8] = a0\n 49537: a0 = u64 [s1 + 0x88]\n 49541: u64 [a2 + 0xf0] = a0\n 49545: a1 = s1 + 0x1e0\n 49549: a0 = u64 [s1 + 0xa0]\n 49553: u64 [a2 + 0xf8] = a0\n 49557: a0 = 0\n 49559: ra = 1954, jump @19\n      : @1801 [@dyn 977] (gas: 7)\n 49566: a0 = sp + 0xffffffffffffffe0\n 49569: a0 = a0 & 0xffffffffffffffe0\n 49572: u64 [s1 + 0x50] = a0\n 49575: sp = a0\n 49577: a2 = u64 [s1 + 0xb0]\n 49581: a0 = i32 [a2]\n 49583: jump @1803 if a0 >u 31\n      : @1802 (gas: 2)\n 49587: u32 [a2 + 0] = 0x20\n 49590: fallthrough\n      : @1803 (gas: 48)\n 49591: a0 = sp + 0xffffffffffffffe0\n 49594: a0 = a0 & 0xffffffffffffffe0\n 49597: u64 [s1 + 0xb8] = a0\n 49601: sp = a0\n 49603: i32 a2 = a0 + 0\n 49605: a1 = 0x20\n 49608: a0 = u64 [s1 + 0xa8]\n 49612: ecalli 9 // 'hash_keccak_256'\n 49614: ra = 0\n 49616: a5 = 0\n 49618: t0 = 0\n 49620: a4 = u64 [s1 + 0xb8]\n 49624: a0 = u64 [a4 + 0x18]\n 49627: a1 = u64 [s1 + 0x28]\n 49630: a2 = a1 + 0x20\n 49633: u64 [s1 + 0x48] = a2\n 49636: a1 = a2 <u a1\n 49639: a3 = u64 [s1 + 0x20]\n 49642: a2 = a3 + a1\n 49645: u64 [s1 + 0x40] = a2\n 49648: a2 = a2 <u a3\n 49651: a2 = a1 if a1 == 0\n 49654: a1 = u64 [a4 + 0x10]\n 49657: a3 = u64 [a4 + 0x8]\n 49660: t1 = u64 [a4]\n 49662: a0 = reverse a0\n 49664: a4 = reverse a1\n 49666: a3 = reverse a3\n 49668: t1 = reverse t1\n 49670: a1 = u64 [s1 + 0x50]\n 49673: u64 [s1 + 0x88] = t1\n 49677: u64 [a1 + 0x18] = t1\n 49680: u64 [s1 + 0x80] = a3\n 49684: u64 [a1 + 0x10] = a3\n 49687: u64 [s1 + 0x90] = a4\n 49691: u64 [a1 + 0x8] = a4\n 49694: a3 = a0\n 49696: u64 [a1] = a0\n 49698: a4 = u64 [s1 + 0x18]\n 49701: a0 = a4 + a2\n 49704: a2 = 0\n 49706: u64 [s1 + 0x38] = a0\n 49709: a0 = a0 <u a4\n 49712: a4 = u64 [s1 + 0x78]\n 49715: t2 = a4\n 49717: a0 = a0 + a4\n 49720: u64 [s1 + 0x30] = a0\n 49723: fallthrough\n      : @1804 (gas: 20)\n 49724: u64 [s1 + 0xb0] = a2\n 49728: u64 [s1 + 0x98] = a3\n 49732: a0 = u64 [s1 + 0x58]\n 49735: a0 = a2 <u a0\n 49738: a2 = u64 [s1 + 0x68]\n 49741: a3 = ra ^ a2\n 49744: u64 [s1 + 0xb8] = ra\n 49748: a2 = ra <u a2\n 49751: a2 = a0 if a3 == 0\n 49754: a0 = u64 [s1 + 0x60]\n 49757: t1 = a5 <u a0\n 49760: a3 = u64 [s1 + 0x70]\n 49763: a4 = t0 ^ a3\n 49766: a3 = t0 <u a3\n 49769: a3 = t1 if a4 == 0\n 49772: u64 [s1 + 0xa8] = a5\n 49776: a0 = a0 ^ a5\n 49779: a0 = a0 | a4\n 49782: a3 = a2 if a0 == 0\n 49785: jump @1811 if a3 == 0\n      : @1805 (gas: 3)\n 49789: a0 = s1 + 0x1c0\n 49793: u64 [s1 + 0xa0] = t0\n 49797: ra = 1956, jump @21\n      : @1806 [@dyn 978] (gas: 7)\n 49804: a1 = u64 [s1 + 0x48]\n 49807: a0 = u64 [s1 + 0xb0]\n 49811: a0 = a0 + a1\n 49814: a1 = a0 <u a1\n 49817: a4 = u64 [s1 + 0x40]\n 49820: a2 = u64 [s1 + 0xb8]\n 49824: t0 = 1958, jump @1984\n      : @1807 [@dyn 979] (gas: 9)\n 49830: a3 = u64 [s1 + 0x38]\n 49833: a1 = u64 [s1 + 0xa8]\n 49837: a1 = a1 + a3\n 49840: t0 = a1 <u a3\n 49843: a5 = u64 [s1 + 0x30]\n 49846: a3 = u64 [s1 + 0xa0]\n 49850: a5 = a5 + a3\n 49853: a3 = a5 + t0\n 49856: t0 = 1960, jump @1930\n      : @1808 [@dyn 980] (gas: 1)\n 49862: jump @1819 if a1 != 0\n      : @1809 (gas: 11)\n 49866: a5 = s1 + 0x100\n 49870: a2 = u64 [a5 + 0xd8]\n 49874: a1 = u64 [a5 + 0xd0]\n 49878: a3 = u64 [a5 + 0xc8]\n 49882: a4 = u64 [a5 + 0xc0]\n 49886: u64 [a5 + 0xa0] = a4\n 49890: u64 [a5 + 0xa8] = a3\n 49894: u64 [a5 + 0xb0] = a1\n 49898: a1 = s1 + 0x1a0\n 49902: u64 [a5 + 0xb8] = a2\n 49906: ra = 1962, jump @19\n      : @1810 [@dyn 981] (gas: 39)\n 49913: a5 = u64 [s1 + 0x98]\n 49917: a5 = a5 + 0x1\n 49920: a0 = a5 <u 0x1\n 49923: a3 = u64 [s1 + 0x90]\n 49927: a3 = a3 + a0\n 49930: a0 = a5 | a3\n 49933: a0 = a0 <u 0x1\n 49936: a1 = u64 [s1 + 0x80]\n 49940: a0 = a0 + a1\n 49943: a1 = a0 <u a1\n 49946: ra = u64 [s1 + 0x88]\n 49950: ra = ra + a1\n 49953: a1 = u64 [s1 + 0xb0]\n 49957: t2 = a1 + 0x20\n 49960: a2 = t2 <u a1\n 49963: a4 = u64 [s1 + 0xb8]\n 49967: t1 = a4 + a2\n 49970: a4 = t1 <u a4\n 49973: a4 = a2 if a2 == 0\n 49976: a2 = u64 [s1 + 0xa8]\n 49980: a4 = a4 + a2\n 49983: a2 = a4 <u a2\n 49986: t0 = u64 [s1 + 0xa0]\n 49990: t0 = t0 + a2\n 49993: u64 [s1 + 0x90] = a3\n 49997: a1 = u64 [s1 + 0x50]\n 50000: u64 [a1 + 0x8] = a3\n 50003: a3 = a5\n 50005: u64 [a1] = a5\n 50007: u64 [a1 + 0x10] = a0\n 50010: a2 = ra\n 50012: u64 [s1 + 0x88] = a2\n 50016: u64 [a1 + 0x18] = a2\n 50019: u64 [s1 + 0x80] = a0\n 50023: a2 = t2\n 50025: ra = t1\n 50027: a5 = a4\n 50029: t2 = u64 [s1 + 0x78]\n 50032: jump @1804\n      : @1811 (gas: 5)\n 50035: a4 = u64 [s1 + 0xa8]\n 50039: a3 = u64 [s1 + 0xb8]\n 50043: a1 = u64 [s1 + 0xb0]\n 50047: a5 = u64 [s1 + 0x18]\n 50050: fallthrough\n      : @1812 (gas: 21)\n 50051: a0 = a1 + 0x20\n 50054: a1 = a0 <u a1\n 50057: a2 = a3 + a1\n 50060: a3 = a2 <u a3\n 50063: a3 = a1 if a1 == 0\n 50066: a3 = a3 + a4\n 50069: a1 = a3 <u a4\n 50072: t0 = t0 + a1\n 50075: a1 = u64 [s1 + 0x28]\n 50078: u64 [s1 + 0x160] = a1\n 50082: u64 [s1 + 0x140] = a0\n 50086: a0 = u64 [s1 + 0x20]\n 50089: u64 [s1 + 0x168] = a0\n 50093: u64 [s1 + 0x170] = a5\n 50097: u64 [s1 + 0x148] = a2\n 50101: u64 [s1 + 0x178] = t2\n 50105: u64 [s1 + 0x150] = a3\n 50109: a0 = s1 + 0x160\n 50113: a1 = s1 + 0x140\n 50117: u64 [s1 + 0x158] = t0\n 50121: ra = 1964, jump @1521\n      : @1813 [@dyn 982] (gas: 3)\n 50127: a0 = s1 + 0x120\n 50131: a1 = 0x40\n 50134: ra = 1966, jump @17\n      : @1814 [@dyn 983] (gas: 20)\n 50141: a5 = s1 + 0x100\n 50145: a1 = u64 [a5 + 0x38]\n 50148: u64 [s1 + 0xb8] = a1\n 50152: a2 = u64 [a5 + 0x30]\n 50155: u64 [s1 + 0xb0] = a2\n 50159: a3 = u64 [a5 + 0x28]\n 50162: u64 [s1 + 0xa8] = a3\n 50166: a4 = u64 [a5 + 0x20]\n 50169: u64 [s1 + 0xa0] = a4\n 50173: u64 [s1 + 248] = 0\n 50177: u64 [s1 + 240] = 0\n 50181: u64 [s1 + 232] = 0\n 50185: u64 [s1 + 224] = 0x20\n 50190: u64 [a5 + 0x18] = a1\n 50193: u64 [a5 + 0x10] = a2\n 50196: u64 [a5 + 0x8] = a3\n 50199: a0 = s1 + 0x100\n 50203: a1 = s1 + 0xe0\n 50207: u64 [a5] = a4\n 50209: ra = 1968, jump @1521\n      : @1815 [@dyn 984] (gas: 6)\n 50215: a0 = u64 [s1 + 0xa0]\n 50219: a1 = u64 [s1 + 0xb8]\n 50223: a2 = u64 [s1 + 0xa8]\n 50227: a2 = a2 | a1\n 50230: a3 = u64 [s1 + 0xb0]\n 50234: t0 = 1970, jump @2018\n      : @1816 [@dyn 985] (gas: 1)\n 50240: jump @1819 if a1 != 0\n      : @1817 (gas: 6)\n 50243: u64 [s1 + 216] = 0\n 50247: u64 [s1 + 208] = 0\n 50251: u64 [s1 + 200] = 0\n 50255: a1 = s1 + 0xc0\n 50259: u64 [s1 + 192] = 0\n 50263: ra = 1972, jump @19\n      : @1818 [@dyn 986] (gas: 16)\n 50270: a0 = u64 [s1 + 0x10]\n 50273: a1 = u64 [s1 + 0x78]\n 50276: u64 [a0 + 0x18] = a1\n 50279: a1 = u64 [s1 + 0x18]\n 50282: u64 [a0 + 0x10] = a1\n 50285: a1 = u64 [s1 + 0x20]\n 50288: u64 [a0 + 0x8] = a1\n 50291: a1 = u64 [s1 + 0x28]\n 50294: u64 [a0] = a1\n 50296: sp = s0 + 0xfffffffffffffca0\n 50300: a0 = sp + 0x300\n 50304: ra = u64 [a0 + 0x58]\n 50307: s0 = u64 [a0 + 0x50]\n 50310: s1 = u64 [a0 + 0x48]\n 50313: sp = sp + 0x360\n 50317: ret\n      : @1819 (gas: 1)\n 50319: trap\n      : @1820 (gas: 24)\n 50320: sp = sp + 0xffffffffffffff60\n 50324: u64 [sp + 0x98] = ra\n 50328: u64 [sp + 0x90] = s0\n 50332: u64 [sp + 0x88] = s1\n 50336: s0 = sp + 0xa0\n 50340: sp = sp & 0xffffffffffffffe0\n 50343: a2 = u64 [a1 + 0x10]\n 50346: u64 [sp + 0x18] = a2\n 50349: a2 = u64 [a1]\n 50351: u64 [sp + 0x10] = a2\n 50354: a2 = u64 [a1 + 0x18]\n 50357: u64 [sp + 0x8] = a2\n 50360: s1 = u64 [a1 + 0x8]\n 50363: a1 = u64 [a0 + 0x18]\n 50366: a2 = u64 [a0 + 0x10]\n 50369: a3 = u64 [a0 + 0x8]\n 50372: a0 = u64 [a0]\n 50374: u64 [sp + 0x58] = a1\n 50377: u64 [sp + 0x50] = a2\n 50380: u64 [sp + 0x48] = a3\n 50383: u64 [sp + 0x40] = a0\n 50386: a0 = sp + 0x20\n 50389: a1 = sp + 0x40\n 50392: ra = 1974, jump @21\n      : @1821 [@dyn 987] (gas: 20)\n 50399: a0 = u64 [sp + 0x20]\n 50402: a1 = u64 [sp + 0x28]\n 50405: a2 = u64 [sp + 0x30]\n 50408: a3 = u64 [sp + 0x38]\n 50411: a0 = a0 & 0xffffffffffffff00\n 50415: a4 = u64 [sp + 0x8]\n 50418: a4 = a4 | s1\n 50421: a5 = u64 [sp + 0x18]\n 50424: s1 = u64 [sp + 0x10]\n 50427: a5 = a5 | s1\n 50430: a4 = a4 | a5\n 50433: a4 = a4 >u 0\n 50435: a0 = a0 | a4\n 50438: u64 [sp + 0x78] = a3\n 50441: u64 [sp + 0x70] = a2\n 50444: u64 [sp + 0x68] = a1\n 50447: u64 [sp + 0x60] = a0\n 50450: a0 = sp + 0x40\n 50453: a1 = sp + 0x60\n 50456: ra = 1976, jump @23\n      : @1822 [@dyn 988] (gas: 6)\n 50463: sp = s0 + 0xffffffffffffff60\n 50467: ra = u64 [sp + 0x98]\n 50471: s0 = u64 [sp + 0x90]\n 50475: s1 = u64 [sp + 0x88]\n 50479: sp = sp + 0xa0\n 50483: ret\n      : @1823 (gas: 23)\n 50485: sp = sp + 0xfffffffffffffee0\n 50489: u64 [sp + 0x118] = ra\n 50493: u64 [sp + 0x110] = s0\n 50497: u64 [sp + 0x108] = s1\n 50501: s0 = sp + 0x120\n 50505: sp = sp & 0xffffffffffffffe0\n 50508: s1 = sp\n 50510: a2 = u64 [a1]\n 50512: a3 = u64 [a1 + 0x8]\n 50515: a4 = u64 [a1 + 0x10]\n 50518: a1 = u64 [a1 + 0x18]\n 50521: u64 [s1 + 0x38] = a0\n 50524: u64 [s1 + 0x10] = a1\n 50527: u64 [s1 + 0xd8] = a1\n 50531: u64 [s1 + 0x18] = a4\n 50534: u64 [s1 + 0xd0] = a4\n 50538: u64 [s1 + 0x20] = a3\n 50541: u64 [s1 + 0xc8] = a3\n 50545: a1 = s1 + 0xc0\n 50549: u64 [s1 + 0x28] = a2\n 50552: u64 [s1 + 0xc0] = a2\n 50556: a0 = 0\n 50558: ra = 1978, jump @19\n      : @1824 [@dyn 989] (gas: 7)\n 50565: u64 [s1 + 184] = 0\n 50569: u64 [s1 + 176] = 0\n 50573: u64 [s1 + 160] = 0x2\n 50578: a0 = 0x20\n 50581: a1 = s1 + 0xa0\n 50585: u64 [s1 + 168] = 0\n 50589: ra = 1980, jump @19\n      : @1825 [@dyn 990] (gas: 3)\n 50596: a2 = 0x2020c\n 50601: a0 = i32 [0x2020c]\n 50606: jump @1827 if a0 >u 63\n      : @1826 (gas: 2)\n 50610: u32 [0x2020c] = 0x40\n 50616: fallthrough\n      : @1827 (gas: 15)\n 50617: u64 [s1 + 0x8] = a2\n 50620: a0 = sp + 0xffffffffffffffe0\n 50623: a2 = a0 & 0xffffffffffffffe0\n 50626: u64 [s1 + 0x30] = a2\n 50629: sp = a2\n 50631: a0 = 0x20220\n 50636: i32 a0 = a0 + 0\n 50638: i32 a2 = a2 + 0\n 50640: a1 = 0x40\n 50643: u64 [s1] = a0\n 50645: ra = 0x7be\n 50649: ecalli 9 // 'hash_keccak_256'\n 50651: a3 = u64 [s1 + 0x30]\n 50654: t0 = 0x7c0\n 50658: jump @1942\n      : @1828 [@dyn 991] (gas: 2)\n 50661: a3 = u64 [s1 + 0x30]\n 50664: t0 = 1984, jump @1942\n      : @1829 [@dyn 992] (gas: 7)\n 50670: u64 [s1 + 0xf8] = a3\n 50674: u64 [s1 + 0xf0] = a2\n 50678: u64 [s1 + 0xe8] = a1\n 50682: u64 [s1 + 0xe0] = a0\n 50686: a0 = s1 + 0x80\n 50690: a1 = s1 + 0xe0\n 50694: ra = 1986, jump @21\n      : @1830 [@dyn 993] (gas: 6)\n 50701: a0 = u32 [s1 + 0x90]\n 50705: a1 = u64 [s1 + 0x80]\n 50709: a2 = u64 [s1 + 0x88]\n 50713: a3 = a1 | a0\n 50716: a3 = a3 | a2\n 50719: jump @1832 if a3 == 0\n      : @1831 (gas: 11)\n 50722: a3 = u64 [s1 + 0x38]\n 50725: u64 [a3 + 24] = 0\n 50728: u64 [a3] = a1\n 50730: u64 [a3 + 0x8] = a2\n 50733: u64 [a3 + 0x10] = a0\n 50736: sp = s0 + 0xfffffffffffffee0\n 50740: ra = u64 [sp + 0x118]\n 50744: s0 = u64 [sp + 0x110]\n 50748: s1 = u64 [sp + 0x108]\n 50752: sp = sp + 0x120\n 50756: ret\n      : @1832 (gas: 8)\n 50758: u64 [s1 + 112] = 0\n 50761: u64 [s1 + 104] = 0\n 50764: u64 [s1 + 96] = 0\n 50767: a0 = 0x7e27328900000000\n 50777: a1 = s1 + 0x60\n 50780: u64 [s1 + 0x78] = a0\n 50783: a0 = 0\n 50785: ra = 1988, jump @19\n      : @1833 [@dyn 994] (gas: 11)\n 50792: a0 = u64 [s1 + 0x10]\n 50795: u64 [s1 + 0x58] = a0\n 50798: a0 = u64 [s1 + 0x18]\n 50801: u64 [s1 + 0x50] = a0\n 50804: a0 = u64 [s1 + 0x20]\n 50807: u64 [s1 + 0x48] = a0\n 50810: a0 = 0x4\n 50813: a1 = s1 + 0x40\n 50816: a2 = u64 [s1 + 0x28]\n 50819: u64 [s1 + 0x40] = a2\n 50822: ra = 1990, jump @19\n      : @1834 [@dyn 995] (gas: 3)\n 50829: a0 = u64 [s1 + 0x8]\n 50832: a0 = i32 [a0]\n 50834: jump @1836 if a0 >u 63\n      : @1835 (gas: 3)\n 50838: a1 = u64 [s1 + 0x8]\n 50841: u32 [a1 + 0] = 0x40\n 50844: fallthrough\n      : @1836 (gas: 6)\n 50845: a0 = 0x1\n 50848: a2 = 0x24\n 50851: a1 = u64 [s1]\n 50853: ra = 0x7c8\n 50857: ecalli 13 // 'seal_return'\n 50859: fallthrough\n      : @1837 [@dyn 996] (gas: 30)\n 50860: sp = sp + 0xfffffffffffffcc0\n 50864: a3 = sp + 0x300\n 50868: u64 [a3 + 0x38] = ra\n 50871: u64 [a3 + 0x30] = s0\n 50874: u64 [a3 + 0x28] = s1\n 50877: s0 = sp + 0x340\n 50881: sp = sp & 0xffffffffffffffe0\n 50884: s1 = sp\n 50886: a3 = u64 [a1 + 0x10]\n 50889: u64 [s1 + 0x40] = a3\n 50892: a3 = u64 [a1 + 0x8]\n 50895: u64 [s1 + 0x30] = a3\n 50898: a1 = u64 [a1]\n 50900: u64 [s1 + 0x38] = a1\n 50903: a3 = u64 [a2]\n 50905: a1 = u64 [a2 + 0x8]\n 50908: a4 = u64 [a2 + 0x10]\n 50911: a2 = u64 [a2 + 0x18]\n 50914: u64 [s1 + 0x10] = a0\n 50917: u64 [s1 + 0x60] = a2\n 50920: u64 [s1 + 0x298] = a2\n 50924: u64 [s1 + 0x68] = a4\n 50927: u64 [s1 + 0x290] = a4\n 50931: u64 [s1 + 0x70] = a1\n 50934: u64 [s1 + 0x288] = a1\n 50938: a1 = s1 + 0x280\n 50942: u64 [s1 + 0x78] = a3\n 50945: u64 [s1 + 0x280] = a3\n 50949: a0 = 0\n 50951: ra = 1994, jump @19\n      : @1838 [@dyn 997] (gas: 7)\n 50958: u64 [s1 + 632] = 0\n 50962: u64 [s1 + 624] = 0\n 50966: u64 [s1 + 608] = 0x2\n 50971: a0 = 0x20\n 50974: a1 = s1 + 0x260\n 50978: u64 [s1 + 616] = 0\n 50982: ra = 1996, jump @19\n      : @1839 [@dyn 998] (gas: 3)\n 50989: a2 = 0x2020c\n 50994: a0 = i32 [0x2020c]\n 50999: jump @1841 if a0 >u 63\n      : @1840 (gas: 2)\n 51003: u32 [0x2020c] = 0x40\n 51009: fallthrough\n      : @1841 (gas: 17)\n 51010: u64 [s1 + 0x28] = a2\n 51013: a0 = 0xffffffff\n 51023: u64 [s1 + 0x18] = a0\n 51026: a0 = sp + 0xffffffffffffffe0\n 51029: a2 = a0 & 0xffffffffffffffe0\n 51032: u64 [s1 + 0x58] = a2\n 51035: sp = a2\n 51037: a0 = 0x20220\n 51042: i32 a0 = a0 + 0\n 51044: i32 a2 = a2 + 0\n 51046: a1 = 0x40\n 51049: u64 [s1 + 0x20] = a0\n 51052: ra = 0x7ce\n 51056: ecalli 9 // 'hash_keccak_256'\n 51058: a3 = u64 [s1 + 0x58]\n 51061: t0 = 0x7d0\n 51065: jump @1942\n      : @1842 [@dyn 999] (gas: 2)\n 51068: a3 = u64 [s1 + 0x58]\n 51071: t0 = 2000, jump @1942\n      : @1843 [@dyn 1000] (gas: 7)\n 51077: u64 [s1 + 0x2b8] = a3\n 51081: u64 [s1 + 0x2b0] = a2\n 51085: u64 [s1 + 0x2a8] = a1\n 51089: u64 [s1 + 0x2a0] = a0\n 51093: a0 = s1 + 0x240\n 51097: a1 = s1 + 0x2a0\n 51101: ra = 2002, jump @21\n      : @1844 [@dyn 1001] (gas: 9)\n 51108: a1 = u32 [s1 + 0x250]\n 51112: a0 = u64 [s1 + 0x240]\n 51116: a2 = u64 [s1 + 0x248]\n 51120: u64 [s1 + 0x58] = a0\n 51123: u64 [s1 + 0x50] = a1\n 51126: a0 = a0 | a1\n 51129: u64 [s1 + 0x48] = a2\n 51132: a0 = a0 | a2\n 51135: jump @1855 if a0 == 0\n      : @1845 (gas: 10)\n 51139: a0 = u64 [s1 + 0x78]\n 51142: u64 [s1 + 0x220] = a0\n 51146: a0 = u64 [s1 + 0x70]\n 51149: u64 [s1 + 0x228] = a0\n 51153: a0 = u64 [s1 + 0x68]\n 51156: u64 [s1 + 0x230] = a0\n 51160: a0 = s1 + 0x220\n 51164: a1 = u64 [s1 + 0x60]\n 51167: u64 [s1 + 0x238] = a1\n 51171: ra = 2004, jump @1898\n      : @1846 [@dyn 1002] (gas: 11)\n 51177: u64 [s1 + 536] = 0\n 51181: a0 = u64 [s1 + 0x50]\n 51184: a2 = s1 + 0x200\n 51188: u64 [a2 + 0x10] = a0\n 51191: a0 = u64 [s1 + 0x48]\n 51194: u64 [a2 + 0x8] = a0\n 51197: a1 = s1 + 0x200\n 51201: a0 = u64 [s1 + 0x58]\n 51204: u64 [a2] = a0\n 51206: a0 = 0\n 51208: ra = 2006, jump @19\n      : @1847 [@dyn 1003] (gas: 7)\n 51215: u64 [s1 + 504] = 0\n 51219: u64 [s1 + 496] = 0\n 51223: u64 [s1 + 480] = 0x3\n 51228: a0 = 0x20\n 51231: a1 = s1 + 0x1e0\n 51235: u64 [s1 + 488] = 0\n 51239: ra = 2008, jump @19\n      : @1848 [@dyn 1004] (gas: 7)\n 51246: a0 = sp + 0xffffffffffffffe0\n 51249: a0 = a0 & 0xffffffffffffffe0\n 51252: u64 [s1 + 0x8] = a0\n 51255: sp = a0\n 51257: a2 = u64 [s1 + 0x28]\n 51260: a0 = i32 [a2]\n 51262: jump @1850 if a0 >u 63\n      : @1849 (gas: 2)\n 51266: u32 [a2 + 0] = 0x40\n 51269: fallthrough\n      : @1850 (gas: 12)\n 51270: a0 = sp + 0xffffffffffffffe0\n 51273: a0 = a0 & 0xffffffffffffffe0\n 51276: u64 [s1] = a0\n 51278: sp = a0\n 51280: i32 a2 = a0 + 0\n 51282: a1 = 0x40\n 51285: a0 = u64 [s1 + 0x20]\n 51288: ra = 0x7da\n 51292: ecalli 9 // 'hash_keccak_256'\n 51294: a3 = u64 [s1]\n 51296: t0 = 0x7dc\n 51300: jump @1921\n      : @1851 [@dyn 1005] (gas: 2)\n 51303: a3 = u64 [s1]\n 51305: t0 = 2012, jump @1921\n      : @1852 [@dyn 1006] (gas: 7)\n 51311: a1 = u64 [s1 + 0x8]\n 51314: u64 [a1 + 0x18] = a3\n 51317: u64 [a1 + 0x10] = a2\n 51320: u64 [a1 + 0x8] = a4\n 51323: u64 [a1] = a0\n 51325: a0 = s1 + 0x1c0\n 51329: ra = 2014, jump @21\n      : @1853 [@dyn 1007] (gas: 2)\n 51336: a4 = s1 + 0x100\n 51340: t0 = 2016, jump @1966\n      : @1854 [@dyn 1008] (gas: 8)\n 51346: a4 = s1 + 0x200\n 51350: u64 [a4 + 0xc0] = a1\n 51354: u64 [a4 + 0xc8] = a0\n 51358: u64 [a4 + 0xd0] = a2\n 51362: u64 [a4 + 0xd8] = a3\n 51366: a1 = s1 + 0x2c0\n 51370: a0 = u64 [s1 + 0x8]\n 51373: ra = 2018, jump @23\n      : @1855 [@dyn 1009] (gas: 13)\n 51380: a0 = u64 [s1 + 0x30]\n 51383: a1 = a0 & 0xffffffffffffffff\n 51386: a0 = u64 [s1 + 0x38]\n 51389: a0 = a0 & 0xffffffffffffffff\n 51392: a2 = u64 [s1 + 0x40]\n 51395: a3 = u64 [s1 + 0x18]\n 51398: a2 = a2 & a3\n 51401: u64 [s1 + 0x40] = a0\n 51404: u64 [s1 + 0x30] = a2\n 51407: a0 = a0 | a2\n 51410: u64 [s1 + 0x38] = a1\n 51413: a0 = a0 | a1\n 51416: jump @1865 if a0 == 0\n      : @1856 (gas: 10)\n 51420: u64 [s1 + 440] = 0\n 51424: a0 = u64 [s1 + 0x40]\n 51427: u64 [s1 + 0x1a0] = a0\n 51431: a0 = u64 [s1 + 0x38]\n 51434: u64 [s1 + 0x1a8] = a0\n 51438: a1 = s1 + 0x1a0\n 51442: a0 = u64 [s1 + 0x30]\n 51445: u64 [s1 + 0x1b0] = a0\n 51449: a0 = 0\n 51451: ra = 2020, jump @19\n      : @1857 [@dyn 1010] (gas: 7)\n 51458: u64 [s1 + 408] = 0\n 51462: u64 [s1 + 400] = 0\n 51466: u64 [s1 + 384] = 0x3\n 51471: a0 = 0x20\n 51474: a1 = s1 + 0x180\n 51478: u64 [s1 + 392] = 0\n 51482: ra = 2022, jump @19\n      : @1858 [@dyn 1011] (gas: 7)\n 51489: a0 = sp + 0xffffffffffffffe0\n 51492: a0 = a0 & 0xffffffffffffffe0\n 51495: u64 [s1 + 0x18] = a0\n 51498: sp = a0\n 51500: a2 = u64 [s1 + 0x28]\n 51503: a0 = i32 [a2]\n 51505: jump @1860 if a0 >u 63\n      : @1859 (gas: 2)\n 51509: u32 [a2 + 0] = 0x40\n 51512: fallthrough\n      : @1860 (gas: 12)\n 51513: a0 = sp + 0xffffffffffffffe0\n 51516: a0 = a0 & 0xffffffffffffffe0\n 51519: u64 [s1 + 0x8] = a0\n 51522: sp = a0\n 51524: i32 a2 = a0 + 0\n 51526: a1 = 0x40\n 51529: a0 = u64 [s1 + 0x20]\n 51532: ra = 0x7e8\n 51536: ecalli 9 // 'hash_keccak_256'\n 51538: a3 = u64 [s1 + 0x8]\n 51541: t0 = 0x7ea\n 51545: jump @1961\n      : @1861 [@dyn 1012] (gas: 2)\n 51548: a3 = u64 [s1 + 0x8]\n 51551: t0 = 2026, jump @1961\n      : @1862 [@dyn 1013] (gas: 2)\n 51557: a0 = s1 + 0x160\n 51561: ra = 2028, jump @21\n      : @1863 [@dyn 1014] (gas: 6)\n 51568: a4 = s1 + 0x100\n 51572: a0 = u64 [a4 + 0x60]\n 51575: a1 = u64 [a4 + 0x78]\n 51578: a2 = u64 [a4 + 0x68]\n 51581: a3 = u64 [a4 + 0x70]\n 51584: t0 = 2030, jump @1982\n      : @1864 [@dyn 1015] (gas: 8)\n 51590: a3 = s1 + 0x200\n 51594: u64 [a3 + 0xe0] = a0\n 51598: u64 [a3 + 0xe8] = a2\n 51602: u64 [a3 + 0xf0] = a4\n 51606: u64 [a3 + 0xf8] = a1\n 51610: a1 = s1 + 0x2e0\n 51614: a0 = u64 [s1 + 0x18]\n 51617: ra = 2032, jump @23\n      : @1865 [@dyn 1016] (gas: 11)\n 51624: a0 = u64 [s1 + 0x78]\n 51627: u64 [s1 + 0x140] = a0\n 51631: a0 = u64 [s1 + 0x70]\n 51634: u64 [s1 + 0x148] = a0\n 51638: a0 = u64 [s1 + 0x68]\n 51641: u64 [s1 + 0x150] = a0\n 51645: a1 = s1 + 0x140\n 51649: a0 = u64 [s1 + 0x60]\n 51652: u64 [s1 + 0x158] = a0\n 51656: a0 = 0\n 51658: ra = 2034, jump @19\n      : @1866 [@dyn 1017] (gas: 7)\n 51665: u64 [s1 + 312] = 0\n 51669: u64 [s1 + 304] = 0\n 51673: u64 [s1 + 288] = 0x2\n 51678: a0 = 0x20\n 51681: a1 = s1 + 0x120\n 51685: u64 [s1 + 296] = 0\n 51689: ra = 2036, jump @19\n      : @1867 [@dyn 1018] (gas: 7)\n 51696: a0 = sp + 0xffffffffffffffe0\n 51699: a0 = a0 & 0xffffffffffffffe0\n 51702: u64 [s1 + 0x18] = a0\n 51705: sp = a0\n 51707: a2 = u64 [s1 + 0x28]\n 51710: a0 = i32 [a2]\n 51712: jump @1869 if a0 >u 63\n      : @1868 (gas: 2)\n 51716: u32 [a2 + 0] = 0x40\n 51719: fallthrough\n      : @1869 (gas: 12)\n 51720: a0 = sp + 0xffffffffffffffe0\n 51723: a0 = a0 & 0xffffffffffffffe0\n 51726: u64 [s1 + 0x28] = a0\n 51729: sp = a0\n 51731: i32 a2 = a0 + 0\n 51733: a1 = 0x40\n 51736: a0 = u64 [s1 + 0x20]\n 51739: ra = 0x7f6\n 51743: ecalli 9 // 'hash_keccak_256'\n 51745: a3 = u64 [s1 + 0x28]\n 51748: t0 = 0x7f8\n 51752: jump @1961\n      : @1870 [@dyn 1019] (gas: 2)\n 51755: a3 = u64 [s1 + 0x28]\n 51758: t0 = 2040, jump @1961\n      : @1871 [@dyn 1020] (gas: 2)\n 51764: a0 = s1 + 0x100\n 51768: ra = 2042, jump @21\n      : @1872 [@dyn 1021] (gas: 15)\n 51775: a0 = u32 [s1 + 0x114]\n 51779: a0 = a0 << 0x20\n 51782: a1 = u64 [s1 + 0x118]\n 51786: a2 = u64 [s1 + 0x30]\n 51789: a0 = a0 | a2\n 51792: a2 = u64 [s1 + 0x38]\n 51795: a3 = s1 + 0x300\n 51799: u64 [a3 + 0x8] = a2\n 51802: a2 = u64 [s1 + 0x40]\n 51805: u64 [a3] = a2\n 51807: u64 [a3 + 0x18] = a1\n 51810: u64 [a3 + 0x10] = a0\n 51813: a1 = s1 + 0x300\n 51817: a0 = u64 [s1 + 0x18]\n 51820: ra = 2044, jump @23\n      : @1873 [@dyn 1022] (gas: 37)\n 51827: a0 = u64 [s1 + 0x60]\n 51830: u64 [s1 + 0x98] = a0\n 51834: a0 = u64 [s1 + 0x68]\n 51837: u64 [s1 + 0x90] = a0\n 51841: a0 = u64 [s1 + 0x70]\n 51844: u64 [s1 + 0x88] = a0\n 51848: a0 = u64 [s1 + 0x78]\n 51851: u64 [s1 + 0x80] = a0\n 51855: u64 [s1 + 184] = 0\n 51859: a0 = u64 [s1 + 0x30]\n 51862: u64 [s1 + 0xb0] = a0\n 51866: a0 = u64 [s1 + 0x38]\n 51869: u64 [s1 + 0xa8] = a0\n 51873: a0 = u64 [s1 + 0x40]\n 51876: u64 [s1 + 0xa0] = a0\n 51880: u64 [s1 + 216] = 0\n 51884: a0 = u64 [s1 + 0x50]\n 51887: u64 [s1 + 0xd0] = a0\n 51891: a0 = u64 [s1 + 0x48]\n 51894: u64 [s1 + 0xc8] = a0\n 51898: a0 = u64 [0x201e8]\n 51903: a1 = u64 [0x201f0]\n 51908: a2 = u64 [0x201f8]\n 51913: a3 = u64 [s1 + 0x58]\n 51916: u64 [s1 + 0xc0] = a3\n 51920: u64 [s1 + 0xf8] = a0\n 51924: u64 [s1 + 0xf0] = a1\n 51928: u64 [s1 + 0xe8] = a2\n 51932: a0 = u64 [0x20200]\n 51937: a2 = s1 + 0xe0\n 51941: a3 = s1 + 0xc0\n 51945: a4 = s1 + 0xa0\n 51949: a5 = s1 + 0x80\n 51953: u64 [s1 + 0xe0] = a0\n 51957: a0 = 0\n 51959: a1 = 0\n 51961: ra = 2046, jump @31\n      : @1874 [@dyn 1023] (gas: 15)\n 51968: a0 = u64 [s1 + 0x10]\n 51971: u64 [a0 + 24] = 0\n 51974: a1 = u64 [s1 + 0x50]\n 51977: u64 [a0 + 0x10] = a1\n 51980: a1 = u64 [s1 + 0x48]\n 51983: u64 [a0 + 0x8] = a1\n 51986: a1 = u64 [s1 + 0x58]\n 51989: u64 [a0] = a1\n 51991: sp = s0 + 0xfffffffffffffcc0\n 51995: a0 = sp + 0x300\n 51999: ra = u64 [a0 + 0x38]\n 52002: s0 = u64 [a0 + 0x30]\n 52005: s1 = u64 [a0 + 0x28]\n 52008: sp = sp + 0x340\n 52012: ret\n      : @1875 (gas: 14)\n 52014: sp = sp + 0xfffffffffffffe30\n 52018: u64 [sp + 0x1c8] = ra\n 52022: u64 [sp + 0x1c0] = s0\n 52026: u64 [sp + 0x1b8] = s1\n 52030: s0 = sp + 0x1d0\n 52034: sp = sp & 0xfffffffffffffff0\n 52037: t0 = u64 [a1 + 0x10]\n 52040: t2 = u64 [a1 + 0x8]\n 52043: a5 = u64 [a1]\n 52045: a3 = t0 << 0x20\n 52048: a3 = a3 >> 0x20\n 52051: a4 = a5 | t2\n 52054: a3 = a3 | a4\n 52057: jump @1880 if a3 == 0\n      : @1876 (gas: 27)\n 52061: s1 = u64 [a2 + 0x18]\n 52064: a3 = u64 [a2 + 0x10]\n 52067: a4 = u64 [a2 + 0x8]\n 52070: a2 = u64 [a2]\n 52072: t1 = u64 [a1 + 0x18]\n 52075: a1 = u64 [a0 + 0x10]\n 52078: u64 [sp + 0x48] = a1\n 52081: a1 = u64 [a0 + 0x8]\n 52084: u64 [sp + 0x38] = a1\n 52087: a0 = u64 [a0]\n 52089: u64 [sp + 0x40] = a0\n 52092: u64 [sp + 0x30] = a2\n 52095: u64 [sp + 0x150] = a2\n 52099: u64 [sp + 0x170] = a5\n 52103: u64 [sp + 0x28] = a4\n 52106: u64 [sp + 0x158] = a4\n 52110: u64 [sp + 0x178] = t2\n 52114: u64 [sp + 0x20] = a3\n 52117: u64 [sp + 0x160] = a3\n 52121: u64 [sp + 0x180] = t0\n 52125: u64 [sp + 0x18] = s1\n 52128: u64 [sp + 0x168] = s1\n 52132: a0 = sp + 0x190\n 52136: a1 = sp + 0x170\n 52140: a2 = sp + 0x150\n 52144: u64 [sp + 0x188] = t1\n 52148: ra = 2048, jump @1837\n      : @1877 [@dyn 1024] (gas: 8)\n 52154: a5 = u64 [sp + 0x1a8]\n 52158: a4 = u64 [sp + 0x1a0]\n 52162: a3 = u64 [sp + 0x198]\n 52166: a2 = u64 [sp + 0x190]\n 52170: a0 = a3 | a5\n 52173: a1 = a2 | a4\n 52176: a0 = a0 | a1\n 52179: jump @1885 if a0 == 0\n      : @1878 (gas: 14)\n 52183: a1 = 0xffffffff\n 52193: s1 = u64 [sp + 0x38]\n 52196: t0 = s1 & 0xffffffffffffffff\n 52199: s1 = u64 [sp + 0x48]\n 52202: t1 = s1 & a1\n 52205: s1 = u64 [sp + 0x40]\n 52208: s1 = s1 & 0xffffffffffffffff\n 52211: a0 = a2 ^ s1\n 52214: a1 = a4 ^ t1\n 52217: a0 = a0 | a1\n 52220: a1 = a3 ^ t0\n 52223: a1 = a1 | a5\n 52226: a0 = a0 | a1\n 52229: jump @1891 if a0 != 0\n      : @1879 (gas: 6)\n 52233: sp = s0 + 0xfffffffffffffe30\n 52237: ra = u64 [sp + 0x1c8]\n 52241: s0 = u64 [sp + 0x1c0]\n 52245: s1 = u64 [sp + 0x1b8]\n 52249: sp = sp + 0x1d0\n 52253: ret\n      : @1880 (gas: 8)\n 52255: u64 [sp + 128] = 0\n 52259: u64 [sp + 120] = 0\n 52262: u64 [sp + 112] = 0\n 52265: a0 = 0x64a0ae9200000000\n 52275: a1 = sp + 0x70\n 52278: u64 [sp + 0x88] = a0\n 52282: a0 = 0\n 52284: ra = 2050, jump @19\n      : @1881 [@dyn 1025] (gas: 7)\n 52291: u64 [sp + 104] = 0\n 52294: u64 [sp + 96] = 0\n 52297: u64 [sp + 88] = 0\n 52300: a0 = 0x4\n 52303: a1 = sp + 0x50\n 52306: u64 [sp + 80] = 0\n 52309: ra = 2052, jump @19\n      : @1882 [@dyn 1026] (gas: 2)\n 52316: a1 = i32 [0x2020c]\n 52321: jump @1884 if a1 >u 63\n      : @1883 (gas: 3)\n 52325: u32 [0x2020c] = 0x40\n 52331: a1 = 0x20220\n 52336: jump @1890\n      : @1884 (gas: 2)\n 52338: a1 = 0x20220\n 52343: jump @1890\n      : @1885 (gas: 8)\n 52345: u64 [sp + 192] = 0\n 52349: u64 [sp + 184] = 0\n 52353: u64 [sp + 176] = 0\n 52357: a0 = 0x7e27328900000000\n 52367: a1 = sp + 0xb0\n 52371: u64 [sp + 0xc8] = a0\n 52375: a0 = 0\n 52377: ra = 2054, jump @19\n      : @1886 [@dyn 1027] (gas: 11)\n 52384: a0 = u64 [sp + 0x18]\n 52387: u64 [sp + 0xa8] = a0\n 52391: a0 = u64 [sp + 0x20]\n 52394: u64 [sp + 0xa0] = a0\n 52398: a0 = u64 [sp + 0x28]\n 52401: u64 [sp + 0x98] = a0\n 52405: a0 = 0x4\n 52408: a1 = sp + 0x90\n 52412: a2 = u64 [sp + 0x30]\n 52415: u64 [sp + 0x90] = a2\n 52419: ra = 2056, jump @19\n      : @1887 [@dyn 1028] (gas: 2)\n 52426: a1 = i32 [0x2020c]\n 52431: jump @1889 if a1 >u 63\n      : @1888 (gas: 3)\n 52435: u32 [0x2020c] = 0x40\n 52441: a1 = 0x20220\n 52446: jump @1890\n      : @1889 (gas: 2)\n 52448: a1 = 0x20220\n 52453: fallthrough\n      : @1890 (gas: 5)\n 52454: i32 a1 = a1 + 0\n 52456: a0 = 0x1\n 52459: a2 = 0x24\n 52462: ecalli 13 // 'seal_return'\n 52464: fallthrough\n      : @1891 (gas: 15)\n 52465: u64 [sp + 320] = 0\n 52469: u64 [sp + 312] = 0\n 52473: u64 [sp + 304] = 0\n 52477: a0 = 0x64283d7b00000000\n 52487: a1 = sp + 0x130\n 52491: u64 [sp + 0x148] = a0\n 52495: a0 = 0\n 52497: u64 [sp + 0x48] = a2\n 52500: u64 [sp + 0x40] = a3\n 52503: u64 [sp + 0x38] = a4\n 52506: u64 [sp + 0x10] = a5\n 52509: u64 [sp + 0x8] = s1\n 52512: u64 [sp] = t0\n 52514: s1 = t1\n 52516: ra = 2058, jump @19\n      : @1892 [@dyn 1029] (gas: 9)\n 52523: u64 [sp + 296] = 0\n 52527: u64 [sp + 0x120] = s1\n 52531: a0 = u64 [sp]\n 52533: u64 [sp + 0x118] = a0\n 52537: a0 = 0x4\n 52540: a1 = sp + 0x110\n 52544: a2 = u64 [sp + 0x8]\n 52547: u64 [sp + 0x110] = a2\n 52551: ra = 2060, jump @19\n      : @1893 [@dyn 1030] (gas: 11)\n 52558: a0 = u64 [sp + 0x18]\n 52561: u64 [sp + 0x108] = a0\n 52565: a0 = u64 [sp + 0x20]\n 52568: u64 [sp + 0x100] = a0\n 52572: a0 = u64 [sp + 0x28]\n 52575: u64 [sp + 0xf8] = a0\n 52579: a0 = 0x24\n 52582: a1 = sp + 0xf0\n 52586: a2 = u64 [sp + 0x30]\n 52589: u64 [sp + 0xf0] = a2\n 52593: ra = 2062, jump @19\n      : @1894 [@dyn 1031] (gas: 11)\n 52600: a0 = u64 [sp + 0x10]\n 52603: u64 [sp + 0xe8] = a0\n 52607: a0 = u64 [sp + 0x38]\n 52610: u64 [sp + 0xe0] = a0\n 52614: a0 = u64 [sp + 0x40]\n 52617: u64 [sp + 0xd8] = a0\n 52621: a0 = 0x44\n 52624: a1 = sp + 0xd0\n 52628: a2 = u64 [sp + 0x48]\n 52631: u64 [sp + 0xd0] = a2\n 52635: ra = 2064, jump @19\n      : @1895 [@dyn 1032] (gas: 2)\n 52642: a1 = i32 [0x2020c]\n 52647: jump @1897 if a1 >u 127\n      : @1896 (gas: 2)\n 52651: u32 [0x2020c] = 0x80\n 52658: fallthrough\n      : @1897 (gas: 7)\n 52659: a1 = 0x20220\n 52664: i32 a1 = a1 + 0\n 52666: a0 = 0x1\n 52669: a2 = 0x64\n 52672: ra = 0x812\n 52676: ecalli 13 // 'seal_return'\n 52678: fallthrough\n      : @1898 [@dyn 1033] (gas: 18)\n 52679: sp = sp + 0xffffffffffffff20\n 52683: u64 [sp + 0xd8] = ra\n 52687: u64 [sp + 0xd0] = s0\n 52691: u64 [sp + 0xc8] = s1\n 52695: s0 = sp + 0xe0\n 52699: sp = sp & 0xffffffffffffffe0\n 52702: s1 = sp\n 52704: a2 = u64 [a0]\n 52706: a1 = u64 [a0 + 0x8]\n 52709: a3 = u64 [a0 + 0x10]\n 52712: a0 = u64 [a0 + 0x18]\n 52715: u64 [s1 + 0x78] = a0\n 52718: u64 [s1 + 0x70] = a3\n 52721: u64 [s1 + 0x68] = a1\n 52724: a1 = s1 + 0x60\n 52727: u64 [s1 + 0x60] = a2\n 52730: a0 = 0\n 52732: ra = 2068, jump @19\n      : @1899 [@dyn 1034] (gas: 7)\n 52739: u64 [s1 + 88] = 0\n 52742: u64 [s1 + 80] = 0\n 52745: u64 [s1 + 64] = 0x4\n 52749: a0 = 0x20\n 52752: a1 = s1 + 0x40\n 52755: u64 [s1 + 72] = 0\n 52758: ra = 2070, jump @19\n      : @1900 [@dyn 1035] (gas: 2)\n 52765: a1 = i32 [0x2020c]\n 52770: jump @1902 if a1 >u 63\n      : @1901 (gas: 2)\n 52774: u32 [0x2020c] = 0x40\n 52780: fallthrough\n      : @1902 (gas: 13)\n 52781: a0 = sp + 0xffffffffffffffe0\n 52784: a2 = a0 & 0xffffffffffffffe0\n 52787: u64 [s1 + 0x18] = a2\n 52790: sp = a2\n 52792: a0 = 0x20220\n 52797: i32 a0 = a0 + 0\n 52799: i32 a2 = a2 + 0\n 52801: a1 = 0x40\n 52804: ra = 0x818\n 52808: ecalli 9 // 'hash_keccak_256'\n 52810: a3 = u64 [s1 + 0x18]\n 52813: t0 = 0x81a\n 52817: jump @1942\n      : @1903 [@dyn 1036] (gas: 2)\n 52820: a3 = u64 [s1 + 0x18]\n 52823: t0 = 2074, jump @1942\n      : @1904 [@dyn 1037] (gas: 7)\n 52829: u64 [s1 + 0x98] = a3\n 52833: u64 [s1 + 0x90] = a2\n 52837: u64 [s1 + 0x88] = a1\n 52841: u64 [s1 + 0x80] = a0\n 52845: a0 = s1 + 0x20\n 52848: a1 = s1 + 0x80\n 52852: ra = 2076, jump @21\n      : @1905 [@dyn 1038] (gas: 10)\n 52859: a0 = u32 [s1 + 0x34]\n 52862: a1 = u64 [s1 + 0x38]\n 52865: a0 = a0 << 0x20\n 52868: u64 [s1 + 168] = 0\n 52872: u64 [s1 + 160] = 0\n 52876: u64 [s1 + 0xb8] = a1\n 52880: u64 [s1 + 0xb0] = a0\n 52884: a0 = s1 + 0x80\n 52888: a1 = s1 + 0xa0\n 52892: ra = 2078, jump @23\n      : @1906 [@dyn 1039] (gas: 6)\n 52899: sp = s0 + 0xffffffffffffff20\n 52903: ra = u64 [sp + 0xd8]\n 52907: s0 = u64 [sp + 0xd0]\n 52911: s1 = u64 [sp + 0xc8]\n 52915: sp = sp + 0xe0\n 52919: ret\n      : @1907 [export #0: 'call'] (gas: 2)\n 52921: a0 = 0\n 52923: ra = 2080, jump @40\n      : @1908 [@dyn 1040] [export #1: 'deploy'] (gas: 2)\n 52930: a0 = 0x1\n 52933: ra = 2082, jump @40\n      : @1909 [@dyn 1041] (gas: 7)\n 52940: a1 = u64 [a2 + 0x58]\n 52943: a0 = a1 <u a0\n 52946: a1 = u64 [a2 + 0x50]\n 52949: a0 = 0 if a1 != 0\n 52951: a1 = u64 [a2 + 0x48]\n 52954: a0 = 0 if a1 != 0\n 52956: jump [t0]\n      : @1910 (gas: 14)\n 52958: a3 = s1 + 0x100\n 52962: a0 = u64 [a3 + 0x48]\n 52965: a2 = u64 [a3 + 0x40]\n 52968: a2 = a2 | a0\n 52971: a0 = 0x100000000\n 52981: u64 [a3 + 0x40] = a0\n 52984: a0 = 0xfffffffc\n 52994: a1 = u64 [a3 + 0x58]\n 52997: a0 = a1 <u a0\n 53000: a1 = u64 [a3 + 0x50]\n 53003: a0 = 0 if a1 != 0\n 53005: u64 [a3 + 0x48] = a2\n 53008: a0 = 0 if a2 != 0\n 53010: jump [t0]\n      : @1911 (gas: 21)\n 53012: a0 = u64 [a2 + 0x8]\n 53015: a1 = u64 [a2]\n 53017: a2 = i32 [a2 + 0x10]\n 53020: a0 = reverse a0\n 53022: a3 = a0 >> 0x20\n 53025: a1 = reverse a1\n 53027: a4 = a1 << 0x20\n 53030: a3 = a3 | a4\n 53033: u64 [s1 + 0x120] = a3\n 53037: a0 = a0 << 0x20\n 53040: a2 = reverse a2\n 53042: a2 = a2 >> 0x20\n 53045: a0 = a0 | a2\n 53048: u64 [s1 + 0x118] = a0\n 53052: a1 = a1 >> 0x20\n 53055: u64 [s1 + 0x110] = a1\n 53059: a0 = sp + 0xffffffffffffffe0\n 53062: a2 = a0 & 0xffffffffffffffe0\n 53065: u64 [s1 + 0x108] = a2\n 53069: sp = a2\n 53071: jump [t0]\n      : @1912 (gas: 17)\n 53073: a0 = u64 [a3]\n 53075: a1 = u64 [a3 + 0x8]\n 53078: a2 = u64 [a3 + 0x10]\n 53081: a3 = u64 [a3 + 0x18]\n 53084: a0 = reverse a0\n 53086: a1 = reverse a1\n 53088: a2 = reverse a2\n 53090: a3 = reverse a3\n 53092: a4 = a3 + 0x2\n 53095: a3 = a4 <u a3\n 53098: a5 = a2 + a3\n 53101: a2 = a5 <u a2\n 53104: a2 = a3 if a3 == 0\n 53107: a2 = a2 + a1\n 53110: a1 = a2 <u a1\n 53113: a0 = a0 + a1\n 53116: jump [t0]\n      : @1913 (gas: 14)\n 53118: a0 = u64 [a2 + 0x8]\n 53121: a1 = u64 [a2]\n 53123: a2 = i32 [a2 + 0x10]\n 53126: a0 = reverse a0\n 53128: a3 = a0 >> 0x20\n 53131: a1 = reverse a1\n 53133: a4 = a1 << 0x20\n 53136: a3 = a3 | a4\n 53139: a0 = a0 << 0x20\n 53142: a2 = reverse a2\n 53144: a2 = a2 >> 0x20\n 53147: a0 = a0 | a2\n 53150: a1 = a1 >> 0x20\n 53153: jump [t0]\n      : @1914 (gas: 14)\n 53155: a0 = u64 [a2 + 0x8]\n 53158: a1 = i32 [a2 + 0x10]\n 53161: a2 = u64 [a2]\n 53163: a0 = reverse a0\n 53165: a3 = a0 << 0x20\n 53168: a1 = reverse a1\n 53170: a1 = a1 >> 0x20\n 53173: a3 = a3 | a1\n 53176: a0 = a0 >> 0x20\n 53179: a1 = reverse a2\n 53181: a2 = a1 << 0x20\n 53184: a0 = a0 | a2\n 53187: a1 = a1 >> 0x20\n 53190: jump [t0]\n      : @1915 (gas: 17)\n 53192: a0 = u64 [a3]\n 53194: a1 = u64 [a3 + 0x8]\n 53197: a2 = u64 [a3 + 0x10]\n 53200: a3 = u64 [a3 + 0x18]\n 53203: a0 = reverse a0\n 53205: a1 = reverse a1\n 53207: a2 = reverse a2\n 53209: a3 = reverse a3\n 53211: a3 = a3 + 0x1\n 53214: a4 = a3 <u 0x1\n 53217: a2 = a2 + a4\n 53220: a4 = a3 | a2\n 53223: a4 = a4 <u 0x1\n 53226: a4 = a4 + a1\n 53229: a1 = a4 <u a1\n 53232: a0 = a0 + a1\n 53235: jump [t0]\n      : @1916 (gas: 13)\n 53237: a5 = s1 + 0x100\n 53241: u64 [a5 + 0x50] = a2\n 53244: u64 [a5 + 0x48] = a3\n 53247: a0 = a2 | a3\n 53250: u64 [a5 + 0x58] = a1\n 53253: a1 = a1 | a4\n 53256: a1 = a1 | a0\n 53259: a1 = a1 >> 0x20\n 53262: u64 [a5 + 0x40] = a4\n 53265: a0 = a0 | a4\n 53268: a0 = a0 << 0x20\n 53271: a0 = a0 | a1\n 53274: jump [t0]\n      : @1917 (gas: 13)\n 53276: a1 = a0 <u a1\n 53279: a3 = u64 [s1 + 0xd0]\n 53283: a2 = a3 + a1\n 53286: a3 = a2 <u a3\n 53289: a3 = a1 if a1 == 0\n 53292: a1 = u64 [s1 + 0x110]\n 53296: a3 = a3 + a1\n 53299: a1 = a3 <u a1\n 53302: a4 = u64 [s1 + 0x108]\n 53306: a1 = a1 + a4\n 53309: a4 = s1 + 0x30d8\n 53313: a5 = a4 + 0x300\n 53317: jump [t0]\n      : @1918 (gas: 13)\n 53319: a1 = a0 <u a1\n 53322: a3 = u64 [s1 + 0xc0]\n 53326: a2 = a3 + a1\n 53329: a3 = a2 <u a3\n 53332: a3 = a1 if a1 == 0\n 53335: a1 = u64 [s1 + 0x110]\n 53339: a3 = a3 + a1\n 53342: a1 = a3 <u a1\n 53345: a4 = u64 [s1 + 0x108]\n 53349: a1 = a1 + a4\n 53352: a4 = s1 + 0x30d8\n 53356: a5 = a4 + 0x400\n 53360: jump [t0]\n      : @1919 (gas: 7)\n 53362: a1 = u64 [s1 + 0x120]\n 53366: a0 = a1 <u a0\n 53369: a1 = u64 [s1 + 0x118]\n 53373: a0 = 0 if a1 != 0\n 53375: a1 = u64 [s1 + 0x98]\n 53379: a0 = 0 if a1 != 0\n 53381: jump [t0]\n      : @1920 (gas: 24)\n 53383: t1 = u64 [s1 + 0x120]\n 53387: t1 = t1 + 0x1\n 53390: a0 = t1 <u 0x1\n 53393: t2 = u64 [s1 + 0x128]\n 53397: t2 = t2 + a0\n 53400: a0 = t1 | t2\n 53403: a0 = a0 <u 0x1\n 53406: a5 = s1 + 0x100\n 53410: a1 = u64 [a5 + 0x18]\n 53413: a0 = a0 + a1\n 53416: a1 = a0 <u a1\n 53419: ra = u64 [s1 + 0x130]\n 53423: ra = ra + a1\n 53426: a2 = u64 [a5 + 0x58]\n 53429: a1 = a2 + 0x20\n 53432: a2 = a1 <u a2\n 53435: a4 = u64 [a5 + 0x48]\n 53438: a3 = a4 + a2\n 53441: a4 = a3 <u a4\n 53444: a4 = a2 if a2 == 0\n 53447: a2 = u64 [a5 + 0x40]\n 53450: a4 = a4 + a2\n 53453: a2 = a4 <u a2\n 53456: jump [t0]\n      : @1921 (gas: 9)\n 53458: a0 = u64 [a3 + 0x18]\n 53461: a1 = u64 [a3 + 0x10]\n 53464: a2 = u64 [a3 + 0x8]\n 53467: a3 = u64 [a3]\n 53469: a0 = reverse a0\n 53471: a4 = reverse a1\n 53473: a2 = reverse a2\n 53475: a3 = reverse a3\n 53477: jump [t0]\n      : @1922 (gas: 8)\n 53479: u64 [sp + 48] = 0\n 53482: u64 [sp + 40] = 0\n 53485: u64 [sp + 32] = 0\n 53488: a0 = 0x4e487b7100000000\n 53498: a1 = sp + 0x20\n 53501: u64 [sp + 0x38] = a0\n 53504: a0 = 0\n 53506: jump [t0]\n      : @1923 (gas: 15)\n 53508: a3 = u64 [s1 + 0x48]\n 53511: a0 = u64 [a3 + 0x18]\n 53514: a1 = u64 [a3 + 0x10]\n 53517: a2 = u64 [a3 + 0x8]\n 53520: a3 = u64 [a3]\n 53522: a0 = reverse a0\n 53524: a4 = reverse a1\n 53526: a2 = reverse a2\n 53528: a3 = reverse a3\n 53530: a1 = u64 [s1 + 0x58]\n 53533: u64 [a1 + 0x18] = a3\n 53536: u64 [a1 + 0x10] = a2\n 53539: u64 [a1 + 0x8] = a4\n 53542: u64 [a1] = a0\n 53544: jump [t0]\n      : @1924 (gas: 19)\n 53546: a3 = u64 [s1 + 0x108]\n 53550: a0 = u64 [a3]\n 53552: a1 = u64 [a3 + 0x8]\n 53555: a2 = u64 [a3 + 0x10]\n 53558: a3 = u64 [a3 + 0x18]\n 53561: a0 = reverse a0\n 53563: a1 = reverse a1\n 53565: a2 = reverse a2\n 53567: a3 = reverse a3\n 53569: a4 = a3 + 0x2\n 53572: a3 = a4 <u a3\n 53575: a5 = a2 + a3\n 53578: a2 = a5 <u a2\n 53581: a2 = a3 if a3 == 0\n 53584: a2 = a2 + a1\n 53587: a1 = a2 <u a1\n 53590: a0 = a0 + a1\n 53593: a1 = s1 + 0x30d8\n 53597: jump [t0]\n      : @1925 (gas: 19)\n 53599: a3 = u64 [s1 + 0x128]\n 53603: a0 = u64 [a3]\n 53605: a1 = u64 [a3 + 0x8]\n 53608: a2 = u64 [a3 + 0x10]\n 53611: a3 = u64 [a3 + 0x18]\n 53614: a0 = reverse a0\n 53616: a1 = reverse a1\n 53618: a2 = reverse a2\n 53620: a3 = reverse a3\n 53622: a4 = a3 + 0x3\n 53625: a3 = a4 <u a3\n 53628: a5 = a2 + a3\n 53631: a2 = a5 <u a2\n 53634: a2 = a3 if a3 == 0\n 53637: a2 = a2 + a1\n 53640: a1 = a2 <u a1\n 53643: a0 = a0 + a1\n 53646: a1 = s1 + 0x38d8\n 53650: jump [t0]\n      : @1926 (gas: 22)\n 53652: a2 = u64 [s1 + 0xd0]\n 53656: a0 = u64 [a2 + 0x8]\n 53659: a1 = u64 [a2]\n 53661: a2 = i32 [a2 + 0x10]\n 53664: a0 = reverse a0\n 53666: a3 = a0 >> 0x20\n 53669: a1 = reverse a1\n 53671: a4 = a1 << 0x20\n 53674: a3 = a3 | a4\n 53677: u64 [s1 + 0x138] = a3\n 53681: a0 = a0 << 0x20\n 53684: a2 = reverse a2\n 53686: a2 = a2 >> 0x20\n 53689: a0 = a0 | a2\n 53692: u64 [s1 + 0x130] = a0\n 53696: a1 = a1 >> 0x20\n 53699: u64 [s1 + 0x128] = a1\n 53703: a0 = sp + 0xffffffffffffffe0\n 53706: a2 = a0 & 0xffffffffffffffe0\n 53709: u64 [s1 + 0x120] = a2\n 53713: sp = a2\n 53715: jump [t0]\n      : @1927 (gas: 8)\n 53717: a0 = a0 | a2\n 53720: a2 = a4 | a1\n 53723: a2 = a2 | a0\n 53726: a2 = a2 >> 0x20\n 53729: a0 = a0 | a1\n 53732: a0 = a0 << 0x20\n 53735: a0 = a0 | a2\n 53738: jump [t0]\n      : @1928 (gas: 10)\n 53740: a1 = a1 + a2\n 53743: a2 = a0 | a1\n 53746: a2 = a2 <u 0x1\n 53749: a3 = u64 [s1 + 0x110]\n 53753: a2 = a2 + a3\n 53756: a3 = a2 <u a3\n 53759: a4 = u64 [s1 + 0x108]\n 53763: a3 = a3 + a4\n 53766: a4 = s1 + 0x30d8\n 53770: jump [t0]\n      : @1929 (gas: 19)\n 53772: a0 = u64 [a3]\n 53774: a1 = u64 [a3 + 0x8]\n 53777: a2 = u64 [a3 + 0x10]\n 53780: a3 = u64 [a3 + 0x18]\n 53783: a0 = reverse a0\n 53785: a1 = reverse a1\n 53787: a2 = reverse a2\n 53789: a3 = reverse a3\n 53791: a3 = a3 + 0x1\n 53794: a4 = a3 <u 0x1\n 53797: a2 = a2 + a4\n 53800: a4 = a3 | a2\n 53803: a4 = a4 <u 0x1\n 53806: a4 = a4 + a1\n 53809: a1 = a4 <u a1\n 53812: a0 = a0 + a1\n 53815: a1 = s1 + 0x30d8\n 53819: a5 = a1 + 0x500\n 53823: jump [t0]\n      : @1930 (gas: 11)\n 53825: a4 = a4 + a1\n 53828: a1 = a4 <u a1\n 53831: a1 = a1 + a3\n 53834: a1 = a1 | a2\n 53837: a2 = a0 | a4\n 53840: a2 = a2 | a1\n 53843: a1 = a1 | a4\n 53846: a2 = a2 >> 0x20\n 53849: a1 = a1 << 0x20\n 53852: a1 = a1 | a2\n 53855: jump [t0]\n      : @1931 (gas: 19)\n 53857: a2 = u64 [s1 + 0x138]\n 53861: a0 = u64 [a2 + 0x8]\n 53864: a1 = i32 [a2 + 0x10]\n 53867: a2 = u64 [a2]\n 53869: a0 = reverse a0\n 53871: a3 = a0 << 0x20\n 53874: a1 = reverse a1\n 53876: a1 = a1 >> 0x20\n 53879: a1 = a1 | a3\n 53882: u64 [s1 + 0x120] = a1\n 53886: a0 = a0 >> 0x20\n 53889: a1 = reverse a2\n 53891: a2 = a1 << 0x20\n 53894: a0 = a0 | a2\n 53897: u64 [s1 + 0x118] = a0\n 53901: a1 = a1 >> 0x20\n 53904: u64 [s1 + 0x108] = a1\n 53908: a0 = 0x3000\n 53912: jump [t0]\n      : @1932 (gas: 17)\n 53914: a0 = u64 [a3]\n 53916: a1 = u64 [a3 + 0x8]\n 53919: a2 = u64 [a3 + 0x10]\n 53922: a3 = u64 [a3 + 0x18]\n 53925: a0 = reverse a0\n 53927: a1 = reverse a1\n 53929: a2 = reverse a2\n 53931: a3 = reverse a3\n 53933: a4 = a3 + 0x4\n 53936: a3 = a4 <u a3\n 53939: a5 = a2 + a3\n 53942: a2 = a5 <u a2\n 53945: a2 = a3 if a3 == 0\n 53948: a2 = a2 + a1\n 53951: a1 = a2 <u a1\n 53954: a0 = a0 + a1\n 53957: jump [t0]\n      : @1933 (gas: 16)\n 53959: a4 = u64 [s1 + 0x118]\n 53963: a2 = a4 <u 0x80\n 53967: a3 = u64 [s1 + 0xd0]\n 53971: a1 = a3 if a2 != 0\n 53974: a5 = u64 [s1 + 0xd8]\n 53978: a3 = u64 [s1 + 0xe8]\n 53982: a3 = a3 | a5\n 53985: a3 = a0 if a2 == 0\n 53988: a1 = 0xffffffffffffffff if a4 == 0\n 53991: a3 = 0xffffffffffffffff if a4 == 0\n 53994: a4 = u64 [s1 + 0xe0]\n 53998: a4 = 0 if a2 == 0\n 54000: a5 = 0 if a2 == 0\n 54002: a0 = u64 [s1 + 0xf0]\n 54006: a0 = a0 & ~a3\n 54009: jump [t0]\n      : @1934 (gas: 19)\n 54011: a3 = u64 [s1 + 0x120]\n 54015: a0 = u64 [a3 + 0x18]\n 54018: a1 = u64 [a3 + 0x10]\n 54021: a2 = u64 [a3 + 0x8]\n 54024: a3 = u64 [a3]\n 54026: a5 = reverse a0\n 54028: a4 = reverse a1\n 54030: a0 = reverse a2\n 54032: a1 = reverse a3\n 54034: u64 [s1 + 0x108] = a1\n 54038: a2 = u64 [s1 + 0x98]\n 54042: u64 [a2 + 0x18] = a1\n 54045: u64 [s1 + 0x110] = a0\n 54049: u64 [a2 + 0x10] = a0\n 54052: u64 [s1 + 0xc0] = a4\n 54056: u64 [a2 + 0x8] = a4\n 54059: u64 [s1 + 0xb8] = a5\n 54063: u64 [a2] = a5\n 54065: jump [t0]\n      : @1935 (gas: 15)\n 54067: a5 = s1 + 0x100\n 54071: a1 = u64 [a5 + 0x58]\n 54074: a0 = a1 + 0x20\n 54077: a1 = a0 <u a1\n 54080: a3 = u64 [a5 + 0x50]\n 54083: a2 = a3 + a1\n 54086: a3 = a2 <u a3\n 54089: a3 = a1 if a1 == 0\n 54092: a1 = u64 [a5 + 0x40]\n 54095: a3 = a3 + a1\n 54098: a1 = a3 <u a1\n 54101: a4 = u64 [a5 + 0x48]\n 54104: a4 = a4 + a1\n 54107: a1 = s1 + 0x20d8\n 54111: jump [t0]\n      : @1936 (gas: 13)\n 54113: a1 = s1 + 0x100\n 54117: a4 = u64 [a1 + 0x48]\n 54120: a2 = u64 [a1 + 0x40]\n 54123: a0 = u64 [a1 + 0x58]\n 54126: a0 = a0 | a4\n 54129: a3 = u64 [a1 + 0x50]\n 54132: a1 = a2 | a3\n 54135: a1 = a1 | a0\n 54138: a1 = a1 >> 0x20\n 54141: a0 = a0 | a3\n 54144: a0 = a0 << 0x20\n 54147: a0 = a0 | a1\n 54150: jump [t0]\n      : @1937 (gas: 13)\n 54152: a1 = a0 <u a1\n 54155: a3 = u64 [s1 + 0xc0]\n 54159: a2 = a3 + a1\n 54162: a3 = a2 <u a3\n 54165: a3 = a1 if a1 == 0\n 54168: a1 = u64 [s1 + 0x110]\n 54172: a3 = a3 + a1\n 54175: a1 = a3 <u a1\n 54178: a4 = u64 [s1 + 0x108]\n 54182: a1 = a1 + a4\n 54185: a4 = s1 + 0x30d8\n 54189: a5 = a4 + 0x500\n 54193: jump [t0]\n      : @1938 (gas: 13)\n 54195: a4 = s1 + 0x100\n 54199: u64 [a4 + 0x50] = a0\n 54202: u64 [a4 + 0x48] = a2\n 54205: a0 = a0 | a2\n 54208: u64 [a4 + 0x58] = a1\n 54211: a1 = a1 | a3\n 54214: a1 = a1 | a0\n 54217: a1 = a1 >> 0x20\n 54220: u64 [a4 + 0x40] = a3\n 54223: a0 = a0 | a3\n 54226: a0 = a0 << 0x20\n 54229: a0 = a0 | a1\n 54232: jump [t0]\n      : @1939 (gas: 16)\n 54234: a2 = u64 [s1 + 0xa8]\n 54238: a0 = u64 [a2 + 0x8]\n 54241: a1 = i32 [a2 + 0x10]\n 54244: a2 = u64 [a2]\n 54246: a0 = reverse a0\n 54248: a3 = a0 << 0x20\n 54251: a1 = reverse a1\n 54253: a1 = a1 >> 0x20\n 54256: a3 = a3 | a1\n 54259: a0 = a0 >> 0x20\n 54262: a1 = reverse a2\n 54264: a2 = a1 << 0x20\n 54267: a4 = a2 | a0\n 54270: a1 = a1 >> 0x20\n 54273: a0 = u64 [s1 + 0x158]\n 54277: jump [t0]\n      : @1940 (gas: 15)\n 54279: a1 = u64 [s1 + 0xf0]\n 54283: a0 = u64 [s1 + 0x158]\n 54287: a0 = a0 + a1\n 54290: a1 = a0 <u a1\n 54293: a4 = u64 [s1 + 0xe8]\n 54297: a2 = u64 [s1 + 0x148]\n 54301: a2 = a2 + a4\n 54304: a2 = a2 + a1\n 54307: a3 = a2 ^ a4\n 54310: a4 = a2 <u a4\n 54313: a4 = a1 if a3 == 0\n 54316: a3 = u64 [s1 + 0xe0]\n 54320: a1 = u64 [s1 + 0x140]\n 54324: a1 = a1 + a3\n 54327: jump [t0]\n      : @1941 (gas: 14)\n 54329: a3 = u64 [s1 + 0x128]\n 54333: a0 = a0 ^ a3\n 54336: a3 = u64 [s1 + 0x130]\n 54340: a1 = a1 ^ a3\n 54343: a0 = a0 | a1\n 54346: a1 = u64 [s1 + 0x138]\n 54350: a1 = a1 ^ a2\n 54353: a1 = a1 | a0\n 54356: a4 = u64 [s1 + 0x140]\n 54360: a0 = a4\n 54362: t1 = u64 [s1 + 0x158]\n 54366: t2 = u64 [s1 + 0x150]\n 54370: ra = u64 [s1 + 0x148]\n 54374: jump [t0]\n      : @1942 (gas: 9)\n 54376: a0 = u64 [a3 + 0x18]\n 54379: a1 = u64 [a3 + 0x10]\n 54382: a2 = u64 [a3 + 0x8]\n 54385: a3 = u64 [a3]\n 54387: a0 = reverse a0\n 54389: a1 = reverse a1\n 54391: a2 = reverse a2\n 54393: a3 = reverse a3\n 54395: jump [t0]\n      : @1943 (gas: 14)\n 54397: a0 = u64 [a2 + 0x8]\n 54400: a1 = i32 [a2 + 0x10]\n 54403: a2 = u64 [a2]\n 54405: a0 = reverse a0\n 54407: a3 = a0 << 0x20\n 54410: a1 = reverse a1\n 54412: a1 = a1 >> 0x20\n 54415: a1 = a1 | a3\n 54418: u64 [s1 + 0x158] = a1\n 54422: a0 = a0 >> 0x20\n 54425: a1 = reverse a2\n 54427: a2 = a1 << 0x20\n 54430: a0 = a0 | a2\n 54433: jump [t0]\n      : @1944 (gas: 15)\n 54435: a0 = u64 [a2 + 0x8]\n 54438: a1 = i32 [a2 + 0x10]\n 54441: a2 = u64 [a2]\n 54443: a0 = reverse a0\n 54445: a3 = a0 << 0x20\n 54448: a1 = reverse a1\n 54450: a1 = a1 >> 0x20\n 54453: a3 = a3 | a1\n 54456: a0 = a0 >> 0x20\n 54459: a1 = reverse a2\n 54461: a2 = a1 << 0x20\n 54464: a0 = a0 | a2\n 54467: a1 = a1 >> 0x20\n 54470: a2 = 0x2000\n 54474: jump [t0]\n      : @1945 (gas: 5)\n 54476: a0 = sp + 0xffffffffffffffe0\n 54479: a2 = a0 & 0xffffffffffffffe0\n 54482: u64 [s1 + 0x108] = a2\n 54486: sp = a2\n 54488: jump [t0]\n      : @1946 (gas: 14)\n 54490: a3 = a3 + a4\n 54493: u64 [s1 + 0xe8] = a3\n 54497: a3 = a3 << 0x3b\n 54500: a4 = a2 >> 0x5\n 54503: a4 = a4 | a3\n 54506: a0 = u64 [s1 + 0x108]\n 54510: t1 = u64 [a0 + 0x18]\n 54513: a2 = a2 << 0x3b\n 54516: a3 = u64 [a0 + 0x10]\n 54519: a1 = a1 >> 0x5\n 54522: a0 = a1 | a2\n 54525: t2 = reverse t1\n 54527: a2 = reverse a3\n 54529: jump [t0]\n      : @1947 (gas: 14)\n 54531: a0 = u64 [a2 + 0x8]\n 54534: a1 = i32 [a2 + 0x10]\n 54537: a2 = u64 [a2]\n 54539: a3 = reverse a0\n 54541: a0 = a3 << 0x20\n 54544: a1 = reverse a1\n 54546: a1 = a1 >> 0x20\n 54549: a0 = a0 | a1\n 54552: a3 = a3 >> 0x20\n 54555: a1 = reverse a2\n 54557: a2 = a1 << 0x20\n 54560: a2 = a2 | a3\n 54563: a1 = a1 >> 0x20\n 54566: jump [t0]\n      : @1948 (gas: 9)\n 54568: a0 = u64 [a2 + 0x8]\n 54571: a1 = i32 [a2 + 0x10]\n 54574: a2 = u64 [a2]\n 54576: a0 = reverse a0\n 54578: a3 = a0 << 0x20\n 54581: a1 = reverse a1\n 54583: a1 = a1 >> 0x20\n 54586: a1 = a1 | a3\n 54589: jump [t0]\n      : @1949 (gas: 14)\n 54591: a0 = u64 [a2 + 0x8]\n 54594: a1 = i32 [a2 + 0x10]\n 54597: a2 = u64 [a2]\n 54599: a0 = reverse a0\n 54601: a3 = a0 << 0x20\n 54604: a1 = reverse a1\n 54606: a1 = a1 >> 0x20\n 54609: a1 = a1 | a3\n 54612: a0 = a0 >> 0x20\n 54615: a2 = reverse a2\n 54617: a3 = a2 << 0x20\n 54620: a0 = a0 | a3\n 54623: a2 = a2 >> 0x20\n 54626: jump [t0]\n      : @1950 (gas: 14)\n 54628: a0 = u64 [a2 + 0x8]\n 54631: a1 = i32 [a2 + 0x10]\n 54634: a2 = u64 [a2]\n 54636: a0 = reverse a0\n 54638: a3 = a0 << 0x20\n 54641: a1 = reverse a1\n 54643: a1 = a1 >> 0x20\n 54646: a3 = a3 | a1\n 54649: a0 = a0 >> 0x20\n 54652: a1 = reverse a2\n 54654: a2 = a1 << 0x20\n 54657: a2 = a2 | a0\n 54660: a1 = a1 >> 0x20\n 54663: jump [t0]\n      : @1951 (gas: 7)\n 54665: a1 = u64 [s1 + 0x120]\n 54669: a0 = a1 <u a0\n 54672: a1 = u64 [s1 + 0x118]\n 54676: a0 = 0 if a1 != 0\n 54678: a1 = u64 [s1 + 0xa8]\n 54682: a0 = 0 if a1 != 0\n 54684: jump [t0]\n      : @1952 (gas: 8)\n 54686: a0 = sp + 0xffffffffffffffe0\n 54689: a0 = a0 & 0xffffffffffffffe0\n 54692: u64 [s1 + 0x120] = a0\n 54696: sp = a0\n 54698: i32 a2 = a0 + 0\n 54700: a1 = 0x40\n 54703: a0 = u64 [s1 + 0xf8]\n 54707: jump [t0]\n      : @1953 (gas: 8)\n 54709: a0 = sp + 0xffffffffffffffe0\n 54712: a0 = a0 & 0xffffffffffffffe0\n 54715: u64 [s1 + 0x120] = a0\n 54719: sp = a0\n 54721: i32 a2 = a0 + 0\n 54723: a1 = 0x40\n 54726: a0 = u64 [s1 + 0xe8]\n 54730: jump [t0]\n      : @1954 (gas: 14)\n 54732: a5 = a5 + a2\n 54735: a4 = a5 <u a2\n 54738: a0 = u64 [s1 + 0x110]\n 54742: a2 = a2 <u a0\n 54745: a0 = t2 + a2\n 54748: a0 = a0 + a4\n 54751: a2 = a1 | a5\n 54754: a0 = a0 | a3\n 54757: a2 = a2 | a0\n 54760: a2 = a2 >> 0x20\n 54763: a0 = a0 | a5\n 54766: a0 = a0 << 0x20\n 54769: a0 = a0 | a2\n 54772: jump [t0]\n      : @1955 (gas: 14)\n 54774: a3 = s1 + 0x100\n 54778: a0 = u64 [a3 + 0x48]\n 54781: a2 = u64 [a3 + 0x40]\n 54784: a2 = a2 | a0\n 54787: a0 = 0x100000000\n 54797: u64 [a3 + 0x40] = a0\n 54800: a0 = 0xffffffe0\n 54810: a1 = u64 [a3 + 0x58]\n 54813: a0 = a1 <u a0\n 54816: a1 = u64 [a3 + 0x50]\n 54819: a0 = 0 if a1 != 0\n 54821: u64 [a3 + 0x48] = a2\n 54824: a0 = 0 if a2 != 0\n 54826: jump [t0]\n      : @1956 (gas: 10)\n 54828: a1 = u64 [s1 + 0x118]\n 54832: a0 = a0 | a1\n 54835: a1 = u64 [s1 + 0x120]\n 54839: a1 = a1 | a2\n 54842: a1 = a1 | a0\n 54845: a1 = a1 >> 0x20\n 54848: a0 = a0 | a2\n 54851: a0 = a0 << 0x20\n 54854: a0 = a0 | a1\n 54857: jump [t0]\n      : @1957 (gas: 13)\n 54859: a4 = a0 << 0x3f\n 54862: a5 = a1 >> 0x1\n 54865: t1 = a5 | a4\n 54868: a5 = a3 << 0x3f\n 54871: a0 = a0 >> 0x1\n 54874: a0 = a0 | a5\n 54877: a1 = a1 << 0x3f\n 54880: a5 = a2 >> 0x1\n 54883: a1 = a1 | a5\n 54886: a3 = a3 >> 0x1\n 54889: a2 = a2 & 0x1\n 54892: a5 = -a2\n 54894: jump [t0]\n      : @1958 (gas: 11)\n 54896: a3 = u64 [s1 + 0x158]\n 54900: a0 = u64 [a3 + 0x18]\n 54903: a1 = u64 [a3 + 0x10]\n 54906: a2 = u64 [a3 + 0x8]\n 54909: a3 = u64 [a3]\n 54911: a0 = reverse a0\n 54913: a1 = reverse a1\n 54915: a2 = reverse a2\n 54917: a3 = reverse a3\n 54919: a4 = s1 + 0x30d8\n 54923: jump [t0]\n      : @1959 (gas: 11)\n 54925: a4 = u64 [s1 + 0x148]\n 54929: a4 = a4 + 0x1\n 54932: a0 = a4 <u 0x1\n 54935: t2 = u64 [s1 + 0x150]\n 54939: t2 = t2 + a0\n 54942: a0 = a4 | t2\n 54945: a0 = a0 <u 0x1\n 54948: a1 = u64 [s1 + 0xb0]\n 54952: a3 = a1 + a0\n 54955: a1 = a3 <u a1\n 54958: jump [t0]\n      : @1960 (gas: 10)\n 54960: a4 = 0 if a2 == 0\n 54962: a1 = u64 [s1 + 0xf8]\n 54966: a1 = a1 & ~a3\n 54969: a2 = u64 [s1 + 0x100]\n 54973: a0 = a2 & ~a0\n 54976: a2 = u64 [s1 + 0x108]\n 54980: a2 = a2 & ~a4\n 54983: a3 = u64 [s1 + 0x110]\n 54987: a3 = a3 & ~a5\n 54990: jump [t0]\n      : @1961 (gas: 14)\n 54992: a0 = u64 [a3 + 0x18]\n 54995: a1 = u64 [a3 + 0x10]\n 54998: a2 = u64 [a3 + 0x8]\n 55001: a3 = u64 [a3]\n 55003: a0 = reverse a0\n 55005: a4 = reverse a1\n 55007: a2 = reverse a2\n 55009: a3 = reverse a3\n 55011: a1 = u64 [s1 + 0x18]\n 55014: u64 [a1 + 0x18] = a3\n 55017: u64 [a1 + 0x10] = a2\n 55020: u64 [a1 + 0x8] = a4\n 55023: u64 [a1] = a0\n 55025: jump [t0]\n      : @1962 (gas: 8)\n 55027: a0 = sp + 0xffffffffffffffe0\n 55030: a0 = a0 & 0xffffffffffffffe0\n 55033: u64 [s1 + 0x48] = a0\n 55036: sp = a0\n 55038: i32 a2 = a0 + 0\n 55040: a1 = 0x40\n 55043: a0 = u64 [s1 + 0xa0]\n 55047: jump [t0]\n      : @1963 (gas: 13)\n 55049: a5 = a5 + a2\n 55052: a3 = a5 <u a2\n 55055: a2 = a2 <u t2\n 55058: a0 = t1 + a2\n 55061: a0 = a0 + a3\n 55064: a2 = a1 | a5\n 55067: a0 = a0 | a4\n 55070: a2 = a2 | a0\n 55073: a2 = a2 >> 0x20\n 55076: a0 = a0 | a5\n 55079: a0 = a0 << 0x20\n 55082: a0 = a0 | a2\n 55085: jump [t0]\n      : @1964 (gas: 7)\n 55087: a3 = a3 | a5\n 55090: a3 = a1 if a2 == 0\n 55093: a1 = 0xffffffffffffffff\n 55096: a0 = a1 if a4 == 0\n 55099: a3 = a1 if a4 == 0\n 55102: a5 = 0 if a2 == 0\n 55104: jump [t0]\n      : @1965 (gas: 13)\n 55106: a3 = 0\n 55108: a5 = 0\n 55110: a4 = 0\n 55112: a0 = u64 [s1 + 0x100]\n 55116: a1 = u64 [s1 + 0xf8]\n 55120: a0 = a0 | a1\n 55123: a1 = u64 [s1 + 0x110]\n 55127: a2 = u64 [s1 + 0x108]\n 55131: a1 = a1 | a2\n 55134: a0 = a0 | a1\n 55137: a0 = a0 >u 0\n 55139: a0 = a0 << 0x5\n 55142: jump [t0]\n      : @1966 (gas: 13)\n 55144: a0 = u64 [a4 + 0xc8]\n 55148: a1 = u64 [a4 + 0xc0]\n 55152: a2 = u64 [a4 + 0xd0]\n 55156: a3 = u64 [a4 + 0xd8]\n 55160: a4 = a1 | a0\n 55163: a4 = a4 <u 0x1\n 55166: a5 = a2 <u a4\n 55169: a3 = a3 - a5\n 55172: a2 = a2 - a4\n 55175: a4 = a1 <u 0x1\n 55178: a0 = a0 - a4\n 55181: a1 = a1 + 0xffffffffffffffff\n 55184: jump [t0]\n      : @1967 (gas: 5)\n 55186: sp = a0\n 55188: i32 a2 = a0 + 0\n 55190: a1 = 0x40\n 55193: a0 = u64 [s1 + 0x130]\n 55197: jump [t0]\n      : @1968 (gas: 11)\n 55199: a0 = u64 [s1 + 0xa0]\n 55203: a1 = u64 [s1 + 0xa8]\n 55207: a1 = a1 | a0\n 55210: a0 = u64 [s1 + 0x60]\n 55213: a2 = u64 [s1 + 0x120]\n 55217: a0 = a2 <u a0\n 55220: a2 = u64 [s1 + 0x118]\n 55224: a0 = 0 if a2 != 0\n 55226: u64 [s1 + 0x98] = a1\n 55230: a0 = 0 if a1 != 0\n 55232: jump [t0]\n      : @1969 (gas: 10)\n 55234: a1 = a0\n 55236: a0 = a0 + 0x20\n 55239: a1 = a0 <u a1\n 55242: a2 = a3 + a1\n 55245: a3 = a2 <u a3\n 55248: a3 = a1 if a1 == 0\n 55251: a3 = a3 + a5\n 55254: a1 = a3 <u a5\n 55257: a4 = a4 + a1\n 55260: jump [t0]\n      : @1970 (gas: 16)\n 55262: a4 = u64 [a3]\n 55264: u64 [sp + 0x18] = a4\n 55267: a4 = u64 [a3 + 0x8]\n 55270: u64 [sp + 0x20] = a4\n 55273: a4 = u64 [a3 + 0x10]\n 55276: u64 [sp + 0x28] = a4\n 55279: a3 = u64 [a3 + 0x18]\n 55282: u64 [sp + 0x30] = a3\n 55285: s1 = u64 [a2]\n 55287: a3 = u64 [a2 + 0x8]\n 55290: u64 [sp] = a3\n 55292: a3 = u64 [a2 + 0x10]\n 55295: u64 [sp + 0x8] = a3\n 55298: a2 = u64 [a2 + 0x18]\n 55301: u64 [sp + 0x10] = a2\n 55304: jump [t0]\n      : @1971 (gas: 8)\n 55306: a2 = a4 >u 0\n 55308: a1 = a1 ^ 0x1\n 55311: a1 = a2 if a4 != 0\n 55314: a2 = t2 >u 0\n 55316: a3 = a5 >u 0\n 55318: a3 = a2 if a5 == 0\n 55321: a3 = a1 if a0 == 0\n 55324: jump [t0]\n      : @1972 (gas: 10)\n 55326: a2 = a2 + 0x1\n 55329: a1 = a2 <u 0x1\n 55332: a5 = a5 + a1\n 55335: a1 = a2 | a5\n 55338: a1 = a1 <u 0x1\n 55341: a1 = a1 + ra\n 55344: a0 = a1 <u ra\n 55347: t1 = t1 + a0\n 55350: u64 [s1 + 0x140] = a2\n 55354: jump [t0]\n      : @1973 (gas: 10)\n 55356: a0 = u64 [sp + 0x10]\n 55359: a1 = u64 [sp + 0x18]\n 55362: a2 = 0x100000000\n 55372: a2 = a2 ^ a0\n 55375: a2 = a2 | a1\n 55378: a3 = a0 >> 0x20\n 55381: a3 = a3 <u 0x1\n 55384: a3 = 0 if a1 != 0\n 55386: a3 = 0 if a2 == 0\n 55388: jump [t0]\n      : @1974 (gas: 11)\n 55390: a3 = u64 [s1 + 0x110]\n 55394: a0 = a0 ^ a3\n 55397: a3 = u64 [s1 + 0x118]\n 55401: a1 = a1 ^ a3\n 55404: a0 = a0 | a1\n 55407: a1 = u64 [s1 + 0x120]\n 55411: a1 = a1 ^ a2\n 55414: a1 = a1 | a0\n 55417: a3 = u64 [s1 + 0x128]\n 55421: ra = a3\n 55423: jump [t0]\n      : @1975 (gas: 10)\n 55425: t1 = t1 + 0x1\n 55428: a1 = t1 <u 0x1\n 55431: t2 = t2 + a1\n 55434: a1 = t1 | t2\n 55437: a1 = a1 <u 0x1\n 55440: a1 = a1 + a0\n 55443: a0 = a1 <u a0\n 55446: ra = ra + a0\n 55449: u64 [s1 + 0x158] = t1\n 55453: jump [t0]\n      : @1976 (gas: 7)\n 55455: a1 = u64 [sp + 0xb0]\n 55459: a0 = a1 <u s1\n 55462: a2 = u64 [sp + 0xb8]\n 55466: a0 = 0 if a2 != 0\n 55468: a2 = u64 [sp + 0x98]\n 55472: a0 = 0 if a2 != 0\n 55474: jump [t0]\n      : @1977 (gas: 5)\n 55476: a0 = u64 [s1 + 0x158]\n 55480: i32 a0 = a0 + 0x24\n 55483: a1 = 0x28d8\n 55487: a2 = s1 + a1\n 55490: jump [t0]\n      : @1978 (gas: 10)\n 55492: a0 = u64 [s1 + 0xc0]\n 55496: a1 = u64 [s1 + 0xb8]\n 55500: a0 = a0 | a1\n 55503: a1 = 0xffffffe0\n 55513: a2 = u64 [s1 + 0xd0]\n 55517: a1 = a2 <u a1\n 55520: a2 = u64 [s1 + 0xc8]\n 55524: a1 = 0 if a2 != 0\n 55526: a1 = 0 if a0 != 0\n 55528: jump [t0]\n      : @1979 (gas: 10)\n 55530: a0 = u64 [a3 + 0x18]\n 55533: a1 = u64 [a3 + 0x10]\n 55536: a2 = u64 [a3 + 0x8]\n 55539: a3 = u64 [a3]\n 55541: a0 = reverse a0\n 55543: a1 = reverse a1\n 55545: a2 = reverse a2\n 55547: a3 = reverse a3\n 55549: a4 = s1 + 0x500\n 55553: jump [t0]\n      : @1980 (gas: 6)\n 55555: a3 = a3 & a0\n 55558: a1 = a1 & 0xffffffffffffffff\n 55561: a2 = a2 & 0xffffffffffffffff\n 55564: a0 = u64 [s1 + 0x120]\n 55568: i32 a0 = a0 + 0x20\n 55571: jump [t0]\n      : @1981 (gas: 6)\n 55573: a3 = a3 & a0\n 55576: a1 = a1 & 0xffffffffffffffff\n 55579: a2 = a2 & 0xffffffffffffffff\n 55582: a0 = u64 [s1 + 0x120]\n 55586: i32 a0 = a0 + 0x40\n 55589: jump [t0]\n      : @1982 (gas: 9)\n 55591: a0 = a0 + 0x1\n 55594: a4 = a0 <u 0x1\n 55597: a2 = a2 + a4\n 55600: a4 = a0 | a2\n 55603: a4 = a4 <u 0x1\n 55606: a4 = a4 + a3\n 55609: a3 = a4 <u a3\n 55612: a1 = a1 + a3\n 55615: jump [t0]\n      : @1983 (gas: 7)\n 55617: u64 [sp + 24] = 0\n 55620: u64 [sp + 16] = 0\n 55623: u64 [sp + 0] = 0x41\n 55626: a0 = 0x4\n 55629: a1 = sp\n 55631: u64 [sp + 8] = 0\n 55634: jump [t0]\n      : @1984 (gas: 6)\n 55636: a2 = a2 + a4\n 55639: a2 = a2 + a1\n 55642: a3 = a2 ^ a4\n 55645: a4 = a2 <u a4\n 55648: a4 = a1 if a3 == 0\n 55651: jump [t0]\n      : @1985 (gas: 6)\n 55653: a0 = s1 <u a0\n 55656: a1 = u64 [sp + 0xb0]\n 55660: a0 = 0 if a1 != 0\n 55662: a1 = u64 [sp + 0xa0]\n 55666: a0 = 0 if a1 != 0\n 55668: jump [t0]\n      : @1986 (gas: 9)\n 55670: a3 = u64 [s1 + 0x108]\n 55674: a3 = a3 + 0x1\n 55677: a0 = a3 <u 0x1\n 55680: a2 = u64 [s1 + 0xf8]\n 55684: a2 = a2 + a0\n 55687: a0 = a3 | a2\n 55690: a0 = a0 <u 0x1\n 55693: a1 = u64 [s1 + 0xc0]\n 55697: jump [t0]\n      : @1987 (gas: 5)\n 55699: a0 = u64 [s1 + 0x158]\n 55703: i32 a0 = a0 + 0x4\n 55706: a1 = 0x28d8\n 55710: a2 = s1 + a1\n 55713: jump [t0]\n      : @1988 (gas: 8)\n 55715: a1 = a1 | a3\n 55718: a3 = a0 | a2\n 55721: a3 = a3 | a1\n 55724: a3 = a3 >> 0x20\n 55727: a1 = a1 | a2\n 55730: a1 = a1 << 0x20\n 55733: a1 = a1 | a3\n 55736: jump [t0]\n      : @1989 (gas: 12)\n 55738: a2 = u64 [sp]\n 55740: a3 = u64 [sp + 0x8]\n 55743: u64 [s1] = a2\n 55745: u64 [s1 + 0x8] = a3\n 55748: u64 [s1 + 0x10] = a0\n 55751: u64 [s1 + 0x18] = a1\n 55754: sp = s0 + 0xffffffffffffffc0\n 55757: ra = u64 [sp + 0x38]\n 55760: s0 = u64 [sp + 0x30]\n 55763: s1 = u64 [sp + 0x28]\n 55766: sp = sp + 0x40\n 55769: jump [t0]\n      : @1990 (gas: 5)\n 55771: a0 = a0 & 0xff\n 55775: a1 = a0 >u 0\n 55777: a0 = u64 [s1 + 0x120]\n 55781: i32 a0 = a0 + 0x80\n 55785: jump [t0]\n      : @1991 (gas: 4)\n 55787: a2 = a3 + a1\n 55790: a3 = a2 <u a3\n 55793: a3 = a1 if a1 == 0\n 55796: jump [t0]\n      : @1992 (gas: 9)\n 55798: a1 = u64 [sp]\n 55800: a1 = reverse a1\n 55802: a2 = u64 [sp + 0x8]\n 55805: a2 = reverse a2\n 55807: a3 = u64 [sp + 0x10]\n 55810: a3 = reverse a3\n 55812: a4 = u64 [sp + 0x18]\n 55815: a4 = reverse a4\n 55817: jump [t0]\n      : @1993 (gas: 8)\n 55819: a4 = s1 + 0x100\n 55823: u64 [a4 + 0x50] = a1\n 55826: u64 [a4 + 0x48] = a2\n 55829: a0 = a2 | a1\n 55832: u64 [a4 + 0x40] = a3\n 55835: a1 = a3 <u 0x1\n 55838: a1 = 0 if a0 != 0\n 55840: jump [t0]\n      : @1994 (gas: 12)\n 55842: a0 = u64 [s1 + 0xb8]\n 55846: a1 = u64 [s1 + 0xc8]\n 55850: a0 = a0 | a1\n 55853: a2 = u64 [s1 + 0xc0]\n 55857: a1 = u64 [s1 + 0xd0]\n 55861: a1 = a1 | a2\n 55864: a1 = a1 | a0\n 55867: a1 = a1 >> 0x20\n 55870: a0 = a0 | a2\n 55873: a0 = a0 << 0x20\n 55876: a0 = a0 | a1\n 55879: jump [t0]\n      : @1995 (gas: 8)\n 55881: a4 = a2 + a0\n 55884: a4 = a4 + a3\n 55887: a3 = a4 ^ a2\n 55890: u64 [s1 + 0xf0] = a4\n 55894: a2 = a4 <u a2\n 55897: a2 = a0 if a3 == 0\n 55900: a4 = u64 [s1 + 0xe8]\n 55904: jump [t0]\n      : @1996 (gas: 7)\n 55906: a0 = a0 << 0x3b\n 55909: a1 = a0 >> 0x38\n 55912: u64 [s1 + 0x118] = a1\n 55916: a2 = 0x80 - a1\n 55920: a0 = 0xffffffffffffffff\n 55923: a1 = 0xffffffffffffffff\n 55926: jump [t0]\n      : @1997 (gas: 8)\n 55928: a0 = sp + 0xffffffffffffffe0\n 55931: a0 = a0 & 0xffffffffffffffe0\n 55934: u64 [s1 + 0x100] = a0\n 55938: sp = a0\n 55940: a0 = u64 [s1 + 0x158]\n 55944: a0 = i32 [a0]\n 55946: a1 = 0x3f\n 55949: jump [t0]\n      : @1998 (gas: 8)\n 55951: a0 = sp + 0xffffffffffffffe0\n 55954: a0 = a0 & 0xffffffffffffffe0\n 55957: u64 [s1 + 0x130] = a0\n 55961: sp = a0\n 55963: a0 = u64 [s1 + 0x110]\n 55967: a0 = i32 [a0]\n 55969: a1 = 0x3f\n 55972: jump [t0]\n      : @1999 (gas: 8)\n 55974: a1 = u64 [s1 + 0xd8]\n 55978: a1 = t1 <u a1\n 55981: a3 = u64 [s1 + 0xe0]\n 55985: a2 = t2 ^ a3\n 55988: a3 = t2 <u a3\n 55991: a3 = a1 if a2 == 0\n 55994: a1 = u64 [s1 + 0xe8]\n 55998: jump [t0]\n      : @2000 (gas: 10)\n 56000: u64 [s1 + 0xd8] = a0\n 56004: u64 [s1 + 0xe0] = a1\n 56008: a0 = u64 [s1 + 0xd0]\n 56012: a0 = a0 | a1\n 56015: u64 [s1 + 0xd0] = a0\n 56019: a0 = u64 [s1 + 0x118]\n 56023: a2 = a0 + 0xffffffffffffff80\n 56026: a0 = 0xffffffffffffffff\n 56029: a1 = 0xffffffffffffffff\n 56032: jump [t0]\n      : @2001 (gas: 10)\n 56034: a3 = s1 + a0\n 56037: a4 = a3 + 0x200\n 56041: a0 = u64 [a4 + 0x58]\n 56044: a1 = u64 [a4 + 0x60]\n 56047: a2 = u64 [a4 + 0x50]\n 56050: a3 = u64 [a4 + 0x48]\n 56053: a1 = a1 | a2\n 56056: a0 = a0 | a3\n 56059: a0 = a0 | a1\n 56062: jump [t0]\n      : @2002 (gas: 10)\n 56064: u64 [s1 + 264] = 0\n 56068: a0 = 0\n 56070: u64 [s1 + 248] = 0\n 56074: u64 [s1 + 192] = 0\n 56078: u64 [s1 + 272] = 0\n 56082: t1 = 0\n 56084: t2 = 0\n 56086: a4 = 0\n 56088: ra = 0\n 56090: jump [t0]\n      : @2003 (gas: 8)\n 56092: a0 = u64 [a2 + 0x8]\n 56095: a1 = i32 [a2 + 0x10]\n 56098: a2 = u64 [a2]\n 56100: a3 = reverse a0\n 56102: a0 = a3 << 0x20\n 56105: a1 = reverse a1\n 56107: a1 = a1 >> 0x20\n 56110: jump [t0]\n      : @2004 (gas: 6)\n 56112: sp = s0 + 0xffffffffffffffa0\n 56115: ra = u64 [sp + 0x58]\n 56118: s0 = u64 [sp + 0x50]\n 56121: s1 = u64 [sp + 0x48]\n 56124: sp = sp + 0x60\n 56127: jump [t0]\n      : @2005 (gas: 8)\n 56129: a0 = u64 [a4 + 0xb8]\n 56133: a1 = u64 [a4 + 0xc0]\n 56137: a2 = u64 [a4 + 0xb0]\n 56141: a3 = u64 [a4 + 0xa8]\n 56145: a1 = a1 | a2\n 56148: a0 = a0 | a3\n 56151: a0 = a0 | a1\n 56154: jump [t0]\n      : @2006 (gas: 5)\n 56156: a0 = sp + 0xffffffffffffffe0\n 56159: a2 = a0 & 0xffffffffffffffe0\n 56162: u64 [s1 + 0x158] = a2\n 56166: sp = a2\n 56168: jump [t0]\n      : @2007 (gas: 8)\n 56170: a0 = sp + 0xffffffffffffffe0\n 56173: a0 = a0 & 0xffffffffffffffe0\n 56176: u64 [s1 + 0x98] = a0\n 56180: sp = a0\n 56182: a0 = u64 [s1 + 0x100]\n 56186: a0 = i32 [a0]\n 56188: a1 = 0x3f\n 56191: jump [t0]\n      : @2008 (gas: 8)\n 56193: a0 = a0 + a4\n 56196: a3 = a3 + a1\n 56199: a5 = a3 <u a1\n 56202: a0 = a0 + a5\n 56205: ra = u64 [s1 + 0xe0]\n 56209: ra = ra + a3\n 56212: a3 = ra <u a3\n 56215: jump [t0]\n      : @2009 (gas: 9)\n 56217: sp = sp + 0xffffffffffffffc0\n 56220: u64 [sp + 0x38] = ra\n 56223: u64 [sp + 0x30] = s0\n 56226: u64 [sp + 0x28] = s1\n 56229: s0 = sp + 0x40\n 56232: sp = sp & 0xffffffffffffffe0\n 56235: s1 = a0\n 56237: i32 a0 = sp + 0\n 56239: jump [t0]\n      : @2010 (gas: 6)\n 56241: a1 = a3 << 0x3\n 56244: u64 [s1 + 0x118] = a1\n 56248: i32 a2 = 0x80 - a1\n 56252: a0 = 0xffffffffffffffff\n 56255: a1 = 0xffffffffffffffff\n 56258: jump [t0]\n      : @2011 (gas: 4)\n 56260: i32 a0 = a0 + 0xfffffffffffff8d8\n 56264: a3 = s1 + a0\n 56267: a4 = a3 + 0x100\n 56271: jump [t0]\n      : @2012 (gas: 6)\n 56273: a1 = a2 & ~a1\n 56276: a2 = u64 [s1 + 0x108]\n 56280: a2 = a2 & ~a5\n 56283: a3 = u64 [s1 + 0x110]\n 56287: a3 = a3 & ~a4\n 56290: jump [t0]\n      : @2013 (gas: 7)\n 56292: a1 = u64 [s1 + 0xd8]\n 56296: a1 = a2 <u a1\n 56299: a3 = u64 [s1 + 0xe0]\n 56303: a4 = a5 ^ a3\n 56306: a3 = a5 <u a3\n 56309: a3 = a1 if a4 == 0\n 56312: jump [t0]\n      : @2014 (gas: 4)\n 56314: a0 = u64 [s1 + 0x158]\n 56318: a0 = i32 [a0]\n 56320: a1 = 0x23\n 56323: jump [t0]\n      : @2015 (gas: 10)\n 56325: a0 = u64 [a2 + 0x80]\n 56329: a1 = s1 + 0x100\n 56333: u64 [a1 + 0x58] = a0\n 56336: a0 = u64 [a2 + 0x78]\n 56339: u64 [a1 + 0x50] = a0\n 56342: a0 = u64 [a2 + 0x70]\n 56345: u64 [a1 + 0x48] = a0\n 56348: a0 = u64 [a2 + 0x68]\n 56351: u64 [a1 + 0x40] = a0\n 56354: jump [t0]\n      : @2016 (gas: 4)\n 56356: a0 = 0x30d8\n 56360: a3 = s1 + a0\n 56363: a4 = a3 + 0x600\n 56367: jump [t0]\n      : @2017 (gas: 4)\n 56369: a0 = 0x30d8\n 56373: a3 = s1 + a0\n 56376: a4 = a3 + 0x100\n 56380: jump [t0]\n      : @2018 (gas: 7)\n 56382: a1 = a0 | a3\n 56385: a1 = a1 | a2\n 56388: a1 = a1 >> 0x20\n 56391: a2 = a2 | a3\n 56394: a2 = a2 << 0x20\n 56397: a1 = a1 | a2\n 56400: jump [t0]\n      : @2019 (gas: 6)\n 56402: a0 = u64 [a3 + 0x18]\n 56405: a1 = u64 [a3 + 0x10]\n 56408: a2 = u64 [a3 + 0x8]\n 56411: a3 = u64 [a3]\n 56413: a0 = reverse a0\n 56415: jump [t0]\n      : @2020 (gas: 2)\n 56417: a3 = a2 & 0x40\n 56420: jump @2024 if a3 != 0\n      : @2021 (gas: 1)\n 56423: jump @2023 if a2 == 0\n      : @2022 (gas: 6)\n 56426: i32 a3 = 0x40 - a2\n 56429: a3 = a1 << a3\n 56432: a1 = a1 >> a2\n 56435: a0 = a0 >> a2\n 56438: a0 = a0 | a3\n 56441: ret\n      : @2023 (gas: 1)\n 56443: ret\n      : @2024 (gas: 4)\n 56445: a0 = a2 + 0xffffffffffffffc0\n 56448: a0 = a1 >> a0\n 56451: a1 = 0\n 56453: ret\n      : @2025 (gas: 2)\n 56455: a3 = a2 & 0x40\n 56458: jump @2029 if a3 != 0\n      : @2026 (gas: 1)\n 56461: jump @2028 if a2 == 0\n      : @2027 (gas: 6)\n 56464: i32 a3 = 0x40 - a2\n 56467: a3 = a0 >> a3\n 56470: a0 = a0 << a2\n 56473: a1 = a1 << a2\n 56476: a1 = a1 | a3\n 56479: ret\n      : @2028 (gas: 1)\n 56481: ret\n      : @2029 (gas: 4)\n 56483: a1 = a2 + 0xffffffffffffffc0\n 56486: a1 = a0 << a1\n 56489: a0 = 0\n 56491: ret\n","bytecode":{"object":"50564d0000bf03010000000000010700c14002c00080038208464e207327544f44000054464e544f4465746920796c6e4f2072656e776f206d66726570206e616373696874206d726f6974617265706f20756d206563697250716520656220747373207962206c617561762e7265646e657320657361656c5068742074696d6275676e696b73612065692065636972702020726564726f206e6c706d6f63206f742065687420657465657361686372757073edf531bdb21fefac5e9b3d2454607ee845af357f96afd3f998bedba64c84fb72616d20796c6e4f6563616c7074656b632072656e776f207461647075206e616e697473696c20652e656369727020670761ab39ab7e3017bd593dad459889e8049220f200f25396316c6937592bca893b071276522d0eb1326a7e71fdcdee2673b0c2fa4a4bf40cf60cfab7e2cb9f2de09893ba5aa1e1f8e9fda4f19db4f0196b5fcb45e37ae18ee78c3e03f5272c5e6c206f74206c61757020676e697473696d57141d4f0040b61004ad0c249e200c5837093ac3c0d8e08da98825aeadfb6174612065622074733120747361656c205b7decebe5e15b8cf3841e7d42714fd11e29b2f7c01403dd25b9c3c7c80a205ba8628b54d9ec0d29c86f3888a94503d6f608404895bca64b63e5f30e16932f369bc8e21bad52f2ddaa8d37fc68b0c26916a1c463f1a72b95efb323f54d5af5289bc8e21bad52f2ddaa8d37fc68b0c26916a1c463f1a72b95efb323f54d5af5280481161100000000070000000b0000001900000027000000350000003b00000044000000510000005c0000006b000000780000008800000098000000a3000000b5000000c00000006164647265737363616c6c63616c6c5f646174615f636f707963616c6c5f646174615f6c6f616463616c6c5f646174615f73697a6563616c6c6572636f64655f73697a656465706f7369745f6576656e746765745f73746f72616765686173685f6b656363616b5f3235367265665f74696d655f6c65667472657475726e5f646174615f636f707972657475726e5f646174615f73697a657365616c5f72657475726e7365745f696d6d757461626c655f646174617365745f73746f7261676576616c75655f7472616e73666572726564051302c0b9ce0463616c6cc0c2ce066465706c6f7906c16b00841102c0addc9b00e301270392039803b603b803be030c041404e604ee04ed0531066c06b20629076e07c007cc073f088108c708d408330949097309ac09ca09dc09fb096a0a9a0a4f0bfd0b130ce80cfd0c2a0d4a0e570e840e8a0ea20ea80eae0eb40ebe0edb0e3f0f900f960fb00fd60ff30ffd0f49105610b710d110f9103411521165118711f7112912df12591370134b1459148b14b115bf15ea15f1150a16111618161f162a164816ba162017271743176a1788179317e2172e184b185618a21812191f1977198719a519df19ef190d1a471a571a751aaf1abf1add1a171b271b451b7d1b8d1bab1be61bfd1b081c2e1cba1cc11c181d3c1d641d881d931db31dd51de01dfb1d121e1d1e6d1e761e091f5a1f2220042130214121652183218a21ac211d2249227122ba22f9220b231a23522367238923d523032411242f243d2465249224a024be24cc24262534255525632578259225e625012631267f2643274a27a527c927f52721282c284c28b328ce28d9282d295929b329162a482a752a992aa42acc2aee2af92a172b2e2b672b8b2b922bab2bb92bc02bcd2b0f2c1d2c2c2c632c782c9a2ca12cc02cd72ce52c032d112d302d4e2d5c2d7a2d882dc52d0f2e1d2e302e4a2e9b2eb62ee82e422f492fbd2f243054308930b530c030e83006310d312f314a318a31b631bd31d631e431eb31fc31463258326732a232b732da32e13204331f332d334f335d338333a133af33d133df33243432345434623479349734fe341d355335ba35c135ff3578367f36b3361d3724375a37d437db37f93800392339393979398239a239c239dc39e339053a143a213a3c3a883a983ae33aec3a413b6d3be83b333c753c7c3cbf3cd33c143d1b3d4c3d573d913d333e3e3e623e6b3e8b3eb53ed73ee23e253f583fdf3fec3f0b4046405c40674018412c41554183419141bc41d74107420e423842494273429542d642e74249435443614301440a44384453447a448144c544e34442456645ae45b545d745e04532463b465b467e4690469b46c146494776479a47a147bd47cf47da470a4815483d487d48ad48b648d648dd480749194924493d4948498149b549be49de490d4a1f4a2a4a434a7b4a9e4acc4ad74a1a4b304b3b4b5b4b664bc84beb4b2a4cc94d354e5f4e754e804e284f954ff74f00501e5065506f509550c750d45061517f518e51b651bc51c951e451f45101521c523d527c528c52e452f352265352539853bc5304540f546a549a54bd54ce54d854f15409551f554f5587558e559555b555f755305637567f569356ce56d556025709572f578457af57cd57ed5706580c582a5850586a58c358d2580c591f5930594e5993590b5a145a7e5ad35a205bb15beb5bf25b135c315c375c695c725c9c5cba5cfb5c325d4c5d325eb25ee25e325f715f7b5fc55f1c60256045607960fc604f6185610462eb6325643f644e6476647c648864a364b364bf64da64fb643e654e659f65bd65cc65f465fa650666216631663d6658667966b866c8669667ad67ba68ee68c1699a6aa06ab76aef6af56a236b906bd16baa6cb06cc76cfb6c016d976de06df06d0d6e526e5f6e796ea26ea86eec6e206f5e6f6b6f806fa56fb96f0c708670fc703e7156717c71e9716472ca72e5720b73287390739d73bb73fb7368748e74a874da74e0740c751c7548755c75a075ad75dc7564766d76c776287739773f774b7771777b778b779777bd77de771b782b785d7891789a78ba78327968797679df791b7a297a617a8d7aca7ad87a467b547bcd7be17beb7b0b7c157c747c817cb07ce57c0b7d1b7d217d317d5a7d6a7da57db97de47d8d7e9a7eb47ef07efd7e607f667f927fa27fce7fef7f32804280778085809d80078117813581cd81f1819282b6823b839883c583ea83148425842f8449848c84c184ca84eb841f852585488551857f85a485aa85c985da85e48504860a861c865d868e869786b886be86d586e686f0860f87158727876e87948709881d8827884c885988b788b489be89488a678ab38ad78a148b248b2d8b4a8b898b9a8ba38bc48b148c1a8c998ca38cbe8ce28c198d508d668d158e2c8f01903d90d090fd906591d291df912a92499290929a92d192db92f8922a9362936c9386933e946b948a94d394dd94f7943895c29528963d96479666968996f2965097c497d397e197f6974a986f98bb98cb98d198da98f598fb980b9911991a992f99b7991d9a829a529b929bea9b199c719c7d9c8f9cdc9ce89cfa9c3f9d4b9d5e9de39df49df19f59a06da074a07aa081a0a5a06da19aa1a9a1c3a1e7a144a24ba251a258a27ca2fca226a37ea396a3c4a3b3a432a575a5e5a5eda5f4a50ca630a6a5a6aca6b2a6b9a6dda637a769a7baa709a833a818a94ea992a9d8a9e5a90baa18aa3eaa4baa72aa8caaabaad9aaedaa9fab85ac94acaeacd2ac5fad7eadc4adceade9ad52ae5baea6aec5aef7ae00af30af39af56af80afb2afbbafd4af05b024b08bb094b0afb013b13cb15bb180b18db193b19eb1a8b1cab1f3b112b237b244b24ab255b26bb28db2b6b2d5b2fab207b30db318b354b3e7b35cb47ab4cdb4f7b421b54bb5b5b5c8b5d1b5efb51db673b69db61db724b73cb760b71bb87db8dbb8e6b826b944b998b9ecb92aba91ba55bb65bb3cbc6bbcd3bc10bd41bd6ebdc2bd0fbe53beb2bedbbe29bf52bf6fbf9cbfbbbf37c062c09ac0afc0e5c044c19ec18cc2a6c2c6c2f9c2cfc3ddc327c440c45ec4dfc41fc585c5a4c5e5c5eec50dc668c68dc6acc60ec72dc77cc785c7a4c7e9c70fc82ec867c86fc888c892c8b4c802c921c95cc965c970c986c9a8c9d1c9f0c92bca34ca3fca73ca00cbbacb43cc5ccca0cccacc2bcd4ecd78cda2cdc7cd03ce1dce54ce5dce7bcea3cec2ceccceaa876e978a2098aa20977b2098bb20c89b0bc9ba0a979b019abbaeab20ae873751094ec87909647a017c8b95880195ac0178ab64caab9cf42836510934c87909647a017c8b95880195ac0178ab64caab9cf4281c51091a839aff01c8a80b7cbb9599ffc8a70c78cb83aaff5209f03200390810020251087c1b330740020383770a0e286f1b9511f07b10087b1564896475330820649750100208057c78017c797c7a027c7b03978808d4980897aa1097bb18d4ba0ad4a8087c79057c7a047c7b067c7c07979908d4a90997bb1097cc18d4cb0bd4b909979920d489027c79097c7a087c7b0a7c7c0b979908d4a90997bb1097cc18d4cb0bd4b9097c7a0d7c7b0c7c7c0e7c780f97aa08d4ba0a97cc10978818d4c808d4a808978820d498037c78117c7a107c7b127c7c13978808d4a80897bb1097cc18d4cb0bd4b8087c7a157c7b147c7c167c791797aa08d4ba0a97cc10979918d4c909d4a909979920d4890a7c78197c79187c7b1a7c7c1b978808d4980897bb1097cc18d4cb0bd4b8087c791d7c7b1c7c7c1e7c771f979908d4b90997cc10977718d4c707d49707977720d487076f776fa86f396f2a7b5a187b59107b58087b57821008821595111032009511d87b10207b15187b161082897b19088289087b19828510828618330820501004c0036f686f59821a6faa821b086fbb787b18787a10787908787898bc38787c1f98bc30787c1e98bc28787c1d98bc20787c1c98bc18787c1b98bc10787c1a98bb08787b1998ab38787b1798ab30787b1698ab28787b1598ab20787b1498ab18787b1398ab10787b1298aa08787a11989a38787a0f989a30787a0e989a28787a0d989a20787a0c989a18787a0b989a10787a0a98990878790998893878790798893078790698892878790598892078790498891878790398891078790298880878780182102082151882161095112832009511a07b10587b15507b16489515608411e06476828718828910828a0882886f776f996faa6f887b18187b1a107b19087b17491138491130491128491120481140208318831a20831b403309ff33070a08821738821830821928821a206f776f886f996faa7b6a187b69107b68087b675012060fd80032009511a07b10587b15509515608411e08272827a08827b108277188283828908828c108288186f746fbb6faa6f276f826fcc6f996f387b17187b1a107b1b087b147b18387b19307b1c287b12208318831a203309ff330b2033070a0f9551a0821058821550951160320050120a64d6007b1b387b1a307b19287b18208379836a8317203308010a0750120c80d70032005012103ed6007b1b587b1a507b19487b18408218206f888219286f99821a306faa821b386fbb7b1b787b1a707b19687b18608379836a8317403308020a07955160ff8210980082159000821688009511a00032007b18385010148f016f687b187882186f887b18708218086f887b18688218106f887b18608218186f887b1898008218206f887b1890008218286f887b1888008218306f887b1880008218406f887b18b8008218486f887b18b0008218506f887b18a8008218586f887b18a0008379811a388317603308030a07955120ff8210d8008215d0008216c8009511e00032009511e0fe7b1018017b1510017b160801951520018411e082c67b166082c6087b166882c6107b167082cc187b1c7882bc7b1c3882bc087b1c4082bc107b1c4882bb187b1b50501216fed2007b1858501018b5006f687b18980082186f887b1890008218086f887b1888008218106f887b1880008218186f887b18b8008218206f887b18b0008218286f887b18a8008218306f887b18a0008218386f887b18d8008218406f887b18d0008218486f887b18c8008218506f887b18c0008218606f887b18f8008218686f887b18f0008218706f887b18e8008218786f887b18e0008379811a58831780003308040a079551e0fe8210180182151001821608019511200132008b7910520931c8780883881f8488e056380000012533090c0202390a0c0202ae8a093d080c02020133082002028377c887073200009511f07b10087b158475010a04013d0708020251050750101a4833001c951110fe7b10e8017b15e0017b16d8019515f001951130c28411e064169569d830492940014929380149292801800033074095680032492930013300ec002891fb951110fe7b10e8017b15e0017b16d8019515f001951150f98411e064164926b8054926b0054926a00580003307409568a0054926a80550101e58fb4926d8054926d0054926c8054926c0058367c0050a1001956b000582b7d00082b8d80082b9c80082bac000d49808d4a707d4870751070628aa1295678005330840501020d8f982639805826b9005826c8805826480058e378eb8db37088ec78849c0859901dbc709d43b077b671801db7809510906287b12954740d84708c88c09d8c90ada880ac8ba0ad8ba08c88302956800057b87607b89687b8a70330740956860057b6278057b63a0007b6b98007b6ca8007b64b0005010229bfa8267b00082699800d4970b8268a000826aa800d4a808d48b0b98bb20d49808978820d4b80851080628fb1149265805492650054926480595684005492640050950102456fa8269b0001407e0ffffff00000000d879078268a800948782681801948752070628be118397203a0800000249262805492620057b68380514090000000000000054956820057b6930057b67d00050102604fa95670005330840501028bef88264180595680005828c10828b0882878e498ec8db49088eba8879c0859901dbba09d44c0a7b6a1801dba80951090628c911957340d87308c88b09d8b90ada880ac8ca0ad8ca087b678000c884027b63e0047b69e8047b6af0043307409568e0047b62f8047b6c707b6b787b646850102a85f982678000826970d4970a826878826b68d4b808d48a0a98aa20d49808978820d4a80851080628e8104926d8044926d0044926c8049568c0044926c0040650102c43f9826980001407e0ffffff00000000d87907826878948782681801948752070628ac108397204926b0043a090800024926a8044926a0049568a0047b69b8047b671850102efdf8956780048268b000501030b6f795670004827a980082789000827988008ea78e8bdba70b7b69c8008e977b68587b6ac000d4a8087b67507b6b88007b68b800db8b07510706282011826780047b67604926f8054926f0054926e8054926e005956760049568e00550103283f9956b000482b77082b86882b96082ba7850123408cd0088920184807fd27c04d23c0bdb9800880820d2ac0c648994b9d4c4079479aa9206282a115012369dce008267608877207b679000510a03027b6bf0007b60f8007b6c00017b6410014926580449265004492648049568400449264004330750103818f839080c020256181f133308203d080c020233023a280ccb0050123a08cb0033072002028377839933082033003c0a090182676095781fd87807826cc800c87c09d8c90ada770a826b5850123ee5ca008268900094c8826ab80094a8948b9487c87402d84207c8790cc8cb0b7b6b1801d39b0cd89b0adac70a7b6ae0008267f80095701fd8700b826af000c8ba07d8a70cdabb0c82631001c8c303973b3b987a05d4ba0a97773b980b05d4b707c847077b67f800d847076424501240e5cf00826758d87b07826ac000c8a70798ba05977b3bd4ba0a826b080182b282bb08987705948a94876fb86f2b501242edd000c8a70282671001d87307826a0001c8a707983a05977c3bd4ca0a987705c8b707826b1801c88a0ad88a08c88707c8a9097b69e800d8a908c887077b67e0009517e08473e064317b63d800018267f800d874078269f000d39b08d89b09da8709826ce800d8c007826ae000d3a208d8a20ada870ad3c007d48707da790a7b347b3b087b30107b3218510a5f492618064926100649260806492600069568000664377b6410017b6b18017b6208017b600001501044dff78263d80082620801826b180182641001954401884701c87b0bd4b40788770182680001c88707d88708c8820264702868ff82679000857701826bc800826850dbb807826888008269b800db98078263c000d43b0282685898893f7b695097330198bc3f978401826a6098a03f97bb0197a9017b69407b63387b60307b6c287b6448510716027b6288007b6b2084aae07b6a900049261804492610044926080495680004492600043307501046c7f59517e08477e07b67f8006471330820330750104890f99518e08488e07b68f0006481837783893308200a09492618012033024926100149260801330b330c330049260001826af00082a71882a81082a90882a36f776f886f9a6f3364348269f8007b93187b6ad0007b9a107b68f0007b9808647a7b97017b64e80064a3826790007b6be000d87b07857b017b6cd80094cb01956c000182c7d47007947b018268b00082c718c87808826aa800c82a0a8269980082c710c879098267a00082640801c8740482678800520b4d0182671801d8780bc8ba0a6427d32a027b67c000d87a0cda2b0c50124aeac8007b63c8005207600c956720027b60b80050104c8df3956b000282b73882b83082b92882ba20956b00067bb7387bb8307bb9287bba20956820068267f80050104e04f68264c8009544018847018262f000c87202d424078877018268d000c87803d883088267e800c88707826818019589207b69e800d8890a8268c000c8a8097b69c800d8890bdaaa0b82681001c8b800d8800b82680801c8b8087b6808018268e000958b20d88b0c8269d800c8c908d89809dacc09826ab800c8a909d8a90c826a0001c8ca0a7b6a0001642a7b6af000826cf8007bca08644a7bc47bc31064747bc7187b63d0008267e8007b6718018262c8007b601001648c64902891fe826950d48a07d4270752074001492600014926f8004926080149261001826338826230826828826c482866016420826360826b9000d33b0b826c58d4cb0bd47b0b826220826c48510bb50082671801d8780bc8ba0ad30a02d80a0cda2b0c50125088c7005207020b9567e00350105233f2956800038287f8007b6710018287f0007b6708018287e8007b6700018287e0007b67f000826760501254e4cb0050105603ce007b67e8007b68d0003307ff3308ff82691801501058c5cd0050125a1ecc0050105cb9cd0050125e19c4008269000150126019cd00956b00067bba587bb9507bb8487bb740956840068267f80050106253f4826c4882622001826750826838d48707826828d4c808826930d49209826a4095aa0149267806492670064926680649266006956b00067bba80007bb988007bb890007bb79800956760069568800633007228fdf3956720048268d0007b6b205010644bf1826c48826b20826828826230826338826950826a60826738047b671001826730047b670801826728047b67f800826720047b67000101d48c077b67f000d493077b67e800d42b077b67e00050126627cc00501068f7cc007b67c0007b68d8008267608a79033307ff3308ff50106ab7cc007b67d0007b68c8008268c000d487077b67c000826718018379803307ff3308ff50106c91cc00826b180188b98000826ac000db9a07826cc800826ad80050126e42c700826bd000501270b9c600826b40d4b707826be000d4b808826be800d4ba0a826bf000d4b909956b00067bb9d0007bbad8007bb8c8007bb7c0004926b8064926b0064926a8064926a0069567a0069568c006501072e5f29567c0038268800050107434f095670003827ad8008279d0008278c8008ea78e9bdba70b7b6898008e877b6990007b6a8800d4a9097b67b8007b6bc0007b69d000db9b0752076f0a8267c0037b67a0004926f8064926f0064926e8064926e006019567a0039568e006501076fff1956b000382b7b00082b8a80082b9a00082bab80050127880c50088920184807fd27c04d23c0bdb9800880820d2ac0c648994b9d4c4079479ab92730a50127a17c7008267a0008877207b67c800510a0c027b6bf0007b60f8007b6c00017b641001492698034926900349268803956880034926800301330750107c90f039080c020256181f133308203d080c020233027e2884c30050127e80c300330720020283778399330820330080000a09018267a00095781fd87807826c9800c87c09d8c90ada770a826b9000502282005ac3008268c80094c8826ad00094a8948b9487c87402d84207c8790cc8cb0b7b6b1801d39b0cd89b0adac70a7b6ae0008267f80095701fd8700b826af000c8ba07d8a70cdabb0c82631001c8c303973b3b987a05d4ba0a97773b980b05d4b707c847077b67f800d8470764245022840059c80082679000d87b07826a8800c8a70798ba05977b3bd4ba0a826b080182b282bb08987705948a94876fb86f2b502286005fc900c8a70282671001d87307826a0001c8a707983a05977c3bd4ca0a987705c8b707826b1801c88a0ad88a08c88707c8a9097b69e800d8a908c887077b67e0009517e08473e064317b63d800018267f800d874078269f000d39b08d89b09da8709826ce800d8c007826ae000d3a208d8a20ada870ad3c007d48707da790a7b347b3b087b30107b3218510a60492618074926100749260807492600079568000764377b6410017b6b18017b6208017b6000015020880050f08263d80082620801826b180182641001954401884701c87b0bd4b40788770182680001c88707d88708c8820264702867ff8267c800857701826998008268b800db98078268c000826ad000dba807510716028267a0008477e07b67a800492658034926500349264803956840034926400301330750208a006cee9517e08477e07b6700016471330820330750208c0034f29518e08488e07b68f8006481837783893308200a094926180120330c4926080149261001330b330a330933038267f80082721882781082700882777b67f0006f277b67f8006f846f028267f0006f786480826700017b781864287b68b8007b781064487b68e8007b78088268f8007b78017b60e0008267a8007b6bd000d87b07857b017b6ac80094ab017b63f0007b69d800d43907947b018267800082681801c87808826a787b6cc000c8ca0282647082690801c84909826368826c1001c8c303520b3e01d87800c8020bd3ab02d8ab0cda200c50228e00c5c200520701059567c0025020900032ec956b000282b7d80082b8d00082b9c80082bac000956b00077bb7387bb8307bb9287bba20956820078267000150209200a4ee8260f800950001880701826ae800c87a0ad4a0078877018268b800c88707d887088262e000c88202826818019589207b69e000d889088269c000c8890b7b6bb000d89b0bda880b82680801c8b804d8840b82681001c8b8087b6810018268d000958b20d88b0c8269c800c8c908d89809dacc09826cd800c8c909d8c90c8263f000c8c3037b6ae800826c00017bca08640a7b6af8007bca7bc71064207bc2187b67b8008267e0007b671801826cb0007b640801648a28a1fe826aa000826b9000d4ba07826c8800d4c908d4870752075501492600014926f8004926080149261001287f01826ba800826ca000d3cb0b82609000d40b0b7b6b1801826c9800826b8800d4bc0c826b1801d4cb0b510bb600d87800c8020bd3ab02d8ab0cda200c502294005fc10052079b039567200350209600ccea956800038287387b6710018287307b6708018287287b67f8008287207b67f0008267a000502298007fc40050209a009dc6007b67e8007b68d0003307ff3308ff8269180150209c005ec60050229e00b6c4005020a00050c6005022a200afbc008269f8005022a400aec500956b00077bba587bb9507bb8487bb74095684007826700015020a600e7ec826090000198073f82688800978801d48707826a980098a83f970901d49808826ba00098b93f97aa01d4a90997ba0195aa01492678074926700749266807956c0007491c60017bca80007bc988007bc890007bc7980095676007956880073300b600287fec956760038268185020a800d1e9826c8800826b900082699800826aa000956800038287787b6710018287707b6708018287687b67f8008287607b6700010198973f97b801d487077b67f00098b73f97c801d487077b67e80098a73f979801d487077b67e00097a7017b67d8005022aa0098c4005020ac0067c5007b67b8007b68d0008267a0008a79033307ff3308ff5020ae0025c5007b67c8007b68c0008268b800d487077b67b800826718018379803307ff3308ff5020b000fec400826b180188b98000826ab800db9a07826cc000826ad0005022b200aebf00826bc8005022b40024bf00826bd800d4b707826be000d4b808826be800d4ba0a826bf000d4b909956c0007492ca000017bc9d0007bcad8007bc8c8007bc7c0004926b8074926b0074926a8079567a0079568c0075020b6004deb4926f8074926f0074926e8074926e0070995670010492718f895670010492710f895670010492708f8140700a031a95fe30000956800107b8700f89567e0079568ff079588015020b80001eb33072002037b67180183773300ba000a05826918013302bc0028e1bc00826918015022bc00d9bc007b6818019877206f98978920d497077b6710019888207b68080195670010492738f895670010492730f895670010492728f895680010492820f80a956700039568ff079588215020be0015ea8067140397772082681803956b000182b908d4970795690010492958f895690010492950f895690010492948f8956a0010492a40f80a956900107b9878f882b810956900107b9868f882b818956900107b9860f8956800107b8770f89567ff079577419568ff079588615020c0001dea9567e0023308405020c2006ce7956b000282baf80082b8f00082b9e80082b7e000d49a0ad48709d4a909989920d4a808978820d4980851089402003308200202838833070133090a0d014926500149264801492640013302c400140700000000717b484e01956840017b67580133075020c6003ee84926380149263001492620014133070495682001492628015020c80020e839080c020256183f1220030c0202403308200202280e0233082002022806024926900149268801492680013302ca00140700000000717b484e01956880017b67980133075020cc00d6e74926780149267001492660014133070495686001492668015020ce00b8e739080c020256183f1220030c020240330820020228a6013308200202289e014926d0014926c8014926c0013302d000140700000000717b484e019568c0017b67d80133075020d2006ee74926b8014926b0014926a001413307049568a0014926a8015020d40050e739080c020256183f1220030c0202403308200202283e0133082002022836014926100249260802492600023302d600140700000000717b484e01956800027b67180233075020d80006e74926f8014926f0014926e001223307049568e0014926e8015020da00e8e639080c020256183f1220030c020240330820020228d600330820020228ce004926700249266802492660023302dc00140700000000717b484e01956860027b67780233075020de009ee64926580249265002492640024133070495684002492648025020e00080e639080c020256183f1120030c0202403308200202286e330820020228674926b0024926a8024926a0023302e200140700000000717b484e019568a0027b67b80233075020e40038e64926980249269002492680022233070495688002492688025020e6001ae639080c020256183f1120030c0202403308200202280833082002020183883307013309240a0d7b6718013300e80028c5e97b6718015020e800bee98377330833090a022882e48267180133085020ea00a7e98378330733090a0d2857fd33070802027b67580139070802025517040728bb71956700308377200233083300ee000a03019569d830819764015147e0ef080f6102514740372e20970a514780faf8450a280a1c4929400549293805492930054929280595670030837700060a1001956bd83095bc000582c73882c84082c93082ca28d49808d4a707d48707510706281d6482675801817756170307282164492b6005492b5805492b5005492b48050795672017956820365020f000fde55022f20046be00330820020333070c02027b670001956cd81095c900068297607b67f0008297587b67e8008297507b67e0008297487b67d8007b68d00083887b68c80064b73302f40028a3bd0064b73302f4002899bd005022f40095bd00d88702826bf000d3b009d8b00bda920bd37808d49808da8a0b510b470c5022f6004cbb007bc328027b6450017bc430027b6840017bc83802956800137b6048017bc0400233075020f80061e49567d810492720024927180249271002647a3307209568e012492a08020b5020fa003de48267c8003300fc000a050182670001817755174013826700014807403302fe0028ecb3005022fe00e8b3003307200202837783993308407b671801330000010a09826a200133020201283bb400826a20015022020133b4007bca687bc9707bcb787bc780009567c0129568403650200401bce4956cd81080c7f80182c8e80182c9f001502206012eb6005208fffe5022080160bb00c87802d8820882671001c887077b6710017b69f800d479087b6a0801d42a09d498087b62c0005208c4fe492cd801492cd001492cc801140700000000717b484e9568a0127bc7e001330750200a0158e333020c019568d810014928c0014928b8014928a801116489330704956880124929b00133007601282be34929c0024929b8024929b0024929a80295670030837780030a1001956bd83095bc000282c7b80082c8c00082c9b00082caa800d49808d4a707d4870751070628f4618267580181775617030728f861492be002492bd802492bd002492bc802079567ff079577e1029568a03350200e01aee39568ff079588d900958900028297207b67f0008297187b67d8008297107b67e8008297087b67e0009567d830492700034927f8024927f00264784928e802089567ff079577c1029568c033502010015de39567ff079577d900827300028274f8018272f0018278e8018267f000d3370bd8370c8269d800d849077b675001dab70c8267e800d32700d827077b685801826ae000d88a08da08076480d34908d4b808da870c510c06283c61c949088269f000c93909826a5001c9a909d8780ac9a909c978088267e800c92707c90707140affffffff000000007b6a78826ae000826b5801c9ba0a956bff0795bbd90095bc00017bcaa8007bc7b0007bc8b8009567ff079577a1029568ff07958881027bc9c00050201201c2860033044926c0003302330b3309330a33003303956cff0795ccd90082c7e0017b6798001408000000000100000082c7d8017b67800082c7d0017b67880082c7c8017b6790007b68a0001408e0ffffff000000007b6870017b6b48017b6250017b6458018267e000d879088267e800d37a0bd87a04dab8048268d800d88007826bf000d3b302d8b30bda270bd38008d42808da840b520b06283615959901889801c88a0ad4a908888801c80808d80807c873037b69400195c700017b79087b6a38017b7a107b6828017b78189568ff079588e1017b6330017bc32001330750201401c1e09567ff079577d900492700014927f8004927f000647a3307209568ff079588c101492ae8000b5020160195e033072002037b6720018377330018010a0133090c020239070c02025517400b20030c020240017b6900018269200150221a01b6ad003307200202837783993308407b67f80033001c010a0933021e0128abaf0050221e01a7af00958a00037bab087bac107ba9187ba7209567ff079577a1019568e033502020010be1956cff0795ccd90080c7d80082c8c80082c9d000826a1001d3a707826a1801d3a808d4870782682001d39808d478088267280164708264580182625001826b480182694001826a38018263300152087ffe7bc9a8007bcab0007bc7b8009568ff07958881017bc3c000330750202201a8df9567ff079577d9004927a0004927980049279000647a3307209568ff0795886101492a88000b502024017cdf9517e08477e07b67a800647182690001819756173f0f480940330226012838b3005022260134b3000a09826a200182a71882a81082a90882aa6f7c6f8b6f976fa87b6808018269a8007b98187b6710017b97107b6bd0007b9b087b6cc8007b9c9567ff079577410133084050202801d1dd9568ff079588d900828780007b67b800828a787b6ab0008289707b691801828b687b6b20017b87607b8a587b89509567ff07957721017b8b4850202a01fe7c9567ff07957701018268a80050202c01acdf8269b0008267b80050222e0119b300510706283915956bff0795bbd90082b74082b83882b93082ba287bba087bb9107bb8189568ff079588e1007bb720826720015020300173de8267c8009577018878018269d000502232018cae0095bc00037bc8307bc7287bc9387bca409567ff079577c10095680034502034012edf8267b0008268b800d4780882677082692001d879078269180194977b68a800948752070628a9149567ff079577d9008277f8956800108288c8f8956900108299c0f8826a785022360135b500956b0010492bb8f8956b00107bb9a0f8956900107b98a8f89568ff079588a100956900107b9ab0f850203801c2dd8268c80095870250223a0112ac007bc9507bc7487bca587bc8609567ff07957781009568203450203c0188de8267a0009577c050223e0153b10052070628161495670010827790f895680010828888f895690010829980f8826a7850224001b7b400956b0010492b78f8956b00107bb960f8956900107b9868f89568ff07958861956900107b9a70f85020420133dd8268c8009587035022440183ab007bc9707bc7687bca787bc880009567ff079577419568403450204601f9dd8267a0009577a050224801c4b00052070628871395670010827958f895670010827850f895670010827a48f895670010827b40f882672001837760956c00107bcb20f8956b00107bba28f8956a00107ba830f89568ff07958821956a00107ba938f850204a019fdc8268c80095870450224c01efaa007bc990007bc788007bca98007bc8a0009567ff079577019568603450204e0162dd8267a000957780502250012db00052070628f01295670010827700f8502252016ab4004926f8074926f0077b68e0079568e0074926e8075020540133dc956800018287587b6798078267c0007b6790078287507b6788078287487b678007826798007b67b807826780007b67b007826788007b67a8079567c0079568a00795698007826a90007b6aa00750205601588500956b000782b8d80082b9d00082bac80082b7c00050225801a9b300510806285212826820017b686007826818017b6868078268b0007b687007956860078269b8007b69780750205a0194db82675801956b00077bb7188267c0007bb710826750017bb708826748017bb7826798007bb738826780007bb730826788007bb728956740079568200795690007826a90007bba2050205c01bf8400826b480195bb0188b70182625001c87202d42b078877018268c000c88707d8870882645801c88404d44208d47b09d4980852080628ba137b67c00082602801956cff0795ccd90082694001826a38018263300128a6f9492900044929f8034929f0034929e803956700308377c0040a1001956bd83095bc000382c7f80082b8000482c9f00082cae800d49808d4a707d4870751070628485a82675801817756170307284c5a492b2004492b1804492b1004492b080407956700109568e03450205e0174db50226001bdb300330820020333070c02027b670001956cff0795ccd90095c900078297407b67f0008297387b67e8008297307b67e0008297287b67d8007b68d00083887b68c80064b7330262012816b30064b733026201280cb3005022620108b300d88702826bf000d3b009d8b00bda920bd37808d49808da8a0b510bb80750226401bfb0007bc308037b6450017bc410037b6840017bc818039568ff079588e1037b6048017bc02003330750206601d0d99567ff079577d900492700034927f8024927f002647a3307209568ff079588c103492ae8020b50206801a4d98267c80033006a010a0501826700018177551740138267000148074033026c012853a90050226c014fa9003307200202837783993308407b6718010a09826a200182a782a80882a91082aa186f776f886f996faa95ab02d8ab0ac8a90cd89c09daaa09c88909d88908c887079568d830958a00047bab287bac307ba9387ba7409567ff079577a1039568003550206e0104da956cff0795ccd90080c7d80282c8c80282c9d0025022700172ab005208d0fe50227201a4b000c87802d8820882671001c887077b6710017b69f800d479087b6a0801d42a09d498087b62c000520895fe492cb802492cb002492ca802140700000000717b484e9568ff07958881037bc7c00233075020740198d89568ff079588d9004928a00249289802492888021164893307049568ff079588610349299002502076016cd882670001817756173f0c8268000148084001330701330924826818010a0d011407ffffffff000000007b67688267080195ca00067ba7088267f8007ba7108267c0007ba718956700179568e016826910017ba92050207801307d956bd81033024926b000330433073309330c3300330382b840067b688800140a000000000100000082b838067b687082b830067b687882b828067b6880007b6a9000140ae0ffffff000000007b6a60017b6748017b6450017b62580150227a01d5b1008262e800d820077b674001826bf000d3b304d8b30b82684001da480bd32008d44808da8a0b520b0628680c50227c01ddad009567d810957a00057ba9687b6c38017bac707b6828017ba878956840167b6330017b738005330750207e0150d79567d810492760054927580549275005647a33072095682016492a48050b502080012cd78267c800330082010a050182670001817755174017826700014807408269d000330284012857a4008269d000502284014fa4003307200202837783993308407b67f800330086010a09826a0801330288012822a700826a0801502288011aa7007bca88007bc990007bcb98007bc7a000956700169568603650208a01a0d7956bd81080b7380582b8280582b9300550228c0137ad0082625801826450018267480182694001826c3801826330015208bdfe95b700057b79087b7c107b7a189568e0157bb32005330750208e015ed69567d810492700054927f8044927f004647a3307209568c015492ae8040b502090013ad650229201dfaf00ac7812826700014807403302940128fea90050229401faa900330096010a09330298012846a7005022980142a7009567a01533084050209a01bed49568d810958c000482c7e0007b67a80082cad8007b6aa00082c9d0007b69180182cbc8007b6b20017bc7c0007bcab8007bc9b000956780157bcba80050209c01e873956760158268980050209e019ad68269a0008267a8005022a00107aa0052072a0c956bd81095bc000482c7a00082c8980082c9900082ca88007bca687bc9707bc878956840157bc78000826720015020a20162d58267b8009577018878018269c0005022a4017ba50095bc00057bc8b0007bc7a8007bc9b8007bcac00095672015956880365020a6011dd65022a80105ab005107b50b956bd81095bc000482c75882c85082c948826a685022aa014aac00492b40047bc9287bc830956800157bca385020ac01eed48268b8009587025022ae01aaa6007bc9d0007bc7c8007bcad8007bc8e0009567e0149568a0365020b001b4d5826790009577c05022b20168a3005107450b956bd81095ba000482a71882a81082a908826a685022b401ecab00492b000495bc00037bc9e8007bc8f0009568c0147bcaf8005020b60177d48268b8009587035022b80133a6007bc9f0007bc7e8007bcaf8007bb800069567a0149568c0365020ba013dd5826790009577a05022bc01f1a2005107ce0a956cd81082c2e00395c900038298d800829ad000829bc800826720018377607b9ba8007b9ab0007b98b800956880147bc2c0035020be0100d48268b800958704d88708826ac000c88a09d8a90ada880a82681001c88a0ad88a08826b0801c8b808956bd83095bc00067bc9107bc7087bca187bc820956760149568e0365020c001a8d4826790009577805022c2015ca2005107390a9569d810829788035022c401b2ab0049298003492978037b98680395684014492970035020c6017bd395690001829758956ad81095ac00037bc7208267b0007bc7188297507bc7108297487bc708826788007bc7408267707bc7388267787bc73095672014956800149569e013826b80007bcb285020c801a27c956bd81095bc000382c86082c95882ca5082c7485022ca01f4aa005208a0098268200195b900027b98e800826818017b98f0008268a0007b98f8009568c013826aa8007bba00035020cc01ddd2826758019568d810958900027b97a0008267b0007b979800826750017b979000826748017b978800826788007b97c0008267707b97b8008267787b97b000648b9567a0139568801395696013826a80007bbaa8025020ce01fb7b5022d0014ba70082625801c88202d42408d4ab09d4980851085e0b64b77b6ab0008260280182694001826c3801826330012890fa1407ffffffff000000007b67688267080195c800067b87e8008267f8007b87f0008267c0007b87f8009567ff079577e1079568ff079588c107826910017bc900075020d2012677956bff0795bbd90033024926b000330433073309330c3300330382b820077b688800140a000000000100000082b818077b687082b810077b687882b808077b6880007b6a9000140ae0ffffff000000007b6a60017b6748017b6450017b6258015022d401c7ab008262e800d820077b674001826bf000d3b304d8b30b82684001da480bd32008d44808da8a0b510b00075022d601d1a7009567ff079577d900957a00067ba9487b6c38017bac507b6828017ba8589568ff07958821077b6330017b73600633075020d8013cd19567ff079577d900492740064927380649273006647a3307209568ff0795880107492a28060b5020da0110d18267c8003300dc010a050182670001817755174017826700014807408269d0003302de01283b9e008269d0005022de01339e003307200202837783993308407b67f8003300e0010a093302e2012828a0005022e20124a000958a00047bab487bac507ba9587ba7609567ff079577e106956820355020e40188d1956bff0795bbd90080b7180682b8080682b910065022e6011ba70082625801826450018267480182694001826c3801826330015208affe95b700057b79e8007b7cf0007b7af8009568ff079588c1067bb3000633075020e8013bd09567ff079577d9004927e0054927d8054927d005647a3307209568ff079588a106492ac8050b5020ea010fd05022ec01b4a900ac7812826700014807403302ee0128d3a3005022ee01cfa3003300f0010a093302f201281ba1005022f20117a1009567ff07957781063308405020f4018fce9568ff079588d900958c000582c7c0007b67a80082cab8007b6aa00082c9b0007b69180182cba8007b6b20017bc7a0007bca98007bc990009567ff07957761067bcb88005020f601b16d9567ff0795774106826898005020f8015fd08269a0008267a8005022fa01cca3005207ef05956bff0795bbd90095bc000582c7800082c87882c97082ca687bca487bc9507bc8589568ff07958821067bc760826720015020fc0123cf8267b8009577018878018269c0005022fe013c9f0095bc00047bc8707bc7687bc9787bca80009567ff07957701069568403550200002ddcf50220202c5a40051077505956bff0795bbd90095bc000582c73882c83082c928826a685022040206a600492b20057bc9087bc8109568ff079588e1057bca1850200602a6ce8268b80095870250220802219d007bc990007bc788007bca98007bc8a0009567ff079577c1059568603550200a0268cf826790009577c050220c021c9d005107f904956bff0795bbd90095bc000482c7f80082c8f00082c9e800826a6850220e0299a500492be0047bc9c8007bc8d0009568ff079588a1057bcad8005020100224ce8268b800958703502212029f9c007bc9b0007bc7a8007bcab8007bc8c0009567ff07957781059568803550201402e6ce826790009577a0502216029a9c0051077704956cff0795ccd90082c2c00495c900048298b800829ab000829ba800826720018377607b9b88007b9a90007b9898009568ff07958861057bc2a00450201802a1cd8268b80095870450221a021c9c007bc9d0007bc7c8007bcad8007bc8e0009567ff07957741059568a03550201c0263ce8267900095778050221e02179c005107f4039569ff079599d900829768045022200269a50049296004492958047b9848049568ff079588210549295004502022022ecd95680001828758956aff0795aad90095ac00047bc78267b00095a900037b97f8008287507b97f0008287487b97e800826788007bc7208267707bc7188267787bc7109567ff07957701059568ff079588e1049569ff079599c104826b80007bcb08502024023f76956bff0795bbd90095bc000482c84082c93882ca3082c728502226028da400520839038268200195b900037b98c800826818017b98d0008268a0007b98d8009568ff079588a104826aa8007b9ae0005020280272cc826758019568ff079588d900958900037b9780008267b0007b9778826750017b9770826748017b9768826788007b97a0008267707b9798008267787b979000648b9567ff07957781049568ff07958861049569ff0795994104826a80007bba880350202a02837550222c02d3a00082625801c88202d42408d4ab09d4980851083c0564b77b6ab0008260280182694001826c3801826330012826fa9567ff079577610233084050202e028cca9568ff079588d900828aa0017b6a5801828998017b695001828b90017b6b4801828c88017b6c4001826798007b874001826780007b873801826788007b873001826790007b872801958700017b7a607b79587b7b50648a9567ff07957741029568ff07958821029569ff07959901027bac480150203002bd6250223202e99c005207d70164a29568ff079588d900958c000182c77082ca80007b6a38018283680182ca78285e019567c01633084050203402d8c99568d810828a00067b6a58018289f8057b695001828bf0057b6b4801828ce8057b6c4001826788007b87a0058267707b8798058267787b879005826780007b878805958700057b7ac0007b79b8007b7bb000648a9567a01695688016956960167baca80550203602186250223802449c005207320164a29568d810958c000582c7d00082cae0007b6a38018283c80582cad80028bb009567ff079577a10733084050203a0231c99568ff079588d900828ae0067b6a58018289d8067b695001828bd0067b6b4801828cc8067b6c4001826788007b8780068267707b8778068267787b877006826780007b876806958700067b7aa0007b7998007b7b9000648a9567ff07957781079568ff07958861079569ff07959941077bac880650203c02616150223e028d9b0052077b64a29568ff079588d900958c000682c7b00082cac0007b6a38018283a80682cab80001d3b704d8b70cd89300da400cc92a08c9c804d8c8087b683001d82a0a826c580182683801c9c80cc9ac0c82683001c98c0cc9b707c90707c99308d4c707d4480ad47a0ad4470798aa20977720d4a707520706283e48005147419bd8953503514765b42ca2bf045147a37a67aebe085147dd567bc8ac0a51474a096ad9650c524775fc19e20a28af165247c5e985e90a28321a524703defd060a28c31c5247fc1218080a28341e52478555e8120a28f21f52470e2e84420a28e92052471e2152630a28ff2251473182a0700a283d249567d830492780064927780649277006492768069567003083774007330040020a1033024202282fa300502242022ba30082b77882b8800082b97082ba68d49808d4a707d4870751070628654850224402dea200ac78062869489567a0183300460233022e062864a2009569d8108097d8078298c8078299d007d4780ad49a0a520a06284e48956ad810492ac00795ab00077bb8a8007bb9b000956880187bb7b8003307502048024cc833024a029568d810014928a0074928980749288807036489330720956860184929900750204c0223c839080c020256183f143308403d080c020233024e0228a5a10050224e02a1a100330720020283778399330840330050020a093302520228989c0050225202949c0095bc00067bcaa0007bc998007bc890007bc78800956740189568603750205402b2c89568d8109589000750225602f8a10095672018330840502058026ac6956ad81095ac000782c76082c85882c95082cb4850225a02a0970052071afe64ba9567d810956b000182b840957c00077bc82882b8487bc83082b8507bc8389568001882b9587bc940281d1f4926f0064926e8064926e00633025c02140700000000717b484e019568e0067b67f806330750205e022dc74926d8064926d0064926c006113307049568c0064926c80633006602280bc79567d8104927780249277002492768026479140700000000717b484e956840137b978002330750206002e2c6330262029568d8100149286002492858024928480211648933070495682013492950023300660228b5c69567ff079577d9004927580349275003492748036479140700000000717b484e9568ff07958821047b97600333075020640284c69568ff079588d9004928400349283803492828031164893307049568ff0795880104492930035020660258c682670001817756173f0c82680001480840013307013309248268f8000a0d019567d8384927e0004927d8004927d0004927c800956700408377a0f90a1001956ad83882a7d80082a8e00082a9d00082aac800d49808d4a707d48707510706284546826758018177561703072849469567802333084050206802a3c49568d820958900028297c0007b67b8008297b8007b67c0008297b0007b67c8008297a8007b67d0009568d838492800014928f8004928f0004928e80001956760239568c03950206a0284c6956bd82095bc000282c7a00082c8980082c9900082ca8800956b00017bb7507bc7607bb8487bc8587bb9407bc95095674023956820237bba587bca4850206c02066950226e02ad9d005207dafb9567d820957c000282c9800082ca7882c87082cb687b6bf8007bcb287b6808017bc8307b6a00017bca38956800237b6910017bc9408267d0005020700206c58267580184770151070628d72c50227202f89b00510883fb82675801847800ff8267d0008377209569d820826a4001959b00017bbab0007bb8a800826848017bb8b80095688022826a50017bbac00050207402b1c4502276022e9a0028ec309567d83849272001492718014927100149270801956700408377e0f9330078020a103307004033027a02287c9e003307004050227a02749e0082b71882b82082b91082ba08d49808d4a707d4870751070628c344826758018177330843ac780628c5449567402533007c0233022e06280c9e009567d820957900048298787b6848018298707b6850018297687b67580195670040837700fa3308240a03019567d838957c000182c84082c93882ca2882cb30956c00017bc8387bc930d489077bca2888a8027bcb2094b89478520806286744956a000182a74897772098792082a75882a850d487077ba940d4970752070628564433072002037b67180183777b67e80033007e020a0582691801330280022874960082691801502280026c96008399d800c8690949296004959b00047bb8587bb750956820257bba4833075020820263c3330284029568d820014928400449283804492828040564893307209568002549293004502086023ac333070c02027b67480139070c020233083fac7812826848014808403302880228229600502288021e96003307200202837783993308407b67100133008a020a09826a080133028c02287f9d00826a080150228c02779d007b6708016f877b6700016f977b67f8006fa77b67f0009569d8204929200482674001959a00047ba718826750017ba7109568e024826758017ba708330750208e02a0c28267f0009568d8207b8700048267f8007b87f803826700017b87f003648a3307209568c024826908017ba9e803502090026dc282674801817756173f0c82674801480740019517e08477e07b67480164718379330840826710010a09826a480182a71882a81082a90882aa6f7b6f876f986fa9956cd820826a38017bcac003826a30017bcab803826a20017bcab003826a28017bcaa80395ca00037ba9e0007ba8d8007ba7d0009567a024956880247babc80050209202b8840095676024330840502094029fc0956ad82095ac000382c7a00082c8980082c9900082cb880050229602d1910052074bf864ba9569d82082672801959c00037bc768826720017bc770826730017bc77895684024826738017bc7800064b77b6a4801502098027fc18267e80033009a020a058269180133029c0228c49a008269180150229c02bc9a00d4780298aa206f99979820d4a808989920826a40019567d8207b7a18033a0ae8000249272003826b50017b7b1003826b58017b7b08037b7a60033a0af000023a0bf800023a0c000102492740037b7a5803957a00037bab507bac487ba9387ba83033082095692024956a0024956be0237b7228038267480133009e02951120ff7b10d8007b15d0007b16c8009515e0008411e082bc7b1c4082bc087b1c4882bc107b1c5082bb187b1b5833021228ca960033078268100133090a0d28cd4c5022a002d59a00ac780628a6419568d838492860014928580149285001492848010a956720269568203a5020a20262c19567d820827850057b685801827848057b685001807758057b67480133072002037b67400183773300a4020a0501956c000182c9405022a602f48d0082c948d3980882c950d39707d4870782c858d3a808d48707520706283a41956700263308405020a802cfbe9567d820957c000582ca4082cb3882c93082c8285022aa02258e0052077ff69569d820492918054929100549290805140700000000a079c3089568e0257b972005826758015020ac02bebf5022ae02d78c00510748f6826758018377049569d820492900054929f8044929e804209568c0254929f0045020b0028dbf956900018297409577dc5022b2028a8c0051070df6826758018377249569d8204929e0044929d8044929c804309568a0254929d0045020b40252bf14070000000001000000956900017b97401407bcffffff000000005022b6023e8c005107c1f5826758018377443a08b80002956bd82095bc00047bc8c0003a08c000023a09c800023a0ad000027bc8b8007bc9b000956880257bcaa8005020b802efbe9569000182974095779c5022ba02ec8b0051076ff5826758018377643a08d800023a09e00002956ad8207ba8a004492a90047ba9980495686025492a88043300420528a7be9567d8384927600249275802492750024927480295670040837720fb3300bc020a103307d8383302be02289d97003307d8385022be0295970051070628f43f5022c002a09800ac780628f83f95670040837740fb3308040a03956ad83895ab000282b96882b77082b87882ba8000956bd82095bc00077bca607bc8587bc75095674028956820287bc9483300c2029511a0fc951900037b90587b95507b9648951560038411e0641682897b69b800828a087b6ab000828b107b6ba8008288187b68a0007b67107b68f8027b6bf0027b6ae802956700039568e0027b69e00233009007283881003302c4029568d8200195890007829780007b6720018297787b6728018297707b6730018297687b673801956700283308405020c60253bc9568d820958b000782b94082ba3882b73082b8285022c802678f00520703f49569d8204929200749291807492910079568e0274929080720826758015020ca024bbd5022cc02b98e007b89b006958900067b97a80082c7207b97e00082c7287b97d80082c7307b97d00082c7387b97c8007b9ab800648a9567c0279568a027956980277babc0065020ce02ca519568d8208287f006828200078283e806828af80628442b5022d0021e9700ac780628873e95670040837760fb3308040a039567d838957c000282cba00082ca980082c8900082c988009567d8287b6b38017b7b00047b6a4001957b00037bbaf8007b6848017bb8f0009568c02c7b6950017bb9e80033075020d20283bc9567d8284927e0034927d8034927d003647a3307209568a02c492ac8030b5020d4025fbc33070c02027b67580139070c020256173f0c82685801480840019517e08479e07b692801649133072002027b67f800837783993308407b6730013300d6020a093302d80228b58b005022d802b18b00958a00027baba8007bacb0007ba9b8007ba7c0009567802c9568803b5020da02e0bc3302dc029568d82801958900038297c0007b6720018297b8007b6718018297b0007b6710018297a8007b670801826738017b97a000826740017b979800826748017b97900064899568602c826750017b97880333075020de0293bb3302e0029568d828014928800349287803492868030b64893307209568402c492970035020e2026abb82675801817756173f0c82675801480740019517e08477e07b6728015022e4021b91003300e6020a09826a28013302e802283c8900826a28015022e8023489009568d838958c00027bcac8007bc9d0007bcbd8007bc7e0009567202c9568a03b5020ea02f6bb9567d828957900038298587b68d8008298507b68e0008297487b67e8009567d838492700034927f8024927f0024927e802956700408377c0fb0a1001956ad83882a7000395ab000282b8f00082b9e80082baf800956c000182cb20d3b70782cb10d3b808d4870782c818d3a80882ca08d3a909d49808d4870751070628db1c3302ec029569d8280182675001959a00027ba768826748017ba770826740017ba7789568402b826738017ba7800033075020ee024fba9567d828492760024927580249275002647a3307209568202b492a48020b5020f0022bba5022f202de9200ac780b82685801480840019517e08477e07b6728015022f402dc8f003300f6020a09826a28013302f80228868700826a28015022f8027e8700826800017b8b7b8c087b89107b871833072002037b67280183777b67f0003300fa020a05826928013302fc0228228d00826928015022fc021a8d007b68d0009877206f98978920d497077b67c8009888207b68c0009567002b826800015020fe027aba9568d82880873c02828840029777208269c000d497079569d838959a00037ba8208268c8007ba8108268d0007ba8087ba7189568e03b8267000150200003b2ba826738019569d828959a00027ba720826740017ba718826748017ba7109568e02a826750017ba70833075020020318b9330204039568d82801492800024928f8014928e8010b64893307209568c02a4929f00150200603efb850220803a29100ac780b8267580148074001140700000000ffffffff7b67d0009517e08477e07b67c80050220a03928e0033000c030a09826ac80033020e0328858900826ac80050220e037d8900826800017b8b7b8c087b89107b87189567a02a502010037ab9330700305022120383920082b7c80082b8d00082b9e00082bad800847700ff867701956bd83895bc00037bc9407bca387bc8307bc7289568003c8267000150201403aeb9826738019569d828959a00017ba7c000826740017ba7b800826748017ba7b0009568802a826750017ba7a80033075020160310b8330218039568d828014928a00149289801492888010b64893307209568602a4929900150201a03e7b79517e08477e07b67000164718267580181775517400c82675801480740019517e08477e07b67580150221c038c8d0033001e030a09826a58013302200328ad8500826a580150222003a58500826800017b8a7b89087b8b107b87189567402a5020220374b89568d82882877801828880018269d000d297078488ff9569d83849295003492948037b9860037b9758039568203c8267000150202403b4b89567d83849278003492778034927700349276803089567202a9568403c5020260319b8956bd82895bc000182c94882c75082c85882ca607bca207bc8187bc7109567002a9568e0297bc90850202803066c3307003050222a03f4900082b72882b83082b93882ba40956bd838492ba003492b9803492b9003492b88030895bc00037bcac0007bc9b8007bc8b0007bc7a8009567603c9568803c50202c0315b88267f00033002e030a0582692801330230032851890082692801502230034989007b6700019888207b68d0008267f000330032030a826928013302340328ac89008269280150223403a48900956bd828826ad0007bbad800826a00017bbad000826a58017bbac800826a38017bbac000826a40017bbab800826a48017bbab000826a50017bbaa800492be0007bb8f8007bb9f0007bb7e8009567c0299568a02995698029492b0001502036036c7f9568d8384928e0034928d8034928d0034928c8030a956760299568a03c50203803ccb69567d828827888007b685801827898007b680001827890007b68d0009568d838492800044928f8034928f0034928e80309956740299568c03c50203a038db69567d82882726882737082797864788267d0006f7a97ab20826700016f7c98cc20d4cb0b98aa20826758016f77977c20d4ca0a828c8000987720826828017a87107b8a087b8b9567d8387b7c20047b7918047b7310047b72080448272804492760044927580449275004492748049787209872209567e03c9777209877209568203d978820d4780a8267f800977720987b209567003d977720d4b70c3308ff3309ff7b62580164277b6b00010a0101510706283a1e9567d8384927a00449279804492790044927880495670040837760fd0a109567d8384927c0044927b8044927b0044927a80495670040837780fd0a108267e0006f779778208269d8006f99989920d498088269e8006f99979a20987720d4a707956cd83882cab004826b28017bb70882c7b8047bb882c8c0049899207ab91095cb000482b9a8007bb8e0007bb7d8007bbad0007bb9c800482ce804492c2005492c1805492c1005492c08059567a03d9777209877209568e03d978820d4780a9567c03d977720826b0001d4b70c3308ff3309ff826758010a017b67c8009567002933084050203c03c2b29567d8288278407b68f8008278387b6800018278307b68d0008277287b6758018267c800510706285a1f8267580182690001d497078268f800826ad000d4a808d48707987720d49808978820d48707510706283bea8267d8009777209877207b67000133023e039569d82801826708017b9708826710017b9710826718017b97189568e028826720017b9720826758015020400366b38267f000330042030a05826928013302440328ab8c008269280150224403a38c00d4780298aa206f99979820d4a8049899209563d820826700017b3798078267e0007b3790078267e8007b3788074923a0074923c007826738017b37e007826740017b37d807826748017b37d007826750017b37c8073a0a9800023a0ba000023a0ca800023a07b000029568d8287b8a958a00ff7babf8007bacf0007ba7e8007b39b8077b34b0073308209569c028956aa028956b8028956c60287b32a807826758015020460379b533078268300133090a0d28bd3e82675801817756174307283f3495670040837720fe3308040a039568d838958900058297607b6740018297587b6748018297507b6750018297487b6758019517e08477e07b673001647195670040837740fe3308240a03330248039568d83801958b000582b9800082b77882ba7082b8687b69f800826b30017bb9187b6708017bb7107b6af0007bba087b6800017bb89567d830826840017b7882684801957a00ff7ba8f800826850017ba8f0009568c030826958017ba9e800330750204a03ceb133024c039569d828014929e0074929d8074929c8070b3307209568a0304929d00750204e03a7b133070c02027b67100139070c020256173f0c82681001480840019517e08479e07b69380164913307200202837783993308407b67e800330050030a09826a38013302520328ef7e826a380150225203e87e9568d838958a00057bab88007bac90007ba998007ba7a000956780309568603e5020540322b29567d8288278b0077b6828018278a8077b6820018077b8077b67180133072002037b67380183777b67e000330056030a0501956c000182c93850225803b07e82c918d3980882c920d39707d4870782c828d3a808d4870751070628a3149567d8384927c0054927b8054927b0054927a80595670040837780fe0a1001956ad83895ab000582b7c00082b8b00082b9a80082bab800826bf800d3b707826bf000d3b808d4870782680801d3a808826a0001d3a909d49808d48707520706283e329567a02f33084050205a032aaf9567d828957c000682cae00082cbd80082c9d00082c8c80050225c037c7e51070628d4e633025e039569d828014929b8064929b0064929a806140700000000a079c3089568802f7b97c00682675801502060030fb050226203287d5207062897e650226403d187004929a0064929980649298806209568602f4929900650206603e1af956900018297409577dc50226803de7c520706285fe650226a03ba8600492980064929780649296806239568402f4929700650206c03a9af14070000000001000000956900017b97401407bcffffff0000000050226e03957c5207062816e6826758018377443a08380002956bd82895bc00067bc8603a084000023a094800023a0a5000027bc8587bc9509568202f7bca485020700349af9569000182974095779c50227203467c52070628c7e5826758018377649569d82849293806492930061408000000000065756c7b9840069568002f49292806330042052800af9567d8384927c0064927b8064927b0064927a80695670040837780330074030a1001956ad83895ab00065022760355880051070628ce35826758018177330843ac780628d0351407ffffffff000000007b6750019567e0313300780333022e06287788009568d830828708017b675801828710017b673001808718017b6728019567c03133007a0333023806284b88009568d8308287f8007b6748018287f0007b6740018287e8007b6738014928e000826728017b87d800826730017b87d00064899568a031826758017b97c800330750207c032dae9568d8304928c0004928b8004928a800056489330720956880314929b00050207e0309ae33070c02027b67580139070c020256173f0c82685801480840019517e08479e07b69280164913307200202837783993308407b673001330080030a09826a28013302820328528800826a2801502282034a88007b6720016f877b6718016f977b6710016fa77b6708019517e08477e07b6728016471826738018477ff826940018498ff82695001826a4801d2a909956ad830492aa0007ba998007ba89000956860317ba788003307502084035bad826708019568d8307b878000826710017b8778826718017b8770648a33072095684031826920017ba968502086032bad82675801817756173f0c82675801480740019517e08477e07b67580150228803dc820033008a030a09826a580133028c0328077c826a580150228c03007c826828017b8a187b89107b8b087b879567203150208e03c6ad9567d8308277487b675801956700313308405020900382ab956ad83082a74082a83882a93082ab2850229203bc7c5107062834e364ba7c6758018e779569d830330c4919204919187b97089568e03049191064b77b6a50015020940376ac33082082675001330030052844b09567d8304927c0014927b8014927b0014927a8019567003083778002330096030a103302980328ae860050229803aa860050229a03b38500510706284e33826758018177561703072852339567600333084050209c03d6aa826778037b67b800826770037b67c000826768037b67c800826760037b67d0009567d8304927e0014927d8014927d0014927c801956740039568a03250209e03c0ac956b000382b75882b85082b94882ba40956c00017bc7507bb7187bc8487bb8107bc9407bb90895672003956800037bca587bba5020a0034b4f5022a203f28300510706281ce2956b000382b73882b93082b82882ba207b6af800956b00027bbae0007b6808017bb8e8007b6900017bb9f0009568e0027b6710017bb7f8008267d0005020a40346ab82675801847701510706282c155022a60338820052080628c0e182675801847800ff8267d00083772082694001956a00027ba9687ba860826848017ba87095686002826950017ba9785020a803f7aa5022aa037480002845189567d830492700024927f8014927f0014927e801956700308377c0023300ac030a103302ae03283385005022ae032f850082b7f80082a8000282b9f00082bae800d49808d4a707d4870751070628e3315022b003d28400ac780628e731956700308377e0023308040a039567d830957b000282b9087b69580182b8107b68500182ba187b6a480182b7207b6740017b6738047b6a30047b68280495674004956820047b6920045020b203b76d95690001829740956a00047ba7188297487ba7108297507ba708956800048297587ba733075020b40316aa4926f8034926f0034926e003043307209568e0034926e8035020b603f8a939080c020256183f143308403d080c02023302b803287a83005022b8037683003307200202837783993308403300ba030a093302bc03286d7e5022bc036a7e95bc00027bca407bc9387bc8307bc7289567c003956800335020be038daa8267d003956800017b87488267c8037b87588267c0037b87509567a0033308405020c0033ba8956a000382a7b80082a8b00082a9a80082aba0005022c203717951070628e9df64ba9569000182974897772098772049269803829850956b00037bb880008298587bb88800956880037bb790002852049567d8304927c0034927b8034927b0034927a80395670030837780043300c4030a1001956ad83095ab00035022c603768200510706285530826758018177561703072859309568d8304928e0034928d8034928d0034928c803099567ff07957741039568a0345020c803aba99568ff079588d900958900025022ca03ed82009567ff07957721033308405020cc035ba7956aff0795aad90095ac000282c76082c85882c95082cb485022ce038d785107062805df64ba9567ff079577d900956b000182b840957c00027bc82882b8487bc83082b8507bc8389568ff079588010382b9587bc9400164a77b6a38015020d00332a833082082673801330030052800ac9567d83049272005492718054927100549270805956700308377e0050a1001956ad83095ab000582b71882b82082b91082ba08d49808d4a707d48707510706286c2f8267580180779569d81049294001492938017b9728019567201295680012492930015020d20381443302d4039568d81001958900018297a0007b673801829798007b673001829790007b672801829788007b672001829780007b6718018297787b6710018297707b6708018297687b6700018297607b67e0008297587b67e8008297507b67f0008297487b67f8009567e0113308405020d6030da69568d810828920017b694801828a18017b6a5001828c10017b6c5801828b08017b6b40014928e0004928d8004928d0004928c800207b8900017b8af8007b8cf00064899567c0119568a0117b9be8005020d803d845956b000182b74882b858d4870782b840648982ba50d4a808d47808988820d4a707977720d487075107062859dd9567d8104927c0004927b8004927b000956880114927a80064975020da03a5a6826748019568d8107b8740826750017b8738826758017b8730826740017b87288267e0007b87a0008267e8007b8798008267f0007b8790008267f8007b878800826700017b8768826708017b8770826710017b8778826718017b878000826720017b8748826728017b8750826730017b8758648c956760119568401195692011956a0011826b38017bcb605020dc03b55b33082002028388330733090a0d2831329567d8304927400649273806492730064927280695670030837700073300de030a103302e003283d80005022e00339800082b73882b84082b93082ba28d49808d4a707d4870751070628532d5022e203ed7fac780628582d95670030837720073308043300e4030a033302e60328f67f5022e603f37f82b94882b75082b85882ba60956bd81095bc00067bcac0007bc8b8007bc7b0009567a017956880177bc9a8005020e803d2683302ea039568d81001958900068297d800956800017b87488297d0007b87588297c8007b8750956760173308405020ec03efa3956ad81095ac000682c7a00082c8980082c9900082cb88005022ee0321755107062899db64ba956b000182b7489777209877209569d8104929800682b850959c00067bc86882b8587bc870956840177bc7780164a77b6a40015020f003caa433082082674001330030052898a8514720b6b3720a286f2c8267580181775617430728cf2c95670030837780073308043300f2030a03019567d830957b000682b8c00082b9b80082bab0005022f403c57c52080628ae2c9567d8308278a80682675801807c9587236482d88708826a4001c88a09d8a90ada880a82684801c88a0ad88a08826b5001c8b808d4a8087b6c5801d8c7079497948752070628772c7b623801832804956700308377a0070a039567d8308272c8068274d0068270d806647882673801957924d8790b82674001c8b70cd87c07dabb07828be00682684801c88707d8870382685001c883039568d820491860491858491850826a58017b8a487b8b80007b80787b84707b82687b8c90007b8988007b879800648b956780219568602195694021956a20217bb3a0005020f60350449568d8208287c0007b67e0008287b8007b67d8008287b0007b67e8008287a8007b67f000956700308377c0073308240a039568d830828700077b6758958900068297f8007b67508297f0007b67488297e8007b67409517e08477e07b67580164714928200749281807492810074928080707956700219568e0375020f80305a4956bd82082b92882b73082b83882ba407bba95ba00ff7ba8f8007ba7f0009567e0209568c0207ba9e8005020fa03f057956ad82082a81882a72082a90882aa107b68c000826b58017bb8107b67c8007bb7187b69b8007bb97b6ab0007bba0864b89569d8304929400749293807492930074929280707956700385020fc03fda333072002037b67a80083777b6790000a05018269a8008097108298829908d48707d4970752070628c62a826790003300fe030a058269a8003302000428d1758269a80050220004ca75956bd818826ac80095bc00077bcaa000826ac0007bca9800826ab0007bca9000826ab8007bca88007bc9b8007bc7b0007bc8a8009567a0209568802095696020492bc00750200204ed66956ad81895ab000782b7d80082b8e00082b9d00082bac800d49808d4a707d48707510706289d2a9569d8188267b800959a00077ba7288267b0007ba7308267c0007ba738956800208267c8007ba740330750200404a9a1330206049568d818014928200749281807492808070664893307209568e01f492910075020080480a19517e08477e07b67a000647133070c02027b67880039070c020233083fac78118268880048084033020a0428ec7a50220a04e97a3307200202837783993308407b67780a09018269580182931082981864978269f000826cd800d4c909826ae800826be000d4ba0ad4a909989920d4ca0a97aa20d49a02827a08827b6f8c6f396faa6fb88267a000956b00017bb8107b78187b6af8007b7a107bb97b79087bbc087b7c510206286bd79567c01f8268f00050200c048f9f9567d818827a00078278f8068279f0068ea78e8bdba70b7b69d0008e977b6880007b6a70d4a8087b67307b6b387b6868db8b0751070628c4299567d8188277e8067b6798009567a01f8268a00050200e0468a1956bd81895bc000682c9c80082c7d00082c8d80082cae0007bcaa0007bc898007bc790009567801f9568601f7bc9880050201004f6439567d81895780006828ac000828bb800828cb0008289a8008ea78eb8dba7088ec77b6938018899208599017b6c4001dbc7097b6a48017b6b5001d4ab07db7809826798008877207b6760510934059567d818956a000182a808957b00067bb86882a87bb8708268f8007bb8789568401f82a9107bb98000330750201204c19f82678800817756171f0c82688800480820019517e08477e07b672001647183793308208267780a098267980095781fd87807826cd000c87c09d8c90ada770a826b8000c8ba0a7b6a180197aa3b989b05d4ab0b8267200182731897993b827a10988805d498076f346fa982686094c8826a6894a8948b9487c87402d84207c8790cc8cb0b7b6b5801d39b0cd89b0adac70a7b6a288267380195701fd8700b826a4001c8ba07d8a70cdabb0c82635001c8c303973b3b987a05d4ba0a97773b980b05d4b707c847077b673001d847076424c8790bc8ab0bd39b0a7b6b2801d89b09daa709826b180182678000d87b07826a70c8a70798ba05977b3bd4ba0a826b200182b282bb08987705948a94876fb86f2bc8b707c88a0ad88a0cc8c707826028c8a000d8a00ac8a70282675001d87307826a4801c8a707983a05977c3bd4ca0a987705c8b707956c000182cb58c88a0ad88a08c88707c8a9097bc920d8a908c887077bc7189517e08477e07bc75064710182673001d8740782692801d39b08d89b09da8709826c2001d8c007826a1801d3a208d8a20ada870ad3c007d48707da790a7b644801826750017b747b6b58017b7b087b6038017b70107b6240017b72189567d830510a3a0349276007492758074927500749274807956820388267500150201404449f82644801954401884701826b5801c87b0bd4b40788770182683801c88707d8870882624001c8820264702860ff9567002c33084050201604669c9567d828957c000382ca4082cb3882c93082c82850221804bc6b5107062814d433021a049569d82801492918034929100349290803140700000000a079c3089568e02b7b9720038267580150201c044f9d50221e04686a52070628d7d3502220041175492900034929f8024929e802209568c02b4929f00250202204229d956900018297409577dc502224041f6a52070628a0d350222604fb734929e0024929d8024929c802409568a02b4929d00250202804eb9c14070000000001000000956900017b97401407bcffffff0000000050222a04d7695207062858d3826758018377443a08580002956bd82895bc00027bc8c0003a086000023a096800023a0a7000027bc8b8007bc9b0009568802b7bcaa80050202c04879c9569000182974095779c50222e0484695207062805d3826758018377643a08780002956bd82895bc00027bc8a0003a088000023a098800023a0a9000027bc898007bc990009568602b7bca88003300420528309c9567603033084050203004ec9a9567d828957c000782caa00082cb980082c9900082c88800502232043e6a5107062896d2330234049569d82801492978074929700749296807140700000000a079c308956840307b9780078267580150203604d19b50223804ea685207062859d250223a04937349296007492958074929480720956820304929500750203c04a49b956900018297409577dc50223e04a1685207062822d2502240047d724929400749293807492928072a9568003049293007502042046d9b14070000000001000000956900017b97401407bcffffff0000000050224404596852070628dad1826758018377443a08100002956bd82895bc00077bc8203a081800023a092000023a0a2800027bc8187bc9109568e02f7bca08502046040d9b9569000182974095779c502248040a68520706288bd1826758018377643a083000029569d8284929f0067b98000714080000000000006e6f7b98f8069568c02f4929e8063300420528bf9a826760857701826ad000826830dba807826838826968db9807826b70d4ba087b68688268800098893f7b696097b9017b693898a93f7b69289788017b68188268980098893f7b693097a9017b69209788017b68705107cb05826798008477e07b67d0009567d81882680801957a00067ba828826800017ba8308268f8007ba8389568001f826910017ba940330750204a042f9a9517e08477e07b6730016471330820330750204c04f79d9518e08488e07b6828016481837783893308200a094926580120330c49265001492648014926380149264001826a280182a71882a81082a90882aa6f736f846f903309826b38016fa7330a6472826830017b87187b6010017b80107b84087b83017b6228018267d0007b6b3801d87b07857b017b6a180194ab017b69200182674001d49707947b018268f00082675801c87808826ae800c8ac008269d80082675001c879098267e00064ca826c4801c8c707520b3408826b5801d8b80bc8b000d3a0027b6af800d8a00cda2b0cc89c0cd89c02826a5001d8a909c89707c82707d4c809d47007d47909989920d4c707977720d497077b6308017b64000151070628a9cf9567401950204e04d197956ad81882a7800082a87882a97082aa68956bd83095bc00077bc780007bc8787bc9707bca68956840388267300150205004419a8263080195330188370182640001c87404d4430788770182681001c87800d8800882672801c88707826858019589207b692801d8890a8268f800c8a8097b690801d8890bdaaa0b82685001c8b80ad88a0b82684801c8b8087b68480182683801958b20d88b0c82691801c8c908d89809dacc09826c2001c8c909d8c90c82624001c8c2027b624001826c30017bc4087bc37bc01064727bc7187b601001826728017b675801826c08017b6a5001648a2871fe9569d8204929200249291802492910029568e022492908020133075020520404989517e0847ce064c149265801330a330433023a000801023a031001028267d0009578207b68f000d878098268c800c898077b67e800d88708da99083a0b1801023a092001027bc0187b6318017bc3107bcb087b6c38017bc98267c000c878087b68e000d878078268b800c88707826858017b67d8003307017b6740017b6a48017b6858017b6250017b6920017b6b28017b603001647c8267f800d8780782690801d39a08d89a09da8709826b0001d8bc07826a1001d3a208d8a20ada870ad3bc07d48707da790a510a68039567c02282683801502054041d98502256046d69d8a802826cd800826a5001c8ac0cc82c0a502258049067510806289ccd956cd82082c9000282c8f80182caf00182cbe8017bcbc80195cb00017bbad0007bb8d8009568a0227bb9e00050205a04d69650225c04986582625001c8920282c9387b94087b937b97107b90187bc71864b7644b64392826ff9567202933084050205e0468959567d8288278607b6850018278587b6848018278507b6840018277487b6758010a0c01956b000182b85082b940d4980882ba4882b958d4a909d48909989920d4a808978820d4980851080628e8cc98782051080628dfcc64787b67480183777b6750018267580150206004149a9568d838826948017a896804837795680040838840fd33090a0b9567d838817768042808024926d8024926d0024926c8029568c0024926c002330750206204f4959517e0847ce064c149265801330a330433023a00a801023a03b001028267d0009578207b68f000d878098268c800c898077b67e800d88708da99083a0bb801023a09c001027bc0187b6318017bc3107bcb087b6c38017bc98267c000c878087b68e000d878078268b800c88707826858017b67d8003307017b6740017b6a48017b6858017b6250017b6920017b6b28017b603001647c8267f800d8780782690801d39a08d89a09da8709826b0001d8bc07826a1001d3a208d8a20ada870ad3bc07d48707da790a510a6b029567a00282683801502064040d96502266045d67d8a802826cd800826a5001c8ac0cc82c0a502268048065510806288ccb956c000282c9b80082c8b00082caa80082cba0007bcb80007bca88007bc89000956880027bc9980050206a04ca9450226c048c6382625001c8920282c9387b94087b937b97107b90187bc71864b7644b6439282aff8267980082688000d48707826868d487075207f604492608014926000149261001492618012841050a0c0182685801826a0001d4a8088269f800826bd000d4b909d49808988820d4a909979920d4980851080628e1ca98782051080628d8ca64787b67480183777b6750018267580150206e040d989568d838826948017a892805837795680040838800fe33090a0b9567d838817728050182685001ae87062895ca0a0c0164789877205107062887ca826758017b68500150207004c497837881695001330701330072040a0d0195680001828758828a48828c40828b503302740428be6950227404bb69956cd8208268d0007bc888017bc768018267c8007bc790018267c0007bc798017bc970018267b80095c900017b97a0007b9a7895676022956840227b9b800050207604593295672022330840502078042c929568d820958b000182b96082ba5882b75082b84850227a04406551070628dac99569d8204929400149293801492930019568002249292801208267580150207c04239350227e0491647b89d0007b87c8008267b8007b8700018267c0007b87f8008267c8007b87f0008267d0007b87e8007b8ad800648a9567e0219568c0219569a0217babe00050208004a3279568d820828710018282200182830801828a1801281d0195680001828758828a48828c40828b503302820428ab6850228204a8688268d0007b6840027b6720028267c8007b6748028267c0007b6750027b6928028267b8007b6758027b6a300295674002956820027b6b3802502084044d3195670002330840502086042091956b000282b91882ba1082b70882b850228804396451070628d3c84926f8014926f0014926e8019568e0014926e001208267580150208a04209282685801958720d88708826a500150228c04386a82684001c88a0ad88a08826b4801c88b0b7b6988017b6780018267b8007b67b8018267c0007b67b0018267c8007b67a8018267d0007b67a0017b6a90019567c0019568a001956980017b6b980150208e0483268267c8018262d8018263c001826ad0010182685001d3870bd8870c648082645801d84308dab80c82694001c99a0bd89a0a82694801c99209c9a909d8cb0ac9a909c9cb0bc90707c98707c94308d497076489d4b808d47808d4b707988820977720d4870751070628e3c78267580164987b695001502090041e9583788169500133070a0d2818108263500182625801826b9800826cd000d3cb0b826c8000d4cb0b826c68d4cb0b510b360164a4d8280bc8b00ad34a02d84a0cda2b0cc89c0cd89c0bd83909c89707c8b707d4c809d4a707d47909989920d4c707977720d497075107062867c79567e01e502092048f8f9567d818957900068298207b6850018298187b6848018298107b6840018297087b6738018267980097773b9878387b6858019a8980003307ff3308ff502094044f6b7b6728017b6810013307ff3308ff8269580150209604116b7b6718017b68200182671001d487077b671001826758019579803307ff3308ff50209804eb6a826b580188b98000826a1001db9a08826c1801826a2801d4ca0ada970a93b8ff93baff826b2001939b939c82673801e0a70782694001e0890882694801e0c909826a5001e0ba0a956bd83095bc00077bcaa0007bc998007bc890007bc78800956860388267300150209a044691826760826838d48707826828826918d49808826930826a20d4a909826a7095aa01956bd83095bc00077bcaa8007bc9b0007bc8b8007bc7c00033078038285d018267e0008268d800d487071408e0ffffff000000008269f000d889088269e800949894785208062806c68267f0008378209567201f50209c04278e9567d81895790006829860956a00017ba8188298587ba8108298507ba88297487ba70801826728826818d487077b675001826760826838d487077b674801826730826820d487077b674001826898009788037b6858018d8980003307ff3308ff50209e04c3697b6720017b683801826798008a79033307ff3308ff5020a00482697b6730017b68280182682001d487077b672001826758018379803307ff3308ff5020a2045c69826b580188b98000826a2001db9a07826c2801826a38015022a4040d64826b3001939b82680001e0a80882690801e0790782691001e0b909826a1801e0ca0a826b70d4b707956c000182cb40d4b80882cb48d4ba0a82cb50d4b909956bd83095bc00077bc9d8007bcae0007bc8d0007bc7c8003307a03801c876088267a0005020a6049f8f9567c01e3308405020a804ee8c956ad81882a7000695ac000582c8f80082c9f00082cbe8005022aa04205e5107062898c464ba9569d8188267b800959c00057bc7c8008267b0007bc7d0008267c0007bc7d8009568a01e8267c8007bc7e00064b77b6a58015020ac04ca8d3a072801023a083001029569d818959b00057bb7c0003a073801027bb8b8003a0a4001027bb7b00064973308209569801e7b7aa805826758013300ae049511a07b10587b15507b16489515608411e0829a7b1a18829a087b1a10829a107b1a088299187b196486330008283991826750826840d48707826858826948d49808d48707520740019567e0193308405020b004fd8b9567d818957c000182ca2082cb1882c91082c8085022b204535b51070628abc39569d8184929f8004929f0004929e800140700000000a079c3089568c0197b970001826758015020b404eb8c5022b604045a5207062873c3826758018377049569d8184929e0004929d8004929c800209568a0194929d0005020b804b98c956900018297409577dc5022ba04b6595207062837c3826758018377249569d8184929c0004929b8004929a8001c956880194929b0005020bc047d8c1407bcffffff00000000956900015022be04765952070628f7c2826758018377443a083800023a097801023a0a800102956bd8187bb8a0007bb998007bba900014090000000069657720956860197bb988005020c004258c330864826758015020c204f78f83783307013309640a0d9568d83828079568d8380149084918f84918f04918e8099567601e9568c0385020c404db8c9567d81895790005829888007b685801829898007b685001829890007b6848018297a0007b6740019567d838491720491718491710491708956700408377e0f80a10956ad83882a72082a81082a90882aa18826b4001d3b707826b4801d3b808d4870782685001d3a808826a5801d3a909d49808d487077b6738019567401e3308405020c604278a3302c8049568d818019589000582978000956800017b87488297787b87408297707b87508297687b8758828738520778089568d81882675801958a00047ba7a800826750017ba7b000826740017ba7b8009567801d826948017ba9c0005020ca043029956b000182b94082b758d4970782b85082ba48d4a808d48707987720d49808978820d487075107062867c19567d8188268b800957a00047ba888008268b0007ba890008268c0007ba898009568601d8269c8007ba9a000826758015020cc049d8a826790003300ce040a053302d00428c05e5022d004bd5e5207062814c15022d204955c8377209569d81849298004959c00047bc8787bcb709568401d7bca687b6738015020d404548a826790003300d6040a01956900018297409577c05022d804475752070628c8c05022da04495c8377409569d81849296004959c00047bc8587bcb509568201d7bca487b6730015020dc04088a14070000000001000000956900017b97401407a0ffffff000000005022de04f4565207062875c082675801837a609567d818826840957b00047bb8288268487bb8308268507bb8389568001d8269587bb9407b6a200164a75020e004aa89956900018297409577805022e204a7565207062828c082675801837980009567d8184927200449271804492710049568e01c492708047b69100164975020e40468898267c8009569d8187b9700048267c000959a00037ba7f8008267b0007ba7f0009568c01c8267b8007ba7e80033075020e60434893302e8049568d818014928e0034928d8034928c8030b64893307209568a01c4929d0035020ea040b899517e08477e07b671801647182678800817756173f0c82688800480840019517e08477e07b675001647183793308408267780a09826a500182a71882a81082a90882aa6f7b7b6b40016f887b6848016f997b6928016fa77b675001826a18017ba7187ba9107ba8087bab9567801c826858015020ec045987956ad81895ab000382b7c00082b8b80082b9b00082baa800956bd8387bb7407bb8387bb9307bba2895680039826718015020ee04c7899567601c826838015020f00415879567d818827888037b685801827890037b683801807898037b6818019517e08472e064218267400195770188780182694801c8890cd4c709889901826a2801c8a909d8a90a826b5001c8ba0a64287b620801642b7bba187bb9107bbc087bb79567401c5020f204d8889568d81880877c039777208288800382691801d497079569d838826a38017b9a50826a58017b9a487b98607b975895682039826708015020f40414899567201c826830015020f60462869567d818827848037b685801827850037b683801807858037b6830019517e0847ce064c182684001958702d88708826a48015022f804905f82682801c88a0ad88a08826b5001c88b0b64c87b6c18017bcb187bca107bc9087bc79567001c5020fa042a889568d81880873c039777208288400382693001d497079569d838826a38017b9a70826a58017b9a687b9880007b977895684039826718015020fc0465889567e01b826820015020fe04b3859567d818827208038273100382741803827a200382674001957b03d87b0c82684801c8c807d88708dacc0882692801c89808d8980c82695001c89c0c9569d8387b9ca0007b9898007b9790007b9b88007b9ac0007b94b8007b93b0007b92a800956760399568803950200005e9879567c01b82681001502002053785956cd81882c7f80282c8000382c9f00282cae802d49808d4a707d487078e7282684001958704d8870882694801c8890ad89a0bda880b82682801c88b0bd88b0882695001c89808492cc002492cb802492cb00295c900027b98e0007b9bd8007b9ad0007b97c8009567a01b9568801b7bc2a80250200405c94882679000330006050a8269a80033020805289f588269a8005022080598587b6750019888207b6848018267900033000a050a058269a80033020c0528fb588269a80050220c05f458956bd818826a480195bc00027bca78826a50017bca70826a58017bca68826ac8007bca60826ac0007bca58826ab0007bca50826ab8007bca48492b80027bc898007bc990007bc788009567601b9568401b9569201b492ba00250200e05c04e9567001b330840502010050a849567d818957900028298407b6848018298387b6840018298307b6850018297287b67580182679000330012050a0501956a000182a74882a850d4870782a94082a858d49808d47808988820d49707977720d48707510706287ebb8269a80050221405c4578399d8f8c8690949292002959b00027bb8187bb7109568e01a7bba088267580150201605ba8482679000330018050a33021a0528de5850221a05db585207062832bb8269a80050221c05395882675801837720956bd818492b000295bc00017bc8f8007bc9f0009568c01a7bcae80050201e056b84956900018297409577c050222005685152070628e9ba826758018377409569d818826840959b00017bb8c8008268487bb8d0008268507bb8d8009568a01a826a587bbae0005020220520841407a0ffffff0000000095690001502224051951520706289aba826758018377609569d8184929c0014929b8014929b0019568801a4929a80150202605e1833a075801028268c800956bd81895bc00017bc880008268c0007bc8787bc7a0003a076001023a086801023a09700102826ab0007bca707bc798007bc890007bc98800330880009569601a956a401a8267b8007bc7688267580133002805951160ff7b1098007b1590007b1688009515a0008411e082ab7b1b3882ab087b1b3082ab107b1b2882aa187b1a20829a7b1a18829a087b1a10829a107b1a088299187b19648633000e2814879567201a33084050202a05f181956ad81895ac000182c76082c85882c95082cb4850222c052753510706289fb964ba9567d8188268b800957c00017bc8288268b0007bc8308268c0007bc8389568001a8269c8007bc94064b77b6a580150202e05d5823308208267580150203005a786837833092033070a0d28a201956b000182b75882ba40d4a70782b85082b948d49808d48707987720d4a808978820d487075107062825b99569d818492958054929500549294805140700000000a079c3089568201e7b97600582675801502032056582502234057e4f52070628edb8826758018377049569d818492940054929380549292805209568001e49293005502036053382956900018297409577dc50223805304f52070628b1b8826758018377249569d818492920054929180549290805249568e01d4929100550203a05f78114070000000001000000956900017b97401407bcffffff0000000050223c05e34e5207062864b8826758018377443a08380002956bd8187bb800053a084000023a094801023a0a50010295bc00047bc8f8007bc9f0009568c01d7bcae80050203e0593819569000182974095779c50224005904e5207062811b8826758018377649569d8184929d8044929d004140800000000656369727b98e0049568a01d4929c804502042054e813308840082675801502044051f858378330701330984000a0d0164977b68580150204605078583788169580133070a0d013308200202838833070133090a0d28390d3308200202838833070133090a0d28280d3308200202838833070133090a0d28170d3308200202838833070133090a0d28060d4926b0064926a8064926a00633024805140700000000717b484e019568a0067b67b806330750204a05ae8049269806492690064926800611330704956880064926880650204c05908039080c020256183f1120030c0202403308200202280833082002020183883307013309240a0d013308200202838833070133090a0d28850c3308200202838833070133090a0d28740c3308200202838833070133090a0d28630c3308200202838833070133090a0d28520c9567d8104927180749271007492708076479140700000000642bc6899568e0177b972007330750204e05f97fff9567d810492700074927f8064927f00664793307049568c0174929e80650205005d57fff39080c020256183f1220030c0202403308200202284cff33082002022844ff3308200202838833070133090a0d28d10b3308200202838833070133090a0d28c00b3308200202838833070133090a0d28af0b3308200202838833070133090a0d289e0b3308200202838833070133090a0d288d0b9567d8204927f8024927f0024927e802647914070000000018ba085b9568c0237b970003330750205205347fff9567d8204927e0024927d8024927d00264793307049568a0234929c80250205405107fff39080c020256183f1220030c02024033082002022887fe3308200202287ffe3308200202838833070133090a0d280c0b95670040837740fa3308040a03956cd83882c7680182c8700182c9780182ca8001492ca001492c9801492c9001492c88010995cb00017bbac0007bb9b8007bb8b0007bb7a8009567603a9568803a50205605f57fff33082002028388330733090a0d28a70a3308200202838833070133090a0d28960a3308200202838833070133090a0d28850a3308200202838833070133090a0d28740a3308200202838833070133090a0d28630a330258059569d8280182675801959a00067ba708826750017ba710826748017ba7189568e02e826740017ba720330750205a05017eff9567d828492700064927f8054927f005647a3307209568c02e492ae8050b50205c05dc7dff9517e08477e07b672801647182671001817756173f128268100148084033025e0528aa5150225e05a751330060050a09826a20013302620528784e826a200150226205714e826828017b8b7b8c087b89107b87189567a02e502064056f7eff956ad82895ab000582b7c80082b8e00082b9d80082bad000847700ff956bd83895bc00057bc8e0007bc9d8007bcad0007bc7c8009568a03e8267280150206605a47eff826740019569d828959a00057ba7c000826748017ba7b800826750017ba7b0009568802e826758017ba7a800330750206805057dff33026a059568d828014928a00549289805492888050b64893307209568602e4929900550206c05db7cff82671001817756173f0c82671001480740019517e08477e07b672801647183793308408267e80033006e050a093302700528434c50227005404c958a00057babe8007bacf0007ba9f8007b8700069567c03e8268300150207205e87dff330274059569d8280182674001959a00057ba78000826748017ba778826750017ba7709568402e826758017ba768330750207605477cff9567d828492760054927580549275005647a3307209568202e492a48050b50207805227cff50227a05eb54ac780b8267100148074001140700000000ffffffff7b67280150227c05f24f33007e050a09826a20013302800528f149826a200150228005ea49826830017b8a7b89087b8b107b87188267e000330082050a053302840528604c502284055d4c837700fec8670782683001502086059c7cff9568d82880873c058288400597772082690801d497079569d838959a00067ba820826818017ba810826820017ba8087ba7189568e03e8267300150208805d37cff826740019569d828959a00057ba720826748017ba718826750017ba7109568e02d826758017ba708330750208a05387bff33028c059568d82801492800054928f8044928e8040b64893307209568c02d4929f00450208e050e7bff50229005d753ac7811826710014807403302920528e94e50229205e64e330094050a09826a200133029605286e48826a2001502296056748826830017b8b7b8c087b89107b87188267e000330098050a33029a0528554b50229a05524b8377a0fdc867078268300150209c05917bff9568d8288287e0048288d8048477ff956b000182b928d2980882b908d49808956ad83882b91895ac00067bc93082b9207bc9287bc7407bc8389568003f82b73050209e05c27bff9567d838492760064927580649275006647849284806089567802d9568203f5020a005247bff9567d828957b000482bac00082b9b80082b8b00082b7a800d4a80bd4970cd4cb0b510bb303d4870b88bb01d8b90cc9ca0ac9b909887b01c9b8089577ff956bd838492b8006492b7806492b7006492b68060895bc00067bc788007bc890007bc998007bcaa0009567403f9568603f5020a205277bff8267e0003300a4050a826938013302a605280e4d826938015022a605074d7b6830019877206f98978920d497077b6728019888207b6820018267e0003300a8050a0501956c000182c9385022aa05ec4c956ad82882cb407bab600482cb487bab580482cb507bab500482cb587bab480482cb207bab780482cb287bab700482cb3095ac00047bcb68492a80047bc998007bc790007bc888009567602d9568402d9569202d492aa0045020ac057d4233078268e80033090a0d282e053308200202838833070133090a0d281d053308200202838833070133090a0d280c053308200202838833070133090a0d28fb043308200202838833070133090a0d28ea043308200202838833070133090a0d28d9043308200202838833070133090a0d28c8043308200202838833070133090a0d28b7043308200202838833070133090a0d28a6043308200202838833070133090a0d2895043308200202838833070133090a0d2884043308200202838833070133090a0d2873045247de4f8db864029567d8384927e0014927d8014927d0014927c801956700408377a0fa3300ae050a10330700403302b005281352330700405022b0050c5282b7d80082b8e00082b9d00082bac800d49808d4a707d4870751076e023308200202838833070133090a0d2806043308200202838833070133090a0d28f5033308200202838833070133090a0d28e4033308200202838833070133090a0d28d3039567d818491718491710491708647914070000000092aea0649568e0187b972033075020b2057e77ff9567d81849074917f84917f064793307049568c0184919e85020b4055f77ff39080c020256183f1220030c020240330820020228d6f6330820020228cef69567d81849277807492770074927680764791407000000006eacc673956840207b97800733075020b6051377ff9567d818492760074927580749275007647933070495682020492948075020b805ef76ff39080c020256183f1220030c02024033082002022866f63308200202285ef69567d81849175849175049174864793302ba05140700000000717b484e01956820197b976033075020bc05a276ff3302be059568d81801491840491838491828416489330704956800194919305020c0057c76ff82678800817756173f0c82688800480840013307013309248268780a0d019567d82849273804492730044927280464793302c205140700000000717b484e019568002d7b97400433075020c4052c76ff3302c6059568d828014928200449281804492808041164893307049568e02c492910045020c8050276ff82671001817756173f0c82681001480840013307013309248268e8000a0d015247a7c9ff0181009567d8304927800149277801492770014927680195670030837740023300ca050a103302cc052820505022cc051d5082b77882b8800082b97082ba68d49808d4a707d48707510788003308200202838833070133090a0d28ad0182675801817733088300ac7884003308200202838833070133090a0d288e015247b3a75e0916019567d8304927600249275802492750024927480295670030837720033300ce050a103307d8303302d005284c4e3307d8305022d005454e51074c013308200202838833070133090a0d283a015022d205424fac7845013308200202838833070133090a0d281f01956760273300d40533022e0628ba4e9568d820958900068297a0007b672001829798007b672801829790007b673001829788007b673801956740273300d6053302380628834e9568d82095890006829780007b6700018297787b6708018297707b6710018297687b671801956700408377c0fa3308643300d8050a03019567d838827800028279f801827af0015022da05ab4c5208e1003308200202838833070133090a0d28779569d8305247dd72b82357492900054929f8044929f0044929e804956700308377c0050a1001956ad83095ab000482b7f80082a8000582b9f00082bae800d49808d4a707d48707510750023308200202838833070133090a0d281c3308200202838833070133090a0d280c838833070133090a0d01826758018177330843ac78e802330820020228e495670030837760023308043300dc050a03019569d830959b000182b8a00082b7980082ba880082b99000978b2098bb20d47a0ad49b0bd4ab0b510b0907330820020228a09567d8388278e80182675801807c9587236482d88708826a4001c88a09d8a90ada880a82684801c88a0ad88a08826b5001c8b808d4a8087b6c5801d8c70794979487510770077b62f800832804956700408377e0fa0a039567d83882720802827410028270180264788267f800957924d8790b82674001c8b70cd87c07dabb07828b200282684801c88707d8870382685001c88303956ad820492a0006492af805492af005826858017ba8e80595a800067b8b207ba018067ba410067ba208067b8c307b89287b873864ab95672027956800279569e026956ac0267bb340065020de0556139567d820957900068298487b6858018298507b6850018298587b6848018298607b68400195670040837700fb3308440a03956ad83895ab000282b72882b83082b93882ba40956bd820826c40017bbc8005826c48017bbc7805826c50017bbc7005826c58017bbc680595bc00057bcaa0007bc998007bc890007bc78800826700017bc7c000826708017bc7b800826710017bc7b000826718017bc7a800826720017bc7e000826728017bc7d800826730017bc7d00064bc9567a0269568802695696026956a4026826b38017bcbc8055020e005652733082002028388330733090a0d28e1fd8267580180779569ff079599d9004929c0074929b8077b97a8079567a010956880104929b0075020e2054f0e9568ff079588d9008287c8077b6758018287d0077b6750018287d8077b6748018280e0078284e8079567d8108273827208827b10827a18827920828cf0078287f8077b896007958900077b9a587b9b507b8248077b8380077b97787b9c707b8468077b80a007956c000182c7487b97980082c7507b979000648a95676010956840109569201082cb587bab88075020e405081c33082002028388330733090a0d2812fd1407ffffffff000000007b672001956760063300e60533022e06289f4a826770067b67e000826768067b67e800826760067b67f00095670030837740033308240a039567d830957c000282cb800082ca7882c87082c9687b6b28017b6b38067b6a30017b6a30067b6838017b68280695674006956820067b6940017b6920065020e805d633956800068287507b67f8008287487b6758018287407b67000133072002037b67500183777b6748010a0501956a000182a9508097108298829908d48707d4970782a8208269f800d298087ba81882a8588488ff7ba81082a88488ff7ba8085107cb01826748013300ea050a0501956c000182c9505022ec05a53d8269f800979920989920d3980882c9d39707d4870782c858d3a808d48707510791014926180682670801956900067b97826710017b970895680006826718017b971033075020ee059c6fff4926f8054926f0054926e005053307209568e0054926e8055020f0057d6fff33070c02027b67580139070c020256173f0c82685801480840019517e08479e07b69f80064913307200202837783993308407b6700013300f2050a09826af8003302f40528c549826af8005022f405be497b67d8006f877b67d0006f977b67c8006fa77b67c0009517e08477e07b67f8006471826748013300f6050a05826950013302f80528d53c826950015022f805ce3c4926d8057b68d0057b67c8059568c0057b6ac00533075020fa05ce6eff8267c000956a00057ba7b8008267c8007ba7b0008267d0007ba7a8003307209568a0058269d8007ba9a0005020fc059c6eff82675801817756173f0c82675801480740019517e08477e07b67d80064718379330840826700013300fe050a09826ad8003302000628733d826ad800502200066c3d8268f8007b8a187b89107b8b087b879567800550200206326fff7c67800551077702826720018268e000d2780c8268e800848bff8268f0008487ff826840017b68c0044926f80449261805826838017b68c8047b6750017b67e004826708017b6700053a078801023a089001023a099801023a0aa001027b6738057b683005956800057b89287b8a20826730017b67d0047b6b48017b6be804826710017b8708826728017b67d8047b6c20017b6cf00495692005956a0005956be004956cc004826718017b871033073308502004066470ff826728017b67b804826730017b67b004826738017b67a8049568a004826740017b67a0043307502006065b6dff492698044926900449268004043307209568800449268804502008063c6dff9517e08477e07b675801647139080c020256183f0b20030c020240019517e08479e07b6938016491330720020283777b674001839933084033000a060a09826a380133020c0628023c826a380150220c06fb3b826858017b8a187b89107b8b087b879567600450200e06c16dff806774049777208268780482692001d497079569d830826a4801959b00027bba9000826a50017bba88007bb8a0007bb79800956860338267580150201006f86dff33078268400133090a0d28adf8140700000000cd58ac80d38707d49707d47a0b330701510b48140b00000000a7c9ff01d38b0bd49b0bd4ab0b510b32140b000000009f135e5bd38b0bd49b0bd4ab0b510b1c140b0000000006490649d3b808d49808d4a80851080633070149267801492670017b67600133078000956860014926680150201206046cff39080c020256289f001f20030c0202a00033072002028378800033092033070a0d28c5ea33072002028378800033092033070a0d28b2ea330820020228e7f74926700549266805492660051407000000001ff5fba9956860057b6778053307502014069e6bff82674801330016060a0582695001330218062869398269500150221806623949265805956900057b98507b9748330704956840057b9a4050201a06606bff82675801817756173f0c82685801480840013307013309248268000133001c060a0d01951110ff7b10e8007b15e0007b16d8009515f0008411f0828c10828b18828a0882887b1a287b1b18d4ab0bd4c80ad4ba0a98aa207b1c20d4cb0b97bb20d4ba0a520af1017b17088297187b17688296108297087b176082977b17589517b0007b181050201e069a69ff821758d46709821868821a60d4a808d489099899207b1650d46808978820d498085208a7018219c800821ac000821bb8008218b0007b18307b1890007b1b387b1b98007b1a407b1aa000951890007b19487b19a800647650202006766aff821768821850d478081407e0ffffff00000000d87609821a6094a9948951094d01821820821918d49808821910d87907821a2894a7948751073301646c821630821a40d4a607821848821b38d4b808d48707987720d4a808978820d4870752070c0183c7208398207b1828646850202206e16dff7b1720821728646850202406d26dff64788217206469502026062668ff821758c86707d86708821960821b38502228066441821850821a40c8a808d8a80a821c68821648c86c0cc8ca0ac88b0bd88b08c8a808d4b808140ae0ffffff00000000d8a70a949a948a510a8f00837720492188004921800049117895187049117050202a067c69ff82163095661f1407e0ffffff01000000d26707821858c88707d88708821a6050222c068241821850c88a0ad88a08821b68c8b808957b20d87b07c8790cd89c09da7709c8a909d8a907c887078218087b8b7b8c087b89107b8718955110ff8210e8008215e0008216d8009511f000320000330804330030060a033302320628743f50223206713f510a0b50223406e6403200330820020283883307013309330036060a0d3302380628a74250223806a44233082433003a060a0333023c0628343f50223c06313f510a0b50223e06a6403200330820020283883307013309330040060a0d01951150fd951a00027ba0a8007ba5a0007ba698009515b0028411f0828a18828b10828c0882827b1ab8007b1ca800d4ac08d4b20ad48a0a98aa207b1bb000d4b808978820d4a8087b170852080c058297187b1788008296108297087b17800082977b176895190002492988004929800049197895187002491970207b12c0006427502042060f68ff821868d4680782198800821a8000d4a909d497079877207b1660d46909979920d497075207ab048217c0009579207b19a000d879078219a800c8790a7b1ac800d89a06da77068217b000c87606d876078219b800c897077b17980095175002502044066f66ff8217a000d467098218c800821a9800d4a808d48909989920d46808978820d498085208470495160002826c68826860826958826a50140bffffffff000000007b1b507b1a107b6a307b19187b69387b18207b6840951830027b1c287b6c48502046064467ff33043306330a33008218c0009587407b17c800d887078219a800c879087b18c000d89808da77088217b000c878087b18a000d878078218b800c887077b17a800140700000000010000007b17781407e0ffffff000000007b1758821360821b6801821710d87407821918d39608d89609da8709821c20d8ca0264a7821a28d3a008d8a00ada820a7b1748d3c707d48707da790a510a38037b10307b16387b1440821788007b1360d47307821858d88b08821980009498947851084b037b1b6895b820951710027b1870502048063a65ff951a000282a92882a62082a71882a8107b17b8007b199800d49707d46809d47909989920d46707977720d49707520706039517f0017b18b00050204a06fa64ff8219a0008217c800d4970a8218a800821bc000d4b808d48a0a98aa20d49808978820d4a8085208ce02821b0802821800028219f801821af0017b1ad0017b19d8017b18e0019518d0017b1be8017b17c80050204c06dc65ff821a9800d46a0a8216588218b000d868078219b80094977b1a980094a751077e028388209517b00150204e067364ff8217a8008218a000d47809821bc800d86b078218c00094877b199000949751074e028217c0018218b8018219b001821a50d27a0a8488ff8499ff83b7204921a8017b1990017b189801951890017b1aa001502050065565ff8217789576c050225206283c510708028388409517700150205406fd63ff821bc800d86b078218c00094878218900094875107e301821780018218780182197001821a50d27a0a8488ff8499ff83b740492168017b1950017b185801951850017b1a600150205606ea64ff8217789576a050225806bd3b51079d018388609517300150205a069263ff821cc800d86c078218c0009487821890009487510778018219480182184001821a3801821b300183c7607b1b10017b1a18017b182001951810017b19280150205c068764ff82177895768050225e065a3b51073a01838880009517f000502060062e63ff8219c800d869078218c000948782189000948751071401821768821870d8780782188000c8780a7b1ab800d88a06da7706821b60c86b0c7b1cb00082170801821600018218f000821af800d8bc0b821c8800c8bc0c7b1c8800d46808d4a707d487078e78839780004921e8004921e0007b18d0009518d0004921d800649650206206e363ff9567a000d86708821ac00050226406fd3b8218a000c88a0ad88a08821ba800c88b0b7b1ba800821440954401884801821638c88606d46408888801821b48c8b808d8b80b821030c8b0007b17c8007b19c0007b1aa000821b708217b8007b1780008213b000648a2899fc8217088218c8007b788218c0007b78088218a0007b78108218a8007b7818955150fd951700028270a8008275a000827698009511b002320000951140ff7b10b8007b15b0007b16a8009515c0008411e08289828218828b08828810959cfcd89c06c86b099599ffd3b90ad8b90bdaa60b958affc8ab0bd8ab0a888801c98208c8a8088f8a8eb6db8a06d4b8088e9a88cb6085bb01db9a0bdb860b510be80064768317403308040a0301821850821958140700000000010000007b1718d38707d497077b18309888208888017b1938949893785108b7008217487b17208217407b17288317603308240a0301821870821978821718d38707d497077b18109888208888017b191894989378510886008217687b178217607b1708831780003308440a03821780008218880082199000821a9800821b307b6b10821b207b6b08821b287b6b821b107b6b30821b7b6b28821b087b6b207b6a587b69507b68487b67408217387b67188217187b6738955140ff8210b8008215b0008216a8009511c00032003308200202280f3308200202280833082002020183883307013309330066060a0d019511907b10687b15609515708411f0827a1882791082738277088eab8e9cdbab0c8e72883b60ff85bb01db720bd4a908db8c0b520b439538a000d8380bc8b70cd87c07dabb07c89707d89709c8a9097b18407b1c487b1750330740c871087b1958502068066d61ff955190821068821560951170320050226a06803050206c065261ff50226e06cd38502070064561ff39080c020256183f0b20030c0202400133082002028388330701330924330072060a0d01951170ff7b1088007b1580007b1678951590008411f064728289827408828c088273959a1fd89a00c80c0984aae07b1308c8a303d8a30bc8490ac8ba0ad39a06d89a07da6b07822b18d8c90c828610822210828818da000cc86c0cd86c06c82c09c89707d8c90cd89709c8b808c86808c8c808c8980c8ec88e79dbc809d4c7088ea6db8906520658821808d88308d34a09d84a06da9806d82708d3bc09d8bc0bda980bd32708d49808da860b520b317b13507b1a587b17603307409518507b1c68502074065960ff955170ff821088008215800082167895119000320049114049113849113033027606140700000000717b484e019518307b17483307502078061d60ff4911284911204911104133070495181049111850207a060360ff39080c020256183f0b20030c020240013308200202838833070133092433007c060a0d01828a18828b108282088eac8eb9dbac09d4ba0a8e2bdba90b520b30828895891fd88908c828088488018499e0959a20d89a09c8980bd88b08da99084917187b7a7b7b087b781032009511b07b10487b15409515508411f050227e06a92e502080067b5fff50228206f636502084066e5fff39080c020256183f0b20030c0202400133082002028388330701330924330086060a0d01951150fe7b10a8017b15a0017b1698019515b0018411f082ab187b1b2082ab107b1b2882ab087b1b1082aa7b1a18828a187b1a30828a107b1a38828a087b1a7082887b1868829a829808829b108299187b17087b1998007b1968017b1b90007b1b60017b1888007b18580195177001951850017b1a607b1a500150208806f1fe821770017b1758821778017b1750821780017b1748821788017b17409517300133084050208a06665dff821848017b18a800821940017b19a0008216380182173001821a407b1a0801647a7b1780008217487b1700018217507b17f8008217587b17f0007b1828017b1920017b161801951710019518f0007b1a100150208c062dfd821780007b16788219a800d46909821aa00050228e06ae385208cb018216607b16d000821888007b18d800821890007b18e0009518d000821998007b19e80050209006025eff821868c86808d8680982177082148800c84707c8970ad34a0bd84a07dab907821b10d3ba09d8ab0a821b18d88b0882163882139000c8630bdb9a08d83b0982103082129800c8020ac8a909c8b707d8b70ac8a909821b20d3b90ad89b09821c28d87c0bdaab09d3c707d4a707db7908642b643a82126082136852082501d46307821870d40808d48707987720d46808978820d4870752070801d4a207d4b408d48707987720d4a808978820d48707821978821aa8005207e8008217a000d4a7071408e0ffffff00000000821b80007b1870d88b08949894785108c50083337b136883b7206428642650209206f260ff837783688219680a020182128000c86207d8270882198800821b78c8b909c88909d3b90ad8b90bdaa80b82189000821aa000c8a808d8a80a821c98008216a800c86c0cc8ca0ac88b0bd88b08c8a808d4b808821a70d8a70a949a948a510a5264268377204921c8004921c0004921b8009518b0004921b00050209406945cff8217088218a8007b78188218a0007b78108218787b78087b76955150fe8210a8018215a001821698019511b001320000330820020283883307013309330096060a0d019511a07b10587b15507b16489515608411f0828910828c08828b82881897923f98ca01d42a02978a3f989901d49a0a97cc3f98b901d49c0c98830184bb019ab888b60184c97fd2a804d2280adbbc09d2380b88982094a8d4b40c94c8ab86167b797b7a087b74107b7b18502298065135320050229a06002b50209c06d25bff491118491110490122330704641849110850209e06ba5bff39080c020256183f0b20030c02024001330820020283883307013309243300a0060a0d01828b18828a108283088eb28eacdbb20cd4ba028e39db2c09520948828898a93b97bb05d49b02983b3b97aa05d4ba0a988b3b973305d4b30b978805958c20d88c08c88b09d8b90bda880bc8ab0bd8ab08c828087b7c7b79087b7b107b781832009511b07b10487b15409515508411f05022a206482a5020a4061a5bff5022a60695325020a8060d5bff39080c020256183f0b20030c02024001330820020283883307013309243300aa060a0d01951120fd951900027b90d8007b95d0007b96c8009515e0028411f08289828a08828b108288187b177b188000951c00027bc898007b1ba8007bcb90007b1ab0007bca88009517a002951880027b19b8007bc980005020ac06fffe951800028287a0007b17a0008287a8007b1798008287b0007b1790008287b8007b178800951760023308405020ae062359ff951b000282b77882b67082b8687b186882b9607b1908821a88007bba38647a7b1710821790007bb730821798007bb7288217a0007bb7207bba587bb6507bb84895174002951820027bb9405020b006f1f8821708821910821868d48909d46708d498089888207b1660d46909979920d4980852085b038218b800951900027b988218b0007b98088218a8007b981095180002821680007b96185020b206bd59ff7b16d8018217a8007b17d0018217b0007b17c8019517e0019518c0018219b8007b19c0015020b40603fe33033304330c33068217e0018212f8018219e801821af001957be07b1b58d87b07c8790b95bbffd39b087b1b50d89b09da870995a7ffc879097b1948d8790788a901c99208c887077b17408218089587207b1730d88707821068c870087b1828d80808da7708821260c828087b1820d82807821810c887077b1718140700000000010000007b1798001407e0ffffff000000007b173801821758d87307821950d39408d89409da8709821748d87c0b821a40d3a608d8a60ada8b0ad3c707d48707da790a510a12027b1480007b1388007b1c90007b16789517a0013308405020b6067457ff8217b8017b17a8008216b0018219a8017b19b0008218a0017b18b8007b1798017b1690017b198801951780017b1880015020b806a9f68217a8008218b000d487078218b800d46808d47808988820d46707977720d487075207c70149217801492170014921680195186001492160018217b8005020ba063458ff7b16708219a800d469098217388218b800d878078218b00094877b19a0009497510784018216b80083672049215801492150014921480195184001492140015020bc06ee57ff821798009577c05022be06862f510751018216b80083674049213801492130014921280195182001492120015020c006bb57ff821798009577a05022c206532f51071e018216b80083676049211801492110014921080195180001492100015020c4068857ff821798009577805022c606202f5107eb008217b800837780004921f8004921f0004921e8009518e0004921e0005020c8065457ff82183082178800c88707d88708821b28821980005022ca06ce2e821a2082189000c8a808d8a80a821678821c18c86c0cc8ca0a5022cc069c2752088b008218b8007b18c0008218b0007b18c8008218707b18d0009518c0008219a8007b19d8005020ce06ed56ff82188800958720d88708821a80005022d006042f82189000c88a0ad88a08c886066473649464ac82126082106828c4fd82178218087b787b70087b72108218107b7818955120fd951700028270d8008275d0008276c8009511e002320000951140ff7b10b8007b15b0007b16a8009515c0008411f0828b10828a18828c0882887b1a287b1c20d4ac0cd4b80ad4ca0a98aa207b1b30d4cb0b97bb20d4ba0a7b1738520af2008297187b17108296108297087b170882977b17951780007b18185020d206ed54ff821210821c088213821788008218980082198000821a9000d3c70bd87c07d89309dbb709d8a607d3280bd88208dab708d36a0ad4ba0adaa9085108950098673b972805d4780298c83b976605d4680898393b97ca05d4a909973a05821718c87a0ad87a0b821c20c8c909c8b909d3c907d8c906da7b06821c30c8c808c88606d8860bd8c808821c28c82c07c88707c8b70795a820d8a80ac8a90bd89b09daaa09c86909d8690ac8a707821a387ba87bab087ba9107ba718955140ff8210b8008215b0008216a8009511c0003200004911704911684911603302d406140700000000717b484e019518607b177833075020d6063255ff491158491150491140323307049518404911485020d8061855ff39080c020256183f0b20030c02024001330820020283883307013309243300da060a0d01951100fa951a00057ba0f8007ba5f0007ba6e800951500068411e06416808b10828a828c087b6a90007b6b8800d4ba087b6c8000d4c80851082c07829c18829b10829a0882988279107b69408279087b693082777b67381407ffffffff000000007b67507b68787b6820057b6a707b6a28057b6b687b6b3005956820057b6c607b6c380533075020dc066754ff4926180549261005492600050233072095680005492608055020de064854ff33090c020239070c020256173f0b20030c020240017b6998009517e08479e07b69b80064913307200202837783993308407b67a0003300e0060a09826ab8003302e20628292b826ab8005022e206222b7bba587bb9507bb8487bb7409567e004956840055020e406cf54ff95670004827af0008278e8008279e0008267507b6a18d2a7077b67a8007b68288488ff7b68b0007b69208497ff7b67b80033072002037b675883777b67480a05018269588097108298829908d48707d4970751079c028267483300e6060a058269583302e806282f218269585022e8062921826918979920989920d39808826920d39707d48707826828d3a808d4870751075e024926d8048267b8007b67c0048267b0007b67c8049568c0048267a8007b67d00433075020ea062053ff4926b8044926b0044926a004053307209568a0044926a8045020ec060153ff82689800818756173f08480840019517e08477e07b6728647183793308408267a0003300ee060a09826a283302f006285e2d826a285022f006582d7b67206f877b67186f977b67106fa77b67089517e08477e07b672864718267483300f2060a058269583302f4062876208269585022f4067020492698047b6890047b678804956880047b6a800433075020f6067052ff826708956a00047ba7788267107ba7708267187ba768330720956860048269207ba9605020f8064652ff82689800818756173f08480840019517e08477e07b6720647183793308408267a0003300fa060a09826a203302fc06282321826a205022fc061d218268287b8a187b89107b8b087b87956740045020fe06e452ff7c6740045207ff008267787b6720048267707b6728048267687b673004956820048267607b673804330750200007c151ff49261804492610044926000404330720956800044926080450200207a251ff8267480a050182695882970882988199106f77987a206f88978b20d4ba0a7b6a289777206f99826b980081ba989920d497077b67209888207b6818561a3f08480b40019517e08477e07b6710647183793308408267a000330004070a09826a1033020607286228826a10502206075c287bba787bb9707bb8687bb7609567e00395686005502008070952ff8067f0038268e0038269e803826a18d3a707826a20d3a808d48707826828d39808d487075207a5048267b8008268a800d487078268b000d487075107e1008267787b6720038267707b6728038267687b673003956720038268607b68380350200a07ba1c492618038267a800956900037b97108267b0007b9708956800038267b8007b97330750200c078a50ff4926f8024926f0024926e002033307209568e0024926e80250200e076b50ff9517e08477e07b6758647182699800819756173f0e48094033021007287c25502210077925330012070a0933021407287a1f50221407771f9567c002502016071a51ff956b000250221807c625956b00057bb880007bb788007bb990007bba98009568800582675850201a076651ff4926b802826790007b67a002826780007b67a8029568a002826788007b67b002330750201c07d34fff49269802492690024926800203330720956880024926880250201e07b44fff9517e08477e07b6758647182689800818756173f0e4808403302200728c52450222007c224330022070a093302240728c31e50222407c01e95676002502026076350ff826760028268780282696802826a700250222807c226956a00057ba7a0007ba9a8007babb0007ba8b8009568a00582675850202a07a350ff8267607b6758028267687b6750028267707b674802956840028267787b674002330750202c07104fff49263802492630024926200202330720956820024926280250202e07f14eff826898009517e08477e07b67586471818756173f0e4808403302300728022450223007ff23330032070a093302340728001e50223407fd1d9567000250203607a04fff806714029777208268180282698800d4970782698000956a00057ba9c800826990007ba9c0007ba8d8007ba7d0009568c00582675850203807dc4fff8267607b6798018267687b6790018267707b6788018267787b6780014926b801826788007b67b001826780007b67a801826790007b67a0014926d8018267a8007b67d0018267b0007b67c8013a07c801023a08d001023a09d80102826ab8007b6ac0017b67f8017b68f0017b69e8013a07e001029569e001956ac001956ba001956c80017b67e0013307330850203a07bb50ff8262a8008263b000826730847bff826740826950d2970a8269b800826738847cffd3c907d3a208d48707d3b308d4870752078300955100fa951700058270f8008275f0008276e8009511000632004926f0004926e8004926e00014070000000092aea0649568e0007b67f800330750203c076a4dff4926d8004926d0004926c8003307049568c0004926c00050203e074c4dff39080c020256183f0b20030c02024001330820020283883307013309240a0d014926700149266801492660011407000000007b3d2864956860017b67780133077b6c90007b6b88007b6a800050204007f94cff49265801826780007b675001826788007b67480133070495684001826990007b69400150204207cf4cff8267607b6738018267687b6730018267707b672801330724956820018269787b69200150204407a54cff492618018267a800956a00017ba7108267b0007ba708330744956800018269b8007ba9502046077b4cff82679800817756177f1a82689800480880003307013309648268a0000a0d280f3307013309648268a0000a0d018267b8008268a800d487078268b000d487075107c2004926d0034926c8034926c0031407000000002f807e179568c0037b67d803330750204807114cff82674833004a070a0582695833024c0728de1982695850224c07d8194926b8037b68b0037b67a8033307049568a0037b6aa00350204e07d74bff826760956a00037ba798008267687ba790008267707ba78800330724956880038269787ba9800050205007a94bff82679800817756175f1a826898004808603307013309448268a0000a0d283eff3307013309448268a0000a0d282fff4926700349266803492660031407000000008932277e956860037b677803330750205207534bff826760956a00037ba7588267687ba7508267707ba748330704956840038269787ba94050205407294bff82679800817756173f1a826898004808403307013309248268a0000a0d28befe3307013309248268a0000a0d28affe8289828218828a08828c10959b0188b901c8a909d49b0a88aa01c8ca0ad8ca0cc82c0cd4c902d4ab08d428085108107b7b7b79087b7a107b7c1832009511b07b10487b15409515508411f050225607d01950205807a24aff491118491110490111330704641849110850205a078a4aff39080c020256183f0b20030c020240013308200202838833070133092433005c070a0d01951180fb951b00047bb0787bb5707bb668951580048411e082ab187b1b2082ab107b1b2882ab087b1b3082aa7b1a3882708273088274108277187b17b80082827b1288008286088287107b17a000828818829a829b08829c108299187b19607b19b8037b1c487b1cb0037b1b50951c00037bcba8007b1a587bcaa0007bc8d8007bc7d0007bc6c8007bc2c0008217b8007bc7f8007b14687bc4f0007b13707bc3e8009517e0039518c0039519a0037b10787bc0e00050205e07bdf47b16086f679778208219a0006f99989920d4890a987720821888006f883306200203978920d497079888207b18183d083002037b17103e072802037b1a403e0a20020383677b1798000a060151073e047b16900095178003330840502060070f48ff951a000382a9980082a6900082a8880082a780007b18b0007b19a800d48909d46708d49808988820d46909979920d498085208c005951a0003491a70491a68491a60140900000000027a0b15951860037ba9787b17b80050206207eb48ff82179800330064070a0501821bb8007b1680008219a800d46909140600000000010000001407fcffffff00000000d87b078218b00094877b1998009497510756058219900050226607441c83b704951b0003491b587bb8507bb948951840037bba40502068078248ff821bb8009567dcd87b078218b0009487821898009487510714051408ffffffff00000000821968d289098218708488ff821a7884aaff83b724951b0003491b387bba207bb828951820037bb93050206a072e48ff8218b800140600000000010000001407bcffffff00000000d878078219b00094978219980094975107af04838744821858951a00037ba88218507ba8088218487ba810951800038219607ba91850206c07da47ff8219b80095679cd879078216b000946782189800948751076c04839764951900024929f8004929f0004929e00080009518e0024929e80050206e079c47ff8218b80095878400d88708c88609d8690ada880a82168000c86a0ad86a08821ba800c88b0b951c00027bc988007bc780008217207bc7b8008217287bc7b0008217307bc7a8008217387bc7a0007bca90009517c0029518a002951980027bcb980050207007fedb951900028297c8008298d8008292c000829ad0008219b000d3970bd8970c64948213b800d83209dab90cc96a0bd86a0a8216a800c96808c9a808d8cb0ac9a8087b189800c9cb0b7b1b78c94707c997077b1770c932060a0a01821890008217107b87088217407b878217187a871095190004491918330c491910491908821a78d4a60782189800821b70d4b808d48707987720d4a808978820d48707490952073f0364698217a0009777209877207b1798008216b800646764987b196850207207504aff7b17a000330820646750207407404aff9519000448192020491958ff491950ff491948ff491940ff8218900097882098882014090000000008000000d498069518000497882098882095194004979920d4890a8218a000978820988820821b6897bb20d48b0b97772098772095182004978820d4780c3308ff3309ff64670a0164760a0c015206e20056171f160a0c33068218b800821aa800821b8000281433068218b800821aa800821b8000330720017b17a8007b1720017b184001492128018218b0007b184801492130017b1b50014921380195174001951820017b1a5801502076076fe48e678218a800888820858801db67088e678e69da6709d46606da680951091702951700018218b800502078072144ff8217180182191001821a000182180801977b2098bb20d4a909d48b0bd49b0b520bf201140a00000000027a0b15d3a707d48707d497075207ea01955180fb951700048270788275708276689511800432004921b8006052075b9517a0018218b80050207a07b943ff8218b8018217b0018219a8018216a001d49808d47609d4890951091602989920d48707977720d49707520772018217b800837720646850207c079548ff837883693307010a0d2863010a0c6479951a0002491a58491a50491a4895176002951840027b19707ba94050207e07ace4951800028287607b17a0008287687b1790008287707b1780008287787b177895172002330840502080071e43ff951b000282b7387b17a80082b63082ba287b1ab00082b9207b19b8008218787b18f801821880007b18f001821890007b18e8018218a0007b18e0017bb7187bb6107bba08951700029518e0017bb950208207e9e28217a8008218b000d487078218b800d46808d478089888207b16a000d46707977720d48707520787004921d8014921d0014921c8019518c0018217707b17c0018216b800646750208407b743ff0a0c018218a8008219a000d498081409e0ffffff00000000d89609821ab00094a9948951093c64769877205207348217b80083772083687b18b0006468502086075247ff7a16600483778318600433090a0b01811760048218b000ae875afe00330820020283883307010a0d013308200202838833070133090a0d014921f0004921e8004921e00014070000000092aea0649518e0007b17f8003307502088071443ff4921d800821798007b17d0008217087b17c8003307049518c000821988007b19c00050208a07eb42ff39080c020256183f1120030c0202403308200202280833082002020183883307013309240a0d0149219001492188014921800114070000000092aea064951880017b179801330750208c079d42ff49217801821798007b1770018217087b17680133070495186001821988007b19600150208e077442ff39080c020256183f1120030c020240330820020228913308200202288a8267a0007b67d8028267a8007b67d0028267b0007b67c8029568c0028267b8007b67c0023307502092072a42ff4926b8024926b0024926a002063307209568a0024926a802502094070b42ff33090c020239070c020256173f0b20030c020240017b69b0009517e08479e07b69b80064913307200202837783993308407b67a8000a09826ab80082a71882a81082a90882aa6f7b6f886f996fa77b67a000956a00037ba7387b6988007ba9307b6890007ba8287b6b98007bab2095678002330840502096075540ff826798027b6778826790027b6718826788027b6720826780027b67289567600295682003502098075642ff956b000282b77882b87082b96882ba607b6780007bb7387b68507bb8307b69487bb92895674002956820027b6ab8007bba2050209a07e1e4826728826878826920d48909826a1850229c07951b5208e003956c000282c95882ca5082c84882cb407b6b587bcb7b68687bc8087b6a607bca10956800027b69707bc91850209e07e140ff826ab80084a70152078100826718826878d487071408e0ffffff00000000826b28d88b088269209498947851087f0384a800ff83b720826a48956900017b9a88007b9880008268507b98900095688001826a80007b9a98005020a0078240ff330a330b3302826760826858d48707826870826968d49808d487078e77977805826c1882647828190282679800956900017b97e000826790007b97e800826788007b97f0009568e0018267a0007b97f80033075020a2072840ff9517e08477e07b675064718269b000819756171f08480920019517e08477e07b67b800647183793308208267a8000a093300330c3302826bb80082b7188268289589207b6948d88908826a20c88a097b6940d8a909da880982b81082ba0882b36f776f8b6faa6f338268507b6388007b83187b6a80007b8a107b6b90007b8b08647a7b87826b18c89b0733097b6738d8b707826b7864b4c8b7077b6730017b69b0007b6a9800826758d87907826968d3900a7b60b800d89009daa709826760d87c03826a70d3a20bd8a20adab30a7b6ca800d3c707d4b707da790a510afa009567c0017b62a0005020a4072c40ff8268488267b000c88707d88708826b408269b8005022a607b416826a388268a800c8a808d8a802826c30826aa000c8ac0cc82c0a5022a807810f5208c901956c000182c9d80082c8d00082cac80082cbc0007bcba0007bcaa8007bc8b0009568a0017bc9b8005020aa07cd3eff826c980095cc0188c701826a9000c87a0ad4ac0788770182688000c88707d8870882608800c880008268b000958420d88409826bb800c89b03d8b30bda990b8269a800c89b0bd89b098262a000c892027b6a90008268507b8a0864ca7b8c7b871064097b6988007b89187b6780006449643064bc82647828ccfe826ba800826ab8008268b000826c1801958720d88708c88a09d8a90ada880ac8ba0ad8ba08c882028268287b6860017b6740018267207b6768017b6c70017b6948017b6478017b6a500195676001956840017b6258015020ac07dcdc956720013308405020ae07af3cff956c000182c8387b68b80082c9307b69b00082ca287b6aa80082cb207b6ba0004926f8004926f0004926e8004926e000207bc8187bc9107bca08956700019568e0007bcb5020b00784dc8267a0008268b8008269a800d48909826ab0005022b207041852084f4926d8004926d0004926c8009568c0004926c0005020b407683dff8267108268787b78188268187b78108268207b78088268287b789551a0fc9517000382705882755082764895116003320000951160ff7b1098007b1590007b1688009515a0008411e08289107b191882897b19108289187b1908828608827818827910827a0882777b18587b19507b1a487b17409517209518405020b607d93dff821720821828821930821a38847700ff821b08d46b0b821c18821610d46c0cd4cb0b8ebbd4b7077b1a787b19707b18687b17609517409518605020b807113eff955160ff8210980082159000821688009511a00032009511e0fe7b1018017b1510017b160801951520018411e064168289828a08828b108288187b67387b68107b68d8007b6b187b6bd0007b6a207b6ac8009568c0007b69287b69c00033075020ba07413cff4926b8004926b0004926a000023307209568a0004926a8005020bc07223cff33090c020239070c020256173f0b20030c020240017b69089517e08479e07b693064913307200202837783993308407b673300be070a09826a303302c00728860e826a305022c007800e7b6af8007b69f0007b68e8007b67e000956780009568e0005020c207ab3cff806790008268800082698800d4780ad49a0a510a27826a38491a187ba87ba9087ba7109551e0fe8210180182151001821608019511200132004916704916684916601407000000008932277e9568607b677833075020c4075e3bff8267107b67588267187b67508267207b67483307049568408269287b69405020c607393bff826708817756173f0b8268084808400133070133092482683300c8070a0d019511c0fc951a00037ba0387ba5307ba628951540038411e06416828a107b6a40828a087b6a3082887b6838829a829808829b108299187b67107b69607b6998027b6b687b6b90027b68707b688802956880027b6a787b6a800233075020ca07b83aff4926780249267002492660020233072095686002492668025020cc07993aff33090c020239070c020256173f0b20030c020240017b69281407ffffffff000000007b67189517e08479e07b695864913307200202837783993308407b67203300ce070a09826a583302d00728ef0c826a585022d007e90c7b6ab8027b69b0027b68a8027b67a002956740029568a0025020d207143bff8068500282674002826948027b67587b6850d487077b6948d497075107f5008267787b6720028267707b6728028267687b673002956720028268607b6838025020d407e40549261802826750956900027b97108267487b9708956800028267587b9733075020d607b739ff4926f8014926f0014926e001033307209568e0014926e8015020d8079839ff9517e08477e07b67086471826928819756173f08480940019517e08477e07b67647183793308408267203300da070a09826a3302dc07286e08826a5022dc0769088268087b8a187b89107b8b087b879567c0015020de07303aff956b00015022e007dc0e956b00027bb8c0007bb7c8007bb9d0007bbad8009568c0028267085020e2077c3aff8267308478ff8267388477ff826940826a18d2a9097b67407b6930d497077b6838d487075107d0004926b8018267407b67a0018267387b67a8019568a0018267307b67b00133075020e407c438ff4926980149269001492680010333072095688001492688015020e607a538ff9517e08477e07b67186471826928819756173f08480940019517e08477e07b6708647183793308408267203300e8070a09826a083302ea0728770d826a085022ea07710d956760015020ec074839ff956b000182b76082b87882b96882ba705022ee07a70f956a00027ba7e0007ba9e8007babf0007ba8f8009568e0028267185020f0078839ff8267787b6740018267707b6748018267687b675001956840018267607b67580133075020f207f537ff4926380149263001492620010233072095682001492628015020f407d637ff9517e08477e07b67186471826928819756173f08480940019517e08477e07b6728647183793308408267203300f6070a09826a283302f80728a80c826a285022f807a20c956700015020fa077938ff8067140197772082681801826930d49707826938956a00037ba9088269407ba97ba8187ba710956800038267185020fc07bd38ff8267607b6798008267687b6790008267707b6788008267787b6780004926b8008267307b67b0008267387b67a8008267407b67a0004926d8008267507b67d0008267487b67c8003a07e801023a08f001023a09f80102826a587b6ac0007b67f8007b68f0007b69e8003a070002029569e000956ac000956ba000956c80007b67e000330733085020fe07a239ff8267104917188268507b78108268487b78088268587b789551c0fc95170003827038827530827628951140033200951130fe7b10c8017b15c0017b16b8019515d0018411f0828210828408828c972a2098aa20d44c0bd4ba0a510ac600829618829a10829b0882998283188278107b18488278087b183882777b17407b19307b1950017b1c70017b1b287b1b58017b1478017b1a207b1a60017b1280017b16187b1668019517900195187001951950017b13880150200008f8fa821ca801821ba001821a980182199001d4ca07d4b908d487075107a6001408ffffffff000000008216388462ff821648d286038216408466ffd36907d33b08d48707d32a08d4c808d487075207ec00955130fe8210c8018215c0018216b8019511d00132004921800049117849117014070000000092aea0649518707b1788003307502002088335ff491168491160491158330704951850491150502004086a35ff39080c020256183f1120030c020240330820020228763308200202286f4921c0004921b8004921b0001407000000008932277e9518b0007b17c8003307502006082635ff8217187b17a8008217207b17a0008217287b179800330704951890008219307b19900050200808fc34ff39080c020256183f1120030c0202403308200202280833082002020183883307013309240a0d014921400149213801492130011407000000007b3d2864951830017b17480133077b19487b1a407b1b387b1c107b16087b12643650200a089b34ff492128017b16200182177b171801330704951810018219087b19100150200c087834ff8217187b1708018217207b1700018217287b17f8003307249518f0008219307b19f00050200e084e34ff8217107b17e8008217387b17e0008217407b17d8003307449518d0008219487b19d000502010082434ff39080c020256187f0c20030c020280000133082002028388330701330964330012080a0d01951120ff7b10d8007b15d0007b16c8009515e0008411e064168279827808827a108277187b67787b6a707b68689568607b6960330750201408c333ff4916584916504916400433072095684049164850201608a933ff39080c020256183f0b20030c020240019517e08479e07b69186491330720020283778399330840330018080a09826a1833021a08281706826a1850221a0811067b6a98007b6990007b6888007b6780009567209568800050201c083d34ff8067348268389777204926a8004926a0007b68b8007b67b000956780009568a00050201e088d34ff955120ff8210d8008215d0008216c8009511e00032003307502020081837ff330701502022080e37ff829858d87807829850948782984894873202956a000182a74882a940d47909140700000000010000007ba7401407fcffffff0000000082a858d8780782a85094877ba9489497320282970882988199106f77987a206f88978b20d4ba0a7b6a20019777206f99989920d497077b6718019888207b6810019517e08479e07b6908016491320282a782a80882a91082aa186f776f886f996faa95ab02d8ab0ac8a90cd89c09daaa09c88909d88908c88707320282970882988199106f77987a206f88978b20d4ba0a9777206f99989920d49707988820320282970881981082996f77977a206f88988820d48a0a9877206f98978920d49707988820320282a782a80882a91082aa186f776f886f996faa95aa0188ab01c8b909d49a0b88bb01c88b0bd88b08c887073202956c00017bc9507bca48d4a9077bc858d4b808d478089888207bcb40d4b707977720d487073202d88708826ad000c88a09d8a90ada880a82681001c88a0ad88a08826b0801c8b808956bd83095bc00033202d88708826ac000c88a09d8a90ada880a82681001c88a0ad88a08826b0801c8b808956bd83095bc0004320282682001d8780782681801948782689800948732028263200195330188370182642801c87404d44307887701956c000182c818c88707d8870882603001c8800082c958959820d8980982cb48c89b0ad8ba0bda990b82c940c89b0bd89b09320282a71882a81082a90882aa6f776f8b6f996faa3202491130491128491120140700000000717b484e9518207b173833073202826a4882a71882a81082a90882aa6f776f8b6f996faa8268587b8a187b89107b8b087b873202826a080182a782a80882a91082aa186f776f886f996faa95ab02d8ab0ac8a90cd89c09daaa09c88909d88908c887079568d8303202826a280182a782a80882a91082aa186f776f886f996faa95ab03d8ab0ac8a90cd89c09daaa09c88909d88908c887079568d83832028269d00082970882988199106f77987a206f88978b20d4ba0a7b6a38019777206f99989920d497077b6730019888207b6828019517e08479e07b69200164913202d49707d48b09d47909989920d48707977720d497073202c89808d48709889901826a1001c8a909d8a90a826b0801c8ba0a956bd830320282a782a80882a91082aa186f776f886f996faa95aa0188ab01c8b909d49a0b88bb01c88b0bd88b08c887079568d830958c00053202c88b0bd88b08c8a808d49808d4b709d48909d4b808989920978820d4980832028269380182970881981082996f77977a206f88988820d4a8087b6820019877206f98978920d497077b6718019888207b68080133070030320282a782a80882a91082aa186f776f886f996faa95ab04d8ab0ac8a90cd89c09daaa09c88909d88908c887073202826b180188b98000826ad000db9a08826cd800826ae800d4ca0ada970a93b8ff93baff826be000939b939c8267f000e0a7073202826a200182a71882a81082a90882aa6f7c6f8b6f976fa87b680801826998007b98187b6710017b97107b6bc0007b9b087b6cb8007b9c3202956c000182c858958720d8870882ca50c88a09d8a90ada880a82c840c88a0ad88a0882cb48c88b0b9568d820320295680001828b48828940828758d4b707828a50d4a908d47808988820d4a707977720d487073202d88708826ac000c88a09d8a90ada880a82681001c88a0ad88a08826b0801c8b808956bd83095bc00053202956b00017bb7507bb948d497077bb858d4a808d478089888207bba40d4a707977720d4870732028269a80082970881981082996f77977a206f88988820d48a0a9877206f98978920d4790b9888208267580132028268f00082675801c88707d88708826be80082694801c8b909c88909d3b90ad8b90bdaa80b826ae00082684001c8a8083202826a2801d3a707826a3001d3a808d4870782683801d39808d47808826b400164b7826358018264500182604801320282a71882a81082a90882aa6f776f886f996faa320282970881981082996f77977a206f88988820d4a8087b6858019877206f98978920d49707320282970881981082996f77977a206f88988820d48a0a9877206f98978920d497079888203309002032029517e08479e07b69080164913202c8ba0a7b6ae80097aa3b989b05d4ab0b8267080182731897993b827a10988805d498076f346fa9320282970881981082996f7a97a7206f88988820d4870798aa206f98978920d4a909988820320282970881981082996f77977a206f88988820d4a808320282970881981082996f77977a206f88988820d4a8089877206f99979a20d4a707989920320282970881981082996f77977a206f88988820d48a0a9877206f98978920d47909988820320282682001d878078268180194878268a800948732029517e08477e07b672001647183793308408267f80032029517e08477e07b672001647183793308408267e8003202c89c0cd89c0b82671001d87909c89407c8b707d4c809d4a707d47909989920d4c707977720d497073202956a000182a74882a940d47909140700000000010000007ba7401407e0ffffff0000000082a858d8780782a85094877ba9489497320282681801d4870782682001d49808d47808988820d49707977720d487073202977b3f988c01d4bc0397ac3f987701d4c70797883f989c01d4c80898aa018499019a9c3202826a580182a71882a81082a90882aa6f776f886f996faa956bd8303202826b480195bb0188b70182645001c87404d44b078877018268b000c8780ad88a083202939b8268f800e0a80882690001e0790782690801e0b909826a1001e0ca0a320282a71882a81082a90882aa6f776f8b6f996faa8268187b8a187b89107b8b087b8732029517e08477e07b6748647183793308408267a0003202c89c0cd89c0ad84909c89307c8a707d4c809d4b707d47909989920d4c707977720d497073202d4ca0ada980a3308ffdab807dab80a939c3202330a330c330b826700018268f800d487078268100182690801d49808d487078e77977705320282b7c80082b8c00082b9d00082bad800d4780b88bb01d8b90cc9ca0ac9b909888b01c9b7079588ff3202647183793308408267300132028267a0008268a800d4780882676082692001d879078269180194977b689800948732026478957720d88708c88a09d8a90ada880ac8ca0ad8ca08c88b0b320282ab7b1b1882ab087b1b2082ab107b1b2882aa187b1a308296829a087b1a829a107b1a088299187b191032028eb9858801dbb9088e498ecadac90ada780a3202959901889801c88c0cd4c908888801c80808d80807c873037b694001320282171082181814090000000001000000d37909d48909987a2088aa01948a939a3202826a1001d3a707826a1801d3a808d4870782682001d39808d47808826a280164a03202953301883801c88404d44308888801c87808d87807c870007b63580132028218b000d868078219b80094978219980094973202826758018377243308d828c8860932028267c0008268b800d487071408e0ffffff000000008269d000d889088269c80094989478320282a71882a81082a90882aa6f776f886f996faa956b00053202d27a0a8488ff8499ff826720018377203202d27a0a8488ff8499ff826720018377403202957701887b01c8b909d4970b88bb01c8ab0bd8ab0ac8a808320249111849111049014133070464184911083202c8b909c88909d3b90ad8b90bdaa80b3202d876078218b00094878218a00094873202826a080195aa0188a7018269f800c87909d49a078877018268c0003202826758018377043308d828c886093202d4a808d4970ad48a0a98aa20d49808978820d4a80832028219821a087b697b6a087b67107b68189551c082103882153082162895114032028477ff008e7882672001837780003202c88a09d8a90ada880a320282186f888219086f99821a106faa821b186fbb3202956b00017bb8507bb948d489077bba4088a801947832028267b8008268c800d487078269c0008268d000d49808d47808988820d49707977720d487073202c8790bc8ab0bd39b0a7b6bf000d89b09daa709826be800320297773b9878387b6818019a8980003307ff3308ff32029517e08477e07b670001647182675801817733083f32029517e08477e07b673001647182671001817733083f32028268d800d88308826ae000d3a409d8a40ada980a8268e80032027b67d8007b68e0008267d000d487077b67d000826718019579803307ff3308ff3202c8760a95ab000282b75882b86082b95082ba48d49808d4a707d4870732024926080133074926f8004926c0004926100133033304330b3300320282970881981082996f7a97a7206f8898882032029551a0821058821550821648951160320282b7b80082b8c00082b9b00082baa800d49808d4a707d4870732029517e08479e07b695801649132029517e08477e07b679800647182670001817733083f3202c8b707c88a0ad88a0cc8c7078260e000c8a000d8a00a32029511c07b10387b15307b16289515408411e064768317320297a8037b6818018d8980003307ff3308ff32028377d8f8c8760a95ab00013202e0890882690801e0c909826a1001e0ba0a32028268d800d88908826ae000d3ac0bd8ac0adab80a3202826758018177330823320282978000956800017b87588297787b87508297707b87488297687b874032023307d830c8760a95ab000632023307d830c8760a95ab00013202d4a708d49808988820d4a909979920d49808320282a71882a81082a90882aa6f773202849a40520a195109148d9a40cfa80ad09808d09707d4a707320032009597c0d0780733083200849a40520a195109148d9a40d0a70acf9707cf9808d4a808320032009598c0cf87083307320049922425494b2a252da9944c4949214225a952484992244992244992244992244992244992244992244992244992244992244992542529a524292949a84a494a922449922449922449922449922449922449922449929224294955494a9228492549559282922425294955559292a424952405495249414192a49452925452444494502a29292952a4489122458a14252922228a88889424494a92244142519122458a142952a4489122458a14295294481111519224082161284d4a43221111112922824444222222524490881011118d88882449244444544a92489224491249121111112212912449121111420490284a1222228088089110915429492249922489444422928448922449928888102280a428498488888488101151891249449248444444882409922449a524482222222222a210222111844a9a24922488a24a9248129144924892248914249124515215241249924492441249311249229124494912111145448488882449242991482212499224499224114944444421895248a24aa1882a2249554522911a45249128892412494422222991041111219224922422441249228944229148228944249124924814914a8988884a9288884892944892242249124484888888884810442411044110412449444826499224222222222292888424491211111131914804414492041191882441442422882089442211111111111122424444258a4844242222224484888808922449a508221111111111a110222111844a349248128128aa2489241149248924499248814824499454051289244922492289a4188924914892a42489888822228288882449242991884424221111110a922805495429145115498aa2a222458a4423228944241149249144224912880822222292242288249244128944229144128948224924918814a544444489482411119188442222914892042282482412890804229208040281084492440431914492489244444444444424124444442291484c1249224924028188481288884424094444220211884422910811111111114444888888082022224188a2888840a4241211111111221244229288888808118948444424124482888848922431941a1111c0888288908820441012121111c0888288908820441012121111c0888288908820441012121111c0888288908820441012121111c088828890882044100a45440430a220222422081184c29222124155a2a02a214224a268444040201111118d4892244914898810110442888844229188a28822028924492210111111511011512204118d22121108958822220249222288880844208944249288880820a22062442811918888884644442449a24844848808222291482422220a11114444444412894412919424492492249200129188888888880814551511114044444404901111892491489224499224894824121151101111252204218a438860442054228a084492444410111191482289222222222222a22022224a440892288a44048a24554524128922124444241289241109222288082411499224221144128148928808229248142511898848202222222222880492242282482089888848202222221211440249221241249044444444442222222211412410111189201248220211111144222291888888888888404444049288888888082212894491482422228148224924912449444444242222a211111149922812112122088410119148241251145144209124490422222222a22022224a4408221a452422102a5194a42a499224224922228888884004924844228988880022a2202222948808a2884ca20124229148442488a2aa220288442222808c884024228924490211894422a22022a24408221a45242222102a114544042222228288884044444444928882888812210824121188220291202222222222222282882022101111114922228824021111111104222249029144824820222222880422224902111111412410111111440211111111898888209248124924224922824820220211111144221249924892444424884892404444444444041111111111118944111111042249a2888848008988888888888820a2a8aa8800229188082023221089482249221011894422220a2222a2448420a25144222202a1125144209224228288880844444444444444144444448908412091884014118848101111111111111111414404118188884892242211441281481211110422229224104944824820222222824820222222128888880822818888880822818888888848444444100944444444100944440422222282484414118944244922222222414424492022222222222288888848241291481411111111042249a288884844828888888888888888884852444444048128221211492488888888888844222222a28888201045444444221244444444444424121111114544444410481111111193244924228924499224c980808080804002092490400209249088888888220289244912482222222292242222220a224684121184488808844a141188888888202210092292241045249224912422228011051121119188880288288818114a442422220a20220a2222428988208ac8241a1111118d88882449148904111111111111112122888888882449229220101191241289442482481288884844444444441048444444441111812449924449222222128944441a912491244925912449928428a288884024228914448c08252208119248442054228a880844511411118944a4202222224a440451442651892249551111111111111111814810111111882222914844144144111181a4241111222222420811912489888888888894244912452590444484882022222242148d04922449924810912481888808202282404422224404910422121121220820124020222122420811114124818884101111118988888828222290049288149124229244242292442a12894422222222224644229188041149128888880811042222914824a288882022221248225244444444444444441444449408418810914914a212514420222222828811111111111111514414448c0825228822328940141111888888880822128944444444342222229224499224112312894444414444891004129944208a880844494214514444205212898820221289482492882022128944a42062442811412091014412812822221025892002111191882489082222222222a22062442811411245119944208a8808444922888848222222228888081141449224894810812489880811111111441411118844c48888404444444444444444444444041111212288888888888810114492a24449a22412491111111111492491441249124593888888282222228a122551928848144944444444444412492492441109229148242289484492244924113112894424828822220249492222222222222222228410a28888884444440445258a44a48844229148a2881431224944229128a28888888882881121114188109149142a1145248288888888202222224214d1489024499244444444232222229144224912092222228224624404101141900422424410499004224244104024802089848884109248104990442222808888444444241a1148a22401444444444444444444444444444414110511114a441022446412854a44111181288a22892291884444441444442452221244119944208a480491a408221109224982a4284a1229824424222222a28840208922912022222222222222824892489224220581249224222222222282481248222211492422412011111111450422229224812422452412894444444410892449a482889088204442442054a24810491211442412890411111124459248442222111111118d0824512422224444101181880411912441524424922411c9224844222222a211499224892222222288181111111111894422914824224144444444444488882222882429499224111111051189442211111111914824221289141111094255222222228a0824499224482212458224898888880822464422914810111111244592884492c822484402892211894644449044442991249248229544228a882892481291442249249244441111114444444444448a48442291248a8810114492141111114492442412458a88081184281a294912514422888888888888888888202222224912118944225210312294882089428424120942258da48844244992aa2292484949441011518922499224222282888888888888202222a25224918824928848a444225110456412951449248944924892544a9524912491449248922489942492882449a2a42a49922412499244922449923412492291244944914824222222228824924412299120224982246244041011419004112122882448828810110410092048222122420811114124411209111142888888448288888820891811014444102441448808220992202244040144020892488848082189049104492444440011114922499224922449224992884444241289484112a520892a85222222495551452269442491882422918844918824912491244992442411442489882411412491249248241289249248441249228944a4948888281111110a92a20a211289441242228922914844232222a248248944922411110489488224222222222282209294a44a248844229168244992244992144504115144452422220a92a20a211289441242228922914844232222a248248944922411110489488224222222222208224949aa4424898888342211499224498a22828828a22246d292440445a291249120222222222222111144828824099288880811041111111111514444101111892489041111111111111141248824054944448820920822894444444444444444101131922289249224495292244914415189884824899224499224499244109148241291442441441241442422491011894892a848241289888888089224499244444444221240242a89441091489292492249248948441244449220221291248888440451241289249124494444444c049120222222488a888888888822082122428428111149929424492549922422414492044944440011110449242242441049904422224404014490444208111101440489a0a428964444101111111111491251244924924824894810312292244922222222222282489224499244444444444404114582244844249108228e2448824444128920804800411289449224922888244822222222a22022222222220a22468412112451149149545224a9288a229214114444444492440411414444442445124922891425298288442422912422880822222222299208228914498a20221189482412114404111111492489241211111111114144101111498a2492441289888888888820624422884444118920221289442291484444444410092212894422a291244992248920129144228818099208221111111144122491484422118920800892484444441022222211428844444444222222222549929224a92412442449901411894422520489a0542249922449121111404404411289881011441224918808114100910082241222420811111144122491880820228288a0448ba0a8a15442a9845209a5121111c088828890882044100a4b1a4a25944a2895502a11110510512022a2440442042121a15442a9845209a5124a2522a200220a444494884088202424944a448a8888880811111111085509a5124a25944a28958811894422522022a244082451149148104524822849042222222222222222101111111111052246841211882232894a4491202222220211232212894881888812211024328008a288441025892812442210118944241249442022128944a440c488502202412291208a4804519288912012818848244924922491404444212210111191249224492222424444440422462482484924221a09229148241289442222222282a2124a25944a2895502aa15442a9845209a5124a25944a2895808888888822124144449208a5124a25944a289548520091025152228110414848444401441488882811811041484824290218291031891209441199a411114500230a448c082522104564120d888888882812249224114a258a08a5121011111151442288502a418452898844444444444444222212894444a2111141845245202222a21111114922942a94aad428118a48342222224912a188282592441249a4221251444491449288241211111189882445444410914824121129224922222222222222222222222222228a8888084255a2888888882022222222224a9288882422898844a2884804a12a014444242222222245449288888888882012894488a2919424912429898846824852922422a248440a448444044284884ca250892822114451144914514422888888021111119188084411994425a2884410498a40444422918888888888104288882422221211111111a940444444441488088908245188601285a2441189209214814844222222222202452580244900491240920490248d888808841008914a8854422222808802114524828824914014914944232222494a92244922499212092449922489888844221189024902482a9224a928499224492429901428059224419224499204908a442409240124498224499224494a1211114d140912144a512448140912144ad18888882429224922492291448988444481242249924424128924924844201291244944920490244922095445229148229148049000924c9224294992249244924445120944924424499288084424224992888888888808441289a24804221289a288882449444404922012814814454424492222229004910844a22822221211118124888840248a22492492242222128924454444148844104924922449922422121125512412898888684444a42449922449924a4a92286912409224a94892a4499224a94849a48888244949499224492222a250282c45932449a914499248922449920492a420100442044349342212a9a424499224499224499224a9a42449922449922449202212258900260592481208110c25d124959494244992a4a424491008022182a1241a11114992a42449524a928888888844108944229140444444a24824121111114124124124222222229024912449922492249224499224a9249224492249922422124024152515a834924892242289489224a9948888082412498a88888652344992a424499224294992945292a0209024251022184aa2492a2929499224499224294949922010044204434934222222252922222222228288888888880422499248894422492212244992248988229188042222222222a88a88489224499224499224499224490011402649922449928888440211111111111141442249928888880824924814452422220291202211111188041189888840248888888808249244904892248888884444042289209254494a49121111d188884892922449924492a42281a488882449922491244992244992244992244992242949444434490430299044924088602889464444a494884422494952024822918844818890884008118c240a958822124192440422229244124984942625894489244892244922222222a240444844208a4c528928910429a524295122092222a24022499248025164924a448924489222109148242251202224229026a59424454992c8249588124990241181884892248988442291484422888844222a10111211485214890451248840041111110944444444148808890824298a44822812442022228888884820914844a24044484420925424124491200291884444444424904824121111111111112184888808111151818824492449928888882822028828101189088408869246440011454420222212118144229148042222914414882222894aa21189444404105120512209222211814424128944208a4812258912110144144824491249208a4812258952922449922429494992209024251022184aa2114922499294924491444a924824221111119148444422488992442149424242d1884820222222922449449200221188684424800012451141224924104914450049922492440211400089a248a224892410491445222288084424492491884824128988880822222292224922492249924692924849124992a42892884a20522022222292001249249124492249aa4654445444644444444444445024a9241111888848924400492222491412118888481249129102955291242209229148249140249248242222229244144424924492888848448146248044a524521488a246c4501a4a8d8800220a4444221111081184c29246440011052222918808840842a18888888828101112110821829144a1124592aa22128944228148241289084492449224221224498288244949124920124902485211494424222250254992922422222222a24092a2c8242a51154992244952552291482525291991249124491249222290481241224924414444444444042289249144228924914422a914892a89884c9224494422222222824820128944222242928882884804898888409224491149a2111191a4244952922481248924494a9224818888282222524992482422512022242210420493a450294a244144444420229224251111519200920249922449204532291a91245292949224914844a240444844208408268024295412259220222222101149924824129108229124528188908840925264522551918224290211444444249024499224118944240a448444049294229354122592200291244144444402894422120522422202494a91492a8912491081482489a4241248241289482412914884101211112222a2024992a48824514444242949224949929288442422111111444424890092244992242222a248024814489224102208852222808802894422910884084261492322808892241588281289402291482402894422910884080c25d18888482549921448224920443049a11225922022221148121111118888880a2490a45424092001242995524a22259148a24a52952449524a2949494a2a25294925a94a922429922449929448124924a2449248221145a2a848224924892449922425a9aa24012495245525494549aa922449a22849559224491429a524521289242a4992942492485492aa244992889224499222a994444a221195a42a4992a48848449244458a2455452412898a2449922489224992244989249144228a244992244552294949a288242249129122914412454449aa2aa994444a4a2a252949944425924492a44a2a25294949a5a4a452929294544a5292225154129528894a944492244952240920012429158924494a9224495291a4aa28924812494522914849aa4a924a528992244992a42449551189484a111149922455a288241245952449524992a494249554529224499404902455249248a2922449a248141589149100225125a92a4a122949a424499292a494242951542491248a444a9224959224498a224a52a5948a244945242249929244122511494914a5248a52249244119188242592244951445495544a499222229294442551949224929224a9129114891289148924452922499214892251922425a99224492aa92449924a0a00"},"methodIdentifiers":{"approve(address,uint256)":"095ea7b3","balanceOf(address)":"70a08231","buy(uint256)":"d96a094a","createToken(string,uint256)":"72b3b620","fetchItemsListed()":"45f8fa80","fetchMarketItems()":"0f08efe0","fetchMyNFTs()":"202e3740","getApproved(uint256)":"081812fc","getListingPrice()":"12e85585","isApprovedForAll(address,address)":"e985e9c5","name()":"06fdde03","ownerOf(uint256)":"6352211e","resellToken(uint256,uint256)":"e219fc75","safeTransferFrom(address,address,uint256)":"42842e0e","safeTransferFrom(address,address,uint256,bytes)":"b88d4fde","setApprovalForAll(address,bool)":"a22cb465","supportsInterface(bytes4)":"01ffc9a7","symbol()":"95d89b41","tokenURI(uint256)":"c87b56dd","transferFrom(address,address,uint256)":"23b872dd","updateListingPrice(uint256)":"ae677aa3"}},"hash":"27d7a02e79ad11b78da1862b12002a28c4679e3f810d0978646721378c0d2f1b","factoryDependencies":{}}}}